{
  "contracts/mocks/MockTreasury.sol": {
    "MockOlympusTreasury": {
      "abi": [
        {
          "inputs": [
            {
              "internalType": "address",
              "name": "_OHM",
              "type": "address"
            },
            {
              "internalType": "address",
              "name": "_DAI",
              "type": "address"
            },
            {
              "internalType": "address",
              "name": "_Frax",
              "type": "address"
            },
            {
              "internalType": "uint256",
              "name": "_blocksNeededForQueue",
              "type": "uint256"
            }
          ],
          "stateMutability": "nonpayable",
          "type": "constructor"
        },
        {
          "anonymous": false,
          "inputs": [
            {
              "indexed": true,
              "internalType": "enum MockOlympusTreasury.MANAGING",
              "name": "managing",
              "type": "uint8"
            },
            {
              "indexed": false,
              "internalType": "address",
              "name": "activated",
              "type": "address"
            },
            {
              "indexed": false,
              "internalType": "bool",
              "name": "result",
              "type": "bool"
            }
          ],
          "name": "ChangeActivated",
          "type": "event"
        },
        {
          "anonymous": false,
          "inputs": [
            {
              "indexed": true,
              "internalType": "enum MockOlympusTreasury.MANAGING",
              "name": "managing",
              "type": "uint8"
            },
            {
              "indexed": false,
              "internalType": "address",
              "name": "queued",
              "type": "address"
            }
          ],
          "name": "ChangeQueued",
          "type": "event"
        },
        {
          "anonymous": false,
          "inputs": [
            {
              "indexed": true,
              "internalType": "address",
              "name": "debtor",
              "type": "address"
            },
            {
              "indexed": true,
              "internalType": "address",
              "name": "token",
              "type": "address"
            },
            {
              "indexed": false,
              "internalType": "uint256",
              "name": "amount",
              "type": "uint256"
            },
            {
              "indexed": false,
              "internalType": "uint256",
              "name": "value",
              "type": "uint256"
            }
          ],
          "name": "CreateDebt",
          "type": "event"
        },
        {
          "anonymous": false,
          "inputs": [
            {
              "indexed": true,
              "internalType": "address",
              "name": "token",
              "type": "address"
            },
            {
              "indexed": false,
              "internalType": "uint256",
              "name": "amount",
              "type": "uint256"
            },
            {
              "indexed": false,
              "internalType": "uint256",
              "name": "value",
              "type": "uint256"
            }
          ],
          "name": "Deposit",
          "type": "event"
        },
        {
          "anonymous": false,
          "inputs": [
            {
              "indexed": true,
              "internalType": "address",
              "name": "previousOwner",
              "type": "address"
            },
            {
              "indexed": true,
              "internalType": "address",
              "name": "newOwner",
              "type": "address"
            }
          ],
          "name": "OwnershipPulled",
          "type": "event"
        },
        {
          "anonymous": false,
          "inputs": [
            {
              "indexed": true,
              "internalType": "address",
              "name": "previousOwner",
              "type": "address"
            },
            {
              "indexed": true,
              "internalType": "address",
              "name": "newOwner",
              "type": "address"
            }
          ],
          "name": "OwnershipPushed",
          "type": "event"
        },
        {
          "anonymous": false,
          "inputs": [
            {
              "indexed": true,
              "internalType": "address",
              "name": "debtor",
              "type": "address"
            },
            {
              "indexed": true,
              "internalType": "address",
              "name": "token",
              "type": "address"
            },
            {
              "indexed": false,
              "internalType": "uint256",
              "name": "amount",
              "type": "uint256"
            },
            {
              "indexed": false,
              "internalType": "uint256",
              "name": "value",
              "type": "uint256"
            }
          ],
          "name": "RepayDebt",
          "type": "event"
        },
        {
          "anonymous": false,
          "inputs": [
            {
              "indexed": true,
              "internalType": "uint256",
              "name": "totalReserves",
              "type": "uint256"
            }
          ],
          "name": "ReservesAudited",
          "type": "event"
        },
        {
          "anonymous": false,
          "inputs": [
            {
              "indexed": true,
              "internalType": "address",
              "name": "token",
              "type": "address"
            },
            {
              "indexed": false,
              "internalType": "uint256",
              "name": "amount",
              "type": "uint256"
            }
          ],
          "name": "ReservesManaged",
          "type": "event"
        },
        {
          "anonymous": false,
          "inputs": [
            {
              "indexed": true,
              "internalType": "uint256",
              "name": "totalReserves",
              "type": "uint256"
            }
          ],
          "name": "ReservesUpdated",
          "type": "event"
        },
        {
          "anonymous": false,
          "inputs": [
            {
              "indexed": true,
              "internalType": "address",
              "name": "caller",
              "type": "address"
            },
            {
              "indexed": true,
              "internalType": "address",
              "name": "recipient",
              "type": "address"
            },
            {
              "indexed": false,
              "internalType": "uint256",
              "name": "amount",
              "type": "uint256"
            }
          ],
          "name": "RewardsMinted",
          "type": "event"
        },
        {
          "anonymous": false,
          "inputs": [
            {
              "indexed": true,
              "internalType": "address",
              "name": "token",
              "type": "address"
            },
            {
              "indexed": false,
              "internalType": "uint256",
              "name": "amount",
              "type": "uint256"
            },
            {
              "indexed": false,
              "internalType": "uint256",
              "name": "value",
              "type": "uint256"
            }
          ],
          "name": "Withdrawal",
          "type": "event"
        },
        {
          "inputs": [
            {
              "internalType": "address",
              "name": "",
              "type": "address"
            }
          ],
          "name": "LiquidityDepositorQueue",
          "outputs": [
            {
              "internalType": "uint256",
              "name": "",
              "type": "uint256"
            }
          ],
          "stateMutability": "view",
          "type": "function"
        },
        {
          "inputs": [
            {
              "internalType": "address",
              "name": "",
              "type": "address"
            }
          ],
          "name": "LiquidityManagerQueue",
          "outputs": [
            {
              "internalType": "uint256",
              "name": "",
              "type": "uint256"
            }
          ],
          "stateMutability": "view",
          "type": "function"
        },
        {
          "inputs": [
            {
              "internalType": "address",
              "name": "",
              "type": "address"
            }
          ],
          "name": "LiquidityTokenQueue",
          "outputs": [
            {
              "internalType": "uint256",
              "name": "",
              "type": "uint256"
            }
          ],
          "stateMutability": "view",
          "type": "function"
        },
        {
          "inputs": [],
          "name": "OHM",
          "outputs": [
            {
              "internalType": "address",
              "name": "",
              "type": "address"
            }
          ],
          "stateMutability": "view",
          "type": "function"
        },
        {
          "inputs": [
            {
              "internalType": "address",
              "name": "",
              "type": "address"
            }
          ],
          "name": "ReserveManagerQueue",
          "outputs": [
            {
              "internalType": "uint256",
              "name": "",
              "type": "uint256"
            }
          ],
          "stateMutability": "view",
          "type": "function"
        },
        {
          "inputs": [],
          "name": "auditReserves",
          "outputs": [],
          "stateMutability": "nonpayable",
          "type": "function"
        },
        {
          "inputs": [],
          "name": "blocksNeededForQueue",
          "outputs": [
            {
              "internalType": "uint256",
              "name": "",
              "type": "uint256"
            }
          ],
          "stateMutability": "view",
          "type": "function"
        },
        {
          "inputs": [
            {
              "internalType": "address",
              "name": "",
              "type": "address"
            }
          ],
          "name": "bondCalculator",
          "outputs": [
            {
              "internalType": "address",
              "name": "",
              "type": "address"
            }
          ],
          "stateMutability": "view",
          "type": "function"
        },
        {
          "inputs": [
            {
              "internalType": "address",
              "name": "",
              "type": "address"
            }
          ],
          "name": "debtorBalance",
          "outputs": [
            {
              "internalType": "uint256",
              "name": "",
              "type": "uint256"
            }
          ],
          "stateMutability": "view",
          "type": "function"
        },
        {
          "inputs": [
            {
              "internalType": "address",
              "name": "",
              "type": "address"
            }
          ],
          "name": "debtorQueue",
          "outputs": [
            {
              "internalType": "uint256",
              "name": "",
              "type": "uint256"
            }
          ],
          "stateMutability": "view",
          "type": "function"
        },
        {
          "inputs": [
            {
              "internalType": "uint256",
              "name": "",
              "type": "uint256"
            }
          ],
          "name": "debtors",
          "outputs": [
            {
              "internalType": "address",
              "name": "",
              "type": "address"
            }
          ],
          "stateMutability": "view",
          "type": "function"
        },
        {
          "inputs": [
            {
              "internalType": "uint256",
              "name": "_amount",
              "type": "uint256"
            },
            {
              "internalType": "address",
              "name": "_token",
              "type": "address"
            },
            {
              "internalType": "uint256",
              "name": "_profit",
              "type": "uint256"
            }
          ],
          "name": "deposit",
          "outputs": [
            {
              "internalType": "uint256",
              "name": "send_",
              "type": "uint256"
            }
          ],
          "stateMutability": "nonpayable",
          "type": "function"
        },
        {
          "inputs": [],
          "name": "excessReserves",
          "outputs": [
            {
              "internalType": "uint256",
              "name": "",
              "type": "uint256"
            }
          ],
          "stateMutability": "view",
          "type": "function"
        },
        {
          "inputs": [
            {
              "internalType": "uint256",
              "name": "_amount",
              "type": "uint256"
            },
            {
              "internalType": "address",
              "name": "_token",
              "type": "address"
            }
          ],
          "name": "incurDebt",
          "outputs": [],
          "stateMutability": "nonpayable",
          "type": "function"
        },
        {
          "inputs": [
            {
              "internalType": "address",
              "name": "",
              "type": "address"
            }
          ],
          "name": "isDebtor",
          "outputs": [
            {
              "internalType": "bool",
              "name": "",
              "type": "bool"
            }
          ],
          "stateMutability": "view",
          "type": "function"
        },
        {
          "inputs": [
            {
              "internalType": "address",
              "name": "",
              "type": "address"
            }
          ],
          "name": "isLiquidityDepositor",
          "outputs": [
            {
              "internalType": "bool",
              "name": "",
              "type": "bool"
            }
          ],
          "stateMutability": "view",
          "type": "function"
        },
        {
          "inputs": [
            {
              "internalType": "address",
              "name": "",
              "type": "address"
            }
          ],
          "name": "isLiquidityManager",
          "outputs": [
            {
              "internalType": "bool",
              "name": "",
              "type": "bool"
            }
          ],
          "stateMutability": "view",
          "type": "function"
        },
        {
          "inputs": [
            {
              "internalType": "address",
              "name": "",
              "type": "address"
            }
          ],
          "name": "isLiquidityToken",
          "outputs": [
            {
              "internalType": "bool",
              "name": "",
              "type": "bool"
            }
          ],
          "stateMutability": "view",
          "type": "function"
        },
        {
          "inputs": [
            {
              "internalType": "address",
              "name": "",
              "type": "address"
            }
          ],
          "name": "isReserveDepositor",
          "outputs": [
            {
              "internalType": "bool",
              "name": "",
              "type": "bool"
            }
          ],
          "stateMutability": "view",
          "type": "function"
        },
        {
          "inputs": [
            {
              "internalType": "address",
              "name": "",
              "type": "address"
            }
          ],
          "name": "isReserveManager",
          "outputs": [
            {
              "internalType": "bool",
              "name": "",
              "type": "bool"
            }
          ],
          "stateMutability": "view",
          "type": "function"
        },
        {
          "inputs": [
            {
              "internalType": "address",
              "name": "",
              "type": "address"
            }
          ],
          "name": "isReserveSpender",
          "outputs": [
            {
              "internalType": "bool",
              "name": "",
              "type": "bool"
            }
          ],
          "stateMutability": "view",
          "type": "function"
        },
        {
          "inputs": [
            {
              "internalType": "address",
              "name": "",
              "type": "address"
            }
          ],
          "name": "isReserveToken",
          "outputs": [
            {
              "internalType": "bool",
              "name": "",
              "type": "bool"
            }
          ],
          "stateMutability": "view",
          "type": "function"
        },
        {
          "inputs": [
            {
              "internalType": "address",
              "name": "",
              "type": "address"
            }
          ],
          "name": "isRewardManager",
          "outputs": [
            {
              "internalType": "bool",
              "name": "",
              "type": "bool"
            }
          ],
          "stateMutability": "view",
          "type": "function"
        },
        {
          "inputs": [
            {
              "internalType": "uint256",
              "name": "",
              "type": "uint256"
            }
          ],
          "name": "liquidityDepositors",
          "outputs": [
            {
              "internalType": "address",
              "name": "",
              "type": "address"
            }
          ],
          "stateMutability": "view",
          "type": "function"
        },
        {
          "inputs": [
            {
              "internalType": "uint256",
              "name": "",
              "type": "uint256"
            }
          ],
          "name": "liquidityManagers",
          "outputs": [
            {
              "internalType": "address",
              "name": "",
              "type": "address"
            }
          ],
          "stateMutability": "view",
          "type": "function"
        },
        {
          "inputs": [
            {
              "internalType": "uint256",
              "name": "",
              "type": "uint256"
            }
          ],
          "name": "liquidityTokens",
          "outputs": [
            {
              "internalType": "address",
              "name": "",
              "type": "address"
            }
          ],
          "stateMutability": "view",
          "type": "function"
        },
        {
          "inputs": [
            {
              "internalType": "address",
              "name": "_token",
              "type": "address"
            },
            {
              "internalType": "uint256",
              "name": "_amount",
              "type": "uint256"
            }
          ],
          "name": "manage",
          "outputs": [],
          "stateMutability": "nonpayable",
          "type": "function"
        },
        {
          "inputs": [],
          "name": "manager",
          "outputs": [
            {
              "internalType": "address",
              "name": "",
              "type": "address"
            }
          ],
          "stateMutability": "view",
          "type": "function"
        },
        {
          "inputs": [
            {
              "internalType": "address",
              "name": "_recipient",
              "type": "address"
            },
            {
              "internalType": "uint256",
              "name": "_amount",
              "type": "uint256"
            }
          ],
          "name": "mintRewards",
          "outputs": [],
          "stateMutability": "nonpayable",
          "type": "function"
        },
        {
          "inputs": [],
          "name": "pullManagement",
          "outputs": [],
          "stateMutability": "nonpayable",
          "type": "function"
        },
        {
          "inputs": [
            {
              "internalType": "address",
              "name": "newOwner_",
              "type": "address"
            }
          ],
          "name": "pushManagement",
          "outputs": [],
          "stateMutability": "nonpayable",
          "type": "function"
        },
        {
          "inputs": [
            {
              "internalType": "enum MockOlympusTreasury.MANAGING",
              "name": "_managing",
              "type": "uint8"
            },
            {
              "internalType": "address",
              "name": "_address",
              "type": "address"
            }
          ],
          "name": "queue",
          "outputs": [
            {
              "internalType": "bool",
              "name": "",
              "type": "bool"
            }
          ],
          "stateMutability": "nonpayable",
          "type": "function"
        },
        {
          "inputs": [],
          "name": "renounceManagement",
          "outputs": [],
          "stateMutability": "nonpayable",
          "type": "function"
        },
        {
          "inputs": [
            {
              "internalType": "uint256",
              "name": "_amount",
              "type": "uint256"
            }
          ],
          "name": "repayDebtWithOHM",
          "outputs": [],
          "stateMutability": "nonpayable",
          "type": "function"
        },
        {
          "inputs": [
            {
              "internalType": "uint256",
              "name": "_amount",
              "type": "uint256"
            },
            {
              "internalType": "address",
              "name": "_token",
              "type": "address"
            }
          ],
          "name": "repayDebtWithReserve",
          "outputs": [],
          "stateMutability": "nonpayable",
          "type": "function"
        },
        {
          "inputs": [
            {
              "internalType": "address",
              "name": "",
              "type": "address"
            }
          ],
          "name": "reserveDepositorQueue",
          "outputs": [
            {
              "internalType": "uint256",
              "name": "",
              "type": "uint256"
            }
          ],
          "stateMutability": "view",
          "type": "function"
        },
        {
          "inputs": [
            {
              "internalType": "uint256",
              "name": "",
              "type": "uint256"
            }
          ],
          "name": "reserveDepositors",
          "outputs": [
            {
              "internalType": "address",
              "name": "",
              "type": "address"
            }
          ],
          "stateMutability": "view",
          "type": "function"
        },
        {
          "inputs": [
            {
              "internalType": "uint256",
              "name": "",
              "type": "uint256"
            }
          ],
          "name": "reserveManagers",
          "outputs": [
            {
              "internalType": "address",
              "name": "",
              "type": "address"
            }
          ],
          "stateMutability": "view",
          "type": "function"
        },
        {
          "inputs": [
            {
              "internalType": "address",
              "name": "",
              "type": "address"
            }
          ],
          "name": "reserveSpenderQueue",
          "outputs": [
            {
              "internalType": "uint256",
              "name": "",
              "type": "uint256"
            }
          ],
          "stateMutability": "view",
          "type": "function"
        },
        {
          "inputs": [
            {
              "internalType": "uint256",
              "name": "",
              "type": "uint256"
            }
          ],
          "name": "reserveSpenders",
          "outputs": [
            {
              "internalType": "address",
              "name": "",
              "type": "address"
            }
          ],
          "stateMutability": "view",
          "type": "function"
        },
        {
          "inputs": [
            {
              "internalType": "address",
              "name": "",
              "type": "address"
            }
          ],
          "name": "reserveTokenQueue",
          "outputs": [
            {
              "internalType": "uint256",
              "name": "",
              "type": "uint256"
            }
          ],
          "stateMutability": "view",
          "type": "function"
        },
        {
          "inputs": [
            {
              "internalType": "uint256",
              "name": "",
              "type": "uint256"
            }
          ],
          "name": "reserveTokens",
          "outputs": [
            {
              "internalType": "address",
              "name": "",
              "type": "address"
            }
          ],
          "stateMutability": "view",
          "type": "function"
        },
        {
          "inputs": [
            {
              "internalType": "address",
              "name": "",
              "type": "address"
            }
          ],
          "name": "rewardManagerQueue",
          "outputs": [
            {
              "internalType": "uint256",
              "name": "",
              "type": "uint256"
            }
          ],
          "stateMutability": "view",
          "type": "function"
        },
        {
          "inputs": [
            {
              "internalType": "uint256",
              "name": "",
              "type": "uint256"
            }
          ],
          "name": "rewardManagers",
          "outputs": [
            {
              "internalType": "address",
              "name": "",
              "type": "address"
            }
          ],
          "stateMutability": "view",
          "type": "function"
        },
        {
          "inputs": [],
          "name": "sOHM",
          "outputs": [
            {
              "internalType": "address",
              "name": "",
              "type": "address"
            }
          ],
          "stateMutability": "view",
          "type": "function"
        },
        {
          "inputs": [],
          "name": "sOHMQueue",
          "outputs": [
            {
              "internalType": "uint256",
              "name": "",
              "type": "uint256"
            }
          ],
          "stateMutability": "view",
          "type": "function"
        },
        {
          "inputs": [
            {
              "internalType": "enum MockOlympusTreasury.MANAGING",
              "name": "_managing",
              "type": "uint8"
            },
            {
              "internalType": "address",
              "name": "_address",
              "type": "address"
            },
            {
              "internalType": "address",
              "name": "_calculator",
              "type": "address"
            }
          ],
          "name": "toggle",
          "outputs": [
            {
              "internalType": "bool",
              "name": "",
              "type": "bool"
            }
          ],
          "stateMutability": "nonpayable",
          "type": "function"
        },
        {
          "inputs": [],
          "name": "totalDebt",
          "outputs": [
            {
              "internalType": "uint256",
              "name": "",
              "type": "uint256"
            }
          ],
          "stateMutability": "view",
          "type": "function"
        },
        {
          "inputs": [],
          "name": "totalReserves",
          "outputs": [
            {
              "internalType": "uint256",
              "name": "",
              "type": "uint256"
            }
          ],
          "stateMutability": "view",
          "type": "function"
        },
        {
          "inputs": [
            {
              "internalType": "address",
              "name": "_token",
              "type": "address"
            },
            {
              "internalType": "uint256",
              "name": "_amount",
              "type": "uint256"
            }
          ],
          "name": "valueOfToken",
          "outputs": [
            {
              "internalType": "uint256",
              "name": "value_",
              "type": "uint256"
            }
          ],
          "stateMutability": "view",
          "type": "function"
        },
        {
          "inputs": [
            {
              "internalType": "uint256",
              "name": "_amount",
              "type": "uint256"
            },
            {
              "internalType": "address",
              "name": "_token",
              "type": "address"
            }
          ],
          "name": "withdraw",
          "outputs": [],
          "stateMutability": "nonpayable",
          "type": "function"
        }
      ],
      "devdoc": {
        "kind": "dev",
        "methods": {
          "deposit(uint256,address,uint256)": {
            "params": {
              "_amount": "uint",
              "_profit": "uint",
              "_token": "address"
            },
            "returns": {
              "send_": "uint"
            }
          },
          "excessReserves()": {
            "returns": {
              "_0": "uint"
            }
          },
          "incurDebt(uint256,address)": {
            "params": {
              "_amount": "uint",
              "_token": "address"
            }
          },
          "manage(address,uint256)": {
            "params": {
              "_amount": "uint",
              "_token": "address"
            }
          },
          "queue(uint8,address)": {
            "params": {
              "_address": "address",
              "_managing": "MANAGING"
            },
            "returns": {
              "_0": "bool"
            }
          },
          "repayDebtWithOHM(uint256)": {
            "params": {
              "_amount": "uint"
            }
          },
          "repayDebtWithReserve(uint256,address)": {
            "params": {
              "_amount": "uint",
              "_token": "address"
            }
          },
          "toggle(uint8,address,address)": {
            "params": {
              "_address": "address",
              "_calculator": "address",
              "_managing": "MANAGING"
            },
            "returns": {
              "_0": "bool"
            }
          },
          "valueOfToken(address,uint256)": {
            "params": {
              "_amount": "uint",
              "_token": "address"
            },
            "returns": {
              "value_": "uint"
            }
          },
          "withdraw(uint256,address)": {
            "params": {
              "_amount": "uint",
              "_token": "address"
            }
          }
        },
        "version": 1
      },
      "evm": {
        "bytecode": {
          "linkReferences": {},
          "object": "60c06040523480156200001157600080fd5b506040516200340138038062003401833981016040819052620000349162000149565b600080546001600160a01b0319163390811782556040519091907fea8258f2d9ddb679928cf34b78cf645b7feda9acc828e4dd82d014eaae270eba908290a36001600160a01b0384166200008757600080fd5b6001600160a01b039384166080529183166000818152600360205260408082208054600160ff1991821681179092556002805480840182557f405787fa12a823e0f2b7631cc41b3ba8828b3321ca811111fa75cd3aa3bb5ace90810180546001600160a01b0319908116909817905596909816808552928420805490911682179055865490810187559590915293909101805490911690921790915560a0526200019b565b80516001600160a01b03811681146200014457600080fd5b919050565b600080600080608085870312156200016057600080fd5b6200016b856200012c565b93506200017b602086016200012c565b92506200018b604086016200012c565b6060959095015193969295505050565b60805160a0516131c962000238600039600081816106cc01528181611a8801528181611aea01528181611b4c01528181611bb001528181611c1b01528181611c7d01528181611ce101528181611d4501528181611da70152611e090152600081816105ec0152818161089f01528181610b8f01528181610c6e01528181610d1d015281816114080152818161162301526117a301526131c96000f3fe608060405234801561001057600080fd5b50600436106102f05760003560e01c80638f59c7271161019d578063d031370b116100e9578063ebd83cd8116100a2578063fbfd393b1161007c578063fbfd393b146107b0578063fc7b9c18146107c3578063fd1ec010146107cc578063fff9ee87146107df57600080fd5b8063ebd83cd81461074a578063ee4e19a11461076d578063fb9395881461079057600080fd5b8063d031370b146106b4578063d07f390f146106c7578063d1b317e5146106ee578063d796ffb814610701578063df89b34414610714578063e83afee31461073757600080fd5b8063a6c41fec11610156578063b5b1d56011610130578063b5b1d5601461064e578063bc157ac114610661578063c24ad43e14610674578063cd85641a1461069457600080fd5b8063a6c41fec146105e7578063ab319c9a1461060e578063b1bd38b01461062e57600080fd5b80638f59c727146105455780638f6a7b57146105655780638f840ddd14610578578063932cc8c314610581578063a1210a2d146105a1578063a569e571146105c457600080fd5b80632b7ce5001161025c57806368c31dd51161021557806370a0502a116101ef57806370a0502a146104dc578063788c6c01146104ef578063869871bf1461050f57806387d67dff1461052257600080fd5b806368c31dd5146104935780636a20de92146104b65780636b5e40a7146104c957600080fd5b80632b7ce50014610429578063437f79121461043157806346f68ee914610444578063481c6a75146104575780634e83423c146104685780635a96ac0a1461048b57600080fd5b80630f70431f116102ae5780630f70431f1461038b578063124154ca1461039e57806312422d23146103d157806315079925146103e45780631af4da70146103f75780632789de371461042057600080fd5b8062f714ce146102f55780630619aff11461030a578063089208d81461033a578063094a8651146103425780630b0eee30146103705780630c3513a814610383575b600080fd5b610308610303366004612d1e565b6107ff565b005b61031d610318366004612d4a565b61098b565b6040516001600160a01b0390911681526020015b60405180910390f35b6103086109b5565b610362610350366004612d63565b601b6020526000908152604090205481565b604051908152602001610331565b61030861037e366004612d7e565b610a29565b610362610b82565b610308610399366004612d4a565b610c23565b6103c16103ac366004612d63565b60066020526000908152604090205460ff1681565b6040519015158152602001610331565b6103086103df366004612d1e565b610d76565b601f5461031d906001600160a01b031681565b61031d610405366004612d63565b6011602052600090815260409020546001600160a01b031681565b61036260205481565b610308610fe3565b61031d61043f366004612d4a565b6111a4565b610308610452366004612d63565b6111b4565b6000546001600160a01b031661031d565b6103c1610476366004612d63565b601d6020526000908152604090205460ff1681565b61030861129e565b6103c16104a1366004612d63565b60036020526000908152604090205460ff1681565b6103086104c4366004612d7e565b611364565b61031d6104d7366004612d4a565b6114a8565b61031d6104ea366004612d4a565b6114b8565b6103626104fd366004612d63565b60046020526000908152604090205481565b61031d61051d366004612d4a565b6114c8565b6103c1610530366004612d63565b60096020526000908152604090205460ff1681565b610362610553366004612d63565b600d6020526000908152604090205481565b61031d610573366004612d4a565b6114d8565b61036260215481565b61036261058f366004612d63565b60076020526000908152604090205481565b6103c16105af366004612d63565b600f6020526000908152604090205460ff1681565b6103c16105d2366004612d63565b600c6020526000908152604090205460ff1681565b61031d7f000000000000000000000000000000000000000000000000000000000000000081565b61036261061c366004612d63565b60176020526000908152604090205481565b61036261063c366004612d63565b60146020526000908152604090205481565b61031d61065c366004612d4a565b6114e8565b61036261066f366004612da8565b6114f8565b610362610682366004612d63565b600a6020526000908152604090205481565b6103626106a2366004612d63565b601a6020526000908152604090205481565b61031d6106c2366004612d4a565b6116fd565b6103627f000000000000000000000000000000000000000000000000000000000000000081565b6103626106fc366004612d7e565b61170d565b61030861070f366004612d1e565b6118f1565b6103c1610722366004612d63565b60166020526000908152604090205460ff1681565b6103c1610745366004612dec565b611a2a565b6103c1610758366004612d63565b60136020526000908152604090205460ff1681565b6103c161077b366004612d63565b60196020526000908152604090205460ff1681565b61036261079e366004612d63565b601e6020526000908152604090205481565b6103c16107be366004612e16565b611e94565b61036260225481565b61031d6107da366004612d4a565b61276d565b6103626107ed366004612d63565b60106020526000908152604090205481565b6001600160a01b03811660009081526003602052604090205460ff166108405760405162461bcd60e51b815260040161083790612e59565b60405180910390fd5b3360009081526009602052604090205460ff1615156001146108745760405162461bcd60e51b815260040161083790612e7f565b6000610880828461170d565b60405163079cc67960e41b8152336004820152602481018290529091507f00000000000000000000000000000000000000000000000000000000000000006001600160a01b0316906379cc679090604401600060405180830381600087803b1580156108eb57600080fd5b505af11580156108ff573d6000803e3d6000fd5b5050602154610911925090508261277d565b602181905560405160008051602061317483398151915290600090a26109416001600160a01b03831633856127bf565b60408051848152602081018390526001600160a01b038416917fdf273cb619d95419a9cd0ec88123a0538c85064229baa6363788f743fff90deb91015b60405180910390a2505050565b6012818154811061099b57600080fd5b6000918252602090912001546001600160a01b0316905081565b6000546001600160a01b031633146109df5760405162461bcd60e51b815260040161083790612ea5565b600080546040516001600160a01b03909116907fea8258f2d9ddb679928cf34b78cf645b7feda9acc828e4dd82d014eaae270eba908390a3600080546001600160a01b0319169055565b6001600160a01b0382166000908152600c602052604090205460ff1615610a7e573360009081526016602052604090205460ff16610a795760405162461bcd60e51b815260040161083790612e7f565b610aad565b3360009081526013602052604090205460ff16610aad5760405162461bcd60e51b815260040161083790612e7f565b6000610ab9838361170d565b9050610ac3610b82565b811115610b0a5760405162461bcd60e51b8152602060048201526015602482015274496e73756666696369656e7420726573657276657360581b6044820152606401610837565b602154610b17908261277d565b602181905560405160008051602061317483398151915290600090a2610b476001600160a01b03841633846127bf565b826001600160a01b03167f2bb2640731848fe9820ba48dbc978c1fc9bbd5f11b948bfab05b7dee3378fd808360405161097e91815260200190565b6000610c1e610c156022547f00000000000000000000000000000000000000000000000000000000000000006001600160a01b03166318160ddd6040518163ffffffff1660e01b8152600401602060405180830381865afa158015610beb573d6000803e3d6000fd5b505050506040513d601f19601f82011682018060405250810190610c0f9190612eda565b9061277d565b6021549061277d565b905090565b3360009081526019602052604090205460ff16610c525760405162461bcd60e51b815260040161083790612e7f565b60405163079cc67960e41b8152336004820152602481018290527f00000000000000000000000000000000000000000000000000000000000000006001600160a01b0316906379cc679090604401600060405180830381600087803b158015610cba57600080fd5b505af1158015610cce573d6000803e3d6000fd5b5050336000908152601b6020526040902054610ced925090508261277d565b336000908152601b6020526040902055602254610d0a908261277d565b60225560408051828152602081018390527f00000000000000000000000000000000000000000000000000000000000000006001600160a01b03169133917fc6d98eecfc9c78ab62c89a82950079b54874749f1f6f24090f7acc758bc2f309910160405180910390a350565b3360009081526019602052604090205460ff16610da55760405162461bcd60e51b815260040161083790612e7f565b6001600160a01b03811660009081526003602052604090205460ff16610ddd5760405162461bcd60e51b815260040161083790612e59565b6000610de9828461170d565b601f546040516370a0823160e01b81523360048201529192506000916001600160a01b03909116906370a0823190602401602060405180830381865afa158015610e37573d6000803e3d6000fd5b505050506040513d601f19601f82011682018060405250810190610e5b9190612eda565b336000908152601b602052604081205491925090610e7a90839061277d565b905080831115610ec15760405162461bcd60e51b8152602060048201526012602482015271115e18d959591cc81919589d081b1a5b5a5d60721b6044820152606401610837565b336000908152601b6020526040902054610edb9084612827565b336000908152601b6020526040902055602254610ef89084612827565b602255602154610f08908461277d565b602181905560405160008051602061317483398151915290600090a260405163a9059cbb60e01b8152336004820152602481018690526001600160a01b0385169063a9059cbb906044016020604051808303816000875af1158015610f71573d6000803e3d6000fd5b505050506040513d601f19601f82011682018060405250810190610f959190612ef3565b5060408051868152602081018590526001600160a01b0386169133917f7e1a939bed137a819b5d2979822c67f877689f7a863d5e4cb57cdca97b2977d6910160405180910390a35050505050565b6000546001600160a01b0316331461100d5760405162461bcd60e51b815260040161083790612ea5565b6000805b6002548110156110f0576110dc6110d56002838154811061103457611034612f15565b600091825260209091200154600280546001600160a01b03909216918590811061106057611060612f15565b6000918252602090912001546040516370a0823160e01b81523060048201526001600160a01b03909116906370a0823190602401602060405180830381865afa1580156110b1573d6000803e3d6000fd5b505050506040513d601f19601f820116820180604052508101906106fc9190612eda565b8390612827565b9150806110e881612f41565b915050611011565b5060005b600b54811015611157576111436110d5600b838154811061111757611117612f15565b600091825260209091200154600b80546001600160a01b03909216918590811061106057611060612f15565b91508061114f81612f41565b9150506110f4565b506021819055604051819060008051602061317483398151915290600090a260405181907fec691f09f6924b27932253f85caf99bacc30360cc0e50a1cc4d2acc24601446690600090a250565b6008818154811061099b57600080fd5b6000546001600160a01b031633146111de5760405162461bcd60e51b815260040161083790612ea5565b6001600160a01b0381166112435760405162461bcd60e51b815260206004820152602660248201527f4f776e61626c653a206e6577206f776e657220697320746865207a65726f206160448201526564647265737360d01b6064820152608401610837565b600080546040516001600160a01b03808516939216917fea8258f2d9ddb679928cf34b78cf645b7feda9acc828e4dd82d014eaae270eba91a3600180546001600160a01b0319166001600160a01b0392909216919091179055565b6001546001600160a01b031633146113035760405162461bcd60e51b815260206004820152602260248201527f4f776e61626c653a206d757374206265206e6577206f776e657220746f2070756044820152611b1b60f21b6064820152608401610837565b600154600080546040516001600160a01b0393841693909116917faa151555690c956fc3ea32f106bb9f119b5237a061eaa8557cff3e51e3792c8d91a3600154600080546001600160a01b0319166001600160a01b03909216919091179055565b336000908152601d602052604090205460ff166113935760405162461bcd60e51b815260040161083790612e7f565b61139b610b82565b8111156113e25760405162461bcd60e51b8152602060048201526015602482015274496e73756666696369656e7420726573657276657360581b6044820152606401610837565b6040516340c10f1960e01b81526001600160a01b038381166004830152602482018390527f000000000000000000000000000000000000000000000000000000000000000016906340c10f1990604401600060405180830381600087803b15801561144c57600080fd5b505af1158015611460573d6000803e3d6000fd5b50506040518381526001600160a01b03851692503391507ffa8ccab40e7da8146c2304cd0950334fd30a6ba093abe86261aa13911fed849c9060200160405180910390a35050565b6005818154811061099b57600080fd5b6015818154811061099b57600080fd5b6018818154811061099b57600080fd5b600e818154811061099b57600080fd5b601c818154811061099b57600080fd5b6001600160a01b03821660009081526003602052604081205460ff168061153757506001600160a01b0383166000908152600c602052604090205460ff165b6115535760405162461bcd60e51b815260040161083790612e59565b6115686001600160a01b038416333087612886565b6001600160a01b03831660009081526003602052604090205460ff16156115bd573360009081526006602052604090205460ff166115b85760405162461bcd60e51b815260040161083790612e7f565b6115ec565b336000908152600f602052604090205460ff166115ec5760405162461bcd60e51b815260040161083790612e7f565b60006115f8848661170d565b9050611604818461277d565b6040516340c10f1960e01b8152336004820152602481018290529092507f00000000000000000000000000000000000000000000000000000000000000006001600160a01b0316906340c10f1990604401600060405180830381600087803b15801561166f57600080fd5b505af1158015611683573d6000803e3d6000fd5b50506021546116959250905082612827565b602181905560405160008051602061317483398151915290600090a260408051868152602081018390526001600160a01b038616917f90890809c654f11d6e72a28fa60149770a0d11ec6c92319d6ceb2bb0a4ea1a15910160405180910390a2509392505050565b6002818154811061099b57600080fd5b6001600160a01b03821660009081526003602052604081205460ff16156118425761183b836001600160a01b031663313ce5676040518163ffffffff1660e01b8152600401602060405180830381865afa15801561176f573d6000803e3d6000fd5b505050506040513d601f19601f820116820180604052508101906117939190612f5c565b61179e90600a613063565b6118357f00000000000000000000000000000000000000000000000000000000000000006001600160a01b031663313ce5676040518163ffffffff1660e01b8152600401602060405180830381865afa1580156117ff573d6000803e3d6000fd5b505050506040513d601f19601f820116820180604052508101906118239190612f5c565b61182e90600a613063565b85906128c4565b90612943565b90506118eb565b6001600160a01b0383166000908152600c602052604090205460ff16156118eb576001600160a01b0383811660008181526011602052604090819020549051634249719f60e01b815260048101929092526024820185905290911690634249719f90604401602060405180830381865afa1580156118c4573d6000803e3d6000fd5b505050506040513d601f19601f820116820180604052508101906118e89190612eda565b90505b92915050565b3360009081526019602052604090205460ff166119205760405162461bcd60e51b815260040161083790612e7f565b6001600160a01b03811660009081526003602052604090205460ff166119585760405162461bcd60e51b815260040161083790612e59565b61196d6001600160a01b038216333085612886565b6000611979828461170d565b336000908152601b6020526040902054909150611996908261277d565b336000908152601b60205260409020556022546119b3908261277d565b6022556021546119c39082612827565b602181905560405160008051602061317483398151915290600090a260408051848152602081018390526001600160a01b0384169133917fc6d98eecfc9c78ab62c89a82950079b54874749f1f6f24090f7acc758bc2f309910160405180910390a3505050565b600080546001600160a01b03163314611a555760405162461bcd60e51b815260040161083790612ea5565b6001600160a01b038216611a6857600080fd5b6000836009811115611a7c57611a7c613072565b1415611aca57611aac437f0000000000000000000000000000000000000000000000000000000000000000612827565b6001600160a01b038316600090815260076020526040902055611e3d565b6001836009811115611ade57611ade613072565b1415611b2c57611b0e437f0000000000000000000000000000000000000000000000000000000000000000612827565b6001600160a01b0383166000908152600a6020526040902055611e3d565b6002836009811115611b4057611b40613072565b1415611b8e57611b70437f0000000000000000000000000000000000000000000000000000000000000000612827565b6001600160a01b038316600090815260046020526040902055611e3d565b6003836009811115611ba257611ba2613072565b1415611bfb57611bdd611bd67f000000000000000000000000000000000000000000000000000000000000000060026128c4565b4390612827565b6001600160a01b038316600090815260146020526040902055611e3d565b6004836009811115611c0f57611c0f613072565b1415611c5d57611c3f437f0000000000000000000000000000000000000000000000000000000000000000612827565b6001600160a01b038316600090815260106020526040902055611e3d565b6005836009811115611c7157611c71613072565b1415611cbf57611ca1437f0000000000000000000000000000000000000000000000000000000000000000612827565b6001600160a01b0383166000908152600d6020526040902055611e3d565b6006836009811115611cd357611cd3613072565b1415611d2557611d07611bd67f000000000000000000000000000000000000000000000000000000000000000060026128c4565b6001600160a01b038316600090815260176020526040902055611e3d565b6007836009811115611d3957611d39613072565b1415611d8757611d69437f0000000000000000000000000000000000000000000000000000000000000000612827565b6001600160a01b0383166000908152601a6020526040902055611e3d565b6008836009811115611d9b57611d9b613072565b1415611de957611dcb437f0000000000000000000000000000000000000000000000000000000000000000612827565b6001600160a01b0383166000908152601e6020526040902055611e3d565b6009836009811115611dfd57611dfd613072565b1415611e3557611e2d437f0000000000000000000000000000000000000000000000000000000000000000612827565b602055611e3d565b5060006118eb565b826009811115611e4f57611e4f613072565b6040516001600160a01b03841681527f0e4f2c4b5bc209d509bc3d49348c787fefadc66a79351b470599ac0f5be52eaf9060200160405180910390a250600192915050565b600080546001600160a01b03163314611ebf5760405162461bcd60e51b815260040161083790612ea5565b6001600160a01b038316611ed257600080fd5b600080856009811115611ee757611ee7613072565b1415611fa357611efa6007600686612985565b15611f73576001600160a01b038416600090815260076020526040812055611f23600585612a65565b611f7357600580546001810182556000919091527f036b6384b5eca791c62761152d0c79bb0604c104a5fb6f4eb0703f3154bb3db00180546001600160a01b0319166001600160a01b0386161790555b506001600160a01b0383166000908152600660205260409020805460ff81161560ff19909116811790915561270b565b6001856009811115611fb757611fb7613072565b141561207357611fca600a600986612985565b15612043576001600160a01b0384166000908152600a6020526040812055611ff3600885612a65565b61204357600880546001810182556000919091527ff3f7a9fe364faab93b216da50a3214154f22a0a2b415b23a84c8169e8b636ee30180546001600160a01b0319166001600160a01b0386161790555b506001600160a01b0383166000908152600960205260409020805460ff81161560ff19909116811790915561270b565b600285600981111561208757612087613072565b14156121435761209a6004600386612985565b15612113576001600160a01b0384166000908152600460205260408120556120c3600285612a65565b61211357600280546001810182556000919091527f405787fa12a823e0f2b7631cc41b3ba8828b3321ca811111fa75cd3aa3bb5ace0180546001600160a01b0319166001600160a01b0386161790555b506001600160a01b0383166000908152600360205260409020805460ff81161560ff19909116811790915561270b565b600385600981111561215757612157613072565b14156122505761216a6014601386612985565b1561222057601280546001810182557fbb8a6a4669ba250d26cd7a459eca9d215f8307e33aebe50379bc5a3617ec34440180546001600160a01b0319166001600160a01b0387169081179091556000908152601460205260408120556121d09085612a65565b61222057601280546001810182556000919091527fbb8a6a4669ba250d26cd7a459eca9d215f8307e33aebe50379bc5a3617ec34440180546001600160a01b0319166001600160a01b0386161790555b506001600160a01b0383166000908152601360205260409020805460ff81161560ff19909116811790915561270b565b600485600981111561226457612264613072565b141561235d576122776010600f86612985565b1561232d57600e80546001810182557fbb7b4a454dc3493923482f07822329ed19e8244eff582cc204f8554c3620c3fd0180546001600160a01b0319166001600160a01b0387169081179091556000908152601060205260408120556122dd9085612a65565b61232d57600e80546001810182556000919091527fbb7b4a454dc3493923482f07822329ed19e8244eff582cc204f8554c3620c3fd0180546001600160a01b0319166001600160a01b0386161790555b506001600160a01b0383166000908152600f60205260409020805460ff81161560ff19909116811790915561270b565b600585600981111561237157612371613072565b141561244f57612384600d600c86612985565b156123fd576001600160a01b0384166000908152600d60205260408120556123ad600b85612a65565b6123fd57600b80546001810182556000919091527f0175b7a638427703f0dbe7bb9bbf987a2551717b34e79f33b5b1008d1fa01db90180546001600160a01b0319166001600160a01b0386161790555b506001600160a01b038381166000908152600c60209081526040808320805460ff81161560ff199091168117909155601190925290912080546001600160a01b0319169285169290921790915561270b565b600685600981111561246357612463613072565b141561251f576124766017601686612985565b156124ef576001600160a01b03841660009081526017602052604081205561249f601585612a65565b6124ef57601580546001810182556000919091527f55f448fdea98c4d29eb340757ef0a66cd03dbb9538908a6a81d96026b71ec4750180546001600160a01b0319166001600160a01b0386161790555b506001600160a01b0383166000908152601660205260409020805460ff81161560ff19909116811790915561270b565b600785600981111561253357612533613072565b14156125ef57612546601a601986612985565b156125bf576001600160a01b0384166000908152601a602052604081205561256f601885612a65565b6125bf57601880546001810182556000919091527fb13d2d76d1f4b7be834882e410b3e3a8afaf69f83600ae24db354391d2378d2e0180546001600160a01b0319166001600160a01b0386161790555b506001600160a01b0383166000908152601960205260409020805460ff81161560ff19909116811790915561270b565b600885600981111561260357612603613072565b14156126bf57612616601e601d86612985565b1561268f576001600160a01b0384166000908152601e602052604081205561263f601c85612a65565b61268f57601c80546001810182556000919091527f0e4562a10381dec21b205ed72637e6b1b523bdd0e4d4d50af5cd23dd4500a2110180546001600160a01b0319166001600160a01b0386161790555b506001600160a01b0383166000908152601d60205260409020805460ff81161560ff19909116811790915561270b565b60098560098111156126d3576126d3613072565b141561270157506000602055601f80546001600160a01b0319166001600160a01b038516179055600161270b565b6000915050612766565b84600981111561271d5761271d613072565b604080516001600160a01b038716815283151560208201527f0dcacb7e392f3d6a216ed2660e3dcfd40b7793d33591db2ba185a6b8e44fc477910160405180910390a260019150505b9392505050565b600b818154811061099b57600080fd5b60006118e883836040518060400160405280601e81526020017f536166654d6174683a207375627472616374696f6e206f766572666c6f770000815250612ac5565b6040516001600160a01b03831660248201526044810182905261282290849063a9059cbb60e01b906064015b60408051601f198184030181529190526020810180516001600160e01b03166001600160e01b031990931692909217909152612aff565b505050565b6000806128348385613088565b9050838110156118e85760405162461bcd60e51b815260206004820152601b60248201527f536166654d6174683a206164646974696f6e206f766572666c6f7700000000006044820152606401610837565b6040516001600160a01b03808516602483015283166044820152606481018290526128be9085906323b872dd60e01b906084016127eb565b50505050565b6000826128d3575060006118eb565b60006128df83856130a0565b9050826128ec85836130bf565b146118e85760405162461bcd60e51b815260206004820152602160248201527f536166654d6174683a206d756c7469706c69636174696f6e206f766572666c6f6044820152607760f81b6064820152608401610837565b60006118e883836040518060400160405280601a81526020017f536166654d6174683a206469766973696f6e206279207a65726f000000000000815250612bd1565b6001600160a01b03811660009081526020839052604081205460ff16612a5b576001600160a01b0382166000908152602085905260409020546129f75760405162461bcd60e51b815260206004820152600a6024820152694d75737420717565756560b01b6044820152606401610837565b6001600160a01b038216600090815260208590526040902054431015612a535760405162461bcd60e51b8152602060048201526011602482015270145d595d59481b9bdd08195e1c1a5c9959607a1b6044820152606401610837565b506001612766565b5060009392505050565b6000805b8354811015612a5b57826001600160a01b0316848281548110612a8e57612a8e612f15565b6000918252602090912001546001600160a01b03161415612ab35760019150506118eb565b80612abd81612f41565b915050612a69565b60008184841115612ae95760405162461bcd60e51b8152600401610837919061310d565b506000612af68486613140565b95945050505050565b6000612b54826040518060400160405280602081526020017f5361666545524332303a206c6f772d6c6576656c2063616c6c206661696c6564815250856001600160a01b0316612bff9092919063ffffffff16565b8051909150156128225780806020019051810190612b729190612ef3565b6128225760405162461bcd60e51b815260206004820152602a60248201527f5361666545524332303a204552433230206f7065726174696f6e20646964206e6044820152691bdd081cdd58d8d9595960b21b6064820152608401610837565b60008183612bf25760405162461bcd60e51b8152600401610837919061310d565b506000612af684866130bf565b6060612c0e8484600085612c16565b949350505050565b6060843b612c665760405162461bcd60e51b815260206004820152601d60248201527f416464726573733a2063616c6c20746f206e6f6e2d636f6e74726163740000006044820152606401610837565b600080866001600160a01b03168587604051612c829190613157565b60006040518083038185875af1925050503d8060008114612cbf576040519150601f19603f3d011682016040523d82523d6000602084013e612cc4565b606091505b50915091508115612cd8579150612c0e9050565b805115612ce85780518082602001fd5b8360405162461bcd60e51b8152600401610837919061310d565b80356001600160a01b0381168114612d1957600080fd5b919050565b60008060408385031215612d3157600080fd5b82359150612d4160208401612d02565b90509250929050565b600060208284031215612d5c57600080fd5b5035919050565b600060208284031215612d7557600080fd5b6118e882612d02565b60008060408385031215612d9157600080fd5b612d9a83612d02565b946020939093013593505050565b600080600060608486031215612dbd57600080fd5b83359250612dcd60208501612d02565b9150604084013590509250925092565b8035600a8110612d1957600080fd5b60008060408385031215612dff57600080fd5b612e0883612ddd565b9150612d4160208401612d02565b600080600060608486031215612e2b57600080fd5b612e3484612ddd565b9250612e4260208501612d02565b9150612e5060408501612d02565b90509250925092565b6020808252600c908201526b139bdd081858d8d95c1d195960a21b604082015260600190565b6020808252600c908201526b139bdd08185c1c1c9bdd995960a21b604082015260600190565b6020808252818101527f4f776e61626c653a2063616c6c6572206973206e6f7420746865206f776e6572604082015260600190565b600060208284031215612eec57600080fd5b5051919050565b600060208284031215612f0557600080fd5b815180151581146118e857600080fd5b634e487b7160e01b600052603260045260246000fd5b634e487b7160e01b600052601160045260246000fd5b6000600019821415612f5557612f55612f2b565b5060010190565b600060208284031215612f6e57600080fd5b815160ff811681146118e857600080fd5b600181815b80851115612fba578160001904821115612fa057612fa0612f2b565b80851615612fad57918102915b93841c9390800290612f84565b509250929050565b600082612fd1575060016118eb565b81612fde575060006118eb565b8160018114612ff45760028114612ffe5761301a565b60019150506118eb565b60ff84111561300f5761300f612f2b565b50506001821b6118eb565b5060208310610133831016604e8410600b841016171561303d575081810a6118eb565b6130478383612f7f565b806000190482111561305b5761305b612f2b565b029392505050565b60006118e860ff841683612fc2565b634e487b7160e01b600052602160045260246000fd5b6000821982111561309b5761309b612f2b565b500190565b60008160001904831182151516156130ba576130ba612f2b565b500290565b6000826130dc57634e487b7160e01b600052601260045260246000fd5b500490565b60005b838110156130fc5781810151838201526020016130e4565b838111156128be5750506000910152565b602081526000825180602084015261312c8160408501602087016130e1565b601f01601f19169190910160400192915050565b60008282101561315257613152612f2b565b500390565b600082516131698184602087016130e1565b919091019291505056fe93bb8edd35984706eee1b92541281f7f62d33c01c5b2ec0929a113603bd21d66a2646970667358221220573b48eac61884a9f04927fe7c713ad6ac7427ee097f20fe3395b65c2570c2b264736f6c634300080a0033",
          "opcodes": "PUSH1 0xC0 PUSH1 0x40 MSTORE CALLVALUE DUP1 ISZERO PUSH3 0x11 JUMPI PUSH1 0x0 DUP1 REVERT JUMPDEST POP PUSH1 0x40 MLOAD PUSH3 0x3401 CODESIZE SUB DUP1 PUSH3 0x3401 DUP4 CODECOPY DUP2 ADD PUSH1 0x40 DUP2 SWAP1 MSTORE PUSH3 0x34 SWAP2 PUSH3 0x149 JUMP JUMPDEST PUSH1 0x0 DUP1 SLOAD PUSH1 0x1 PUSH1 0x1 PUSH1 0xA0 SHL SUB NOT AND CALLER SWAP1 DUP2 OR DUP3 SSTORE PUSH1 0x40 MLOAD SWAP1 SWAP2 SWAP1 PUSH32 0xEA8258F2D9DDB679928CF34B78CF645B7FEDA9ACC828E4DD82D014EAAE270EBA SWAP1 DUP3 SWAP1 LOG3 PUSH1 0x1 PUSH1 0x1 PUSH1 0xA0 SHL SUB DUP5 AND PUSH3 0x87 JUMPI PUSH1 0x0 DUP1 REVERT JUMPDEST PUSH1 0x1 PUSH1 0x1 PUSH1 0xA0 SHL SUB SWAP4 DUP5 AND PUSH1 0x80 MSTORE SWAP2 DUP4 AND PUSH1 0x0 DUP2 DUP2 MSTORE PUSH1 0x3 PUSH1 0x20 MSTORE PUSH1 0x40 DUP1 DUP3 KECCAK256 DUP1 SLOAD PUSH1 0x1 PUSH1 0xFF NOT SWAP2 DUP3 AND DUP2 OR SWAP1 SWAP3 SSTORE PUSH1 0x2 DUP1 SLOAD DUP1 DUP5 ADD DUP3 SSTORE PUSH32 0x405787FA12A823E0F2B7631CC41B3BA8828B3321CA811111FA75CD3AA3BB5ACE SWAP1 DUP2 ADD DUP1 SLOAD PUSH1 0x1 PUSH1 0x1 PUSH1 0xA0 SHL SUB NOT SWAP1 DUP2 AND SWAP1 SWAP9 OR SWAP1 SSTORE SWAP7 SWAP1 SWAP9 AND DUP1 DUP6 MSTORE SWAP3 DUP5 KECCAK256 DUP1 SLOAD SWAP1 SWAP2 AND DUP3 OR SWAP1 SSTORE DUP7 SLOAD SWAP1 DUP2 ADD DUP8 SSTORE SWAP6 SWAP1 SWAP2 MSTORE SWAP4 SWAP1 SWAP2 ADD DUP1 SLOAD SWAP1 SWAP2 AND SWAP1 SWAP3 OR SWAP1 SWAP2 SSTORE PUSH1 0xA0 MSTORE PUSH3 0x19B JUMP JUMPDEST DUP1 MLOAD PUSH1 0x1 PUSH1 0x1 PUSH1 0xA0 SHL SUB DUP2 AND DUP2 EQ PUSH3 0x144 JUMPI PUSH1 0x0 DUP1 REVERT JUMPDEST SWAP2 SWAP1 POP JUMP JUMPDEST PUSH1 0x0 DUP1 PUSH1 0x0 DUP1 PUSH1 0x80 DUP6 DUP8 SUB SLT ISZERO PUSH3 0x160 JUMPI PUSH1 0x0 DUP1 REVERT JUMPDEST PUSH3 0x16B DUP6 PUSH3 0x12C JUMP JUMPDEST SWAP4 POP PUSH3 0x17B PUSH1 0x20 DUP7 ADD PUSH3 0x12C JUMP JUMPDEST SWAP3 POP PUSH3 0x18B PUSH1 0x40 DUP7 ADD PUSH3 0x12C JUMP JUMPDEST PUSH1 0x60 SWAP6 SWAP1 SWAP6 ADD MLOAD SWAP4 SWAP7 SWAP3 SWAP6 POP POP POP JUMP JUMPDEST PUSH1 0x80 MLOAD PUSH1 0xA0 MLOAD PUSH2 0x31C9 PUSH3 0x238 PUSH1 0x0 CODECOPY PUSH1 0x0 DUP2 DUP2 PUSH2 0x6CC ADD MSTORE DUP2 DUP2 PUSH2 0x1A88 ADD MSTORE DUP2 DUP2 PUSH2 0x1AEA ADD MSTORE DUP2 DUP2 PUSH2 0x1B4C ADD MSTORE DUP2 DUP2 PUSH2 0x1BB0 ADD MSTORE DUP2 DUP2 PUSH2 0x1C1B ADD MSTORE DUP2 DUP2 PUSH2 0x1C7D ADD MSTORE DUP2 DUP2 PUSH2 0x1CE1 ADD MSTORE DUP2 DUP2 PUSH2 0x1D45 ADD MSTORE DUP2 DUP2 PUSH2 0x1DA7 ADD MSTORE PUSH2 0x1E09 ADD MSTORE PUSH1 0x0 DUP2 DUP2 PUSH2 0x5EC ADD MSTORE DUP2 DUP2 PUSH2 0x89F ADD MSTORE DUP2 DUP2 PUSH2 0xB8F ADD MSTORE DUP2 DUP2 PUSH2 0xC6E ADD MSTORE DUP2 DUP2 PUSH2 0xD1D ADD MSTORE DUP2 DUP2 PUSH2 0x1408 ADD MSTORE DUP2 DUP2 PUSH2 0x1623 ADD MSTORE PUSH2 0x17A3 ADD MSTORE PUSH2 0x31C9 PUSH1 0x0 RETURN INVALID PUSH1 0x80 PUSH1 0x40 MSTORE CALLVALUE DUP1 ISZERO PUSH2 0x10 JUMPI PUSH1 0x0 DUP1 REVERT JUMPDEST POP PUSH1 0x4 CALLDATASIZE LT PUSH2 0x2F0 JUMPI PUSH1 0x0 CALLDATALOAD PUSH1 0xE0 SHR DUP1 PUSH4 0x8F59C727 GT PUSH2 0x19D JUMPI DUP1 PUSH4 0xD031370B GT PUSH2 0xE9 JUMPI DUP1 PUSH4 0xEBD83CD8 GT PUSH2 0xA2 JUMPI DUP1 PUSH4 0xFBFD393B GT PUSH2 0x7C JUMPI DUP1 PUSH4 0xFBFD393B EQ PUSH2 0x7B0 JUMPI DUP1 PUSH4 0xFC7B9C18 EQ PUSH2 0x7C3 JUMPI DUP1 PUSH4 0xFD1EC010 EQ PUSH2 0x7CC JUMPI DUP1 PUSH4 0xFFF9EE87 EQ PUSH2 0x7DF JUMPI PUSH1 0x0 DUP1 REVERT JUMPDEST DUP1 PUSH4 0xEBD83CD8 EQ PUSH2 0x74A JUMPI DUP1 PUSH4 0xEE4E19A1 EQ PUSH2 0x76D JUMPI DUP1 PUSH4 0xFB939588 EQ PUSH2 0x790 JUMPI PUSH1 0x0 DUP1 REVERT JUMPDEST DUP1 PUSH4 0xD031370B EQ PUSH2 0x6B4 JUMPI DUP1 PUSH4 0xD07F390F EQ PUSH2 0x6C7 JUMPI DUP1 PUSH4 0xD1B317E5 EQ PUSH2 0x6EE JUMPI DUP1 PUSH4 0xD796FFB8 EQ PUSH2 0x701 JUMPI DUP1 PUSH4 0xDF89B344 EQ PUSH2 0x714 JUMPI DUP1 PUSH4 0xE83AFEE3 EQ PUSH2 0x737 JUMPI PUSH1 0x0 DUP1 REVERT JUMPDEST DUP1 PUSH4 0xA6C41FEC GT PUSH2 0x156 JUMPI DUP1 PUSH4 0xB5B1D560 GT PUSH2 0x130 JUMPI DUP1 PUSH4 0xB5B1D560 EQ PUSH2 0x64E JUMPI DUP1 PUSH4 0xBC157AC1 EQ PUSH2 0x661 JUMPI DUP1 PUSH4 0xC24AD43E EQ PUSH2 0x674 JUMPI DUP1 PUSH4 0xCD85641A EQ PUSH2 0x694 JUMPI PUSH1 0x0 DUP1 REVERT JUMPDEST DUP1 PUSH4 0xA6C41FEC EQ PUSH2 0x5E7 JUMPI DUP1 PUSH4 0xAB319C9A EQ PUSH2 0x60E JUMPI DUP1 PUSH4 0xB1BD38B0 EQ PUSH2 0x62E JUMPI PUSH1 0x0 DUP1 REVERT JUMPDEST DUP1 PUSH4 0x8F59C727 EQ PUSH2 0x545 JUMPI DUP1 PUSH4 0x8F6A7B57 EQ PUSH2 0x565 JUMPI DUP1 PUSH4 0x8F840DDD EQ PUSH2 0x578 JUMPI DUP1 PUSH4 0x932CC8C3 EQ PUSH2 0x581 JUMPI DUP1 PUSH4 0xA1210A2D EQ PUSH2 0x5A1 JUMPI DUP1 PUSH4 0xA569E571 EQ PUSH2 0x5C4 JUMPI PUSH1 0x0 DUP1 REVERT JUMPDEST DUP1 PUSH4 0x2B7CE500 GT PUSH2 0x25C JUMPI DUP1 PUSH4 0x68C31DD5 GT PUSH2 0x215 JUMPI DUP1 PUSH4 0x70A0502A GT PUSH2 0x1EF JUMPI DUP1 PUSH4 0x70A0502A EQ PUSH2 0x4DC JUMPI DUP1 PUSH4 0x788C6C01 EQ PUSH2 0x4EF JUMPI DUP1 PUSH4 0x869871BF EQ PUSH2 0x50F JUMPI DUP1 PUSH4 0x87D67DFF EQ PUSH2 0x522 JUMPI PUSH1 0x0 DUP1 REVERT JUMPDEST DUP1 PUSH4 0x68C31DD5 EQ PUSH2 0x493 JUMPI DUP1 PUSH4 0x6A20DE92 EQ PUSH2 0x4B6 JUMPI DUP1 PUSH4 0x6B5E40A7 EQ PUSH2 0x4C9 JUMPI PUSH1 0x0 DUP1 REVERT JUMPDEST DUP1 PUSH4 0x2B7CE500 EQ PUSH2 0x429 JUMPI DUP1 PUSH4 0x437F7912 EQ PUSH2 0x431 JUMPI DUP1 PUSH4 0x46F68EE9 EQ PUSH2 0x444 JUMPI DUP1 PUSH4 0x481C6A75 EQ PUSH2 0x457 JUMPI DUP1 PUSH4 0x4E83423C EQ PUSH2 0x468 JUMPI DUP1 PUSH4 0x5A96AC0A EQ PUSH2 0x48B JUMPI PUSH1 0x0 DUP1 REVERT JUMPDEST DUP1 PUSH4 0xF70431F GT PUSH2 0x2AE JUMPI DUP1 PUSH4 0xF70431F EQ PUSH2 0x38B JUMPI DUP1 PUSH4 0x124154CA EQ PUSH2 0x39E JUMPI DUP1 PUSH4 0x12422D23 EQ PUSH2 0x3D1 JUMPI DUP1 PUSH4 0x15079925 EQ PUSH2 0x3E4 JUMPI DUP1 PUSH4 0x1AF4DA70 EQ PUSH2 0x3F7 JUMPI DUP1 PUSH4 0x2789DE37 EQ PUSH2 0x420 JUMPI PUSH1 0x0 DUP1 REVERT JUMPDEST DUP1 PUSH3 0xF714CE EQ PUSH2 0x2F5 JUMPI DUP1 PUSH4 0x619AFF1 EQ PUSH2 0x30A JUMPI DUP1 PUSH4 0x89208D8 EQ PUSH2 0x33A JUMPI DUP1 PUSH4 0x94A8651 EQ PUSH2 0x342 JUMPI DUP1 PUSH4 0xB0EEE30 EQ PUSH2 0x370 JUMPI DUP1 PUSH4 0xC3513A8 EQ PUSH2 0x383 JUMPI JUMPDEST PUSH1 0x0 DUP1 REVERT JUMPDEST PUSH2 0x308 PUSH2 0x303 CALLDATASIZE PUSH1 0x4 PUSH2 0x2D1E JUMP JUMPDEST PUSH2 0x7FF JUMP JUMPDEST STOP JUMPDEST PUSH2 0x31D PUSH2 0x318 CALLDATASIZE PUSH1 0x4 PUSH2 0x2D4A JUMP JUMPDEST PUSH2 0x98B JUMP JUMPDEST PUSH1 0x40 MLOAD PUSH1 0x1 PUSH1 0x1 PUSH1 0xA0 SHL SUB SWAP1 SWAP2 AND DUP2 MSTORE PUSH1 0x20 ADD JUMPDEST PUSH1 0x40 MLOAD DUP1 SWAP2 SUB SWAP1 RETURN JUMPDEST PUSH2 0x308 PUSH2 0x9B5 JUMP JUMPDEST PUSH2 0x362 PUSH2 0x350 CALLDATASIZE PUSH1 0x4 PUSH2 0x2D63 JUMP JUMPDEST PUSH1 0x1B PUSH1 0x20 MSTORE PUSH1 0x0 SWAP1 DUP2 MSTORE PUSH1 0x40 SWAP1 KECCAK256 SLOAD DUP2 JUMP JUMPDEST PUSH1 0x40 MLOAD SWAP1 DUP2 MSTORE PUSH1 0x20 ADD PUSH2 0x331 JUMP JUMPDEST PUSH2 0x308 PUSH2 0x37E CALLDATASIZE PUSH1 0x4 PUSH2 0x2D7E JUMP JUMPDEST PUSH2 0xA29 JUMP JUMPDEST PUSH2 0x362 PUSH2 0xB82 JUMP JUMPDEST PUSH2 0x308 PUSH2 0x399 CALLDATASIZE PUSH1 0x4 PUSH2 0x2D4A JUMP JUMPDEST PUSH2 0xC23 JUMP JUMPDEST PUSH2 0x3C1 PUSH2 0x3AC CALLDATASIZE PUSH1 0x4 PUSH2 0x2D63 JUMP JUMPDEST PUSH1 0x6 PUSH1 0x20 MSTORE PUSH1 0x0 SWAP1 DUP2 MSTORE PUSH1 0x40 SWAP1 KECCAK256 SLOAD PUSH1 0xFF AND DUP2 JUMP JUMPDEST PUSH1 0x40 MLOAD SWAP1 ISZERO ISZERO DUP2 MSTORE PUSH1 0x20 ADD PUSH2 0x331 JUMP JUMPDEST PUSH2 0x308 PUSH2 0x3DF CALLDATASIZE PUSH1 0x4 PUSH2 0x2D1E JUMP JUMPDEST PUSH2 0xD76 JUMP JUMPDEST PUSH1 0x1F SLOAD PUSH2 0x31D SWAP1 PUSH1 0x1 PUSH1 0x1 PUSH1 0xA0 SHL SUB AND DUP2 JUMP JUMPDEST PUSH2 0x31D PUSH2 0x405 CALLDATASIZE PUSH1 0x4 PUSH2 0x2D63 JUMP JUMPDEST PUSH1 0x11 PUSH1 0x20 MSTORE PUSH1 0x0 SWAP1 DUP2 MSTORE PUSH1 0x40 SWAP1 KECCAK256 SLOAD PUSH1 0x1 PUSH1 0x1 PUSH1 0xA0 SHL SUB AND DUP2 JUMP JUMPDEST PUSH2 0x362 PUSH1 0x20 SLOAD DUP2 JUMP JUMPDEST PUSH2 0x308 PUSH2 0xFE3 JUMP JUMPDEST PUSH2 0x31D PUSH2 0x43F CALLDATASIZE PUSH1 0x4 PUSH2 0x2D4A JUMP JUMPDEST PUSH2 0x11A4 JUMP JUMPDEST PUSH2 0x308 PUSH2 0x452 CALLDATASIZE PUSH1 0x4 PUSH2 0x2D63 JUMP JUMPDEST PUSH2 0x11B4 JUMP JUMPDEST PUSH1 0x0 SLOAD PUSH1 0x1 PUSH1 0x1 PUSH1 0xA0 SHL SUB AND PUSH2 0x31D JUMP JUMPDEST PUSH2 0x3C1 PUSH2 0x476 CALLDATASIZE PUSH1 0x4 PUSH2 0x2D63 JUMP JUMPDEST PUSH1 0x1D PUSH1 0x20 MSTORE PUSH1 0x0 SWAP1 DUP2 MSTORE PUSH1 0x40 SWAP1 KECCAK256 SLOAD PUSH1 0xFF AND DUP2 JUMP JUMPDEST PUSH2 0x308 PUSH2 0x129E JUMP JUMPDEST PUSH2 0x3C1 PUSH2 0x4A1 CALLDATASIZE PUSH1 0x4 PUSH2 0x2D63 JUMP JUMPDEST PUSH1 0x3 PUSH1 0x20 MSTORE PUSH1 0x0 SWAP1 DUP2 MSTORE PUSH1 0x40 SWAP1 KECCAK256 SLOAD PUSH1 0xFF AND DUP2 JUMP JUMPDEST PUSH2 0x308 PUSH2 0x4C4 CALLDATASIZE PUSH1 0x4 PUSH2 0x2D7E JUMP JUMPDEST PUSH2 0x1364 JUMP JUMPDEST PUSH2 0x31D PUSH2 0x4D7 CALLDATASIZE PUSH1 0x4 PUSH2 0x2D4A JUMP JUMPDEST PUSH2 0x14A8 JUMP JUMPDEST PUSH2 0x31D PUSH2 0x4EA CALLDATASIZE PUSH1 0x4 PUSH2 0x2D4A JUMP JUMPDEST PUSH2 0x14B8 JUMP JUMPDEST PUSH2 0x362 PUSH2 0x4FD CALLDATASIZE PUSH1 0x4 PUSH2 0x2D63 JUMP JUMPDEST PUSH1 0x4 PUSH1 0x20 MSTORE PUSH1 0x0 SWAP1 DUP2 MSTORE PUSH1 0x40 SWAP1 KECCAK256 SLOAD DUP2 JUMP JUMPDEST PUSH2 0x31D PUSH2 0x51D CALLDATASIZE PUSH1 0x4 PUSH2 0x2D4A JUMP JUMPDEST PUSH2 0x14C8 JUMP JUMPDEST PUSH2 0x3C1 PUSH2 0x530 CALLDATASIZE PUSH1 0x4 PUSH2 0x2D63 JUMP JUMPDEST PUSH1 0x9 PUSH1 0x20 MSTORE PUSH1 0x0 SWAP1 DUP2 MSTORE PUSH1 0x40 SWAP1 KECCAK256 SLOAD PUSH1 0xFF AND DUP2 JUMP JUMPDEST PUSH2 0x362 PUSH2 0x553 CALLDATASIZE PUSH1 0x4 PUSH2 0x2D63 JUMP JUMPDEST PUSH1 0xD PUSH1 0x20 MSTORE PUSH1 0x0 SWAP1 DUP2 MSTORE PUSH1 0x40 SWAP1 KECCAK256 SLOAD DUP2 JUMP JUMPDEST PUSH2 0x31D PUSH2 0x573 CALLDATASIZE PUSH1 0x4 PUSH2 0x2D4A JUMP JUMPDEST PUSH2 0x14D8 JUMP JUMPDEST PUSH2 0x362 PUSH1 0x21 SLOAD DUP2 JUMP JUMPDEST PUSH2 0x362 PUSH2 0x58F CALLDATASIZE PUSH1 0x4 PUSH2 0x2D63 JUMP JUMPDEST PUSH1 0x7 PUSH1 0x20 MSTORE PUSH1 0x0 SWAP1 DUP2 MSTORE PUSH1 0x40 SWAP1 KECCAK256 SLOAD DUP2 JUMP JUMPDEST PUSH2 0x3C1 PUSH2 0x5AF CALLDATASIZE PUSH1 0x4 PUSH2 0x2D63 JUMP JUMPDEST PUSH1 0xF PUSH1 0x20 MSTORE PUSH1 0x0 SWAP1 DUP2 MSTORE PUSH1 0x40 SWAP1 KECCAK256 SLOAD PUSH1 0xFF AND DUP2 JUMP JUMPDEST PUSH2 0x3C1 PUSH2 0x5D2 CALLDATASIZE PUSH1 0x4 PUSH2 0x2D63 JUMP JUMPDEST PUSH1 0xC PUSH1 0x20 MSTORE PUSH1 0x0 SWAP1 DUP2 MSTORE PUSH1 0x40 SWAP1 KECCAK256 SLOAD PUSH1 0xFF AND DUP2 JUMP JUMPDEST PUSH2 0x31D PUSH32 0x0 DUP2 JUMP JUMPDEST PUSH2 0x362 PUSH2 0x61C CALLDATASIZE PUSH1 0x4 PUSH2 0x2D63 JUMP JUMPDEST PUSH1 0x17 PUSH1 0x20 MSTORE PUSH1 0x0 SWAP1 DUP2 MSTORE PUSH1 0x40 SWAP1 KECCAK256 SLOAD DUP2 JUMP JUMPDEST PUSH2 0x362 PUSH2 0x63C CALLDATASIZE PUSH1 0x4 PUSH2 0x2D63 JUMP JUMPDEST PUSH1 0x14 PUSH1 0x20 MSTORE PUSH1 0x0 SWAP1 DUP2 MSTORE PUSH1 0x40 SWAP1 KECCAK256 SLOAD DUP2 JUMP JUMPDEST PUSH2 0x31D PUSH2 0x65C CALLDATASIZE PUSH1 0x4 PUSH2 0x2D4A JUMP JUMPDEST PUSH2 0x14E8 JUMP JUMPDEST PUSH2 0x362 PUSH2 0x66F CALLDATASIZE PUSH1 0x4 PUSH2 0x2DA8 JUMP JUMPDEST PUSH2 0x14F8 JUMP JUMPDEST PUSH2 0x362 PUSH2 0x682 CALLDATASIZE PUSH1 0x4 PUSH2 0x2D63 JUMP JUMPDEST PUSH1 0xA PUSH1 0x20 MSTORE PUSH1 0x0 SWAP1 DUP2 MSTORE PUSH1 0x40 SWAP1 KECCAK256 SLOAD DUP2 JUMP JUMPDEST PUSH2 0x362 PUSH2 0x6A2 CALLDATASIZE PUSH1 0x4 PUSH2 0x2D63 JUMP JUMPDEST PUSH1 0x1A PUSH1 0x20 MSTORE PUSH1 0x0 SWAP1 DUP2 MSTORE PUSH1 0x40 SWAP1 KECCAK256 SLOAD DUP2 JUMP JUMPDEST PUSH2 0x31D PUSH2 0x6C2 CALLDATASIZE PUSH1 0x4 PUSH2 0x2D4A JUMP JUMPDEST PUSH2 0x16FD JUMP JUMPDEST PUSH2 0x362 PUSH32 0x0 DUP2 JUMP JUMPDEST PUSH2 0x362 PUSH2 0x6FC CALLDATASIZE PUSH1 0x4 PUSH2 0x2D7E JUMP JUMPDEST PUSH2 0x170D JUMP JUMPDEST PUSH2 0x308 PUSH2 0x70F CALLDATASIZE PUSH1 0x4 PUSH2 0x2D1E JUMP JUMPDEST PUSH2 0x18F1 JUMP JUMPDEST PUSH2 0x3C1 PUSH2 0x722 CALLDATASIZE PUSH1 0x4 PUSH2 0x2D63 JUMP JUMPDEST PUSH1 0x16 PUSH1 0x20 MSTORE PUSH1 0x0 SWAP1 DUP2 MSTORE PUSH1 0x40 SWAP1 KECCAK256 SLOAD PUSH1 0xFF AND DUP2 JUMP JUMPDEST PUSH2 0x3C1 PUSH2 0x745 CALLDATASIZE PUSH1 0x4 PUSH2 0x2DEC JUMP JUMPDEST PUSH2 0x1A2A JUMP JUMPDEST PUSH2 0x3C1 PUSH2 0x758 CALLDATASIZE PUSH1 0x4 PUSH2 0x2D63 JUMP JUMPDEST PUSH1 0x13 PUSH1 0x20 MSTORE PUSH1 0x0 SWAP1 DUP2 MSTORE PUSH1 0x40 SWAP1 KECCAK256 SLOAD PUSH1 0xFF AND DUP2 JUMP JUMPDEST PUSH2 0x3C1 PUSH2 0x77B CALLDATASIZE PUSH1 0x4 PUSH2 0x2D63 JUMP JUMPDEST PUSH1 0x19 PUSH1 0x20 MSTORE PUSH1 0x0 SWAP1 DUP2 MSTORE PUSH1 0x40 SWAP1 KECCAK256 SLOAD PUSH1 0xFF AND DUP2 JUMP JUMPDEST PUSH2 0x362 PUSH2 0x79E CALLDATASIZE PUSH1 0x4 PUSH2 0x2D63 JUMP JUMPDEST PUSH1 0x1E PUSH1 0x20 MSTORE PUSH1 0x0 SWAP1 DUP2 MSTORE PUSH1 0x40 SWAP1 KECCAK256 SLOAD DUP2 JUMP JUMPDEST PUSH2 0x3C1 PUSH2 0x7BE CALLDATASIZE PUSH1 0x4 PUSH2 0x2E16 JUMP JUMPDEST PUSH2 0x1E94 JUMP JUMPDEST PUSH2 0x362 PUSH1 0x22 SLOAD DUP2 JUMP JUMPDEST PUSH2 0x31D PUSH2 0x7DA CALLDATASIZE PUSH1 0x4 PUSH2 0x2D4A JUMP JUMPDEST PUSH2 0x276D JUMP JUMPDEST PUSH2 0x362 PUSH2 0x7ED CALLDATASIZE PUSH1 0x4 PUSH2 0x2D63 JUMP JUMPDEST PUSH1 0x10 PUSH1 0x20 MSTORE PUSH1 0x0 SWAP1 DUP2 MSTORE PUSH1 0x40 SWAP1 KECCAK256 SLOAD DUP2 JUMP JUMPDEST PUSH1 0x1 PUSH1 0x1 PUSH1 0xA0 SHL SUB DUP2 AND PUSH1 0x0 SWAP1 DUP2 MSTORE PUSH1 0x3 PUSH1 0x20 MSTORE PUSH1 0x40 SWAP1 KECCAK256 SLOAD PUSH1 0xFF AND PUSH2 0x840 JUMPI PUSH1 0x40 MLOAD PUSH3 0x461BCD PUSH1 0xE5 SHL DUP2 MSTORE PUSH1 0x4 ADD PUSH2 0x837 SWAP1 PUSH2 0x2E59 JUMP JUMPDEST PUSH1 0x40 MLOAD DUP1 SWAP2 SUB SWAP1 REVERT JUMPDEST CALLER PUSH1 0x0 SWAP1 DUP2 MSTORE PUSH1 0x9 PUSH1 0x20 MSTORE PUSH1 0x40 SWAP1 KECCAK256 SLOAD PUSH1 0xFF AND ISZERO ISZERO PUSH1 0x1 EQ PUSH2 0x874 JUMPI PUSH1 0x40 MLOAD PUSH3 0x461BCD PUSH1 0xE5 SHL DUP2 MSTORE PUSH1 0x4 ADD PUSH2 0x837 SWAP1 PUSH2 0x2E7F JUMP JUMPDEST PUSH1 0x0 PUSH2 0x880 DUP3 DUP5 PUSH2 0x170D JUMP JUMPDEST PUSH1 0x40 MLOAD PUSH4 0x79CC679 PUSH1 0xE4 SHL DUP2 MSTORE CALLER PUSH1 0x4 DUP3 ADD MSTORE PUSH1 0x24 DUP2 ADD DUP3 SWAP1 MSTORE SWAP1 SWAP2 POP PUSH32 0x0 PUSH1 0x1 PUSH1 0x1 PUSH1 0xA0 SHL SUB AND SWAP1 PUSH4 0x79CC6790 SWAP1 PUSH1 0x44 ADD PUSH1 0x0 PUSH1 0x40 MLOAD DUP1 DUP4 SUB DUP2 PUSH1 0x0 DUP8 DUP1 EXTCODESIZE ISZERO DUP1 ISZERO PUSH2 0x8EB JUMPI PUSH1 0x0 DUP1 REVERT JUMPDEST POP GAS CALL ISZERO DUP1 ISZERO PUSH2 0x8FF JUMPI RETURNDATASIZE PUSH1 0x0 DUP1 RETURNDATACOPY RETURNDATASIZE PUSH1 0x0 REVERT JUMPDEST POP POP PUSH1 0x21 SLOAD PUSH2 0x911 SWAP3 POP SWAP1 POP DUP3 PUSH2 0x277D JUMP JUMPDEST PUSH1 0x21 DUP2 SWAP1 SSTORE PUSH1 0x40 MLOAD PUSH1 0x0 DUP1 MLOAD PUSH1 0x20 PUSH2 0x3174 DUP4 CODECOPY DUP2 MLOAD SWAP2 MSTORE SWAP1 PUSH1 0x0 SWAP1 LOG2 PUSH2 0x941 PUSH1 0x1 PUSH1 0x1 PUSH1 0xA0 SHL SUB DUP4 AND CALLER DUP6 PUSH2 0x27BF JUMP JUMPDEST PUSH1 0x40 DUP1 MLOAD DUP5 DUP2 MSTORE PUSH1 0x20 DUP2 ADD DUP4 SWAP1 MSTORE PUSH1 0x1 PUSH1 0x1 PUSH1 0xA0 SHL SUB DUP5 AND SWAP2 PUSH32 0xDF273CB619D95419A9CD0EC88123A0538C85064229BAA6363788F743FFF90DEB SWAP2 ADD JUMPDEST PUSH1 0x40 MLOAD DUP1 SWAP2 SUB SWAP1 LOG2 POP POP POP JUMP JUMPDEST PUSH1 0x12 DUP2 DUP2 SLOAD DUP2 LT PUSH2 0x99B JUMPI PUSH1 0x0 DUP1 REVERT JUMPDEST PUSH1 0x0 SWAP2 DUP3 MSTORE PUSH1 0x20 SWAP1 SWAP2 KECCAK256 ADD SLOAD PUSH1 0x1 PUSH1 0x1 PUSH1 0xA0 SHL SUB AND SWAP1 POP DUP2 JUMP JUMPDEST PUSH1 0x0 SLOAD PUSH1 0x1 PUSH1 0x1 PUSH1 0xA0 SHL SUB AND CALLER EQ PUSH2 0x9DF JUMPI PUSH1 0x40 MLOAD PUSH3 0x461BCD PUSH1 0xE5 SHL DUP2 MSTORE PUSH1 0x4 ADD PUSH2 0x837 SWAP1 PUSH2 0x2EA5 JUMP JUMPDEST PUSH1 0x0 DUP1 SLOAD PUSH1 0x40 MLOAD PUSH1 0x1 PUSH1 0x1 PUSH1 0xA0 SHL SUB SWAP1 SWAP2 AND SWAP1 PUSH32 0xEA8258F2D9DDB679928CF34B78CF645B7FEDA9ACC828E4DD82D014EAAE270EBA SWAP1 DUP4 SWAP1 LOG3 PUSH1 0x0 DUP1 SLOAD PUSH1 0x1 PUSH1 0x1 PUSH1 0xA0 SHL SUB NOT AND SWAP1 SSTORE JUMP JUMPDEST PUSH1 0x1 PUSH1 0x1 PUSH1 0xA0 SHL SUB DUP3 AND PUSH1 0x0 SWAP1 DUP2 MSTORE PUSH1 0xC PUSH1 0x20 MSTORE PUSH1 0x40 SWAP1 KECCAK256 SLOAD PUSH1 0xFF AND ISZERO PUSH2 0xA7E JUMPI CALLER PUSH1 0x0 SWAP1 DUP2 MSTORE PUSH1 0x16 PUSH1 0x20 MSTORE PUSH1 0x40 SWAP1 KECCAK256 SLOAD PUSH1 0xFF AND PUSH2 0xA79 JUMPI PUSH1 0x40 MLOAD PUSH3 0x461BCD PUSH1 0xE5 SHL DUP2 MSTORE PUSH1 0x4 ADD PUSH2 0x837 SWAP1 PUSH2 0x2E7F JUMP JUMPDEST PUSH2 0xAAD JUMP JUMPDEST CALLER PUSH1 0x0 SWAP1 DUP2 MSTORE PUSH1 0x13 PUSH1 0x20 MSTORE PUSH1 0x40 SWAP1 KECCAK256 SLOAD PUSH1 0xFF AND PUSH2 0xAAD JUMPI PUSH1 0x40 MLOAD PUSH3 0x461BCD PUSH1 0xE5 SHL DUP2 MSTORE PUSH1 0x4 ADD PUSH2 0x837 SWAP1 PUSH2 0x2E7F JUMP JUMPDEST PUSH1 0x0 PUSH2 0xAB9 DUP4 DUP4 PUSH2 0x170D JUMP JUMPDEST SWAP1 POP PUSH2 0xAC3 PUSH2 0xB82 JUMP JUMPDEST DUP2 GT ISZERO PUSH2 0xB0A JUMPI PUSH1 0x40 MLOAD PUSH3 0x461BCD PUSH1 0xE5 SHL DUP2 MSTORE PUSH1 0x20 PUSH1 0x4 DUP3 ADD MSTORE PUSH1 0x15 PUSH1 0x24 DUP3 ADD MSTORE PUSH21 0x496E73756666696369656E74207265736572766573 PUSH1 0x58 SHL PUSH1 0x44 DUP3 ADD MSTORE PUSH1 0x64 ADD PUSH2 0x837 JUMP JUMPDEST PUSH1 0x21 SLOAD PUSH2 0xB17 SWAP1 DUP3 PUSH2 0x277D JUMP JUMPDEST PUSH1 0x21 DUP2 SWAP1 SSTORE PUSH1 0x40 MLOAD PUSH1 0x0 DUP1 MLOAD PUSH1 0x20 PUSH2 0x3174 DUP4 CODECOPY DUP2 MLOAD SWAP2 MSTORE SWAP1 PUSH1 0x0 SWAP1 LOG2 PUSH2 0xB47 PUSH1 0x1 PUSH1 0x1 PUSH1 0xA0 SHL SUB DUP5 AND CALLER DUP5 PUSH2 0x27BF JUMP JUMPDEST DUP3 PUSH1 0x1 PUSH1 0x1 PUSH1 0xA0 SHL SUB AND PUSH32 0x2BB2640731848FE9820BA48DBC978C1FC9BBD5F11B948BFAB05B7DEE3378FD80 DUP4 PUSH1 0x40 MLOAD PUSH2 0x97E SWAP2 DUP2 MSTORE PUSH1 0x20 ADD SWAP1 JUMP JUMPDEST PUSH1 0x0 PUSH2 0xC1E PUSH2 0xC15 PUSH1 0x22 SLOAD PUSH32 0x0 PUSH1 0x1 PUSH1 0x1 PUSH1 0xA0 SHL SUB AND PUSH4 0x18160DDD PUSH1 0x40 MLOAD DUP2 PUSH4 0xFFFFFFFF AND PUSH1 0xE0 SHL DUP2 MSTORE PUSH1 0x4 ADD PUSH1 0x20 PUSH1 0x40 MLOAD DUP1 DUP4 SUB DUP2 DUP7 GAS STATICCALL ISZERO DUP1 ISZERO PUSH2 0xBEB JUMPI RETURNDATASIZE PUSH1 0x0 DUP1 RETURNDATACOPY RETURNDATASIZE PUSH1 0x0 REVERT JUMPDEST POP POP POP POP PUSH1 0x40 MLOAD RETURNDATASIZE PUSH1 0x1F NOT PUSH1 0x1F DUP3 ADD AND DUP3 ADD DUP1 PUSH1 0x40 MSTORE POP DUP2 ADD SWAP1 PUSH2 0xC0F SWAP2 SWAP1 PUSH2 0x2EDA JUMP JUMPDEST SWAP1 PUSH2 0x277D JUMP JUMPDEST PUSH1 0x21 SLOAD SWAP1 PUSH2 0x277D JUMP JUMPDEST SWAP1 POP SWAP1 JUMP JUMPDEST CALLER PUSH1 0x0 SWAP1 DUP2 MSTORE PUSH1 0x19 PUSH1 0x20 MSTORE PUSH1 0x40 SWAP1 KECCAK256 SLOAD PUSH1 0xFF AND PUSH2 0xC52 JUMPI PUSH1 0x40 MLOAD PUSH3 0x461BCD PUSH1 0xE5 SHL DUP2 MSTORE PUSH1 0x4 ADD PUSH2 0x837 SWAP1 PUSH2 0x2E7F JUMP JUMPDEST PUSH1 0x40 MLOAD PUSH4 0x79CC679 PUSH1 0xE4 SHL DUP2 MSTORE CALLER PUSH1 0x4 DUP3 ADD MSTORE PUSH1 0x24 DUP2 ADD DUP3 SWAP1 MSTORE PUSH32 0x0 PUSH1 0x1 PUSH1 0x1 PUSH1 0xA0 SHL SUB AND SWAP1 PUSH4 0x79CC6790 SWAP1 PUSH1 0x44 ADD PUSH1 0x0 PUSH1 0x40 MLOAD DUP1 DUP4 SUB DUP2 PUSH1 0x0 DUP8 DUP1 EXTCODESIZE ISZERO DUP1 ISZERO PUSH2 0xCBA JUMPI PUSH1 0x0 DUP1 REVERT JUMPDEST POP GAS CALL ISZERO DUP1 ISZERO PUSH2 0xCCE JUMPI RETURNDATASIZE PUSH1 0x0 DUP1 RETURNDATACOPY RETURNDATASIZE PUSH1 0x0 REVERT JUMPDEST POP POP CALLER PUSH1 0x0 SWAP1 DUP2 MSTORE PUSH1 0x1B PUSH1 0x20 MSTORE PUSH1 0x40 SWAP1 KECCAK256 SLOAD PUSH2 0xCED SWAP3 POP SWAP1 POP DUP3 PUSH2 0x277D JUMP JUMPDEST CALLER PUSH1 0x0 SWAP1 DUP2 MSTORE PUSH1 0x1B PUSH1 0x20 MSTORE PUSH1 0x40 SWAP1 KECCAK256 SSTORE PUSH1 0x22 SLOAD PUSH2 0xD0A SWAP1 DUP3 PUSH2 0x277D JUMP JUMPDEST PUSH1 0x22 SSTORE PUSH1 0x40 DUP1 MLOAD DUP3 DUP2 MSTORE PUSH1 0x20 DUP2 ADD DUP4 SWAP1 MSTORE PUSH32 0x0 PUSH1 0x1 PUSH1 0x1 PUSH1 0xA0 SHL SUB AND SWAP2 CALLER SWAP2 PUSH32 0xC6D98EECFC9C78AB62C89A82950079B54874749F1F6F24090F7ACC758BC2F309 SWAP2 ADD PUSH1 0x40 MLOAD DUP1 SWAP2 SUB SWAP1 LOG3 POP JUMP JUMPDEST CALLER PUSH1 0x0 SWAP1 DUP2 MSTORE PUSH1 0x19 PUSH1 0x20 MSTORE PUSH1 0x40 SWAP1 KECCAK256 SLOAD PUSH1 0xFF AND PUSH2 0xDA5 JUMPI PUSH1 0x40 MLOAD PUSH3 0x461BCD PUSH1 0xE5 SHL DUP2 MSTORE PUSH1 0x4 ADD PUSH2 0x837 SWAP1 PUSH2 0x2E7F JUMP JUMPDEST PUSH1 0x1 PUSH1 0x1 PUSH1 0xA0 SHL SUB DUP2 AND PUSH1 0x0 SWAP1 DUP2 MSTORE PUSH1 0x3 PUSH1 0x20 MSTORE PUSH1 0x40 SWAP1 KECCAK256 SLOAD PUSH1 0xFF AND PUSH2 0xDDD JUMPI PUSH1 0x40 MLOAD PUSH3 0x461BCD PUSH1 0xE5 SHL DUP2 MSTORE PUSH1 0x4 ADD PUSH2 0x837 SWAP1 PUSH2 0x2E59 JUMP JUMPDEST PUSH1 0x0 PUSH2 0xDE9 DUP3 DUP5 PUSH2 0x170D JUMP JUMPDEST PUSH1 0x1F SLOAD PUSH1 0x40 MLOAD PUSH4 0x70A08231 PUSH1 0xE0 SHL DUP2 MSTORE CALLER PUSH1 0x4 DUP3 ADD MSTORE SWAP2 SWAP3 POP PUSH1 0x0 SWAP2 PUSH1 0x1 PUSH1 0x1 PUSH1 0xA0 SHL SUB SWAP1 SWAP2 AND SWAP1 PUSH4 0x70A08231 SWAP1 PUSH1 0x24 ADD PUSH1 0x20 PUSH1 0x40 MLOAD DUP1 DUP4 SUB DUP2 DUP7 GAS STATICCALL ISZERO DUP1 ISZERO PUSH2 0xE37 JUMPI RETURNDATASIZE PUSH1 0x0 DUP1 RETURNDATACOPY RETURNDATASIZE PUSH1 0x0 REVERT JUMPDEST POP POP POP POP PUSH1 0x40 MLOAD RETURNDATASIZE PUSH1 0x1F NOT PUSH1 0x1F DUP3 ADD AND DUP3 ADD DUP1 PUSH1 0x40 MSTORE POP DUP2 ADD SWAP1 PUSH2 0xE5B SWAP2 SWAP1 PUSH2 0x2EDA JUMP JUMPDEST CALLER PUSH1 0x0 SWAP1 DUP2 MSTORE PUSH1 0x1B PUSH1 0x20 MSTORE PUSH1 0x40 DUP2 KECCAK256 SLOAD SWAP2 SWAP3 POP SWAP1 PUSH2 0xE7A SWAP1 DUP4 SWAP1 PUSH2 0x277D JUMP JUMPDEST SWAP1 POP DUP1 DUP4 GT ISZERO PUSH2 0xEC1 JUMPI PUSH1 0x40 MLOAD PUSH3 0x461BCD PUSH1 0xE5 SHL DUP2 MSTORE PUSH1 0x20 PUSH1 0x4 DUP3 ADD MSTORE PUSH1 0x12 PUSH1 0x24 DUP3 ADD MSTORE PUSH18 0x115E18D959591CC81919589D081B1A5B5A5D PUSH1 0x72 SHL PUSH1 0x44 DUP3 ADD MSTORE PUSH1 0x64 ADD PUSH2 0x837 JUMP JUMPDEST CALLER PUSH1 0x0 SWAP1 DUP2 MSTORE PUSH1 0x1B PUSH1 0x20 MSTORE PUSH1 0x40 SWAP1 KECCAK256 SLOAD PUSH2 0xEDB SWAP1 DUP5 PUSH2 0x2827 JUMP JUMPDEST CALLER PUSH1 0x0 SWAP1 DUP2 MSTORE PUSH1 0x1B PUSH1 0x20 MSTORE PUSH1 0x40 SWAP1 KECCAK256 SSTORE PUSH1 0x22 SLOAD PUSH2 0xEF8 SWAP1 DUP5 PUSH2 0x2827 JUMP JUMPDEST PUSH1 0x22 SSTORE PUSH1 0x21 SLOAD PUSH2 0xF08 SWAP1 DUP5 PUSH2 0x277D JUMP JUMPDEST PUSH1 0x21 DUP2 SWAP1 SSTORE PUSH1 0x40 MLOAD PUSH1 0x0 DUP1 MLOAD PUSH1 0x20 PUSH2 0x3174 DUP4 CODECOPY DUP2 MLOAD SWAP2 MSTORE SWAP1 PUSH1 0x0 SWAP1 LOG2 PUSH1 0x40 MLOAD PUSH4 0xA9059CBB PUSH1 0xE0 SHL DUP2 MSTORE CALLER PUSH1 0x4 DUP3 ADD MSTORE PUSH1 0x24 DUP2 ADD DUP7 SWAP1 MSTORE PUSH1 0x1 PUSH1 0x1 PUSH1 0xA0 SHL SUB DUP6 AND SWAP1 PUSH4 0xA9059CBB SWAP1 PUSH1 0x44 ADD PUSH1 0x20 PUSH1 0x40 MLOAD DUP1 DUP4 SUB DUP2 PUSH1 0x0 DUP8 GAS CALL ISZERO DUP1 ISZERO PUSH2 0xF71 JUMPI RETURNDATASIZE PUSH1 0x0 DUP1 RETURNDATACOPY RETURNDATASIZE PUSH1 0x0 REVERT JUMPDEST POP POP POP POP PUSH1 0x40 MLOAD RETURNDATASIZE PUSH1 0x1F NOT PUSH1 0x1F DUP3 ADD AND DUP3 ADD DUP1 PUSH1 0x40 MSTORE POP DUP2 ADD SWAP1 PUSH2 0xF95 SWAP2 SWAP1 PUSH2 0x2EF3 JUMP JUMPDEST POP PUSH1 0x40 DUP1 MLOAD DUP7 DUP2 MSTORE PUSH1 0x20 DUP2 ADD DUP6 SWAP1 MSTORE PUSH1 0x1 PUSH1 0x1 PUSH1 0xA0 SHL SUB DUP7 AND SWAP2 CALLER SWAP2 PUSH32 0x7E1A939BED137A819B5D2979822C67F877689F7A863D5E4CB57CDCA97B2977D6 SWAP2 ADD PUSH1 0x40 MLOAD DUP1 SWAP2 SUB SWAP1 LOG3 POP POP POP POP POP JUMP JUMPDEST PUSH1 0x0 SLOAD PUSH1 0x1 PUSH1 0x1 PUSH1 0xA0 SHL SUB AND CALLER EQ PUSH2 0x100D JUMPI PUSH1 0x40 MLOAD PUSH3 0x461BCD PUSH1 0xE5 SHL DUP2 MSTORE PUSH1 0x4 ADD PUSH2 0x837 SWAP1 PUSH2 0x2EA5 JUMP JUMPDEST PUSH1 0x0 DUP1 JUMPDEST PUSH1 0x2 SLOAD DUP2 LT ISZERO PUSH2 0x10F0 JUMPI PUSH2 0x10DC PUSH2 0x10D5 PUSH1 0x2 DUP4 DUP2 SLOAD DUP2 LT PUSH2 0x1034 JUMPI PUSH2 0x1034 PUSH2 0x2F15 JUMP JUMPDEST PUSH1 0x0 SWAP2 DUP3 MSTORE PUSH1 0x20 SWAP1 SWAP2 KECCAK256 ADD SLOAD PUSH1 0x2 DUP1 SLOAD PUSH1 0x1 PUSH1 0x1 PUSH1 0xA0 SHL SUB SWAP1 SWAP3 AND SWAP2 DUP6 SWAP1 DUP2 LT PUSH2 0x1060 JUMPI PUSH2 0x1060 PUSH2 0x2F15 JUMP JUMPDEST PUSH1 0x0 SWAP2 DUP3 MSTORE PUSH1 0x20 SWAP1 SWAP2 KECCAK256 ADD SLOAD PUSH1 0x40 MLOAD PUSH4 0x70A08231 PUSH1 0xE0 SHL DUP2 MSTORE ADDRESS PUSH1 0x4 DUP3 ADD MSTORE PUSH1 0x1 PUSH1 0x1 PUSH1 0xA0 SHL SUB SWAP1 SWAP2 AND SWAP1 PUSH4 0x70A08231 SWAP1 PUSH1 0x24 ADD PUSH1 0x20 PUSH1 0x40 MLOAD DUP1 DUP4 SUB DUP2 DUP7 GAS STATICCALL ISZERO DUP1 ISZERO PUSH2 0x10B1 JUMPI RETURNDATASIZE PUSH1 0x0 DUP1 RETURNDATACOPY RETURNDATASIZE PUSH1 0x0 REVERT JUMPDEST POP POP POP POP PUSH1 0x40 MLOAD RETURNDATASIZE PUSH1 0x1F NOT PUSH1 0x1F DUP3 ADD AND DUP3 ADD DUP1 PUSH1 0x40 MSTORE POP DUP2 ADD SWAP1 PUSH2 0x6FC SWAP2 SWAP1 PUSH2 0x2EDA JUMP JUMPDEST DUP4 SWAP1 PUSH2 0x2827 JUMP JUMPDEST SWAP2 POP DUP1 PUSH2 0x10E8 DUP2 PUSH2 0x2F41 JUMP JUMPDEST SWAP2 POP POP PUSH2 0x1011 JUMP JUMPDEST POP PUSH1 0x0 JUMPDEST PUSH1 0xB SLOAD DUP2 LT ISZERO PUSH2 0x1157 JUMPI PUSH2 0x1143 PUSH2 0x10D5 PUSH1 0xB DUP4 DUP2 SLOAD DUP2 LT PUSH2 0x1117 JUMPI PUSH2 0x1117 PUSH2 0x2F15 JUMP JUMPDEST PUSH1 0x0 SWAP2 DUP3 MSTORE PUSH1 0x20 SWAP1 SWAP2 KECCAK256 ADD SLOAD PUSH1 0xB DUP1 SLOAD PUSH1 0x1 PUSH1 0x1 PUSH1 0xA0 SHL SUB SWAP1 SWAP3 AND SWAP2 DUP6 SWAP1 DUP2 LT PUSH2 0x1060 JUMPI PUSH2 0x1060 PUSH2 0x2F15 JUMP JUMPDEST SWAP2 POP DUP1 PUSH2 0x114F DUP2 PUSH2 0x2F41 JUMP JUMPDEST SWAP2 POP POP PUSH2 0x10F4 JUMP JUMPDEST POP PUSH1 0x21 DUP2 SWAP1 SSTORE PUSH1 0x40 MLOAD DUP2 SWAP1 PUSH1 0x0 DUP1 MLOAD PUSH1 0x20 PUSH2 0x3174 DUP4 CODECOPY DUP2 MLOAD SWAP2 MSTORE SWAP1 PUSH1 0x0 SWAP1 LOG2 PUSH1 0x40 MLOAD DUP2 SWAP1 PUSH32 0xEC691F09F6924B27932253F85CAF99BACC30360CC0E50A1CC4D2ACC246014466 SWAP1 PUSH1 0x0 SWAP1 LOG2 POP JUMP JUMPDEST PUSH1 0x8 DUP2 DUP2 SLOAD DUP2 LT PUSH2 0x99B JUMPI PUSH1 0x0 DUP1 REVERT JUMPDEST PUSH1 0x0 SLOAD PUSH1 0x1 PUSH1 0x1 PUSH1 0xA0 SHL SUB AND CALLER EQ PUSH2 0x11DE JUMPI PUSH1 0x40 MLOAD PUSH3 0x461BCD PUSH1 0xE5 SHL DUP2 MSTORE PUSH1 0x4 ADD PUSH2 0x837 SWAP1 PUSH2 0x2EA5 JUMP JUMPDEST PUSH1 0x1 PUSH1 0x1 PUSH1 0xA0 SHL SUB DUP2 AND PUSH2 0x1243 JUMPI PUSH1 0x40 MLOAD PUSH3 0x461BCD PUSH1 0xE5 SHL DUP2 MSTORE PUSH1 0x20 PUSH1 0x4 DUP3 ADD MSTORE PUSH1 0x26 PUSH1 0x24 DUP3 ADD MSTORE PUSH32 0x4F776E61626C653A206E6577206F776E657220697320746865207A65726F2061 PUSH1 0x44 DUP3 ADD MSTORE PUSH6 0x646472657373 PUSH1 0xD0 SHL PUSH1 0x64 DUP3 ADD MSTORE PUSH1 0x84 ADD PUSH2 0x837 JUMP JUMPDEST PUSH1 0x0 DUP1 SLOAD PUSH1 0x40 MLOAD PUSH1 0x1 PUSH1 0x1 PUSH1 0xA0 SHL SUB DUP1 DUP6 AND SWAP4 SWAP3 AND SWAP2 PUSH32 0xEA8258F2D9DDB679928CF34B78CF645B7FEDA9ACC828E4DD82D014EAAE270EBA SWAP2 LOG3 PUSH1 0x1 DUP1 SLOAD PUSH1 0x1 PUSH1 0x1 PUSH1 0xA0 SHL SUB NOT AND PUSH1 0x1 PUSH1 0x1 PUSH1 0xA0 SHL SUB SWAP3 SWAP1 SWAP3 AND SWAP2 SWAP1 SWAP2 OR SWAP1 SSTORE JUMP JUMPDEST PUSH1 0x1 SLOAD PUSH1 0x1 PUSH1 0x1 PUSH1 0xA0 SHL SUB AND CALLER EQ PUSH2 0x1303 JUMPI PUSH1 0x40 MLOAD PUSH3 0x461BCD PUSH1 0xE5 SHL DUP2 MSTORE PUSH1 0x20 PUSH1 0x4 DUP3 ADD MSTORE PUSH1 0x22 PUSH1 0x24 DUP3 ADD MSTORE PUSH32 0x4F776E61626C653A206D757374206265206E6577206F776E657220746F207075 PUSH1 0x44 DUP3 ADD MSTORE PUSH2 0x1B1B PUSH1 0xF2 SHL PUSH1 0x64 DUP3 ADD MSTORE PUSH1 0x84 ADD PUSH2 0x837 JUMP JUMPDEST PUSH1 0x1 SLOAD PUSH1 0x0 DUP1 SLOAD PUSH1 0x40 MLOAD PUSH1 0x1 PUSH1 0x1 PUSH1 0xA0 SHL SUB SWAP4 DUP5 AND SWAP4 SWAP1 SWAP2 AND SWAP2 PUSH32 0xAA151555690C956FC3EA32F106BB9F119B5237A061EAA8557CFF3E51E3792C8D SWAP2 LOG3 PUSH1 0x1 SLOAD PUSH1 0x0 DUP1 SLOAD PUSH1 0x1 PUSH1 0x1 PUSH1 0xA0 SHL SUB NOT AND PUSH1 0x1 PUSH1 0x1 PUSH1 0xA0 SHL SUB SWAP1 SWAP3 AND SWAP2 SWAP1 SWAP2 OR SWAP1 SSTORE JUMP JUMPDEST CALLER PUSH1 0x0 SWAP1 DUP2 MSTORE PUSH1 0x1D PUSH1 0x20 MSTORE PUSH1 0x40 SWAP1 KECCAK256 SLOAD PUSH1 0xFF AND PUSH2 0x1393 JUMPI PUSH1 0x40 MLOAD PUSH3 0x461BCD PUSH1 0xE5 SHL DUP2 MSTORE PUSH1 0x4 ADD PUSH2 0x837 SWAP1 PUSH2 0x2E7F JUMP JUMPDEST PUSH2 0x139B PUSH2 0xB82 JUMP JUMPDEST DUP2 GT ISZERO PUSH2 0x13E2 JUMPI PUSH1 0x40 MLOAD PUSH3 0x461BCD PUSH1 0xE5 SHL DUP2 MSTORE PUSH1 0x20 PUSH1 0x4 DUP3 ADD MSTORE PUSH1 0x15 PUSH1 0x24 DUP3 ADD MSTORE PUSH21 0x496E73756666696369656E74207265736572766573 PUSH1 0x58 SHL PUSH1 0x44 DUP3 ADD MSTORE PUSH1 0x64 ADD PUSH2 0x837 JUMP JUMPDEST PUSH1 0x40 MLOAD PUSH4 0x40C10F19 PUSH1 0xE0 SHL DUP2 MSTORE PUSH1 0x1 PUSH1 0x1 PUSH1 0xA0 SHL SUB DUP4 DUP2 AND PUSH1 0x4 DUP4 ADD MSTORE PUSH1 0x24 DUP3 ADD DUP4 SWAP1 MSTORE PUSH32 0x0 AND SWAP1 PUSH4 0x40C10F19 SWAP1 PUSH1 0x44 ADD PUSH1 0x0 PUSH1 0x40 MLOAD DUP1 DUP4 SUB DUP2 PUSH1 0x0 DUP8 DUP1 EXTCODESIZE ISZERO DUP1 ISZERO PUSH2 0x144C JUMPI PUSH1 0x0 DUP1 REVERT JUMPDEST POP GAS CALL ISZERO DUP1 ISZERO PUSH2 0x1460 JUMPI RETURNDATASIZE PUSH1 0x0 DUP1 RETURNDATACOPY RETURNDATASIZE PUSH1 0x0 REVERT JUMPDEST POP POP PUSH1 0x40 MLOAD DUP4 DUP2 MSTORE PUSH1 0x1 PUSH1 0x1 PUSH1 0xA0 SHL SUB DUP6 AND SWAP3 POP CALLER SWAP2 POP PUSH32 0xFA8CCAB40E7DA8146C2304CD0950334FD30A6BA093ABE86261AA13911FED849C SWAP1 PUSH1 0x20 ADD PUSH1 0x40 MLOAD DUP1 SWAP2 SUB SWAP1 LOG3 POP POP JUMP JUMPDEST PUSH1 0x5 DUP2 DUP2 SLOAD DUP2 LT PUSH2 0x99B JUMPI PUSH1 0x0 DUP1 REVERT JUMPDEST PUSH1 0x15 DUP2 DUP2 SLOAD DUP2 LT PUSH2 0x99B JUMPI PUSH1 0x0 DUP1 REVERT JUMPDEST PUSH1 0x18 DUP2 DUP2 SLOAD DUP2 LT PUSH2 0x99B JUMPI PUSH1 0x0 DUP1 REVERT JUMPDEST PUSH1 0xE DUP2 DUP2 SLOAD DUP2 LT PUSH2 0x99B JUMPI PUSH1 0x0 DUP1 REVERT JUMPDEST PUSH1 0x1C DUP2 DUP2 SLOAD DUP2 LT PUSH2 0x99B JUMPI PUSH1 0x0 DUP1 REVERT JUMPDEST PUSH1 0x1 PUSH1 0x1 PUSH1 0xA0 SHL SUB DUP3 AND PUSH1 0x0 SWAP1 DUP2 MSTORE PUSH1 0x3 PUSH1 0x20 MSTORE PUSH1 0x40 DUP2 KECCAK256 SLOAD PUSH1 0xFF AND DUP1 PUSH2 0x1537 JUMPI POP PUSH1 0x1 PUSH1 0x1 PUSH1 0xA0 SHL SUB DUP4 AND PUSH1 0x0 SWAP1 DUP2 MSTORE PUSH1 0xC PUSH1 0x20 MSTORE PUSH1 0x40 SWAP1 KECCAK256 SLOAD PUSH1 0xFF AND JUMPDEST PUSH2 0x1553 JUMPI PUSH1 0x40 MLOAD PUSH3 0x461BCD PUSH1 0xE5 SHL DUP2 MSTORE PUSH1 0x4 ADD PUSH2 0x837 SWAP1 PUSH2 0x2E59 JUMP JUMPDEST PUSH2 0x1568 PUSH1 0x1 PUSH1 0x1 PUSH1 0xA0 SHL SUB DUP5 AND CALLER ADDRESS DUP8 PUSH2 0x2886 JUMP JUMPDEST PUSH1 0x1 PUSH1 0x1 PUSH1 0xA0 SHL SUB DUP4 AND PUSH1 0x0 SWAP1 DUP2 MSTORE PUSH1 0x3 PUSH1 0x20 MSTORE PUSH1 0x40 SWAP1 KECCAK256 SLOAD PUSH1 0xFF AND ISZERO PUSH2 0x15BD JUMPI CALLER PUSH1 0x0 SWAP1 DUP2 MSTORE PUSH1 0x6 PUSH1 0x20 MSTORE PUSH1 0x40 SWAP1 KECCAK256 SLOAD PUSH1 0xFF AND PUSH2 0x15B8 JUMPI PUSH1 0x40 MLOAD PUSH3 0x461BCD PUSH1 0xE5 SHL DUP2 MSTORE PUSH1 0x4 ADD PUSH2 0x837 SWAP1 PUSH2 0x2E7F JUMP JUMPDEST PUSH2 0x15EC JUMP JUMPDEST CALLER PUSH1 0x0 SWAP1 DUP2 MSTORE PUSH1 0xF PUSH1 0x20 MSTORE PUSH1 0x40 SWAP1 KECCAK256 SLOAD PUSH1 0xFF AND PUSH2 0x15EC JUMPI PUSH1 0x40 MLOAD PUSH3 0x461BCD PUSH1 0xE5 SHL DUP2 MSTORE PUSH1 0x4 ADD PUSH2 0x837 SWAP1 PUSH2 0x2E7F JUMP JUMPDEST PUSH1 0x0 PUSH2 0x15F8 DUP5 DUP7 PUSH2 0x170D JUMP JUMPDEST SWAP1 POP PUSH2 0x1604 DUP2 DUP5 PUSH2 0x277D JUMP JUMPDEST PUSH1 0x40 MLOAD PUSH4 0x40C10F19 PUSH1 0xE0 SHL DUP2 MSTORE CALLER PUSH1 0x4 DUP3 ADD MSTORE PUSH1 0x24 DUP2 ADD DUP3 SWAP1 MSTORE SWAP1 SWAP3 POP PUSH32 0x0 PUSH1 0x1 PUSH1 0x1 PUSH1 0xA0 SHL SUB AND SWAP1 PUSH4 0x40C10F19 SWAP1 PUSH1 0x44 ADD PUSH1 0x0 PUSH1 0x40 MLOAD DUP1 DUP4 SUB DUP2 PUSH1 0x0 DUP8 DUP1 EXTCODESIZE ISZERO DUP1 ISZERO PUSH2 0x166F JUMPI PUSH1 0x0 DUP1 REVERT JUMPDEST POP GAS CALL ISZERO DUP1 ISZERO PUSH2 0x1683 JUMPI RETURNDATASIZE PUSH1 0x0 DUP1 RETURNDATACOPY RETURNDATASIZE PUSH1 0x0 REVERT JUMPDEST POP POP PUSH1 0x21 SLOAD PUSH2 0x1695 SWAP3 POP SWAP1 POP DUP3 PUSH2 0x2827 JUMP JUMPDEST PUSH1 0x21 DUP2 SWAP1 SSTORE PUSH1 0x40 MLOAD PUSH1 0x0 DUP1 MLOAD PUSH1 0x20 PUSH2 0x3174 DUP4 CODECOPY DUP2 MLOAD SWAP2 MSTORE SWAP1 PUSH1 0x0 SWAP1 LOG2 PUSH1 0x40 DUP1 MLOAD DUP7 DUP2 MSTORE PUSH1 0x20 DUP2 ADD DUP4 SWAP1 MSTORE PUSH1 0x1 PUSH1 0x1 PUSH1 0xA0 SHL SUB DUP7 AND SWAP2 PUSH32 0x90890809C654F11D6E72A28FA60149770A0D11EC6C92319D6CEB2BB0A4EA1A15 SWAP2 ADD PUSH1 0x40 MLOAD DUP1 SWAP2 SUB SWAP1 LOG2 POP SWAP4 SWAP3 POP POP POP JUMP JUMPDEST PUSH1 0x2 DUP2 DUP2 SLOAD DUP2 LT PUSH2 0x99B JUMPI PUSH1 0x0 DUP1 REVERT JUMPDEST PUSH1 0x1 PUSH1 0x1 PUSH1 0xA0 SHL SUB DUP3 AND PUSH1 0x0 SWAP1 DUP2 MSTORE PUSH1 0x3 PUSH1 0x20 MSTORE PUSH1 0x40 DUP2 KECCAK256 SLOAD PUSH1 0xFF AND ISZERO PUSH2 0x1842 JUMPI PUSH2 0x183B DUP4 PUSH1 0x1 PUSH1 0x1 PUSH1 0xA0 SHL SUB AND PUSH4 0x313CE567 PUSH1 0x40 MLOAD DUP2 PUSH4 0xFFFFFFFF AND PUSH1 0xE0 SHL DUP2 MSTORE PUSH1 0x4 ADD PUSH1 0x20 PUSH1 0x40 MLOAD DUP1 DUP4 SUB DUP2 DUP7 GAS STATICCALL ISZERO DUP1 ISZERO PUSH2 0x176F JUMPI RETURNDATASIZE PUSH1 0x0 DUP1 RETURNDATACOPY RETURNDATASIZE PUSH1 0x0 REVERT JUMPDEST POP POP POP POP PUSH1 0x40 MLOAD RETURNDATASIZE PUSH1 0x1F NOT PUSH1 0x1F DUP3 ADD AND DUP3 ADD DUP1 PUSH1 0x40 MSTORE POP DUP2 ADD SWAP1 PUSH2 0x1793 SWAP2 SWAP1 PUSH2 0x2F5C JUMP JUMPDEST PUSH2 0x179E SWAP1 PUSH1 0xA PUSH2 0x3063 JUMP JUMPDEST PUSH2 0x1835 PUSH32 0x0 PUSH1 0x1 PUSH1 0x1 PUSH1 0xA0 SHL SUB AND PUSH4 0x313CE567 PUSH1 0x40 MLOAD DUP2 PUSH4 0xFFFFFFFF AND PUSH1 0xE0 SHL DUP2 MSTORE PUSH1 0x4 ADD PUSH1 0x20 PUSH1 0x40 MLOAD DUP1 DUP4 SUB DUP2 DUP7 GAS STATICCALL ISZERO DUP1 ISZERO PUSH2 0x17FF JUMPI RETURNDATASIZE PUSH1 0x0 DUP1 RETURNDATACOPY RETURNDATASIZE PUSH1 0x0 REVERT JUMPDEST POP POP POP POP PUSH1 0x40 MLOAD RETURNDATASIZE PUSH1 0x1F NOT PUSH1 0x1F DUP3 ADD AND DUP3 ADD DUP1 PUSH1 0x40 MSTORE POP DUP2 ADD SWAP1 PUSH2 0x1823 SWAP2 SWAP1 PUSH2 0x2F5C JUMP JUMPDEST PUSH2 0x182E SWAP1 PUSH1 0xA PUSH2 0x3063 JUMP JUMPDEST DUP6 SWAP1 PUSH2 0x28C4 JUMP JUMPDEST SWAP1 PUSH2 0x2943 JUMP JUMPDEST SWAP1 POP PUSH2 0x18EB JUMP JUMPDEST PUSH1 0x1 PUSH1 0x1 PUSH1 0xA0 SHL SUB DUP4 AND PUSH1 0x0 SWAP1 DUP2 MSTORE PUSH1 0xC PUSH1 0x20 MSTORE PUSH1 0x40 SWAP1 KECCAK256 SLOAD PUSH1 0xFF AND ISZERO PUSH2 0x18EB JUMPI PUSH1 0x1 PUSH1 0x1 PUSH1 0xA0 SHL SUB DUP4 DUP2 AND PUSH1 0x0 DUP2 DUP2 MSTORE PUSH1 0x11 PUSH1 0x20 MSTORE PUSH1 0x40 SWAP1 DUP2 SWAP1 KECCAK256 SLOAD SWAP1 MLOAD PUSH4 0x4249719F PUSH1 0xE0 SHL DUP2 MSTORE PUSH1 0x4 DUP2 ADD SWAP3 SWAP1 SWAP3 MSTORE PUSH1 0x24 DUP3 ADD DUP6 SWAP1 MSTORE SWAP1 SWAP2 AND SWAP1 PUSH4 0x4249719F SWAP1 PUSH1 0x44 ADD PUSH1 0x20 PUSH1 0x40 MLOAD DUP1 DUP4 SUB DUP2 DUP7 GAS STATICCALL ISZERO DUP1 ISZERO PUSH2 0x18C4 JUMPI RETURNDATASIZE PUSH1 0x0 DUP1 RETURNDATACOPY RETURNDATASIZE PUSH1 0x0 REVERT JUMPDEST POP POP POP POP PUSH1 0x40 MLOAD RETURNDATASIZE PUSH1 0x1F NOT PUSH1 0x1F DUP3 ADD AND DUP3 ADD DUP1 PUSH1 0x40 MSTORE POP DUP2 ADD SWAP1 PUSH2 0x18E8 SWAP2 SWAP1 PUSH2 0x2EDA JUMP JUMPDEST SWAP1 POP JUMPDEST SWAP3 SWAP2 POP POP JUMP JUMPDEST CALLER PUSH1 0x0 SWAP1 DUP2 MSTORE PUSH1 0x19 PUSH1 0x20 MSTORE PUSH1 0x40 SWAP1 KECCAK256 SLOAD PUSH1 0xFF AND PUSH2 0x1920 JUMPI PUSH1 0x40 MLOAD PUSH3 0x461BCD PUSH1 0xE5 SHL DUP2 MSTORE PUSH1 0x4 ADD PUSH2 0x837 SWAP1 PUSH2 0x2E7F JUMP JUMPDEST PUSH1 0x1 PUSH1 0x1 PUSH1 0xA0 SHL SUB DUP2 AND PUSH1 0x0 SWAP1 DUP2 MSTORE PUSH1 0x3 PUSH1 0x20 MSTORE PUSH1 0x40 SWAP1 KECCAK256 SLOAD PUSH1 0xFF AND PUSH2 0x1958 JUMPI PUSH1 0x40 MLOAD PUSH3 0x461BCD PUSH1 0xE5 SHL DUP2 MSTORE PUSH1 0x4 ADD PUSH2 0x837 SWAP1 PUSH2 0x2E59 JUMP JUMPDEST PUSH2 0x196D PUSH1 0x1 PUSH1 0x1 PUSH1 0xA0 SHL SUB DUP3 AND CALLER ADDRESS DUP6 PUSH2 0x2886 JUMP JUMPDEST PUSH1 0x0 PUSH2 0x1979 DUP3 DUP5 PUSH2 0x170D JUMP JUMPDEST CALLER PUSH1 0x0 SWAP1 DUP2 MSTORE PUSH1 0x1B PUSH1 0x20 MSTORE PUSH1 0x40 SWAP1 KECCAK256 SLOAD SWAP1 SWAP2 POP PUSH2 0x1996 SWAP1 DUP3 PUSH2 0x277D JUMP JUMPDEST CALLER PUSH1 0x0 SWAP1 DUP2 MSTORE PUSH1 0x1B PUSH1 0x20 MSTORE PUSH1 0x40 SWAP1 KECCAK256 SSTORE PUSH1 0x22 SLOAD PUSH2 0x19B3 SWAP1 DUP3 PUSH2 0x277D JUMP JUMPDEST PUSH1 0x22 SSTORE PUSH1 0x21 SLOAD PUSH2 0x19C3 SWAP1 DUP3 PUSH2 0x2827 JUMP JUMPDEST PUSH1 0x21 DUP2 SWAP1 SSTORE PUSH1 0x40 MLOAD PUSH1 0x0 DUP1 MLOAD PUSH1 0x20 PUSH2 0x3174 DUP4 CODECOPY DUP2 MLOAD SWAP2 MSTORE SWAP1 PUSH1 0x0 SWAP1 LOG2 PUSH1 0x40 DUP1 MLOAD DUP5 DUP2 MSTORE PUSH1 0x20 DUP2 ADD DUP4 SWAP1 MSTORE PUSH1 0x1 PUSH1 0x1 PUSH1 0xA0 SHL SUB DUP5 AND SWAP2 CALLER SWAP2 PUSH32 0xC6D98EECFC9C78AB62C89A82950079B54874749F1F6F24090F7ACC758BC2F309 SWAP2 ADD PUSH1 0x40 MLOAD DUP1 SWAP2 SUB SWAP1 LOG3 POP POP POP JUMP JUMPDEST PUSH1 0x0 DUP1 SLOAD PUSH1 0x1 PUSH1 0x1 PUSH1 0xA0 SHL SUB AND CALLER EQ PUSH2 0x1A55 JUMPI PUSH1 0x40 MLOAD PUSH3 0x461BCD PUSH1 0xE5 SHL DUP2 MSTORE PUSH1 0x4 ADD PUSH2 0x837 SWAP1 PUSH2 0x2EA5 JUMP JUMPDEST PUSH1 0x1 PUSH1 0x1 PUSH1 0xA0 SHL SUB DUP3 AND PUSH2 0x1A68 JUMPI PUSH1 0x0 DUP1 REVERT JUMPDEST PUSH1 0x0 DUP4 PUSH1 0x9 DUP2 GT ISZERO PUSH2 0x1A7C JUMPI PUSH2 0x1A7C PUSH2 0x3072 JUMP JUMPDEST EQ ISZERO PUSH2 0x1ACA JUMPI PUSH2 0x1AAC NUMBER PUSH32 0x0 PUSH2 0x2827 JUMP JUMPDEST PUSH1 0x1 PUSH1 0x1 PUSH1 0xA0 SHL SUB DUP4 AND PUSH1 0x0 SWAP1 DUP2 MSTORE PUSH1 0x7 PUSH1 0x20 MSTORE PUSH1 0x40 SWAP1 KECCAK256 SSTORE PUSH2 0x1E3D JUMP JUMPDEST PUSH1 0x1 DUP4 PUSH1 0x9 DUP2 GT ISZERO PUSH2 0x1ADE JUMPI PUSH2 0x1ADE PUSH2 0x3072 JUMP JUMPDEST EQ ISZERO PUSH2 0x1B2C JUMPI PUSH2 0x1B0E NUMBER PUSH32 0x0 PUSH2 0x2827 JUMP JUMPDEST PUSH1 0x1 PUSH1 0x1 PUSH1 0xA0 SHL SUB DUP4 AND PUSH1 0x0 SWAP1 DUP2 MSTORE PUSH1 0xA PUSH1 0x20 MSTORE PUSH1 0x40 SWAP1 KECCAK256 SSTORE PUSH2 0x1E3D JUMP JUMPDEST PUSH1 0x2 DUP4 PUSH1 0x9 DUP2 GT ISZERO PUSH2 0x1B40 JUMPI PUSH2 0x1B40 PUSH2 0x3072 JUMP JUMPDEST EQ ISZERO PUSH2 0x1B8E JUMPI PUSH2 0x1B70 NUMBER PUSH32 0x0 PUSH2 0x2827 JUMP JUMPDEST PUSH1 0x1 PUSH1 0x1 PUSH1 0xA0 SHL SUB DUP4 AND PUSH1 0x0 SWAP1 DUP2 MSTORE PUSH1 0x4 PUSH1 0x20 MSTORE PUSH1 0x40 SWAP1 KECCAK256 SSTORE PUSH2 0x1E3D JUMP JUMPDEST PUSH1 0x3 DUP4 PUSH1 0x9 DUP2 GT ISZERO PUSH2 0x1BA2 JUMPI PUSH2 0x1BA2 PUSH2 0x3072 JUMP JUMPDEST EQ ISZERO PUSH2 0x1BFB JUMPI PUSH2 0x1BDD PUSH2 0x1BD6 PUSH32 0x0 PUSH1 0x2 PUSH2 0x28C4 JUMP JUMPDEST NUMBER SWAP1 PUSH2 0x2827 JUMP JUMPDEST PUSH1 0x1 PUSH1 0x1 PUSH1 0xA0 SHL SUB DUP4 AND PUSH1 0x0 SWAP1 DUP2 MSTORE PUSH1 0x14 PUSH1 0x20 MSTORE PUSH1 0x40 SWAP1 KECCAK256 SSTORE PUSH2 0x1E3D JUMP JUMPDEST PUSH1 0x4 DUP4 PUSH1 0x9 DUP2 GT ISZERO PUSH2 0x1C0F JUMPI PUSH2 0x1C0F PUSH2 0x3072 JUMP JUMPDEST EQ ISZERO PUSH2 0x1C5D JUMPI PUSH2 0x1C3F NUMBER PUSH32 0x0 PUSH2 0x2827 JUMP JUMPDEST PUSH1 0x1 PUSH1 0x1 PUSH1 0xA0 SHL SUB DUP4 AND PUSH1 0x0 SWAP1 DUP2 MSTORE PUSH1 0x10 PUSH1 0x20 MSTORE PUSH1 0x40 SWAP1 KECCAK256 SSTORE PUSH2 0x1E3D JUMP JUMPDEST PUSH1 0x5 DUP4 PUSH1 0x9 DUP2 GT ISZERO PUSH2 0x1C71 JUMPI PUSH2 0x1C71 PUSH2 0x3072 JUMP JUMPDEST EQ ISZERO PUSH2 0x1CBF JUMPI PUSH2 0x1CA1 NUMBER PUSH32 0x0 PUSH2 0x2827 JUMP JUMPDEST PUSH1 0x1 PUSH1 0x1 PUSH1 0xA0 SHL SUB DUP4 AND PUSH1 0x0 SWAP1 DUP2 MSTORE PUSH1 0xD PUSH1 0x20 MSTORE PUSH1 0x40 SWAP1 KECCAK256 SSTORE PUSH2 0x1E3D JUMP JUMPDEST PUSH1 0x6 DUP4 PUSH1 0x9 DUP2 GT ISZERO PUSH2 0x1CD3 JUMPI PUSH2 0x1CD3 PUSH2 0x3072 JUMP JUMPDEST EQ ISZERO PUSH2 0x1D25 JUMPI PUSH2 0x1D07 PUSH2 0x1BD6 PUSH32 0x0 PUSH1 0x2 PUSH2 0x28C4 JUMP JUMPDEST PUSH1 0x1 PUSH1 0x1 PUSH1 0xA0 SHL SUB DUP4 AND PUSH1 0x0 SWAP1 DUP2 MSTORE PUSH1 0x17 PUSH1 0x20 MSTORE PUSH1 0x40 SWAP1 KECCAK256 SSTORE PUSH2 0x1E3D JUMP JUMPDEST PUSH1 0x7 DUP4 PUSH1 0x9 DUP2 GT ISZERO PUSH2 0x1D39 JUMPI PUSH2 0x1D39 PUSH2 0x3072 JUMP JUMPDEST EQ ISZERO PUSH2 0x1D87 JUMPI PUSH2 0x1D69 NUMBER PUSH32 0x0 PUSH2 0x2827 JUMP JUMPDEST PUSH1 0x1 PUSH1 0x1 PUSH1 0xA0 SHL SUB DUP4 AND PUSH1 0x0 SWAP1 DUP2 MSTORE PUSH1 0x1A PUSH1 0x20 MSTORE PUSH1 0x40 SWAP1 KECCAK256 SSTORE PUSH2 0x1E3D JUMP JUMPDEST PUSH1 0x8 DUP4 PUSH1 0x9 DUP2 GT ISZERO PUSH2 0x1D9B JUMPI PUSH2 0x1D9B PUSH2 0x3072 JUMP JUMPDEST EQ ISZERO PUSH2 0x1DE9 JUMPI PUSH2 0x1DCB NUMBER PUSH32 0x0 PUSH2 0x2827 JUMP JUMPDEST PUSH1 0x1 PUSH1 0x1 PUSH1 0xA0 SHL SUB DUP4 AND PUSH1 0x0 SWAP1 DUP2 MSTORE PUSH1 0x1E PUSH1 0x20 MSTORE PUSH1 0x40 SWAP1 KECCAK256 SSTORE PUSH2 0x1E3D JUMP JUMPDEST PUSH1 0x9 DUP4 PUSH1 0x9 DUP2 GT ISZERO PUSH2 0x1DFD JUMPI PUSH2 0x1DFD PUSH2 0x3072 JUMP JUMPDEST EQ ISZERO PUSH2 0x1E35 JUMPI PUSH2 0x1E2D NUMBER PUSH32 0x0 PUSH2 0x2827 JUMP JUMPDEST PUSH1 0x20 SSTORE PUSH2 0x1E3D JUMP JUMPDEST POP PUSH1 0x0 PUSH2 0x18EB JUMP JUMPDEST DUP3 PUSH1 0x9 DUP2 GT ISZERO PUSH2 0x1E4F JUMPI PUSH2 0x1E4F PUSH2 0x3072 JUMP JUMPDEST PUSH1 0x40 MLOAD PUSH1 0x1 PUSH1 0x1 PUSH1 0xA0 SHL SUB DUP5 AND DUP2 MSTORE PUSH32 0xE4F2C4B5BC209D509BC3D49348C787FEFADC66A79351B470599AC0F5BE52EAF SWAP1 PUSH1 0x20 ADD PUSH1 0x40 MLOAD DUP1 SWAP2 SUB SWAP1 LOG2 POP PUSH1 0x1 SWAP3 SWAP2 POP POP JUMP JUMPDEST PUSH1 0x0 DUP1 SLOAD PUSH1 0x1 PUSH1 0x1 PUSH1 0xA0 SHL SUB AND CALLER EQ PUSH2 0x1EBF JUMPI PUSH1 0x40 MLOAD PUSH3 0x461BCD PUSH1 0xE5 SHL DUP2 MSTORE PUSH1 0x4 ADD PUSH2 0x837 SWAP1 PUSH2 0x2EA5 JUMP JUMPDEST PUSH1 0x1 PUSH1 0x1 PUSH1 0xA0 SHL SUB DUP4 AND PUSH2 0x1ED2 JUMPI PUSH1 0x0 DUP1 REVERT JUMPDEST PUSH1 0x0 DUP1 DUP6 PUSH1 0x9 DUP2 GT ISZERO PUSH2 0x1EE7 JUMPI PUSH2 0x1EE7 PUSH2 0x3072 JUMP JUMPDEST EQ ISZERO PUSH2 0x1FA3 JUMPI PUSH2 0x1EFA PUSH1 0x7 PUSH1 0x6 DUP7 PUSH2 0x2985 JUMP JUMPDEST ISZERO PUSH2 0x1F73 JUMPI PUSH1 0x1 PUSH1 0x1 PUSH1 0xA0 SHL SUB DUP5 AND PUSH1 0x0 SWAP1 DUP2 MSTORE PUSH1 0x7 PUSH1 0x20 MSTORE PUSH1 0x40 DUP2 KECCAK256 SSTORE PUSH2 0x1F23 PUSH1 0x5 DUP6 PUSH2 0x2A65 JUMP JUMPDEST PUSH2 0x1F73 JUMPI PUSH1 0x5 DUP1 SLOAD PUSH1 0x1 DUP2 ADD DUP3 SSTORE PUSH1 0x0 SWAP2 SWAP1 SWAP2 MSTORE PUSH32 0x36B6384B5ECA791C62761152D0C79BB0604C104A5FB6F4EB0703F3154BB3DB0 ADD DUP1 SLOAD PUSH1 0x1 PUSH1 0x1 PUSH1 0xA0 SHL SUB NOT AND PUSH1 0x1 PUSH1 0x1 PUSH1 0xA0 SHL SUB DUP7 AND OR SWAP1 SSTORE JUMPDEST POP PUSH1 0x1 PUSH1 0x1 PUSH1 0xA0 SHL SUB DUP4 AND PUSH1 0x0 SWAP1 DUP2 MSTORE PUSH1 0x6 PUSH1 0x20 MSTORE PUSH1 0x40 SWAP1 KECCAK256 DUP1 SLOAD PUSH1 0xFF DUP2 AND ISZERO PUSH1 0xFF NOT SWAP1 SWAP2 AND DUP2 OR SWAP1 SWAP2 SSTORE PUSH2 0x270B JUMP JUMPDEST PUSH1 0x1 DUP6 PUSH1 0x9 DUP2 GT ISZERO PUSH2 0x1FB7 JUMPI PUSH2 0x1FB7 PUSH2 0x3072 JUMP JUMPDEST EQ ISZERO PUSH2 0x2073 JUMPI PUSH2 0x1FCA PUSH1 0xA PUSH1 0x9 DUP7 PUSH2 0x2985 JUMP JUMPDEST ISZERO PUSH2 0x2043 JUMPI PUSH1 0x1 PUSH1 0x1 PUSH1 0xA0 SHL SUB DUP5 AND PUSH1 0x0 SWAP1 DUP2 MSTORE PUSH1 0xA PUSH1 0x20 MSTORE PUSH1 0x40 DUP2 KECCAK256 SSTORE PUSH2 0x1FF3 PUSH1 0x8 DUP6 PUSH2 0x2A65 JUMP JUMPDEST PUSH2 0x2043 JUMPI PUSH1 0x8 DUP1 SLOAD PUSH1 0x1 DUP2 ADD DUP3 SSTORE PUSH1 0x0 SWAP2 SWAP1 SWAP2 MSTORE PUSH32 0xF3F7A9FE364FAAB93B216DA50A3214154F22A0A2B415B23A84C8169E8B636EE3 ADD DUP1 SLOAD PUSH1 0x1 PUSH1 0x1 PUSH1 0xA0 SHL SUB NOT AND PUSH1 0x1 PUSH1 0x1 PUSH1 0xA0 SHL SUB DUP7 AND OR SWAP1 SSTORE JUMPDEST POP PUSH1 0x1 PUSH1 0x1 PUSH1 0xA0 SHL SUB DUP4 AND PUSH1 0x0 SWAP1 DUP2 MSTORE PUSH1 0x9 PUSH1 0x20 MSTORE PUSH1 0x40 SWAP1 KECCAK256 DUP1 SLOAD PUSH1 0xFF DUP2 AND ISZERO PUSH1 0xFF NOT SWAP1 SWAP2 AND DUP2 OR SWAP1 SWAP2 SSTORE PUSH2 0x270B JUMP JUMPDEST PUSH1 0x2 DUP6 PUSH1 0x9 DUP2 GT ISZERO PUSH2 0x2087 JUMPI PUSH2 0x2087 PUSH2 0x3072 JUMP JUMPDEST EQ ISZERO PUSH2 0x2143 JUMPI PUSH2 0x209A PUSH1 0x4 PUSH1 0x3 DUP7 PUSH2 0x2985 JUMP JUMPDEST ISZERO PUSH2 0x2113 JUMPI PUSH1 0x1 PUSH1 0x1 PUSH1 0xA0 SHL SUB DUP5 AND PUSH1 0x0 SWAP1 DUP2 MSTORE PUSH1 0x4 PUSH1 0x20 MSTORE PUSH1 0x40 DUP2 KECCAK256 SSTORE PUSH2 0x20C3 PUSH1 0x2 DUP6 PUSH2 0x2A65 JUMP JUMPDEST PUSH2 0x2113 JUMPI PUSH1 0x2 DUP1 SLOAD PUSH1 0x1 DUP2 ADD DUP3 SSTORE PUSH1 0x0 SWAP2 SWAP1 SWAP2 MSTORE PUSH32 0x405787FA12A823E0F2B7631CC41B3BA8828B3321CA811111FA75CD3AA3BB5ACE ADD DUP1 SLOAD PUSH1 0x1 PUSH1 0x1 PUSH1 0xA0 SHL SUB NOT AND PUSH1 0x1 PUSH1 0x1 PUSH1 0xA0 SHL SUB DUP7 AND OR SWAP1 SSTORE JUMPDEST POP PUSH1 0x1 PUSH1 0x1 PUSH1 0xA0 SHL SUB DUP4 AND PUSH1 0x0 SWAP1 DUP2 MSTORE PUSH1 0x3 PUSH1 0x20 MSTORE PUSH1 0x40 SWAP1 KECCAK256 DUP1 SLOAD PUSH1 0xFF DUP2 AND ISZERO PUSH1 0xFF NOT SWAP1 SWAP2 AND DUP2 OR SWAP1 SWAP2 SSTORE PUSH2 0x270B JUMP JUMPDEST PUSH1 0x3 DUP6 PUSH1 0x9 DUP2 GT ISZERO PUSH2 0x2157 JUMPI PUSH2 0x2157 PUSH2 0x3072 JUMP JUMPDEST EQ ISZERO PUSH2 0x2250 JUMPI PUSH2 0x216A PUSH1 0x14 PUSH1 0x13 DUP7 PUSH2 0x2985 JUMP JUMPDEST ISZERO PUSH2 0x2220 JUMPI PUSH1 0x12 DUP1 SLOAD PUSH1 0x1 DUP2 ADD DUP3 SSTORE PUSH32 0xBB8A6A4669BA250D26CD7A459ECA9D215F8307E33AEBE50379BC5A3617EC3444 ADD DUP1 SLOAD PUSH1 0x1 PUSH1 0x1 PUSH1 0xA0 SHL SUB NOT AND PUSH1 0x1 PUSH1 0x1 PUSH1 0xA0 SHL SUB DUP8 AND SWAP1 DUP2 OR SWAP1 SWAP2 SSTORE PUSH1 0x0 SWAP1 DUP2 MSTORE PUSH1 0x14 PUSH1 0x20 MSTORE PUSH1 0x40 DUP2 KECCAK256 SSTORE PUSH2 0x21D0 SWAP1 DUP6 PUSH2 0x2A65 JUMP JUMPDEST PUSH2 0x2220 JUMPI PUSH1 0x12 DUP1 SLOAD PUSH1 0x1 DUP2 ADD DUP3 SSTORE PUSH1 0x0 SWAP2 SWAP1 SWAP2 MSTORE PUSH32 0xBB8A6A4669BA250D26CD7A459ECA9D215F8307E33AEBE50379BC5A3617EC3444 ADD DUP1 SLOAD PUSH1 0x1 PUSH1 0x1 PUSH1 0xA0 SHL SUB NOT AND PUSH1 0x1 PUSH1 0x1 PUSH1 0xA0 SHL SUB DUP7 AND OR SWAP1 SSTORE JUMPDEST POP PUSH1 0x1 PUSH1 0x1 PUSH1 0xA0 SHL SUB DUP4 AND PUSH1 0x0 SWAP1 DUP2 MSTORE PUSH1 0x13 PUSH1 0x20 MSTORE PUSH1 0x40 SWAP1 KECCAK256 DUP1 SLOAD PUSH1 0xFF DUP2 AND ISZERO PUSH1 0xFF NOT SWAP1 SWAP2 AND DUP2 OR SWAP1 SWAP2 SSTORE PUSH2 0x270B JUMP JUMPDEST PUSH1 0x4 DUP6 PUSH1 0x9 DUP2 GT ISZERO PUSH2 0x2264 JUMPI PUSH2 0x2264 PUSH2 0x3072 JUMP JUMPDEST EQ ISZERO PUSH2 0x235D JUMPI PUSH2 0x2277 PUSH1 0x10 PUSH1 0xF DUP7 PUSH2 0x2985 JUMP JUMPDEST ISZERO PUSH2 0x232D JUMPI PUSH1 0xE DUP1 SLOAD PUSH1 0x1 DUP2 ADD DUP3 SSTORE PUSH32 0xBB7B4A454DC3493923482F07822329ED19E8244EFF582CC204F8554C3620C3FD ADD DUP1 SLOAD PUSH1 0x1 PUSH1 0x1 PUSH1 0xA0 SHL SUB NOT AND PUSH1 0x1 PUSH1 0x1 PUSH1 0xA0 SHL SUB DUP8 AND SWAP1 DUP2 OR SWAP1 SWAP2 SSTORE PUSH1 0x0 SWAP1 DUP2 MSTORE PUSH1 0x10 PUSH1 0x20 MSTORE PUSH1 0x40 DUP2 KECCAK256 SSTORE PUSH2 0x22DD SWAP1 DUP6 PUSH2 0x2A65 JUMP JUMPDEST PUSH2 0x232D JUMPI PUSH1 0xE DUP1 SLOAD PUSH1 0x1 DUP2 ADD DUP3 SSTORE PUSH1 0x0 SWAP2 SWAP1 SWAP2 MSTORE PUSH32 0xBB7B4A454DC3493923482F07822329ED19E8244EFF582CC204F8554C3620C3FD ADD DUP1 SLOAD PUSH1 0x1 PUSH1 0x1 PUSH1 0xA0 SHL SUB NOT AND PUSH1 0x1 PUSH1 0x1 PUSH1 0xA0 SHL SUB DUP7 AND OR SWAP1 SSTORE JUMPDEST POP PUSH1 0x1 PUSH1 0x1 PUSH1 0xA0 SHL SUB DUP4 AND PUSH1 0x0 SWAP1 DUP2 MSTORE PUSH1 0xF PUSH1 0x20 MSTORE PUSH1 0x40 SWAP1 KECCAK256 DUP1 SLOAD PUSH1 0xFF DUP2 AND ISZERO PUSH1 0xFF NOT SWAP1 SWAP2 AND DUP2 OR SWAP1 SWAP2 SSTORE PUSH2 0x270B JUMP JUMPDEST PUSH1 0x5 DUP6 PUSH1 0x9 DUP2 GT ISZERO PUSH2 0x2371 JUMPI PUSH2 0x2371 PUSH2 0x3072 JUMP JUMPDEST EQ ISZERO PUSH2 0x244F JUMPI PUSH2 0x2384 PUSH1 0xD PUSH1 0xC DUP7 PUSH2 0x2985 JUMP JUMPDEST ISZERO PUSH2 0x23FD JUMPI PUSH1 0x1 PUSH1 0x1 PUSH1 0xA0 SHL SUB DUP5 AND PUSH1 0x0 SWAP1 DUP2 MSTORE PUSH1 0xD PUSH1 0x20 MSTORE PUSH1 0x40 DUP2 KECCAK256 SSTORE PUSH2 0x23AD PUSH1 0xB DUP6 PUSH2 0x2A65 JUMP JUMPDEST PUSH2 0x23FD JUMPI PUSH1 0xB DUP1 SLOAD PUSH1 0x1 DUP2 ADD DUP3 SSTORE PUSH1 0x0 SWAP2 SWAP1 SWAP2 MSTORE PUSH32 0x175B7A638427703F0DBE7BB9BBF987A2551717B34E79F33B5B1008D1FA01DB9 ADD DUP1 SLOAD PUSH1 0x1 PUSH1 0x1 PUSH1 0xA0 SHL SUB NOT AND PUSH1 0x1 PUSH1 0x1 PUSH1 0xA0 SHL SUB DUP7 AND OR SWAP1 SSTORE JUMPDEST POP PUSH1 0x1 PUSH1 0x1 PUSH1 0xA0 SHL SUB DUP4 DUP2 AND PUSH1 0x0 SWAP1 DUP2 MSTORE PUSH1 0xC PUSH1 0x20 SWAP1 DUP2 MSTORE PUSH1 0x40 DUP1 DUP4 KECCAK256 DUP1 SLOAD PUSH1 0xFF DUP2 AND ISZERO PUSH1 0xFF NOT SWAP1 SWAP2 AND DUP2 OR SWAP1 SWAP2 SSTORE PUSH1 0x11 SWAP1 SWAP3 MSTORE SWAP1 SWAP2 KECCAK256 DUP1 SLOAD PUSH1 0x1 PUSH1 0x1 PUSH1 0xA0 SHL SUB NOT AND SWAP3 DUP6 AND SWAP3 SWAP1 SWAP3 OR SWAP1 SWAP2 SSTORE PUSH2 0x270B JUMP JUMPDEST PUSH1 0x6 DUP6 PUSH1 0x9 DUP2 GT ISZERO PUSH2 0x2463 JUMPI PUSH2 0x2463 PUSH2 0x3072 JUMP JUMPDEST EQ ISZERO PUSH2 0x251F JUMPI PUSH2 0x2476 PUSH1 0x17 PUSH1 0x16 DUP7 PUSH2 0x2985 JUMP JUMPDEST ISZERO PUSH2 0x24EF JUMPI PUSH1 0x1 PUSH1 0x1 PUSH1 0xA0 SHL SUB DUP5 AND PUSH1 0x0 SWAP1 DUP2 MSTORE PUSH1 0x17 PUSH1 0x20 MSTORE PUSH1 0x40 DUP2 KECCAK256 SSTORE PUSH2 0x249F PUSH1 0x15 DUP6 PUSH2 0x2A65 JUMP JUMPDEST PUSH2 0x24EF JUMPI PUSH1 0x15 DUP1 SLOAD PUSH1 0x1 DUP2 ADD DUP3 SSTORE PUSH1 0x0 SWAP2 SWAP1 SWAP2 MSTORE PUSH32 0x55F448FDEA98C4D29EB340757EF0A66CD03DBB9538908A6A81D96026B71EC475 ADD DUP1 SLOAD PUSH1 0x1 PUSH1 0x1 PUSH1 0xA0 SHL SUB NOT AND PUSH1 0x1 PUSH1 0x1 PUSH1 0xA0 SHL SUB DUP7 AND OR SWAP1 SSTORE JUMPDEST POP PUSH1 0x1 PUSH1 0x1 PUSH1 0xA0 SHL SUB DUP4 AND PUSH1 0x0 SWAP1 DUP2 MSTORE PUSH1 0x16 PUSH1 0x20 MSTORE PUSH1 0x40 SWAP1 KECCAK256 DUP1 SLOAD PUSH1 0xFF DUP2 AND ISZERO PUSH1 0xFF NOT SWAP1 SWAP2 AND DUP2 OR SWAP1 SWAP2 SSTORE PUSH2 0x270B JUMP JUMPDEST PUSH1 0x7 DUP6 PUSH1 0x9 DUP2 GT ISZERO PUSH2 0x2533 JUMPI PUSH2 0x2533 PUSH2 0x3072 JUMP JUMPDEST EQ ISZERO PUSH2 0x25EF JUMPI PUSH2 0x2546 PUSH1 0x1A PUSH1 0x19 DUP7 PUSH2 0x2985 JUMP JUMPDEST ISZERO PUSH2 0x25BF JUMPI PUSH1 0x1 PUSH1 0x1 PUSH1 0xA0 SHL SUB DUP5 AND PUSH1 0x0 SWAP1 DUP2 MSTORE PUSH1 0x1A PUSH1 0x20 MSTORE PUSH1 0x40 DUP2 KECCAK256 SSTORE PUSH2 0x256F PUSH1 0x18 DUP6 PUSH2 0x2A65 JUMP JUMPDEST PUSH2 0x25BF JUMPI PUSH1 0x18 DUP1 SLOAD PUSH1 0x1 DUP2 ADD DUP3 SSTORE PUSH1 0x0 SWAP2 SWAP1 SWAP2 MSTORE PUSH32 0xB13D2D76D1F4B7BE834882E410B3E3A8AFAF69F83600AE24DB354391D2378D2E ADD DUP1 SLOAD PUSH1 0x1 PUSH1 0x1 PUSH1 0xA0 SHL SUB NOT AND PUSH1 0x1 PUSH1 0x1 PUSH1 0xA0 SHL SUB DUP7 AND OR SWAP1 SSTORE JUMPDEST POP PUSH1 0x1 PUSH1 0x1 PUSH1 0xA0 SHL SUB DUP4 AND PUSH1 0x0 SWAP1 DUP2 MSTORE PUSH1 0x19 PUSH1 0x20 MSTORE PUSH1 0x40 SWAP1 KECCAK256 DUP1 SLOAD PUSH1 0xFF DUP2 AND ISZERO PUSH1 0xFF NOT SWAP1 SWAP2 AND DUP2 OR SWAP1 SWAP2 SSTORE PUSH2 0x270B JUMP JUMPDEST PUSH1 0x8 DUP6 PUSH1 0x9 DUP2 GT ISZERO PUSH2 0x2603 JUMPI PUSH2 0x2603 PUSH2 0x3072 JUMP JUMPDEST EQ ISZERO PUSH2 0x26BF JUMPI PUSH2 0x2616 PUSH1 0x1E PUSH1 0x1D DUP7 PUSH2 0x2985 JUMP JUMPDEST ISZERO PUSH2 0x268F JUMPI PUSH1 0x1 PUSH1 0x1 PUSH1 0xA0 SHL SUB DUP5 AND PUSH1 0x0 SWAP1 DUP2 MSTORE PUSH1 0x1E PUSH1 0x20 MSTORE PUSH1 0x40 DUP2 KECCAK256 SSTORE PUSH2 0x263F PUSH1 0x1C DUP6 PUSH2 0x2A65 JUMP JUMPDEST PUSH2 0x268F JUMPI PUSH1 0x1C DUP1 SLOAD PUSH1 0x1 DUP2 ADD DUP3 SSTORE PUSH1 0x0 SWAP2 SWAP1 SWAP2 MSTORE PUSH32 0xE4562A10381DEC21B205ED72637E6B1B523BDD0E4D4D50AF5CD23DD4500A211 ADD DUP1 SLOAD PUSH1 0x1 PUSH1 0x1 PUSH1 0xA0 SHL SUB NOT AND PUSH1 0x1 PUSH1 0x1 PUSH1 0xA0 SHL SUB DUP7 AND OR SWAP1 SSTORE JUMPDEST POP PUSH1 0x1 PUSH1 0x1 PUSH1 0xA0 SHL SUB DUP4 AND PUSH1 0x0 SWAP1 DUP2 MSTORE PUSH1 0x1D PUSH1 0x20 MSTORE PUSH1 0x40 SWAP1 KECCAK256 DUP1 SLOAD PUSH1 0xFF DUP2 AND ISZERO PUSH1 0xFF NOT SWAP1 SWAP2 AND DUP2 OR SWAP1 SWAP2 SSTORE PUSH2 0x270B JUMP JUMPDEST PUSH1 0x9 DUP6 PUSH1 0x9 DUP2 GT ISZERO PUSH2 0x26D3 JUMPI PUSH2 0x26D3 PUSH2 0x3072 JUMP JUMPDEST EQ ISZERO PUSH2 0x2701 JUMPI POP PUSH1 0x0 PUSH1 0x20 SSTORE PUSH1 0x1F DUP1 SLOAD PUSH1 0x1 PUSH1 0x1 PUSH1 0xA0 SHL SUB NOT AND PUSH1 0x1 PUSH1 0x1 PUSH1 0xA0 SHL SUB DUP6 AND OR SWAP1 SSTORE PUSH1 0x1 PUSH2 0x270B JUMP JUMPDEST PUSH1 0x0 SWAP2 POP POP PUSH2 0x2766 JUMP JUMPDEST DUP5 PUSH1 0x9 DUP2 GT ISZERO PUSH2 0x271D JUMPI PUSH2 0x271D PUSH2 0x3072 JUMP JUMPDEST PUSH1 0x40 DUP1 MLOAD PUSH1 0x1 PUSH1 0x1 PUSH1 0xA0 SHL SUB DUP8 AND DUP2 MSTORE DUP4 ISZERO ISZERO PUSH1 0x20 DUP3 ADD MSTORE PUSH32 0xDCACB7E392F3D6A216ED2660E3DCFD40B7793D33591DB2BA185A6B8E44FC477 SWAP2 ADD PUSH1 0x40 MLOAD DUP1 SWAP2 SUB SWAP1 LOG2 PUSH1 0x1 SWAP2 POP POP JUMPDEST SWAP4 SWAP3 POP POP POP JUMP JUMPDEST PUSH1 0xB DUP2 DUP2 SLOAD DUP2 LT PUSH2 0x99B JUMPI PUSH1 0x0 DUP1 REVERT JUMPDEST PUSH1 0x0 PUSH2 0x18E8 DUP4 DUP4 PUSH1 0x40 MLOAD DUP1 PUSH1 0x40 ADD PUSH1 0x40 MSTORE DUP1 PUSH1 0x1E DUP2 MSTORE PUSH1 0x20 ADD PUSH32 0x536166654D6174683A207375627472616374696F6E206F766572666C6F770000 DUP2 MSTORE POP PUSH2 0x2AC5 JUMP JUMPDEST PUSH1 0x40 MLOAD PUSH1 0x1 PUSH1 0x1 PUSH1 0xA0 SHL SUB DUP4 AND PUSH1 0x24 DUP3 ADD MSTORE PUSH1 0x44 DUP2 ADD DUP3 SWAP1 MSTORE PUSH2 0x2822 SWAP1 DUP5 SWAP1 PUSH4 0xA9059CBB PUSH1 0xE0 SHL SWAP1 PUSH1 0x64 ADD JUMPDEST PUSH1 0x40 DUP1 MLOAD PUSH1 0x1F NOT DUP2 DUP5 SUB ADD DUP2 MSTORE SWAP2 SWAP1 MSTORE PUSH1 0x20 DUP2 ADD DUP1 MLOAD PUSH1 0x1 PUSH1 0x1 PUSH1 0xE0 SHL SUB AND PUSH1 0x1 PUSH1 0x1 PUSH1 0xE0 SHL SUB NOT SWAP1 SWAP4 AND SWAP3 SWAP1 SWAP3 OR SWAP1 SWAP2 MSTORE PUSH2 0x2AFF JUMP JUMPDEST POP POP POP JUMP JUMPDEST PUSH1 0x0 DUP1 PUSH2 0x2834 DUP4 DUP6 PUSH2 0x3088 JUMP JUMPDEST SWAP1 POP DUP4 DUP2 LT ISZERO PUSH2 0x18E8 JUMPI PUSH1 0x40 MLOAD PUSH3 0x461BCD PUSH1 0xE5 SHL DUP2 MSTORE PUSH1 0x20 PUSH1 0x4 DUP3 ADD MSTORE PUSH1 0x1B PUSH1 0x24 DUP3 ADD MSTORE PUSH32 0x536166654D6174683A206164646974696F6E206F766572666C6F770000000000 PUSH1 0x44 DUP3 ADD MSTORE PUSH1 0x64 ADD PUSH2 0x837 JUMP JUMPDEST PUSH1 0x40 MLOAD PUSH1 0x1 PUSH1 0x1 PUSH1 0xA0 SHL SUB DUP1 DUP6 AND PUSH1 0x24 DUP4 ADD MSTORE DUP4 AND PUSH1 0x44 DUP3 ADD MSTORE PUSH1 0x64 DUP2 ADD DUP3 SWAP1 MSTORE PUSH2 0x28BE SWAP1 DUP6 SWAP1 PUSH4 0x23B872DD PUSH1 0xE0 SHL SWAP1 PUSH1 0x84 ADD PUSH2 0x27EB JUMP JUMPDEST POP POP POP POP JUMP JUMPDEST PUSH1 0x0 DUP3 PUSH2 0x28D3 JUMPI POP PUSH1 0x0 PUSH2 0x18EB JUMP JUMPDEST PUSH1 0x0 PUSH2 0x28DF DUP4 DUP6 PUSH2 0x30A0 JUMP JUMPDEST SWAP1 POP DUP3 PUSH2 0x28EC DUP6 DUP4 PUSH2 0x30BF JUMP JUMPDEST EQ PUSH2 0x18E8 JUMPI PUSH1 0x40 MLOAD PUSH3 0x461BCD PUSH1 0xE5 SHL DUP2 MSTORE PUSH1 0x20 PUSH1 0x4 DUP3 ADD MSTORE PUSH1 0x21 PUSH1 0x24 DUP3 ADD MSTORE PUSH32 0x536166654D6174683A206D756C7469706C69636174696F6E206F766572666C6F PUSH1 0x44 DUP3 ADD MSTORE PUSH1 0x77 PUSH1 0xF8 SHL PUSH1 0x64 DUP3 ADD MSTORE PUSH1 0x84 ADD PUSH2 0x837 JUMP JUMPDEST PUSH1 0x0 PUSH2 0x18E8 DUP4 DUP4 PUSH1 0x40 MLOAD DUP1 PUSH1 0x40 ADD PUSH1 0x40 MSTORE DUP1 PUSH1 0x1A DUP2 MSTORE PUSH1 0x20 ADD PUSH32 0x536166654D6174683A206469766973696F6E206279207A65726F000000000000 DUP2 MSTORE POP PUSH2 0x2BD1 JUMP JUMPDEST PUSH1 0x1 PUSH1 0x1 PUSH1 0xA0 SHL SUB DUP2 AND PUSH1 0x0 SWAP1 DUP2 MSTORE PUSH1 0x20 DUP4 SWAP1 MSTORE PUSH1 0x40 DUP2 KECCAK256 SLOAD PUSH1 0xFF AND PUSH2 0x2A5B JUMPI PUSH1 0x1 PUSH1 0x1 PUSH1 0xA0 SHL SUB DUP3 AND PUSH1 0x0 SWAP1 DUP2 MSTORE PUSH1 0x20 DUP6 SWAP1 MSTORE PUSH1 0x40 SWAP1 KECCAK256 SLOAD PUSH2 0x29F7 JUMPI PUSH1 0x40 MLOAD PUSH3 0x461BCD PUSH1 0xE5 SHL DUP2 MSTORE PUSH1 0x20 PUSH1 0x4 DUP3 ADD MSTORE PUSH1 0xA PUSH1 0x24 DUP3 ADD MSTORE PUSH10 0x4D757374207175657565 PUSH1 0xB0 SHL PUSH1 0x44 DUP3 ADD MSTORE PUSH1 0x64 ADD PUSH2 0x837 JUMP JUMPDEST PUSH1 0x1 PUSH1 0x1 PUSH1 0xA0 SHL SUB DUP3 AND PUSH1 0x0 SWAP1 DUP2 MSTORE PUSH1 0x20 DUP6 SWAP1 MSTORE PUSH1 0x40 SWAP1 KECCAK256 SLOAD NUMBER LT ISZERO PUSH2 0x2A53 JUMPI PUSH1 0x40 MLOAD PUSH3 0x461BCD PUSH1 0xE5 SHL DUP2 MSTORE PUSH1 0x20 PUSH1 0x4 DUP3 ADD MSTORE PUSH1 0x11 PUSH1 0x24 DUP3 ADD MSTORE PUSH17 0x145D595D59481B9BDD08195E1C1A5C9959 PUSH1 0x7A SHL PUSH1 0x44 DUP3 ADD MSTORE PUSH1 0x64 ADD PUSH2 0x837 JUMP JUMPDEST POP PUSH1 0x1 PUSH2 0x2766 JUMP JUMPDEST POP PUSH1 0x0 SWAP4 SWAP3 POP POP POP JUMP JUMPDEST PUSH1 0x0 DUP1 JUMPDEST DUP4 SLOAD DUP2 LT ISZERO PUSH2 0x2A5B JUMPI DUP3 PUSH1 0x1 PUSH1 0x1 PUSH1 0xA0 SHL SUB AND DUP5 DUP3 DUP2 SLOAD DUP2 LT PUSH2 0x2A8E JUMPI PUSH2 0x2A8E PUSH2 0x2F15 JUMP JUMPDEST PUSH1 0x0 SWAP2 DUP3 MSTORE PUSH1 0x20 SWAP1 SWAP2 KECCAK256 ADD SLOAD PUSH1 0x1 PUSH1 0x1 PUSH1 0xA0 SHL SUB AND EQ ISZERO PUSH2 0x2AB3 JUMPI PUSH1 0x1 SWAP2 POP POP PUSH2 0x18EB JUMP JUMPDEST DUP1 PUSH2 0x2ABD DUP2 PUSH2 0x2F41 JUMP JUMPDEST SWAP2 POP POP PUSH2 0x2A69 JUMP JUMPDEST PUSH1 0x0 DUP2 DUP5 DUP5 GT ISZERO PUSH2 0x2AE9 JUMPI PUSH1 0x40 MLOAD PUSH3 0x461BCD PUSH1 0xE5 SHL DUP2 MSTORE PUSH1 0x4 ADD PUSH2 0x837 SWAP2 SWAP1 PUSH2 0x310D JUMP JUMPDEST POP PUSH1 0x0 PUSH2 0x2AF6 DUP5 DUP7 PUSH2 0x3140 JUMP JUMPDEST SWAP6 SWAP5 POP POP POP POP POP JUMP JUMPDEST PUSH1 0x0 PUSH2 0x2B54 DUP3 PUSH1 0x40 MLOAD DUP1 PUSH1 0x40 ADD PUSH1 0x40 MSTORE DUP1 PUSH1 0x20 DUP2 MSTORE PUSH1 0x20 ADD PUSH32 0x5361666545524332303A206C6F772D6C6576656C2063616C6C206661696C6564 DUP2 MSTORE POP DUP6 PUSH1 0x1 PUSH1 0x1 PUSH1 0xA0 SHL SUB AND PUSH2 0x2BFF SWAP1 SWAP3 SWAP2 SWAP1 PUSH4 0xFFFFFFFF AND JUMP JUMPDEST DUP1 MLOAD SWAP1 SWAP2 POP ISZERO PUSH2 0x2822 JUMPI DUP1 DUP1 PUSH1 0x20 ADD SWAP1 MLOAD DUP2 ADD SWAP1 PUSH2 0x2B72 SWAP2 SWAP1 PUSH2 0x2EF3 JUMP JUMPDEST PUSH2 0x2822 JUMPI PUSH1 0x40 MLOAD PUSH3 0x461BCD PUSH1 0xE5 SHL DUP2 MSTORE PUSH1 0x20 PUSH1 0x4 DUP3 ADD MSTORE PUSH1 0x2A PUSH1 0x24 DUP3 ADD MSTORE PUSH32 0x5361666545524332303A204552433230206F7065726174696F6E20646964206E PUSH1 0x44 DUP3 ADD MSTORE PUSH10 0x1BDD081CDD58D8D95959 PUSH1 0xB2 SHL PUSH1 0x64 DUP3 ADD MSTORE PUSH1 0x84 ADD PUSH2 0x837 JUMP JUMPDEST PUSH1 0x0 DUP2 DUP4 PUSH2 0x2BF2 JUMPI PUSH1 0x40 MLOAD PUSH3 0x461BCD PUSH1 0xE5 SHL DUP2 MSTORE PUSH1 0x4 ADD PUSH2 0x837 SWAP2 SWAP1 PUSH2 0x310D JUMP JUMPDEST POP PUSH1 0x0 PUSH2 0x2AF6 DUP5 DUP7 PUSH2 0x30BF JUMP JUMPDEST PUSH1 0x60 PUSH2 0x2C0E DUP5 DUP5 PUSH1 0x0 DUP6 PUSH2 0x2C16 JUMP JUMPDEST SWAP5 SWAP4 POP POP POP POP JUMP JUMPDEST PUSH1 0x60 DUP5 EXTCODESIZE PUSH2 0x2C66 JUMPI PUSH1 0x40 MLOAD PUSH3 0x461BCD PUSH1 0xE5 SHL DUP2 MSTORE PUSH1 0x20 PUSH1 0x4 DUP3 ADD MSTORE PUSH1 0x1D PUSH1 0x24 DUP3 ADD MSTORE PUSH32 0x416464726573733A2063616C6C20746F206E6F6E2D636F6E7472616374000000 PUSH1 0x44 DUP3 ADD MSTORE PUSH1 0x64 ADD PUSH2 0x837 JUMP JUMPDEST PUSH1 0x0 DUP1 DUP7 PUSH1 0x1 PUSH1 0x1 PUSH1 0xA0 SHL SUB AND DUP6 DUP8 PUSH1 0x40 MLOAD PUSH2 0x2C82 SWAP2 SWAP1 PUSH2 0x3157 JUMP JUMPDEST PUSH1 0x0 PUSH1 0x40 MLOAD DUP1 DUP4 SUB DUP2 DUP6 DUP8 GAS CALL SWAP3 POP POP POP RETURNDATASIZE DUP1 PUSH1 0x0 DUP2 EQ PUSH2 0x2CBF JUMPI PUSH1 0x40 MLOAD SWAP2 POP PUSH1 0x1F NOT PUSH1 0x3F RETURNDATASIZE ADD AND DUP3 ADD PUSH1 0x40 MSTORE RETURNDATASIZE DUP3 MSTORE RETURNDATASIZE PUSH1 0x0 PUSH1 0x20 DUP5 ADD RETURNDATACOPY PUSH2 0x2CC4 JUMP JUMPDEST PUSH1 0x60 SWAP2 POP JUMPDEST POP SWAP2 POP SWAP2 POP DUP2 ISZERO PUSH2 0x2CD8 JUMPI SWAP2 POP PUSH2 0x2C0E SWAP1 POP JUMP JUMPDEST DUP1 MLOAD ISZERO PUSH2 0x2CE8 JUMPI DUP1 MLOAD DUP1 DUP3 PUSH1 0x20 ADD REVERT JUMPDEST DUP4 PUSH1 0x40 MLOAD PUSH3 0x461BCD PUSH1 0xE5 SHL DUP2 MSTORE PUSH1 0x4 ADD PUSH2 0x837 SWAP2 SWAP1 PUSH2 0x310D JUMP JUMPDEST DUP1 CALLDATALOAD PUSH1 0x1 PUSH1 0x1 PUSH1 0xA0 SHL SUB DUP2 AND DUP2 EQ PUSH2 0x2D19 JUMPI PUSH1 0x0 DUP1 REVERT JUMPDEST SWAP2 SWAP1 POP JUMP JUMPDEST PUSH1 0x0 DUP1 PUSH1 0x40 DUP4 DUP6 SUB SLT ISZERO PUSH2 0x2D31 JUMPI PUSH1 0x0 DUP1 REVERT JUMPDEST DUP3 CALLDATALOAD SWAP2 POP PUSH2 0x2D41 PUSH1 0x20 DUP5 ADD PUSH2 0x2D02 JUMP JUMPDEST SWAP1 POP SWAP3 POP SWAP3 SWAP1 POP JUMP JUMPDEST PUSH1 0x0 PUSH1 0x20 DUP3 DUP5 SUB SLT ISZERO PUSH2 0x2D5C JUMPI PUSH1 0x0 DUP1 REVERT JUMPDEST POP CALLDATALOAD SWAP2 SWAP1 POP JUMP JUMPDEST PUSH1 0x0 PUSH1 0x20 DUP3 DUP5 SUB SLT ISZERO PUSH2 0x2D75 JUMPI PUSH1 0x0 DUP1 REVERT JUMPDEST PUSH2 0x18E8 DUP3 PUSH2 0x2D02 JUMP JUMPDEST PUSH1 0x0 DUP1 PUSH1 0x40 DUP4 DUP6 SUB SLT ISZERO PUSH2 0x2D91 JUMPI PUSH1 0x0 DUP1 REVERT JUMPDEST PUSH2 0x2D9A DUP4 PUSH2 0x2D02 JUMP JUMPDEST SWAP5 PUSH1 0x20 SWAP4 SWAP1 SWAP4 ADD CALLDATALOAD SWAP4 POP POP POP JUMP JUMPDEST PUSH1 0x0 DUP1 PUSH1 0x0 PUSH1 0x60 DUP5 DUP7 SUB SLT ISZERO PUSH2 0x2DBD JUMPI PUSH1 0x0 DUP1 REVERT JUMPDEST DUP4 CALLDATALOAD SWAP3 POP PUSH2 0x2DCD PUSH1 0x20 DUP6 ADD PUSH2 0x2D02 JUMP JUMPDEST SWAP2 POP PUSH1 0x40 DUP5 ADD CALLDATALOAD SWAP1 POP SWAP3 POP SWAP3 POP SWAP3 JUMP JUMPDEST DUP1 CALLDATALOAD PUSH1 0xA DUP2 LT PUSH2 0x2D19 JUMPI PUSH1 0x0 DUP1 REVERT JUMPDEST PUSH1 0x0 DUP1 PUSH1 0x40 DUP4 DUP6 SUB SLT ISZERO PUSH2 0x2DFF JUMPI PUSH1 0x0 DUP1 REVERT JUMPDEST PUSH2 0x2E08 DUP4 PUSH2 0x2DDD JUMP JUMPDEST SWAP2 POP PUSH2 0x2D41 PUSH1 0x20 DUP5 ADD PUSH2 0x2D02 JUMP JUMPDEST PUSH1 0x0 DUP1 PUSH1 0x0 PUSH1 0x60 DUP5 DUP7 SUB SLT ISZERO PUSH2 0x2E2B JUMPI PUSH1 0x0 DUP1 REVERT JUMPDEST PUSH2 0x2E34 DUP5 PUSH2 0x2DDD JUMP JUMPDEST SWAP3 POP PUSH2 0x2E42 PUSH1 0x20 DUP6 ADD PUSH2 0x2D02 JUMP JUMPDEST SWAP2 POP PUSH2 0x2E50 PUSH1 0x40 DUP6 ADD PUSH2 0x2D02 JUMP JUMPDEST SWAP1 POP SWAP3 POP SWAP3 POP SWAP3 JUMP JUMPDEST PUSH1 0x20 DUP1 DUP3 MSTORE PUSH1 0xC SWAP1 DUP3 ADD MSTORE PUSH12 0x139BDD081858D8D95C1D1959 PUSH1 0xA2 SHL PUSH1 0x40 DUP3 ADD MSTORE PUSH1 0x60 ADD SWAP1 JUMP JUMPDEST PUSH1 0x20 DUP1 DUP3 MSTORE PUSH1 0xC SWAP1 DUP3 ADD MSTORE PUSH12 0x139BDD08185C1C1C9BDD9959 PUSH1 0xA2 SHL PUSH1 0x40 DUP3 ADD MSTORE PUSH1 0x60 ADD SWAP1 JUMP JUMPDEST PUSH1 0x20 DUP1 DUP3 MSTORE DUP2 DUP2 ADD MSTORE PUSH32 0x4F776E61626C653A2063616C6C6572206973206E6F7420746865206F776E6572 PUSH1 0x40 DUP3 ADD MSTORE PUSH1 0x60 ADD SWAP1 JUMP JUMPDEST PUSH1 0x0 PUSH1 0x20 DUP3 DUP5 SUB SLT ISZERO PUSH2 0x2EEC JUMPI PUSH1 0x0 DUP1 REVERT JUMPDEST POP MLOAD SWAP2 SWAP1 POP JUMP JUMPDEST PUSH1 0x0 PUSH1 0x20 DUP3 DUP5 SUB SLT ISZERO PUSH2 0x2F05 JUMPI PUSH1 0x0 DUP1 REVERT JUMPDEST DUP2 MLOAD DUP1 ISZERO ISZERO DUP2 EQ PUSH2 0x18E8 JUMPI PUSH1 0x0 DUP1 REVERT JUMPDEST PUSH4 0x4E487B71 PUSH1 0xE0 SHL PUSH1 0x0 MSTORE PUSH1 0x32 PUSH1 0x4 MSTORE PUSH1 0x24 PUSH1 0x0 REVERT JUMPDEST PUSH4 0x4E487B71 PUSH1 0xE0 SHL PUSH1 0x0 MSTORE PUSH1 0x11 PUSH1 0x4 MSTORE PUSH1 0x24 PUSH1 0x0 REVERT JUMPDEST PUSH1 0x0 PUSH1 0x0 NOT DUP3 EQ ISZERO PUSH2 0x2F55 JUMPI PUSH2 0x2F55 PUSH2 0x2F2B JUMP JUMPDEST POP PUSH1 0x1 ADD SWAP1 JUMP JUMPDEST PUSH1 0x0 PUSH1 0x20 DUP3 DUP5 SUB SLT ISZERO PUSH2 0x2F6E JUMPI PUSH1 0x0 DUP1 REVERT JUMPDEST DUP2 MLOAD PUSH1 0xFF DUP2 AND DUP2 EQ PUSH2 0x18E8 JUMPI PUSH1 0x0 DUP1 REVERT JUMPDEST PUSH1 0x1 DUP2 DUP2 JUMPDEST DUP1 DUP6 GT ISZERO PUSH2 0x2FBA JUMPI DUP2 PUSH1 0x0 NOT DIV DUP3 GT ISZERO PUSH2 0x2FA0 JUMPI PUSH2 0x2FA0 PUSH2 0x2F2B JUMP JUMPDEST DUP1 DUP6 AND ISZERO PUSH2 0x2FAD JUMPI SWAP2 DUP2 MUL SWAP2 JUMPDEST SWAP4 DUP5 SHR SWAP4 SWAP1 DUP1 MUL SWAP1 PUSH2 0x2F84 JUMP JUMPDEST POP SWAP3 POP SWAP3 SWAP1 POP JUMP JUMPDEST PUSH1 0x0 DUP3 PUSH2 0x2FD1 JUMPI POP PUSH1 0x1 PUSH2 0x18EB JUMP JUMPDEST DUP2 PUSH2 0x2FDE JUMPI POP PUSH1 0x0 PUSH2 0x18EB JUMP JUMPDEST DUP2 PUSH1 0x1 DUP2 EQ PUSH2 0x2FF4 JUMPI PUSH1 0x2 DUP2 EQ PUSH2 0x2FFE JUMPI PUSH2 0x301A JUMP JUMPDEST PUSH1 0x1 SWAP2 POP POP PUSH2 0x18EB JUMP JUMPDEST PUSH1 0xFF DUP5 GT ISZERO PUSH2 0x300F JUMPI PUSH2 0x300F PUSH2 0x2F2B JUMP JUMPDEST POP POP PUSH1 0x1 DUP3 SHL PUSH2 0x18EB JUMP JUMPDEST POP PUSH1 0x20 DUP4 LT PUSH2 0x133 DUP4 LT AND PUSH1 0x4E DUP5 LT PUSH1 0xB DUP5 LT AND OR ISZERO PUSH2 0x303D JUMPI POP DUP2 DUP2 EXP PUSH2 0x18EB JUMP JUMPDEST PUSH2 0x3047 DUP4 DUP4 PUSH2 0x2F7F JUMP JUMPDEST DUP1 PUSH1 0x0 NOT DIV DUP3 GT ISZERO PUSH2 0x305B JUMPI PUSH2 0x305B PUSH2 0x2F2B JUMP JUMPDEST MUL SWAP4 SWAP3 POP POP POP JUMP JUMPDEST PUSH1 0x0 PUSH2 0x18E8 PUSH1 0xFF DUP5 AND DUP4 PUSH2 0x2FC2 JUMP JUMPDEST PUSH4 0x4E487B71 PUSH1 0xE0 SHL PUSH1 0x0 MSTORE PUSH1 0x21 PUSH1 0x4 MSTORE PUSH1 0x24 PUSH1 0x0 REVERT JUMPDEST PUSH1 0x0 DUP3 NOT DUP3 GT ISZERO PUSH2 0x309B JUMPI PUSH2 0x309B PUSH2 0x2F2B JUMP JUMPDEST POP ADD SWAP1 JUMP JUMPDEST PUSH1 0x0 DUP2 PUSH1 0x0 NOT DIV DUP4 GT DUP3 ISZERO ISZERO AND ISZERO PUSH2 0x30BA JUMPI PUSH2 0x30BA PUSH2 0x2F2B JUMP JUMPDEST POP MUL SWAP1 JUMP JUMPDEST PUSH1 0x0 DUP3 PUSH2 0x30DC JUMPI PUSH4 0x4E487B71 PUSH1 0xE0 SHL PUSH1 0x0 MSTORE PUSH1 0x12 PUSH1 0x4 MSTORE PUSH1 0x24 PUSH1 0x0 REVERT JUMPDEST POP DIV SWAP1 JUMP JUMPDEST PUSH1 0x0 JUMPDEST DUP4 DUP2 LT ISZERO PUSH2 0x30FC JUMPI DUP2 DUP2 ADD MLOAD DUP4 DUP3 ADD MSTORE PUSH1 0x20 ADD PUSH2 0x30E4 JUMP JUMPDEST DUP4 DUP2 GT ISZERO PUSH2 0x28BE JUMPI POP POP PUSH1 0x0 SWAP2 ADD MSTORE JUMP JUMPDEST PUSH1 0x20 DUP2 MSTORE PUSH1 0x0 DUP3 MLOAD DUP1 PUSH1 0x20 DUP5 ADD MSTORE PUSH2 0x312C DUP2 PUSH1 0x40 DUP6 ADD PUSH1 0x20 DUP8 ADD PUSH2 0x30E1 JUMP JUMPDEST PUSH1 0x1F ADD PUSH1 0x1F NOT AND SWAP2 SWAP1 SWAP2 ADD PUSH1 0x40 ADD SWAP3 SWAP2 POP POP JUMP JUMPDEST PUSH1 0x0 DUP3 DUP3 LT ISZERO PUSH2 0x3152 JUMPI PUSH2 0x3152 PUSH2 0x2F2B JUMP JUMPDEST POP SUB SWAP1 JUMP JUMPDEST PUSH1 0x0 DUP3 MLOAD PUSH2 0x3169 DUP2 DUP5 PUSH1 0x20 DUP8 ADD PUSH2 0x30E1 JUMP JUMPDEST SWAP2 SWAP1 SWAP2 ADD SWAP3 SWAP2 POP POP JUMP INVALID SWAP4 0xBB DUP15 0xDD CALLDATALOAD SWAP9 SELFBALANCE MOD 0xEE 0xE1 0xB9 0x25 COINBASE 0x28 0x1F PUSH32 0x62D33C01C5B2EC0929A113603BD21D66A2646970667358221220573B48EAC618 DUP5 0xA9 CREATE 0x49 0x27 INVALID PUSH29 0x713AD6AC7427EE097F20FE3395B65C2570C2B264736F6C634300080A00 CALLER "
        },
        "gasEstimates": {
          "creation": {
            "codeDepositCost": "2549000",
            "executionCost": "infinite",
            "totalCost": "infinite"
          },
          "external": {
            "LiquidityDepositorQueue(address)": "2655",
            "LiquidityManagerQueue(address)": "2613",
            "LiquidityTokenQueue(address)": "2569",
            "OHM()": "infinite",
            "ReserveManagerQueue(address)": "2635",
            "auditReserves()": "infinite",
            "blocksNeededForQueue()": "infinite",
            "bondCalculator(address)": "2685",
            "debtorBalance(address)": "2636",
            "debtorQueue(address)": "2656",
            "debtors(uint256)": "4714",
            "deposit(uint256,address,uint256)": "infinite",
            "excessReserves()": "infinite",
            "incurDebt(uint256,address)": "infinite",
            "isDebtor(address)": "2624",
            "isLiquidityDepositor(address)": "2669",
            "isLiquidityManager(address)": "2668",
            "isLiquidityToken(address)": "2691",
            "isReserveDepositor(address)": "2603",
            "isReserveManager(address)": "2602",
            "isReserveSpender(address)": "2668",
            "isReserveToken(address)": "2603",
            "isRewardManager(address)": "2669",
            "liquidityDepositors(uint256)": "4671",
            "liquidityManagers(uint256)": "4670",
            "liquidityTokens(uint256)": "4713",
            "manage(address,uint256)": "infinite",
            "manager()": "2432",
            "mintRewards(address,uint256)": "infinite",
            "pullManagement()": "34569",
            "pushManagement(address)": "30494",
            "queue(uint8,address)": "infinite",
            "renounceManagement()": "30256",
            "repayDebtWithOHM(uint256)": "infinite",
            "repayDebtWithReserve(uint256,address)": "infinite",
            "reserveDepositorQueue(address)": "2635",
            "reserveDepositors(uint256)": "4715",
            "reserveManagers(uint256)": "4672",
            "reserveSpenderQueue(address)": "2634",
            "reserveSpenders(uint256)": "4671",
            "reserveTokenQueue(address)": "2612",
            "reserveTokens(uint256)": "4648",
            "rewardManagerQueue(address)": "2634",
            "rewardManagers(uint256)": "4670",
            "sOHM()": "2438",
            "sOHMQueue()": "2451",
            "toggle(uint8,address,address)": "infinite",
            "totalDebt()": "2383",
            "totalReserves()": "2385",
            "valueOfToken(address,uint256)": "infinite",
            "withdraw(uint256,address)": "infinite"
          },
          "internal": {
            "listContains(address[] storage pointer,address)": "infinite",
            "requirements(mapping(address => uint256),mapping(address => bool),address)": "infinite"
          }
        },
        "methodIdentifiers": {
          "LiquidityDepositorQueue(address)": "fff9ee87",
          "LiquidityManagerQueue(address)": "ab319c9a",
          "LiquidityTokenQueue(address)": "8f59c727",
          "OHM()": "a6c41fec",
          "ReserveManagerQueue(address)": "b1bd38b0",
          "auditReserves()": "2b7ce500",
          "blocksNeededForQueue()": "d07f390f",
          "bondCalculator(address)": "1af4da70",
          "debtorBalance(address)": "094a8651",
          "debtorQueue(address)": "cd85641a",
          "debtors(uint256)": "869871bf",
          "deposit(uint256,address,uint256)": "bc157ac1",
          "excessReserves()": "0c3513a8",
          "incurDebt(uint256,address)": "12422d23",
          "isDebtor(address)": "ee4e19a1",
          "isLiquidityDepositor(address)": "a1210a2d",
          "isLiquidityManager(address)": "df89b344",
          "isLiquidityToken(address)": "a569e571",
          "isReserveDepositor(address)": "124154ca",
          "isReserveManager(address)": "ebd83cd8",
          "isReserveSpender(address)": "87d67dff",
          "isReserveToken(address)": "68c31dd5",
          "isRewardManager(address)": "4e83423c",
          "liquidityDepositors(uint256)": "8f6a7b57",
          "liquidityManagers(uint256)": "70a0502a",
          "liquidityTokens(uint256)": "fd1ec010",
          "manage(address,uint256)": "0b0eee30",
          "manager()": "481c6a75",
          "mintRewards(address,uint256)": "6a20de92",
          "pullManagement()": "5a96ac0a",
          "pushManagement(address)": "46f68ee9",
          "queue(uint8,address)": "e83afee3",
          "renounceManagement()": "089208d8",
          "repayDebtWithOHM(uint256)": "0f70431f",
          "repayDebtWithReserve(uint256,address)": "d796ffb8",
          "reserveDepositorQueue(address)": "932cc8c3",
          "reserveDepositors(uint256)": "6b5e40a7",
          "reserveManagers(uint256)": "0619aff1",
          "reserveSpenderQueue(address)": "c24ad43e",
          "reserveSpenders(uint256)": "437f7912",
          "reserveTokenQueue(address)": "788c6c01",
          "reserveTokens(uint256)": "d031370b",
          "rewardManagerQueue(address)": "fb939588",
          "rewardManagers(uint256)": "b5b1d560",
          "sOHM()": "15079925",
          "sOHMQueue()": "2789de37",
          "toggle(uint8,address,address)": "fbfd393b",
          "totalDebt()": "fc7b9c18",
          "totalReserves()": "8f840ddd",
          "valueOfToken(address,uint256)": "d1b317e5",
          "withdraw(uint256,address)": "00f714ce"
        }
      },
      "storageLayout": {
        "storage": [
          {
            "astId": 284,
            "contract": "contracts/mocks/MockTreasury.sol:MockOlympusTreasury",
            "label": "_owner",
            "offset": 0,
            "slot": "0",
            "type": "t_address"
          },
          {
            "astId": 286,
            "contract": "contracts/mocks/MockTreasury.sol:MockOlympusTreasury",
            "label": "_newOwner",
            "offset": 0,
            "slot": "1",
            "type": "t_address"
          },
          {
            "astId": 697,
            "contract": "contracts/mocks/MockTreasury.sol:MockOlympusTreasury",
            "label": "reserveTokens",
            "offset": 0,
            "slot": "2",
            "type": "t_array(t_address)dyn_storage"
          },
          {
            "astId": 701,
            "contract": "contracts/mocks/MockTreasury.sol:MockOlympusTreasury",
            "label": "isReserveToken",
            "offset": 0,
            "slot": "3",
            "type": "t_mapping(t_address,t_bool)"
          },
          {
            "astId": 705,
            "contract": "contracts/mocks/MockTreasury.sol:MockOlympusTreasury",
            "label": "reserveTokenQueue",
            "offset": 0,
            "slot": "4",
            "type": "t_mapping(t_address,t_uint256)"
          },
          {
            "astId": 708,
            "contract": "contracts/mocks/MockTreasury.sol:MockOlympusTreasury",
            "label": "reserveDepositors",
            "offset": 0,
            "slot": "5",
            "type": "t_array(t_address)dyn_storage"
          },
          {
            "astId": 712,
            "contract": "contracts/mocks/MockTreasury.sol:MockOlympusTreasury",
            "label": "isReserveDepositor",
            "offset": 0,
            "slot": "6",
            "type": "t_mapping(t_address,t_bool)"
          },
          {
            "astId": 716,
            "contract": "contracts/mocks/MockTreasury.sol:MockOlympusTreasury",
            "label": "reserveDepositorQueue",
            "offset": 0,
            "slot": "7",
            "type": "t_mapping(t_address,t_uint256)"
          },
          {
            "astId": 719,
            "contract": "contracts/mocks/MockTreasury.sol:MockOlympusTreasury",
            "label": "reserveSpenders",
            "offset": 0,
            "slot": "8",
            "type": "t_array(t_address)dyn_storage"
          },
          {
            "astId": 723,
            "contract": "contracts/mocks/MockTreasury.sol:MockOlympusTreasury",
            "label": "isReserveSpender",
            "offset": 0,
            "slot": "9",
            "type": "t_mapping(t_address,t_bool)"
          },
          {
            "astId": 727,
            "contract": "contracts/mocks/MockTreasury.sol:MockOlympusTreasury",
            "label": "reserveSpenderQueue",
            "offset": 0,
            "slot": "10",
            "type": "t_mapping(t_address,t_uint256)"
          },
          {
            "astId": 730,
            "contract": "contracts/mocks/MockTreasury.sol:MockOlympusTreasury",
            "label": "liquidityTokens",
            "offset": 0,
            "slot": "11",
            "type": "t_array(t_address)dyn_storage"
          },
          {
            "astId": 734,
            "contract": "contracts/mocks/MockTreasury.sol:MockOlympusTreasury",
            "label": "isLiquidityToken",
            "offset": 0,
            "slot": "12",
            "type": "t_mapping(t_address,t_bool)"
          },
          {
            "astId": 738,
            "contract": "contracts/mocks/MockTreasury.sol:MockOlympusTreasury",
            "label": "LiquidityTokenQueue",
            "offset": 0,
            "slot": "13",
            "type": "t_mapping(t_address,t_uint256)"
          },
          {
            "astId": 741,
            "contract": "contracts/mocks/MockTreasury.sol:MockOlympusTreasury",
            "label": "liquidityDepositors",
            "offset": 0,
            "slot": "14",
            "type": "t_array(t_address)dyn_storage"
          },
          {
            "astId": 745,
            "contract": "contracts/mocks/MockTreasury.sol:MockOlympusTreasury",
            "label": "isLiquidityDepositor",
            "offset": 0,
            "slot": "15",
            "type": "t_mapping(t_address,t_bool)"
          },
          {
            "astId": 749,
            "contract": "contracts/mocks/MockTreasury.sol:MockOlympusTreasury",
            "label": "LiquidityDepositorQueue",
            "offset": 0,
            "slot": "16",
            "type": "t_mapping(t_address,t_uint256)"
          },
          {
            "astId": 753,
            "contract": "contracts/mocks/MockTreasury.sol:MockOlympusTreasury",
            "label": "bondCalculator",
            "offset": 0,
            "slot": "17",
            "type": "t_mapping(t_address,t_address)"
          },
          {
            "astId": 756,
            "contract": "contracts/mocks/MockTreasury.sol:MockOlympusTreasury",
            "label": "reserveManagers",
            "offset": 0,
            "slot": "18",
            "type": "t_array(t_address)dyn_storage"
          },
          {
            "astId": 760,
            "contract": "contracts/mocks/MockTreasury.sol:MockOlympusTreasury",
            "label": "isReserveManager",
            "offset": 0,
            "slot": "19",
            "type": "t_mapping(t_address,t_bool)"
          },
          {
            "astId": 764,
            "contract": "contracts/mocks/MockTreasury.sol:MockOlympusTreasury",
            "label": "ReserveManagerQueue",
            "offset": 0,
            "slot": "20",
            "type": "t_mapping(t_address,t_uint256)"
          },
          {
            "astId": 767,
            "contract": "contracts/mocks/MockTreasury.sol:MockOlympusTreasury",
            "label": "liquidityManagers",
            "offset": 0,
            "slot": "21",
            "type": "t_array(t_address)dyn_storage"
          },
          {
            "astId": 771,
            "contract": "contracts/mocks/MockTreasury.sol:MockOlympusTreasury",
            "label": "isLiquidityManager",
            "offset": 0,
            "slot": "22",
            "type": "t_mapping(t_address,t_bool)"
          },
          {
            "astId": 775,
            "contract": "contracts/mocks/MockTreasury.sol:MockOlympusTreasury",
            "label": "LiquidityManagerQueue",
            "offset": 0,
            "slot": "23",
            "type": "t_mapping(t_address,t_uint256)"
          },
          {
            "astId": 778,
            "contract": "contracts/mocks/MockTreasury.sol:MockOlympusTreasury",
            "label": "debtors",
            "offset": 0,
            "slot": "24",
            "type": "t_array(t_address)dyn_storage"
          },
          {
            "astId": 782,
            "contract": "contracts/mocks/MockTreasury.sol:MockOlympusTreasury",
            "label": "isDebtor",
            "offset": 0,
            "slot": "25",
            "type": "t_mapping(t_address,t_bool)"
          },
          {
            "astId": 786,
            "contract": "contracts/mocks/MockTreasury.sol:MockOlympusTreasury",
            "label": "debtorQueue",
            "offset": 0,
            "slot": "26",
            "type": "t_mapping(t_address,t_uint256)"
          },
          {
            "astId": 790,
            "contract": "contracts/mocks/MockTreasury.sol:MockOlympusTreasury",
            "label": "debtorBalance",
            "offset": 0,
            "slot": "27",
            "type": "t_mapping(t_address,t_uint256)"
          },
          {
            "astId": 793,
            "contract": "contracts/mocks/MockTreasury.sol:MockOlympusTreasury",
            "label": "rewardManagers",
            "offset": 0,
            "slot": "28",
            "type": "t_array(t_address)dyn_storage"
          },
          {
            "astId": 797,
            "contract": "contracts/mocks/MockTreasury.sol:MockOlympusTreasury",
            "label": "isRewardManager",
            "offset": 0,
            "slot": "29",
            "type": "t_mapping(t_address,t_bool)"
          },
          {
            "astId": 801,
            "contract": "contracts/mocks/MockTreasury.sol:MockOlympusTreasury",
            "label": "rewardManagerQueue",
            "offset": 0,
            "slot": "30",
            "type": "t_mapping(t_address,t_uint256)"
          },
          {
            "astId": 803,
            "contract": "contracts/mocks/MockTreasury.sol:MockOlympusTreasury",
            "label": "sOHM",
            "offset": 0,
            "slot": "31",
            "type": "t_address"
          },
          {
            "astId": 805,
            "contract": "contracts/mocks/MockTreasury.sol:MockOlympusTreasury",
            "label": "sOHMQueue",
            "offset": 0,
            "slot": "32",
            "type": "t_uint256"
          },
          {
            "astId": 807,
            "contract": "contracts/mocks/MockTreasury.sol:MockOlympusTreasury",
            "label": "totalReserves",
            "offset": 0,
            "slot": "33",
            "type": "t_uint256"
          },
          {
            "astId": 809,
            "contract": "contracts/mocks/MockTreasury.sol:MockOlympusTreasury",
            "label": "totalDebt",
            "offset": 0,
            "slot": "34",
            "type": "t_uint256"
          }
        ],
        "types": {
          "t_address": {
            "encoding": "inplace",
            "label": "address",
            "numberOfBytes": "20"
          },
          "t_array(t_address)dyn_storage": {
            "base": "t_address",
            "encoding": "dynamic_array",
            "label": "address[]",
            "numberOfBytes": "32"
          },
          "t_bool": {
            "encoding": "inplace",
            "label": "bool",
            "numberOfBytes": "1"
          },
          "t_mapping(t_address,t_address)": {
            "encoding": "mapping",
            "key": "t_address",
            "label": "mapping(address => address)",
            "numberOfBytes": "32",
            "value": "t_address"
          },
          "t_mapping(t_address,t_bool)": {
            "encoding": "mapping",
            "key": "t_address",
            "label": "mapping(address => bool)",
            "numberOfBytes": "32",
            "value": "t_bool"
          },
          "t_mapping(t_address,t_uint256)": {
            "encoding": "mapping",
            "key": "t_address",
            "label": "mapping(address => uint256)",
            "numberOfBytes": "32",
            "value": "t_uint256"
          },
          "t_uint256": {
            "encoding": "inplace",
            "label": "uint256",
            "numberOfBytes": "32"
          }
        }
      },
      "userdoc": {
        "kind": "user",
        "methods": {
          "auditReserves()": {
            "notice": "takes inventory of all tracked assetsalways consolidate to recognized reserves before audit"
          },
          "deposit(uint256,address,uint256)": {
            "notice": "allow approved address to deposit an asset for OHM"
          },
          "excessReserves()": {
            "notice": "returns excess reserves not backing tokens"
          },
          "incurDebt(uint256,address)": {
            "notice": "allow approved address to borrow reserves"
          },
          "manage(address,uint256)": {
            "notice": "allow approved address to withdraw assets"
          },
          "mintRewards(address,uint256)": {
            "notice": "send epoch reward to staking contract"
          },
          "queue(uint8,address)": {
            "notice": "queue address to change boolean in mapping"
          },
          "repayDebtWithOHM(uint256)": {
            "notice": "allow approved address to repay borrowed reserves with OHM"
          },
          "repayDebtWithReserve(uint256,address)": {
            "notice": "allow approved address to repay borrowed reserves with reserves"
          },
          "toggle(uint8,address,address)": {
            "notice": "verify queue then set boolean in mapping"
          },
          "valueOfToken(address,uint256)": {
            "notice": "returns OHM valuation of asset"
          },
          "withdraw(uint256,address)": {
            "notice": "allow approved address to burn OHM for reserves"
          }
        },
        "version": 1
      }
    }
  }
}