{
    "contractName": "BloodRedRequiem",
    "abi": [
        {
            "inputs": [
                {
                    "internalType": "string",
                    "name": "_name",
                    "type": "string"
                },
                {
                    "internalType": "string",
                    "name": "_symbol",
                    "type": "string"
                },
                {
                    "internalType": "address",
                    "name": "_lockedToken",
                    "type": "address"
                },
                {
                    "internalType": "uint256",
                    "name": "_minLockedAmount",
                    "type": "uint256"
                }
            ],
            "stateMutability": "nonpayable",
            "type": "constructor"
        },
        {
            "anonymous": false,
            "inputs": [
                {
                    "indexed": true,
                    "internalType": "address",
                    "name": "owner",
                    "type": "address"
                },
                {
                    "indexed": true,
                    "internalType": "address",
                    "name": "spender",
                    "type": "address"
                },
                {
                    "indexed": false,
                    "internalType": "uint256",
                    "name": "value",
                    "type": "uint256"
                }
            ],
            "name": "Approval",
            "type": "event"
        },
        {
            "anonymous": false,
            "inputs": [
                {
                    "indexed": true,
                    "internalType": "address",
                    "name": "provider",
                    "type": "address"
                },
                {
                    "indexed": false,
                    "internalType": "uint256",
                    "name": "value",
                    "type": "uint256"
                },
                {
                    "indexed": false,
                    "internalType": "uint256",
                    "name": "locktime",
                    "type": "uint256"
                },
                {
                    "indexed": false,
                    "internalType": "uint256",
                    "name": "timestamp",
                    "type": "uint256"
                }
            ],
            "name": "Deposit",
            "type": "event"
        },
        {
            "anonymous": false,
            "inputs": [
                {
                    "indexed": true,
                    "internalType": "uint256",
                    "name": "penalty",
                    "type": "uint256"
                }
            ],
            "name": "EarlyWithdrawPenaltySet",
            "type": "event"
        },
        {
            "anonymous": false,
            "inputs": [
                {
                    "indexed": true,
                    "internalType": "uint256",
                    "name": "amount",
                    "type": "uint256"
                }
            ],
            "name": "MinLockedAmountSet",
            "type": "event"
        },
        {
            "anonymous": false,
            "inputs": [
                {
                    "indexed": true,
                    "internalType": "address",
                    "name": "previousOwner",
                    "type": "address"
                },
                {
                    "indexed": true,
                    "internalType": "address",
                    "name": "newOwner",
                    "type": "address"
                }
            ],
            "name": "OwnershipTransferred",
            "type": "event"
        },
        {
            "anonymous": false,
            "inputs": [
                {
                    "indexed": true,
                    "internalType": "address",
                    "name": "addr",
                    "type": "address"
                }
            ],
            "name": "PenaltyCollectorSet",
            "type": "event"
        },
        {
            "anonymous": false,
            "inputs": [
                {
                    "indexed": true,
                    "internalType": "address",
                    "name": "from",
                    "type": "address"
                },
                {
                    "indexed": true,
                    "internalType": "address",
                    "name": "to",
                    "type": "address"
                },
                {
                    "indexed": false,
                    "internalType": "uint256",
                    "name": "value",
                    "type": "uint256"
                }
            ],
            "name": "Transfer",
            "type": "event"
        },
        {
            "anonymous": false,
            "inputs": [
                {
                    "indexed": true,
                    "internalType": "address",
                    "name": "provider",
                    "type": "address"
                },
                {
                    "indexed": false,
                    "internalType": "uint256",
                    "name": "value",
                    "type": "uint256"
                },
                {
                    "indexed": false,
                    "internalType": "uint256",
                    "name": "timestamp",
                    "type": "uint256"
                }
            ],
            "name": "Withdraw",
            "type": "event"
        },
        {
            "inputs": [],
            "name": "MAXDAYS",
            "outputs": [
                {
                    "internalType": "uint256",
                    "name": "",
                    "type": "uint256"
                }
            ],
            "stateMutability": "view",
            "type": "function"
        },
        {
            "inputs": [],
            "name": "MAXTIME",
            "outputs": [
                {
                    "internalType": "uint256",
                    "name": "",
                    "type": "uint256"
                }
            ],
            "stateMutability": "view",
            "type": "function"
        },
        {
            "inputs": [],
            "name": "MAX_WITHDRAWAL_PENALTY",
            "outputs": [
                {
                    "internalType": "uint256",
                    "name": "",
                    "type": "uint256"
                }
            ],
            "stateMutability": "view",
            "type": "function"
        },
        {
            "inputs": [],
            "name": "MINDAYS",
            "outputs": [
                {
                    "internalType": "uint256",
                    "name": "",
                    "type": "uint256"
                }
            ],
            "stateMutability": "view",
            "type": "function"
        },
        {
            "inputs": [],
            "name": "MINTIME",
            "outputs": [
                {
                    "internalType": "uint256",
                    "name": "",
                    "type": "uint256"
                }
            ],
            "stateMutability": "view",
            "type": "function"
        },
        {
            "inputs": [],
            "name": "PRECISION",
            "outputs": [
                {
                    "internalType": "uint256",
                    "name": "",
                    "type": "uint256"
                }
            ],
            "stateMutability": "view",
            "type": "function"
        },
        {
            "inputs": [],
            "name": "REF_DATE",
            "outputs": [
                {
                    "internalType": "uint256",
                    "name": "",
                    "type": "uint256"
                }
            ],
            "stateMutability": "view",
            "type": "function"
        },
        {
            "inputs": [
                {
                    "internalType": "address",
                    "name": "owner",
                    "type": "address"
                },
                {
                    "internalType": "address",
                    "name": "spender",
                    "type": "address"
                }
            ],
            "name": "allowance",
            "outputs": [
                {
                    "internalType": "uint256",
                    "name": "",
                    "type": "uint256"
                }
            ],
            "stateMutability": "view",
            "type": "function"
        },
        {
            "inputs": [
                {
                    "internalType": "address",
                    "name": "spender",
                    "type": "address"
                },
                {
                    "internalType": "uint256",
                    "name": "amount",
                    "type": "uint256"
                }
            ],
            "name": "approve",
            "outputs": [
                {
                    "internalType": "bool",
                    "name": "",
                    "type": "bool"
                }
            ],
            "stateMutability": "nonpayable",
            "type": "function"
        },
        {
            "inputs": [
                {
                    "internalType": "address",
                    "name": "account",
                    "type": "address"
                }
            ],
            "name": "balanceOf",
            "outputs": [
                {
                    "internalType": "uint256",
                    "name": "",
                    "type": "uint256"
                }
            ],
            "stateMutability": "view",
            "type": "function"
        },
        {
            "inputs": [
                {
                    "internalType": "uint256",
                    "name": "amount",
                    "type": "uint256"
                }
            ],
            "name": "burn",
            "outputs": [],
            "stateMutability": "nonpayable",
            "type": "function"
        },
        {
            "inputs": [
                {
                    "internalType": "address",
                    "name": "account",
                    "type": "address"
                },
                {
                    "internalType": "uint256",
                    "name": "amount",
                    "type": "uint256"
                }
            ],
            "name": "burnFrom",
            "outputs": [],
            "stateMutability": "nonpayable",
            "type": "function"
        },
        {
            "inputs": [
                {
                    "internalType": "uint256",
                    "name": "_value",
                    "type": "uint256"
                },
                {
                    "internalType": "uint256",
                    "name": "_end",
                    "type": "uint256"
                },
                {
                    "internalType": "address",
                    "name": "_recipient",
                    "type": "address"
                }
            ],
            "name": "create_lock",
            "outputs": [],
            "stateMutability": "nonpayable",
            "type": "function"
        },
        {
            "inputs": [],
            "name": "decimals",
            "outputs": [
                {
                    "internalType": "uint8",
                    "name": "",
                    "type": "uint8"
                }
            ],
            "stateMutability": "view",
            "type": "function"
        },
        {
            "inputs": [
                {
                    "internalType": "address",
                    "name": "spender",
                    "type": "address"
                },
                {
                    "internalType": "uint256",
                    "name": "subtractedValue",
                    "type": "uint256"
                }
            ],
            "name": "decreaseAllowance",
            "outputs": [
                {
                    "internalType": "bool",
                    "name": "",
                    "type": "bool"
                }
            ],
            "stateMutability": "nonpayable",
            "type": "function"
        },
        {
            "inputs": [],
            "name": "earlyWithdrawPenaltyRate",
            "outputs": [
                {
                    "internalType": "uint256",
                    "name": "",
                    "type": "uint256"
                }
            ],
            "stateMutability": "view",
            "type": "function"
        },
        {
            "inputs": [
                {
                    "internalType": "uint256",
                    "name": "_end",
                    "type": "uint256"
                }
            ],
            "name": "emergencyWithdraw",
            "outputs": [],
            "stateMutability": "nonpayable",
            "type": "function"
        },
        {
            "inputs": [],
            "name": "emergencyWithdrawAll",
            "outputs": [],
            "stateMutability": "nonpayable",
            "type": "function"
        },
        {
            "inputs": [
                {
                    "internalType": "uint256",
                    "name": "_value",
                    "type": "uint256"
                },
                {
                    "internalType": "uint256",
                    "name": "_unlock_time",
                    "type": "uint256"
                }
            ],
            "name": "get_amount_minted",
            "outputs": [
                {
                    "internalType": "uint256",
                    "name": "",
                    "type": "uint256"
                }
            ],
            "stateMutability": "pure",
            "type": "function"
        },
        {
            "inputs": [
                {
                    "internalType": "address",
                    "name": "_addr",
                    "type": "address"
                }
            ],
            "name": "get_locks",
            "outputs": [
                {
                    "components": [
                        {
                            "internalType": "uint256",
                            "name": "amount",
                            "type": "uint256"
                        },
                        {
                            "internalType": "uint256",
                            "name": "end",
                            "type": "uint256"
                        },
                        {
                            "internalType": "uint256",
                            "name": "minted",
                            "type": "uint256"
                        },
                        {
                            "internalType": "uint256",
                            "name": "multiplier",
                            "type": "uint256"
                        }
                    ],
                    "internalType": "struct IGovernanceLock.LockedBalance[]",
                    "name": "_balances",
                    "type": "tuple[]"
                }
            ],
            "stateMutability": "view",
            "type": "function"
        },
        {
            "inputs": [
                {
                    "internalType": "address",
                    "name": "_addr",
                    "type": "address"
                },
                {
                    "internalType": "uint256",
                    "name": "_end",
                    "type": "uint256"
                }
            ],
            "name": "get_minted_for_lock",
            "outputs": [
                {
                    "internalType": "uint256",
                    "name": "_minted",
                    "type": "uint256"
                }
            ],
            "stateMutability": "view",
            "type": "function"
        },
        {
            "inputs": [
                {
                    "internalType": "address",
                    "name": "_addr",
                    "type": "address"
                }
            ],
            "name": "get_minted_for_locks",
            "outputs": [
                {
                    "internalType": "uint256[]",
                    "name": "_minted",
                    "type": "uint256[]"
                }
            ],
            "stateMutability": "view",
            "type": "function"
        },
        {
            "inputs": [
                {
                    "internalType": "address",
                    "name": "_addr",
                    "type": "address"
                }
            ],
            "name": "get_share",
            "outputs": [
                {
                    "internalType": "uint256",
                    "name": "_vote",
                    "type": "uint256"
                }
            ],
            "stateMutability": "view",
            "type": "function"
        },
        {
            "inputs": [
                {
                    "internalType": "address",
                    "name": "_addr",
                    "type": "address"
                },
                {
                    "internalType": "uint256",
                    "name": "_amount",
                    "type": "uint256"
                }
            ],
            "name": "get_voting_power",
            "outputs": [
                {
                    "internalType": "uint256",
                    "name": "_votingPower",
                    "type": "uint256"
                }
            ],
            "stateMutability": "view",
            "type": "function"
        },
        {
            "inputs": [
                {
                    "internalType": "address",
                    "name": "spender",
                    "type": "address"
                },
                {
                    "internalType": "uint256",
                    "name": "addedValue",
                    "type": "uint256"
                }
            ],
            "name": "increaseAllowance",
            "outputs": [
                {
                    "internalType": "bool",
                    "name": "",
                    "type": "bool"
                }
            ],
            "stateMutability": "nonpayable",
            "type": "function"
        },
        {
            "inputs": [
                {
                    "internalType": "uint256",
                    "name": "_value",
                    "type": "uint256"
                },
                {
                    "internalType": "uint256",
                    "name": "_end",
                    "type": "uint256"
                }
            ],
            "name": "increase_position",
            "outputs": [],
            "stateMutability": "nonpayable",
            "type": "function"
        },
        {
            "inputs": [
                {
                    "internalType": "uint256",
                    "name": "_amount",
                    "type": "uint256"
                },
                {
                    "internalType": "uint256",
                    "name": "_end",
                    "type": "uint256"
                },
                {
                    "internalType": "uint256",
                    "name": "_newEnd",
                    "type": "uint256"
                }
            ],
            "name": "increase_time_to_maturity",
            "outputs": [],
            "stateMutability": "nonpayable",
            "type": "function"
        },
        {
            "inputs": [
                {
                    "internalType": "address",
                    "name": "",
                    "type": "address"
                },
                {
                    "internalType": "uint256",
                    "name": "",
                    "type": "uint256"
                }
            ],
            "name": "lockedPosition",
            "outputs": [
                {
                    "internalType": "uint256",
                    "name": "",
                    "type": "uint256"
                }
            ],
            "stateMutability": "view",
            "type": "function"
        },
        {
            "inputs": [],
            "name": "lockedToken",
            "outputs": [
                {
                    "internalType": "address",
                    "name": "",
                    "type": "address"
                }
            ],
            "stateMutability": "view",
            "type": "function"
        },
        {
            "inputs": [
                {
                    "internalType": "address",
                    "name": "_addr",
                    "type": "address"
                },
                {
                    "internalType": "uint256",
                    "name": "_end",
                    "type": "uint256"
                }
            ],
            "name": "locked_of",
            "outputs": [
                {
                    "internalType": "uint256",
                    "name": "",
                    "type": "uint256"
                }
            ],
            "stateMutability": "view",
            "type": "function"
        },
        {
            "inputs": [],
            "name": "minLockedAmount",
            "outputs": [
                {
                    "internalType": "uint256",
                    "name": "",
                    "type": "uint256"
                }
            ],
            "stateMutability": "view",
            "type": "function"
        },
        {
            "inputs": [
                {
                    "internalType": "address",
                    "name": "",
                    "type": "address"
                },
                {
                    "internalType": "uint256",
                    "name": "",
                    "type": "uint256"
                }
            ],
            "name": "mintedForLock",
            "outputs": [
                {
                    "internalType": "uint256",
                    "name": "",
                    "type": "uint256"
                }
            ],
            "stateMutability": "view",
            "type": "function"
        },
        {
            "inputs": [
                {
                    "internalType": "address",
                    "name": "",
                    "type": "address"
                },
                {
                    "internalType": "uint256",
                    "name": "",
                    "type": "uint256"
                }
            ],
            "name": "multipliers",
            "outputs": [
                {
                    "internalType": "uint256",
                    "name": "",
                    "type": "uint256"
                }
            ],
            "stateMutability": "view",
            "type": "function"
        },
        {
            "inputs": [],
            "name": "name",
            "outputs": [
                {
                    "internalType": "string",
                    "name": "",
                    "type": "string"
                }
            ],
            "stateMutability": "view",
            "type": "function"
        },
        {
            "inputs": [],
            "name": "owner",
            "outputs": [
                {
                    "internalType": "address",
                    "name": "",
                    "type": "address"
                }
            ],
            "stateMutability": "view",
            "type": "function"
        },
        {
            "inputs": [],
            "name": "penaltyCollector",
            "outputs": [
                {
                    "internalType": "address",
                    "name": "",
                    "type": "address"
                }
            ],
            "stateMutability": "view",
            "type": "function"
        },
        {
            "inputs": [],
            "name": "renounceOwnership",
            "outputs": [],
            "stateMutability": "nonpayable",
            "type": "function"
        },
        {
            "inputs": [
                {
                    "internalType": "uint256",
                    "name": "_earlyWithdrawPenaltyRate",
                    "type": "uint256"
                }
            ],
            "name": "setEarlyWithdrawPenaltyRate",
            "outputs": [],
            "stateMutability": "nonpayable",
            "type": "function"
        },
        {
            "inputs": [
                {
                    "internalType": "uint256",
                    "name": "_minLockedAmount",
                    "type": "uint256"
                }
            ],
            "name": "setMinLockedAmount",
            "outputs": [],
            "stateMutability": "nonpayable",
            "type": "function"
        },
        {
            "inputs": [
                {
                    "internalType": "address",
                    "name": "_addr",
                    "type": "address"
                }
            ],
            "name": "setPenaltyCollector",
            "outputs": [],
            "stateMutability": "nonpayable",
            "type": "function"
        },
        {
            "inputs": [],
            "name": "symbol",
            "outputs": [
                {
                    "internalType": "string",
                    "name": "",
                    "type": "string"
                }
            ],
            "stateMutability": "view",
            "type": "function"
        },
        {
            "inputs": [],
            "name": "totalSupply",
            "outputs": [
                {
                    "internalType": "uint256",
                    "name": "",
                    "type": "uint256"
                }
            ],
            "stateMutability": "view",
            "type": "function"
        },
        {
            "inputs": [
                {
                    "internalType": "address",
                    "name": "recipient",
                    "type": "address"
                },
                {
                    "internalType": "uint256",
                    "name": "amount",
                    "type": "uint256"
                }
            ],
            "name": "transfer",
            "outputs": [
                {
                    "internalType": "bool",
                    "name": "",
                    "type": "bool"
                }
            ],
            "stateMutability": "nonpayable",
            "type": "function"
        },
        {
            "inputs": [
                {
                    "internalType": "address",
                    "name": "sender",
                    "type": "address"
                },
                {
                    "internalType": "address",
                    "name": "recipient",
                    "type": "address"
                },
                {
                    "internalType": "uint256",
                    "name": "amount",
                    "type": "uint256"
                }
            ],
            "name": "transferFrom",
            "outputs": [
                {
                    "internalType": "bool",
                    "name": "",
                    "type": "bool"
                }
            ],
            "stateMutability": "nonpayable",
            "type": "function"
        },
        {
            "inputs": [
                {
                    "internalType": "uint256",
                    "name": "_end",
                    "type": "uint256"
                },
                {
                    "internalType": "address",
                    "name": "_to",
                    "type": "address"
                }
            ],
            "name": "transferFullLock",
            "outputs": [],
            "stateMutability": "nonpayable",
            "type": "function"
        },
        {
            "inputs": [
                {
                    "internalType": "uint256",
                    "name": "_amount",
                    "type": "uint256"
                },
                {
                    "internalType": "uint256",
                    "name": "_end",
                    "type": "uint256"
                },
                {
                    "internalType": "address",
                    "name": "_to",
                    "type": "address"
                }
            ],
            "name": "transferLockShare",
            "outputs": [],
            "stateMutability": "nonpayable",
            "type": "function"
        },
        {
            "inputs": [
                {
                    "internalType": "address",
                    "name": "newOwner_",
                    "type": "address"
                }
            ],
            "name": "transferOwnership",
            "outputs": [],
            "stateMutability": "nonpayable",
            "type": "function"
        },
        {
            "inputs": [
                {
                    "internalType": "uint256",
                    "name": "_value",
                    "type": "uint256"
                },
                {
                    "internalType": "uint256",
                    "name": "_days",
                    "type": "uint256"
                }
            ],
            "name": "voting_power_locked_days",
            "outputs": [
                {
                    "internalType": "uint256",
                    "name": "",
                    "type": "uint256"
                }
            ],
            "stateMutability": "pure",
            "type": "function"
        },
        {
            "inputs": [
                {
                    "internalType": "uint256",
                    "name": "_value",
                    "type": "uint256"
                },
                {
                    "internalType": "uint256",
                    "name": "_unlock_time",
                    "type": "uint256"
                }
            ],
            "name": "voting_power_unlock_time",
            "outputs": [
                {
                    "internalType": "uint256",
                    "name": "",
                    "type": "uint256"
                }
            ],
            "stateMutability": "view",
            "type": "function"
        },
        {
            "inputs": [
                {
                    "internalType": "uint256",
                    "name": "_end",
                    "type": "uint256"
                },
                {
                    "internalType": "uint256",
                    "name": "_amount",
                    "type": "uint256"
                }
            ],
            "name": "withdraw",
            "outputs": [],
            "stateMutability": "nonpayable",
            "type": "function"
        },
        {
            "inputs": [],
            "name": "withdrawAll",
            "outputs": [],
            "stateMutability": "nonpayable",
            "type": "function"
        }
    ],
    "bytecode": "60806040523480156200001157600080fd5b506040516200376138038062003761833981016040819052620000349162000270565b83836012826003908051906020019062000050929190620000fd565b50815162000066906004906020850190620000fd565b5060058054336101009081026001600160a81b031990921660ff9094169390931717908190556040519190046001600160a01b03169250600091507f8be0079c531659141344cd1fd0a4f28419497f9722a3daafe3b4186f6b6457e0908290a3600780546001600160a01b0319166001600160a01b0393909316929092179091556009555050617530600a5560016006556200033f565b8280546200010b9062000303565b90600052602060002090601f0160209004810192826200012f57600085556200017a565b82601f106200014a57805160ff19168380011785556200017a565b828001600101855582156200017a579182015b828111156200017a5782518255916020019190600101906200015d565b50620001889291506200018c565b5090565b5b808211156200018857600081556001016200018d565b634e487b7160e01b600052604160045260246000fd5b600082601f830112620001cb57600080fd5b81516001600160401b0380821115620001e857620001e8620001a3565b604051601f8301601f19908116603f01168101908282118183101715620002135762000213620001a3565b816040528381526020925086838588010111156200023057600080fd5b600091505b8382101562000254578582018301518183018401529082019062000235565b83821115620002665760008385830101525b9695505050505050565b600080600080608085870312156200028757600080fd5b84516001600160401b03808211156200029f57600080fd5b620002ad88838901620001b9565b95506020870151915080821115620002c457600080fd5b50620002d387828801620001b9565b604087015190945090506001600160a01b0381168114620002f357600080fd5b6060959095015193969295505050565b600181811c908216806200031857607f821691505b6020821081036200033957634e487b7160e01b600052602260045260246000fd5b50919050565b613412806200034f6000396000f3fe608060405234801561001057600080fd5b50600436106102f15760003560e01c806379c1d6641161019d578063bf201c7f116100e9578063dcb69fbb116100a2578063ed8732711161007c578063ed87327114610701578063ee00ef3a14610714578063f2fde38b1461071c578063f4da99c71461072f57600080fd5b8063dcb69fbb146106ad578063dd191719146106c0578063dd62ed3e146106c857600080fd5b8063bf201c7f1461060c578063c1917a5a14610641578063c84de30014610661578063d08a12ff14610674578063d271332414610687578063d982523f1461069a57600080fd5b8063a457c2d711610156578063a9059cbb11610130578063a9059cbb146105bb578063aaf5eb68146105ce578063ae6ef65f146105d8578063af62fe0e146105e157600080fd5b8063a457c2d71461055f578063a650adbd14610572578063a8a4a376146105a857600080fd5b806379c1d6641461050a57806379cc67901461051d578063853828b6146105305780638da5cb5b1461053857806395d89b411461054e578063a25b39b71461055657600080fd5b806338b4321b1161025c5780635b51c3081161021557806370a08231116101ef57806370a08231146104a6578063715018a6146104cf57806373426cff146104d757806376b15a57146104ea57600080fd5b80635b51c3081461045f5780635b7d8f051461046857806369edaf341461047b57600080fd5b806338b4321b146103f5578063395093511461040857806342966c681461041b578063441a3e701461042e578063478dc5ca146104415780635312ea8e1461044c57600080fd5b80631767c433116102ae5780631767c433146103a057806318160ddd146103a95780632060176b146103b157806323b872dd146103ba578063308097b2146103cd578063313ce567146103e057600080fd5b8063063da9df146102f657806306fdde031461030b578063095ea7b3146103295780630e44e39e1461034c5780630f45cc811461036d5780630f51c09c14610398575b600080fd5b610309610304366004612f68565b61075a565b005b610313610793565b6040516103209190612fc0565b60405180910390f35b61033c610337366004612ff3565b610825565b6040519015158152602001610320565b61035f61035a366004612ff3565b61083c565b604051908152602001610320565b600754610380906001600160a01b031681565b6040516001600160a01b039091168152602001610320565b61035f600181565b61035f61044781565b60025461035f565b61035f61c35081565b61033c6103c836600461301d565b61097c565b600854610380906001600160a01b031681565b60055460405160ff9091168152602001610320565b61035f610403366004613059565b610a2b565b61033c610416366004612ff3565b610a85565b61030961042936600461307b565b610ac1565b61030961043c366004613059565b610ace565b61035f6361cf8b7081565b61030961045a36600461307b565b610d48565b61035f610e1081565b610309610476366004613094565b610ed8565b61035f610489366004612ff3565b600c60209081526000928352604080842090915290825290205481565b61035f6104b4366004613094565b6001600160a01b031660009081526020819052604090205490565b610309610f51565b61035f6104e5366004613059565b610fd0565b6104fd6104f8366004613094565b611000565b60405161032091906130af565b61035f610518366004613094565b6110fa565b61030961052b366004612ff3565b6111c6565b610309611247565b60055461010090046001600160a01b0316610380565b6103136113ad565b61035f60095481565b61033c61056d366004612ff3565b6113bc565b61035f610580366004612ff3565b6001600160a01b03919091166000908152600c60209081526040808320938352929052205490565b6103096105b636600461307b565b611455565b61033c6105c9366004612ff3565b611509565b61035f620186a081565b61035f600a5481565b61035f6105ef366004612ff3565b600d60209081526000928352604080842090915290825290205481565b61035f61061a366004612ff3565b6001600160a01b039091166000908152600b60209081526040808320938352929052205490565b61065461064f366004613094565b611516565b60405161032091906130f3565b61030961066f366004613059565b61167e565b61030961068236600461307b565b6116d6565b61035f610695366004613059565b611738565b6103096106a8366004613157565b611761565b6103096106bb366004613183565b611833565b610309611933565b61035f6106d63660046131b8565b6001600160a01b03918216600090815260016020908152604080832093909416825291909152205490565b61030961070f366004613183565b611a9e565b61035f611b2d565b61030961072a366004613094565b611b3f565b61035f61073d366004612ff3565b600b60209081526000928352604080842090915290825290205481565b336000818152600b60209081526040808320868452909152902054906107839030908484611c3a565b61078e338385611cab565b505050565b6060600380546107a2906131e2565b80601f01602080910402602001604051908101604052809291908181526020018280546107ce906131e2565b801561081b5780601f106107f05761010080835404028352916020019161081b565b820191906000526020600020905b8154815290600101906020018083116107fe57829003601f168201915b5050505050905090565b6000610832338484611d50565b5060015b92915050565b6001600160a01b0382166000908152600e60205260408120819061085f90611e74565b9050600080925060005b8281101561093c576001600160a01b0386166000908152600e602052604081206108939083611e7e565b6001600160a01b0388166000818152600d60209081526040808320858452825280832054938352600b8252808320858452909152902054919250670de0b6b3a7640000916108e19190613232565b6108eb9190613251565b6108f59086613273565b6001600160a01b0388166000908152600c602090815260408083208584529091529020549095506109269084613273565b92505080806109349061328b565b915050610869565b50670de0b6b3a764000081806109528787613232565b1161095d578561095f565b825b6109699190613251565b6109739190613251565b95945050505050565b6000610989848484611e8a565b6001600160a01b038416600090815260016020908152604080832033845290915290205482811015610a135760405162461bcd60e51b815260206004820152602860248201527f45524332303a207472616e7366657220616d6f756e74206578636565647320616044820152676c6c6f77616e636560c01b60648201526084015b60405180910390fd5b610a208533858403611d50565b506001949350505050565b600042808311610a3f576000915050610836565b6000610a4b82856132a4565b9050610a5c61044762015180613232565b8110610a6c578492505050610836565b610a7b61044762015180613232565b6109698287613232565b3360008181526001602090815260408083206001600160a01b03871684529091528120549091610832918590610abc908690613273565b611d50565b610acb3382612058565b50565b600654600114610af05760405162461bcd60e51b8152600401610a0a906132bb565b60006006819055338152600c602090815260408083208584529091529020544281610b535760405162461bcd60e51b81526020600482015260136024820152724e6f7468696e6720746f20776974686472617760681b6044820152606401610a0a565b83811015610b9c5760405162461bcd60e51b8152602060048201526016602482015275546865206c6f636b206469646e27742065787069726560501b6044820152606401610a0a565b82821015610be25760405162461bcd60e51b8152602060048201526013602482015272125b9cdd59999a58da595b9d081b1bd8dad959606a1b6044820152606401610a0a565b818310610c8a57336000818152600c602090815260408083208884528252808320839055838352600d8252808320888452909152812055610c3e905b336000908152600b60209081526040808320898452909152902054612058565b336000818152600b602090815260408083208884529091528120819055610c84918691600e915b6001600160a01b031681526020810191909152604001600020906121a6565b50610cfd565b336000908152600c6020908152604080832087845290915281208054859290610cb49084906132a4565b90915550610cc3905033610c1e565b610ccd8385611738565b336000908152600b6020908152604080832088845290915281208054909190610cf79084906132a4565b90915550505b610d14336007546001600160a01b031690856121b2565b604080518481526020810183905233916000805160206133bd833981519152910160405180910390a2505060016006555050565b600654600114610d6a5760405162461bcd60e51b8152600401610a0a906132bb565b60006006819055338152600c602090815260408083208484529091529020544281610dcd5760405162461bcd60e51b81526020600482015260136024820152724e6f7468696e6720746f20776974686472617760681b6044820152606401610a0a565b82811015610e0c576000620186a0600a5484610de99190613232565b610df39190613251565b9050610dfe816121e2565b610e0881846132a4565b9250505b336000818152600c602090815260408083208784528252808320839055838352600d8252808320878452909152812055610e61905b336000908152600b60209081526040808320888452909152902054612058565b336000818152600b602090815260408083208784529091528120819055610e8c918591600e91610c65565b50610ea5335b6007546001600160a01b031690846121b2565b604080518381526020810183905233916000805160206133bd833981519152910160405180910390a25050600160065550565b60055461010090046001600160a01b03163314610f075760405162461bcd60e51b8152600401610a0a906132db565b600880546001600160a01b0319166001600160a01b0383169081179091556040517f2541601c97bce42b47813f2be715ba4eb0a571f2aafaf35cda2054137d9a79af90600090a250565b60055461010090046001600160a01b03163314610f805760405162461bcd60e51b8152600401610a0a906132db565b60055460405160009161010090046001600160a01b0316907f8be0079c531659141344cd1fd0a4f28419497f9722a3daafe3b4186f6b6457e0908390a360058054610100600160a81b0319169055565b60006104478210610fe2575081610836565b610447610fef8385613232565b610ff99190613251565b9392505050565b6001600160a01b0381166000908152600e602052604081206060919061102590611e74565b90508067ffffffffffffffff81111561104057611040613310565b604051908082528060200260200182016040528015611069578160200160208202803683370190505b50915060005b818110156110f3576001600160a01b0384166000908152600e602052604081206110999083611e7e565b6001600160a01b0386166000908152600b602090815260408083208484529091529020548551919250908590849081106110d5576110d5613326565b602090810291909101015250806110eb8161328b565b91505061106f565b5050919050565b6001600160a01b0381166000908152600e60205260408120819061111d90611e74565b90506000915060005b818110156111b3576001600160a01b0384166000908152600e602052604081206111509083611e7e565b6001600160a01b0386166000818152600d60209081526040808320858452825280832054938352600c825280832085845290915290205491925061119391613232565b61119d9085613273565b93505080806111ab9061328b565b915050611126565b50610ff9670de0b6b3a764000083613251565b60006111d283336106d6565b9050818110156112305760405162461bcd60e51b8152602060048201526024808201527f45524332303a206275726e20616d6f756e74206578636565647320616c6c6f77604482015263616e636560e01b6064820152608401610a0a565b61123d8333848403611d50565b61078e8383612058565b6006546001146112695760405162461bcd60e51b8152600401610a0a906132bb565b6000600681905561129d600e82335b6001600160a01b03166001600160a01b03168152602001908152602001600020611e74565b905060005b818110156113a45760006112d482600e83335b6001600160a01b03168152602081019190915260400160002090611e7e565b336000908152600c602090815260408083208484529091529020549091504281158015906113025750828110155b1561138e57336000818152600c602090815260408083208784528252808320839055838352600d825280832087845290915281205561134090610e41565b336000818152600b6020908152604080832087845290915281205561136490610e92565b604080518381526020810183905233916000805160206133bd833981519152910160405180910390a25b505050808061139c9061328b565b9150506112a2565b50506001600655565b6060600480546107a2906131e2565b3360009081526001602090815260408083206001600160a01b03861684529091528120548281101561143e5760405162461bcd60e51b815260206004820152602560248201527f45524332303a2064656372656173656420616c6c6f77616e63652062656c6f77604482015264207a65726f60d81b6064820152608401610a0a565b61144b3385858403611d50565b5060019392505050565b60055461010090046001600160a01b031633146114845760405162461bcd60e51b8152600401610a0a906132db565b61c3508111156114d65760405162461bcd60e51b815260206004820152601e60248201527f7769746864726177616c2070656e616c747920697320746f6f206869676800006044820152606401610a0a565b600a81905560405181907fa7d10353d34f5fe96bad91fa358f55fbea8ad6ee0d30924022d2b58e77f476e390600090a250565b6000610832338484611e8a565b6001600160a01b0381166000908152600e602052604081206060919061153b90611e74565b90508067ffffffffffffffff81111561155657611556613310565b6040519080825280602002602001820160405280156115b257816020015b61159f6040518060800160405280600081526020016000815260200160008152602001600081525090565b8152602001906001900390816115745790505b50915060005b818110156110f3576001600160a01b0384166000908152600e602052604081206115e29083611e7e565b604080516080810182526001600160a01b0388166000818152600c60209081528482208683528152848220548452808401869052828252600b815284822086835281528482205484860152918152600d82528381208582529091529190912054606082015285519192509085908490811061165f5761165f613326565b60200260200101819052505080806116769061328b565b9150506115b8565b6009548210156116c75760405162461bcd60e51b81526020600482015260146024820152731b195cdcc81d1a185b881b5a5b88185b5bdd5b9d60621b6044820152606401610a0a565b6116d233838361226a565b5050565b60055461010090046001600160a01b031633146117055760405162461bcd60e51b8152600401610a0a906132db565b600981905560405181907f9a8dc7fb9d13b0f5acaf673226d570d31ec15d8a813fceced1eb36ad11afebc590600090a250565b600061174961044762015180613232565b6117576361cf8b70846132a4565b610fef9085613232565b42600061176e82846132a4565b9050610e108110156117c25760405162461bcd60e51b815260206004820152601b60248201527f566f74696e67206c6f636b2063616e204d494e54494d45206d696e00000000006044820152606401610a0a565b6117d161044762015180613232565b8111156118205760405162461bcd60e51b815260206004820152601b60248201527f566f74696e67206c6f636b2063616e204d415854494d45206d617800000000006044820152606401610a0a565b61182c33868686612406565b5050505050565b42600061184082856132a4565b905060095485101561188b5760405162461bcd60e51b81526020600482015260146024820152731b195cdcc81d1a185b881b5a5b88185b5bdd5b9d60621b6044820152606401610a0a565b610e108110156118d45760405162461bcd60e51b815260206004820152601460248201527353686f72746572207468616e204d494e54494d4560601b6044820152606401610a0a565b6118e361044762015180613232565b8111156119285760405162461bcd60e51b81526020600482015260136024820152724c6f6e676572207468616e204d415854494d4560681b6044820152606401610a0a565b61182c83868661276a565b6006546001146119555760405162461bcd60e51b8152600401610a0a906132bb565b60006006819055611968600e8233611278565b905060005b818110156113a457600061198482600e83336112b5565b336000908152600c60209081526040808320848452909152902054909150428115611a885782811015611a01576000620186a0600a54846119c59190613232565b6119cf9190613251565b90506119da816121e2565b6119e481846132a4565b336000908152600c60209081526040808320888452909152902055505b336000818152600c602090815260408083208784528252808320839055838352600d8252808320878452909152812055611a3a90610c1e565b336000818152600b60209081526040808320878452909152812055611a5e90610e92565b604080518381526020810183905233916000805160206133bd833981519152910160405180910390a25b5050508080611a969061328b565b91505061196d565b336000908152600c60209081526040808320858452909152812054611acb85670de0b6b3a7640000613232565b611ad59190613251565b336000908152600b6020908152604080832087845290915281205491925090670de0b6b3a764000090611b089084613232565b611b129190613251565b9050611b2030338184611c3a565b61182c33868387876128d6565b611b3c61044762015180613232565b81565b60055461010090046001600160a01b03163314611b6e5760405162461bcd60e51b8152600401610a0a906132db565b6001600160a01b038116611bd35760405162461bcd60e51b815260206004820152602660248201527f4f776e61626c653a206e6577206f776e657220697320746865207a65726f206160448201526564647265737360d01b6064820152608401610a0a565b6005546040516001600160a01b0380841692610100900416907f8be0079c531659141344cd1fd0a4f28419497f9722a3daafe3b4186f6b6457e090600090a3600580546001600160a01b0390921661010002610100600160a81b0319909216919091179055565b6040516001600160a01b0380851660248301528316604482015260648101829052611ca59085906323b872dd60e01b906084015b60408051601f198184030181529190526020810180516001600160e01b03166001600160e01b0319909316929092179091526129ce565b50505050565b6001600160a01b0383166000818152600c60209081526040808320858452825280832054938352600b8252808320858452909152902054611cee91908385612aa2565b6001600160a01b0383166000818152600c602090815260408083208584528252808320839055838352600b82528083208584528252808320839055838352600d82528083208584528252808320839055928252600e905220611ca590826121a6565b6001600160a01b038316611db25760405162461bcd60e51b8152602060048201526024808201527f45524332303a20617070726f76652066726f6d20746865207a65726f206164646044820152637265737360e01b6064820152608401610a0a565b6001600160a01b038216611e135760405162461bcd60e51b815260206004820152602260248201527f45524332303a20617070726f766520746f20746865207a65726f206164647265604482015261737360f01b6064820152608401610a0a565b6001600160a01b0383811660008181526001602090815260408083209487168084529482529182902085905590518481527f8c5be1e5ebec7d5bd14f71427d1e84f3dd0314c0f7b2291e5b200ac8c7c3b925910160405180910390a3505050565b6000610836825490565b6000610ff98383612c18565b6001600160a01b038316611eee5760405162461bcd60e51b815260206004820152602560248201527f45524332303a207472616e736665722066726f6d20746865207a65726f206164604482015264647265737360d81b6064820152608401610a0a565b6001600160a01b038216611f505760405162461bcd60e51b815260206004820152602360248201527f45524332303a207472616e7366657220746f20746865207a65726f206164647260448201526265737360e81b6064820152608401610a0a565b6001600160a01b03831660009081526020819052604090205481811015611fc85760405162461bcd60e51b815260206004820152602660248201527f45524332303a207472616e7366657220616d6f756e7420657863656564732062604482015265616c616e636560d01b6064820152608401610a0a565b6001600160a01b03808516600090815260208190526040808220858503905591851681529081208054849290611fff908490613273565b92505081905550826001600160a01b0316846001600160a01b03167fddf252ad1be2c89b69c2b068fc378daa952ba7f163c4a11628f55a4df523b3ef8460405161204b91815260200190565b60405180910390a3611ca5565b6001600160a01b0382166120b85760405162461bcd60e51b815260206004820152602160248201527f45524332303a206275726e2066726f6d20746865207a65726f206164647265736044820152607360f81b6064820152608401610a0a565b6001600160a01b0382166000908152602081905260409020548181101561212c5760405162461bcd60e51b815260206004820152602260248201527f45524332303a206275726e20616d6f756e7420657863656564732062616c616e604482015261636560f01b6064820152608401610a0a565b6001600160a01b038316600090815260208190526040812083830390556002805484929061215b9084906132a4565b90915550506040518281526000906001600160a01b038516907fddf252ad1be2c89b69c2b068fc378daa952ba7f163c4a11628f55a4df523b3ef9060200160405180910390a3505050565b6000610ff98383612c42565b6040516001600160a01b03831660248201526044810182905261078e90849063a9059cbb60e01b90606401611c6e565b6008546001600160a01b03161561221057600854600754610acb916001600160a01b039182169116836121b2565b600754604051630852cd8d60e31b8152600481018390526001600160a01b03909116906342966c6890602401600060405180830381600087803b15801561225657600080fd5b505af115801561182c573d6000803e3d6000fd5b60065460011461228c5760405162461bcd60e51b8152600401610a0a906132bb565b6000600681905561229d8383611738565b6001600160a01b0385166000818152600c60209081526040808320878452825280832054938352600d825280832087845290915290205491925042916122e891869184918791612d35565b6001600160a01b0386166000818152600d60209081526040808320888452825280832094909455918152600c82528281208682529091529081208054869290612332908490613273565b9091555050816123545760405162461bcd60e51b8152600401610a0a9061333c565b61236c336007546001600160a01b0316903087611c3a565b6123768583612d90565b6001600160a01b0385166000908152600b60209081526040808320868452909152812080548492906123a9908490613273565b909155505060408051858152602081018590529081018290526001600160a01b038616907f36af321ec8d3c75236829c5317affd40ddb308863a1236d2d277a4025cccee1e9060600160405180910390a250506001600655505050565b6006546001146124285760405162461bcd60e51b8152600401610a0a906132bb565b600060068190556124398484611738565b905060006124478584611738565b6001600160a01b0387166000818152600c60209081526040808320898452825280832054938352600e90915290209192509042906124859086612e6f565b1561255d576001600160a01b0388166000818152600c60209081526040808320898452825280832054938352600d82528083208984529091529020546124d091899184918991612d35565b6001600160a01b0389166000818152600d602090815260408083208a8452825280832094909455918152600c8252828120888252909152908120805489929061251a908490613273565b90915550506001600160a01b0388166000908152600b6020908152604080832088845290915281208054859290612552908490613273565b909155506125f69050565b6001600160a01b0388166000908152600d6020908152604080832089845290915290205461259090829088908890612e87565b6001600160a01b0389166000818152600d602090815260408083208a8452825280832094909455828252600c815283822089835281528382208b9055828252600b81528382208983528152838220879055918152600e909152206125f49086612ec5565b505b818703612665576001600160a01b0388166000818152600c602090815260408083208a84528252808320839055838352600b82528083208a84528252808320839055838352600d82528083208a84528252808320839055928252600e90522061265f90876121a6565b506126d6565b6001600160a01b0388166000908152600c60209081526040808320898452909152812080548992906126989084906132a4565b90915550506001600160a01b0388166000908152600b60209081526040808320898452909152812080548692906126d09084906132a4565b90915550505b60006126e285856132a4565b9050600081116127045760405162461bcd60e51b8152600401610a0a9061333c565b61270e8982612d90565b60408051898152602081018890529081018390526001600160a01b038a16907f36af321ec8d3c75236829c5317affd40ddb308863a1236d2d277a4025cccee1e9060600160405180910390a25050600160065550505050505050565b60065460011461278c5760405162461bcd60e51b8152600401610a0a906132bb565b600060068190556001600160a01b0384168152600e602052604090206127b29082612e6f565b156127f15760405162461bcd60e51b815260206004820152600f60248201526e706f736974696f6e2065786973747360881b6044820152606401610a0a565b60006127fd8383611738565b90506000811161281f5760405162461bcd60e51b8152600401610a0a9061333c565b6001600160a01b038085166000908152600c6020908152604080832086845290915290208490556007546128569116853086611c3a565b6128608482612d90565b6001600160a01b0384166000818152600b602090815260408083208684528252808320859055928252600e9052206128989083612ec5565b506128a34283612ed1565b6001600160a01b039094166000908152600d60209081526040808320948352939052919091209290925550506001600655565b6001600160a01b0385166000908152600c602090815260408083208584529091529020548085111561294a5760405162461bcd60e51b815260206004820152601a60248201527f496e73756666696369656e742066756e647320696e204c6f636b0000000000006044820152606401610a0a565b61295685858585612aa2565b6001600160a01b0386166000908152600c60209081526040808320868452909152812080548792906129899084906132a4565b90915550506001600160a01b0386166000908152600b60209081526040808320868452909152812080548692906129c19084906132a4565b9091555050505050505050565b600080836001600160a01b0316836040516129e99190613368565b6000604051808303816000865af19150503d8060008114612a26576040519150601f19603f3d011682016040523d82523d6000602084013e612a2b565b606091505b50909250905081612a40573d6000803e3d6000fd5b80511580612a5d575080806020019051810190612a5d9190613384565b611ca55760405162461bcd60e51b815260206004820152601660248201527514d0519157d15490cc8c17d0d0531317d1905253115160521b6044820152606401610a0a565b6001600160a01b0381166000908152600e60205260408120612ac49084612e6f565b9050428115612ba0576001600160a01b0383166000908152600b6020908152604080832087845290915281208054879290612b00908490613273565b90915550506001600160a01b0383166000818152600c60209081526040808320888452825280832054938352600d8252808320888452909152902054612b4b91889184918891612d35565b6001600160a01b0384166000818152600d60209081526040808320898452825280832094909455918152600c82528281208782529091529081208054889290612b95908490613273565b90915550612c109050565b612baa8185612ed1565b6001600160a01b0384166000818152600d60209081526040808320898452825280832094909455828252600c815283822088835281528382208a9055828252600b81528382208883528152838220899055918152600e90915220612c0e9085612ec5565b505b505050505050565b6000826000018281548110612c2f57612c2f613326565b9060005260206000200154905092915050565b60008181526001830160205260408120548015612d2b576000612c666001836132a4565b8554909150600090612c7a906001906132a4565b9050818114612cdf576000866000018281548110612c9a57612c9a613326565b9060005260206000200154905080876000018481548110612cbd57612cbd613326565b6000918252602080832090910192909255918252600188019052604090208390555b8554869080612cf057612cf06133a6565b600190038181906000526020600020016000905590558560010160008681526020019081526020016000206000905560019350505050610836565b6000915050610836565b6000670de0b6b3a7640000612d4a8488613273565b612d548787612ed1565b612d5e9089613232565b612d688587613232565b612d729190613273565b612d7c9190613251565b612d869190613251565b9695505050505050565b6001600160a01b038216612de65760405162461bcd60e51b815260206004820152601f60248201527f45524332303a206d696e7420746f20746865207a65726f2061646472657373006044820152606401610a0a565b8060026000828254612df89190613273565b90915550506001600160a01b03821660009081526020819052604081208054839290612e25908490613273565b90915550506040518181526001600160a01b038316906000907fddf252ad1be2c89b69c2b068fc378daa952ba7f163c4a11628f55a4df523b3ef9060200160405180910390a35050565b60008181526001830160205260408120541515610ff9565b6000670de0b6b3a764000083612e9d8786612ed1565b612ea787876132a4565b612eb19190613232565b612ebb8588613232565b61095f9190613273565b6000610ff98383612efd565b6000612ee16361cf8b70836132a4565b612eeb84846132a4565b610fef90670de0b6b3a7640000613232565b6000818152600183016020526040812054612f4457508154600181810184556000848152602080822090930184905584548482528286019093526040902091909155610836565b506000610836565b80356001600160a01b0381168114612f6357600080fd5b919050565b60008060408385031215612f7b57600080fd5b82359150612f8b60208401612f4c565b90509250929050565b60005b83811015612faf578181015183820152602001612f97565b83811115611ca55750506000910152565b6020815260008251806020840152612fdf816040850160208701612f94565b601f01601f19169190910160400192915050565b6000806040838503121561300657600080fd5b61300f83612f4c565b946020939093013593505050565b60008060006060848603121561303257600080fd5b61303b84612f4c565b925061304960208501612f4c565b9150604084013590509250925092565b6000806040838503121561306c57600080fd5b50508035926020909101359150565b60006020828403121561308d57600080fd5b5035919050565b6000602082840312156130a657600080fd5b610ff982612f4c565b6020808252825182820181905260009190848201906040850190845b818110156130e7578351835292840192918401916001016130cb565b50909695505050505050565b602080825282518282018190526000919060409081850190868401855b8281101561314a57815180518552868101518786015285810151868601526060908101519085015260809093019290850190600101613110565b5091979650505050505050565b60008060006060848603121561316c57600080fd5b505081359360208301359350604090920135919050565b60008060006060848603121561319857600080fd5b83359250602084013591506131af60408501612f4c565b90509250925092565b600080604083850312156131cb57600080fd5b6131d483612f4c565b9150612f8b60208401612f4c565b600181811c908216806131f657607f821691505b60208210810361321657634e487b7160e01b600052602260045260246000fd5b50919050565b634e487b7160e01b600052601160045260246000fd5b600081600019048311821515161561324c5761324c61321c565b500290565b60008261326e57634e487b7160e01b600052601260045260246000fd5b500490565b600082198211156132865761328661321c565b500190565b60006001820161329d5761329d61321c565b5060010190565b6000828210156132b6576132b661321c565b500390565b6020808252600690820152651313d0d2d15160d21b604082015260600190565b6020808252818101527f4f776e61626c653a2063616c6c6572206973206e6f7420746865206f776e6572604082015260600190565b634e487b7160e01b600052604160045260246000fd5b634e487b7160e01b600052603260045260246000fd5b6020808252601290820152714e6f2062656e6566697420746f206c6f636b60701b604082015260600190565b6000825161337a818460208701612f94565b9190910192915050565b60006020828403121561339657600080fd5b81518015158114610ff957600080fd5b634e487b7160e01b600052603160045260246000fdfef279e6a1f5e320cca91135676d9cb6e44ca8a08c0b88342bcdb1144f6511b568a26469706673582212208ba5a6f2adab39a1af1c59f1f0595299f6b62a4b81f32cfb82e23b6d038eb08564736f6c634300080d0033",
    "sourcePath": "/home/achthar/requiem-staking/contracts/BloodRedRequiem.sol",
    "compiler": {
        "name": "solc",
        "version": "0.8.13+commit.abaa5c0e"
    },
    "functionHashes": {
        "MAXDAYS()": "1767c433",
        "MAXTIME()": "ee00ef3a",
        "MAX_WITHDRAWAL_PENALTY()": "2060176b",
        "MINDAYS()": "0f51c09c",
        "MINTIME()": "5b51c308",
        "PRECISION()": "aaf5eb68",
        "REF_DATE()": "478dc5ca",
        "allowance(address,address)": "dd62ed3e",
        "approve(address,uint256)": "095ea7b3",
        "balanceOf(address)": "70a08231",
        "burn(uint256)": "42966c68",
        "burnFrom(address,uint256)": "79cc6790",
        "create_lock(uint256,uint256,address)": "dcb69fbb",
        "decimals()": "313ce567",
        "decreaseAllowance(address,uint256)": "a457c2d7",
        "earlyWithdrawPenaltyRate()": "ae6ef65f",
        "emergencyWithdraw(uint256)": "5312ea8e",
        "emergencyWithdrawAll()": "dd191719",
        "get_amount_minted(uint256,uint256)": "d2713324",
        "get_locks(address)": "c1917a5a",
        "get_minted_for_lock(address,uint256)": "bf201c7f",
        "get_minted_for_locks(address)": "76b15a57",
        "get_share(address)": "79c1d664",
        "get_voting_power(address,uint256)": "0e44e39e",
        "increaseAllowance(address,uint256)": "39509351",
        "increase_position(uint256,uint256)": "c84de300",
        "increase_time_to_maturity(uint256,uint256,uint256)": "d982523f",
        "lockedPosition(address,uint256)": "69edaf34",
        "lockedToken()": "0f45cc81",
        "locked_of(address,uint256)": "a650adbd",
        "minLockedAmount()": "a25b39b7",
        "mintedForLock(address,uint256)": "f4da99c7",
        "multipliers(address,uint256)": "af62fe0e",
        "name()": "06fdde03",
        "owner()": "8da5cb5b",
        "penaltyCollector()": "308097b2",
        "renounceOwnership()": "715018a6",
        "setEarlyWithdrawPenaltyRate(uint256)": "a8a4a376",
        "setMinLockedAmount(uint256)": "d08a12ff",
        "setPenaltyCollector(address)": "5b7d8f05",
        "symbol()": "95d89b41",
        "totalSupply()": "18160ddd",
        "transfer(address,uint256)": "a9059cbb",
        "transferFrom(address,address,uint256)": "23b872dd",
        "transferFullLock(uint256,address)": "063da9df",
        "transferLockShare(uint256,uint256,address)": "ed873271",
        "transferOwnership(address)": "f2fde38b",
        "voting_power_locked_days(uint256,uint256)": "73426cff",
        "voting_power_unlock_time(uint256,uint256)": "38b4321b",
        "withdraw(uint256,uint256)": "441a3e70",
        "withdrawAll()": "853828b6"
    },
    "gasEstimates": {
        "creation": {
            "codeDepositCost": "2666000",
            "executionCost": "infinite",
            "totalCost": "infinite"
        },
        "external": {
            "MAXDAYS()": "241",
            "MAXTIME()": "384",
            "MAX_WITHDRAWAL_PENALTY()": "285",
            "MINDAYS()": "352",
            "MINTIME()": "263",
            "PRECISION()": "284",
            "REF_DATE()": "329",
            "allowance(address,address)": "infinite",
            "approve(address,uint256)": "24688",
            "balanceOf(address)": "2607",
            "burn(uint256)": "50939",
            "burnFrom(address,uint256)": "77562",
            "create_lock(uint256,uint256,address)": "infinite",
            "decimals()": "2445",
            "decreaseAllowance(address,uint256)": "26956",
            "earlyWithdrawPenaltyRate()": "2406",
            "emergencyWithdraw(uint256)": "infinite",
            "emergencyWithdrawAll()": "infinite",
            "get_amount_minted(uint256,uint256)": "infinite",
            "get_locks(address)": "infinite",
            "get_minted_for_lock(address,uint256)": "2678",
            "get_minted_for_locks(address)": "infinite",
            "get_share(address)": "infinite",
            "get_voting_power(address,uint256)": "infinite",
            "increaseAllowance(address,uint256)": "27003",
            "increase_position(uint256,uint256)": "infinite",
            "increase_time_to_maturity(uint256,uint256,uint256)": "infinite",
            "lockedPosition(address,uint256)": "2724",
            "lockedToken()": "2472",
            "locked_of(address,uint256)": "2726",
            "minLockedAmount()": "2451",
            "mintedForLock(address,uint256)": "2744",
            "multipliers(address,uint256)": "2745",
            "name()": "infinite",
            "owner()": "2454",
            "penaltyCollector()": "2471",
            "renounceOwnership()": "30273",
            "setEarlyWithdrawPenaltyRate(uint256)": "25770",
            "setMinLockedAmount(uint256)": "25743",
            "setPenaltyCollector(address)": "27951",
            "symbol()": "infinite",
            "totalSupply()": "2360",
            "transfer(address,uint256)": "51245",
            "transferFrom(address,address,uint256)": "infinite",
            "transferFullLock(uint256,address)": "infinite",
            "transferLockShare(uint256,uint256,address)": "infinite",
            "transferOwnership(address)": "30543",
            "voting_power_locked_days(uint256,uint256)": "605",
            "voting_power_unlock_time(uint256,uint256)": "infinite",
            "withdraw(uint256,uint256)": "infinite",
            "withdrawAll()": "infinite"
        },
        "internal": {
            "_calculate_adjusted_multiplier_maturity(uint256,uint256,uint256,uint256)": "infinite",
            "_calculate_adjusted_multiplier_position(uint256,uint256,uint256,uint256,uint256)": "infinite",
            "_calculate_multiplier(uint256,uint256)": "infinite",
            "_create_lock(address,uint256,uint256)": "infinite",
            "_extend_maturity(address,uint256,uint256,uint256)": "infinite",
            "_getEarliestEnd(address)": "infinite",
            "_getLatestEnd(address)": "infinite",
            "_increase_position(address,uint256,uint256)": "infinite",
            "_penalize(uint256)": "infinite",
            "_receiveLock(uint256,uint256,uint256,address)": "infinite",
            "_transferFullLock(address,address,uint256)": "infinite",
            "_transferLockShare(address,uint256,uint256,uint256,address)": "infinite"
        }
    }
}