{
    "contractName": "RequiemTreasury",
    "abi": [
        {
            "inputs": [
                {
                    "internalType": "address",
                    "name": "_REQT",
                    "type": "address"
                },
                {
                    "internalType": "address",
                    "name": "_DAI",
                    "type": "address"
                },
                {
                    "internalType": "address",
                    "name": "_Frax",
                    "type": "address"
                },
                {
                    "internalType": "address",
                    "name": "_REQTDAI",
                    "type": "address"
                },
                {
                    "internalType": "uint256",
                    "name": "_blocksNeededForQueue",
                    "type": "uint256"
                }
            ],
            "stateMutability": "nonpayable",
            "type": "constructor"
        },
        {
            "anonymous": false,
            "inputs": [
                {
                    "indexed": true,
                    "internalType": "enum RequiemTreasury.MANAGING",
                    "name": "managing",
                    "type": "uint8"
                },
                {
                    "indexed": false,
                    "internalType": "address",
                    "name": "activated",
                    "type": "address"
                },
                {
                    "indexed": false,
                    "internalType": "bool",
                    "name": "result",
                    "type": "bool"
                }
            ],
            "name": "ChangeActivated",
            "type": "event"
        },
        {
            "anonymous": false,
            "inputs": [
                {
                    "indexed": true,
                    "internalType": "enum RequiemTreasury.MANAGING",
                    "name": "managing",
                    "type": "uint8"
                },
                {
                    "indexed": false,
                    "internalType": "address",
                    "name": "queued",
                    "type": "address"
                }
            ],
            "name": "ChangeQueued",
            "type": "event"
        },
        {
            "anonymous": false,
            "inputs": [
                {
                    "indexed": true,
                    "internalType": "address",
                    "name": "debtor",
                    "type": "address"
                },
                {
                    "indexed": true,
                    "internalType": "address",
                    "name": "token",
                    "type": "address"
                },
                {
                    "indexed": false,
                    "internalType": "uint256",
                    "name": "amount",
                    "type": "uint256"
                },
                {
                    "indexed": false,
                    "internalType": "uint256",
                    "name": "value",
                    "type": "uint256"
                }
            ],
            "name": "CreateDebt",
            "type": "event"
        },
        {
            "anonymous": false,
            "inputs": [
                {
                    "indexed": true,
                    "internalType": "address",
                    "name": "token",
                    "type": "address"
                },
                {
                    "indexed": false,
                    "internalType": "uint256",
                    "name": "amount",
                    "type": "uint256"
                },
                {
                    "indexed": false,
                    "internalType": "uint256",
                    "name": "value",
                    "type": "uint256"
                }
            ],
            "name": "Deposit",
            "type": "event"
        },
        {
            "anonymous": false,
            "inputs": [
                {
                    "indexed": true,
                    "internalType": "address",
                    "name": "previousOwner",
                    "type": "address"
                },
                {
                    "indexed": true,
                    "internalType": "address",
                    "name": "newOwner",
                    "type": "address"
                }
            ],
            "name": "OwnershipPulled",
            "type": "event"
        },
        {
            "anonymous": false,
            "inputs": [
                {
                    "indexed": true,
                    "internalType": "address",
                    "name": "previousOwner",
                    "type": "address"
                },
                {
                    "indexed": true,
                    "internalType": "address",
                    "name": "newOwner",
                    "type": "address"
                }
            ],
            "name": "OwnershipPushed",
            "type": "event"
        },
        {
            "anonymous": false,
            "inputs": [
                {
                    "indexed": true,
                    "internalType": "address",
                    "name": "debtor",
                    "type": "address"
                },
                {
                    "indexed": true,
                    "internalType": "address",
                    "name": "token",
                    "type": "address"
                },
                {
                    "indexed": false,
                    "internalType": "uint256",
                    "name": "amount",
                    "type": "uint256"
                },
                {
                    "indexed": false,
                    "internalType": "uint256",
                    "name": "value",
                    "type": "uint256"
                }
            ],
            "name": "RepayDebt",
            "type": "event"
        },
        {
            "anonymous": false,
            "inputs": [
                {
                    "indexed": true,
                    "internalType": "uint256",
                    "name": "totalReserves",
                    "type": "uint256"
                }
            ],
            "name": "ReservesAudited",
            "type": "event"
        },
        {
            "anonymous": false,
            "inputs": [
                {
                    "indexed": true,
                    "internalType": "address",
                    "name": "token",
                    "type": "address"
                },
                {
                    "indexed": false,
                    "internalType": "uint256",
                    "name": "amount",
                    "type": "uint256"
                }
            ],
            "name": "ReservesManaged",
            "type": "event"
        },
        {
            "anonymous": false,
            "inputs": [
                {
                    "indexed": true,
                    "internalType": "uint256",
                    "name": "totalReserves",
                    "type": "uint256"
                }
            ],
            "name": "ReservesUpdated",
            "type": "event"
        },
        {
            "anonymous": false,
            "inputs": [
                {
                    "indexed": true,
                    "internalType": "address",
                    "name": "caller",
                    "type": "address"
                },
                {
                    "indexed": true,
                    "internalType": "address",
                    "name": "recipient",
                    "type": "address"
                },
                {
                    "indexed": false,
                    "internalType": "uint256",
                    "name": "amount",
                    "type": "uint256"
                }
            ],
            "name": "RewardsMinted",
            "type": "event"
        },
        {
            "anonymous": false,
            "inputs": [
                {
                    "indexed": true,
                    "internalType": "address",
                    "name": "token",
                    "type": "address"
                },
                {
                    "indexed": false,
                    "internalType": "uint256",
                    "name": "amount",
                    "type": "uint256"
                },
                {
                    "indexed": false,
                    "internalType": "uint256",
                    "name": "value",
                    "type": "uint256"
                }
            ],
            "name": "Withdrawal",
            "type": "event"
        },
        {
            "inputs": [
                {
                    "internalType": "address",
                    "name": "",
                    "type": "address"
                }
            ],
            "name": "LiquidityDepositorQueue",
            "outputs": [
                {
                    "internalType": "uint256",
                    "name": "",
                    "type": "uint256"
                }
            ],
            "stateMutability": "view",
            "type": "function"
        },
        {
            "inputs": [
                {
                    "internalType": "address",
                    "name": "",
                    "type": "address"
                }
            ],
            "name": "LiquidityManagerQueue",
            "outputs": [
                {
                    "internalType": "uint256",
                    "name": "",
                    "type": "uint256"
                }
            ],
            "stateMutability": "view",
            "type": "function"
        },
        {
            "inputs": [
                {
                    "internalType": "address",
                    "name": "",
                    "type": "address"
                }
            ],
            "name": "LiquidityTokenQueue",
            "outputs": [
                {
                    "internalType": "uint256",
                    "name": "",
                    "type": "uint256"
                }
            ],
            "stateMutability": "view",
            "type": "function"
        },
        {
            "inputs": [],
            "name": "REQT",
            "outputs": [
                {
                    "internalType": "address",
                    "name": "",
                    "type": "address"
                }
            ],
            "stateMutability": "view",
            "type": "function"
        },
        {
            "inputs": [
                {
                    "internalType": "address",
                    "name": "",
                    "type": "address"
                }
            ],
            "name": "ReserveManagerQueue",
            "outputs": [
                {
                    "internalType": "uint256",
                    "name": "",
                    "type": "uint256"
                }
            ],
            "stateMutability": "view",
            "type": "function"
        },
        {
            "inputs": [],
            "name": "auditReserves",
            "outputs": [],
            "stateMutability": "nonpayable",
            "type": "function"
        },
        {
            "inputs": [],
            "name": "blocksNeededForQueue",
            "outputs": [
                {
                    "internalType": "uint256",
                    "name": "",
                    "type": "uint256"
                }
            ],
            "stateMutability": "view",
            "type": "function"
        },
        {
            "inputs": [
                {
                    "internalType": "address",
                    "name": "",
                    "type": "address"
                }
            ],
            "name": "bondCalculator",
            "outputs": [
                {
                    "internalType": "address",
                    "name": "",
                    "type": "address"
                }
            ],
            "stateMutability": "view",
            "type": "function"
        },
        {
            "inputs": [
                {
                    "internalType": "address",
                    "name": "",
                    "type": "address"
                }
            ],
            "name": "debtorBalance",
            "outputs": [
                {
                    "internalType": "uint256",
                    "name": "",
                    "type": "uint256"
                }
            ],
            "stateMutability": "view",
            "type": "function"
        },
        {
            "inputs": [
                {
                    "internalType": "address",
                    "name": "",
                    "type": "address"
                }
            ],
            "name": "debtorQueue",
            "outputs": [
                {
                    "internalType": "uint256",
                    "name": "",
                    "type": "uint256"
                }
            ],
            "stateMutability": "view",
            "type": "function"
        },
        {
            "inputs": [
                {
                    "internalType": "uint256",
                    "name": "",
                    "type": "uint256"
                }
            ],
            "name": "debtors",
            "outputs": [
                {
                    "internalType": "address",
                    "name": "",
                    "type": "address"
                }
            ],
            "stateMutability": "view",
            "type": "function"
        },
        {
            "inputs": [
                {
                    "internalType": "uint256",
                    "name": "_amount",
                    "type": "uint256"
                },
                {
                    "internalType": "address",
                    "name": "_token",
                    "type": "address"
                },
                {
                    "internalType": "uint256",
                    "name": "_profit",
                    "type": "uint256"
                }
            ],
            "name": "deposit",
            "outputs": [
                {
                    "internalType": "uint256",
                    "name": "send_",
                    "type": "uint256"
                }
            ],
            "stateMutability": "nonpayable",
            "type": "function"
        },
        {
            "inputs": [],
            "name": "excessReserves",
            "outputs": [
                {
                    "internalType": "uint256",
                    "name": "",
                    "type": "uint256"
                }
            ],
            "stateMutability": "view",
            "type": "function"
        },
        {
            "inputs": [
                {
                    "internalType": "uint256",
                    "name": "_amount",
                    "type": "uint256"
                },
                {
                    "internalType": "address",
                    "name": "_token",
                    "type": "address"
                }
            ],
            "name": "incurDebt",
            "outputs": [],
            "stateMutability": "nonpayable",
            "type": "function"
        },
        {
            "inputs": [
                {
                    "internalType": "address",
                    "name": "",
                    "type": "address"
                }
            ],
            "name": "isDebtor",
            "outputs": [
                {
                    "internalType": "bool",
                    "name": "",
                    "type": "bool"
                }
            ],
            "stateMutability": "view",
            "type": "function"
        },
        {
            "inputs": [
                {
                    "internalType": "address",
                    "name": "",
                    "type": "address"
                }
            ],
            "name": "isLiquidityDepositor",
            "outputs": [
                {
                    "internalType": "bool",
                    "name": "",
                    "type": "bool"
                }
            ],
            "stateMutability": "view",
            "type": "function"
        },
        {
            "inputs": [
                {
                    "internalType": "address",
                    "name": "",
                    "type": "address"
                }
            ],
            "name": "isLiquidityManager",
            "outputs": [
                {
                    "internalType": "bool",
                    "name": "",
                    "type": "bool"
                }
            ],
            "stateMutability": "view",
            "type": "function"
        },
        {
            "inputs": [
                {
                    "internalType": "address",
                    "name": "",
                    "type": "address"
                }
            ],
            "name": "isLiquidityToken",
            "outputs": [
                {
                    "internalType": "bool",
                    "name": "",
                    "type": "bool"
                }
            ],
            "stateMutability": "view",
            "type": "function"
        },
        {
            "inputs": [
                {
                    "internalType": "address",
                    "name": "",
                    "type": "address"
                }
            ],
            "name": "isReserveDepositor",
            "outputs": [
                {
                    "internalType": "bool",
                    "name": "",
                    "type": "bool"
                }
            ],
            "stateMutability": "view",
            "type": "function"
        },
        {
            "inputs": [
                {
                    "internalType": "address",
                    "name": "",
                    "type": "address"
                }
            ],
            "name": "isReserveManager",
            "outputs": [
                {
                    "internalType": "bool",
                    "name": "",
                    "type": "bool"
                }
            ],
            "stateMutability": "view",
            "type": "function"
        },
        {
            "inputs": [
                {
                    "internalType": "address",
                    "name": "",
                    "type": "address"
                }
            ],
            "name": "isReserveSpender",
            "outputs": [
                {
                    "internalType": "bool",
                    "name": "",
                    "type": "bool"
                }
            ],
            "stateMutability": "view",
            "type": "function"
        },
        {
            "inputs": [
                {
                    "internalType": "address",
                    "name": "",
                    "type": "address"
                }
            ],
            "name": "isReserveToken",
            "outputs": [
                {
                    "internalType": "bool",
                    "name": "",
                    "type": "bool"
                }
            ],
            "stateMutability": "view",
            "type": "function"
        },
        {
            "inputs": [
                {
                    "internalType": "address",
                    "name": "",
                    "type": "address"
                }
            ],
            "name": "isRewardManager",
            "outputs": [
                {
                    "internalType": "bool",
                    "name": "",
                    "type": "bool"
                }
            ],
            "stateMutability": "view",
            "type": "function"
        },
        {
            "inputs": [
                {
                    "internalType": "uint256",
                    "name": "",
                    "type": "uint256"
                }
            ],
            "name": "liquidityDepositors",
            "outputs": [
                {
                    "internalType": "address",
                    "name": "",
                    "type": "address"
                }
            ],
            "stateMutability": "view",
            "type": "function"
        },
        {
            "inputs": [
                {
                    "internalType": "uint256",
                    "name": "",
                    "type": "uint256"
                }
            ],
            "name": "liquidityManagers",
            "outputs": [
                {
                    "internalType": "address",
                    "name": "",
                    "type": "address"
                }
            ],
            "stateMutability": "view",
            "type": "function"
        },
        {
            "inputs": [
                {
                    "internalType": "uint256",
                    "name": "",
                    "type": "uint256"
                }
            ],
            "name": "liquidityTokens",
            "outputs": [
                {
                    "internalType": "address",
                    "name": "",
                    "type": "address"
                }
            ],
            "stateMutability": "view",
            "type": "function"
        },
        {
            "inputs": [
                {
                    "internalType": "address",
                    "name": "_token",
                    "type": "address"
                },
                {
                    "internalType": "uint256",
                    "name": "_amount",
                    "type": "uint256"
                }
            ],
            "name": "manage",
            "outputs": [],
            "stateMutability": "nonpayable",
            "type": "function"
        },
        {
            "inputs": [
                {
                    "internalType": "address",
                    "name": "_recipient",
                    "type": "address"
                },
                {
                    "internalType": "uint256",
                    "name": "_amount",
                    "type": "uint256"
                }
            ],
            "name": "mintRewards",
            "outputs": [],
            "stateMutability": "nonpayable",
            "type": "function"
        },
        {
            "inputs": [],
            "name": "policy",
            "outputs": [
                {
                    "internalType": "address",
                    "name": "",
                    "type": "address"
                }
            ],
            "stateMutability": "view",
            "type": "function"
        },
        {
            "inputs": [],
            "name": "pullManagement",
            "outputs": [],
            "stateMutability": "nonpayable",
            "type": "function"
        },
        {
            "inputs": [
                {
                    "internalType": "address",
                    "name": "newOwner_",
                    "type": "address"
                }
            ],
            "name": "pushManagement",
            "outputs": [],
            "stateMutability": "nonpayable",
            "type": "function"
        },
        {
            "inputs": [
                {
                    "internalType": "enum RequiemTreasury.MANAGING",
                    "name": "_managing",
                    "type": "uint8"
                },
                {
                    "internalType": "address",
                    "name": "_address",
                    "type": "address"
                }
            ],
            "name": "queue",
            "outputs": [
                {
                    "internalType": "bool",
                    "name": "",
                    "type": "bool"
                }
            ],
            "stateMutability": "nonpayable",
            "type": "function"
        },
        {
            "inputs": [],
            "name": "renounceManagement",
            "outputs": [],
            "stateMutability": "nonpayable",
            "type": "function"
        },
        {
            "inputs": [
                {
                    "internalType": "uint256",
                    "name": "_amount",
                    "type": "uint256"
                }
            ],
            "name": "repayDebtWithREQT",
            "outputs": [],
            "stateMutability": "nonpayable",
            "type": "function"
        },
        {
            "inputs": [
                {
                    "internalType": "uint256",
                    "name": "_amount",
                    "type": "uint256"
                },
                {
                    "internalType": "address",
                    "name": "_token",
                    "type": "address"
                }
            ],
            "name": "repayDebtWithReserve",
            "outputs": [],
            "stateMutability": "nonpayable",
            "type": "function"
        },
        {
            "inputs": [
                {
                    "internalType": "address",
                    "name": "",
                    "type": "address"
                }
            ],
            "name": "reserveDepositorQueue",
            "outputs": [
                {
                    "internalType": "uint256",
                    "name": "",
                    "type": "uint256"
                }
            ],
            "stateMutability": "view",
            "type": "function"
        },
        {
            "inputs": [
                {
                    "internalType": "uint256",
                    "name": "",
                    "type": "uint256"
                }
            ],
            "name": "reserveDepositors",
            "outputs": [
                {
                    "internalType": "address",
                    "name": "",
                    "type": "address"
                }
            ],
            "stateMutability": "view",
            "type": "function"
        },
        {
            "inputs": [
                {
                    "internalType": "uint256",
                    "name": "",
                    "type": "uint256"
                }
            ],
            "name": "reserveManagers",
            "outputs": [
                {
                    "internalType": "address",
                    "name": "",
                    "type": "address"
                }
            ],
            "stateMutability": "view",
            "type": "function"
        },
        {
            "inputs": [
                {
                    "internalType": "address",
                    "name": "",
                    "type": "address"
                }
            ],
            "name": "reserveSpenderQueue",
            "outputs": [
                {
                    "internalType": "uint256",
                    "name": "",
                    "type": "uint256"
                }
            ],
            "stateMutability": "view",
            "type": "function"
        },
        {
            "inputs": [
                {
                    "internalType": "uint256",
                    "name": "",
                    "type": "uint256"
                }
            ],
            "name": "reserveSpenders",
            "outputs": [
                {
                    "internalType": "address",
                    "name": "",
                    "type": "address"
                }
            ],
            "stateMutability": "view",
            "type": "function"
        },
        {
            "inputs": [
                {
                    "internalType": "address",
                    "name": "",
                    "type": "address"
                }
            ],
            "name": "reserveTokenQueue",
            "outputs": [
                {
                    "internalType": "uint256",
                    "name": "",
                    "type": "uint256"
                }
            ],
            "stateMutability": "view",
            "type": "function"
        },
        {
            "inputs": [
                {
                    "internalType": "uint256",
                    "name": "",
                    "type": "uint256"
                }
            ],
            "name": "reserveTokens",
            "outputs": [
                {
                    "internalType": "address",
                    "name": "",
                    "type": "address"
                }
            ],
            "stateMutability": "view",
            "type": "function"
        },
        {
            "inputs": [
                {
                    "internalType": "address",
                    "name": "",
                    "type": "address"
                }
            ],
            "name": "rewardManagerQueue",
            "outputs": [
                {
                    "internalType": "uint256",
                    "name": "",
                    "type": "uint256"
                }
            ],
            "stateMutability": "view",
            "type": "function"
        },
        {
            "inputs": [
                {
                    "internalType": "uint256",
                    "name": "",
                    "type": "uint256"
                }
            ],
            "name": "rewardManagers",
            "outputs": [
                {
                    "internalType": "address",
                    "name": "",
                    "type": "address"
                }
            ],
            "stateMutability": "view",
            "type": "function"
        },
        {
            "inputs": [],
            "name": "sREQT",
            "outputs": [
                {
                    "internalType": "address",
                    "name": "",
                    "type": "address"
                }
            ],
            "stateMutability": "view",
            "type": "function"
        },
        {
            "inputs": [],
            "name": "sREQTQueue",
            "outputs": [
                {
                    "internalType": "uint256",
                    "name": "",
                    "type": "uint256"
                }
            ],
            "stateMutability": "view",
            "type": "function"
        },
        {
            "inputs": [
                {
                    "internalType": "enum RequiemTreasury.MANAGING",
                    "name": "_managing",
                    "type": "uint8"
                },
                {
                    "internalType": "address",
                    "name": "_address",
                    "type": "address"
                },
                {
                    "internalType": "address",
                    "name": "_calculator",
                    "type": "address"
                }
            ],
            "name": "toggle",
            "outputs": [
                {
                    "internalType": "bool",
                    "name": "",
                    "type": "bool"
                }
            ],
            "stateMutability": "nonpayable",
            "type": "function"
        },
        {
            "inputs": [],
            "name": "totalDebt",
            "outputs": [
                {
                    "internalType": "uint256",
                    "name": "",
                    "type": "uint256"
                }
            ],
            "stateMutability": "view",
            "type": "function"
        },
        {
            "inputs": [],
            "name": "totalReserves",
            "outputs": [
                {
                    "internalType": "uint256",
                    "name": "",
                    "type": "uint256"
                }
            ],
            "stateMutability": "view",
            "type": "function"
        },
        {
            "inputs": [
                {
                    "internalType": "address",
                    "name": "_token",
                    "type": "address"
                },
                {
                    "internalType": "uint256",
                    "name": "_amount",
                    "type": "uint256"
                }
            ],
            "name": "valueOf",
            "outputs": [
                {
                    "internalType": "uint256",
                    "name": "value_",
                    "type": "uint256"
                }
            ],
            "stateMutability": "view",
            "type": "function"
        },
        {
            "inputs": [
                {
                    "internalType": "uint256",
                    "name": "_amount",
                    "type": "uint256"
                },
                {
                    "internalType": "address",
                    "name": "_token",
                    "type": "address"
                }
            ],
            "name": "withdraw",
            "outputs": [],
            "stateMutability": "nonpayable",
            "type": "function"
        }
    ],
    "bytecode": "60c06040523480156200001157600080fd5b50604051620031c7380380620031c7833981016040819052620000349162000195565b600080546001600160a01b0319163390811782556040519091907fea8258f2d9ddb679928cf34b78cf645b7feda9acc828e4dd82d014eaae270eba908290a36001600160a01b0385166200008757600080fd5b6001600160a01b0394851660805292841660008181526003602090815260408083208054600160ff1991821681179092556002805480840182557f405787fa12a823e0f2b7631cc41b3ba8828b3321ca811111fa75cd3aa3bb5ace90810180546001600160a01b03199081169099179055988b168087528487208054841685179055815480850190925598018054871690981790975594909716808352600c90915295812080549094168317909355600b805492830181559092527f0175b7a638427703f0dbe7bb9bbf987a2551717b34e79f33b5b1008d1fa01db901805490911690921790915560a052620001fc565b80516001600160a01b03811681146200019057600080fd5b919050565b600080600080600060a08688031215620001ae57600080fd5b620001b98662000178565b9450620001c96020870162000178565b9350620001d96040870162000178565b9250620001e96060870162000178565b9150608086015190509295509295909350565b60805160a051612f2e62000299600039600081816106cc01528181611ac501528181611b2701528181611b8901528181611beb01528181611c5801528181611cba01528181611d1c01528181611d8901528181611deb0152611e4d01526000818161030f0152818161089f01528181610b9801528181610f3d0152818161139f0152818161145101528181611614015261182f0152612f2e6000f3fe608060405234801561001057600080fd5b50600436106102f05760003560e01c806387d67dff1161019d578063d031370b116100e9578063ee4e19a1116100a2578063fbfd393b1161007c578063fbfd393b146107b0578063fc7b9c18146107c3578063fd1ec010146107cc578063fff9ee87146107df57600080fd5b8063ee4e19a11461075a578063fafbbc671461077d578063fb9395881461079057600080fd5b8063d031370b146106b4578063d07f390f146106c7578063d796ffb8146106ee578063df89b34414610701578063e83afee314610724578063ebd83cd81461073757600080fd5b8063a569e57111610156578063b5b1d56011610130578063b5b1d5601461064e578063bc157ac114610661578063c24ad43e14610674578063cd85641a1461069457600080fd5b8063a569e571146105eb578063ab319c9a1461060e578063b1bd38b01461062e57600080fd5b806387d67dff146105495780638f59c7271461056c5780638f6a7b571461058c5780638f840ddd1461059f578063932cc8c3146105a8578063a1210a2d146105c857600080fd5b80632b7ce5001161025c5780635a96ac0a116102155780636b5e40a7116101ef5780636b5e40a7146104f057806370a0502a14610503578063788c6c0114610516578063869871bf1461053657600080fd5b80635a96ac0a146104b257806368c31dd5146104ba5780636a20de92146104dd57600080fd5b80632b7ce50014610445578063437f79121461044d57806346f68ee9146104605780634e83423c146104735780634f997d581461049657806357fba4c3146104a957600080fd5b80630b0eee30116102ae5780630b0eee30146103a85780630c3513a8146103bb578063124154ca146103c357806312422d23146103f65780631af4da70146104095780631eec5a9a1461043257600080fd5b8062f714ce146102f557806302bb41e51461030a5780630505c8c91461034e5780630619aff11461035f578063089208d814610372578063094a86511461037a575b600080fd5b610308610303366004612ac3565b6107ff565b005b6103317f000000000000000000000000000000000000000000000000000000000000000081565b6040516001600160a01b0390911681526020015b60405180910390f35b6000546001600160a01b0316610331565b61033161036d366004612aef565b610992565b6103086109bc565b61039a610388366004612b08565b601b6020526000908152604090205481565b604051908152602001610345565b6103086103b6366004612b23565b610a30565b61039a610b91565b6103e66103d1366004612b08565b60066020526000908152604090205460ff1681565b6040519015158152602001610345565b610308610404366004612ac3565b610c34565b610331610417366004612b08565b6011602052600090815260409020546001600160a01b031681565b61039a610440366004612b23565b610ead565b610308611092565b61033161045b366004612aef565b61125a565b61030861046e366004612b08565b61126a565b6103e6610481366004612b08565b601d6020526000908152604090205460ff1681565b6103086104a4366004612aef565b611354565b61039a60205481565b6103086114aa565b6103e66104c8366004612b08565b60036020526000908152604090205460ff1681565b6103086104eb366004612b23565b611570565b6103316104fe366004612aef565b6116b4565b610331610511366004612aef565b6116c4565b61039a610524366004612b08565b60046020526000908152604090205481565b610331610544366004612aef565b6116d4565b6103e6610557366004612b08565b60096020526000908152604090205460ff1681565b61039a61057a366004612b08565b600d6020526000908152604090205481565b61033161059a366004612aef565b6116e4565b61039a60215481565b61039a6105b6366004612b08565b60076020526000908152604090205481565b6103e66105d6366004612b08565b600f6020526000908152604090205460ff1681565b6103e66105f9366004612b08565b600c6020526000908152604090205460ff1681565b61039a61061c366004612b08565b60176020526000908152604090205481565b61039a61063c366004612b08565b60146020526000908152604090205481565b61033161065c366004612aef565b6116f4565b61039a61066f366004612b4d565b611704565b61039a610682366004612b08565b600a6020526000908152604090205481565b61039a6106a2366004612b08565b601a6020526000908152604090205481565b6103316106c2366004612aef565b611910565b61039a7f000000000000000000000000000000000000000000000000000000000000000081565b6103086106fc366004612ac3565b611920565b6103e661070f366004612b08565b60166020526000908152604090205460ff1681565b6103e6610732366004612b91565b611a68565b6103e6610745366004612b08565b60136020526000908152604090205460ff1681565b6103e6610768366004612b08565b60196020526000908152604090205460ff1681565b601f54610331906001600160a01b031681565b61039a61079e366004612b08565b601e6020526000908152604090205481565b6103e66107be366004612bbb565b611ed9565b61039a60225481565b6103316107da366004612aef565b6127b2565b61039a6107ed366004612b08565b60106020526000908152604090205481565b6001600160a01b03811660009081526003602052604090205460ff166108405760405162461bcd60e51b815260040161083790612bfe565b60405180910390fd5b3360009081526009602052604090205460ff1615156001146108745760405162461bcd60e51b815260040161083790612c24565b60006108808284610ead565b60405163079cc67960e41b8152336004820152602481018290529091507f00000000000000000000000000000000000000000000000000000000000000006001600160a01b0316906379cc679090604401600060405180830381600087803b1580156108eb57600080fd5b505af11580156108ff573d6000803e3d6000fd5b5050505080602160008282546109159190612c60565b9091555050602154604051600080516020612ed983398151915290600090a26109486001600160a01b03831633856127c2565b60408051848152602081018390526001600160a01b038416917fdf273cb619d95419a9cd0ec88123a0538c85064229baa6363788f743fff90deb91015b60405180910390a2505050565b601281815481106109a257600080fd5b6000918252602090912001546001600160a01b0316905081565b6000546001600160a01b031633146109e65760405162461bcd60e51b815260040161083790612c77565b600080546040516001600160a01b03909116907fea8258f2d9ddb679928cf34b78cf645b7feda9acc828e4dd82d014eaae270eba908390a3600080546001600160a01b0319169055565b6001600160a01b0382166000908152600c602052604090205460ff1615610a85573360009081526016602052604090205460ff16610a805760405162461bcd60e51b815260040161083790612c24565b610ab4565b3360009081526013602052604090205460ff16610ab45760405162461bcd60e51b815260040161083790612c24565b6000610ac08383610ead565b9050610aca610b91565b811115610b115760405162461bcd60e51b8152602060048201526015602482015274496e73756666696369656e7420726573657276657360581b6044820152606401610837565b8060216000828254610b239190612c60565b9091555050602154604051600080516020612ed983398151915290600090a2610b566001600160a01b03841633846127c2565b826001600160a01b03167f2bb2640731848fe9820ba48dbc978c1fc9bbd5f11b948bfab05b7dee3378fd808360405161098591815260200190565b60006022547f00000000000000000000000000000000000000000000000000000000000000006001600160a01b03166318160ddd6040518163ffffffff1660e01b8152600401602060405180830381865afa158015610bf4573d6000803e3d6000fd5b505050506040513d601f19601f82011682018060405250810190610c189190612cac565b610c229190612c60565b602154610c2f9190612c60565b905090565b3360009081526019602052604090205460ff16610c635760405162461bcd60e51b815260040161083790612c24565b6001600160a01b03811660009081526003602052604090205460ff16610c9b5760405162461bcd60e51b815260040161083790612bfe565b6000610ca78284610ead565b601f546040516370a0823160e01b81523360048201529192506000916001600160a01b03909116906370a0823190602401602060405180830381865afa158015610cf5573d6000803e3d6000fd5b505050506040513d601f19601f82011682018060405250810190610d199190612cac565b336000908152601b602052604081205491925090610d379083612c60565b905080831115610d7e5760405162461bcd60e51b8152602060048201526012602482015271115e18d959591cc81919589d081b1a5b5a5d60721b6044820152606401610837565b336000908152601b602052604081208054859290610d9d908490612cc5565b925050819055508260226000828254610db69190612cc5565b925050819055508260216000828254610dcf9190612c60565b9091555050602154604051600080516020612ed983398151915290600090a260405163a9059cbb60e01b8152336004820152602481018690526001600160a01b0385169063a9059cbb906044016020604051808303816000875af1158015610e3b573d6000803e3d6000fd5b505050506040513d601f19601f82011682018060405250810190610e5f9190612cdd565b5060408051868152602081018590526001600160a01b0386169133917f7e1a939bed137a819b5d2979822c67f877689f7a863d5e4cb57cdca97b2977d6910160405180910390a35050505050565b6001600160a01b03821660009081526003602052604081205460ff1615610fe357826001600160a01b031663313ce5676040518163ffffffff1660e01b8152600401602060405180830381865afa158015610f0c573d6000803e3d6000fd5b505050506040513d601f19601f82011682018060405250810190610f309190612cff565b610f3b90600a612e06565b7f00000000000000000000000000000000000000000000000000000000000000006001600160a01b031663313ce5676040518163ffffffff1660e01b8152600401602060405180830381865afa158015610f99573d6000803e3d6000fd5b505050506040513d601f19601f82011682018060405250810190610fbd9190612cff565b610fc890600a612e06565b610fd29084612e15565b610fdc9190612e34565b905061108c565b6001600160a01b0383166000908152600c602052604090205460ff161561108c576001600160a01b0383811660008181526011602052604090819020549051634249719f60e01b815260048101929092526024820185905290911690634249719f90604401602060405180830381865afa158015611065573d6000803e3d6000fd5b505050506040513d601f19601f820116820180604052508101906110899190612cac565b90505b92915050565b6000546001600160a01b031633146110bc5760405162461bcd60e51b815260040161083790612c77565b6000805b60025481101561119f57611181600282815481106110e0576110e0612e56565b600091825260209091200154600280546001600160a01b03909216918490811061110c5761110c612e56565b6000918252602090912001546040516370a0823160e01b81523060048201526001600160a01b03909116906370a0823190602401602060405180830381865afa15801561115d573d6000803e3d6000fd5b505050506040513d601f19601f820116820180604052508101906104409190612cac565b61118b9083612cc5565b91508061119781612e6c565b9150506110c0565b5060005b600b5481101561120d576111ef600b82815481106111c3576111c3612e56565b600091825260209091200154600b80546001600160a01b03909216918490811061110c5761110c612e56565b6111f99083612cc5565b91508061120581612e6c565b9150506111a3565b5060218190556040518190600080516020612ed983398151915290600090a260405181907fec691f09f6924b27932253f85caf99bacc30360cc0e50a1cc4d2acc24601446690600090a250565b600881815481106109a257600080fd5b6000546001600160a01b031633146112945760405162461bcd60e51b815260040161083790612c77565b6001600160a01b0381166112f95760405162461bcd60e51b815260206004820152602660248201527f4f776e61626c653a206e6577206f776e657220697320746865207a65726f206160448201526564647265737360d01b6064820152608401610837565b600080546040516001600160a01b03808516939216917fea8258f2d9ddb679928cf34b78cf645b7feda9acc828e4dd82d014eaae270eba91a3600180546001600160a01b0319166001600160a01b0392909216919091179055565b3360009081526019602052604090205460ff166113835760405162461bcd60e51b815260040161083790612c24565b60405163079cc67960e41b8152336004820152602481018290527f00000000000000000000000000000000000000000000000000000000000000006001600160a01b0316906379cc679090604401600060405180830381600087803b1580156113eb57600080fd5b505af11580156113ff573d6000803e3d6000fd5b5050336000908152601b602052604081208054859450909250611423908490612c60565b92505081905550806022600082825461143c9190612c60565b909155505060408051828152602081018390527f00000000000000000000000000000000000000000000000000000000000000006001600160a01b03169133917fc6d98eecfc9c78ab62c89a82950079b54874749f1f6f24090f7acc758bc2f309910160405180910390a350565b6001546001600160a01b0316331461150f5760405162461bcd60e51b815260206004820152602260248201527f4f776e61626c653a206d757374206265206e6577206f776e657220746f2070756044820152611b1b60f21b6064820152608401610837565b600154600080546040516001600160a01b0393841693909116917faa151555690c956fc3ea32f106bb9f119b5237a061eaa8557cff3e51e3792c8d91a3600154600080546001600160a01b0319166001600160a01b03909216919091179055565b336000908152601d602052604090205460ff1661159f5760405162461bcd60e51b815260040161083790612c24565b6115a7610b91565b8111156115ee5760405162461bcd60e51b8152602060048201526015602482015274496e73756666696369656e7420726573657276657360581b6044820152606401610837565b6040516340c10f1960e01b81526001600160a01b038381166004830152602482018390527f000000000000000000000000000000000000000000000000000000000000000016906340c10f1990604401600060405180830381600087803b15801561165857600080fd5b505af115801561166c573d6000803e3d6000fd5b50506040518381526001600160a01b03851692503391507ffa8ccab40e7da8146c2304cd0950334fd30a6ba093abe86261aa13911fed849c9060200160405180910390a35050565b600581815481106109a257600080fd5b601581815481106109a257600080fd5b601881815481106109a257600080fd5b600e81815481106109a257600080fd5b601c81815481106109a257600080fd5b6001600160a01b03821660009081526003602052604081205460ff168061174357506001600160a01b0383166000908152600c602052604090205460ff165b61175f5760405162461bcd60e51b815260040161083790612bfe565b6117746001600160a01b03841633308761282a565b6001600160a01b03831660009081526003602052604090205460ff16156117c9573360009081526006602052604090205460ff166117c45760405162461bcd60e51b815260040161083790612c24565b6117f8565b336000908152600f602052604090205460ff166117f85760405162461bcd60e51b815260040161083790612c24565b60006118048486610ead565b90506118108382612c60565b6040516340c10f1960e01b8152336004820152602481018290529092507f00000000000000000000000000000000000000000000000000000000000000006001600160a01b0316906340c10f1990604401600060405180830381600087803b15801561187b57600080fd5b505af115801561188f573d6000803e3d6000fd5b5050505080602160008282546118a59190612cc5565b9091555050602154604051600080516020612ed983398151915290600090a260408051868152602081018390526001600160a01b038616917f90890809c654f11d6e72a28fa60149770a0d11ec6c92319d6ceb2bb0a4ea1a15910160405180910390a2509392505050565b600281815481106109a257600080fd5b3360009081526019602052604090205460ff1661194f5760405162461bcd60e51b815260040161083790612c24565b6001600160a01b03811660009081526003602052604090205460ff166119875760405162461bcd60e51b815260040161083790612bfe565b61199c6001600160a01b03821633308561282a565b60006119a88284610ead565b336000908152601b60205260408120805492935083929091906119cc908490612c60565b9250508190555080602260008282546119e59190612c60565b9250508190555080602160008282546119fe9190612cc5565b9091555050602154604051600080516020612ed983398151915290600090a260408051848152602081018390526001600160a01b0384169133917fc6d98eecfc9c78ab62c89a82950079b54874749f1f6f24090f7acc758bc2f309910160405180910390a3505050565b600080546001600160a01b03163314611a935760405162461bcd60e51b815260040161083790612c77565b6001600160a01b038216611aa657600080fd5b6000836009811115611aba57611aba612e87565b1415611b0857611aea7f000000000000000000000000000000000000000000000000000000000000000043612cc5565b6001600160a01b038316600090815260076020526040902055611e82565b6001836009811115611b1c57611b1c612e87565b1415611b6a57611b4c7f000000000000000000000000000000000000000000000000000000000000000043612cc5565b6001600160a01b0383166000908152600a6020526040902055611e82565b6002836009811115611b7e57611b7e612e87565b1415611bcc57611bae7f000000000000000000000000000000000000000000000000000000000000000043612cc5565b6001600160a01b038316600090815260046020526040902055611e82565b6003836009811115611be057611be0612e87565b1415611c3957611c117f00000000000000000000000000000000000000000000000000000000000000006002612e15565b611c1b9043612cc5565b6001600160a01b038316600090815260146020526040902055611e82565b6004836009811115611c4d57611c4d612e87565b1415611c9b57611c7d7f000000000000000000000000000000000000000000000000000000000000000043612cc5565b6001600160a01b038316600090815260106020526040902055611e82565b6005836009811115611caf57611caf612e87565b1415611cfd57611cdf7f000000000000000000000000000000000000000000000000000000000000000043612cc5565b6001600160a01b0383166000908152600d6020526040902055611e82565b6006836009811115611d1157611d11612e87565b1415611d6a57611d427f00000000000000000000000000000000000000000000000000000000000000006002612e15565b611d4c9043612cc5565b6001600160a01b038316600090815260176020526040902055611e82565b6007836009811115611d7e57611d7e612e87565b1415611dcc57611dae7f000000000000000000000000000000000000000000000000000000000000000043612cc5565b6001600160a01b0383166000908152601a6020526040902055611e82565b6008836009811115611de057611de0612e87565b1415611e2e57611e107f000000000000000000000000000000000000000000000000000000000000000043612cc5565b6001600160a01b0383166000908152601e6020526040902055611e82565b6009836009811115611e4257611e42612e87565b1415611e7a57611e727f000000000000000000000000000000000000000000000000000000000000000043612cc5565b602055611e82565b50600061108c565b826009811115611e9457611e94612e87565b6040516001600160a01b03841681527f0e4f2c4b5bc209d509bc3d49348c787fefadc66a79351b470599ac0f5be52eaf9060200160405180910390a250600192915050565b600080546001600160a01b03163314611f045760405162461bcd60e51b815260040161083790612c77565b6001600160a01b038316611f1757600080fd5b600080856009811115611f2c57611f2c612e87565b1415611fe857611f3f6007600686612868565b15611fb8576001600160a01b038416600090815260076020526040812055611f68600585612948565b611fb857600580546001810182556000919091527f036b6384b5eca791c62761152d0c79bb0604c104a5fb6f4eb0703f3154bb3db00180546001600160a01b0319166001600160a01b0386161790555b506001600160a01b0383166000908152600660205260409020805460ff81161560ff199091168117909155612750565b6001856009811115611ffc57611ffc612e87565b14156120b85761200f600a600986612868565b15612088576001600160a01b0384166000908152600a6020526040812055612038600885612948565b61208857600880546001810182556000919091527ff3f7a9fe364faab93b216da50a3214154f22a0a2b415b23a84c8169e8b636ee30180546001600160a01b0319166001600160a01b0386161790555b506001600160a01b0383166000908152600960205260409020805460ff81161560ff199091168117909155612750565b60028560098111156120cc576120cc612e87565b1415612188576120df6004600386612868565b15612158576001600160a01b038416600090815260046020526040812055612108600285612948565b61215857600280546001810182556000919091527f405787fa12a823e0f2b7631cc41b3ba8828b3321ca811111fa75cd3aa3bb5ace0180546001600160a01b0319166001600160a01b0386161790555b506001600160a01b0383166000908152600360205260409020805460ff81161560ff199091168117909155612750565b600385600981111561219c5761219c612e87565b1415612295576121af6014601386612868565b1561226557601280546001810182557fbb8a6a4669ba250d26cd7a459eca9d215f8307e33aebe50379bc5a3617ec34440180546001600160a01b0319166001600160a01b0387169081179091556000908152601460205260408120556122159085612948565b61226557601280546001810182556000919091527fbb8a6a4669ba250d26cd7a459eca9d215f8307e33aebe50379bc5a3617ec34440180546001600160a01b0319166001600160a01b0386161790555b506001600160a01b0383166000908152601360205260409020805460ff81161560ff199091168117909155612750565b60048560098111156122a9576122a9612e87565b14156123a2576122bc6010600f86612868565b1561237257600e80546001810182557fbb7b4a454dc3493923482f07822329ed19e8244eff582cc204f8554c3620c3fd0180546001600160a01b0319166001600160a01b0387169081179091556000908152601060205260408120556123229085612948565b61237257600e80546001810182556000919091527fbb7b4a454dc3493923482f07822329ed19e8244eff582cc204f8554c3620c3fd0180546001600160a01b0319166001600160a01b0386161790555b506001600160a01b0383166000908152600f60205260409020805460ff81161560ff199091168117909155612750565b60058560098111156123b6576123b6612e87565b1415612494576123c9600d600c86612868565b15612442576001600160a01b0384166000908152600d60205260408120556123f2600b85612948565b61244257600b80546001810182556000919091527f0175b7a638427703f0dbe7bb9bbf987a2551717b34e79f33b5b1008d1fa01db90180546001600160a01b0319166001600160a01b0386161790555b506001600160a01b038381166000908152600c60209081526040808320805460ff81161560ff199091168117909155601190925290912080546001600160a01b03191692851692909217909155612750565b60068560098111156124a8576124a8612e87565b1415612564576124bb6017601686612868565b15612534576001600160a01b0384166000908152601760205260408120556124e4601585612948565b61253457601580546001810182556000919091527f55f448fdea98c4d29eb340757ef0a66cd03dbb9538908a6a81d96026b71ec4750180546001600160a01b0319166001600160a01b0386161790555b506001600160a01b0383166000908152601660205260409020805460ff81161560ff199091168117909155612750565b600785600981111561257857612578612e87565b14156126345761258b601a601986612868565b15612604576001600160a01b0384166000908152601a60205260408120556125b4601885612948565b61260457601880546001810182556000919091527fb13d2d76d1f4b7be834882e410b3e3a8afaf69f83600ae24db354391d2378d2e0180546001600160a01b0319166001600160a01b0386161790555b506001600160a01b0383166000908152601960205260409020805460ff81161560ff199091168117909155612750565b600885600981111561264857612648612e87565b14156127045761265b601e601d86612868565b156126d4576001600160a01b0384166000908152601e6020526040812055612684601c85612948565b6126d457601c80546001810182556000919091527f0e4562a10381dec21b205ed72637e6b1b523bdd0e4d4d50af5cd23dd4500a2110180546001600160a01b0319166001600160a01b0386161790555b506001600160a01b0383166000908152601d60205260409020805460ff81161560ff199091168117909155612750565b600985600981111561271857612718612e87565b141561274657506000602055601f80546001600160a01b0319166001600160a01b0385161790556001612750565b60009150506127ab565b84600981111561276257612762612e87565b604080516001600160a01b038716815283151560208201527f0dcacb7e392f3d6a216ed2660e3dcfd40b7793d33591db2ba185a6b8e44fc477910160405180910390a260019150505b9392505050565b600b81815481106109a257600080fd5b6040516001600160a01b03831660248201526044810182905261282590849063a9059cbb60e01b906064015b60408051601f198184030181529190526020810180516001600160e01b03166001600160e01b0319909316929092179091526129a8565b505050565b6040516001600160a01b03808516602483015283166044820152606481018290526128629085906323b872dd60e01b906084016127ee565b50505050565b6001600160a01b03811660009081526020839052604081205460ff1661293e576001600160a01b0382166000908152602085905260409020546128da5760405162461bcd60e51b815260206004820152600a6024820152694d75737420717565756560b01b6044820152606401610837565b6001600160a01b0382166000908152602085905260409020544310156129365760405162461bcd60e51b8152602060048201526011602482015270145d595d59481b9bdd08195e1c1a5c9959607a1b6044820152606401610837565b5060016127ab565b5060009392505050565b6000805b835481101561293e57826001600160a01b031684828154811061297157612971612e56565b6000918252602090912001546001600160a01b0316141561299657600191505061108c565b806129a081612e6c565b91505061294c565b600080836001600160a01b0316836040516129c39190612e9d565b6000604051808303816000865af19150503d8060008114612a00576040519150601f19603f3d011682016040523d82523d6000602084013e612a05565b606091505b50915091506000821415612a1d573d6000803e3d6000fd5b612862815160001480612a3f575081806020019051810190612a3f9190612cdd565b6101a281612a5057612a5081612a54565b5050565b62461bcd60e51b6000908152602060045260076024526652455123000030600a808404818106603090810160081b95839006959095019082900491820690940160101b939093010160c81b604452606490fd5b80356001600160a01b0381168114612abe57600080fd5b919050565b60008060408385031215612ad657600080fd5b82359150612ae660208401612aa7565b90509250929050565b600060208284031215612b0157600080fd5b5035919050565b600060208284031215612b1a57600080fd5b61108982612aa7565b60008060408385031215612b3657600080fd5b612b3f83612aa7565b946020939093013593505050565b600080600060608486031215612b6257600080fd5b83359250612b7260208501612aa7565b9150604084013590509250925092565b8035600a8110612abe57600080fd5b60008060408385031215612ba457600080fd5b612bad83612b82565b9150612ae660208401612aa7565b600080600060608486031215612bd057600080fd5b612bd984612b82565b9250612be760208501612aa7565b9150612bf560408501612aa7565b90509250925092565b6020808252600c908201526b139bdd081858d8d95c1d195960a21b604082015260600190565b6020808252600c908201526b139bdd08185c1c1c9bdd995960a21b604082015260600190565b634e487b7160e01b600052601160045260246000fd5b600082821015612c7257612c72612c4a565b500390565b6020808252818101527f4f776e61626c653a2063616c6c6572206973206e6f7420746865206f776e6572604082015260600190565b600060208284031215612cbe57600080fd5b5051919050565b60008219821115612cd857612cd8612c4a565b500190565b600060208284031215612cef57600080fd5b815180151581146127ab57600080fd5b600060208284031215612d1157600080fd5b815160ff811681146127ab57600080fd5b600181815b80851115612d5d578160001904821115612d4357612d43612c4a565b80851615612d5057918102915b93841c9390800290612d27565b509250929050565b600082612d745750600161108c565b81612d815750600061108c565b8160018114612d975760028114612da157612dbd565b600191505061108c565b60ff841115612db257612db2612c4a565b50506001821b61108c565b5060208310610133831016604e8410600b8410161715612de0575081810a61108c565b612dea8383612d22565b8060001904821115612dfe57612dfe612c4a565b029392505050565b600061108960ff841683612d65565b6000816000190483118215151615612e2f57612e2f612c4a565b500290565b600082612e5157634e487b7160e01b600052601260045260246000fd5b500490565b634e487b7160e01b600052603260045260246000fd5b6000600019821415612e8057612e80612c4a565b5060010190565b634e487b7160e01b600052602160045260246000fd5b6000825160005b81811015612ebe5760208186018101518583015201612ea4565b81811115612ecd576000828501525b50919091019291505056fe93bb8edd35984706eee1b92541281f7f62d33c01c5b2ec0929a113603bd21d66a2646970667358221220a6851dc324a19f8a9222b6715e97090b3da786fa77d207465c0840f81f2f695764736f6c634300080a0033",
    "sourcePath": "/home/achthar/requiem-bond/contracts/Treasury.sol",
    "compiler": {
        "name": "solc",
        "version": "0.8.11+commit.fc410830"
    },
    "functionHashes": {
        "LiquidityDepositorQueue(address)": "fff9ee87",
        "LiquidityManagerQueue(address)": "ab319c9a",
        "LiquidityTokenQueue(address)": "8f59c727",
        "REQT()": "02bb41e5",
        "ReserveManagerQueue(address)": "b1bd38b0",
        "auditReserves()": "2b7ce500",
        "blocksNeededForQueue()": "d07f390f",
        "bondCalculator(address)": "1af4da70",
        "debtorBalance(address)": "094a8651",
        "debtorQueue(address)": "cd85641a",
        "debtors(uint256)": "869871bf",
        "deposit(uint256,address,uint256)": "bc157ac1",
        "excessReserves()": "0c3513a8",
        "incurDebt(uint256,address)": "12422d23",
        "isDebtor(address)": "ee4e19a1",
        "isLiquidityDepositor(address)": "a1210a2d",
        "isLiquidityManager(address)": "df89b344",
        "isLiquidityToken(address)": "a569e571",
        "isReserveDepositor(address)": "124154ca",
        "isReserveManager(address)": "ebd83cd8",
        "isReserveSpender(address)": "87d67dff",
        "isReserveToken(address)": "68c31dd5",
        "isRewardManager(address)": "4e83423c",
        "liquidityDepositors(uint256)": "8f6a7b57",
        "liquidityManagers(uint256)": "70a0502a",
        "liquidityTokens(uint256)": "fd1ec010",
        "manage(address,uint256)": "0b0eee30",
        "mintRewards(address,uint256)": "6a20de92",
        "policy()": "0505c8c9",
        "pullManagement()": "5a96ac0a",
        "pushManagement(address)": "46f68ee9",
        "queue(uint8,address)": "e83afee3",
        "renounceManagement()": "089208d8",
        "repayDebtWithREQT(uint256)": "4f997d58",
        "repayDebtWithReserve(uint256,address)": "d796ffb8",
        "reserveDepositorQueue(address)": "932cc8c3",
        "reserveDepositors(uint256)": "6b5e40a7",
        "reserveManagers(uint256)": "0619aff1",
        "reserveSpenderQueue(address)": "c24ad43e",
        "reserveSpenders(uint256)": "437f7912",
        "reserveTokenQueue(address)": "788c6c01",
        "reserveTokens(uint256)": "d031370b",
        "rewardManagerQueue(address)": "fb939588",
        "rewardManagers(uint256)": "b5b1d560",
        "sREQT()": "fafbbc67",
        "sREQTQueue()": "57fba4c3",
        "toggle(uint8,address,address)": "fbfd393b",
        "totalDebt()": "fc7b9c18",
        "totalReserves()": "8f840ddd",
        "valueOf(address,uint256)": "1eec5a9a",
        "withdraw(uint256,address)": "00f714ce"
    },
    "gasEstimates": {
        "creation": {
            "codeDepositCost": "2415600",
            "executionCost": "infinite",
            "totalCost": "infinite"
        },
        "external": {
            "LiquidityDepositorQueue(address)": "2655",
            "LiquidityManagerQueue(address)": "2613",
            "LiquidityTokenQueue(address)": "2591",
            "REQT()": "infinite",
            "ReserveManagerQueue(address)": "2635",
            "auditReserves()": "infinite",
            "blocksNeededForQueue()": "infinite",
            "bondCalculator(address)": "2685",
            "debtorBalance(address)": "2680",
            "debtorQueue(address)": "2656",
            "debtors(uint256)": "4736",
            "deposit(uint256,address,uint256)": "infinite",
            "excessReserves()": "infinite",
            "incurDebt(uint256,address)": "infinite",
            "isDebtor(address)": "2602",
            "isLiquidityDepositor(address)": "2691",
            "isLiquidityManager(address)": "2646",
            "isLiquidityToken(address)": "2603",
            "isReserveDepositor(address)": "2625",
            "isReserveManager(address)": "2690",
            "isReserveSpender(address)": "2581",
            "isReserveToken(address)": "2625",
            "isRewardManager(address)": "2647",
            "liquidityDepositors(uint256)": "4693",
            "liquidityManagers(uint256)": "4692",
            "liquidityTokens(uint256)": "4713",
            "manage(address,uint256)": "infinite",
            "mintRewards(address,uint256)": "infinite",
            "policy()": "2411",
            "pullManagement()": "34481",
            "pushManagement(address)": "30494",
            "queue(uint8,address)": "infinite",
            "renounceManagement()": "30300",
            "repayDebtWithREQT(uint256)": "infinite",
            "repayDebtWithReserve(uint256,address)": "infinite",
            "reserveDepositorQueue(address)": "2657",
            "reserveDepositors(uint256)": "4670",
            "reserveManagers(uint256)": "4716",
            "reserveSpenderQueue(address)": "2634",
            "reserveSpenders(uint256)": "4671",
            "reserveTokenQueue(address)": "2634",
            "reserveTokens(uint256)": "4648",
            "rewardManagerQueue(address)": "2634",
            "rewardManagers(uint256)": "4670",
            "sREQT()": "2415",
            "sREQTQueue()": "2451",
            "toggle(uint8,address,address)": "infinite",
            "totalDebt()": "2383",
            "totalReserves()": "2407",
            "valueOf(address,uint256)": "infinite",
            "withdraw(uint256,address)": "infinite"
        },
        "internal": {
            "listContains(address[] storage pointer,address)": "infinite",
            "requirements(mapping(address => uint256),mapping(address => bool),address)": "infinite"
        }
    }
}