{
  "_format": "hh-sol-artifact-1",
  "contractName": "OlympusERC20Token",
  "sourceName": "contracts/RequiemERC20.sol",
  "abi": [
    {
      "inputs": [],
      "stateMutability": "nonpayable",
      "type": "constructor"
    },
    {
      "anonymous": false,
      "inputs": [
        {
          "indexed": true,
          "internalType": "address",
          "name": "owner",
          "type": "address"
        },
        {
          "indexed": true,
          "internalType": "address",
          "name": "spender",
          "type": "address"
        },
        {
          "indexed": false,
          "internalType": "uint256",
          "name": "value",
          "type": "uint256"
        }
      ],
      "name": "Approval",
      "type": "event"
    },
    {
      "anonymous": false,
      "inputs": [
        {
          "indexed": true,
          "internalType": "address",
          "name": "previousOwner",
          "type": "address"
        },
        {
          "indexed": true,
          "internalType": "address",
          "name": "newOwner",
          "type": "address"
        }
      ],
      "name": "OwnershipTransferred",
      "type": "event"
    },
    {
      "anonymous": false,
      "inputs": [
        {
          "indexed": true,
          "internalType": "address",
          "name": "from",
          "type": "address"
        },
        {
          "indexed": true,
          "internalType": "address",
          "name": "to",
          "type": "address"
        },
        {
          "indexed": false,
          "internalType": "uint256",
          "name": "value",
          "type": "uint256"
        }
      ],
      "name": "Transfer",
      "type": "event"
    },
    {
      "inputs": [],
      "name": "DOMAIN_SEPARATOR",
      "outputs": [
        {
          "internalType": "bytes32",
          "name": "",
          "type": "bytes32"
        }
      ],
      "stateMutability": "view",
      "type": "function"
    },
    {
      "inputs": [],
      "name": "PERMIT_TYPEHASH",
      "outputs": [
        {
          "internalType": "bytes32",
          "name": "",
          "type": "bytes32"
        }
      ],
      "stateMutability": "view",
      "type": "function"
    },
    {
      "inputs": [
        {
          "internalType": "address",
          "name": "account_",
          "type": "address"
        },
        {
          "internalType": "uint256",
          "name": "amount_",
          "type": "uint256"
        }
      ],
      "name": "_burnFrom",
      "outputs": [],
      "stateMutability": "nonpayable",
      "type": "function"
    },
    {
      "inputs": [
        {
          "internalType": "address",
          "name": "owner",
          "type": "address"
        },
        {
          "internalType": "address",
          "name": "spender",
          "type": "address"
        }
      ],
      "name": "allowance",
      "outputs": [
        {
          "internalType": "uint256",
          "name": "",
          "type": "uint256"
        }
      ],
      "stateMutability": "view",
      "type": "function"
    },
    {
      "inputs": [
        {
          "internalType": "address",
          "name": "spender",
          "type": "address"
        },
        {
          "internalType": "uint256",
          "name": "amount",
          "type": "uint256"
        }
      ],
      "name": "approve",
      "outputs": [
        {
          "internalType": "bool",
          "name": "",
          "type": "bool"
        }
      ],
      "stateMutability": "nonpayable",
      "type": "function"
    },
    {
      "inputs": [
        {
          "internalType": "address",
          "name": "account",
          "type": "address"
        }
      ],
      "name": "balanceOf",
      "outputs": [
        {
          "internalType": "uint256",
          "name": "",
          "type": "uint256"
        }
      ],
      "stateMutability": "view",
      "type": "function"
    },
    {
      "inputs": [
        {
          "internalType": "uint256",
          "name": "amount",
          "type": "uint256"
        }
      ],
      "name": "burn",
      "outputs": [],
      "stateMutability": "nonpayable",
      "type": "function"
    },
    {
      "inputs": [
        {
          "internalType": "address",
          "name": "account_",
          "type": "address"
        },
        {
          "internalType": "uint256",
          "name": "amount_",
          "type": "uint256"
        }
      ],
      "name": "burnFrom",
      "outputs": [],
      "stateMutability": "nonpayable",
      "type": "function"
    },
    {
      "inputs": [],
      "name": "decimals",
      "outputs": [
        {
          "internalType": "uint8",
          "name": "",
          "type": "uint8"
        }
      ],
      "stateMutability": "view",
      "type": "function"
    },
    {
      "inputs": [
        {
          "internalType": "address",
          "name": "spender",
          "type": "address"
        },
        {
          "internalType": "uint256",
          "name": "subtractedValue",
          "type": "uint256"
        }
      ],
      "name": "decreaseAllowance",
      "outputs": [
        {
          "internalType": "bool",
          "name": "",
          "type": "bool"
        }
      ],
      "stateMutability": "nonpayable",
      "type": "function"
    },
    {
      "inputs": [
        {
          "internalType": "address",
          "name": "spender",
          "type": "address"
        },
        {
          "internalType": "uint256",
          "name": "addedValue",
          "type": "uint256"
        }
      ],
      "name": "increaseAllowance",
      "outputs": [
        {
          "internalType": "bool",
          "name": "",
          "type": "bool"
        }
      ],
      "stateMutability": "nonpayable",
      "type": "function"
    },
    {
      "inputs": [
        {
          "internalType": "address",
          "name": "account_",
          "type": "address"
        },
        {
          "internalType": "uint256",
          "name": "amount_",
          "type": "uint256"
        }
      ],
      "name": "mint",
      "outputs": [],
      "stateMutability": "nonpayable",
      "type": "function"
    },
    {
      "inputs": [],
      "name": "name",
      "outputs": [
        {
          "internalType": "string",
          "name": "",
          "type": "string"
        }
      ],
      "stateMutability": "view",
      "type": "function"
    },
    {
      "inputs": [
        {
          "internalType": "address",
          "name": "owner",
          "type": "address"
        }
      ],
      "name": "nonces",
      "outputs": [
        {
          "internalType": "uint256",
          "name": "",
          "type": "uint256"
        }
      ],
      "stateMutability": "view",
      "type": "function"
    },
    {
      "inputs": [],
      "name": "owner",
      "outputs": [
        {
          "internalType": "address",
          "name": "",
          "type": "address"
        }
      ],
      "stateMutability": "view",
      "type": "function"
    },
    {
      "inputs": [
        {
          "internalType": "address",
          "name": "owner",
          "type": "address"
        },
        {
          "internalType": "address",
          "name": "spender",
          "type": "address"
        },
        {
          "internalType": "uint256",
          "name": "amount",
          "type": "uint256"
        },
        {
          "internalType": "uint256",
          "name": "deadline",
          "type": "uint256"
        },
        {
          "internalType": "uint8",
          "name": "v",
          "type": "uint8"
        },
        {
          "internalType": "bytes32",
          "name": "r",
          "type": "bytes32"
        },
        {
          "internalType": "bytes32",
          "name": "s",
          "type": "bytes32"
        }
      ],
      "name": "permit",
      "outputs": [],
      "stateMutability": "nonpayable",
      "type": "function"
    },
    {
      "inputs": [],
      "name": "renounceOwnership",
      "outputs": [],
      "stateMutability": "nonpayable",
      "type": "function"
    },
    {
      "inputs": [
        {
          "internalType": "address",
          "name": "vault_",
          "type": "address"
        }
      ],
      "name": "setVault",
      "outputs": [
        {
          "internalType": "bool",
          "name": "",
          "type": "bool"
        }
      ],
      "stateMutability": "nonpayable",
      "type": "function"
    },
    {
      "inputs": [],
      "name": "symbol",
      "outputs": [
        {
          "internalType": "string",
          "name": "",
          "type": "string"
        }
      ],
      "stateMutability": "view",
      "type": "function"
    },
    {
      "inputs": [],
      "name": "totalSupply",
      "outputs": [
        {
          "internalType": "uint256",
          "name": "",
          "type": "uint256"
        }
      ],
      "stateMutability": "view",
      "type": "function"
    },
    {
      "inputs": [
        {
          "internalType": "address",
          "name": "recipient",
          "type": "address"
        },
        {
          "internalType": "uint256",
          "name": "amount",
          "type": "uint256"
        }
      ],
      "name": "transfer",
      "outputs": [
        {
          "internalType": "bool",
          "name": "",
          "type": "bool"
        }
      ],
      "stateMutability": "nonpayable",
      "type": "function"
    },
    {
      "inputs": [
        {
          "internalType": "address",
          "name": "sender",
          "type": "address"
        },
        {
          "internalType": "address",
          "name": "recipient",
          "type": "address"
        },
        {
          "internalType": "uint256",
          "name": "amount",
          "type": "uint256"
        }
      ],
      "name": "transferFrom",
      "outputs": [
        {
          "internalType": "bool",
          "name": "",
          "type": "bool"
        }
      ],
      "stateMutability": "nonpayable",
      "type": "function"
    },
    {
      "inputs": [
        {
          "internalType": "address",
          "name": "newOwner_",
          "type": "address"
        }
      ],
      "name": "transferOwnership",
      "outputs": [],
      "stateMutability": "nonpayable",
      "type": "function"
    },
    {
      "inputs": [],
      "name": "vault",
      "outputs": [
        {
          "internalType": "address",
          "name": "",
          "type": "address"
        }
      ],
      "stateMutability": "view",
      "type": "function"
    }
  ],
  "bytecode": "0x60806040523480156200001157600080fd5b50604051806040016040528060078152602001664f6c796d70757360c81b815250604051806040016040528060038152602001624f484d60e81b815250600982600390805190602001906200006892919062000221565b5081516200007e90600490602085019062000221565b506005805460ff191660ff92909216919091179055504690507f8b73c3c69bb8fe3d512ecc4cf759cc79239f7b179b0ffacaa9a75d522b39400f620000c262000187565b805160209182012060408051808201825260018152603160f81b90840152805192830193909352918101919091527fc89efdaa54c0f20c7adf612882df0950f5a951637e0307cdcb4c672f298b8bc66060820152608081018290523060a082015260c00160408051601f19818403018152908290528051602090910120600755600880546001600160a01b0319163390811790915591506000907f8be0079c531659141344cd1fd0a4f28419497f9722a3daafe3b4186f6b6457e0908290a362000304565b6060600380546200019890620002c7565b80601f0160208091040260200160405190810160405280929190818152602001828054620001c690620002c7565b8015620002175780601f10620001eb5761010080835404028352916020019162000217565b820191906000526020600020905b815481529060010190602001808311620001f957829003601f168201915b5050505050905090565b8280546200022f90620002c7565b90600052602060002090601f0160209004810192826200025357600085556200029e565b82601f106200026e57805160ff19168380011785556200029e565b828001600101855582156200029e579182015b828111156200029e57825182559160200191906001019062000281565b50620002ac929150620002b0565b5090565b5b80821115620002ac5760008155600101620002b1565b600181811c90821680620002dc57607f821691505b60208210811415620002fe57634e487b7160e01b600052602260045260246000fd5b50919050565b6112f480620003146000396000f3fe608060405234801561001057600080fd5b50600436106101585760003560e01c8063715018a6116100c3578063a457c2d71161007c578063a457c2d714610303578063a9059cbb14610316578063d505accf14610329578063dd62ed3e1461033c578063f2fde38b14610375578063fbfa77cf1461038857600080fd5b8063715018a61461027f57806379cc6790146102875780637ecebe001461029a5780638da5cb5b146102c357806395d89b41146102e8578063a22b35ce146102f057600080fd5b80633644e515116101155780633644e515146101ff578063395093511461020857806340c10f191461021b57806342966c68146102305780636817031b1461024357806370a082311461025657600080fd5b806306fdde031461015d578063095ea7b31461017b57806318160ddd1461019e57806323b872dd146101b057806330adf81f146101c3578063313ce567146101ea575b600080fd5b610165610399565b6040516101729190610fa4565b60405180910390f35b61018e610189366004611010565b61042b565b6040519015158152602001610172565b6002545b604051908152602001610172565b61018e6101be36600461103a565b610441565b6101a27f6e71edae12b1b97f4d1f60370fef10105fa2faae0126114a169c64845d6126c981565b60055460405160ff9091168152602001610172565b6101a260075481565b61018e610216366004611010565b6104aa565b61022e610229366004611010565b6104e0565b005b61022e61023e366004611076565b610559565b61018e61025136600461108f565b610566565b6101a261026436600461108f565b6001600160a01b031660009081526020819052604090205490565b61022e6105b7565b61022e610295366004611010565b61062b565b6101a26102a836600461108f565b6001600160a01b031660009081526006602052604090205490565b6008546001600160a01b03165b6040516001600160a01b039091168152602001610172565b610165610635565b61022e6102fe366004611010565b610644565b61018e610311366004611010565b6106aa565b61018e610324366004611010565b6106f9565b61022e6103373660046110aa565b610706565b6101a261034a36600461111d565b6001600160a01b03918216600090815260016020908152604080832093909416825291909152205490565b61022e61038336600461108f565b61092f565b6009546001600160a01b03166102d0565b6060600380546103a890611150565b80601f01602080910402602001604051908101604052809291908181526020018280546103d490611150565b80156104215780601f106103f657610100808354040283529160200191610421565b820191906000526020600020905b81548152906001019060200180831161040457829003601f168201915b5050505050905090565b6000610438338484610a1a565b50600192915050565b600061044e848484610b3f565b6104a0843361049b8560405180606001604052806028815260200161124e602891396001600160a01b038a1660009081526001602090815260408083203384529091529020549190610cc2565b610a1a565b5060019392505050565b3360008181526001602090815260408083206001600160a01b0387168452909152812054909161043891859061049b9086610cfc565b6009546001600160a01b0316331461054b5760405162461bcd60e51b815260206004820152602360248201527f5661756c744f776e65643a2063616c6c6572206973206e6f74207468652056616044820152621d5b1d60ea1b60648201526084015b60405180910390fd5b6105558282610d62565b5050565b6105633382610e41565b50565b6008546000906001600160a01b031633146105935760405162461bcd60e51b81526004016105429061118b565b50600980546001600160a01b0319166001600160a01b03831617905560015b919050565b6008546001600160a01b031633146105e15760405162461bcd60e51b81526004016105429061118b565b6008546040516000916001600160a01b0316907f8be0079c531659141344cd1fd0a4f28419497f9722a3daafe3b4186f6b6457e0908390a3600880546001600160a01b0319169055565b6105558282610644565b6060600480546103a890611150565b600061068e82604051806060016040528060248152602001611276602491396001600160a01b03861660009081526001602090815260408083203384529091529020549190610cc2565b905061069b833383610a1a565b6106a58383610e41565b505050565b6000610438338461049b8560405180606001604052806025815260200161129a602591393360009081526001602090815260408083206001600160a01b038d1684529091529020549190610cc2565b6000610438338484610b3f565b834211156107565760405162461bcd60e51b815260206004820152601860248201527f5065726d69743a206578706972656420646561646c696e6500000000000000006044820152606401610542565b6001600160a01b0387811660008181526006602090815260408083205481517f6e71edae12b1b97f4d1f60370fef10105fa2faae0126114a169c64845d6126c98185015280830195909552948b166060850152608084018a905260a084019490945260c08084018990528451808503909101815260e08401855280519082012060075461190160f01b61010086015261010285015261012280850182905285518086039091018152610142850180875281519184019190912090849052610162850180875281905260ff89166101828601526101a285018890526101c2850187905294519094936001926101e2808301939192601f198301929081900390910190855afa15801561086b573d6000803e3d6000fd5b5050604051601f1901519150506001600160a01b038116158015906108a15750896001600160a01b0316816001600160a01b0316145b6108f75760405162461bcd60e51b815260206004820152602160248201527f5a65726f537761705065726d69743a20496e76616c6964207369676e617475726044820152606560f81b6064820152608401610542565b6001600160a01b038a16600090815260066020526040902061091890610f45565b6109238a8a8a610a1a565b50505050505050505050565b6008546001600160a01b031633146109595760405162461bcd60e51b81526004016105429061118b565b6001600160a01b0381166109be5760405162461bcd60e51b815260206004820152602660248201527f4f776e61626c653a206e6577206f776e657220697320746865207a65726f206160448201526564647265737360d01b6064820152608401610542565b6008546040516001600160a01b038084169216907f8be0079c531659141344cd1fd0a4f28419497f9722a3daafe3b4186f6b6457e090600090a3600880546001600160a01b0319166001600160a01b0392909216919091179055565b6001600160a01b038316610a7c5760405162461bcd60e51b8152602060048201526024808201527f45524332303a20617070726f76652066726f6d20746865207a65726f206164646044820152637265737360e01b6064820152608401610542565b6001600160a01b038216610add5760405162461bcd60e51b815260206004820152602260248201527f45524332303a20617070726f766520746f20746865207a65726f206164647265604482015261737360f01b6064820152608401610542565b6001600160a01b0383811660008181526001602090815260408083209487168084529482529182902085905590518481527f8c5be1e5ebec7d5bd14f71427d1e84f3dd0314c0f7b2291e5b200ac8c7c3b92591015b60405180910390a3505050565b6001600160a01b038316610ba35760405162461bcd60e51b815260206004820152602560248201527f45524332303a207472616e736665722066726f6d20746865207a65726f206164604482015264647265737360d81b6064820152608401610542565b6001600160a01b038216610c055760405162461bcd60e51b815260206004820152602360248201527f45524332303a207472616e7366657220746f20746865207a65726f206164647260448201526265737360e81b6064820152608401610542565b610c4281604051806060016040528060268152602001611228602691396001600160a01b0386166000908152602081905260409020549190610cc2565b6001600160a01b038085166000908152602081905260408082209390935590841681522054610c719082610cfc565b6001600160a01b038381166000818152602081815260409182902094909455518481529092918616917fddf252ad1be2c89b69c2b068fc378daa952ba7f163c4a11628f55a4df523b3ef9101610b32565b60008184841115610ce65760405162461bcd60e51b81526004016105429190610fa4565b506000610cf384866111d6565b95945050505050565b600080610d0983856111ed565b905083811015610d5b5760405162461bcd60e51b815260206004820152601b60248201527f536166654d6174683a206164646974696f6e206f766572666c6f7700000000006044820152606401610542565b9392505050565b6001600160a01b038216610db85760405162461bcd60e51b815260206004820152601f60248201527f45524332303a206d696e7420746f20746865207a65726f2061646472657373006044820152606401610542565b600254610dc59082610cfc565b6002556001600160a01b038216600090815260208190526040902054610deb9082610cfc565b6001600160a01b038316600081815260208181526040918290209390935551838152909130917fddf252ad1be2c89b69c2b068fc378daa952ba7f163c4a11628f55a4df523b3ef91015b60405180910390a35050565b6001600160a01b038216610ea15760405162461bcd60e51b815260206004820152602160248201527f45524332303a206275726e2066726f6d20746865207a65726f206164647265736044820152607360f81b6064820152608401610542565b610ede81604051806060016040528060228152602001611206602291396001600160a01b0385166000908152602081905260409020549190610cc2565b6001600160a01b038316600090815260208190526040902055600254610f049082610f62565b6002556040518181526000906001600160a01b038416907fddf252ad1be2c89b69c2b068fc378daa952ba7f163c4a11628f55a4df523b3ef90602001610e35565b6001816000016000828254610f5a91906111ed565b909155505050565b6000610d5b83836040518060400160405280601e81526020017f536166654d6174683a207375627472616374696f6e206f766572666c6f770000815250610cc2565b600060208083528351808285015260005b81811015610fd157858101830151858201604001528201610fb5565b81811115610fe3576000604083870101525b50601f01601f1916929092016040019392505050565b80356001600160a01b03811681146105b257600080fd5b6000806040838503121561102357600080fd5b61102c83610ff9565b946020939093013593505050565b60008060006060848603121561104f57600080fd5b61105884610ff9565b925061106660208501610ff9565b9150604084013590509250925092565b60006020828403121561108857600080fd5b5035919050565b6000602082840312156110a157600080fd5b610d5b82610ff9565b600080600080600080600060e0888a0312156110c557600080fd5b6110ce88610ff9565b96506110dc60208901610ff9565b95506040880135945060608801359350608088013560ff8116811461110057600080fd5b9699959850939692959460a0840135945060c09093013592915050565b6000806040838503121561113057600080fd5b61113983610ff9565b915061114760208401610ff9565b90509250929050565b600181811c9082168061116457607f821691505b6020821081141561118557634e487b7160e01b600052602260045260246000fd5b50919050565b6020808252818101527f4f776e61626c653a2063616c6c6572206973206e6f7420746865206f776e6572604082015260600190565b634e487b7160e01b600052601160045260246000fd5b6000828210156111e8576111e86111c0565b500390565b60008219821115611200576112006111c0565b50019056fe45524332303a206275726e20616d6f756e7420657863656564732062616c616e636545524332303a207472616e7366657220616d6f756e7420657863656564732062616c616e636545524332303a207472616e7366657220616d6f756e74206578636565647320616c6c6f77616e636545524332303a206275726e20616d6f756e74206578636565647320616c6c6f77616e636545524332303a2064656372656173656420616c6c6f77616e63652062656c6f77207a65726fa264697066735822122039f4d65ef1fae249f3ac1f445ee2ca1b408c4434d47745f5ecbef494bccf94f564736f6c634300080a0033",
  "linkReferences": {},
  "deployedLinkReferences": {}
}