{
  "address": "0x0165878A594ca255338adfa4d48449f69242Eb8F",
  "abi": [
    {
      "anonymous": false,
      "inputs": [
        {
          "indexed": false,
          "internalType": "address",
          "name": "previousAdmin",
          "type": "address"
        },
        {
          "indexed": false,
          "internalType": "address",
          "name": "newAdmin",
          "type": "address"
        }
      ],
      "name": "AdminChanged",
      "type": "event"
    },
    {
      "anonymous": false,
      "inputs": [
        {
          "indexed": true,
          "internalType": "address",
          "name": "beacon",
          "type": "address"
        }
      ],
      "name": "BeaconUpgraded",
      "type": "event"
    },
    {
      "anonymous": false,
      "inputs": [
        {
          "indexed": true,
          "internalType": "address",
          "name": "user",
          "type": "address"
        },
        {
          "indexed": false,
          "internalType": "uint256",
          "name": "amount",
          "type": "uint256"
        },
        {
          "indexed": true,
          "internalType": "address",
          "name": "to",
          "type": "address"
        }
      ],
      "name": "Deposit",
      "type": "event"
    },
    {
      "anonymous": false,
      "inputs": [
        {
          "indexed": true,
          "internalType": "address",
          "name": "user",
          "type": "address"
        },
        {
          "indexed": false,
          "internalType": "uint256",
          "name": "amount",
          "type": "uint256"
        },
        {
          "indexed": true,
          "internalType": "address",
          "name": "to",
          "type": "address"
        }
      ],
      "name": "EmergencyWithdraw",
      "type": "event"
    },
    {
      "anonymous": false,
      "inputs": [
        {
          "indexed": true,
          "internalType": "address",
          "name": "receiver",
          "type": "address"
        },
        {
          "indexed": false,
          "internalType": "uint256",
          "name": "amount",
          "type": "uint256"
        }
      ],
      "name": "FundRescued",
      "type": "event"
    },
    {
      "anonymous": false,
      "inputs": [
        {
          "indexed": true,
          "internalType": "address",
          "name": "user",
          "type": "address"
        },
        {
          "indexed": false,
          "internalType": "uint256",
          "name": "amount",
          "type": "uint256"
        }
      ],
      "name": "Harvest",
      "type": "event"
    },
    {
      "anonymous": false,
      "inputs": [
        {
          "indexed": false,
          "internalType": "uint256",
          "name": "rewardPerSecond",
          "type": "uint256"
        }
      ],
      "name": "LogRewardPerSecond",
      "type": "event"
    },
    {
      "anonymous": false,
      "inputs": [
        {
          "indexed": false,
          "internalType": "uint256",
          "name": "lastRewardTime",
          "type": "uint256"
        },
        {
          "indexed": false,
          "internalType": "uint256",
          "name": "lpSupply",
          "type": "uint256"
        },
        {
          "indexed": false,
          "internalType": "uint256",
          "name": "accRewardPerShare",
          "type": "uint256"
        }
      ],
      "name": "LogUpdatePool",
      "type": "event"
    },
    {
      "anonymous": false,
      "inputs": [
        {
          "indexed": true,
          "internalType": "address",
          "name": "previousOwner",
          "type": "address"
        },
        {
          "indexed": true,
          "internalType": "address",
          "name": "newOwner",
          "type": "address"
        }
      ],
      "name": "OwnershipTransferred",
      "type": "event"
    },
    {
      "anonymous": false,
      "inputs": [
        {
          "indexed": true,
          "internalType": "address",
          "name": "implementation",
          "type": "address"
        }
      ],
      "name": "Upgraded",
      "type": "event"
    },
    {
      "anonymous": false,
      "inputs": [
        {
          "indexed": true,
          "internalType": "address",
          "name": "user",
          "type": "address"
        },
        {
          "indexed": false,
          "internalType": "uint256",
          "name": "amount",
          "type": "uint256"
        },
        {
          "indexed": true,
          "internalType": "address",
          "name": "to",
          "type": "address"
        }
      ],
      "name": "Withdraw",
      "type": "event"
    },
    {
      "inputs": [],
      "name": "accRewardPerShare",
      "outputs": [
        {
          "internalType": "uint256",
          "name": "",
          "type": "uint256"
        }
      ],
      "stateMutability": "view",
      "type": "function"
    },
    {
      "inputs": [
        {
          "internalType": "uint256",
          "name": "_addedReward",
          "type": "uint256"
        },
        {
          "internalType": "uint256",
          "name": "_days",
          "type": "uint256"
        }
      ],
      "name": "allocateMoreRewards",
      "outputs": [],
      "stateMutability": "nonpayable",
      "type": "function"
    },
    {
      "inputs": [
        {
          "internalType": "uint256",
          "name": "amount",
          "type": "uint256"
        },
        {
          "internalType": "address",
          "name": "to",
          "type": "address"
        }
      ],
      "name": "deposit",
      "outputs": [],
      "stateMutability": "nonpayable",
      "type": "function"
    },
    {
      "inputs": [
        {
          "internalType": "address",
          "name": "to",
          "type": "address"
        }
      ],
      "name": "emergencyWithdraw",
      "outputs": [],
      "stateMutability": "nonpayable",
      "type": "function"
    },
    {
      "inputs": [],
      "name": "endRewardTime",
      "outputs": [
        {
          "internalType": "uint256",
          "name": "",
          "type": "uint256"
        }
      ],
      "stateMutability": "view",
      "type": "function"
    },
    {
      "inputs": [
        {
          "internalType": "uint256",
          "name": "_from",
          "type": "uint256"
        },
        {
          "internalType": "uint256",
          "name": "_to",
          "type": "uint256"
        }
      ],
      "name": "getRewardForDuration",
      "outputs": [
        {
          "internalType": "uint256",
          "name": "",
          "type": "uint256"
        }
      ],
      "stateMutability": "view",
      "type": "function"
    },
    {
      "inputs": [],
      "name": "getRewardPerSecond",
      "outputs": [
        {
          "internalType": "uint256",
          "name": "",
          "type": "uint256"
        }
      ],
      "stateMutability": "view",
      "type": "function"
    },
    {
      "inputs": [
        {
          "internalType": "address",
          "name": "to",
          "type": "address"
        }
      ],
      "name": "harvest",
      "outputs": [],
      "stateMutability": "nonpayable",
      "type": "function"
    },
    {
      "inputs": [
        {
          "internalType": "contract IERC20",
          "name": "_usdc",
          "type": "address"
        },
        {
          "internalType": "contract IERC20",
          "name": "_redRequiem",
          "type": "address"
        }
      ],
      "name": "initialize",
      "outputs": [],
      "stateMutability": "nonpayable",
      "type": "function"
    },
    {
      "inputs": [],
      "name": "lastRewardTime",
      "outputs": [
        {
          "internalType": "uint256",
          "name": "",
          "type": "uint256"
        }
      ],
      "stateMutability": "view",
      "type": "function"
    },
    {
      "inputs": [],
      "name": "owner",
      "outputs": [
        {
          "internalType": "address",
          "name": "",
          "type": "address"
        }
      ],
      "stateMutability": "view",
      "type": "function"
    },
    {
      "inputs": [
        {
          "internalType": "address",
          "name": "_user",
          "type": "address"
        }
      ],
      "name": "pendingReward",
      "outputs": [
        {
          "internalType": "uint256",
          "name": "pending",
          "type": "uint256"
        }
      ],
      "stateMutability": "view",
      "type": "function"
    },
    {
      "inputs": [],
      "name": "redRequiem",
      "outputs": [
        {
          "internalType": "contract IERC20",
          "name": "",
          "type": "address"
        }
      ],
      "stateMutability": "view",
      "type": "function"
    },
    {
      "inputs": [],
      "name": "renounceOwnership",
      "outputs": [],
      "stateMutability": "nonpayable",
      "type": "function"
    },
    {
      "inputs": [
        {
          "internalType": "uint256",
          "name": "_amount",
          "type": "uint256"
        }
      ],
      "name": "rescueFund",
      "outputs": [],
      "stateMutability": "nonpayable",
      "type": "function"
    },
    {
      "inputs": [],
      "name": "reserveFund",
      "outputs": [
        {
          "internalType": "address",
          "name": "",
          "type": "address"
        }
      ],
      "stateMutability": "view",
      "type": "function"
    },
    {
      "inputs": [],
      "name": "rewardPerSecond",
      "outputs": [
        {
          "internalType": "uint256",
          "name": "",
          "type": "uint256"
        }
      ],
      "stateMutability": "view",
      "type": "function"
    },
    {
      "inputs": [
        {
          "internalType": "address",
          "name": "_reserveFund",
          "type": "address"
        }
      ],
      "name": "setReserveFund",
      "outputs": [],
      "stateMutability": "nonpayable",
      "type": "function"
    },
    {
      "inputs": [
        {
          "internalType": "uint256",
          "name": "_rewardPerSecond",
          "type": "uint256"
        }
      ],
      "name": "setRewardPerSecond",
      "outputs": [],
      "stateMutability": "nonpayable",
      "type": "function"
    },
    {
      "inputs": [],
      "name": "startRewardTime",
      "outputs": [
        {
          "internalType": "uint256",
          "name": "",
          "type": "uint256"
        }
      ],
      "stateMutability": "view",
      "type": "function"
    },
    {
      "inputs": [
        {
          "internalType": "address",
          "name": "newOwner",
          "type": "address"
        }
      ],
      "name": "transferOwnership",
      "outputs": [],
      "stateMutability": "nonpayable",
      "type": "function"
    },
    {
      "inputs": [],
      "name": "updatePool",
      "outputs": [],
      "stateMutability": "nonpayable",
      "type": "function"
    },
    {
      "inputs": [
        {
          "internalType": "address",
          "name": "newImplementation",
          "type": "address"
        }
      ],
      "name": "upgradeTo",
      "outputs": [],
      "stateMutability": "nonpayable",
      "type": "function"
    },
    {
      "inputs": [
        {
          "internalType": "address",
          "name": "newImplementation",
          "type": "address"
        },
        {
          "internalType": "bytes",
          "name": "data",
          "type": "bytes"
        }
      ],
      "name": "upgradeToAndCall",
      "outputs": [],
      "stateMutability": "payable",
      "type": "function"
    },
    {
      "inputs": [],
      "name": "usdc",
      "outputs": [
        {
          "internalType": "contract IERC20",
          "name": "",
          "type": "address"
        }
      ],
      "stateMutability": "view",
      "type": "function"
    },
    {
      "inputs": [
        {
          "internalType": "address",
          "name": "",
          "type": "address"
        }
      ],
      "name": "userInfo",
      "outputs": [
        {
          "internalType": "uint256",
          "name": "amount",
          "type": "uint256"
        },
        {
          "internalType": "int256",
          "name": "rewardDebt",
          "type": "int256"
        }
      ],
      "stateMutability": "view",
      "type": "function"
    },
    {
      "inputs": [
        {
          "internalType": "uint256",
          "name": "amount",
          "type": "uint256"
        },
        {
          "internalType": "address",
          "name": "to",
          "type": "address"
        }
      ],
      "name": "withdraw",
      "outputs": [],
      "stateMutability": "nonpayable",
      "type": "function"
    },
    {
      "inputs": [
        {
          "internalType": "uint256",
          "name": "amount",
          "type": "uint256"
        },
        {
          "internalType": "address",
          "name": "to",
          "type": "address"
        }
      ],
      "name": "withdrawAndHarvest",
      "outputs": [],
      "stateMutability": "nonpayable",
      "type": "function"
    }
  ],
  "transactionHash": "0xc580105612980380b46bd997983ef9c9dcb1b58bc86852af299e601dd5c2a9f2",
  "args": [],
  "solcInputHash": "32302213c98df724d7b81dc9a6f1eea5",
  "bytecode": "0x60a06040523060805234801561001457600080fd5b506080516120a361004560003960008181610776015281816107bf01528181610a800152610ac001526120a36000f3fe6080604052600436106101b65760003560e01c80637a259680116100ec578063c1f3d9631161008a578063eb34536711610064578063eb345367146104b3578063f2fde38b146104d3578063f40f0f52146104f3578063f498d8a61461051357600080fd5b8063c1f3d96314610469578063da5b4ee714610489578063e3161ddd1461049e57600080fd5b80639231cf74116100c65780639231cf7414610406578063939d62371461041c57806395e9d97314610432578063b7f92b711461044957600080fd5b80637a259680146103b15780638da5cb5b146103d15780638f10369a146103ef57600080fd5b80634546cb8b1161015957806366da58151161013357806366da58151461033c5780636e553f651461035c5780636ff1c9bc1461037c578063715018a61461039c57600080fd5b80634546cb8b146102e9578063485cc955146103095780634f1ef2861461032957600080fd5b80631959a002116101955780631959a0021461022757806323ad7676146102715780633659cfe6146102915780633e413bee146102b157600080fd5b8062f714ce146101bb57806302a24770146101dd5780630e5c011e14610207575b600080fd5b3480156101c757600080fd5b506101db6101d6366004611a9f565b610533565b005b3480156101e957600080fd5b506101f46101005481565b6040519081526020015b60405180910390f35b34801561021357600080fd5b506101db610222366004611acf565b6105f7565b34801561023357600080fd5b5061025c610242366004611acf565b610103602052600090815260409020805460019091015482565b604080519283526020830191909152016101fe565b34801561027d57600080fd5b506101f461028c366004611aec565b6106bb565b34801561029d57600080fd5b506101db6102ac366004611acf565b61076b565b3480156102bd57600080fd5b5060fb546102d1906001600160a01b031681565b6040516001600160a01b0390911681526020016101fe565b3480156102f557600080fd5b506101db610304366004611aec565b61083d565b34801561031557600080fd5b506101db610324366004611b0e565b6109bd565b6101db610337366004611b52565b610a75565b34801561034857600080fd5b506101db610357366004611c16565b610b2f565b34801561036857600080fd5b506101db610377366004611a9f565b610b96565b34801561038857600080fd5b506101db610397366004611acf565b610c5b565b3480156103a857600080fd5b506101db610ccf565b3480156103bd57600080fd5b5060fc546102d1906001600160a01b031681565b3480156103dd57600080fd5b506033546001600160a01b03166102d1565b3480156103fb57600080fd5b506101f46101025481565b34801561041257600080fd5b506101f460ff5481565b34801561042857600080fd5b506101f460fe5481565b34801561043e57600080fd5b506101f46101015481565b34801561045557600080fd5b5060fd546102d1906001600160a01b031681565b34801561047557600080fd5b506101db610484366004611a9f565b610d05565b34801561049557600080fd5b506101f4610e60565b3480156104aa57600080fd5b506101db610e76565b3480156104bf57600080fd5b506101db6104ce366004611c16565b610f7b565b3480156104df57600080fd5b506101db6104ee366004611acf565b6110d6565b3480156104ff57600080fd5b506101f461050e366004611acf565b61116e565b34801561051f57600080fd5b506101db61052e366004611acf565b611292565b61053b610e76565b3360009081526101036020526040902060fe5464e8d4a510009061055f9085611c45565b6105699190611c64565b81600101600082825461057c9190611c86565b9091555050805483908290600090610595908490611cc5565b909155505060fc546105b1906001600160a01b03168385611302565b6040518381526001600160a01b0383169033907f56c54ba9bd38d8fd62012e42c7ee564519b09763c426d331b3661b537ead19b2906020015b60405180910390a3505050565b6105ff610e76565b3360009081526101036020526040812060fe54815491929164e8d4a510009161062791611c45565b6106319190611c64565b90506000610641600c600a611dc0565b60018401546106509084611c86565b61065a9190611c64565b60018401839055905080156106805760fb54610680906001600160a01b03168583611302565b60405181815233907fc9695243a805adb74c91f28311176c65b417e842d5699893cef56d18bfa48cba9060200160405180910390a250505050565b6101025460009082841015806106d45750610100548410155b156106e3576000915050610765565b6101015483116106f7576000915050610765565b6101015484116107405761010054831161072d5780610101548461071b9190611cc5565b6107259190611c45565b915050610765565b80610101546101005461071b9190611cc5565b610100548311610755578061071b8585611cc5565b80846101005461071b9190611cc5565b92915050565b306001600160a01b037f00000000000000000000000000000000000000000000000000000000000000001614156107bd5760405162461bcd60e51b81526004016107b490611dcc565b60405180910390fd5b7f00000000000000000000000000000000000000000000000000000000000000006001600160a01b03166107ef611365565b6001600160a01b0316146108155760405162461bcd60e51b81526004016107b490611e18565b61081e81611393565b6040805160008082526020820190925261083a918391906113bd565b50565b60fd546001600160a01b031633148061086f5750336108646033546001600160a01b031690565b6001600160a01b0316145b61088b5760405162461bcd60e51b81526004016107b490611e64565b610893610e76565b60004261010054116108a65760006108b5565b42610100546108b59190611cc5565b905060006108c5600c600a611dc0565b6108cf9085611c45565b82610102546108de9190611c45565b6108e89190611eb4565b905060006108f98462015180611c45565b6109039084611eb4565b905060006109118284611c64565b6101028190559050841561096a574261010054101561094a576109378562015180611c45565b6109419042611eb4565b6101005561096a565b6109578562015180611c45565b610100546109659190611eb4565b610100555b60fb54610982906001600160a01b0316333089611508565b6040518181527fde89cb17ac7f58f94792b3e91e086ed85403819c24ceea882491f960ccb1a2789060200160405180910390a1505050505050565b600054610100900460ff16806109d6575060005460ff16155b6109f25760405162461bcd60e51b81526004016107b490611ecc565b600054610100900460ff16158015610a14576000805461ffff19166101011790555b610a1c611546565b610a246115c1565b60fb80546001600160a01b038086166001600160a01b03199283161790925560fc8054928516929091169190911790554260ff819055610101558015610a70576000805461ff00191690555b505050565b306001600160a01b037f0000000000000000000000000000000000000000000000000000000000000000161415610abe5760405162461bcd60e51b81526004016107b490611dcc565b7f00000000000000000000000000000000000000000000000000000000000000006001600160a01b0316610af0611365565b6001600160a01b031614610b165760405162461bcd60e51b81526004016107b490611e18565b610b1f82611393565b610b2b828260016113bd565b5050565b6033546001600160a01b03163314610b595760405162461bcd60e51b81526004016107b490611f1a565b6101028190556040518181527fde89cb17ac7f58f94792b3e91e086ed85403819c24ceea882491f960ccb1a278906020015b60405180910390a150565b610b9e610e76565b6001600160a01b038116600090815261010360205260408120805490918491839190610bcb908490611eb4565b909155505060fe5464e8d4a5100090610be49085611c45565b610bee9190611c64565b816001016000828254610c019190611f4f565b909155505060fc54610c1e906001600160a01b0316333086611508565b6040518381526001600160a01b0383169033907fe31c7b8d08ee7db0afa68782e1028ef92305caeea8626633ad44d413e30f6b2f906020016105ea565b336000908152610103602052604081208054828255600182019290925560fc54909190610c92906001600160a01b03168483611302565b6040518181526001600160a01b0384169033907faaeda929aa102e867049528ec7cd2499e3a2f8846e736ae7935f234dfbf500d9906020016105ea565b6033546001600160a01b03163314610cf95760405162461bcd60e51b81526004016107b490611f1a565b610d036000611620565b565b610d0d610e76565b3360009081526101036020526040812060fe54815491929164e8d4a5100091610d3591611c45565b610d3f9190611c64565b90506000610d4f600c600a611dc0565b6001840154610d5e9084611c86565b610d689190611c64565b905064e8d4a5100060fe5486610d7e9190611c45565b610d889190611c64565b610d929083611c86565b6001840155825485908490600090610dab908490611cc5565b90915550508015610dcd5760fb54610dcd906001600160a01b03168583611302565b60fc54610de4906001600160a01b03168587611302565b6040518581526001600160a01b0385169033907f56c54ba9bd38d8fd62012e42c7ee564519b09763c426d331b3661b537ead19b29060200160405180910390a360405181815233907fc9695243a805adb74c91f28311176c65b417e842d5699893cef56d18bfa48cba9060200160405180910390a25050505050565b6000610e714261028c816001611eb4565b905090565b60ff54421115610d035760fc546040516370a0823160e01b81523060048201526000916001600160a01b0316906370a0823190602401602060405180830381865afa158015610ec9573d6000803e3d6000fd5b505050506040513d601f19601f82011682018060405250810190610eed9190611f90565b90508015610f37576000610f0360ff54426106bb565b905081610f1564e8d4a5100083611c45565b610f1f9190611c64565b60fe6000828254610f309190611eb4565b9091555050505b4260ff81905560fe5460408051928352602083018490528201527f1f2d1a9fde053af46b5db3dc92a8aa8696e56a677998fdd1311b45be341f785390606001610b8b565b6033546001600160a01b03163314610fa55760405162461bcd60e51b81526004016107b490611f1a565b600081118015611020575060fb546040516370a0823160e01b81523060048201526001600160a01b03909116906370a0823190602401602060405180830381865afa158015610ff8573d6000803e3d6000fd5b505050506040513d601f19601f8201168201806040525081019061101c9190611f90565b8111155b61105d5760405162461bcd60e51b815260206004820152600e60248201526d1a5b9d985b1a5908185b5bdd5b9d60921b60448201526064016107b4565b6110856110726033546001600160a01b031690565b60fb546001600160a01b03169083611302565b6033546001600160a01b03166001600160a01b03167fff3a30b961085f5af58e1a3344fa9a4465907b432f767fe99e318c2231e9c284826040516110cb91815260200190565b60405180910390a250565b6033546001600160a01b031633146111005760405162461bcd60e51b81526004016107b490611f1a565b6001600160a01b0381166111655760405162461bcd60e51b815260206004820152602660248201527f4f776e61626c653a206e6577206f776e657220697320746865207a65726f206160448201526564647265737360d01b60648201526084016107b4565b61083a81611620565b6001600160a01b038181166000908152610103602052604080822060fc5491516370a0823160e01b8152306004820152929390928492909116906370a0823190602401602060405180830381865afa1580156111ce573d6000803e3d6000fd5b505050506040513d601f19601f820116820180604052508101906111f29190611f90565b60fe5460ff54919250904211801561120957508115155b1561124657600061121c60ff54426106bb565b90508261122e64e8d4a5100083611c45565b6112389190611c64565b6112429083611eb4565b9150505b611252600c600a611dc0565b6001840154845464e8d4a510009061126b908590611c45565b6112759190611c64565b61127f9190611c86565b6112899190611c64565b95945050505050565b60fd546001600160a01b03163314806112c45750336112b96033546001600160a01b031690565b6001600160a01b0316145b6112e05760405162461bcd60e51b81526004016107b490611e64565b60fd80546001600160a01b0319166001600160a01b0392909216919091179055565b6040516001600160a01b038316602482015260448101829052610a7090849063a9059cbb60e01b906064015b60408051601f198184030181529190526020810180516001600160e01b03166001600160e01b031990931692909217909152611672565b7f360894a13ba1a3210667c828492db98dca3e2076cc3735a920a3ca505d382bbc546001600160a01b031690565b6033546001600160a01b0316331461083a5760405162461bcd60e51b81526004016107b490611f1a565b60006113c7611365565b90506113d284611749565b6000835111806113df5750815b156113f0576113ee84846117ee565b505b7f4910fdfa16fed3260ed0e7147f7cc6da11a60208b5b9406d12a635614ffd9143805460ff1661150157805460ff191660011781556040516001600160a01b038316602482015261146f90869060440160408051601f198184030181529190526020810180516001600160e01b0316631b2ce7f360e11b1790526117ee565b50805460ff19168155611480611365565b6001600160a01b0316826001600160a01b0316146114f85760405162461bcd60e51b815260206004820152602f60248201527f45524331393637557067726164653a207570677261646520627265616b73206660448201526e75727468657220757067726164657360881b60648201526084016107b4565b611501856118d0565b5050505050565b6040516001600160a01b03808516602483015283166044820152606481018290526115409085906323b872dd60e01b9060840161132e565b50505050565b600054610100900460ff168061155f575060005460ff16155b61157b5760405162461bcd60e51b81526004016107b490611ecc565b600054610100900460ff1615801561159d576000805461ffff19166101011790555b6115a5611910565b6115ad61197a565b801561083a576000805461ff001916905550565b600054610100900460ff16806115da575060005460ff16155b6115f65760405162461bcd60e51b81526004016107b490611ecc565b600054610100900460ff16158015611618576000805461ffff19166101011790555b6115ad6119da565b603380546001600160a01b038381166001600160a01b0319831681179093556040519116919082907f8be0079c531659141344cd1fd0a4f28419497f9722a3daafe3b4186f6b6457e090600090a35050565b600080836001600160a01b03168360405161168d9190611fd5565b6000604051808303816000865af19150503d80600081146116ca576040519150601f19603f3d011682016040523d82523d6000602084013e6116cf565b606091505b509150915060008214156116e7573d6000803e3d6000fd5b805115806117045750808060200190518101906117049190611ff1565b6115405760405162461bcd60e51b815260206004820152601660248201527514d0519157d15490cc8c17d0d0531317d1905253115160521b60448201526064016107b4565b803b6117ad5760405162461bcd60e51b815260206004820152602d60248201527f455243313936373a206e657720696d706c656d656e746174696f6e206973206e60448201526c1bdd08184818dbdb9d1c9858dd609a1b60648201526084016107b4565b7f360894a13ba1a3210667c828492db98dca3e2076cc3735a920a3ca505d382bbc80546001600160a01b0319166001600160a01b0392909216919091179055565b6060823b61184d5760405162461bcd60e51b815260206004820152602660248201527f416464726573733a2064656c65676174652063616c6c20746f206e6f6e2d636f6044820152651b9d1c9858dd60d21b60648201526084016107b4565b600080846001600160a01b0316846040516118689190611fd5565b600060405180830381855af49150503d80600081146118a3576040519150601f19603f3d011682016040523d82523d6000602084013e6118a8565b606091505b5091509150611289828260405180606001604052806027815260200161204760279139611a4a565b6118d981611749565b6040516001600160a01b038216907fbc7cd75a20ee27fd9adebab32041f755214dbc6bffa90cc0225b39da2e5c2d3b90600090a250565b600054610100900460ff1680611929575060005460ff16155b6119455760405162461bcd60e51b81526004016107b490611ecc565b600054610100900460ff161580156115ad576000805461ffff1916610101179055801561083a576000805461ff001916905550565b600054610100900460ff1680611993575060005460ff16155b6119af5760405162461bcd60e51b81526004016107b490611ecc565b600054610100900460ff161580156119d1576000805461ffff19166101011790555b6115ad33611620565b600054610100900460ff16806119f3575060005460ff16155b611a0f5760405162461bcd60e51b81526004016107b490611ecc565b600054610100900460ff16158015611a31576000805461ffff19166101011790555b600160c955801561083a576000805461ff001916905550565b60608315611a59575081611a83565b825115611a695782518084602001fd5b8160405162461bcd60e51b81526004016107b49190612013565b9392505050565b6001600160a01b038116811461083a57600080fd5b60008060408385031215611ab257600080fd5b823591506020830135611ac481611a8a565b809150509250929050565b600060208284031215611ae157600080fd5b8135611a8381611a8a565b60008060408385031215611aff57600080fd5b50508035926020909101359150565b60008060408385031215611b2157600080fd5b8235611b2c81611a8a565b91506020830135611ac481611a8a565b634e487b7160e01b600052604160045260246000fd5b60008060408385031215611b6557600080fd5b8235611b7081611a8a565b9150602083013567ffffffffffffffff80821115611b8d57600080fd5b818501915085601f830112611ba157600080fd5b813581811115611bb357611bb3611b3c565b604051601f8201601f19908116603f01168101908382118183101715611bdb57611bdb611b3c565b81604052828152886020848701011115611bf457600080fd5b8260208601602083013760006020848301015280955050505050509250929050565b600060208284031215611c2857600080fd5b5035919050565b634e487b7160e01b600052601160045260246000fd5b6000816000190483118215151615611c5f57611c5f611c2f565b500290565b600082611c8157634e487b7160e01b600052601260045260246000fd5b500490565b60008083128015600160ff1b850184121615611ca457611ca4611c2f565b6001600160ff1b0384018313811615611cbf57611cbf611c2f565b50500390565b600082821015611cd757611cd7611c2f565b500390565b600181815b80851115611d17578160001904821115611cfd57611cfd611c2f565b80851615611d0a57918102915b93841c9390800290611ce1565b509250929050565b600082611d2e57506001610765565b81611d3b57506000610765565b8160018114611d515760028114611d5b57611d77565b6001915050610765565b60ff841115611d6c57611d6c611c2f565b50506001821b610765565b5060208310610133831016604e8410600b8410161715611d9a575081810a610765565b611da48383611cdc565b8060001904821115611db857611db8611c2f565b029392505050565b6000611a838383611d1f565b6020808252602c908201527f46756e6374696f6e206d7573742062652063616c6c6564207468726f7567682060408201526b19195b1959d85d1958d85b1b60a21b606082015260800190565b6020808252602c908201527f46756e6374696f6e206d7573742062652063616c6c6564207468726f7567682060408201526b6163746976652070726f787960a01b606082015260800190565b60208082526030908201527f5265645265717569656d5374616b696e673a2063616c6c6572206973206e6f7460408201526f081d1a19481c995cd95c9d99519d5b9960821b606082015260800190565b60008219821115611ec757611ec7611c2f565b500190565b6020808252602e908201527f496e697469616c697a61626c653a20636f6e747261637420697320616c72656160408201526d191e481a5b9a5d1a585b1a5e995960921b606082015260800190565b6020808252818101527f4f776e61626c653a2063616c6c6572206973206e6f7420746865206f776e6572604082015260600190565b600080821280156001600160ff1b0384900385131615611f7157611f71611c2f565b600160ff1b8390038412811615611f8a57611f8a611c2f565b50500190565b600060208284031215611fa257600080fd5b5051919050565b60005b83811015611fc4578181015183820152602001611fac565b838111156115405750506000910152565b60008251611fe7818460208701611fa9565b9190910192915050565b60006020828403121561200357600080fd5b81518015158114611a8357600080fd5b6020815260008251806020840152612032816040850160208701611fa9565b601f01601f1916919091016040019291505056fe416464726573733a206c6f772d6c6576656c2064656c65676174652063616c6c206661696c6564a2646970667358221220825428b2dd16f09c5ca2dbe1c31d3f25d973c4da1d7ef7d1e16e0894b403d43864736f6c634300080c0033",
  "devdoc": {
    "kind": "dev",
    "methods": {
      "deposit(uint256,address)": {
        "params": {
          "amount": "LP token amount to deposit.",
          "to": "The receiver of `amount` deposit benefit."
        }
      },
      "emergencyWithdraw(address)": {
        "params": {
          "to": "Receiver of the LP tokens."
        }
      },
      "harvest(address)": {
        "params": {
          "to": "Receiver of rewards."
        }
      },
      "owner()": {
        "details": "Returns the address of the current owner."
      },
      "pendingReward(address)": {
        "params": {
          "_user": "Address of user."
        },
        "returns": {
          "pending": "reward for a given user."
        }
      },
      "renounceOwnership()": {
        "details": "Leaves the contract without owner. It will not be possible to call `onlyOwner` functions anymore. Can only be called by the current owner. NOTE: Renouncing ownership will leave the contract without an owner, thereby removing any functionality that is only available to the owner."
      },
      "setRewardPerSecond(uint256)": {
        "params": {
          "_rewardPerSecond": "The amount of reward to be distributed per second."
        }
      },
      "transferOwnership(address)": {
        "details": "Transfers ownership of the contract to a new account (`newOwner`). Can only be called by the current owner."
      },
      "upgradeTo(address)": {
        "details": "Upgrade the implementation of the proxy to `newImplementation`. Calls {_authorizeUpgrade}. Emits an {Upgraded} event."
      },
      "upgradeToAndCall(address,bytes)": {
        "details": "Upgrade the implementation of the proxy to `newImplementation`, and subsequently execute the function call encoded in `data`. Calls {_authorizeUpgrade}. Emits an {Upgraded} event."
      },
      "withdraw(uint256,address)": {
        "params": {
          "amount": "LP token amount to withdraw.",
          "to": "Receiver of the LP tokens."
        }
      },
      "withdrawAndHarvest(uint256,address)": {
        "params": {
          "amount": "LP token amount to withdraw.",
          "to": "Receiver of the LP tokens and rewards."
        }
      }
    },
    "version": 1
  },
  "userdoc": {
    "kind": "user",
    "methods": {
      "deposit(uint256,address)": {
        "notice": "Deposit LP tokens to MCV2 for reward allocation."
      },
      "emergencyWithdraw(address)": {
        "notice": "Withdraw without caring about rewards. EMERGENCY ONLY."
      },
      "harvest(address)": {
        "notice": "Harvest proceeds for transaction sender to `to`."
      },
      "pendingReward(address)": {
        "notice": "View function to see pending reward on frontend."
      },
      "setRewardPerSecond(uint256)": {
        "notice": "Sets the reward per second to be distributed. Can only be called by the owner."
      },
      "updatePool()": {
        "notice": "Update reward variables of the given pool."
      },
      "withdraw(uint256,address)": {
        "notice": "Withdraw LP tokens from MCV2."
      },
      "withdrawAndHarvest(uint256,address)": {
        "notice": "Withdraw LP tokens from MCV2 and harvest proceeds for transaction sender to `to`."
      }
    },
    "version": 1
  },
  "storageLayout": {
    "storage": [
      {
        "astId": 7112,
        "contract": "contracts/RedRequiemStaking.sol:RedRequiemStaking",
        "label": "_initialized",
        "offset": 0,
        "slot": "0",
        "type": "t_bool"
      },
      {
        "astId": 7115,
        "contract": "contracts/RedRequiemStaking.sol:RedRequiemStaking",
        "label": "_initializing",
        "offset": 1,
        "slot": "0",
        "type": "t_bool"
      },
      {
        "astId": 8846,
        "contract": "contracts/RedRequiemStaking.sol:RedRequiemStaking",
        "label": "__gap",
        "offset": 0,
        "slot": "1",
        "type": "t_array(t_uint256)50_storage"
      },
      {
        "astId": 7706,
        "contract": "contracts/RedRequiemStaking.sol:RedRequiemStaking",
        "label": "_owner",
        "offset": 0,
        "slot": "51",
        "type": "t_address"
      },
      {
        "astId": 7820,
        "contract": "contracts/RedRequiemStaking.sol:RedRequiemStaking",
        "label": "__gap",
        "offset": 0,
        "slot": "52",
        "type": "t_array(t_uint256)49_storage"
      },
      {
        "astId": 6336,
        "contract": "contracts/RedRequiemStaking.sol:RedRequiemStaking",
        "label": "__gap",
        "offset": 0,
        "slot": "101",
        "type": "t_array(t_uint256)50_storage"
      },
      {
        "astId": 8499,
        "contract": "contracts/RedRequiemStaking.sol:RedRequiemStaking",
        "label": "__gap",
        "offset": 0,
        "slot": "151",
        "type": "t_array(t_uint256)50_storage"
      },
      {
        "astId": 8514,
        "contract": "contracts/RedRequiemStaking.sol:RedRequiemStaking",
        "label": "_status",
        "offset": 0,
        "slot": "201",
        "type": "t_uint256"
      },
      {
        "astId": 8557,
        "contract": "contracts/RedRequiemStaking.sol:RedRequiemStaking",
        "label": "__gap",
        "offset": 0,
        "slot": "202",
        "type": "t_array(t_uint256)49_storage"
      },
      {
        "astId": 981,
        "contract": "contracts/RedRequiemStaking.sol:RedRequiemStaking",
        "label": "usdc",
        "offset": 0,
        "slot": "251",
        "type": "t_contract(IERC20)5118"
      },
      {
        "astId": 984,
        "contract": "contracts/RedRequiemStaking.sol:RedRequiemStaking",
        "label": "redRequiem",
        "offset": 0,
        "slot": "252",
        "type": "t_contract(IERC20)5118"
      },
      {
        "astId": 986,
        "contract": "contracts/RedRequiemStaking.sol:RedRequiemStaking",
        "label": "reserveFund",
        "offset": 0,
        "slot": "253",
        "type": "t_address"
      },
      {
        "astId": 988,
        "contract": "contracts/RedRequiemStaking.sol:RedRequiemStaking",
        "label": "accRewardPerShare",
        "offset": 0,
        "slot": "254",
        "type": "t_uint256"
      },
      {
        "astId": 990,
        "contract": "contracts/RedRequiemStaking.sol:RedRequiemStaking",
        "label": "lastRewardTime",
        "offset": 0,
        "slot": "255",
        "type": "t_uint256"
      },
      {
        "astId": 992,
        "contract": "contracts/RedRequiemStaking.sol:RedRequiemStaking",
        "label": "endRewardTime",
        "offset": 0,
        "slot": "256",
        "type": "t_uint256"
      },
      {
        "astId": 994,
        "contract": "contracts/RedRequiemStaking.sol:RedRequiemStaking",
        "label": "startRewardTime",
        "offset": 0,
        "slot": "257",
        "type": "t_uint256"
      },
      {
        "astId": 996,
        "contract": "contracts/RedRequiemStaking.sol:RedRequiemStaking",
        "label": "rewardPerSecond",
        "offset": 0,
        "slot": "258",
        "type": "t_uint256"
      },
      {
        "astId": 1007,
        "contract": "contracts/RedRequiemStaking.sol:RedRequiemStaking",
        "label": "userInfo",
        "offset": 0,
        "slot": "259",
        "type": "t_mapping(t_address,t_struct(UserInfo)978_storage)"
      }
    ],
    "types": {
      "t_address": {
        "encoding": "inplace",
        "label": "address",
        "numberOfBytes": "20"
      },
      "t_array(t_uint256)49_storage": {
        "base": "t_uint256",
        "encoding": "inplace",
        "label": "uint256[49]",
        "numberOfBytes": "1568"
      },
      "t_array(t_uint256)50_storage": {
        "base": "t_uint256",
        "encoding": "inplace",
        "label": "uint256[50]",
        "numberOfBytes": "1600"
      },
      "t_bool": {
        "encoding": "inplace",
        "label": "bool",
        "numberOfBytes": "1"
      },
      "t_contract(IERC20)5118": {
        "encoding": "inplace",
        "label": "contract IERC20",
        "numberOfBytes": "20"
      },
      "t_int256": {
        "encoding": "inplace",
        "label": "int256",
        "numberOfBytes": "32"
      },
      "t_mapping(t_address,t_struct(UserInfo)978_storage)": {
        "encoding": "mapping",
        "key": "t_address",
        "label": "mapping(address => struct RedRequiemStaking.UserInfo)",
        "numberOfBytes": "32",
        "value": "t_struct(UserInfo)978_storage"
      },
      "t_struct(UserInfo)978_storage": {
        "encoding": "inplace",
        "label": "struct RedRequiemStaking.UserInfo",
        "members": [
          {
            "astId": 975,
            "contract": "contracts/RedRequiemStaking.sol:RedRequiemStaking",
            "label": "amount",
            "offset": 0,
            "slot": "0",
            "type": "t_uint256"
          },
          {
            "astId": 977,
            "contract": "contracts/RedRequiemStaking.sol:RedRequiemStaking",
            "label": "rewardDebt",
            "offset": 0,
            "slot": "1",
            "type": "t_int256"
          }
        ],
        "numberOfBytes": "64"
      },
      "t_uint256": {
        "encoding": "inplace",
        "label": "uint256",
        "numberOfBytes": "32"
      }
    }
  }
}