{
  "address": "0x0165878A594ca255338adfa4d48449f69242Eb8F",
  "abi": [
    {
      "anonymous": false,
      "inputs": [
        {
          "indexed": false,
          "internalType": "address",
          "name": "previousAdmin",
          "type": "address"
        },
        {
          "indexed": false,
          "internalType": "address",
          "name": "newAdmin",
          "type": "address"
        }
      ],
      "name": "AdminChanged",
      "type": "event"
    },
    {
      "anonymous": false,
      "inputs": [
        {
          "indexed": true,
          "internalType": "address",
          "name": "beacon",
          "type": "address"
        }
      ],
      "name": "BeaconUpgraded",
      "type": "event"
    },
    {
      "anonymous": false,
      "inputs": [
        {
          "indexed": true,
          "internalType": "address",
          "name": "user",
          "type": "address"
        },
        {
          "indexed": false,
          "internalType": "uint256",
          "name": "amount",
          "type": "uint256"
        },
        {
          "indexed": true,
          "internalType": "address",
          "name": "to",
          "type": "address"
        }
      ],
      "name": "Deposit",
      "type": "event"
    },
    {
      "anonymous": false,
      "inputs": [
        {
          "indexed": true,
          "internalType": "address",
          "name": "user",
          "type": "address"
        },
        {
          "indexed": false,
          "internalType": "uint256",
          "name": "amount",
          "type": "uint256"
        },
        {
          "indexed": true,
          "internalType": "address",
          "name": "to",
          "type": "address"
        }
      ],
      "name": "EmergencyWithdraw",
      "type": "event"
    },
    {
      "anonymous": false,
      "inputs": [
        {
          "indexed": true,
          "internalType": "address",
          "name": "receiver",
          "type": "address"
        },
        {
          "indexed": false,
          "internalType": "uint256",
          "name": "amount",
          "type": "uint256"
        }
      ],
      "name": "FundRescued",
      "type": "event"
    },
    {
      "anonymous": false,
      "inputs": [
        {
          "indexed": true,
          "internalType": "address",
          "name": "user",
          "type": "address"
        },
        {
          "indexed": false,
          "internalType": "uint256",
          "name": "amount",
          "type": "uint256"
        }
      ],
      "name": "Harvest",
      "type": "event"
    },
    {
      "anonymous": false,
      "inputs": [
        {
          "indexed": false,
          "internalType": "uint256",
          "name": "rewardPerSecond",
          "type": "uint256"
        }
      ],
      "name": "LogRewardPerSecond",
      "type": "event"
    },
    {
      "anonymous": false,
      "inputs": [
        {
          "indexed": false,
          "internalType": "uint256",
          "name": "lastRewardTime",
          "type": "uint256"
        },
        {
          "indexed": false,
          "internalType": "uint256",
          "name": "lpSupply",
          "type": "uint256"
        },
        {
          "indexed": false,
          "internalType": "uint256",
          "name": "accRewardPerShare",
          "type": "uint256"
        }
      ],
      "name": "LogUpdatePool",
      "type": "event"
    },
    {
      "anonymous": false,
      "inputs": [
        {
          "indexed": true,
          "internalType": "address",
          "name": "previousOwner",
          "type": "address"
        },
        {
          "indexed": true,
          "internalType": "address",
          "name": "newOwner",
          "type": "address"
        }
      ],
      "name": "OwnershipTransferred",
      "type": "event"
    },
    {
      "anonymous": false,
      "inputs": [
        {
          "indexed": true,
          "internalType": "address",
          "name": "implementation",
          "type": "address"
        }
      ],
      "name": "Upgraded",
      "type": "event"
    },
    {
      "anonymous": false,
      "inputs": [
        {
          "indexed": true,
          "internalType": "address",
          "name": "user",
          "type": "address"
        },
        {
          "indexed": false,
          "internalType": "uint256",
          "name": "amount",
          "type": "uint256"
        },
        {
          "indexed": true,
          "internalType": "address",
          "name": "to",
          "type": "address"
        }
      ],
      "name": "Withdraw",
      "type": "event"
    },
    {
      "inputs": [],
      "name": "accRewardPerShare",
      "outputs": [
        {
          "internalType": "uint256",
          "name": "",
          "type": "uint256"
        }
      ],
      "stateMutability": "view",
      "type": "function"
    },
    {
      "inputs": [
        {
          "internalType": "uint256",
          "name": "_addedReward",
          "type": "uint256"
        },
        {
          "internalType": "uint256",
          "name": "_days",
          "type": "uint256"
        }
      ],
      "name": "allocateMoreRewards",
      "outputs": [],
      "stateMutability": "nonpayable",
      "type": "function"
    },
    {
      "inputs": [
        {
          "internalType": "uint256",
          "name": "amount",
          "type": "uint256"
        },
        {
          "internalType": "address",
          "name": "to",
          "type": "address"
        }
      ],
      "name": "deposit",
      "outputs": [],
      "stateMutability": "nonpayable",
      "type": "function"
    },
    {
      "inputs": [
        {
          "internalType": "address",
          "name": "to",
          "type": "address"
        }
      ],
      "name": "emergencyWithdraw",
      "outputs": [],
      "stateMutability": "nonpayable",
      "type": "function"
    },
    {
      "inputs": [],
      "name": "endRewardTime",
      "outputs": [
        {
          "internalType": "uint256",
          "name": "",
          "type": "uint256"
        }
      ],
      "stateMutability": "view",
      "type": "function"
    },
    {
      "inputs": [
        {
          "internalType": "uint256",
          "name": "_from",
          "type": "uint256"
        },
        {
          "internalType": "uint256",
          "name": "_to",
          "type": "uint256"
        }
      ],
      "name": "getRewardForDuration",
      "outputs": [
        {
          "internalType": "uint256",
          "name": "",
          "type": "uint256"
        }
      ],
      "stateMutability": "view",
      "type": "function"
    },
    {
      "inputs": [],
      "name": "getRewardPerSecond",
      "outputs": [
        {
          "internalType": "uint256",
          "name": "",
          "type": "uint256"
        }
      ],
      "stateMutability": "view",
      "type": "function"
    },
    {
      "inputs": [
        {
          "internalType": "address",
          "name": "to",
          "type": "address"
        }
      ],
      "name": "harvest",
      "outputs": [],
      "stateMutability": "nonpayable",
      "type": "function"
    },
    {
      "inputs": [
        {
          "internalType": "contract IERC20",
          "name": "_usdc",
          "type": "address"
        },
        {
          "internalType": "contract IERC20",
          "name": "_redRequiem",
          "type": "address"
        }
      ],
      "name": "initialize",
      "outputs": [],
      "stateMutability": "nonpayable",
      "type": "function"
    },
    {
      "inputs": [],
      "name": "lastRewardTime",
      "outputs": [
        {
          "internalType": "uint256",
          "name": "",
          "type": "uint256"
        }
      ],
      "stateMutability": "view",
      "type": "function"
    },
    {
      "inputs": [],
      "name": "owner",
      "outputs": [
        {
          "internalType": "address",
          "name": "",
          "type": "address"
        }
      ],
      "stateMutability": "view",
      "type": "function"
    },
    {
      "inputs": [
        {
          "internalType": "address",
          "name": "_user",
          "type": "address"
        }
      ],
      "name": "pendingReward",
      "outputs": [
        {
          "internalType": "uint256",
          "name": "pending",
          "type": "uint256"
        }
      ],
      "stateMutability": "view",
      "type": "function"
    },
    {
      "inputs": [],
      "name": "redRequiem",
      "outputs": [
        {
          "internalType": "contract IERC20",
          "name": "",
          "type": "address"
        }
      ],
      "stateMutability": "view",
      "type": "function"
    },
    {
      "inputs": [],
      "name": "renounceOwnership",
      "outputs": [],
      "stateMutability": "nonpayable",
      "type": "function"
    },
    {
      "inputs": [
        {
          "internalType": "uint256",
          "name": "_amount",
          "type": "uint256"
        }
      ],
      "name": "rescueFund",
      "outputs": [],
      "stateMutability": "nonpayable",
      "type": "function"
    },
    {
      "inputs": [],
      "name": "reserveFund",
      "outputs": [
        {
          "internalType": "address",
          "name": "",
          "type": "address"
        }
      ],
      "stateMutability": "view",
      "type": "function"
    },
    {
      "inputs": [],
      "name": "rewardPerSecond",
      "outputs": [
        {
          "internalType": "uint256",
          "name": "",
          "type": "uint256"
        }
      ],
      "stateMutability": "view",
      "type": "function"
    },
    {
      "inputs": [
        {
          "internalType": "address",
          "name": "_reserveFund",
          "type": "address"
        }
      ],
      "name": "setReserveFund",
      "outputs": [],
      "stateMutability": "nonpayable",
      "type": "function"
    },
    {
      "inputs": [
        {
          "internalType": "uint256",
          "name": "_rewardPerSecond",
          "type": "uint256"
        }
      ],
      "name": "setRewardPerSecond",
      "outputs": [],
      "stateMutability": "nonpayable",
      "type": "function"
    },
    {
      "inputs": [],
      "name": "startRewardTime",
      "outputs": [
        {
          "internalType": "uint256",
          "name": "",
          "type": "uint256"
        }
      ],
      "stateMutability": "view",
      "type": "function"
    },
    {
      "inputs": [
        {
          "internalType": "address",
          "name": "newOwner",
          "type": "address"
        }
      ],
      "name": "transferOwnership",
      "outputs": [],
      "stateMutability": "nonpayable",
      "type": "function"
    },
    {
      "inputs": [],
      "name": "updatePool",
      "outputs": [],
      "stateMutability": "nonpayable",
      "type": "function"
    },
    {
      "inputs": [
        {
          "internalType": "address",
          "name": "newImplementation",
          "type": "address"
        }
      ],
      "name": "upgradeTo",
      "outputs": [],
      "stateMutability": "nonpayable",
      "type": "function"
    },
    {
      "inputs": [
        {
          "internalType": "address",
          "name": "newImplementation",
          "type": "address"
        },
        {
          "internalType": "bytes",
          "name": "data",
          "type": "bytes"
        }
      ],
      "name": "upgradeToAndCall",
      "outputs": [],
      "stateMutability": "payable",
      "type": "function"
    },
    {
      "inputs": [],
      "name": "usdc",
      "outputs": [
        {
          "internalType": "contract IERC20",
          "name": "",
          "type": "address"
        }
      ],
      "stateMutability": "view",
      "type": "function"
    },
    {
      "inputs": [
        {
          "internalType": "address",
          "name": "",
          "type": "address"
        }
      ],
      "name": "userInfo",
      "outputs": [
        {
          "internalType": "uint256",
          "name": "amount",
          "type": "uint256"
        },
        {
          "internalType": "int256",
          "name": "rewardDebt",
          "type": "int256"
        }
      ],
      "stateMutability": "view",
      "type": "function"
    },
    {
      "inputs": [
        {
          "internalType": "uint256",
          "name": "amount",
          "type": "uint256"
        },
        {
          "internalType": "address",
          "name": "to",
          "type": "address"
        }
      ],
      "name": "withdraw",
      "outputs": [],
      "stateMutability": "nonpayable",
      "type": "function"
    },
    {
      "inputs": [
        {
          "internalType": "uint256",
          "name": "amount",
          "type": "uint256"
        },
        {
          "internalType": "address",
          "name": "to",
          "type": "address"
        }
      ],
      "name": "withdrawAndHarvest",
      "outputs": [],
      "stateMutability": "nonpayable",
      "type": "function"
    }
  ],
  "transactionHash": "0xed039854c682afa3cc1b2ebc59fec6cd10f974c5d983b81e5ea561bab1387bd1",
  "args": [],
  "solcInputHash": "844259bdffd5cf0f9afc3403c6ffaba0",
  "bytecode": "0x60a06040523060805234801561001457600080fd5b5060805161253d61004560003960008181610775015281816107ff01528181610bd70152610c5c015261253d6000f3fe6080604052600436106101b65760003560e01c80637a259680116100ec578063c1f3d9631161008a578063eb34536711610064578063eb345367146104b3578063f2fde38b146104d3578063f40f0f52146104f3578063f498d8a61461051357600080fd5b8063c1f3d96314610469578063da5b4ee714610489578063e3161ddd1461049e57600080fd5b80639231cf74116100c65780639231cf7414610406578063939d62371461041c57806395e9d97314610432578063b7f92b711461044957600080fd5b80637a259680146103b15780638da5cb5b146103d15780638f10369a146103ef57600080fd5b80634546cb8b1161015957806366da58151161013357806366da58151461033c5780636e553f651461035c5780636ff1c9bc1461037c578063715018a61461039c57600080fd5b80634546cb8b146102e9578063485cc955146103095780634f1ef2861461032957600080fd5b80631959a002116101955780631959a0021461022757806323ad7676146102715780633659cfe6146102915780633e413bee146102b157600080fd5b8062f714ce146101bb57806302a24770146101dd5780630e5c011e14610207575b600080fd5b3480156101c757600080fd5b506101db6101d6366004612074565b610533565b005b3480156101e957600080fd5b506101f46101005481565b6040519081526020015b60405180910390f35b34801561021357600080fd5b506101db6102223660046120a4565b6105f7565b34801561023357600080fd5b5061025c6102423660046120a4565b610103602052600090815260409020805460019091015482565b604080519283526020830191909152016101fe565b34801561027d57600080fd5b506101f461028c3660046120c1565b6106bb565b34801561029d57600080fd5b506101db6102ac3660046120a4565b61076b565b3480156102bd57600080fd5b5060fb546102d1906001600160a01b031681565b6040516001600160a01b0390911681526020016101fe565b3480156102f557600080fd5b506101db6103043660046120c1565b6108eb565b34801561031557600080fd5b506101db6103243660046120e3565b610ac1565b6101db610337366004612127565b610bcd565b34801561034857600080fd5b506101db6103573660046121eb565b610d39565b34801561036857600080fd5b506101db610377366004612074565b610dd0565b34801561038857600080fd5b506101db6103973660046120a4565b610e95565b3480156103a857600080fd5b506101db610f09565b3480156103bd57600080fd5b5060fc546102d1906001600160a01b031681565b3480156103dd57600080fd5b506033546001600160a01b03166102d1565b3480156103fb57600080fd5b506101f46101025481565b34801561041257600080fd5b506101f460ff5481565b34801561042857600080fd5b506101f460fe5481565b34801561043e57600080fd5b506101f46101015481565b34801561045557600080fd5b5060fd546102d1906001600160a01b031681565b34801561047557600080fd5b506101db610484366004612074565b610f6f565b34801561049557600080fd5b506101f46110ca565b3480156104aa57600080fd5b506101db6110e0565b3480156104bf57600080fd5b506101db6104ce3660046121eb565b6111e5565b3480156104df57600080fd5b506101db6104ee3660046120a4565b61137f565b3480156104ff57600080fd5b506101f461050e3660046120a4565b61145e565b34801561051f57600080fd5b506101db61052e3660046120a4565b611582565b61053b6110e0565b3360009081526101036020526040902060fe5464e8d4a510009061055f908561221a565b6105699190612239565b81600101600082825461057c919061225b565b90915550508054839082906000906105959084906122b3565b909155505060fc546105b1906001600160a01b03168385611655565b6040518381526001600160a01b0383169033907f56c54ba9bd38d8fd62012e42c7ee564519b09763c426d331b3661b537ead19b2906020015b60405180910390a3505050565b6105ff6110e0565b3360009081526101036020526040812060fe54815491929164e8d4a51000916106279161221a565b6106319190612239565b90506000610641600c600a6123ae565b6001840154610650908461225b565b61065a9190612239565b60018401839055905080156106805760fb54610680906001600160a01b03168583611655565b60405181815233907fc9695243a805adb74c91f28311176c65b417e842d5699893cef56d18bfa48cba9060200160405180910390a250505050565b6101025460009082841015806106d45750610100548410155b156106e3576000915050610765565b6101015483116106f7576000915050610765565b6101015484116107405761010054831161072d5780610101548461071b91906122b3565b610725919061221a565b915050610765565b80610101546101005461071b91906122b3565b610100548311610755578061071b85856122b3565b80846101005461071b91906122b3565b92915050565b6001600160a01b037f00000000000000000000000000000000000000000000000000000000000000001630036107fd5760405162461bcd60e51b815260206004820152602c60248201527f46756e6374696f6e206d7573742062652063616c6c6564207468726f7567682060448201526b19195b1959d85d1958d85b1b60a21b60648201526084015b60405180910390fd5b7f00000000000000000000000000000000000000000000000000000000000000006001600160a01b03166108587f360894a13ba1a3210667c828492db98dca3e2076cc3735a920a3ca505d382bbc546001600160a01b031690565b6001600160a01b0316146108c35760405162461bcd60e51b815260206004820152602c60248201527f46756e6374696f6e206d7573742062652063616c6c6564207468726f7567682060448201526b6163746976652070726f787960a01b60648201526084016107f4565b6108cc816116fe565b604080516000808252602082019092526108e891839190611758565b50565b60fd546001600160a01b031633148061091d5750336109126033546001600160a01b031690565b6001600160a01b0316145b61098f5760405162461bcd60e51b815260206004820152603060248201527f5265645265717569656d5374616b696e673a2063616c6c6572206973206e6f7460448201527f20746865207265736572766546756e640000000000000000000000000000000060648201526084016107f4565b6109976110e0565b60004261010054116109aa5760006109b9565b42610100546109b991906122b3565b905060006109c9600c600a6123ae565b6109d3908561221a565b82610102546109e2919061221a565b6109ec91906123ba565b905060006109fd846201518061221a565b610a0790846123ba565b90506000610a158284612239565b61010281905590508415610a6e5742610100541015610a4e57610a3b856201518061221a565b610a4590426123ba565b61010055610a6e565b610a5b856201518061221a565b61010054610a6991906123ba565b610100555b60fb54610a86906001600160a01b031633308961191c565b6040518181527fde89cb17ac7f58f94792b3e91e086ed85403819c24ceea882491f960ccb1a2789060200160405180910390a1505050505050565b600054610100900460ff1680610ada575060005460ff16155b610b3d5760405162461bcd60e51b815260206004820152602e60248201527f496e697469616c697a61626c653a20636f6e747261637420697320616c72656160448201526d191e481a5b9a5d1a585b1a5e995960921b60648201526084016107f4565b600054610100900460ff16158015610b5f576000805461ffff19166101011790555b610b67611973565b610b6f611a35565b60fb80546001600160a01b0380861673ffffffffffffffffffffffffffffffffffffffff199283161790925560fc8054928516929091169190911790554260ff819055610101558015610bc8576000805461ff00191690555b505050565b6001600160a01b037f0000000000000000000000000000000000000000000000000000000000000000163003610c5a5760405162461bcd60e51b815260206004820152602c60248201527f46756e6374696f6e206d7573742062652063616c6c6564207468726f7567682060448201526b19195b1959d85d1958d85b1b60a21b60648201526084016107f4565b7f00000000000000000000000000000000000000000000000000000000000000006001600160a01b0316610cb57f360894a13ba1a3210667c828492db98dca3e2076cc3735a920a3ca505d382bbc546001600160a01b031690565b6001600160a01b031614610d205760405162461bcd60e51b815260206004820152602c60248201527f46756e6374696f6e206d7573742062652063616c6c6564207468726f7567682060448201526b6163746976652070726f787960a01b60648201526084016107f4565b610d29826116fe565b610d3582826001611758565b5050565b6033546001600160a01b03163314610d935760405162461bcd60e51b815260206004820181905260248201527f4f776e61626c653a2063616c6c6572206973206e6f7420746865206f776e657260448201526064016107f4565b6101028190556040518181527fde89cb17ac7f58f94792b3e91e086ed85403819c24ceea882491f960ccb1a278906020015b60405180910390a150565b610dd86110e0565b6001600160a01b038116600090815261010360205260408120805490918491839190610e059084906123ba565b909155505060fe5464e8d4a5100090610e1e908561221a565b610e289190612239565b816001016000828254610e3b91906123d2565b909155505060fc54610e58906001600160a01b031633308661191c565b6040518381526001600160a01b0383169033907fe31c7b8d08ee7db0afa68782e1028ef92305caeea8626633ad44d413e30f6b2f906020016105ea565b336000908152610103602052604081208054828255600182019290925560fc54909190610ecc906001600160a01b03168483611655565b6040518181526001600160a01b0384169033907faaeda929aa102e867049528ec7cd2499e3a2f8846e736ae7935f234dfbf500d9906020016105ea565b6033546001600160a01b03163314610f635760405162461bcd60e51b815260206004820181905260248201527f4f776e61626c653a2063616c6c6572206973206e6f7420746865206f776e657260448201526064016107f4565b610f6d6000611adb565b565b610f776110e0565b3360009081526101036020526040812060fe54815491929164e8d4a5100091610f9f9161221a565b610fa99190612239565b90506000610fb9600c600a6123ae565b6001840154610fc8908461225b565b610fd29190612239565b905064e8d4a5100060fe5486610fe8919061221a565b610ff29190612239565b610ffc908361225b565b60018401558254859084906000906110159084906122b3565b909155505080156110375760fb54611037906001600160a01b03168583611655565b60fc5461104e906001600160a01b03168587611655565b6040518581526001600160a01b0385169033907f56c54ba9bd38d8fd62012e42c7ee564519b09763c426d331b3661b537ead19b29060200160405180910390a360405181815233907fc9695243a805adb74c91f28311176c65b417e842d5699893cef56d18bfa48cba9060200160405180910390a25050505050565b60006110db4261028c8160016123ba565b905090565b60ff54421115610f6d5760fc546040516370a0823160e01b81523060048201526000916001600160a01b0316906370a0823190602401602060405180830381865afa158015611133573d6000803e3d6000fd5b505050506040513d601f19601f82011682018060405250810190611157919061242a565b905080156111a157600061116d60ff54426106bb565b90508161117f64e8d4a510008361221a565b6111899190612239565b60fe600082825461119a91906123ba565b9091555050505b4260ff81905560fe5460408051928352602083018490528201527f1f2d1a9fde053af46b5db3dc92a8aa8696e56a677998fdd1311b45be341f785390606001610dc5565b6033546001600160a01b0316331461123f5760405162461bcd60e51b815260206004820181905260248201527f4f776e61626c653a2063616c6c6572206973206e6f7420746865206f776e657260448201526064016107f4565b6000811180156112ba575060fb546040516370a0823160e01b81523060048201526001600160a01b03909116906370a0823190602401602060405180830381865afa158015611292573d6000803e3d6000fd5b505050506040513d601f19601f820116820180604052508101906112b6919061242a565b8111155b6113065760405162461bcd60e51b815260206004820152600e60248201527f696e76616c696420616d6f756e7400000000000000000000000000000000000060448201526064016107f4565b61132e61131b6033546001600160a01b031690565b60fb546001600160a01b03169083611655565b6033546001600160a01b03166001600160a01b03167fff3a30b961085f5af58e1a3344fa9a4465907b432f767fe99e318c2231e9c2848260405161137491815260200190565b60405180910390a250565b6033546001600160a01b031633146113d95760405162461bcd60e51b815260206004820181905260248201527f4f776e61626c653a2063616c6c6572206973206e6f7420746865206f776e657260448201526064016107f4565b6001600160a01b0381166114555760405162461bcd60e51b815260206004820152602660248201527f4f776e61626c653a206e6577206f776e657220697320746865207a65726f206160448201527f646472657373000000000000000000000000000000000000000000000000000060648201526084016107f4565b6108e881611adb565b6001600160a01b038181166000908152610103602052604080822060fc5491516370a0823160e01b8152306004820152929390928492909116906370a0823190602401602060405180830381865afa1580156114be573d6000803e3d6000fd5b505050506040513d601f19601f820116820180604052508101906114e2919061242a565b60fe5460ff5491925090421180156114f957508115155b1561153657600061150c60ff54426106bb565b90508261151e64e8d4a510008361221a565b6115289190612239565b61153290836123ba565b9150505b611542600c600a6123ae565b6001840154845464e8d4a510009061155b90859061221a565b6115659190612239565b61156f919061225b565b6115799190612239565b95945050505050565b60fd546001600160a01b03163314806115b45750336115a96033546001600160a01b031690565b6001600160a01b0316145b6116265760405162461bcd60e51b815260206004820152603060248201527f5265645265717569656d5374616b696e673a2063616c6c6572206973206e6f7460448201527f20746865207265736572766546756e640000000000000000000000000000000060648201526084016107f4565b60fd805473ffffffffffffffffffffffffffffffffffffffff19166001600160a01b0392909216919091179055565b6040516001600160a01b038316602482015260448101829052610bc89084907fa9059cbb00000000000000000000000000000000000000000000000000000000906064015b60408051601f198184030181529190526020810180517bffffffffffffffffffffffffffffffffffffffffffffffffffffffff167fffffffff0000000000000000000000000000000000000000000000000000000090931692909217909152611b3a565b6033546001600160a01b031633146108e85760405162461bcd60e51b815260206004820181905260248201527f4f776e61626c653a2063616c6c6572206973206e6f7420746865206f776e657260448201526064016107f4565b600061178b7f360894a13ba1a3210667c828492db98dca3e2076cc3735a920a3ca505d382bbc546001600160a01b031690565b905061179684611c15565b6000835111806117a35750815b156117b4576117b28484611cd7565b505b7f4910fdfa16fed3260ed0e7147f7cc6da11a60208b5b9406d12a635614ffd9143805460ff1661191557805460ff191660011781556040516001600160a01b038316602482015261186190869060440160408051601f198184030181529190526020810180517bffffffffffffffffffffffffffffffffffffffffffffffffffffffff167f3659cfe600000000000000000000000000000000000000000000000000000000179052611cd7565b50805460ff191681557f360894a13ba1a3210667c828492db98dca3e2076cc3735a920a3ca505d382bbc546001600160a01b0383811691161461190c5760405162461bcd60e51b815260206004820152602f60248201527f45524331393637557067726164653a207570677261646520627265616b73206660448201527f757274686572207570677261646573000000000000000000000000000000000060648201526084016107f4565b61191585611dd0565b5050505050565b6040516001600160a01b038085166024830152831660448201526064810182905261196d9085907f23b872dd000000000000000000000000000000000000000000000000000000009060840161169a565b50505050565b600054610100900460ff168061198c575060005460ff16155b6119ef5760405162461bcd60e51b815260206004820152602e60248201527f496e697469616c697a61626c653a20636f6e747261637420697320616c72656160448201526d191e481a5b9a5d1a585b1a5e995960921b60648201526084016107f4565b600054610100900460ff16158015611a11576000805461ffff19166101011790555b611a19611e10565b611a21611ec1565b80156108e8576000805461ff001916905550565b600054610100900460ff1680611a4e575060005460ff16155b611ab15760405162461bcd60e51b815260206004820152602e60248201527f496e697469616c697a61626c653a20636f6e747261637420697320616c72656160448201526d191e481a5b9a5d1a585b1a5e995960921b60648201526084016107f4565b600054610100900460ff16158015611ad3576000805461ffff19166101011790555b611a21611f68565b603380546001600160a01b0383811673ffffffffffffffffffffffffffffffffffffffff19831681179093556040519116919082907f8be0079c531659141344cd1fd0a4f28419497f9722a3daafe3b4186f6b6457e090600090a35050565b600080836001600160a01b031683604051611b55919061246f565b6000604051808303816000865af19150503d8060008114611b92576040519150601f19603f3d011682016040523d82523d6000602084013e611b97565b606091505b50909250905081611bac573d6000803e3d6000fd5b80511580611bc9575080806020019051810190611bc9919061248b565b61196d5760405162461bcd60e51b815260206004820152601660248201527f534146455f45524332305f43414c4c5f4641494c45440000000000000000000060448201526064016107f4565b803b611c895760405162461bcd60e51b815260206004820152602d60248201527f455243313936373a206e657720696d706c656d656e746174696f6e206973206e60448201527f6f74206120636f6e74726163740000000000000000000000000000000000000060648201526084016107f4565b7f360894a13ba1a3210667c828492db98dca3e2076cc3735a920a3ca505d382bbc805473ffffffffffffffffffffffffffffffffffffffff19166001600160a01b0392909216919091179055565b6060823b611d4d5760405162461bcd60e51b815260206004820152602660248201527f416464726573733a2064656c65676174652063616c6c20746f206e6f6e2d636f60448201527f6e7472616374000000000000000000000000000000000000000000000000000060648201526084016107f4565b600080846001600160a01b031684604051611d68919061246f565b600060405180830381855af49150503d8060008114611da3576040519150601f19603f3d011682016040523d82523d6000602084013e611da8565b606091505b509150915061157982826040518060600160405280602781526020016124e16027913961201f565b611dd981611c15565b6040516001600160a01b038216907fbc7cd75a20ee27fd9adebab32041f755214dbc6bffa90cc0225b39da2e5c2d3b90600090a250565b600054610100900460ff1680611e29575060005460ff16155b611e8c5760405162461bcd60e51b815260206004820152602e60248201527f496e697469616c697a61626c653a20636f6e747261637420697320616c72656160448201526d191e481a5b9a5d1a585b1a5e995960921b60648201526084016107f4565b600054610100900460ff16158015611a21576000805461ffff191661010117905580156108e8576000805461ff001916905550565b600054610100900460ff1680611eda575060005460ff16155b611f3d5760405162461bcd60e51b815260206004820152602e60248201527f496e697469616c697a61626c653a20636f6e747261637420697320616c72656160448201526d191e481a5b9a5d1a585b1a5e995960921b60648201526084016107f4565b600054610100900460ff16158015611f5f576000805461ffff19166101011790555b611a2133611adb565b600054610100900460ff1680611f81575060005460ff16155b611fe45760405162461bcd60e51b815260206004820152602e60248201527f496e697469616c697a61626c653a20636f6e747261637420697320616c72656160448201526d191e481a5b9a5d1a585b1a5e995960921b60648201526084016107f4565b600054610100900460ff16158015612006576000805461ffff19166101011790555b600160c95580156108e8576000805461ff001916905550565b6060831561202e575081612058565b82511561203e5782518084602001fd5b8160405162461bcd60e51b81526004016107f491906124ad565b9392505050565b6001600160a01b03811681146108e857600080fd5b6000806040838503121561208757600080fd5b8235915060208301356120998161205f565b809150509250929050565b6000602082840312156120b657600080fd5b81356120588161205f565b600080604083850312156120d457600080fd5b50508035926020909101359150565b600080604083850312156120f657600080fd5b82356121018161205f565b915060208301356120998161205f565b634e487b7160e01b600052604160045260246000fd5b6000806040838503121561213a57600080fd5b82356121458161205f565b9150602083013567ffffffffffffffff8082111561216257600080fd5b818501915085601f83011261217657600080fd5b81358181111561218857612188612111565b604051601f8201601f19908116603f011681019083821181831017156121b0576121b0612111565b816040528281528860208487010111156121c957600080fd5b8260208601602083013760006020848301015280955050505050509250929050565b6000602082840312156121fd57600080fd5b5035919050565b634e487b7160e01b600052601160045260246000fd5b600081600019048311821515161561223457612234612204565b500290565b60008261225657634e487b7160e01b600052601260045260246000fd5b500490565b600080831283600160ff1b0183128115161561227957612279612204565b837f7fffffffffffffffffffffffffffffffffffffffffffffffffffffffffffffff0183138116156122ad576122ad612204565b50500390565b6000828210156122c5576122c5612204565b500390565b600181815b808511156123055781600019048211156122eb576122eb612204565b808516156122f857918102915b93841c93908002906122cf565b509250929050565b60008261231c57506001610765565b8161232957506000610765565b816001811461233f576002811461234957612365565b6001915050610765565b60ff84111561235a5761235a612204565b50506001821b610765565b5060208310610133831016604e8410600b8410161715612388575081810a610765565b61239283836122ca565b80600019048211156123a6576123a6612204565b029392505050565b6000612058838361230d565b600082198211156123cd576123cd612204565b500190565b6000808212827f7fffffffffffffffffffffffffffffffffffffffffffffffffffffffffffffff0384138115161561240c5761240c612204565b82600160ff1b03841281161561242457612424612204565b50500190565b60006020828403121561243c57600080fd5b5051919050565b60005b8381101561245e578181015183820152602001612446565b8381111561196d5750506000910152565b60008251612481818460208701612443565b9190910192915050565b60006020828403121561249d57600080fd5b8151801515811461205857600080fd5b60208152600082518060208401526124cc816040850160208701612443565b601f01601f1916919091016040019291505056fe416464726573733a206c6f772d6c6576656c2064656c65676174652063616c6c206661696c6564a2646970667358221220a80e802e2d1423eb460cf7a35fd1b10e9c5b2f97a291f1d4afd3054f824ad1af64736f6c634300080d0033",
  "devdoc": {
    "kind": "dev",
    "methods": {
      "deposit(uint256,address)": {
        "params": {
          "amount": "LP token amount to deposit.",
          "to": "The receiver of `amount` deposit benefit."
        }
      },
      "emergencyWithdraw(address)": {
        "params": {
          "to": "Receiver of the LP tokens."
        }
      },
      "harvest(address)": {
        "params": {
          "to": "Receiver of rewards."
        }
      },
      "owner()": {
        "details": "Returns the address of the current owner."
      },
      "pendingReward(address)": {
        "params": {
          "_user": "Address of user."
        },
        "returns": {
          "pending": "reward for a given user."
        }
      },
      "renounceOwnership()": {
        "details": "Leaves the contract without owner. It will not be possible to call `onlyOwner` functions anymore. Can only be called by the current owner. NOTE: Renouncing ownership will leave the contract without an owner, thereby removing any functionality that is only available to the owner."
      },
      "setRewardPerSecond(uint256)": {
        "params": {
          "_rewardPerSecond": "The amount of reward to be distributed per second."
        }
      },
      "transferOwnership(address)": {
        "details": "Transfers ownership of the contract to a new account (`newOwner`). Can only be called by the current owner."
      },
      "upgradeTo(address)": {
        "details": "Upgrade the implementation of the proxy to `newImplementation`. Calls {_authorizeUpgrade}. Emits an {Upgraded} event."
      },
      "upgradeToAndCall(address,bytes)": {
        "details": "Upgrade the implementation of the proxy to `newImplementation`, and subsequently execute the function call encoded in `data`. Calls {_authorizeUpgrade}. Emits an {Upgraded} event."
      },
      "withdraw(uint256,address)": {
        "params": {
          "amount": "LP token amount to withdraw.",
          "to": "Receiver of the LP tokens."
        }
      },
      "withdrawAndHarvest(uint256,address)": {
        "params": {
          "amount": "LP token amount to withdraw.",
          "to": "Receiver of the LP tokens and rewards."
        }
      }
    },
    "version": 1
  },
  "userdoc": {
    "kind": "user",
    "methods": {
      "deposit(uint256,address)": {
        "notice": "Deposit LP tokens to MCV2 for reward allocation."
      },
      "emergencyWithdraw(address)": {
        "notice": "Withdraw without caring about rewards. EMERGENCY ONLY."
      },
      "harvest(address)": {
        "notice": "Harvest proceeds for transaction sender to `to`."
      },
      "pendingReward(address)": {
        "notice": "View function to see pending reward on frontend."
      },
      "setRewardPerSecond(uint256)": {
        "notice": "Sets the reward per second to be distributed. Can only be called by the owner."
      },
      "updatePool()": {
        "notice": "Update reward variables of the given pool."
      },
      "withdraw(uint256,address)": {
        "notice": "Withdraw LP tokens from MCV2."
      },
      "withdrawAndHarvest(uint256,address)": {
        "notice": "Withdraw LP tokens from MCV2 and harvest proceeds for transaction sender to `to`."
      }
    },
    "version": 1
  },
  "storageLayout": {
    "storage": [
      {
        "astId": 10543,
        "contract": "contracts/RedRequiemStaking.sol:RedRequiemStaking",
        "label": "_initialized",
        "offset": 0,
        "slot": "0",
        "type": "t_bool"
      },
      {
        "astId": 10546,
        "contract": "contracts/RedRequiemStaking.sol:RedRequiemStaking",
        "label": "_initializing",
        "offset": 1,
        "slot": "0",
        "type": "t_bool"
      },
      {
        "astId": 11953,
        "contract": "contracts/RedRequiemStaking.sol:RedRequiemStaking",
        "label": "__gap",
        "offset": 0,
        "slot": "1",
        "type": "t_array(t_uint256)50_storage"
      },
      {
        "astId": 11137,
        "contract": "contracts/RedRequiemStaking.sol:RedRequiemStaking",
        "label": "_owner",
        "offset": 0,
        "slot": "51",
        "type": "t_address"
      },
      {
        "astId": 11251,
        "contract": "contracts/RedRequiemStaking.sol:RedRequiemStaking",
        "label": "__gap",
        "offset": 0,
        "slot": "52",
        "type": "t_array(t_uint256)49_storage"
      },
      {
        "astId": 8586,
        "contract": "contracts/RedRequiemStaking.sol:RedRequiemStaking",
        "label": "__gap",
        "offset": 0,
        "slot": "101",
        "type": "t_array(t_uint256)50_storage"
      },
      {
        "astId": 11606,
        "contract": "contracts/RedRequiemStaking.sol:RedRequiemStaking",
        "label": "__gap",
        "offset": 0,
        "slot": "151",
        "type": "t_array(t_uint256)50_storage"
      },
      {
        "astId": 11621,
        "contract": "contracts/RedRequiemStaking.sol:RedRequiemStaking",
        "label": "_status",
        "offset": 0,
        "slot": "201",
        "type": "t_uint256"
      },
      {
        "astId": 11664,
        "contract": "contracts/RedRequiemStaking.sol:RedRequiemStaking",
        "label": "__gap",
        "offset": 0,
        "slot": "202",
        "type": "t_array(t_uint256)49_storage"
      },
      {
        "astId": 3172,
        "contract": "contracts/RedRequiemStaking.sol:RedRequiemStaking",
        "label": "usdc",
        "offset": 0,
        "slot": "251",
        "type": "t_contract(IERC20)7299"
      },
      {
        "astId": 3175,
        "contract": "contracts/RedRequiemStaking.sol:RedRequiemStaking",
        "label": "redRequiem",
        "offset": 0,
        "slot": "252",
        "type": "t_contract(IERC20)7299"
      },
      {
        "astId": 3177,
        "contract": "contracts/RedRequiemStaking.sol:RedRequiemStaking",
        "label": "reserveFund",
        "offset": 0,
        "slot": "253",
        "type": "t_address"
      },
      {
        "astId": 3179,
        "contract": "contracts/RedRequiemStaking.sol:RedRequiemStaking",
        "label": "accRewardPerShare",
        "offset": 0,
        "slot": "254",
        "type": "t_uint256"
      },
      {
        "astId": 3181,
        "contract": "contracts/RedRequiemStaking.sol:RedRequiemStaking",
        "label": "lastRewardTime",
        "offset": 0,
        "slot": "255",
        "type": "t_uint256"
      },
      {
        "astId": 3183,
        "contract": "contracts/RedRequiemStaking.sol:RedRequiemStaking",
        "label": "endRewardTime",
        "offset": 0,
        "slot": "256",
        "type": "t_uint256"
      },
      {
        "astId": 3185,
        "contract": "contracts/RedRequiemStaking.sol:RedRequiemStaking",
        "label": "startRewardTime",
        "offset": 0,
        "slot": "257",
        "type": "t_uint256"
      },
      {
        "astId": 3187,
        "contract": "contracts/RedRequiemStaking.sol:RedRequiemStaking",
        "label": "rewardPerSecond",
        "offset": 0,
        "slot": "258",
        "type": "t_uint256"
      },
      {
        "astId": 3198,
        "contract": "contracts/RedRequiemStaking.sol:RedRequiemStaking",
        "label": "userInfo",
        "offset": 0,
        "slot": "259",
        "type": "t_mapping(t_address,t_struct(UserInfo)3169_storage)"
      }
    ],
    "types": {
      "t_address": {
        "encoding": "inplace",
        "label": "address",
        "numberOfBytes": "20"
      },
      "t_array(t_uint256)49_storage": {
        "base": "t_uint256",
        "encoding": "inplace",
        "label": "uint256[49]",
        "numberOfBytes": "1568"
      },
      "t_array(t_uint256)50_storage": {
        "base": "t_uint256",
        "encoding": "inplace",
        "label": "uint256[50]",
        "numberOfBytes": "1600"
      },
      "t_bool": {
        "encoding": "inplace",
        "label": "bool",
        "numberOfBytes": "1"
      },
      "t_contract(IERC20)7299": {
        "encoding": "inplace",
        "label": "contract IERC20",
        "numberOfBytes": "20"
      },
      "t_int256": {
        "encoding": "inplace",
        "label": "int256",
        "numberOfBytes": "32"
      },
      "t_mapping(t_address,t_struct(UserInfo)3169_storage)": {
        "encoding": "mapping",
        "key": "t_address",
        "label": "mapping(address => struct RedRequiemStaking.UserInfo)",
        "numberOfBytes": "32",
        "value": "t_struct(UserInfo)3169_storage"
      },
      "t_struct(UserInfo)3169_storage": {
        "encoding": "inplace",
        "label": "struct RedRequiemStaking.UserInfo",
        "members": [
          {
            "astId": 3166,
            "contract": "contracts/RedRequiemStaking.sol:RedRequiemStaking",
            "label": "amount",
            "offset": 0,
            "slot": "0",
            "type": "t_uint256"
          },
          {
            "astId": 3168,
            "contract": "contracts/RedRequiemStaking.sol:RedRequiemStaking",
            "label": "rewardDebt",
            "offset": 0,
            "slot": "1",
            "type": "t_int256"
          }
        ],
        "numberOfBytes": "64"
      },
      "t_uint256": {
        "encoding": "inplace",
        "label": "uint256",
        "numberOfBytes": "32"
      }
    }
  }
}