{
  "address": "0x922D6956C99E12DFeB3224DEA977D0939758A1Fe",
  "abi": [
    {
      "inputs": [
        {
          "internalType": "address",
          "name": "_REQT",
          "type": "address"
        },
        {
          "internalType": "address",
          "name": "_principle",
          "type": "address"
        },
        {
          "internalType": "address",
          "name": "_treasury",
          "type": "address"
        },
        {
          "internalType": "address",
          "name": "_DAO",
          "type": "address"
        },
        {
          "internalType": "address",
          "name": "_bondCalculator",
          "type": "address"
        }
      ],
      "stateMutability": "nonpayable",
      "type": "constructor"
    },
    {
      "anonymous": false,
      "inputs": [
        {
          "indexed": false,
          "internalType": "uint256",
          "name": "deposit",
          "type": "uint256"
        },
        {
          "indexed": true,
          "internalType": "uint256",
          "name": "payout",
          "type": "uint256"
        },
        {
          "indexed": true,
          "internalType": "uint256",
          "name": "expires",
          "type": "uint256"
        },
        {
          "indexed": true,
          "internalType": "uint256",
          "name": "priceInUSD",
          "type": "uint256"
        }
      ],
      "name": "BondCreated",
      "type": "event"
    },
    {
      "anonymous": false,
      "inputs": [
        {
          "indexed": true,
          "internalType": "uint256",
          "name": "priceInUSD",
          "type": "uint256"
        },
        {
          "indexed": true,
          "internalType": "uint256",
          "name": "internalPrice",
          "type": "uint256"
        },
        {
          "indexed": true,
          "internalType": "uint256",
          "name": "debtRatio",
          "type": "uint256"
        }
      ],
      "name": "BondPriceChanged",
      "type": "event"
    },
    {
      "anonymous": false,
      "inputs": [
        {
          "indexed": true,
          "internalType": "address",
          "name": "recipient",
          "type": "address"
        },
        {
          "indexed": false,
          "internalType": "uint256",
          "name": "payout",
          "type": "uint256"
        },
        {
          "indexed": false,
          "internalType": "uint256",
          "name": "remaining",
          "type": "uint256"
        }
      ],
      "name": "BondRedeemed",
      "type": "event"
    },
    {
      "anonymous": false,
      "inputs": [
        {
          "indexed": false,
          "internalType": "uint256",
          "name": "initialBCV",
          "type": "uint256"
        },
        {
          "indexed": false,
          "internalType": "uint256",
          "name": "newBCV",
          "type": "uint256"
        },
        {
          "indexed": false,
          "internalType": "uint256",
          "name": "adjustment",
          "type": "uint256"
        },
        {
          "indexed": false,
          "internalType": "bool",
          "name": "addition",
          "type": "bool"
        }
      ],
      "name": "ControlVariableAdjustment",
      "type": "event"
    },
    {
      "anonymous": false,
      "inputs": [
        {
          "indexed": true,
          "internalType": "address",
          "name": "previousOwner",
          "type": "address"
        },
        {
          "indexed": true,
          "internalType": "address",
          "name": "newOwner",
          "type": "address"
        }
      ],
      "name": "OwnershipPulled",
      "type": "event"
    },
    {
      "anonymous": false,
      "inputs": [
        {
          "indexed": true,
          "internalType": "address",
          "name": "previousOwner",
          "type": "address"
        },
        {
          "indexed": true,
          "internalType": "address",
          "name": "newOwner",
          "type": "address"
        }
      ],
      "name": "OwnershipPushed",
      "type": "event"
    },
    {
      "inputs": [],
      "name": "DAO",
      "outputs": [
        {
          "internalType": "address",
          "name": "",
          "type": "address"
        }
      ],
      "stateMutability": "view",
      "type": "function"
    },
    {
      "inputs": [],
      "name": "REQT",
      "outputs": [
        {
          "internalType": "address",
          "name": "",
          "type": "address"
        }
      ],
      "stateMutability": "view",
      "type": "function"
    },
    {
      "inputs": [],
      "name": "adjustment",
      "outputs": [
        {
          "internalType": "bool",
          "name": "add",
          "type": "bool"
        },
        {
          "internalType": "uint256",
          "name": "rate",
          "type": "uint256"
        },
        {
          "internalType": "uint256",
          "name": "target",
          "type": "uint256"
        },
        {
          "internalType": "uint256",
          "name": "buffer",
          "type": "uint256"
        },
        {
          "internalType": "uint256",
          "name": "lastBlock",
          "type": "uint256"
        }
      ],
      "stateMutability": "view",
      "type": "function"
    },
    {
      "inputs": [],
      "name": "bondCalculator",
      "outputs": [
        {
          "internalType": "address",
          "name": "",
          "type": "address"
        }
      ],
      "stateMutability": "view",
      "type": "function"
    },
    {
      "inputs": [
        {
          "internalType": "address",
          "name": "",
          "type": "address"
        }
      ],
      "name": "bondInfo",
      "outputs": [
        {
          "internalType": "uint256",
          "name": "payout",
          "type": "uint256"
        },
        {
          "internalType": "uint256",
          "name": "vesting",
          "type": "uint256"
        },
        {
          "internalType": "uint256",
          "name": "lastBlock",
          "type": "uint256"
        },
        {
          "internalType": "uint256",
          "name": "pricePaid",
          "type": "uint256"
        }
      ],
      "stateMutability": "view",
      "type": "function"
    },
    {
      "inputs": [],
      "name": "bondPrice",
      "outputs": [
        {
          "internalType": "uint256",
          "name": "price_",
          "type": "uint256"
        }
      ],
      "stateMutability": "view",
      "type": "function"
    },
    {
      "inputs": [],
      "name": "bondPriceInUSD",
      "outputs": [
        {
          "internalType": "uint256",
          "name": "price_",
          "type": "uint256"
        }
      ],
      "stateMutability": "view",
      "type": "function"
    },
    {
      "inputs": [],
      "name": "currentDebt",
      "outputs": [
        {
          "internalType": "uint256",
          "name": "",
          "type": "uint256"
        }
      ],
      "stateMutability": "view",
      "type": "function"
    },
    {
      "inputs": [],
      "name": "debtDecay",
      "outputs": [
        {
          "internalType": "uint256",
          "name": "decay_",
          "type": "uint256"
        }
      ],
      "stateMutability": "view",
      "type": "function"
    },
    {
      "inputs": [],
      "name": "debtRatio",
      "outputs": [
        {
          "internalType": "uint256",
          "name": "debtRatio_",
          "type": "uint256"
        }
      ],
      "stateMutability": "view",
      "type": "function"
    },
    {
      "inputs": [
        {
          "internalType": "uint256",
          "name": "_amount",
          "type": "uint256"
        },
        {
          "internalType": "uint256",
          "name": "_maxPrice",
          "type": "uint256"
        },
        {
          "internalType": "address",
          "name": "_depositor",
          "type": "address"
        }
      ],
      "name": "deposit",
      "outputs": [
        {
          "internalType": "uint256",
          "name": "",
          "type": "uint256"
        }
      ],
      "stateMutability": "nonpayable",
      "type": "function"
    },
    {
      "inputs": [
        {
          "internalType": "uint256",
          "name": "_controlVariable",
          "type": "uint256"
        },
        {
          "internalType": "uint256",
          "name": "_vestingTerm",
          "type": "uint256"
        },
        {
          "internalType": "uint256",
          "name": "_minimumPrice",
          "type": "uint256"
        },
        {
          "internalType": "uint256",
          "name": "_maxPayout",
          "type": "uint256"
        },
        {
          "internalType": "uint256",
          "name": "_fee",
          "type": "uint256"
        },
        {
          "internalType": "uint256",
          "name": "_maxDebt",
          "type": "uint256"
        },
        {
          "internalType": "uint256",
          "name": "_initialDebt",
          "type": "uint256"
        }
      ],
      "name": "initializeBondTerms",
      "outputs": [],
      "stateMutability": "nonpayable",
      "type": "function"
    },
    {
      "inputs": [],
      "name": "isLiquidityBond",
      "outputs": [
        {
          "internalType": "bool",
          "name": "",
          "type": "bool"
        }
      ],
      "stateMutability": "view",
      "type": "function"
    },
    {
      "inputs": [],
      "name": "lastDecay",
      "outputs": [
        {
          "internalType": "uint256",
          "name": "",
          "type": "uint256"
        }
      ],
      "stateMutability": "view",
      "type": "function"
    },
    {
      "inputs": [],
      "name": "maxPayout",
      "outputs": [
        {
          "internalType": "uint256",
          "name": "",
          "type": "uint256"
        }
      ],
      "stateMutability": "view",
      "type": "function"
    },
    {
      "inputs": [
        {
          "internalType": "uint256",
          "name": "_value",
          "type": "uint256"
        }
      ],
      "name": "payoutFor",
      "outputs": [
        {
          "internalType": "uint256",
          "name": "",
          "type": "uint256"
        }
      ],
      "stateMutability": "view",
      "type": "function"
    },
    {
      "inputs": [
        {
          "internalType": "address",
          "name": "_depositor",
          "type": "address"
        }
      ],
      "name": "pendingPayoutFor",
      "outputs": [
        {
          "internalType": "uint256",
          "name": "pendingPayout_",
          "type": "uint256"
        }
      ],
      "stateMutability": "view",
      "type": "function"
    },
    {
      "inputs": [
        {
          "internalType": "address",
          "name": "_depositor",
          "type": "address"
        }
      ],
      "name": "percentVestedFor",
      "outputs": [
        {
          "internalType": "uint256",
          "name": "percentVested_",
          "type": "uint256"
        }
      ],
      "stateMutability": "view",
      "type": "function"
    },
    {
      "inputs": [],
      "name": "policy",
      "outputs": [
        {
          "internalType": "address",
          "name": "",
          "type": "address"
        }
      ],
      "stateMutability": "view",
      "type": "function"
    },
    {
      "inputs": [],
      "name": "principle",
      "outputs": [
        {
          "internalType": "address",
          "name": "",
          "type": "address"
        }
      ],
      "stateMutability": "view",
      "type": "function"
    },
    {
      "inputs": [],
      "name": "pullManagement",
      "outputs": [],
      "stateMutability": "nonpayable",
      "type": "function"
    },
    {
      "inputs": [
        {
          "internalType": "address",
          "name": "newOwner_",
          "type": "address"
        }
      ],
      "name": "pushManagement",
      "outputs": [],
      "stateMutability": "nonpayable",
      "type": "function"
    },
    {
      "inputs": [
        {
          "internalType": "address",
          "name": "_token",
          "type": "address"
        }
      ],
      "name": "recoverLostToken",
      "outputs": [
        {
          "internalType": "bool",
          "name": "",
          "type": "bool"
        }
      ],
      "stateMutability": "nonpayable",
      "type": "function"
    },
    {
      "inputs": [
        {
          "internalType": "address",
          "name": "_recipient",
          "type": "address"
        },
        {
          "internalType": "bool",
          "name": "_stake",
          "type": "bool"
        }
      ],
      "name": "redeem",
      "outputs": [
        {
          "internalType": "uint256",
          "name": "",
          "type": "uint256"
        }
      ],
      "stateMutability": "nonpayable",
      "type": "function"
    },
    {
      "inputs": [],
      "name": "renounceManagement",
      "outputs": [],
      "stateMutability": "nonpayable",
      "type": "function"
    },
    {
      "inputs": [
        {
          "internalType": "bool",
          "name": "_addition",
          "type": "bool"
        },
        {
          "internalType": "uint256",
          "name": "_increment",
          "type": "uint256"
        },
        {
          "internalType": "uint256",
          "name": "_target",
          "type": "uint256"
        },
        {
          "internalType": "uint256",
          "name": "_buffer",
          "type": "uint256"
        }
      ],
      "name": "setAdjustment",
      "outputs": [],
      "stateMutability": "nonpayable",
      "type": "function"
    },
    {
      "inputs": [
        {
          "internalType": "enum RequiemQBondDepository.PARAMETER",
          "name": "_parameter",
          "type": "uint8"
        },
        {
          "internalType": "uint256",
          "name": "_input",
          "type": "uint256"
        }
      ],
      "name": "setBondTerms",
      "outputs": [],
      "stateMutability": "nonpayable",
      "type": "function"
    },
    {
      "inputs": [
        {
          "internalType": "address",
          "name": "_staking",
          "type": "address"
        },
        {
          "internalType": "bool",
          "name": "_helper",
          "type": "bool"
        }
      ],
      "name": "setStaking",
      "outputs": [],
      "stateMutability": "nonpayable",
      "type": "function"
    },
    {
      "inputs": [],
      "name": "staking",
      "outputs": [
        {
          "internalType": "address",
          "name": "",
          "type": "address"
        }
      ],
      "stateMutability": "view",
      "type": "function"
    },
    {
      "inputs": [],
      "name": "stakingHelper",
      "outputs": [
        {
          "internalType": "address",
          "name": "",
          "type": "address"
        }
      ],
      "stateMutability": "view",
      "type": "function"
    },
    {
      "inputs": [],
      "name": "standardizedDebtRatio",
      "outputs": [
        {
          "internalType": "uint256",
          "name": "",
          "type": "uint256"
        }
      ],
      "stateMutability": "view",
      "type": "function"
    },
    {
      "inputs": [],
      "name": "terms",
      "outputs": [
        {
          "internalType": "uint256",
          "name": "controlVariable",
          "type": "uint256"
        },
        {
          "internalType": "uint256",
          "name": "vestingTerm",
          "type": "uint256"
        },
        {
          "internalType": "uint256",
          "name": "minimumPrice",
          "type": "uint256"
        },
        {
          "internalType": "uint256",
          "name": "maxPayout",
          "type": "uint256"
        },
        {
          "internalType": "uint256",
          "name": "fee",
          "type": "uint256"
        },
        {
          "internalType": "uint256",
          "name": "maxDebt",
          "type": "uint256"
        }
      ],
      "stateMutability": "view",
      "type": "function"
    },
    {
      "inputs": [],
      "name": "totalDebt",
      "outputs": [
        {
          "internalType": "uint256",
          "name": "",
          "type": "uint256"
        }
      ],
      "stateMutability": "view",
      "type": "function"
    },
    {
      "inputs": [],
      "name": "treasury",
      "outputs": [
        {
          "internalType": "address",
          "name": "",
          "type": "address"
        }
      ],
      "stateMutability": "view",
      "type": "function"
    },
    {
      "inputs": [],
      "name": "useHelper",
      "outputs": [
        {
          "internalType": "bool",
          "name": "",
          "type": "bool"
        }
      ],
      "stateMutability": "view",
      "type": "function"
    }
  ],
  "transactionHash": "0x7d96e881e1ef9595981e0f6df322f1e8aca2dc90e35015ef1defa3b981cc3eb2",
  "args": [
    "0x5eb3Bc0a489C5A8288765d2336659EbCA68FCd00",
    "0x315C1C245edC31603aDF95450e06e9a95A1A5dd5",
    "0x162A433068F51e18b7d13932F27e66a3f99E6890",
    "0xf39Fd6e51aad88F6F4ce6aB8827279cffFb92266",
    "0x7bc06c482DEAd17c0e297aFbC32f6e63d3846650"
  ],
  "solcInputHash": "2d2c2bcaa9ac83534a95d2c17f3a23de",
  "bytecode": "0x6101406040523480156200001257600080fd5b50604051620028ca380380620028ca833981016040819052620000359162000118565b600080546001600160a01b0319163390811782556040519091907fea8258f2d9ddb679928cf34b78cf645b7feda9acc828e4dd82d014eaae270eba908290a36001600160a01b0385166200008857600080fd5b6001600160a01b038086166080528416620000a257600080fd5b6001600160a01b0380851660a0528316620000bc57600080fd5b6001600160a01b0380841660c0528216620000d657600080fd5b6001600160a01b0391821660e052166101208190521515610100525062000188915050565b80516001600160a01b03811681146200011357600080fd5b919050565b600080600080600060a086880312156200013157600080fd5b6200013c86620000fb565b94506200014c60208701620000fb565b93506200015c60408701620000fb565b92506200016c60608701620000fb565b91506200017c60808701620000fb565b90509295509295909350565b60805160a05160c05160e051610100516101205161264a620002806000396000818161046c01528181610e97015261165501526000818161054e01528181610e3101526115ec01526000818161043201528181611489015261176b0152600081816103a70152818161110c015281816112fc01526113e601526000818161021b01528181610e6c01528181610f24015281816110da015281816112bd0152818161132b015281816113b701528181611627015261171501526000818161028001528181611467015281816116d6015281816117fe015281816119a801528181611a9c01528181611b4a0152611c4e015261264a6000f3fe608060405234801561001057600080fd5b50600436106102115760003560e01c806377b8189511610125578063cea55f57116100ad578063d7ccfb0b1161007c578063d7ccfb0b14610570578063e0176de814610578578063e392a26214610580578063f5c2ab5b14610588578063fc7b9c181461059157600080fd5b8063cea55f57146104e3578063d4d863ce146104eb578063d5025625146104fe578063d79690601461054957600080fd5b8063904b3ece116100f4578063904b3ece1461042557806398fabd3a1461042d578063b4abccba14610454578063c5332b7c14610467578063cd1234b31461048e57600080fd5b806377b81895146103e45780637927ebf8146103f7578063844b5c7c1461040a5780638dbdbe6d1461041257600080fd5b80632f3f470a116101a8578063507930ec11610177578063507930ec146103875780635a96ac0a1461039a57806361d027b3146103a257806371535008146103c9578063759076e5146103dc57600080fd5b80632f3f470a146102f6578063451ee4a11461031a57806346f68ee9146103615780634cf088d91461037457600080fd5b8063089208d8116101e4578063089208d8146102b35780631a3d0068146102bd5780631e321a0f146102d05780631feed31f146102e357600080fd5b8063016a42841461021657806301b88ee81461025a57806302bb41e51461027b5780630505c8c9146102a2575b600080fd5b61023d7f000000000000000000000000000000000000000000000000000000000000000081565b6040516001600160a01b0390911681526020015b60405180910390f35b61026d610268366004612257565b61059a565b604051908152602001610251565b61023d7f000000000000000000000000000000000000000000000000000000000000000081565b6000546001600160a01b031661023d565b6102bb6105f4565b005b6102bb6102cb366004612280565b610671565b6102bb6102de3660046122bb565b610747565b61026d6102f13660046122eb565b6108f7565b60035461030a90600160a01b900460ff1681565b6040519015158152602001610251565b600a54600b54600c54600d54600e546103379460ff169392919085565b6040805195151586526020860194909452928401919091526060830152608082015260a001610251565b6102bb61036f366004612257565b610adc565b60025461023d906001600160a01b031681565b61026d610395366004612257565b610bc6565b6102bb610c52565b61023d7f000000000000000000000000000000000000000000000000000000000000000081565b6102bb6103d7366004612322565b610d18565b61026d610de4565b60035461023d906001600160a01b031681565b61026d61040536600461236e565b610e00565b61026d610e2d565b61026d610420366004612387565b610fb2565b61026d6115e8565b61023d7f000000000000000000000000000000000000000000000000000000000000000081565b61030a610462366004612257565b6116d2565b61023d7f000000000000000000000000000000000000000000000000000000000000000081565b6104c361049c366004612257565b600f6020526000908152604090208054600182015460028301546003909301549192909184565b604080519485526020850193909352918301526060820152608001610251565b61026d6117f9565b6102bb6104f93660046122eb565b6118bb565b60045460055460065460075460085460095461051c95949392919086565b604080519687526020870195909552938501929092526060840152608083015260a082015260c001610251565b61030a7f000000000000000000000000000000000000000000000000000000000000000081565b61026d611953565b61026d61199a565b61026d611a28565b61026d60115481565b61026d60105481565b6000806105a683610bc6565b6001600160a01b0384166000908152600f602052604090205490915061271082106105d3578092506105ed565b6127106105e083836123d2565b6105ea91906123f1565b92505b5050919050565b6000546001600160a01b031633146106275760405162461bcd60e51b815260040161061e90612413565b60405180910390fd5b600080546040516001600160a01b03909116907fea8258f2d9ddb679928cf34b78cf645b7feda9acc828e4dd82d014eaae270eba908390a3600080546001600160a01b0319169055565b6000546001600160a01b0316331461069b5760405162461bcd60e51b815260040161061e90612413565b6004546103e8906106ad9060196123d2565b6106b791906123f1565b8311156106fc5760405162461bcd60e51b8152602060048201526013602482015272496e6372656d656e7420746f6f206c6172676560681b604482015260640161061e565b6040805160a0810182529415158086526020860185905290850183905260608501829052436080909501859052600a805460ff19169091179055600b92909255600c55600d55600e55565b6000546001600160a01b031633146107715760405162461bcd60e51b815260040161061e90612413565b600082600381111561078557610785612448565b14156107ef576127108110156107e95760405162461bcd60e51b8152602060048201526024808201527f56657374696e67206d757374206265206c6f6e676572207468616e20333620686044820152636f75727360e01b606482015260840161061e565b60055550565b600182600381111561080357610803612448565b1415610861576103e881111561085b5760405162461bcd60e51b815260206004820181905260248201527f5061796f75742063616e6e6f742062652061626f766520312070657263656e74604482015260640161061e565b60075550565b600282600381111561087557610875612448565b14156108d3576127108111156108cd5760405162461bcd60e51b815260206004820152601c60248201527f44414f206665652063616e6e6f7420657863656564207061796f757400000000604482015260640161061e565b60085550565b60038260038111156108e7576108e7612448565b14156108f35760098190555b5050565b6001600160a01b0382166000908152600f602090815260408083208151608081018352815481526001820154938101939093526002810154918301919091526003015460608201528161094985610bc6565b905061271081106109db576001600160a01b0385166000818152600f60205260408082208281556001810183905560028101839055600301829055845190517f51c99f515c87b0d95ba97f616edd182e8f161c4932eac17c6fefe9dab58b77b1926109bb928252602082015260400190565b60405180910390a26109d285858460000151611a6f565b92505050610ad6565b60006127108284600001516109f091906123d2565b6109fa91906123f1565b90506040518060800160405280828560000151610a17919061245e565b8152602001846040015143610a2c919061245e565b8560200151610a3b919061245e565b8152436020808301919091526060868101516040938401526001600160a01b038a166000818152600f8452849020855180825586850151600183015586860151600283015595909201516003909201919091558251858152918201939093527f51c99f515c87b0d95ba97f616edd182e8f161c4932eac17c6fefe9dab58b77b1910160405180910390a2610ad0868683611a6f565b93505050505b92915050565b6000546001600160a01b03163314610b065760405162461bcd60e51b815260040161061e90612413565b6001600160a01b038116610b6b5760405162461bcd60e51b815260206004820152602660248201527f4f776e61626c653a206e6577206f776e657220697320746865207a65726f206160448201526564647265737360d01b606482015260840161061e565b600080546040516001600160a01b03808516939216917fea8258f2d9ddb679928cf34b78cf645b7feda9acc828e4dd82d014eaae270eba91a3600180546001600160a01b0319166001600160a01b0392909216919091179055565b6001600160a01b0381166000908152600f6020908152604080832081516080810183528154815260018201549381019390935260028101549183018290526003015460608301528290610c19904361245e565b60208301519091508015610c455780610c34836127106123d2565b610c3e91906123f1565b9350610c4a565b600093505b505050919050565b6001546001600160a01b03163314610cb75760405162461bcd60e51b815260206004820152602260248201527f4f776e61626c653a206d757374206265206e6577206f776e657220746f2070756044820152611b1b60f21b606482015260840161061e565b600154600080546040516001600160a01b0393841693909116917faa151555690c956fc3ea32f106bb9f119b5237a061eaa8557cff3e51e3792c8d91a3600154600080546001600160a01b0319166001600160a01b03909216919091179055565b6000546001600160a01b03163314610d425760405162461bcd60e51b815260040161061e90612413565b60045415610d925760405162461bcd60e51b815260206004820181905260248201527f426f6e6473206d75737420626520696e697469616c697a65642066726f6d2030604482015260640161061e565b6040805160c08101825288815260208101889052908101869052606081018590526080810184905260a00182905260049690965560059490945560069290925560075560085560095560105543601155565b6000610dee611a28565b601054610dfb919061245e565b905090565b6000662386f26fc10000610e23610e1e84610e19611953565b611d3e565b611e79565b610ad691906123f1565b60007f000000000000000000000000000000000000000000000000000000000000000015610f20576040516332da80a360e01b81526001600160a01b037f0000000000000000000000000000000000000000000000000000000000000000811660048301526064917f0000000000000000000000000000000000000000000000000000000000000000909116906332da80a390602401602060405180830381865afa158015610ee0573d6000803e3d6000fd5b505050506040513d601f19601f82011682018060405250810190610f049190612475565b610f0c611953565b610f1691906123d2565b610dfb91906123f1565b60647f00000000000000000000000000000000000000000000000000000000000000006001600160a01b031663313ce5676040518163ffffffff1660e01b8152600401602060405180830381865afa158015610f80573d6000803e3d6000fd5b505050506040513d601f19601f82011682018060405250810190610fa4919061248e565b610f0490600a612595565b90565b60006001600160a01b038216610ffc5760405162461bcd60e51b815260206004820152600f60248201526e496e76616c6964206164647265737360881b604482015260640161061e565b611004611e99565b600954601054111561104f5760405162461bcd60e51b815260206004820152601460248201527313585e0818d85c1858da5d1e481c995858da195960621b604482015260640161061e565b6000611059610e2d565b90506000611065611ebd565b9050808510156110c35760405162461bcd60e51b815260206004820152602360248201527f536c697070616765206c696d69743a206d6f7265207468616e206d617820707260448201526269636560e81b606482015260840161061e565b604051630f762d4d60e11b81526001600160a01b037f000000000000000000000000000000000000000000000000000000000000000081166004830152602482018890526000917f000000000000000000000000000000000000000000000000000000000000000090911690631eec5a9a90604401602060405180830381865afa158015611155573d6000803e3d6000fd5b505050506040513d601f19601f820116820180604052508101906111799190612475565b9050600061118682610e00565b9050629896808110156111cc5760405162461bcd60e51b815260206004820152600e60248201526d109bdb99081d1bdbc81cdb585b1b60921b604482015260640161061e565b6111d461199a565b8111156112145760405162461bcd60e51b815260206004820152600e60248201526d426f6e6420746f6f206c6172676560901b604482015260640161061e565b6008546000906127109061122890846123d2565b61123291906123f1565b905061123e81836125a4565b83116112975760405162461bcd60e51b815260206004820152602260248201527f56414c5545206973206c657373207468616e207061796f757420706c75732066604482015261656560f01b606482015260840161061e565b6000816112a4848661245e565b6112ae919061245e565b90506112e56001600160a01b037f00000000000000000000000000000000000000000000000000000000000000001633308d611f14565b60405163095ea7b360e01b81526001600160a01b037f000000000000000000000000000000000000000000000000000000000000000081166004830152602482018c90527f0000000000000000000000000000000000000000000000000000000000000000169063095ea7b3906044016020604051808303816000875af1158015611374573d6000803e3d6000fd5b505050506040513d601f19601f8201168201806040525081019061139891906125bc565b5060405163bc157ac160e01b8152600481018b90526001600160a01b037f000000000000000000000000000000000000000000000000000000000000000081166024830152604482018390527f0000000000000000000000000000000000000000000000000000000000000000169063bc157ac1906064016020604051808303816000875af115801561142f573d6000803e3d6000fd5b505050506040513d601f19601f820116820180604052508101906114539190612475565b5081156114ae576114ae6001600160a01b037f0000000000000000000000000000000000000000000000000000000000000000167f000000000000000000000000000000000000000000000000000000000000000084611f85565b836010546114bc91906125a4565b601055604080516080810182526001600160a01b038a166000908152600f602052919091205481906114ef9086906125a4565b81526005805460208084019190915243604080850182905260609485018c90526001600160a01b038e166000908152600f8452819020865181559286015160018401558501516002830155939092015160039092019190915554879161155591906125a4565b847f1fec6dc81f140574bf43f6b1e420ae1dd47928b9d57db8cbd7b8611063b85ae58d60405161158791815260200190565b60405180910390a46115976117f9565b61159f611ebd565b6115a7610e2d565b6040517f375b221f40939bfd8f49723a17cf7bc6d576ebf72efe2cc3e991826f5b3f390a90600090a46115d8611fba565b50909450505050505b9392505050565b60007f0000000000000000000000000000000000000000000000000000000000000000156116ca576040516332da80a360e01b81526001600160a01b037f000000000000000000000000000000000000000000000000000000000000000081166004830152633b9aca00917f0000000000000000000000000000000000000000000000000000000000000000909116906332da80a390602401602060405180830381865afa15801561169e573d6000803e3d6000fd5b505050506040513d601f19601f820116820180604052508101906116c29190612475565b610f0c6117f9565b610dfb6117f9565b60007f00000000000000000000000000000000000000000000000000000000000000006001600160a01b0316826001600160a01b0316141561171357600080fd5b7f00000000000000000000000000000000000000000000000000000000000000006001600160a01b0316826001600160a01b0316141561175257600080fd5b6040516370a0823160e01b81523060048201526117f1907f0000000000000000000000000000000000000000000000000000000000000000906001600160a01b038516906370a0823190602401602060405180830381865afa1580156117bc573d6000803e3d6000fd5b505050506040513d601f19601f820116820180604052508101906117e09190612475565b6001600160a01b0385169190611f85565b506001919050565b6000807f00000000000000000000000000000000000000000000000000000000000000006001600160a01b03166318160ddd6040518163ffffffff1660e01b8152600401602060405180830381865afa15801561185a573d6000803e3d6000fd5b505050506040513d601f19601f8201168201806040525081019061187e9190612475565b9050670de0b6b3a76400006118ab610e1e611897610de4565b6118a590633b9aca006123d2565b84611d3e565b6118b591906123f1565b91505090565b6000546001600160a01b031633146118e55760405162461bcd60e51b815260040161061e90612413565b6001600160a01b0382166118f857600080fd5b801561192557600380546001600160a01b0384166001600160a81b031990911617600160a01b1790555050565b6003805460ff60a01b19169055600280546001600160a01b0384166001600160a01b03199091161790555050565b6000629896806119616117f9565b60045461196e91906123d2565b61197c90633b9aca006125a4565b61198691906123f1565b600654909150811015610faf575060065490565b6000620186a06004600301547f00000000000000000000000000000000000000000000000000000000000000006001600160a01b03166318160ddd6040518163ffffffff1660e01b8152600401602060405180830381865afa158015611a04573d6000803e3d6000fd5b505050506040513d601f19601f82011682018060405250810190610f0c9190612475565b60008060115443611a39919061245e565b905060046001015481601054611a4f91906123d2565b611a5991906123f1565b9150601054821115611a6b5760105491505b5090565b600082611b0f5760405163a9059cbb60e01b81526001600160a01b038581166004830152602482018490527f0000000000000000000000000000000000000000000000000000000000000000169063a9059cbb906044016020604051808303816000875af1158015611ae5573d6000803e3d6000fd5b505050506040513d601f19601f82011682018060405250810190611b0991906125bc565b50611d37565b600354600160a01b900460ff1615611c255760035460405163095ea7b360e01b81526001600160a01b039182166004820152602481018490527f00000000000000000000000000000000000000000000000000000000000000009091169063095ea7b3906044016020604051808303816000875af1158015611b95573d6000803e3d6000fd5b505050506040513d601f19601f82011682018060405250810190611bb991906125bc565b50600354604051637acb775760e01b8152600481018490526001600160a01b03868116602483015290911690637acb775790604401600060405180830381600087803b158015611c0857600080fd5b505af1158015611c1c573d6000803e3d6000fd5b50505050611d37565b60025460405163095ea7b360e01b81526001600160a01b039182166004820152602481018490527f00000000000000000000000000000000000000000000000000000000000000009091169063095ea7b3906044016020604051808303816000875af1158015611c99573d6000803e3d6000fd5b505050506040513d601f19601f82011682018060405250810190611cbd91906125bc565b50600254604051637acb775760e01b8152600481018490526001600160a01b03868116602483015290911690637acb7757906044016020604051808303816000875af1158015611d11573d6000803e3d6000fd5b505050506040513d601f19601f82011682018060405250810190611d3591906125bc565b505b5092915050565b60408051602081019091526000815260008211611dac5760405162461bcd60e51b815260206004820152602660248201527f4669786564506f696e743a3a6672616374696f6e3a206469766973696f6e206260448201526579207a65726f60d01b606482015260840161061e565b82611dc65750604080516020810190915260008152610ad6565b71ffffffffffffffffffffffffffffffffffff8311611e68576000611def83607086901b6123f1565b90506001600160e01b03811115611e485760405162461bcd60e51b815260206004820152601e60248201527f4669786564506f696e743a3a6672616374696f6e3a206f766572666c6f770000604482015260640161061e565b6040518060200160405280826001600160e01b0316815250915050610ad6565b6000611def84600160701b8561209c565b8051600090610ad6906612725dd1d243ab906001600160e01b03166123f1565b611ea1611a28565b60106000828254611eb2919061245e565b909155505043601155565b600062989680611ecb6117f9565b600454611ed891906123d2565b611ee690633b9aca006125a4565b611ef091906123f1565b600654909150811015611f04575060065490565b60065415610faf57600060065590565b6040516001600160a01b0380851660248301528316604482015260648101829052611f7f9085906323b872dd60e01b906084015b60408051601f198184030181529190526020810180516001600160e01b03166001600160e01b03199093169290921790915261214b565b50505050565b6040516001600160a01b038316602482015260448101829052611fb590849063a9059cbb60e01b90606401611f48565b505050565b600d54600e54600091611fcc916125a4565b600b5490915015801590611fe05750804310155b1561209957600454600a5460ff161561201b57600b5460045461200391906125a4565b6004819055600c5411612016576000600b555b61203e565b600b5460045461202b919061245e565b6004819055600c541061203e576000600b555b43600e55600454600b54600a5460408051858152602081019490945283019190915260ff16151560608201527fb923e581a0f83128e9e1d8297aa52b18d6744310476e0b54509c054cd7a93b2a9060800160405180910390a1505b50565b6000808060001985870985870292508281108382030391505080600014156120d657600084116120cb57600080fd5b5082900490506115e1565b8084116120e257600080fd5b60008486880960026001871981018816978890046003810283188082028403028082028403028082028403028082028403028082028403029081029092039091026000889003889004909101858311909403939093029303949094049190911702949350505050565b600080836001600160a01b03168360405161216691906125d9565b6000604051808303816000865af19150503d80600081146121a3576040519150601f19603f3d011682016040523d82523d6000602084013e6121a8565b606091505b509150915060008214156121c0573d6000803e3d6000fd5b611f7f8151600014806121e25750818060200190518101906121e291906125bc565b6101a2816108f35762461bcd60e51b600090815260206004526007602452600a808304818104828106603090810160101b848706949093060160081b929092010166524551230000300160c81b6044526108f391606490fd5b80356001600160a01b038116811461225257600080fd5b919050565b60006020828403121561226957600080fd5b6115e18261223b565b801515811461209957600080fd5b6000806000806080858703121561229657600080fd5b84356122a181612272565b966020860135965060408601359560600135945092505050565b600080604083850312156122ce57600080fd5b8235600481106122dd57600080fd5b946020939093013593505050565b600080604083850312156122fe57600080fd5b6123078361223b565b9150602083013561231781612272565b809150509250929050565b600080600080600080600060e0888a03121561233d57600080fd5b505085359760208701359750604087013596606081013596506080810135955060a0810135945060c0013592509050565b60006020828403121561238057600080fd5b5035919050565b60008060006060848603121561239c57600080fd5b83359250602084013591506123b36040850161223b565b90509250925092565b634e487b7160e01b600052601160045260246000fd5b60008160001904831182151516156123ec576123ec6123bc565b500290565b60008261240e57634e487b7160e01b600052601260045260246000fd5b500490565b6020808252818101527f4f776e61626c653a2063616c6c6572206973206e6f7420746865206f776e6572604082015260600190565b634e487b7160e01b600052602160045260246000fd5b600082821015612470576124706123bc565b500390565b60006020828403121561248757600080fd5b5051919050565b6000602082840312156124a057600080fd5b815160ff811681146115e157600080fd5b600181815b808511156124ec5781600019048211156124d2576124d26123bc565b808516156124df57918102915b93841c93908002906124b6565b509250929050565b60008261250357506001610ad6565b8161251057506000610ad6565b816001811461252657600281146125305761254c565b6001915050610ad6565b60ff841115612541576125416123bc565b50506001821b610ad6565b5060208310610133831016604e8410600b841016171561256f575081810a610ad6565b61257983836124b1565b806000190482111561258d5761258d6123bc565b029392505050565b60006115e160ff8416836124f4565b600082198211156125b7576125b76123bc565b500190565b6000602082840312156125ce57600080fd5b81516115e181612272565b6000825160005b818110156125fa57602081860181015185830152016125e0565b81811115612609576000828501525b50919091019291505056fea26469706673582212205be5acfe3553b4abd6cf3f9a3b9e3ae9a26a3dbf4c8e36f9dffc6cb3d0f9161b64736f6c634300080a0033",
  "devdoc": {
    "kind": "dev",
    "methods": {
      "bondPrice()": {
        "returns": {
          "price_": "uint"
        }
      },
      "bondPriceInUSD()": {
        "returns": {
          "price_": "uint"
        }
      },
      "currentDebt()": {
        "returns": {
          "_0": "uint"
        }
      },
      "debtDecay()": {
        "returns": {
          "decay_": "uint"
        }
      },
      "debtRatio()": {
        "returns": {
          "debtRatio_": "uint"
        }
      },
      "deposit(uint256,uint256,address)": {
        "params": {
          "_amount": "uint",
          "_depositor": "address",
          "_maxPrice": "uint"
        },
        "returns": {
          "_0": "uint"
        }
      },
      "initializeBondTerms(uint256,uint256,uint256,uint256,uint256,uint256,uint256)": {
        "params": {
          "_controlVariable": "uint",
          "_fee": "uint",
          "_initialDebt": "uint",
          "_maxDebt": "uint",
          "_maxPayout": "uint",
          "_minimumPrice": "uint",
          "_vestingTerm": "uint"
        }
      },
      "maxPayout()": {
        "returns": {
          "_0": "uint"
        }
      },
      "payoutFor(uint256)": {
        "params": {
          "_value": "uint"
        },
        "returns": {
          "_0": "uint"
        }
      },
      "pendingPayoutFor(address)": {
        "params": {
          "_depositor": "address"
        },
        "returns": {
          "pendingPayout_": "uint"
        }
      },
      "percentVestedFor(address)": {
        "params": {
          "_depositor": "address"
        },
        "returns": {
          "percentVested_": "uint"
        }
      },
      "recoverLostToken(address)": {
        "returns": {
          "_0": "bool"
        }
      },
      "redeem(address,bool)": {
        "params": {
          "_recipient": "address",
          "_stake": "bool"
        },
        "returns": {
          "_0": "uint"
        }
      },
      "setAdjustment(bool,uint256,uint256,uint256)": {
        "params": {
          "_addition": "bool",
          "_buffer": "uint",
          "_increment": "uint",
          "_target": "uint"
        }
      },
      "setBondTerms(uint8,uint256)": {
        "params": {
          "_input": "uint",
          "_parameter": "PARAMETER"
        }
      },
      "setStaking(address,bool)": {
        "params": {
          "_helper": "bool",
          "_staking": "address"
        }
      },
      "standardizedDebtRatio()": {
        "returns": {
          "_0": "uint"
        }
      }
    },
    "version": 1
  },
  "userdoc": {
    "kind": "user",
    "methods": {
      "bondPrice()": {
        "notice": "calculate current bond premium"
      },
      "bondPriceInUSD()": {
        "notice": "converts bond price to DAI value"
      },
      "currentDebt()": {
        "notice": "calculate debt factoring in decay"
      },
      "debtDecay()": {
        "notice": "amount to decay total debt by"
      },
      "debtRatio()": {
        "notice": "calculate current ratio of debt to REQT supply"
      },
      "deposit(uint256,uint256,address)": {
        "notice": "deposit bond"
      },
      "initializeBondTerms(uint256,uint256,uint256,uint256,uint256,uint256,uint256)": {
        "notice": "initializes bond parameters"
      },
      "maxPayout()": {
        "notice": "determine maximum bond size"
      },
      "payoutFor(uint256)": {
        "notice": "calculate interest due for new bond"
      },
      "pendingPayoutFor(address)": {
        "notice": "calculate amount of REQT available for claim by depositor"
      },
      "percentVestedFor(address)": {
        "notice": "calculate how far into vesting a depositor is"
      },
      "recoverLostToken(address)": {
        "notice": "allow anyone to send lost tokens (excluding principle or REQT) to the DAO"
      },
      "redeem(address,bool)": {
        "notice": "redeem bond for user"
      },
      "setAdjustment(bool,uint256,uint256,uint256)": {
        "notice": "set control variable adjustment"
      },
      "setBondTerms(uint8,uint256)": {
        "notice": "set parameters for new bonds"
      },
      "setStaking(address,bool)": {
        "notice": "set contract for auto stake"
      },
      "standardizedDebtRatio()": {
        "notice": "debt ratio in same terms for reserve or liquidity bonds"
      }
    },
    "version": 1
  },
  "storageLayout": {
    "storage": [
      {
        "astId": 9105,
        "contract": "contracts/RequiemQBondDepository.sol:RequiemQBondDepository",
        "label": "_owner",
        "offset": 0,
        "slot": "0",
        "type": "t_address"
      },
      {
        "astId": 9107,
        "contract": "contracts/RequiemQBondDepository.sol:RequiemQBondDepository",
        "label": "_newOwner",
        "offset": 0,
        "slot": "1",
        "type": "t_address"
      },
      {
        "astId": 2698,
        "contract": "contracts/RequiemQBondDepository.sol:RequiemQBondDepository",
        "label": "staking",
        "offset": 0,
        "slot": "2",
        "type": "t_address"
      },
      {
        "astId": 2700,
        "contract": "contracts/RequiemQBondDepository.sol:RequiemQBondDepository",
        "label": "stakingHelper",
        "offset": 0,
        "slot": "3",
        "type": "t_address"
      },
      {
        "astId": 2702,
        "contract": "contracts/RequiemQBondDepository.sol:RequiemQBondDepository",
        "label": "useHelper",
        "offset": 20,
        "slot": "3",
        "type": "t_bool"
      },
      {
        "astId": 2705,
        "contract": "contracts/RequiemQBondDepository.sol:RequiemQBondDepository",
        "label": "terms",
        "offset": 0,
        "slot": "4",
        "type": "t_struct(Terms)2730_storage"
      },
      {
        "astId": 2708,
        "contract": "contracts/RequiemQBondDepository.sol:RequiemQBondDepository",
        "label": "adjustment",
        "offset": 0,
        "slot": "10",
        "type": "t_struct(Adjust)2750_storage"
      },
      {
        "astId": 2713,
        "contract": "contracts/RequiemQBondDepository.sol:RequiemQBondDepository",
        "label": "bondInfo",
        "offset": 0,
        "slot": "15",
        "type": "t_mapping(t_address,t_struct(Bond)2739_storage)"
      },
      {
        "astId": 2715,
        "contract": "contracts/RequiemQBondDepository.sol:RequiemQBondDepository",
        "label": "totalDebt",
        "offset": 0,
        "slot": "16",
        "type": "t_uint256"
      },
      {
        "astId": 2717,
        "contract": "contracts/RequiemQBondDepository.sol:RequiemQBondDepository",
        "label": "lastDecay",
        "offset": 0,
        "slot": "17",
        "type": "t_uint256"
      }
    ],
    "types": {
      "t_address": {
        "encoding": "inplace",
        "label": "address",
        "numberOfBytes": "20"
      },
      "t_bool": {
        "encoding": "inplace",
        "label": "bool",
        "numberOfBytes": "1"
      },
      "t_mapping(t_address,t_struct(Bond)2739_storage)": {
        "encoding": "mapping",
        "key": "t_address",
        "label": "mapping(address => struct RequiemQBondDepository.Bond)",
        "numberOfBytes": "32",
        "value": "t_struct(Bond)2739_storage"
      },
      "t_struct(Adjust)2750_storage": {
        "encoding": "inplace",
        "label": "struct RequiemQBondDepository.Adjust",
        "members": [
          {
            "astId": 2741,
            "contract": "contracts/RequiemQBondDepository.sol:RequiemQBondDepository",
            "label": "add",
            "offset": 0,
            "slot": "0",
            "type": "t_bool"
          },
          {
            "astId": 2743,
            "contract": "contracts/RequiemQBondDepository.sol:RequiemQBondDepository",
            "label": "rate",
            "offset": 0,
            "slot": "1",
            "type": "t_uint256"
          },
          {
            "astId": 2745,
            "contract": "contracts/RequiemQBondDepository.sol:RequiemQBondDepository",
            "label": "target",
            "offset": 0,
            "slot": "2",
            "type": "t_uint256"
          },
          {
            "astId": 2747,
            "contract": "contracts/RequiemQBondDepository.sol:RequiemQBondDepository",
            "label": "buffer",
            "offset": 0,
            "slot": "3",
            "type": "t_uint256"
          },
          {
            "astId": 2749,
            "contract": "contracts/RequiemQBondDepository.sol:RequiemQBondDepository",
            "label": "lastBlock",
            "offset": 0,
            "slot": "4",
            "type": "t_uint256"
          }
        ],
        "numberOfBytes": "160"
      },
      "t_struct(Bond)2739_storage": {
        "encoding": "inplace",
        "label": "struct RequiemQBondDepository.Bond",
        "members": [
          {
            "astId": 2732,
            "contract": "contracts/RequiemQBondDepository.sol:RequiemQBondDepository",
            "label": "payout",
            "offset": 0,
            "slot": "0",
            "type": "t_uint256"
          },
          {
            "astId": 2734,
            "contract": "contracts/RequiemQBondDepository.sol:RequiemQBondDepository",
            "label": "vesting",
            "offset": 0,
            "slot": "1",
            "type": "t_uint256"
          },
          {
            "astId": 2736,
            "contract": "contracts/RequiemQBondDepository.sol:RequiemQBondDepository",
            "label": "lastBlock",
            "offset": 0,
            "slot": "2",
            "type": "t_uint256"
          },
          {
            "astId": 2738,
            "contract": "contracts/RequiemQBondDepository.sol:RequiemQBondDepository",
            "label": "pricePaid",
            "offset": 0,
            "slot": "3",
            "type": "t_uint256"
          }
        ],
        "numberOfBytes": "128"
      },
      "t_struct(Terms)2730_storage": {
        "encoding": "inplace",
        "label": "struct RequiemQBondDepository.Terms",
        "members": [
          {
            "astId": 2719,
            "contract": "contracts/RequiemQBondDepository.sol:RequiemQBondDepository",
            "label": "controlVariable",
            "offset": 0,
            "slot": "0",
            "type": "t_uint256"
          },
          {
            "astId": 2721,
            "contract": "contracts/RequiemQBondDepository.sol:RequiemQBondDepository",
            "label": "vestingTerm",
            "offset": 0,
            "slot": "1",
            "type": "t_uint256"
          },
          {
            "astId": 2723,
            "contract": "contracts/RequiemQBondDepository.sol:RequiemQBondDepository",
            "label": "minimumPrice",
            "offset": 0,
            "slot": "2",
            "type": "t_uint256"
          },
          {
            "astId": 2725,
            "contract": "contracts/RequiemQBondDepository.sol:RequiemQBondDepository",
            "label": "maxPayout",
            "offset": 0,
            "slot": "3",
            "type": "t_uint256"
          },
          {
            "astId": 2727,
            "contract": "contracts/RequiemQBondDepository.sol:RequiemQBondDepository",
            "label": "fee",
            "offset": 0,
            "slot": "4",
            "type": "t_uint256"
          },
          {
            "astId": 2729,
            "contract": "contracts/RequiemQBondDepository.sol:RequiemQBondDepository",
            "label": "maxDebt",
            "offset": 0,
            "slot": "5",
            "type": "t_uint256"
          }
        ],
        "numberOfBytes": "192"
      },
      "t_uint256": {
        "encoding": "inplace",
        "label": "uint256",
        "numberOfBytes": "32"
      }
    }
  }
}