{
  "address": "0x162A433068F51e18b7d13932F27e66a3f99E6890",
  "abi": [
    {
      "inputs": [
        {
          "internalType": "address",
          "name": "_REQT",
          "type": "address"
        },
        {
          "internalType": "address",
          "name": "_DAI",
          "type": "address"
        },
        {
          "internalType": "address",
          "name": "_Frax",
          "type": "address"
        },
        {
          "internalType": "address",
          "name": "_REQTDAI",
          "type": "address"
        },
        {
          "internalType": "uint256",
          "name": "_blocksNeededForQueue",
          "type": "uint256"
        }
      ],
      "stateMutability": "nonpayable",
      "type": "constructor"
    },
    {
      "anonymous": false,
      "inputs": [
        {
          "indexed": true,
          "internalType": "enum RequiemTreasury.MANAGING",
          "name": "managing",
          "type": "uint8"
        },
        {
          "indexed": false,
          "internalType": "address",
          "name": "activated",
          "type": "address"
        },
        {
          "indexed": false,
          "internalType": "bool",
          "name": "result",
          "type": "bool"
        }
      ],
      "name": "ChangeActivated",
      "type": "event"
    },
    {
      "anonymous": false,
      "inputs": [
        {
          "indexed": true,
          "internalType": "enum RequiemTreasury.MANAGING",
          "name": "managing",
          "type": "uint8"
        },
        {
          "indexed": false,
          "internalType": "address",
          "name": "queued",
          "type": "address"
        }
      ],
      "name": "ChangeQueued",
      "type": "event"
    },
    {
      "anonymous": false,
      "inputs": [
        {
          "indexed": true,
          "internalType": "address",
          "name": "debtor",
          "type": "address"
        },
        {
          "indexed": true,
          "internalType": "address",
          "name": "token",
          "type": "address"
        },
        {
          "indexed": false,
          "internalType": "uint256",
          "name": "amount",
          "type": "uint256"
        },
        {
          "indexed": false,
          "internalType": "uint256",
          "name": "value",
          "type": "uint256"
        }
      ],
      "name": "CreateDebt",
      "type": "event"
    },
    {
      "anonymous": false,
      "inputs": [
        {
          "indexed": true,
          "internalType": "address",
          "name": "token",
          "type": "address"
        },
        {
          "indexed": false,
          "internalType": "uint256",
          "name": "amount",
          "type": "uint256"
        },
        {
          "indexed": false,
          "internalType": "uint256",
          "name": "value",
          "type": "uint256"
        }
      ],
      "name": "Deposit",
      "type": "event"
    },
    {
      "anonymous": false,
      "inputs": [
        {
          "indexed": true,
          "internalType": "address",
          "name": "previousOwner",
          "type": "address"
        },
        {
          "indexed": true,
          "internalType": "address",
          "name": "newOwner",
          "type": "address"
        }
      ],
      "name": "OwnershipPulled",
      "type": "event"
    },
    {
      "anonymous": false,
      "inputs": [
        {
          "indexed": true,
          "internalType": "address",
          "name": "previousOwner",
          "type": "address"
        },
        {
          "indexed": true,
          "internalType": "address",
          "name": "newOwner",
          "type": "address"
        }
      ],
      "name": "OwnershipPushed",
      "type": "event"
    },
    {
      "anonymous": false,
      "inputs": [
        {
          "indexed": true,
          "internalType": "address",
          "name": "debtor",
          "type": "address"
        },
        {
          "indexed": true,
          "internalType": "address",
          "name": "token",
          "type": "address"
        },
        {
          "indexed": false,
          "internalType": "uint256",
          "name": "amount",
          "type": "uint256"
        },
        {
          "indexed": false,
          "internalType": "uint256",
          "name": "value",
          "type": "uint256"
        }
      ],
      "name": "RepayDebt",
      "type": "event"
    },
    {
      "anonymous": false,
      "inputs": [
        {
          "indexed": true,
          "internalType": "uint256",
          "name": "totalReserves",
          "type": "uint256"
        }
      ],
      "name": "ReservesAudited",
      "type": "event"
    },
    {
      "anonymous": false,
      "inputs": [
        {
          "indexed": true,
          "internalType": "address",
          "name": "token",
          "type": "address"
        },
        {
          "indexed": false,
          "internalType": "uint256",
          "name": "amount",
          "type": "uint256"
        }
      ],
      "name": "ReservesManaged",
      "type": "event"
    },
    {
      "anonymous": false,
      "inputs": [
        {
          "indexed": true,
          "internalType": "uint256",
          "name": "totalReserves",
          "type": "uint256"
        }
      ],
      "name": "ReservesUpdated",
      "type": "event"
    },
    {
      "anonymous": false,
      "inputs": [
        {
          "indexed": true,
          "internalType": "address",
          "name": "caller",
          "type": "address"
        },
        {
          "indexed": true,
          "internalType": "address",
          "name": "recipient",
          "type": "address"
        },
        {
          "indexed": false,
          "internalType": "uint256",
          "name": "amount",
          "type": "uint256"
        }
      ],
      "name": "RewardsMinted",
      "type": "event"
    },
    {
      "anonymous": false,
      "inputs": [
        {
          "indexed": true,
          "internalType": "address",
          "name": "token",
          "type": "address"
        },
        {
          "indexed": false,
          "internalType": "uint256",
          "name": "amount",
          "type": "uint256"
        },
        {
          "indexed": false,
          "internalType": "uint256",
          "name": "value",
          "type": "uint256"
        }
      ],
      "name": "Withdrawal",
      "type": "event"
    },
    {
      "inputs": [
        {
          "internalType": "address",
          "name": "",
          "type": "address"
        }
      ],
      "name": "LiquidityDepositorQueue",
      "outputs": [
        {
          "internalType": "uint256",
          "name": "",
          "type": "uint256"
        }
      ],
      "stateMutability": "view",
      "type": "function"
    },
    {
      "inputs": [
        {
          "internalType": "address",
          "name": "",
          "type": "address"
        }
      ],
      "name": "LiquidityManagerQueue",
      "outputs": [
        {
          "internalType": "uint256",
          "name": "",
          "type": "uint256"
        }
      ],
      "stateMutability": "view",
      "type": "function"
    },
    {
      "inputs": [
        {
          "internalType": "address",
          "name": "",
          "type": "address"
        }
      ],
      "name": "LiquidityTokenQueue",
      "outputs": [
        {
          "internalType": "uint256",
          "name": "",
          "type": "uint256"
        }
      ],
      "stateMutability": "view",
      "type": "function"
    },
    {
      "inputs": [],
      "name": "REQT",
      "outputs": [
        {
          "internalType": "address",
          "name": "",
          "type": "address"
        }
      ],
      "stateMutability": "view",
      "type": "function"
    },
    {
      "inputs": [
        {
          "internalType": "address",
          "name": "",
          "type": "address"
        }
      ],
      "name": "ReserveManagerQueue",
      "outputs": [
        {
          "internalType": "uint256",
          "name": "",
          "type": "uint256"
        }
      ],
      "stateMutability": "view",
      "type": "function"
    },
    {
      "inputs": [],
      "name": "auditReserves",
      "outputs": [],
      "stateMutability": "nonpayable",
      "type": "function"
    },
    {
      "inputs": [],
      "name": "blocksNeededForQueue",
      "outputs": [
        {
          "internalType": "uint256",
          "name": "",
          "type": "uint256"
        }
      ],
      "stateMutability": "view",
      "type": "function"
    },
    {
      "inputs": [
        {
          "internalType": "address",
          "name": "",
          "type": "address"
        }
      ],
      "name": "bondCalculator",
      "outputs": [
        {
          "internalType": "address",
          "name": "",
          "type": "address"
        }
      ],
      "stateMutability": "view",
      "type": "function"
    },
    {
      "inputs": [
        {
          "internalType": "address",
          "name": "",
          "type": "address"
        }
      ],
      "name": "debtorBalance",
      "outputs": [
        {
          "internalType": "uint256",
          "name": "",
          "type": "uint256"
        }
      ],
      "stateMutability": "view",
      "type": "function"
    },
    {
      "inputs": [
        {
          "internalType": "address",
          "name": "",
          "type": "address"
        }
      ],
      "name": "debtorQueue",
      "outputs": [
        {
          "internalType": "uint256",
          "name": "",
          "type": "uint256"
        }
      ],
      "stateMutability": "view",
      "type": "function"
    },
    {
      "inputs": [
        {
          "internalType": "uint256",
          "name": "",
          "type": "uint256"
        }
      ],
      "name": "debtors",
      "outputs": [
        {
          "internalType": "address",
          "name": "",
          "type": "address"
        }
      ],
      "stateMutability": "view",
      "type": "function"
    },
    {
      "inputs": [
        {
          "internalType": "uint256",
          "name": "_amount",
          "type": "uint256"
        },
        {
          "internalType": "address",
          "name": "_token",
          "type": "address"
        },
        {
          "internalType": "uint256",
          "name": "_profit",
          "type": "uint256"
        }
      ],
      "name": "deposit",
      "outputs": [
        {
          "internalType": "uint256",
          "name": "send_",
          "type": "uint256"
        }
      ],
      "stateMutability": "nonpayable",
      "type": "function"
    },
    {
      "inputs": [],
      "name": "excessReserves",
      "outputs": [
        {
          "internalType": "uint256",
          "name": "",
          "type": "uint256"
        }
      ],
      "stateMutability": "view",
      "type": "function"
    },
    {
      "inputs": [
        {
          "internalType": "uint256",
          "name": "_amount",
          "type": "uint256"
        },
        {
          "internalType": "address",
          "name": "_token",
          "type": "address"
        }
      ],
      "name": "incurDebt",
      "outputs": [],
      "stateMutability": "nonpayable",
      "type": "function"
    },
    {
      "inputs": [
        {
          "internalType": "address",
          "name": "",
          "type": "address"
        }
      ],
      "name": "isDebtor",
      "outputs": [
        {
          "internalType": "bool",
          "name": "",
          "type": "bool"
        }
      ],
      "stateMutability": "view",
      "type": "function"
    },
    {
      "inputs": [
        {
          "internalType": "address",
          "name": "",
          "type": "address"
        }
      ],
      "name": "isLiquidityDepositor",
      "outputs": [
        {
          "internalType": "bool",
          "name": "",
          "type": "bool"
        }
      ],
      "stateMutability": "view",
      "type": "function"
    },
    {
      "inputs": [
        {
          "internalType": "address",
          "name": "",
          "type": "address"
        }
      ],
      "name": "isLiquidityManager",
      "outputs": [
        {
          "internalType": "bool",
          "name": "",
          "type": "bool"
        }
      ],
      "stateMutability": "view",
      "type": "function"
    },
    {
      "inputs": [
        {
          "internalType": "address",
          "name": "",
          "type": "address"
        }
      ],
      "name": "isLiquidityToken",
      "outputs": [
        {
          "internalType": "bool",
          "name": "",
          "type": "bool"
        }
      ],
      "stateMutability": "view",
      "type": "function"
    },
    {
      "inputs": [
        {
          "internalType": "address",
          "name": "",
          "type": "address"
        }
      ],
      "name": "isReserveDepositor",
      "outputs": [
        {
          "internalType": "bool",
          "name": "",
          "type": "bool"
        }
      ],
      "stateMutability": "view",
      "type": "function"
    },
    {
      "inputs": [
        {
          "internalType": "address",
          "name": "",
          "type": "address"
        }
      ],
      "name": "isReserveManager",
      "outputs": [
        {
          "internalType": "bool",
          "name": "",
          "type": "bool"
        }
      ],
      "stateMutability": "view",
      "type": "function"
    },
    {
      "inputs": [
        {
          "internalType": "address",
          "name": "",
          "type": "address"
        }
      ],
      "name": "isReserveSpender",
      "outputs": [
        {
          "internalType": "bool",
          "name": "",
          "type": "bool"
        }
      ],
      "stateMutability": "view",
      "type": "function"
    },
    {
      "inputs": [
        {
          "internalType": "address",
          "name": "",
          "type": "address"
        }
      ],
      "name": "isReserveToken",
      "outputs": [
        {
          "internalType": "bool",
          "name": "",
          "type": "bool"
        }
      ],
      "stateMutability": "view",
      "type": "function"
    },
    {
      "inputs": [
        {
          "internalType": "address",
          "name": "",
          "type": "address"
        }
      ],
      "name": "isRewardManager",
      "outputs": [
        {
          "internalType": "bool",
          "name": "",
          "type": "bool"
        }
      ],
      "stateMutability": "view",
      "type": "function"
    },
    {
      "inputs": [
        {
          "internalType": "uint256",
          "name": "",
          "type": "uint256"
        }
      ],
      "name": "liquidityDepositors",
      "outputs": [
        {
          "internalType": "address",
          "name": "",
          "type": "address"
        }
      ],
      "stateMutability": "view",
      "type": "function"
    },
    {
      "inputs": [
        {
          "internalType": "uint256",
          "name": "",
          "type": "uint256"
        }
      ],
      "name": "liquidityManagers",
      "outputs": [
        {
          "internalType": "address",
          "name": "",
          "type": "address"
        }
      ],
      "stateMutability": "view",
      "type": "function"
    },
    {
      "inputs": [
        {
          "internalType": "uint256",
          "name": "",
          "type": "uint256"
        }
      ],
      "name": "liquidityTokens",
      "outputs": [
        {
          "internalType": "address",
          "name": "",
          "type": "address"
        }
      ],
      "stateMutability": "view",
      "type": "function"
    },
    {
      "inputs": [
        {
          "internalType": "address",
          "name": "_token",
          "type": "address"
        },
        {
          "internalType": "uint256",
          "name": "_amount",
          "type": "uint256"
        }
      ],
      "name": "manage",
      "outputs": [],
      "stateMutability": "nonpayable",
      "type": "function"
    },
    {
      "inputs": [
        {
          "internalType": "address",
          "name": "_recipient",
          "type": "address"
        },
        {
          "internalType": "uint256",
          "name": "_amount",
          "type": "uint256"
        }
      ],
      "name": "mintRewards",
      "outputs": [],
      "stateMutability": "nonpayable",
      "type": "function"
    },
    {
      "inputs": [],
      "name": "policy",
      "outputs": [
        {
          "internalType": "address",
          "name": "",
          "type": "address"
        }
      ],
      "stateMutability": "view",
      "type": "function"
    },
    {
      "inputs": [],
      "name": "pullManagement",
      "outputs": [],
      "stateMutability": "nonpayable",
      "type": "function"
    },
    {
      "inputs": [
        {
          "internalType": "address",
          "name": "newOwner_",
          "type": "address"
        }
      ],
      "name": "pushManagement",
      "outputs": [],
      "stateMutability": "nonpayable",
      "type": "function"
    },
    {
      "inputs": [
        {
          "internalType": "enum RequiemTreasury.MANAGING",
          "name": "_managing",
          "type": "uint8"
        },
        {
          "internalType": "address",
          "name": "_address",
          "type": "address"
        }
      ],
      "name": "queue",
      "outputs": [
        {
          "internalType": "bool",
          "name": "",
          "type": "bool"
        }
      ],
      "stateMutability": "nonpayable",
      "type": "function"
    },
    {
      "inputs": [],
      "name": "renounceManagement",
      "outputs": [],
      "stateMutability": "nonpayable",
      "type": "function"
    },
    {
      "inputs": [
        {
          "internalType": "uint256",
          "name": "_amount",
          "type": "uint256"
        }
      ],
      "name": "repayDebtWithREQT",
      "outputs": [],
      "stateMutability": "nonpayable",
      "type": "function"
    },
    {
      "inputs": [
        {
          "internalType": "uint256",
          "name": "_amount",
          "type": "uint256"
        },
        {
          "internalType": "address",
          "name": "_token",
          "type": "address"
        }
      ],
      "name": "repayDebtWithReserve",
      "outputs": [],
      "stateMutability": "nonpayable",
      "type": "function"
    },
    {
      "inputs": [
        {
          "internalType": "address",
          "name": "",
          "type": "address"
        }
      ],
      "name": "reserveDepositorQueue",
      "outputs": [
        {
          "internalType": "uint256",
          "name": "",
          "type": "uint256"
        }
      ],
      "stateMutability": "view",
      "type": "function"
    },
    {
      "inputs": [
        {
          "internalType": "uint256",
          "name": "",
          "type": "uint256"
        }
      ],
      "name": "reserveDepositors",
      "outputs": [
        {
          "internalType": "address",
          "name": "",
          "type": "address"
        }
      ],
      "stateMutability": "view",
      "type": "function"
    },
    {
      "inputs": [
        {
          "internalType": "uint256",
          "name": "",
          "type": "uint256"
        }
      ],
      "name": "reserveManagers",
      "outputs": [
        {
          "internalType": "address",
          "name": "",
          "type": "address"
        }
      ],
      "stateMutability": "view",
      "type": "function"
    },
    {
      "inputs": [
        {
          "internalType": "address",
          "name": "",
          "type": "address"
        }
      ],
      "name": "reserveSpenderQueue",
      "outputs": [
        {
          "internalType": "uint256",
          "name": "",
          "type": "uint256"
        }
      ],
      "stateMutability": "view",
      "type": "function"
    },
    {
      "inputs": [
        {
          "internalType": "uint256",
          "name": "",
          "type": "uint256"
        }
      ],
      "name": "reserveSpenders",
      "outputs": [
        {
          "internalType": "address",
          "name": "",
          "type": "address"
        }
      ],
      "stateMutability": "view",
      "type": "function"
    },
    {
      "inputs": [
        {
          "internalType": "address",
          "name": "",
          "type": "address"
        }
      ],
      "name": "reserveTokenQueue",
      "outputs": [
        {
          "internalType": "uint256",
          "name": "",
          "type": "uint256"
        }
      ],
      "stateMutability": "view",
      "type": "function"
    },
    {
      "inputs": [
        {
          "internalType": "uint256",
          "name": "",
          "type": "uint256"
        }
      ],
      "name": "reserveTokens",
      "outputs": [
        {
          "internalType": "address",
          "name": "",
          "type": "address"
        }
      ],
      "stateMutability": "view",
      "type": "function"
    },
    {
      "inputs": [
        {
          "internalType": "address",
          "name": "",
          "type": "address"
        }
      ],
      "name": "rewardManagerQueue",
      "outputs": [
        {
          "internalType": "uint256",
          "name": "",
          "type": "uint256"
        }
      ],
      "stateMutability": "view",
      "type": "function"
    },
    {
      "inputs": [
        {
          "internalType": "uint256",
          "name": "",
          "type": "uint256"
        }
      ],
      "name": "rewardManagers",
      "outputs": [
        {
          "internalType": "address",
          "name": "",
          "type": "address"
        }
      ],
      "stateMutability": "view",
      "type": "function"
    },
    {
      "inputs": [],
      "name": "sREQT",
      "outputs": [
        {
          "internalType": "address",
          "name": "",
          "type": "address"
        }
      ],
      "stateMutability": "view",
      "type": "function"
    },
    {
      "inputs": [],
      "name": "sREQTQueue",
      "outputs": [
        {
          "internalType": "uint256",
          "name": "",
          "type": "uint256"
        }
      ],
      "stateMutability": "view",
      "type": "function"
    },
    {
      "inputs": [
        {
          "internalType": "enum RequiemTreasury.MANAGING",
          "name": "_managing",
          "type": "uint8"
        },
        {
          "internalType": "address",
          "name": "_address",
          "type": "address"
        },
        {
          "internalType": "address",
          "name": "_calculator",
          "type": "address"
        }
      ],
      "name": "toggle",
      "outputs": [
        {
          "internalType": "bool",
          "name": "",
          "type": "bool"
        }
      ],
      "stateMutability": "nonpayable",
      "type": "function"
    },
    {
      "inputs": [],
      "name": "totalDebt",
      "outputs": [
        {
          "internalType": "uint256",
          "name": "",
          "type": "uint256"
        }
      ],
      "stateMutability": "view",
      "type": "function"
    },
    {
      "inputs": [],
      "name": "totalReserves",
      "outputs": [
        {
          "internalType": "uint256",
          "name": "",
          "type": "uint256"
        }
      ],
      "stateMutability": "view",
      "type": "function"
    },
    {
      "inputs": [
        {
          "internalType": "address",
          "name": "_token",
          "type": "address"
        },
        {
          "internalType": "uint256",
          "name": "_amount",
          "type": "uint256"
        }
      ],
      "name": "valueOf",
      "outputs": [
        {
          "internalType": "uint256",
          "name": "value_",
          "type": "uint256"
        }
      ],
      "stateMutability": "view",
      "type": "function"
    },
    {
      "inputs": [
        {
          "internalType": "uint256",
          "name": "_amount",
          "type": "uint256"
        },
        {
          "internalType": "address",
          "name": "_token",
          "type": "address"
        }
      ],
      "name": "withdraw",
      "outputs": [],
      "stateMutability": "nonpayable",
      "type": "function"
    }
  ],
  "transactionHash": "0x90884170348362ae479d0dbfd6308db98f69255199631d5eec3f559e3a85a6df",
  "args": [
    "0x5eb3Bc0a489C5A8288765d2336659EbCA68FCd00",
    "0xa85233C63b9Ee964Add6F2cffe00Fd84eb32338f",
    "0x4A679253410272dd5232B3Ff7cF5dbB88f295319",
    "0xa521a56c61247c609dd6aF7ede88A9e0432AE131",
    1
  ],
  "solcInputHash": "8e8c51f4a39062dc152d08c29090b263",
  "bytecode": "0x60c06040523480156200001157600080fd5b506040516200421138038062004211833981016040819052620000349162000195565b600080546001600160a01b0319163390811782556040519091907fea8258f2d9ddb679928cf34b78cf645b7feda9acc828e4dd82d014eaae270eba908290a36001600160a01b0385166200008757600080fd5b6001600160a01b0394851660805292841660008181526003602090815260408083208054600160ff1991821681179092556002805480840182557f405787fa12a823e0f2b7631cc41b3ba8828b3321ca811111fa75cd3aa3bb5ace90810180546001600160a01b03199081169099179055988b168087528487208054841685179055815480850190925598018054871690981790975594909716808352600c90915295812080549094168317909355600b805492830181559092527f0175b7a638427703f0dbe7bb9bbf987a2551717b34e79f33b5b1008d1fa01db901805490911690921790915560a052620001fc565b80516001600160a01b03811681146200019057600080fd5b919050565b600080600080600060a08688031215620001ae57600080fd5b620001b98662000178565b9450620001c96020870162000178565b9350620001d96040870162000178565b9250620001e96060870162000178565b9150608086015190509295509295909350565b60805160a051613f786200029960003960008181610743015281816124d00152818161253f015281816125ae0152818161261d015281816126970152818161270601528181612775015281816127ef0152818161285e01526128cd01526000818161035f015281816109d901528181610e8301528181611380015281816119f501528181611ab401528181611d8a01526120dd0152613f786000f3fe608060405234801561001057600080fd5b50600436106103405760003560e01c806387d67dff116101bd578063d031370b116100f9578063ee4e19a1116100a2578063fbfd393b1161007c578063fbfd393b14610834578063fc7b9c1814610847578063fd1ec01014610850578063fff9ee871461086357600080fd5b8063ee4e19a1146107d1578063fafbbc67146107f4578063fb9395881461081457600080fd5b8063df89b344116100d3578063df89b34414610778578063e83afee31461079b578063ebd83cd8146107ae57600080fd5b8063d031370b1461072b578063d07f390f1461073e578063d796ffb81461076557600080fd5b8063a569e57111610166578063b5b1d56011610140578063b5b1d560146106c5578063bc157ac1146106d8578063c24ad43e146106eb578063cd85641a1461070b57600080fd5b8063a569e57114610662578063ab319c9a14610685578063b1bd38b0146106a557600080fd5b80638f840ddd116101975780638f840ddd14610616578063932cc8c31461061f578063a1210a2d1461063f57600080fd5b806387d67dff146105c05780638f59c727146105e35780638f6a7b571461060357600080fd5b80632b7ce5001161028c5780635a96ac0a116102355780636b5e40a71161020f5780636b5e40a71461056757806370a0502a1461057a578063788c6c011461058d578063869871bf146105ad57600080fd5b80635a96ac0a1461052957806368c31dd5146105315780636a20de921461055457600080fd5b80634e83423c116102665780634e83423c146104ea5780634f997d581461050d57806357fba4c31461052057600080fd5b80632b7ce500146104bc578063437f7912146104c457806346f68ee9146104d757600080fd5b80630b0eee30116102ee57806312422d23116102c857806312422d23146104605780631af4da70146104735780631eec5a9a146104a957600080fd5b80630b0eee30146104125780630c3513a814610425578063124154ca1461042d57600080fd5b80630619aff11161031f5780630619aff1146103c9578063089208d8146103dc578063094a8651146103e457600080fd5b8062f714ce1461034557806302bb41e51461035a5780630505c8c9146103ab575b600080fd5b610358610353366004613ad2565b610883565b005b6103817f000000000000000000000000000000000000000000000000000000000000000081565b60405173ffffffffffffffffffffffffffffffffffffffff90911681526020015b60405180910390f35b60005473ffffffffffffffffffffffffffffffffffffffff16610381565b6103816103d7366004613afe565b610b05565b610358610b3c565b6104046103f2366004613b17565b601b6020526000908152604090205481565b6040519081526020016103a2565b610358610420366004613b32565b610c2c565b610404610e7c565b61045061043b366004613b17565b60066020526000908152604090205460ff1681565b60405190151581526020016103a2565b61035861046e366004613ad2565b610f2c565b610381610481366004613b17565b60116020526000908152604090205473ffffffffffffffffffffffffffffffffffffffff1681565b6104046104b7366004613b32565b6112d6565b610358611515565b6103816104d2366004613afe565b611786565b6103586104e5366004613b17565b611796565b6104506104f8366004613b17565b601d6020526000908152604090205460ff1681565b61035861051b366004613afe565b611947565b61040460205481565b610358611b1a565b61045061053f366004613b17565b60036020526000908152604090205460ff1681565b610358610562366004613b32565b611c54565b610381610575366004613afe565b611e37565b610381610588366004613afe565b611e47565b61040461059b366004613b17565b60046020526000908152604090205481565b6103816105bb366004613afe565b611e57565b6104506105ce366004613b17565b60096020526000908152604090205460ff1681565b6104046105f1366004613b17565b600d6020526000908152604090205481565b610381610611366004613afe565b611e67565b61040460215481565b61040461062d366004613b17565b60076020526000908152604090205481565b61045061064d366004613b17565b600f6020526000908152604090205460ff1681565b610450610670366004613b17565b600c6020526000908152604090205460ff1681565b610404610693366004613b17565b60176020526000908152604090205481565b6104046106b3366004613b17565b60146020526000908152604090205481565b6103816106d3366004613afe565b611e77565b6104046106e6366004613b5c565b611e87565b6104046106f9366004613b17565b600a6020526000908152604090205481565b610404610719366004613b17565b601a6020526000908152604090205481565b610381610739366004613afe565b6121ea565b6104047f000000000000000000000000000000000000000000000000000000000000000081565b610358610773366004613ad2565b6121fa565b610450610786366004613b17565b60166020526000908152604090205460ff1681565b6104506107a9366004613ba0565b61240f565b6104506107bc366004613b17565b60136020526000908152604090205460ff1681565b6104506107df366004613b17565b60196020526000908152604090205460ff1681565b601f546103819073ffffffffffffffffffffffffffffffffffffffff1681565b610404610822366004613b17565b601e6020526000908152604090205481565b610450610842366004613bca565b612966565b61040460225481565b61038161085e366004613afe565b613662565b610404610871366004613b17565b60106020526000908152604090205481565b73ffffffffffffffffffffffffffffffffffffffff811660009081526003602052604090205460ff16610917576040517f08c379a000000000000000000000000000000000000000000000000000000000815260206004820152600c60248201527f4e6f74206163636570746564000000000000000000000000000000000000000060448201526064015b60405180910390fd5b3360009081526009602052604090205460ff161515600114610995576040517f08c379a000000000000000000000000000000000000000000000000000000000815260206004820152600c60248201527f4e6f7420617070726f7665640000000000000000000000000000000000000000604482015260640161090e565b60006109a182846112d6565b6040517f79cc6790000000000000000000000000000000000000000000000000000000008152336004820152602481018290529091507f000000000000000000000000000000000000000000000000000000000000000073ffffffffffffffffffffffffffffffffffffffff16906379cc679090604401600060405180830381600087803b158015610a3257600080fd5b505af1158015610a46573d6000803e3d6000fd5b505050508060216000828254610a5c9190613c3c565b90915550506021546040517f93bb8edd35984706eee1b92541281f7f62d33c01c5b2ec0929a113603bd21d6690600090a2610aae73ffffffffffffffffffffffffffffffffffffffff83163385613672565b604080518481526020810183905273ffffffffffffffffffffffffffffffffffffffff8416917fdf273cb619d95419a9cd0ec88123a0538c85064229baa6363788f743fff90deb91015b60405180910390a2505050565b60128181548110610b1557600080fd5b60009182526020909120015473ffffffffffffffffffffffffffffffffffffffff16905081565b60005473ffffffffffffffffffffffffffffffffffffffff163314610bbd576040517f08c379a000000000000000000000000000000000000000000000000000000000815260206004820181905260248201527f4f776e61626c653a2063616c6c6572206973206e6f7420746865206f776e6572604482015260640161090e565b6000805460405173ffffffffffffffffffffffffffffffffffffffff909116907fea8258f2d9ddb679928cf34b78cf645b7feda9acc828e4dd82d014eaae270eba908390a3600080547fffffffffffffffffffffffff0000000000000000000000000000000000000000169055565b73ffffffffffffffffffffffffffffffffffffffff82166000908152600c602052604090205460ff1615610cd8573360009081526016602052604090205460ff16610cd3576040517f08c379a000000000000000000000000000000000000000000000000000000000815260206004820152600c60248201527f4e6f7420617070726f7665640000000000000000000000000000000000000000604482015260640161090e565b610d51565b3360009081526013602052604090205460ff16610d51576040517f08c379a000000000000000000000000000000000000000000000000000000000815260206004820152600c60248201527f4e6f7420617070726f7665640000000000000000000000000000000000000000604482015260640161090e565b6000610d5d83836112d6565b9050610d67610e7c565b811115610dd0576040517f08c379a000000000000000000000000000000000000000000000000000000000815260206004820152601560248201527f496e73756666696369656e742072657365727665730000000000000000000000604482015260640161090e565b8060216000828254610de29190613c3c565b90915550506021546040517f93bb8edd35984706eee1b92541281f7f62d33c01c5b2ec0929a113603bd21d6690600090a2610e3473ffffffffffffffffffffffffffffffffffffffff84163384613672565b8273ffffffffffffffffffffffffffffffffffffffff167f2bb2640731848fe9820ba48dbc978c1fc9bbd5f11b948bfab05b7dee3378fd8083604051610af891815260200190565b60006022547f000000000000000000000000000000000000000000000000000000000000000073ffffffffffffffffffffffffffffffffffffffff166318160ddd6040518163ffffffff1660e01b8152600401602060405180830381865afa158015610eec573d6000803e3d6000fd5b505050506040513d601f19601f82011682018060405250810190610f109190613c53565b610f1a9190613c3c565b602154610f279190613c3c565b905090565b3360009081526019602052604090205460ff16610fa5576040517f08c379a000000000000000000000000000000000000000000000000000000000815260206004820152600c60248201527f4e6f7420617070726f7665640000000000000000000000000000000000000000604482015260640161090e565b73ffffffffffffffffffffffffffffffffffffffff811660009081526003602052604090205460ff16611034576040517f08c379a000000000000000000000000000000000000000000000000000000000815260206004820152600c60248201527f4e6f742061636365707465640000000000000000000000000000000000000000604482015260640161090e565b600061104082846112d6565b601f546040517f70a0823100000000000000000000000000000000000000000000000000000000815233600482015291925060009173ffffffffffffffffffffffffffffffffffffffff909116906370a0823190602401602060405180830381865afa1580156110b4573d6000803e3d6000fd5b505050506040513d601f19601f820116820180604052508101906110d89190613c53565b336000908152601b6020526040812054919250906110f69083613c3c565b905080831115611162576040517f08c379a000000000000000000000000000000000000000000000000000000000815260206004820152601260248201527f457863656564732064656274206c696d69740000000000000000000000000000604482015260640161090e565b336000908152601b602052604081208054859290611181908490613c6c565b92505081905550826022600082825461119a9190613c6c565b9250508190555082602160008282546111b39190613c3c565b90915550506021546040517f93bb8edd35984706eee1b92541281f7f62d33c01c5b2ec0929a113603bd21d6690600090a26040517fa9059cbb0000000000000000000000000000000000000000000000000000000081523360048201526024810186905273ffffffffffffffffffffffffffffffffffffffff85169063a9059cbb906044016020604051808303816000875af1158015611257573d6000803e3d6000fd5b505050506040513d601f19601f8201168201806040525081019061127b9190613c84565b50604080518681526020810185905273ffffffffffffffffffffffffffffffffffffffff86169133917f7e1a939bed137a819b5d2979822c67f877689f7a863d5e4cb57cdca97b2977d6910160405180910390a35050505050565b73ffffffffffffffffffffffffffffffffffffffff821660009081526003602052604081205460ff1615611433578273ffffffffffffffffffffffffffffffffffffffff1663313ce5676040518163ffffffff1660e01b8152600401602060405180830381865afa15801561134f573d6000803e3d6000fd5b505050506040513d601f19601f820116820180604052508101906113739190613ca6565b61137e90600a613de9565b7f000000000000000000000000000000000000000000000000000000000000000073ffffffffffffffffffffffffffffffffffffffff1663313ce5676040518163ffffffff1660e01b8152600401602060405180830381865afa1580156113e9573d6000803e3d6000fd5b505050506040513d601f19601f8201168201806040525081019061140d9190613ca6565b61141890600a613de9565b6114229084613df8565b61142c9190613e35565b905061150f565b73ffffffffffffffffffffffffffffffffffffffff83166000908152600c602052604090205460ff161561150f5773ffffffffffffffffffffffffffffffffffffffff838116600081815260116020526040908190205490517f4249719f00000000000000000000000000000000000000000000000000000000815260048101929092526024820185905290911690634249719f90604401602060405180830381865afa1580156114e8573d6000803e3d6000fd5b505050506040513d601f19601f8201168201806040525081019061150c9190613c53565b90505b92915050565b60005473ffffffffffffffffffffffffffffffffffffffff163314611596576040517f08c379a000000000000000000000000000000000000000000000000000000000815260206004820181905260248201527f4f776e61626c653a2063616c6c6572206973206e6f7420746865206f776e6572604482015260640161090e565b6000805b6002548110156116ac5761168e600282815481106115ba576115ba613e70565b6000918252602090912001546002805473ffffffffffffffffffffffffffffffffffffffff90921691849081106115f3576115f3613e70565b6000918252602090912001546040517f70a0823100000000000000000000000000000000000000000000000000000000815230600482015273ffffffffffffffffffffffffffffffffffffffff909116906370a0823190602401602060405180830381865afa15801561166a573d6000803e3d6000fd5b505050506040513d601f19601f820116820180604052508101906104b79190613c53565b6116989083613c6c565b9150806116a481613e9f565b91505061159a565b5060005b600b5481101561172757611709600b82815481106116d0576116d0613e70565b600091825260209091200154600b805473ffffffffffffffffffffffffffffffffffffffff90921691849081106115f3576115f3613e70565b6117139083613c6c565b91508061171f81613e9f565b9150506116b0565b50602181905560405181907f93bb8edd35984706eee1b92541281f7f62d33c01c5b2ec0929a113603bd21d6690600090a260405181907fec691f09f6924b27932253f85caf99bacc30360cc0e50a1cc4d2acc24601446690600090a250565b60088181548110610b1557600080fd5b60005473ffffffffffffffffffffffffffffffffffffffff163314611817576040517f08c379a000000000000000000000000000000000000000000000000000000000815260206004820181905260248201527f4f776e61626c653a2063616c6c6572206973206e6f7420746865206f776e6572604482015260640161090e565b73ffffffffffffffffffffffffffffffffffffffff81166118ba576040517f08c379a000000000000000000000000000000000000000000000000000000000815260206004820152602660248201527f4f776e61626c653a206e6577206f776e657220697320746865207a65726f206160448201527f6464726573730000000000000000000000000000000000000000000000000000606482015260840161090e565b6000805460405173ffffffffffffffffffffffffffffffffffffffff808516939216917fea8258f2d9ddb679928cf34b78cf645b7feda9acc828e4dd82d014eaae270eba91a3600180547fffffffffffffffffffffffff00000000000000000000000000000000000000001673ffffffffffffffffffffffffffffffffffffffff92909216919091179055565b3360009081526019602052604090205460ff166119c0576040517f08c379a000000000000000000000000000000000000000000000000000000000815260206004820152600c60248201527f4e6f7420617070726f7665640000000000000000000000000000000000000000604482015260640161090e565b6040517f79cc6790000000000000000000000000000000000000000000000000000000008152336004820152602481018290527f000000000000000000000000000000000000000000000000000000000000000073ffffffffffffffffffffffffffffffffffffffff16906379cc679090604401600060405180830381600087803b158015611a4e57600080fd5b505af1158015611a62573d6000803e3d6000fd5b5050336000908152601b602052604081208054859450909250611a86908490613c3c565b925050819055508060226000828254611a9f9190613c3c565b909155505060408051828152602081018390527f000000000000000000000000000000000000000000000000000000000000000073ffffffffffffffffffffffffffffffffffffffff169133917fc6d98eecfc9c78ab62c89a82950079b54874749f1f6f24090f7acc758bc2f309910160405180910390a350565b60015473ffffffffffffffffffffffffffffffffffffffff163314611bc1576040517f08c379a000000000000000000000000000000000000000000000000000000000815260206004820152602260248201527f4f776e61626c653a206d757374206265206e6577206f776e657220746f20707560448201527f6c6c000000000000000000000000000000000000000000000000000000000000606482015260840161090e565b6001546000805460405173ffffffffffffffffffffffffffffffffffffffff93841693909116917faa151555690c956fc3ea32f106bb9f119b5237a061eaa8557cff3e51e3792c8d91a3600154600080547fffffffffffffffffffffffff00000000000000000000000000000000000000001673ffffffffffffffffffffffffffffffffffffffff909216919091179055565b336000908152601d602052604090205460ff16611ccd576040517f08c379a000000000000000000000000000000000000000000000000000000000815260206004820152600c60248201527f4e6f7420617070726f7665640000000000000000000000000000000000000000604482015260640161090e565b611cd5610e7c565b811115611d3e576040517f08c379a000000000000000000000000000000000000000000000000000000000815260206004820152601560248201527f496e73756666696369656e742072657365727665730000000000000000000000604482015260640161090e565b6040517f40c10f1900000000000000000000000000000000000000000000000000000000815273ffffffffffffffffffffffffffffffffffffffff8381166004830152602482018390527f000000000000000000000000000000000000000000000000000000000000000016906340c10f1990604401600060405180830381600087803b158015611dce57600080fd5b505af1158015611de2573d6000803e3d6000fd5b505060405183815273ffffffffffffffffffffffffffffffffffffffff851692503391507ffa8ccab40e7da8146c2304cd0950334fd30a6ba093abe86261aa13911fed849c9060200160405180910390a35050565b60058181548110610b1557600080fd5b60158181548110610b1557600080fd5b60188181548110610b1557600080fd5b600e8181548110610b1557600080fd5b601c8181548110610b1557600080fd5b73ffffffffffffffffffffffffffffffffffffffff821660009081526003602052604081205460ff1680611ee0575073ffffffffffffffffffffffffffffffffffffffff83166000908152600c602052604090205460ff165b611f46576040517f08c379a000000000000000000000000000000000000000000000000000000000815260206004820152600c60248201527f4e6f742061636365707465640000000000000000000000000000000000000000604482015260640161090e565b611f6873ffffffffffffffffffffffffffffffffffffffff841633308761374b565b73ffffffffffffffffffffffffffffffffffffffff831660009081526003602052604090205460ff1615612014573360009081526006602052604090205460ff1661200f576040517f08c379a000000000000000000000000000000000000000000000000000000000815260206004820152600c60248201527f4e6f7420617070726f7665640000000000000000000000000000000000000000604482015260640161090e565b61208d565b336000908152600f602052604090205460ff1661208d576040517f08c379a000000000000000000000000000000000000000000000000000000000815260206004820152600c60248201527f4e6f7420617070726f7665640000000000000000000000000000000000000000604482015260640161090e565b600061209984866112d6565b90506120a58382613c3c565b6040517f40c10f19000000000000000000000000000000000000000000000000000000008152336004820152602481018290529092507f000000000000000000000000000000000000000000000000000000000000000073ffffffffffffffffffffffffffffffffffffffff16906340c10f1990604401600060405180830381600087803b15801561213657600080fd5b505af115801561214a573d6000803e3d6000fd5b5050505080602160008282546121609190613c6c565b90915550506021546040517f93bb8edd35984706eee1b92541281f7f62d33c01c5b2ec0929a113603bd21d6690600090a2604080518681526020810183905273ffffffffffffffffffffffffffffffffffffffff8616917f90890809c654f11d6e72a28fa60149770a0d11ec6c92319d6ceb2bb0a4ea1a15910160405180910390a2509392505050565b60028181548110610b1557600080fd5b3360009081526019602052604090205460ff16612273576040517f08c379a000000000000000000000000000000000000000000000000000000000815260206004820152600c60248201527f4e6f7420617070726f7665640000000000000000000000000000000000000000604482015260640161090e565b73ffffffffffffffffffffffffffffffffffffffff811660009081526003602052604090205460ff16612302576040517f08c379a000000000000000000000000000000000000000000000000000000000815260206004820152600c60248201527f4e6f742061636365707465640000000000000000000000000000000000000000604482015260640161090e565b61232473ffffffffffffffffffffffffffffffffffffffff821633308561374b565b600061233082846112d6565b336000908152601b6020526040812080549293508392909190612354908490613c3c565b92505081905550806022600082825461236d9190613c3c565b9250508190555080602160008282546123869190613c6c565b90915550506021546040517f93bb8edd35984706eee1b92541281f7f62d33c01c5b2ec0929a113603bd21d6690600090a2604080518481526020810183905273ffffffffffffffffffffffffffffffffffffffff84169133917fc6d98eecfc9c78ab62c89a82950079b54874749f1f6f24090f7acc758bc2f309910160405180910390a3505050565b6000805473ffffffffffffffffffffffffffffffffffffffff163314612491576040517f08c379a000000000000000000000000000000000000000000000000000000000815260206004820181905260248201527f4f776e61626c653a2063616c6c6572206973206e6f7420746865206f776e6572604482015260640161090e565b73ffffffffffffffffffffffffffffffffffffffff82166124b157600080fd5b60008360098111156124c5576124c5613ed8565b1415612520576124f57f000000000000000000000000000000000000000000000000000000000000000043613c6c565b73ffffffffffffffffffffffffffffffffffffffff8316600090815260076020526040902055612902565b600183600981111561253457612534613ed8565b141561258f576125647f000000000000000000000000000000000000000000000000000000000000000043613c6c565b73ffffffffffffffffffffffffffffffffffffffff83166000908152600a6020526040902055612902565b60028360098111156125a3576125a3613ed8565b14156125fe576125d37f000000000000000000000000000000000000000000000000000000000000000043613c6c565b73ffffffffffffffffffffffffffffffffffffffff8316600090815260046020526040902055612902565b600383600981111561261257612612613ed8565b1415612678576126437f00000000000000000000000000000000000000000000000000000000000000006002613df8565b61264d9043613c6c565b73ffffffffffffffffffffffffffffffffffffffff8316600090815260146020526040902055612902565b600483600981111561268c5761268c613ed8565b14156126e7576126bc7f000000000000000000000000000000000000000000000000000000000000000043613c6c565b73ffffffffffffffffffffffffffffffffffffffff8316600090815260106020526040902055612902565b60058360098111156126fb576126fb613ed8565b14156127565761272b7f000000000000000000000000000000000000000000000000000000000000000043613c6c565b73ffffffffffffffffffffffffffffffffffffffff83166000908152600d6020526040902055612902565b600683600981111561276a5761276a613ed8565b14156127d05761279b7f00000000000000000000000000000000000000000000000000000000000000006002613df8565b6127a59043613c6c565b73ffffffffffffffffffffffffffffffffffffffff8316600090815260176020526040902055612902565b60078360098111156127e4576127e4613ed8565b141561283f576128147f000000000000000000000000000000000000000000000000000000000000000043613c6c565b73ffffffffffffffffffffffffffffffffffffffff83166000908152601a6020526040902055612902565b600883600981111561285357612853613ed8565b14156128ae576128837f000000000000000000000000000000000000000000000000000000000000000043613c6c565b73ffffffffffffffffffffffffffffffffffffffff83166000908152601e6020526040902055612902565b60098360098111156128c2576128c2613ed8565b14156128fa576128f27f000000000000000000000000000000000000000000000000000000000000000043613c6c565b602055612902565b50600061150f565b82600981111561291457612914613ed8565b60405173ffffffffffffffffffffffffffffffffffffffff841681527f0e4f2c4b5bc209d509bc3d49348c787fefadc66a79351b470599ac0f5be52eaf9060200160405180910390a250600192915050565b6000805473ffffffffffffffffffffffffffffffffffffffff1633146129e8576040517f08c379a000000000000000000000000000000000000000000000000000000000815260206004820181905260248201527f4f776e61626c653a2063616c6c6572206973206e6f7420746865206f776e6572604482015260640161090e565b73ffffffffffffffffffffffffffffffffffffffff8316612a0857600080fd5b600080856009811115612a1d57612a1d613ed8565b1415612b3657612a3060076006866137af565b15612adb5773ffffffffffffffffffffffffffffffffffffffff8416600090815260076020526040812055612a66600585613909565b612adb57600580546001810182556000919091527f036b6384b5eca791c62761152d0c79bb0604c104a5fb6f4eb0703f3154bb3db00180547fffffffffffffffffffffffff00000000000000000000000000000000000000001673ffffffffffffffffffffffffffffffffffffffff86161790555b5073ffffffffffffffffffffffffffffffffffffffff83166000908152600660205260409020805460ff8116157fffffffffffffffffffffffffffffffffffffffffffffffffffffffffffffff0090911681179091556135f3565b6001856009811115612b4a57612b4a613ed8565b1415612c6357612b5d600a6009866137af565b15612c085773ffffffffffffffffffffffffffffffffffffffff84166000908152600a6020526040812055612b93600885613909565b612c0857600880546001810182556000919091527ff3f7a9fe364faab93b216da50a3214154f22a0a2b415b23a84c8169e8b636ee30180547fffffffffffffffffffffffff00000000000000000000000000000000000000001673ffffffffffffffffffffffffffffffffffffffff86161790555b5073ffffffffffffffffffffffffffffffffffffffff83166000908152600960205260409020805460ff8116157fffffffffffffffffffffffffffffffffffffffffffffffffffffffffffffff0090911681179091556135f3565b6002856009811115612c7757612c77613ed8565b1415612d9057612c8a60046003866137af565b15612d355773ffffffffffffffffffffffffffffffffffffffff8416600090815260046020526040812055612cc0600285613909565b612d3557600280546001810182556000919091527f405787fa12a823e0f2b7631cc41b3ba8828b3321ca811111fa75cd3aa3bb5ace0180547fffffffffffffffffffffffff00000000000000000000000000000000000000001673ffffffffffffffffffffffffffffffffffffffff86161790555b5073ffffffffffffffffffffffffffffffffffffffff83166000908152600360205260409020805460ff8116157fffffffffffffffffffffffffffffffffffffffffffffffffffffffffffffff0090911681179091556135f3565b6003856009811115612da457612da4613ed8565b1415612f1257612db760146013866137af565b15612eb757601280546001810182557fbb8a6a4669ba250d26cd7a459eca9d215f8307e33aebe50379bc5a3617ec34440180547fffffffffffffffffffffffff00000000000000000000000000000000000000001673ffffffffffffffffffffffffffffffffffffffff8716908117909155600090815260146020526040812055612e429085613909565b612eb757601280546001810182556000919091527fbb8a6a4669ba250d26cd7a459eca9d215f8307e33aebe50379bc5a3617ec34440180547fffffffffffffffffffffffff00000000000000000000000000000000000000001673ffffffffffffffffffffffffffffffffffffffff86161790555b5073ffffffffffffffffffffffffffffffffffffffff83166000908152601360205260409020805460ff8116157fffffffffffffffffffffffffffffffffffffffffffffffffffffffffffffff0090911681179091556135f3565b6004856009811115612f2657612f26613ed8565b141561309457612f396010600f866137af565b1561303957600e80546001810182557fbb7b4a454dc3493923482f07822329ed19e8244eff582cc204f8554c3620c3fd0180547fffffffffffffffffffffffff00000000000000000000000000000000000000001673ffffffffffffffffffffffffffffffffffffffff8716908117909155600090815260106020526040812055612fc49085613909565b61303957600e80546001810182556000919091527fbb7b4a454dc3493923482f07822329ed19e8244eff582cc204f8554c3620c3fd0180547fffffffffffffffffffffffff00000000000000000000000000000000000000001673ffffffffffffffffffffffffffffffffffffffff86161790555b5073ffffffffffffffffffffffffffffffffffffffff83166000908152600f60205260409020805460ff8116157fffffffffffffffffffffffffffffffffffffffffffffffffffffffffffffff0090911681179091556135f3565b60058560098111156130a8576130a8613ed8565b14156131fb576130bb600d600c866137af565b156131665773ffffffffffffffffffffffffffffffffffffffff84166000908152600d60205260408120556130f1600b85613909565b61316657600b80546001810182556000919091527f0175b7a638427703f0dbe7bb9bbf987a2551717b34e79f33b5b1008d1fa01db90180547fffffffffffffffffffffffff00000000000000000000000000000000000000001673ffffffffffffffffffffffffffffffffffffffff86161790555b5073ffffffffffffffffffffffffffffffffffffffff8381166000908152600c60209081526040808320805460ff8116157fffffffffffffffffffffffffffffffffffffffffffffffffffffffffffffff009091168117909155601190925290912080547fffffffffffffffffffffffff000000000000000000000000000000000000000016928516929092179091556135f3565b600685600981111561320f5761320f613ed8565b14156133285761322260176016866137af565b156132cd5773ffffffffffffffffffffffffffffffffffffffff8416600090815260176020526040812055613258601585613909565b6132cd57601580546001810182556000919091527f55f448fdea98c4d29eb340757ef0a66cd03dbb9538908a6a81d96026b71ec4750180547fffffffffffffffffffffffff00000000000000000000000000000000000000001673ffffffffffffffffffffffffffffffffffffffff86161790555b5073ffffffffffffffffffffffffffffffffffffffff83166000908152601660205260409020805460ff8116157fffffffffffffffffffffffffffffffffffffffffffffffffffffffffffffff0090911681179091556135f3565b600785600981111561333c5761333c613ed8565b14156134555761334f601a6019866137af565b156133fa5773ffffffffffffffffffffffffffffffffffffffff84166000908152601a6020526040812055613385601885613909565b6133fa57601880546001810182556000919091527fb13d2d76d1f4b7be834882e410b3e3a8afaf69f83600ae24db354391d2378d2e0180547fffffffffffffffffffffffff00000000000000000000000000000000000000001673ffffffffffffffffffffffffffffffffffffffff86161790555b5073ffffffffffffffffffffffffffffffffffffffff83166000908152601960205260409020805460ff8116157fffffffffffffffffffffffffffffffffffffffffffffffffffffffffffffff0090911681179091556135f3565b600885600981111561346957613469613ed8565b14156135825761347c601e601d866137af565b156135275773ffffffffffffffffffffffffffffffffffffffff84166000908152601e60205260408120556134b2601c85613909565b61352757601c80546001810182556000919091527f0e4562a10381dec21b205ed72637e6b1b523bdd0e4d4d50af5cd23dd4500a2110180547fffffffffffffffffffffffff00000000000000000000000000000000000000001673ffffffffffffffffffffffffffffffffffffffff86161790555b5073ffffffffffffffffffffffffffffffffffffffff83166000908152601d60205260409020805460ff8116157fffffffffffffffffffffffffffffffffffffffffffffffffffffffffffffff0090911681179091556135f3565b600985600981111561359657613596613ed8565b14156135e957506000602055601f80547fffffffffffffffffffffffff00000000000000000000000000000000000000001673ffffffffffffffffffffffffffffffffffffffff851617905560016135f3565b600091505061365b565b84600981111561360557613605613ed8565b6040805173ffffffffffffffffffffffffffffffffffffffff8716815283151560208201527f0dcacb7e392f3d6a216ed2660e3dcfd40b7793d33591db2ba185a6b8e44fc477910160405180910390a260019150505b9392505050565b600b8181548110610b1557600080fd5b60405173ffffffffffffffffffffffffffffffffffffffff83166024820152604481018290526137469084907fa9059cbb00000000000000000000000000000000000000000000000000000000906064015b604080517fffffffffffffffffffffffffffffffffffffffffffffffffffffffffffffffe08184030181529190526020810180517bffffffffffffffffffffffffffffffffffffffffffffffffffffffff167fffffffff0000000000000000000000000000000000000000000000000000000090931692909217909152613983565b505050565b60405173ffffffffffffffffffffffffffffffffffffffff808516602483015283166044820152606481018290526137a99085907f23b872dd00000000000000000000000000000000000000000000000000000000906084016136c4565b50505050565b73ffffffffffffffffffffffffffffffffffffffff811660009081526020839052604081205460ff166138ff5773ffffffffffffffffffffffffffffffffffffffff8216600090815260208590526040902054613868576040517f08c379a000000000000000000000000000000000000000000000000000000000815260206004820152600a60248201527f4d75737420717565756500000000000000000000000000000000000000000000604482015260640161090e565b73ffffffffffffffffffffffffffffffffffffffff82166000908152602085905260409020544310156138f7576040517f08c379a000000000000000000000000000000000000000000000000000000000815260206004820152601160248201527f5175657565206e6f742065787069726564000000000000000000000000000000604482015260640161090e565b50600161365b565b5060009392505050565b6000805b83548110156138ff578273ffffffffffffffffffffffffffffffffffffffff1684828154811061393f5761393f613e70565b60009182526020909120015473ffffffffffffffffffffffffffffffffffffffff16141561397157600191505061150f565b8061397b81613e9f565b91505061390d565b6000808373ffffffffffffffffffffffffffffffffffffffff16836040516139ab9190613f07565b6000604051808303816000865af19150503d80600081146139e8576040519150601f19603f3d011682016040523d82523d6000602084013e6139ed565b606091505b50915091506000821415613a05573d6000803e3d6000fd5b6137a9815160001480613a27575081806020019051810190613a279190613c84565b6101a281613a3857613a3881613a3c565b5050565b7f08c379a0000000000000000000000000000000000000000000000000000000006000908152602060045260076024526652455123000030600a808404818106603090810160081b95839006959095019082900491820690940160101b939093010160c81b604452606490fd5b803573ffffffffffffffffffffffffffffffffffffffff81168114613acd57600080fd5b919050565b60008060408385031215613ae557600080fd5b82359150613af560208401613aa9565b90509250929050565b600060208284031215613b1057600080fd5b5035919050565b600060208284031215613b2957600080fd5b61150c82613aa9565b60008060408385031215613b4557600080fd5b613b4e83613aa9565b946020939093013593505050565b600080600060608486031215613b7157600080fd5b83359250613b8160208501613aa9565b9150604084013590509250925092565b8035600a8110613acd57600080fd5b60008060408385031215613bb357600080fd5b613bbc83613b91565b9150613af560208401613aa9565b600080600060608486031215613bdf57600080fd5b613be884613b91565b9250613bf660208501613aa9565b9150613c0460408501613aa9565b90509250925092565b7f4e487b7100000000000000000000000000000000000000000000000000000000600052601160045260246000fd5b600082821015613c4e57613c4e613c0d565b500390565b600060208284031215613c6557600080fd5b5051919050565b60008219821115613c7f57613c7f613c0d565b500190565b600060208284031215613c9657600080fd5b8151801515811461365b57600080fd5b600060208284031215613cb857600080fd5b815160ff8116811461365b57600080fd5b600181815b80851115613d2257817fffffffffffffffffffffffffffffffffffffffffffffffffffffffffffffffff04821115613d0857613d08613c0d565b80851615613d1557918102915b93841c9390800290613cce565b509250929050565b600082613d395750600161150f565b81613d465750600061150f565b8160018114613d5c5760028114613d6657613d82565b600191505061150f565b60ff841115613d7757613d77613c0d565b50506001821b61150f565b5060208310610133831016604e8410600b8410161715613da5575081810a61150f565b613daf8383613cc9565b807fffffffffffffffffffffffffffffffffffffffffffffffffffffffffffffffff04821115613de157613de1613c0d565b029392505050565b600061150c60ff841683613d2a565b6000817fffffffffffffffffffffffffffffffffffffffffffffffffffffffffffffffff0483118215151615613e3057613e30613c0d565b500290565b600082613e6b577f4e487b7100000000000000000000000000000000000000000000000000000000600052601260045260246000fd5b500490565b7f4e487b7100000000000000000000000000000000000000000000000000000000600052603260045260246000fd5b60007fffffffffffffffffffffffffffffffffffffffffffffffffffffffffffffffff821415613ed157613ed1613c0d565b5060010190565b7f4e487b7100000000000000000000000000000000000000000000000000000000600052602160045260246000fd5b6000825160005b81811015613f285760208186018101518583015201613f0e565b81811115613f37576000828501525b50919091019291505056fea2646970667358221220a6c01dfbe89dca4c9707bf6cf5819d8db49abad46c15b1c4177866d6f91acc5a64736f6c634300080a0033",
  "devdoc": {
    "kind": "dev",
    "methods": {
      "deposit(uint256,address,uint256)": {
        "params": {
          "_amount": "uint",
          "_profit": "uint",
          "_token": "address"
        },
        "returns": {
          "send_": "uint"
        }
      },
      "excessReserves()": {
        "returns": {
          "_0": "uint"
        }
      },
      "incurDebt(uint256,address)": {
        "params": {
          "_amount": "uint",
          "_token": "address"
        }
      },
      "manage(address,uint256)": {
        "params": {
          "_amount": "uint",
          "_token": "address"
        }
      },
      "queue(uint8,address)": {
        "params": {
          "_address": "address",
          "_managing": "MANAGING"
        },
        "returns": {
          "_0": "bool"
        }
      },
      "repayDebtWithREQT(uint256)": {
        "params": {
          "_amount": "uint"
        }
      },
      "repayDebtWithReserve(uint256,address)": {
        "params": {
          "_amount": "uint",
          "_token": "address"
        }
      },
      "toggle(uint8,address,address)": {
        "params": {
          "_address": "address",
          "_calculator": "address",
          "_managing": "MANAGING"
        },
        "returns": {
          "_0": "bool"
        }
      },
      "valueOf(address,uint256)": {
        "params": {
          "_amount": "uint",
          "_token": "address"
        },
        "returns": {
          "value_": "uint"
        }
      },
      "withdraw(uint256,address)": {
        "params": {
          "_amount": "uint",
          "_token": "address"
        }
      }
    },
    "version": 1
  },
  "userdoc": {
    "kind": "user",
    "methods": {
      "auditReserves()": {
        "notice": "takes inventory of all tracked assetsalways consolidate to recognized reserves before audit"
      },
      "deposit(uint256,address,uint256)": {
        "notice": "allow approved address to deposit an asset for REQT"
      },
      "excessReserves()": {
        "notice": "returns excess reserves not backing tokens"
      },
      "incurDebt(uint256,address)": {
        "notice": "allow approved address to borrow reserves"
      },
      "manage(address,uint256)": {
        "notice": "allow approved address to withdraw assets"
      },
      "mintRewards(address,uint256)": {
        "notice": "send epoch reward to staking contract"
      },
      "queue(uint8,address)": {
        "notice": "queue address to change boolean in mapping"
      },
      "repayDebtWithREQT(uint256)": {
        "notice": "allow approved address to repay borrowed reserves with REQT"
      },
      "repayDebtWithReserve(uint256,address)": {
        "notice": "allow approved address to repay borrowed reserves with reserves"
      },
      "toggle(uint8,address,address)": {
        "notice": "verify queue then set boolean in mapping"
      },
      "valueOf(address,uint256)": {
        "notice": "returns REQT valuation of asset"
      },
      "withdraw(uint256,address)": {
        "notice": "allow approved address to burn REQT for reserves"
      }
    },
    "version": 1
  },
  "storageLayout": {
    "storage": [
      {
        "astId": 9022,
        "contract": "contracts/Treasury.sol:RequiemTreasury",
        "label": "_owner",
        "offset": 0,
        "slot": "0",
        "type": "t_address"
      },
      {
        "astId": 9024,
        "contract": "contracts/Treasury.sol:RequiemTreasury",
        "label": "_newOwner",
        "offset": 0,
        "slot": "1",
        "type": "t_address"
      },
      {
        "astId": 5701,
        "contract": "contracts/Treasury.sol:RequiemTreasury",
        "label": "reserveTokens",
        "offset": 0,
        "slot": "2",
        "type": "t_array(t_address)dyn_storage"
      },
      {
        "astId": 5705,
        "contract": "contracts/Treasury.sol:RequiemTreasury",
        "label": "isReserveToken",
        "offset": 0,
        "slot": "3",
        "type": "t_mapping(t_address,t_bool)"
      },
      {
        "astId": 5709,
        "contract": "contracts/Treasury.sol:RequiemTreasury",
        "label": "reserveTokenQueue",
        "offset": 0,
        "slot": "4",
        "type": "t_mapping(t_address,t_uint256)"
      },
      {
        "astId": 5712,
        "contract": "contracts/Treasury.sol:RequiemTreasury",
        "label": "reserveDepositors",
        "offset": 0,
        "slot": "5",
        "type": "t_array(t_address)dyn_storage"
      },
      {
        "astId": 5716,
        "contract": "contracts/Treasury.sol:RequiemTreasury",
        "label": "isReserveDepositor",
        "offset": 0,
        "slot": "6",
        "type": "t_mapping(t_address,t_bool)"
      },
      {
        "astId": 5720,
        "contract": "contracts/Treasury.sol:RequiemTreasury",
        "label": "reserveDepositorQueue",
        "offset": 0,
        "slot": "7",
        "type": "t_mapping(t_address,t_uint256)"
      },
      {
        "astId": 5723,
        "contract": "contracts/Treasury.sol:RequiemTreasury",
        "label": "reserveSpenders",
        "offset": 0,
        "slot": "8",
        "type": "t_array(t_address)dyn_storage"
      },
      {
        "astId": 5727,
        "contract": "contracts/Treasury.sol:RequiemTreasury",
        "label": "isReserveSpender",
        "offset": 0,
        "slot": "9",
        "type": "t_mapping(t_address,t_bool)"
      },
      {
        "astId": 5731,
        "contract": "contracts/Treasury.sol:RequiemTreasury",
        "label": "reserveSpenderQueue",
        "offset": 0,
        "slot": "10",
        "type": "t_mapping(t_address,t_uint256)"
      },
      {
        "astId": 5734,
        "contract": "contracts/Treasury.sol:RequiemTreasury",
        "label": "liquidityTokens",
        "offset": 0,
        "slot": "11",
        "type": "t_array(t_address)dyn_storage"
      },
      {
        "astId": 5738,
        "contract": "contracts/Treasury.sol:RequiemTreasury",
        "label": "isLiquidityToken",
        "offset": 0,
        "slot": "12",
        "type": "t_mapping(t_address,t_bool)"
      },
      {
        "astId": 5742,
        "contract": "contracts/Treasury.sol:RequiemTreasury",
        "label": "LiquidityTokenQueue",
        "offset": 0,
        "slot": "13",
        "type": "t_mapping(t_address,t_uint256)"
      },
      {
        "astId": 5745,
        "contract": "contracts/Treasury.sol:RequiemTreasury",
        "label": "liquidityDepositors",
        "offset": 0,
        "slot": "14",
        "type": "t_array(t_address)dyn_storage"
      },
      {
        "astId": 5749,
        "contract": "contracts/Treasury.sol:RequiemTreasury",
        "label": "isLiquidityDepositor",
        "offset": 0,
        "slot": "15",
        "type": "t_mapping(t_address,t_bool)"
      },
      {
        "astId": 5753,
        "contract": "contracts/Treasury.sol:RequiemTreasury",
        "label": "LiquidityDepositorQueue",
        "offset": 0,
        "slot": "16",
        "type": "t_mapping(t_address,t_uint256)"
      },
      {
        "astId": 5757,
        "contract": "contracts/Treasury.sol:RequiemTreasury",
        "label": "bondCalculator",
        "offset": 0,
        "slot": "17",
        "type": "t_mapping(t_address,t_address)"
      },
      {
        "astId": 5760,
        "contract": "contracts/Treasury.sol:RequiemTreasury",
        "label": "reserveManagers",
        "offset": 0,
        "slot": "18",
        "type": "t_array(t_address)dyn_storage"
      },
      {
        "astId": 5764,
        "contract": "contracts/Treasury.sol:RequiemTreasury",
        "label": "isReserveManager",
        "offset": 0,
        "slot": "19",
        "type": "t_mapping(t_address,t_bool)"
      },
      {
        "astId": 5768,
        "contract": "contracts/Treasury.sol:RequiemTreasury",
        "label": "ReserveManagerQueue",
        "offset": 0,
        "slot": "20",
        "type": "t_mapping(t_address,t_uint256)"
      },
      {
        "astId": 5771,
        "contract": "contracts/Treasury.sol:RequiemTreasury",
        "label": "liquidityManagers",
        "offset": 0,
        "slot": "21",
        "type": "t_array(t_address)dyn_storage"
      },
      {
        "astId": 5775,
        "contract": "contracts/Treasury.sol:RequiemTreasury",
        "label": "isLiquidityManager",
        "offset": 0,
        "slot": "22",
        "type": "t_mapping(t_address,t_bool)"
      },
      {
        "astId": 5779,
        "contract": "contracts/Treasury.sol:RequiemTreasury",
        "label": "LiquidityManagerQueue",
        "offset": 0,
        "slot": "23",
        "type": "t_mapping(t_address,t_uint256)"
      },
      {
        "astId": 5782,
        "contract": "contracts/Treasury.sol:RequiemTreasury",
        "label": "debtors",
        "offset": 0,
        "slot": "24",
        "type": "t_array(t_address)dyn_storage"
      },
      {
        "astId": 5786,
        "contract": "contracts/Treasury.sol:RequiemTreasury",
        "label": "isDebtor",
        "offset": 0,
        "slot": "25",
        "type": "t_mapping(t_address,t_bool)"
      },
      {
        "astId": 5790,
        "contract": "contracts/Treasury.sol:RequiemTreasury",
        "label": "debtorQueue",
        "offset": 0,
        "slot": "26",
        "type": "t_mapping(t_address,t_uint256)"
      },
      {
        "astId": 5794,
        "contract": "contracts/Treasury.sol:RequiemTreasury",
        "label": "debtorBalance",
        "offset": 0,
        "slot": "27",
        "type": "t_mapping(t_address,t_uint256)"
      },
      {
        "astId": 5797,
        "contract": "contracts/Treasury.sol:RequiemTreasury",
        "label": "rewardManagers",
        "offset": 0,
        "slot": "28",
        "type": "t_array(t_address)dyn_storage"
      },
      {
        "astId": 5801,
        "contract": "contracts/Treasury.sol:RequiemTreasury",
        "label": "isRewardManager",
        "offset": 0,
        "slot": "29",
        "type": "t_mapping(t_address,t_bool)"
      },
      {
        "astId": 5805,
        "contract": "contracts/Treasury.sol:RequiemTreasury",
        "label": "rewardManagerQueue",
        "offset": 0,
        "slot": "30",
        "type": "t_mapping(t_address,t_uint256)"
      },
      {
        "astId": 5807,
        "contract": "contracts/Treasury.sol:RequiemTreasury",
        "label": "sREQT",
        "offset": 0,
        "slot": "31",
        "type": "t_address"
      },
      {
        "astId": 5809,
        "contract": "contracts/Treasury.sol:RequiemTreasury",
        "label": "sREQTQueue",
        "offset": 0,
        "slot": "32",
        "type": "t_uint256"
      },
      {
        "astId": 5811,
        "contract": "contracts/Treasury.sol:RequiemTreasury",
        "label": "totalReserves",
        "offset": 0,
        "slot": "33",
        "type": "t_uint256"
      },
      {
        "astId": 5813,
        "contract": "contracts/Treasury.sol:RequiemTreasury",
        "label": "totalDebt",
        "offset": 0,
        "slot": "34",
        "type": "t_uint256"
      }
    ],
    "types": {
      "t_address": {
        "encoding": "inplace",
        "label": "address",
        "numberOfBytes": "20"
      },
      "t_array(t_address)dyn_storage": {
        "base": "t_address",
        "encoding": "dynamic_array",
        "label": "address[]",
        "numberOfBytes": "32"
      },
      "t_bool": {
        "encoding": "inplace",
        "label": "bool",
        "numberOfBytes": "1"
      },
      "t_mapping(t_address,t_address)": {
        "encoding": "mapping",
        "key": "t_address",
        "label": "mapping(address => address)",
        "numberOfBytes": "32",
        "value": "t_address"
      },
      "t_mapping(t_address,t_bool)": {
        "encoding": "mapping",
        "key": "t_address",
        "label": "mapping(address => bool)",
        "numberOfBytes": "32",
        "value": "t_bool"
      },
      "t_mapping(t_address,t_uint256)": {
        "encoding": "mapping",
        "key": "t_address",
        "label": "mapping(address => uint256)",
        "numberOfBytes": "32",
        "value": "t_uint256"
      },
      "t_uint256": {
        "encoding": "inplace",
        "label": "uint256",
        "numberOfBytes": "32"
      }
    }
  }
}