{
  "address": "0xcbEAF3BDe82155F56486Fb5a1072cb8baAf547cc",
  "abi": [
    {
      "inputs": [
        {
          "internalType": "address",
          "name": "_REQT",
          "type": "address"
        },
        {
          "internalType": "address",
          "name": "_sREQT",
          "type": "address"
        },
        {
          "internalType": "uint256",
          "name": "_epochLength",
          "type": "uint256"
        },
        {
          "internalType": "uint256",
          "name": "_firstEpochNumber",
          "type": "uint256"
        },
        {
          "internalType": "uint256",
          "name": "_firstEpochBlock",
          "type": "uint256"
        }
      ],
      "stateMutability": "nonpayable",
      "type": "constructor"
    },
    {
      "anonymous": false,
      "inputs": [
        {
          "indexed": true,
          "internalType": "address",
          "name": "previousOwner",
          "type": "address"
        },
        {
          "indexed": true,
          "internalType": "address",
          "name": "newOwner",
          "type": "address"
        }
      ],
      "name": "OwnershipPulled",
      "type": "event"
    },
    {
      "anonymous": false,
      "inputs": [
        {
          "indexed": true,
          "internalType": "address",
          "name": "previousOwner",
          "type": "address"
        },
        {
          "indexed": true,
          "internalType": "address",
          "name": "newOwner",
          "type": "address"
        }
      ],
      "name": "OwnershipPushed",
      "type": "event"
    },
    {
      "inputs": [],
      "name": "REQT",
      "outputs": [
        {
          "internalType": "address",
          "name": "",
          "type": "address"
        }
      ],
      "stateMutability": "view",
      "type": "function"
    },
    {
      "inputs": [
        {
          "internalType": "address",
          "name": "_recipient",
          "type": "address"
        }
      ],
      "name": "claim",
      "outputs": [],
      "stateMutability": "nonpayable",
      "type": "function"
    },
    {
      "inputs": [],
      "name": "contractBalance",
      "outputs": [
        {
          "internalType": "uint256",
          "name": "",
          "type": "uint256"
        }
      ],
      "stateMutability": "view",
      "type": "function"
    },
    {
      "inputs": [],
      "name": "distributor",
      "outputs": [
        {
          "internalType": "address",
          "name": "",
          "type": "address"
        }
      ],
      "stateMutability": "view",
      "type": "function"
    },
    {
      "inputs": [],
      "name": "epoch",
      "outputs": [
        {
          "internalType": "uint256",
          "name": "length",
          "type": "uint256"
        },
        {
          "internalType": "uint256",
          "name": "number",
          "type": "uint256"
        },
        {
          "internalType": "uint256",
          "name": "endBlock",
          "type": "uint256"
        },
        {
          "internalType": "uint256",
          "name": "distribute",
          "type": "uint256"
        }
      ],
      "stateMutability": "view",
      "type": "function"
    },
    {
      "inputs": [],
      "name": "forfeit",
      "outputs": [],
      "stateMutability": "nonpayable",
      "type": "function"
    },
    {
      "inputs": [
        {
          "internalType": "uint256",
          "name": "_amount",
          "type": "uint256"
        }
      ],
      "name": "giveLockBonus",
      "outputs": [],
      "stateMutability": "nonpayable",
      "type": "function"
    },
    {
      "inputs": [],
      "name": "index",
      "outputs": [
        {
          "internalType": "uint256",
          "name": "",
          "type": "uint256"
        }
      ],
      "stateMutability": "view",
      "type": "function"
    },
    {
      "inputs": [],
      "name": "locker",
      "outputs": [
        {
          "internalType": "address",
          "name": "",
          "type": "address"
        }
      ],
      "stateMutability": "view",
      "type": "function"
    },
    {
      "inputs": [],
      "name": "policy",
      "outputs": [
        {
          "internalType": "address",
          "name": "",
          "type": "address"
        }
      ],
      "stateMutability": "view",
      "type": "function"
    },
    {
      "inputs": [],
      "name": "pullManagement",
      "outputs": [],
      "stateMutability": "nonpayable",
      "type": "function"
    },
    {
      "inputs": [
        {
          "internalType": "address",
          "name": "newOwner_",
          "type": "address"
        }
      ],
      "name": "pushManagement",
      "outputs": [],
      "stateMutability": "nonpayable",
      "type": "function"
    },
    {
      "inputs": [],
      "name": "rebase",
      "outputs": [],
      "stateMutability": "nonpayable",
      "type": "function"
    },
    {
      "inputs": [],
      "name": "renounceManagement",
      "outputs": [],
      "stateMutability": "nonpayable",
      "type": "function"
    },
    {
      "inputs": [
        {
          "internalType": "uint256",
          "name": "_amount",
          "type": "uint256"
        }
      ],
      "name": "returnLockBonus",
      "outputs": [],
      "stateMutability": "nonpayable",
      "type": "function"
    },
    {
      "inputs": [],
      "name": "sREQT",
      "outputs": [
        {
          "internalType": "address",
          "name": "",
          "type": "address"
        }
      ],
      "stateMutability": "view",
      "type": "function"
    },
    {
      "inputs": [
        {
          "internalType": "enum RequiemStaking.CONTRACTS",
          "name": "_contract",
          "type": "uint8"
        },
        {
          "internalType": "address",
          "name": "_address",
          "type": "address"
        }
      ],
      "name": "setContract",
      "outputs": [],
      "stateMutability": "nonpayable",
      "type": "function"
    },
    {
      "inputs": [
        {
          "internalType": "uint256",
          "name": "_warmupPeriod",
          "type": "uint256"
        }
      ],
      "name": "setWarmup",
      "outputs": [],
      "stateMutability": "nonpayable",
      "type": "function"
    },
    {
      "inputs": [
        {
          "internalType": "uint256",
          "name": "_amount",
          "type": "uint256"
        },
        {
          "internalType": "address",
          "name": "_recipient",
          "type": "address"
        }
      ],
      "name": "stake",
      "outputs": [
        {
          "internalType": "bool",
          "name": "",
          "type": "bool"
        }
      ],
      "stateMutability": "nonpayable",
      "type": "function"
    },
    {
      "inputs": [],
      "name": "toggleDepositLock",
      "outputs": [],
      "stateMutability": "nonpayable",
      "type": "function"
    },
    {
      "inputs": [],
      "name": "totalBonus",
      "outputs": [
        {
          "internalType": "uint256",
          "name": "",
          "type": "uint256"
        }
      ],
      "stateMutability": "view",
      "type": "function"
    },
    {
      "inputs": [
        {
          "internalType": "uint256",
          "name": "_amount",
          "type": "uint256"
        },
        {
          "internalType": "bool",
          "name": "_trigger",
          "type": "bool"
        }
      ],
      "name": "unstake",
      "outputs": [],
      "stateMutability": "nonpayable",
      "type": "function"
    },
    {
      "inputs": [],
      "name": "warmupContract",
      "outputs": [
        {
          "internalType": "address",
          "name": "",
          "type": "address"
        }
      ],
      "stateMutability": "view",
      "type": "function"
    },
    {
      "inputs": [
        {
          "internalType": "address",
          "name": "",
          "type": "address"
        }
      ],
      "name": "warmupInfo",
      "outputs": [
        {
          "internalType": "uint256",
          "name": "deposit",
          "type": "uint256"
        },
        {
          "internalType": "uint256",
          "name": "gons",
          "type": "uint256"
        },
        {
          "internalType": "uint256",
          "name": "expiry",
          "type": "uint256"
        },
        {
          "internalType": "bool",
          "name": "lock",
          "type": "bool"
        }
      ],
      "stateMutability": "view",
      "type": "function"
    },
    {
      "inputs": [],
      "name": "warmupPeriod",
      "outputs": [
        {
          "internalType": "uint256",
          "name": "",
          "type": "uint256"
        }
      ],
      "stateMutability": "view",
      "type": "function"
    }
  ],
  "transactionHash": "0xaaa25ea7d185ef7fecf18a3de0c1c9eb8a288eff5313f9a2c2cbc63f5a585001",
  "args": [
    "0x5eb3Bc0a489C5A8288765d2336659EbCA68FCd00",
    "0xFD471836031dc5108809D173A067e8486B9047A3",
    10000,
    0,
    0
  ],
  "solcInputHash": "8e8c51f4a39062dc152d08c29090b263",
  "bytecode": "0x60c06040523480156200001157600080fd5b5060405162001e8438038062001e84833981016040819052620000349162000109565b600080546001600160a01b0319163390811782556040519091907fea8258f2d9ddb679928cf34b78cf645b7feda9acc828e4dd82d014eaae270eba908290a36001600160a01b0385166200008757600080fd5b6001600160a01b038086166080528416620000a157600080fd5b6001600160a01b0390931660a052604080516080810182528381526020810183905290810184905260006060909101819052600292909255600355600491909155600555506200015c565b80516001600160a01b03811681146200010457600080fd5b919050565b600080600080600060a086880312156200012257600080fd5b6200012d86620000ec565b94506200013d60208701620000ec565b6040870151606088015160809098015196999198509695945092505050565b60805160a051611ca0620001e46000396000818161044b015281816104c601528181610703015281816107fa01528181610ca901528181610df1015281816111f8015281816112ad0152818161141f0152818161162b01526117b70152600081816101ad01528181610b9b0152818161115b0152818161123a01526117350152611ca06000f3fe608060405234801561001057600080fd5b50600436106101a35760003560e01c80638f077b83116100ee578063c9f464ff11610097578063ed4acaa811610071578063ed4acaa81461040b578063f3d86e4a1461042b578063f62ae76a14610433578063fafbbc671461044657600080fd5b8063c9f464ff146103cf578063d7b96d4e146103e2578063deac361a1461040257600080fd5b8063a8dd07dc116100c8578063a8dd07dc1461039e578063af14052c146103a7578063bfe10928146103af57600080fd5b80638f077b8314610310578063900cf0cf146103555780639ebea88c1461038b57600080fd5b806346f68ee9116101505780637acb77571161012a5780637acb7757146102d2578063865e6fd3146102f55780638b7afe2e1461030857600080fd5b806346f68ee91461025d5780635a96ac0a146102705780636746f4c21461027857600080fd5b8063089208d811610181578063089208d81461022c5780631e83409a146102345780632986c0e51461024757600080fd5b806302bb41e5146101a857806303c23670146101f95780630505c8c91461020e575b600080fd5b6101cf7f000000000000000000000000000000000000000000000000000000000000000081565b60405173ffffffffffffffffffffffffffffffffffffffff90911681526020015b60405180910390f35b61020c610207366004611a35565b61046d565b005b60005473ffffffffffffffffffffffffffffffffffffffff166101cf565b61020c6104f2565b61020c610242366004611a77565b6105e7565b61024f6107f6565b6040519081526020016101f0565b61020c61026b366004611a77565b61088c565b61020c610a3d565b6102b0610286366004611a77565b600b6020526000908152604090208054600182015460028301546003909301549192909160ff1684565b60408051948552602085019390935291830152151560608201526080016101f0565b6102e56102e0366004611a99565b610b77565b60405190151581526020016101f0565b61020c610303366004611ac5565b610e24565b61024f611111565b61020c336000908152600b6020526040902060030180547fffffffffffffffffffffffffffffffffffffffffffffffffffffffffffffff00811660ff90911615179055565b60025460035460045460055461036b9392919084565b6040805194855260208501939093529183015260608201526080016101f0565b61020c610399366004611b03565b6111d0565b61024f60085481565b61020c611261565b6006546101cf9073ffffffffffffffffffffffffffffffffffffffff1681565b61020c6103dd366004611a35565b6114d0565b6007546101cf9073ffffffffffffffffffffffffffffffffffffffff1681565b61024f600a5481565b6009546101cf9073ffffffffffffffffffffffffffffffffffffffff1681565b61020c611556565b61020c610441366004611a35565b61175e565b6101cf7f000000000000000000000000000000000000000000000000000000000000000081565b60075473ffffffffffffffffffffffffffffffffffffffff16331461049157600080fd5b80600860008282546104a39190611b62565b90915550506007546104ef9073ffffffffffffffffffffffffffffffffffffffff7f000000000000000000000000000000000000000000000000000000000000000081169116836117e1565b50565b60005473ffffffffffffffffffffffffffffffffffffffff163314610578576040517f08c379a000000000000000000000000000000000000000000000000000000000815260206004820181905260248201527f4f776e61626c653a2063616c6c6572206973206e6f7420746865206f776e657260448201526064015b60405180910390fd5b6000805460405173ffffffffffffffffffffffffffffffffffffffff909116907fea8258f2d9ddb679928cf34b78cf645b7feda9acc828e4dd82d014eaae270eba908390a3600080547fffffffffffffffffffffffff0000000000000000000000000000000000000000169055565b73ffffffffffffffffffffffffffffffffffffffff81166000908152600b6020908152604091829020825160808101845281548152600182015492810192909252600281015492820183905260039081015460ff1615156060830152549091118015906106575750604081015115155b156107f25773ffffffffffffffffffffffffffffffffffffffff8281166000908152600b60209081526040808320838155600181018490556002810193909355600390920180547fffffffffffffffffffffffffffffffffffffffffffffffffffffffffffffff001690556009549084015191517f7965d56d000000000000000000000000000000000000000000000000000000008152600481019290925282169163c3a2a6659185917f00000000000000000000000000000000000000000000000000000000000000001690637965d56d90602401602060405180830381865afa15801561074a573d6000803e3d6000fd5b505050506040513d601f19601f8201168201806040525081019061076e9190611b7a565b6040517fffffffff0000000000000000000000000000000000000000000000000000000060e085901b16815273ffffffffffffffffffffffffffffffffffffffff90921660048301526024820152604401600060405180830381600087803b1580156107d957600080fd5b505af11580156107ed573d6000803e3d6000fd5b505050505b5050565b60007f000000000000000000000000000000000000000000000000000000000000000073ffffffffffffffffffffffffffffffffffffffff16632986c0e56040518163ffffffff1660e01b8152600401602060405180830381865afa158015610863573d6000803e3d6000fd5b505050506040513d601f19601f820116820180604052508101906108879190611b7a565b905090565b60005473ffffffffffffffffffffffffffffffffffffffff16331461090d576040517f08c379a000000000000000000000000000000000000000000000000000000000815260206004820181905260248201527f4f776e61626c653a2063616c6c6572206973206e6f7420746865206f776e6572604482015260640161056f565b73ffffffffffffffffffffffffffffffffffffffff81166109b0576040517f08c379a000000000000000000000000000000000000000000000000000000000815260206004820152602660248201527f4f776e61626c653a206e6577206f776e657220697320746865207a65726f206160448201527f6464726573730000000000000000000000000000000000000000000000000000606482015260840161056f565b6000805460405173ffffffffffffffffffffffffffffffffffffffff808516939216917fea8258f2d9ddb679928cf34b78cf645b7feda9acc828e4dd82d014eaae270eba91a3600180547fffffffffffffffffffffffff00000000000000000000000000000000000000001673ffffffffffffffffffffffffffffffffffffffff92909216919091179055565b60015473ffffffffffffffffffffffffffffffffffffffff163314610ae4576040517f08c379a000000000000000000000000000000000000000000000000000000000815260206004820152602260248201527f4f776e61626c653a206d757374206265206e6577206f776e657220746f20707560448201527f6c6c000000000000000000000000000000000000000000000000000000000000606482015260840161056f565b6001546000805460405173ffffffffffffffffffffffffffffffffffffffff93841693909116917faa151555690c956fc3ea32f106bb9f119b5237a061eaa8557cff3e51e3792c8d91a3600154600080547fffffffffffffffffffffffff00000000000000000000000000000000000000001673ffffffffffffffffffffffffffffffffffffffff909216919091179055565b6000610b81611261565b610bc373ffffffffffffffffffffffffffffffffffffffff7f0000000000000000000000000000000000000000000000000000000000000000163330866118ba565b73ffffffffffffffffffffffffffffffffffffffff82166000908152600b602090815260409182902082516080810184528154815260018201549281019290925260028101549282019290925260039091015460ff161580156060830152610c87576040517f08c379a000000000000000000000000000000000000000000000000000000000815260206004820152601f60248201527f4465706f7369747320666f72206163636f756e7420617265206c6f636b656400604482015260640161056f565b6040518060800160405280858360000151610ca29190611b62565b81526020017f000000000000000000000000000000000000000000000000000000000000000073ffffffffffffffffffffffffffffffffffffffff16631bd39674876040518263ffffffff1660e01b8152600401610d0291815260200190565b602060405180830381865afa158015610d1f573d6000803e3d6000fd5b505050506040513d601f19601f82011682018060405250810190610d439190611b7a565b8360200151610d529190611b62565b8152602001600a54600260010154610d6a9190611b62565b81526000602091820181905273ffffffffffffffffffffffffffffffffffffffff8681168252600b835260409182902084518155928401516001840155908301516002830155606090920151600390910180547fffffffffffffffffffffffffffffffffffffffffffffffffffffffffffffff0016911515919091179055600954610e1a917f000000000000000000000000000000000000000000000000000000000000000081169116866117e1565b5060019392505050565b60005473ffffffffffffffffffffffffffffffffffffffff163314610ea5576040517f08c379a000000000000000000000000000000000000000000000000000000000815260206004820181905260248201527f4f776e61626c653a2063616c6c6572206973206e6f7420746865206f776e6572604482015260640161056f565b6000826002811115610eb957610eb9611b93565b1415610f05576006805473ffffffffffffffffffffffffffffffffffffffff83167fffffffffffffffffffffffff00000000000000000000000000000000000000009091161790555050565b6001826002811115610f1957610f19611b93565b141561100b5760095473ffffffffffffffffffffffffffffffffffffffff1615610fc5576040517f08c379a000000000000000000000000000000000000000000000000000000000815260206004820152602360248201527f5761726d75702063616e6e6f7420626520736574206d6f7265207468616e206f60448201527f6e63650000000000000000000000000000000000000000000000000000000000606482015260840161056f565b6009805473ffffffffffffffffffffffffffffffffffffffff83167fffffffffffffffffffffffff00000000000000000000000000000000000000009091161790555050565b600282600281111561101f5761101f611b93565b14156107f25760075473ffffffffffffffffffffffffffffffffffffffff16156110cb576040517f08c379a000000000000000000000000000000000000000000000000000000000815260206004820152602360248201527f4c6f636b65722063616e6e6f7420626520736574206d6f7265207468616e206f60448201527f6e63650000000000000000000000000000000000000000000000000000000000606482015260840161056f565b6007805473ffffffffffffffffffffffffffffffffffffffff83167fffffffffffffffffffffffff00000000000000000000000000000000000000009091161790555050565b6008546040517f70a082310000000000000000000000000000000000000000000000000000000081523060048201526000919073ffffffffffffffffffffffffffffffffffffffff7f000000000000000000000000000000000000000000000000000000000000000016906370a0823190602401602060405180830381865afa1580156111a2573d6000803e3d6000fd5b505050506040513d601f19601f820116820180604052508101906111c69190611b7a565b6108879190611b62565b80156111de576111de611261565b61122073ffffffffffffffffffffffffffffffffffffffff7f0000000000000000000000000000000000000000000000000000000000000000163330856118ba565b6107f273ffffffffffffffffffffffffffffffffffffffff7f00000000000000000000000000000000000000000000000000000000000000001633846117e1565b60045443106114ce576005546003546040517f058ecdb400000000000000000000000000000000000000000000000000000000815273ffffffffffffffffffffffffffffffffffffffff7f0000000000000000000000000000000000000000000000000000000000000000169263058ecdb4926112e992600401918252602082015260400190565b6020604051808303816000875af1158015611308573d6000803e3d6000fd5b505050506040513d601f19601f8201168201806040525081019061132c9190611b7a565b5060025460048054600090611342908490611b62565b90915550506003805490600061135783611bc2565b909155505060065473ffffffffffffffffffffffffffffffffffffffff161561140f57600660009054906101000a900473ffffffffffffffffffffffffffffffffffffffff1673ffffffffffffffffffffffffffffffffffffffff1663e4fc6b6d6040518163ffffffff1660e01b81526004016020604051808303816000875af11580156113e9573d6000803e3d6000fd5b505050506040513d601f19601f8201168201806040525081019061140d9190611bfb565b505b6000611419611111565b905060007f000000000000000000000000000000000000000000000000000000000000000073ffffffffffffffffffffffffffffffffffffffff16639358928b6040518163ffffffff1660e01b8152600401602060405180830381865afa158015611488573d6000803e3d6000fd5b505050506040513d601f19601f820116820180604052508101906114ac9190611b7a565b90508082116114be5760006005555050565b6114c88183611c18565b60055550505b565b60005473ffffffffffffffffffffffffffffffffffffffff163314611551576040517f08c379a000000000000000000000000000000000000000000000000000000000815260206004820181905260248201527f4f776e61626c653a2063616c6c6572206973206e6f7420746865206f776e6572604482015260640161056f565b600a55565b336000818152600b602081815260408084208151608081018352815481526001820180548286019081526002840180548487015260038501805460ff8116151560608701529a8a529790965292879055869055949092557fffffffffffffffffffffffffffffffffffffffffffffffffffffffffffffff00909416909155600954905192517f7965d56d0000000000000000000000000000000000000000000000000000000081526004810193909352909173ffffffffffffffffffffffffffffffffffffffff9182169163c3a2a6659130917f00000000000000000000000000000000000000000000000000000000000000001690637965d56d90602401602060405180830381865afa158015611672573d6000803e3d6000fd5b505050506040513d601f19601f820116820180604052508101906116969190611b7a565b6040517fffffffff0000000000000000000000000000000000000000000000000000000060e085901b16815273ffffffffffffffffffffffffffffffffffffffff90921660048301526024820152604401600060405180830381600087803b15801561170157600080fd5b505af1158015611715573d6000803e3d6000fd5b505082516104ef925073ffffffffffffffffffffffffffffffffffffffff7f000000000000000000000000000000000000000000000000000000000000000016915033906117e1565b60075473ffffffffffffffffffffffffffffffffffffffff16331461178257600080fd5b80600860008282546117949190611c18565b90915550506007546104ef9073ffffffffffffffffffffffffffffffffffffffff7f00000000000000000000000000000000000000000000000000000000000000008116911630846118ba565b60405173ffffffffffffffffffffffffffffffffffffffff83166024820152604481018290526118b59084907fa9059cbb00000000000000000000000000000000000000000000000000000000906064015b604080517fffffffffffffffffffffffffffffffffffffffffffffffffffffffffffffffe08184030181529190526020810180517bffffffffffffffffffffffffffffffffffffffffffffffffffffffff167fffffffff000000000000000000000000000000000000000000000000000000009093169290921790915261191e565b505050565b60405173ffffffffffffffffffffffffffffffffffffffff808516602483015283166044820152606481018290526119189085907f23b872dd0000000000000000000000000000000000000000000000000000000090608401611833565b50505050565b6000808373ffffffffffffffffffffffffffffffffffffffff16836040516119469190611c2f565b6000604051808303816000865af19150503d8060008114611983576040519150601f19603f3d011682016040523d82523d6000602084013e611988565b606091505b509150915060008214156119a0573d6000803e3d6000fd5b6119188151600014806119c25750818060200190518101906119c29190611bfb565b6101a2816107f2577f08c379a000000000000000000000000000000000000000000000000000000000600090815260206004526007602452600a808304818104828106603090810160101b848706949093060160081b929092010166524551230000300160c81b6044526107f291606490fd5b600060208284031215611a4757600080fd5b5035919050565b803573ffffffffffffffffffffffffffffffffffffffff81168114611a7257600080fd5b919050565b600060208284031215611a8957600080fd5b611a9282611a4e565b9392505050565b60008060408385031215611aac57600080fd5b82359150611abc60208401611a4e565b90509250929050565b60008060408385031215611ad857600080fd5b823560038110611ae757600080fd5b9150611abc60208401611a4e565b80151581146104ef57600080fd5b60008060408385031215611b1657600080fd5b823591506020830135611b2881611af5565b809150509250929050565b7f4e487b7100000000000000000000000000000000000000000000000000000000600052601160045260246000fd5b60008219821115611b7557611b75611b33565b500190565b600060208284031215611b8c57600080fd5b5051919050565b7f4e487b7100000000000000000000000000000000000000000000000000000000600052602160045260246000fd5b60007fffffffffffffffffffffffffffffffffffffffffffffffffffffffffffffffff821415611bf457611bf4611b33565b5060010190565b600060208284031215611c0d57600080fd5b8151611a9281611af5565b600082821015611c2a57611c2a611b33565b500390565b6000825160005b81811015611c505760208186018101518583015201611c36565b81811115611c5f576000828501525b50919091019291505056fea264697066735822122070aab47418c42e37207b27c73332da7eef944a8fc678e0a850891504bf93caca64736f6c634300080a0033",
  "devdoc": {
    "kind": "dev",
    "methods": {
      "claim(address)": {
        "params": {
          "_recipient": "address"
        }
      },
      "contractBalance()": {
        "returns": {
          "_0": "uint"
        }
      },
      "giveLockBonus(uint256)": {
        "params": {
          "_amount": "uint"
        }
      },
      "index()": {
        "returns": {
          "_0": "uint"
        }
      },
      "returnLockBonus(uint256)": {
        "params": {
          "_amount": "uint"
        }
      },
      "setContract(uint8,address)": {
        "params": {
          "_contract": "address"
        }
      },
      "setWarmup(uint256)": {
        "params": {
          "_warmupPeriod": "uint"
        }
      },
      "stake(uint256,address)": {
        "params": {
          "_amount": "uint"
        },
        "returns": {
          "_0": "bool"
        }
      },
      "unstake(uint256,bool)": {
        "params": {
          "_amount": "uint",
          "_trigger": "bool"
        }
      }
    },
    "version": 1
  },
  "userdoc": {
    "kind": "user",
    "methods": {
      "claim(address)": {
        "notice": "retrieve sREQT from warmup"
      },
      "contractBalance()": {
        "notice": "returns contract REQT holdings, including bonuses provided"
      },
      "forfeit()": {
        "notice": "forfeit sREQT in warmup and retrieve REQT"
      },
      "giveLockBonus(uint256)": {
        "notice": "provide bonus to locked staking contract"
      },
      "index()": {
        "notice": "returns the sREQT index, which tracks rebase growth"
      },
      "rebase()": {
        "notice": "trigger rebase if epoch over"
      },
      "returnLockBonus(uint256)": {
        "notice": "reclaim bonus from locked staking contract"
      },
      "setContract(uint8,address)": {
        "notice": "sets the contract address for LP staking"
      },
      "setWarmup(uint256)": {
        "notice": "set warmup period for new stakers"
      },
      "stake(uint256,address)": {
        "notice": "stake REQT to enter warmup"
      },
      "toggleDepositLock()": {
        "notice": "prevent new deposits to address (protection from malicious activity)"
      },
      "unstake(uint256,bool)": {
        "notice": "redeem sREQT for REQT"
      }
    },
    "version": 1
  },
  "storageLayout": {
    "storage": [
      {
        "astId": 9022,
        "contract": "contracts/RequiemStaking.sol:RequiemStaking",
        "label": "_owner",
        "offset": 0,
        "slot": "0",
        "type": "t_address"
      },
      {
        "astId": 9024,
        "contract": "contracts/RequiemStaking.sol:RequiemStaking",
        "label": "_newOwner",
        "offset": 0,
        "slot": "1",
        "type": "t_address"
      },
      {
        "astId": 4500,
        "contract": "contracts/RequiemStaking.sol:RequiemStaking",
        "label": "epoch",
        "offset": 0,
        "slot": "2",
        "type": "t_struct(Epoch)4497_storage"
      },
      {
        "astId": 4502,
        "contract": "contracts/RequiemStaking.sol:RequiemStaking",
        "label": "distributor",
        "offset": 0,
        "slot": "6",
        "type": "t_address"
      },
      {
        "astId": 4504,
        "contract": "contracts/RequiemStaking.sol:RequiemStaking",
        "label": "locker",
        "offset": 0,
        "slot": "7",
        "type": "t_address"
      },
      {
        "astId": 4506,
        "contract": "contracts/RequiemStaking.sol:RequiemStaking",
        "label": "totalBonus",
        "offset": 0,
        "slot": "8",
        "type": "t_uint256"
      },
      {
        "astId": 4508,
        "contract": "contracts/RequiemStaking.sol:RequiemStaking",
        "label": "warmupContract",
        "offset": 0,
        "slot": "9",
        "type": "t_address"
      },
      {
        "astId": 4510,
        "contract": "contracts/RequiemStaking.sol:RequiemStaking",
        "label": "warmupPeriod",
        "offset": 0,
        "slot": "10",
        "type": "t_uint256"
      },
      {
        "astId": 4573,
        "contract": "contracts/RequiemStaking.sol:RequiemStaking",
        "label": "warmupInfo",
        "offset": 0,
        "slot": "11",
        "type": "t_mapping(t_address,t_struct(Claim)4568_storage)"
      }
    ],
    "types": {
      "t_address": {
        "encoding": "inplace",
        "label": "address",
        "numberOfBytes": "20"
      },
      "t_bool": {
        "encoding": "inplace",
        "label": "bool",
        "numberOfBytes": "1"
      },
      "t_mapping(t_address,t_struct(Claim)4568_storage)": {
        "encoding": "mapping",
        "key": "t_address",
        "label": "mapping(address => struct RequiemStaking.Claim)",
        "numberOfBytes": "32",
        "value": "t_struct(Claim)4568_storage"
      },
      "t_struct(Claim)4568_storage": {
        "encoding": "inplace",
        "label": "struct RequiemStaking.Claim",
        "members": [
          {
            "astId": 4561,
            "contract": "contracts/RequiemStaking.sol:RequiemStaking",
            "label": "deposit",
            "offset": 0,
            "slot": "0",
            "type": "t_uint256"
          },
          {
            "astId": 4563,
            "contract": "contracts/RequiemStaking.sol:RequiemStaking",
            "label": "gons",
            "offset": 0,
            "slot": "1",
            "type": "t_uint256"
          },
          {
            "astId": 4565,
            "contract": "contracts/RequiemStaking.sol:RequiemStaking",
            "label": "expiry",
            "offset": 0,
            "slot": "2",
            "type": "t_uint256"
          },
          {
            "astId": 4567,
            "contract": "contracts/RequiemStaking.sol:RequiemStaking",
            "label": "lock",
            "offset": 0,
            "slot": "3",
            "type": "t_bool"
          }
        ],
        "numberOfBytes": "128"
      },
      "t_struct(Epoch)4497_storage": {
        "encoding": "inplace",
        "label": "struct RequiemStaking.Epoch",
        "members": [
          {
            "astId": 4490,
            "contract": "contracts/RequiemStaking.sol:RequiemStaking",
            "label": "length",
            "offset": 0,
            "slot": "0",
            "type": "t_uint256"
          },
          {
            "astId": 4492,
            "contract": "contracts/RequiemStaking.sol:RequiemStaking",
            "label": "number",
            "offset": 0,
            "slot": "1",
            "type": "t_uint256"
          },
          {
            "astId": 4494,
            "contract": "contracts/RequiemStaking.sol:RequiemStaking",
            "label": "endBlock",
            "offset": 0,
            "slot": "2",
            "type": "t_uint256"
          },
          {
            "astId": 4496,
            "contract": "contracts/RequiemStaking.sol:RequiemStaking",
            "label": "distribute",
            "offset": 0,
            "slot": "3",
            "type": "t_uint256"
          }
        ],
        "numberOfBytes": "128"
      },
      "t_uint256": {
        "encoding": "inplace",
        "label": "uint256",
        "numberOfBytes": "32"
      }
    }
  }
}