{
  "address": "0x851356ae760d987E095750cCeb3bC6014560891C",
  "abi": [
    {
      "inputs": [
        {
          "internalType": "address",
          "name": "_REQT",
          "type": "address"
        }
      ],
      "stateMutability": "nonpayable",
      "type": "constructor"
    },
    {
      "inputs": [],
      "name": "REQT",
      "outputs": [
        {
          "internalType": "address",
          "name": "",
          "type": "address"
        }
      ],
      "stateMutability": "view",
      "type": "function"
    },
    {
      "inputs": [
        {
          "internalType": "address",
          "name": "_pair",
          "type": "address"
        }
      ],
      "name": "getKValue",
      "outputs": [
        {
          "internalType": "uint256",
          "name": "k_",
          "type": "uint256"
        }
      ],
      "stateMutability": "view",
      "type": "function"
    },
    {
      "inputs": [
        {
          "internalType": "address",
          "name": "_pair",
          "type": "address"
        }
      ],
      "name": "getTotalValue",
      "outputs": [
        {
          "internalType": "uint256",
          "name": "_value",
          "type": "uint256"
        }
      ],
      "stateMutability": "view",
      "type": "function"
    },
    {
      "inputs": [
        {
          "internalType": "address",
          "name": "_pair",
          "type": "address"
        }
      ],
      "name": "markdown",
      "outputs": [
        {
          "internalType": "uint256",
          "name": "",
          "type": "uint256"
        }
      ],
      "stateMutability": "view",
      "type": "function"
    },
    {
      "inputs": [
        {
          "internalType": "address",
          "name": "_pair",
          "type": "address"
        },
        {
          "internalType": "uint256",
          "name": "amount_",
          "type": "uint256"
        }
      ],
      "name": "valuation",
      "outputs": [
        {
          "internalType": "uint256",
          "name": "_value",
          "type": "uint256"
        }
      ],
      "stateMutability": "view",
      "type": "function"
    }
  ],
  "transactionHash": "0xf67183503f774a812aca6dec71cd402514717079cfccbfc450a625f4f66b9926",
  "args": [
    "0x610178dA211FEF7D417bC0e6FeD39F05609AD788"
  ],
  "solcInputHash": "0f20472ed843c15e57cd0f08d39ae87b",
  "bytecode": "0x60a060405234801561001057600080fd5b50604051610ca6380380610ca683398101604081905261002f91610053565b6001600160a01b03811661004257600080fd5b6001600160a01b0316608052610083565b60006020828403121561006557600080fd5b81516001600160a01b038116811461007c57600080fd5b9392505050565b608051610bfb6100ab6000396000818160710152818161019a01526102480152610bfb6000f3fe608060405234801561001057600080fd5b50600436106100675760003560e01c80634249719f116100505780634249719f146100d1578063490084ef146100e457806368637549146100f757600080fd5b806302bb41e51461006c57806332da80a3146100b0575b600080fd5b6100937f000000000000000000000000000000000000000000000000000000000000000081565b6040516001600160a01b0390911681526020015b60405180910390f35b6100c36100be366004610930565b61010a565b6040519081526020016100a7565b6100c36100df36600461094d565b6102fb565b6100c36100f2366004610930565b610394565b6100c3610105366004610930565b61064d565b6000806000836001600160a01b0316630902f1ac6040518163ffffffff1660e01b8152600401606060405180830381865afa15801561014d573d6000803e3d6000fd5b505050506040513d601f19601f820116820180604052508101906101719190610997565b506dffffffffffffffffffffffffffff1691506dffffffffffffffffffffffffffff16915060007f00000000000000000000000000000000000000000000000000000000000000006001600160a01b0316856001600160a01b0316630dfe16816040518163ffffffff1660e01b8152600401602060405180830381865afa158015610200573d6000803e3d6000fd5b505050506040513d601f19601f8201168201806040525081019061022491906109e7565b6001600160a01b0316141561023a57508061023d565b50815b6102468561064d565b7f00000000000000000000000000000000000000000000000000000000000000006001600160a01b031663313ce5676040518163ffffffff1660e01b8152600401602060405180830381865afa1580156102a4573d6000803e3d6000fd5b505050506040513d601f19601f820116820180604052508101906102c89190610a04565b6102d390600a610b21565b6102de906002610b30565b6102e89083610b30565b6102f29190610b4f565b95945050505050565b6000806103078461064d565b90506000846001600160a01b03166318160ddd6040518163ffffffff1660e01b8152600401602060405180830381865afa158015610349573d6000803e3d6000fd5b505050506040513d601f19601f8201168201806040525081019061036d9190610b71565b9050670de0b6b3a764000061038a6103858684610671565b6107d3565b6102e89084610b30565b600080826001600160a01b0316630dfe16816040518163ffffffff1660e01b8152600401602060405180830381865afa1580156103d5573d6000803e3d6000fd5b505050506040513d601f19601f820116820180604052508101906103f991906109e7565b6001600160a01b031663313ce5676040518163ffffffff1660e01b8152600401602060405180830381865afa158015610436573d6000803e3d6000fd5b505050506040513d601f19601f8201168201806040525081019061045a9190610a04565b60ff1690506000836001600160a01b031663d21220a76040518163ffffffff1660e01b8152600401602060405180830381865afa15801561049f573d6000803e3d6000fd5b505050506040513d601f19601f820116820180604052508101906104c391906109e7565b6001600160a01b031663313ce5676040518163ffffffff1660e01b8152600401602060405180830381865afa158015610500573d6000803e3d6000fd5b505050506040513d601f19601f820116820180604052508101906105249190610a04565b60ff1690506000846001600160a01b031663313ce5676040518163ffffffff1660e01b8152600401602060405180830381865afa158015610569573d6000803e3d6000fd5b505050506040513d601f19601f8201168201806040525081019061058d9190610a04565b60ff1661059a8385610b8a565b6105a49190610ba2565b9050600080866001600160a01b0316630902f1ac6040518163ffffffff1660e01b8152600401606060405180830381865afa1580156105e7573d6000803e3d6000fd5b505050506040513d601f19601f8201168201806040525081019061060b9190610997565b506dffffffffffffffffffffffffffff918216935016905061062e83600a610bb9565b6106388284610b30565b6106429190610b4f565b979650505050505050565b600061066061065b83610394565b6107f3565b61066b906002610b30565b92915050565b604080516020810190915260008152600082116106fb5760405162461bcd60e51b815260206004820152602660248201527f4669786564506f696e743a3a6672616374696f6e3a206469766973696f6e206260448201527f79207a65726f000000000000000000000000000000000000000000000000000060648201526084015b60405180910390fd5b82610715575060408051602081019091526000815261066b565b71ffffffffffffffffffffffffffffffffffff83116107b757600061073e83607086901b610b4f565b90506001600160e01b038111156107975760405162461bcd60e51b815260206004820152601e60248201527f4669786564506f696e743a3a6672616374696f6e3a206f766572666c6f77000060448201526064016106f2565b6040518060200160405280826001600160e01b031681525091505061066b565b600061073e846e01000000000000000000000000000085610863565b805160009061066b906612725dd1d243ab906001600160e01b0316610b4f565b60006003821115610854575080600061080d600283610b4f565b610818906001610b8a565b90505b8181101561084e579050806002816108338186610b4f565b61083d9190610b8a565b6108479190610b4f565b905061081b565b50919050565b811561085e575060015b919050565b60008080600019858709858702925082811083820303915050806000141561089d576000841161089257600080fd5b508290049050610911565b8084116108a957600080fd5b600084868809851960019081018716968790049682860381900495909211909303600082900391909104909201919091029190911760038402600290811880860282030280860282030280860282030280860282030280860282030280860290910302029150505b9392505050565b6001600160a01b038116811461092d57600080fd5b50565b60006020828403121561094257600080fd5b813561091181610918565b6000806040838503121561096057600080fd5b823561096b81610918565b946020939093013593505050565b80516dffffffffffffffffffffffffffff8116811461085e57600080fd5b6000806000606084860312156109ac57600080fd5b6109b584610979565b92506109c360208501610979565b9150604084015163ffffffff811681146109dc57600080fd5b809150509250925092565b6000602082840312156109f957600080fd5b815161091181610918565b600060208284031215610a1657600080fd5b815160ff8116811461091157600080fd5b634e487b7160e01b600052601160045260246000fd5b600181815b80851115610a78578160001904821115610a5e57610a5e610a27565b80851615610a6b57918102915b93841c9390800290610a42565b509250929050565b600082610a8f5750600161066b565b81610a9c5750600061066b565b8160018114610ab25760028114610abc57610ad8565b600191505061066b565b60ff841115610acd57610acd610a27565b50506001821b61066b565b5060208310610133831016604e8410600b8410161715610afb575081810a61066b565b610b058383610a3d565b8060001904821115610b1957610b19610a27565b029392505050565b600061091160ff841683610a80565b6000816000190483118215151615610b4a57610b4a610a27565b500290565b600082610b6c57634e487b7160e01b600052601260045260246000fd5b500490565b600060208284031215610b8357600080fd5b5051919050565b60008219821115610b9d57610b9d610a27565b500190565b600082821015610bb457610bb4610a27565b500390565b60006109118383610a8056fea26469706673582212202dea00de795edd434535bf0fd4eb06fa8d38b1b92a764501be2551aea92fe4ba64736f6c634300080b0033",
  "devdoc": {
    "kind": "dev",
    "methods": {},
    "version": 1
  },
  "userdoc": {
    "kind": "user",
    "methods": {},
    "notice": "Bonding calculator for weighted pairs",
    "version": 1
  },
  "storageLayout": {
    "storage": [],
    "types": null
  }
}