{
  "address": "0xDc64a140Aa3E981100a9becA4E685f962f0cF6C9",
  "abi": [
    {
      "inputs": [
        {
          "internalType": "address",
          "name": "_factory",
          "type": "address"
        },
        {
          "internalType": "address",
          "name": "_WETH",
          "type": "address"
        }
      ],
      "stateMutability": "nonpayable",
      "type": "constructor"
    },
    {
      "anonymous": false,
      "inputs": [
        {
          "indexed": false,
          "internalType": "address",
          "name": "pair",
          "type": "address"
        },
        {
          "indexed": false,
          "internalType": "uint256",
          "name": "amountOut",
          "type": "uint256"
        },
        {
          "indexed": false,
          "internalType": "address",
          "name": "output",
          "type": "address"
        }
      ],
      "name": "Exchange",
      "type": "event"
    },
    {
      "inputs": [],
      "name": "WETH",
      "outputs": [
        {
          "internalType": "address",
          "name": "",
          "type": "address"
        }
      ],
      "stateMutability": "view",
      "type": "function"
    },
    {
      "inputs": [],
      "name": "factory",
      "outputs": [
        {
          "internalType": "address",
          "name": "",
          "type": "address"
        }
      ],
      "stateMutability": "view",
      "type": "function"
    },
    {
      "inputs": [],
      "name": "formula",
      "outputs": [
        {
          "internalType": "address",
          "name": "",
          "type": "address"
        }
      ],
      "stateMutability": "view",
      "type": "function"
    },
    {
      "inputs": [
        {
          "components": [
            {
              "internalType": "address",
              "name": "pool",
              "type": "address"
            },
            {
              "internalType": "address",
              "name": "tokenIn",
              "type": "address"
            },
            {
              "internalType": "address",
              "name": "tokenOut",
              "type": "address"
            },
            {
              "internalType": "uint256",
              "name": "swapAmount",
              "type": "uint256"
            },
            {
              "internalType": "uint256",
              "name": "limitReturnAmount",
              "type": "uint256"
            },
            {
              "internalType": "uint256",
              "name": "maxPrice",
              "type": "uint256"
            }
          ],
          "internalType": "struct IRequiemQRouter.Swap[][]",
          "name": "swapSequences",
          "type": "tuple[][]"
        },
        {
          "internalType": "address",
          "name": "tokenIn",
          "type": "address"
        },
        {
          "internalType": "address",
          "name": "tokenOut",
          "type": "address"
        },
        {
          "internalType": "uint256",
          "name": "totalAmountIn",
          "type": "uint256"
        },
        {
          "internalType": "uint256",
          "name": "minTotalAmountOut",
          "type": "uint256"
        },
        {
          "internalType": "uint256",
          "name": "deadline",
          "type": "uint256"
        }
      ],
      "name": "multihopBatchSwapExactIn",
      "outputs": [
        {
          "internalType": "uint256",
          "name": "totalAmountOut",
          "type": "uint256"
        }
      ],
      "stateMutability": "payable",
      "type": "function"
    },
    {
      "inputs": [
        {
          "components": [
            {
              "internalType": "address",
              "name": "pool",
              "type": "address"
            },
            {
              "internalType": "address",
              "name": "tokenIn",
              "type": "address"
            },
            {
              "internalType": "address",
              "name": "tokenOut",
              "type": "address"
            },
            {
              "internalType": "uint256",
              "name": "swapAmount",
              "type": "uint256"
            },
            {
              "internalType": "uint256",
              "name": "limitReturnAmount",
              "type": "uint256"
            },
            {
              "internalType": "uint256",
              "name": "maxPrice",
              "type": "uint256"
            }
          ],
          "internalType": "struct IRequiemQRouter.Swap[][]",
          "name": "swapSequences",
          "type": "tuple[][]"
        },
        {
          "internalType": "address",
          "name": "tokenIn",
          "type": "address"
        },
        {
          "internalType": "address",
          "name": "tokenOut",
          "type": "address"
        },
        {
          "internalType": "uint256",
          "name": "maxTotalAmountIn",
          "type": "uint256"
        },
        {
          "internalType": "uint256",
          "name": "deadline",
          "type": "uint256"
        }
      ],
      "name": "multihopBatchSwapExactOut",
      "outputs": [
        {
          "internalType": "uint256",
          "name": "totalAmountIn",
          "type": "uint256"
        }
      ],
      "stateMutability": "payable",
      "type": "function"
    },
    {
      "inputs": [
        {
          "internalType": "address[]",
          "name": "pools",
          "type": "address[]"
        },
        {
          "internalType": "address[]",
          "name": "tokens",
          "type": "address[]"
        },
        {
          "internalType": "uint256",
          "name": "amountOut",
          "type": "uint256"
        },
        {
          "internalType": "address",
          "name": "to",
          "type": "address"
        },
        {
          "internalType": "uint256",
          "name": "deadline",
          "type": "uint256"
        }
      ],
      "name": "onSwapETHForExactTokens",
      "outputs": [
        {
          "internalType": "uint256[]",
          "name": "amounts",
          "type": "uint256[]"
        }
      ],
      "stateMutability": "payable",
      "type": "function"
    },
    {
      "inputs": [
        {
          "internalType": "address[]",
          "name": "pools",
          "type": "address[]"
        },
        {
          "internalType": "address[]",
          "name": "tokens",
          "type": "address[]"
        },
        {
          "internalType": "uint256",
          "name": "amountOutMin",
          "type": "uint256"
        },
        {
          "internalType": "address",
          "name": "to",
          "type": "address"
        },
        {
          "internalType": "uint256",
          "name": "deadline",
          "type": "uint256"
        }
      ],
      "name": "onSwapExactETHForTokens",
      "outputs": [
        {
          "internalType": "uint256",
          "name": "amountLast",
          "type": "uint256"
        }
      ],
      "stateMutability": "payable",
      "type": "function"
    },
    {
      "inputs": [
        {
          "internalType": "address[]",
          "name": "pools",
          "type": "address[]"
        },
        {
          "internalType": "address[]",
          "name": "tokens",
          "type": "address[]"
        },
        {
          "internalType": "uint256",
          "name": "amountIn",
          "type": "uint256"
        },
        {
          "internalType": "uint256",
          "name": "amountOutMin",
          "type": "uint256"
        },
        {
          "internalType": "address",
          "name": "to",
          "type": "address"
        },
        {
          "internalType": "uint256",
          "name": "deadline",
          "type": "uint256"
        }
      ],
      "name": "onSwapExactTokensForETH",
      "outputs": [
        {
          "internalType": "uint256",
          "name": "amountLast",
          "type": "uint256"
        }
      ],
      "stateMutability": "nonpayable",
      "type": "function"
    },
    {
      "inputs": [
        {
          "internalType": "address[]",
          "name": "pools",
          "type": "address[]"
        },
        {
          "internalType": "address[]",
          "name": "tokens",
          "type": "address[]"
        },
        {
          "internalType": "uint256",
          "name": "amountIn",
          "type": "uint256"
        },
        {
          "internalType": "uint256",
          "name": "amountOutMin",
          "type": "uint256"
        },
        {
          "internalType": "address",
          "name": "to",
          "type": "address"
        },
        {
          "internalType": "uint256",
          "name": "deadline",
          "type": "uint256"
        }
      ],
      "name": "onSwapExactTokensForTokens",
      "outputs": [
        {
          "internalType": "uint256",
          "name": "amountLast",
          "type": "uint256"
        }
      ],
      "stateMutability": "nonpayable",
      "type": "function"
    },
    {
      "inputs": [
        {
          "internalType": "address[]",
          "name": "pools",
          "type": "address[]"
        },
        {
          "internalType": "address[]",
          "name": "tokens",
          "type": "address[]"
        },
        {
          "internalType": "uint256",
          "name": "amountOut",
          "type": "uint256"
        },
        {
          "internalType": "uint256",
          "name": "amountInMax",
          "type": "uint256"
        },
        {
          "internalType": "address",
          "name": "to",
          "type": "address"
        },
        {
          "internalType": "uint256",
          "name": "deadline",
          "type": "uint256"
        }
      ],
      "name": "onSwapTokensForExactETH",
      "outputs": [
        {
          "internalType": "uint256[]",
          "name": "amounts",
          "type": "uint256[]"
        }
      ],
      "stateMutability": "nonpayable",
      "type": "function"
    },
    {
      "inputs": [
        {
          "internalType": "address[]",
          "name": "pools",
          "type": "address[]"
        },
        {
          "internalType": "address[]",
          "name": "tokens",
          "type": "address[]"
        },
        {
          "internalType": "uint256",
          "name": "amountOut",
          "type": "uint256"
        },
        {
          "internalType": "uint256",
          "name": "amountInMax",
          "type": "uint256"
        },
        {
          "internalType": "address",
          "name": "to",
          "type": "address"
        },
        {
          "internalType": "uint256",
          "name": "deadline",
          "type": "uint256"
        }
      ],
      "name": "onSwapTokensForExactTokens",
      "outputs": [
        {
          "internalType": "uint256[]",
          "name": "amounts",
          "type": "uint256[]"
        }
      ],
      "stateMutability": "nonpayable",
      "type": "function"
    },
    {
      "inputs": [
        {
          "internalType": "address",
          "name": "tokenOut",
          "type": "address"
        },
        {
          "internalType": "uint256",
          "name": "amountOut",
          "type": "uint256"
        },
        {
          "internalType": "address[]",
          "name": "path",
          "type": "address[]"
        },
        {
          "internalType": "address",
          "name": "to",
          "type": "address"
        },
        {
          "internalType": "uint256",
          "name": "deadline",
          "type": "uint256"
        }
      ],
      "name": "swapETHForExactTokens",
      "outputs": [
        {
          "internalType": "uint256[]",
          "name": "amounts",
          "type": "uint256[]"
        }
      ],
      "stateMutability": "payable",
      "type": "function"
    },
    {
      "inputs": [
        {
          "internalType": "address",
          "name": "tokenOut",
          "type": "address"
        },
        {
          "internalType": "uint256",
          "name": "amountOutMin",
          "type": "uint256"
        },
        {
          "internalType": "address[]",
          "name": "path",
          "type": "address[]"
        },
        {
          "internalType": "address",
          "name": "to",
          "type": "address"
        },
        {
          "internalType": "uint256",
          "name": "deadline",
          "type": "uint256"
        }
      ],
      "name": "swapExactETHForTokens",
      "outputs": [
        {
          "internalType": "uint256[]",
          "name": "amounts",
          "type": "uint256[]"
        }
      ],
      "stateMutability": "payable",
      "type": "function"
    },
    {
      "inputs": [
        {
          "internalType": "address",
          "name": "tokenOut",
          "type": "address"
        },
        {
          "internalType": "uint256",
          "name": "amountOutMin",
          "type": "uint256"
        },
        {
          "internalType": "address[]",
          "name": "path",
          "type": "address[]"
        },
        {
          "internalType": "address",
          "name": "to",
          "type": "address"
        },
        {
          "internalType": "uint256",
          "name": "deadline",
          "type": "uint256"
        }
      ],
      "name": "swapExactETHForTokensSupportingFeeOnTransferTokens",
      "outputs": [],
      "stateMutability": "payable",
      "type": "function"
    },
    {
      "inputs": [
        {
          "internalType": "address",
          "name": "tokenIn",
          "type": "address"
        },
        {
          "internalType": "uint256",
          "name": "amountIn",
          "type": "uint256"
        },
        {
          "internalType": "uint256",
          "name": "amountOutMin",
          "type": "uint256"
        },
        {
          "internalType": "address[]",
          "name": "path",
          "type": "address[]"
        },
        {
          "internalType": "address",
          "name": "to",
          "type": "address"
        },
        {
          "internalType": "uint256",
          "name": "deadline",
          "type": "uint256"
        }
      ],
      "name": "swapExactTokensForETH",
      "outputs": [
        {
          "internalType": "uint256[]",
          "name": "amounts",
          "type": "uint256[]"
        }
      ],
      "stateMutability": "nonpayable",
      "type": "function"
    },
    {
      "inputs": [
        {
          "internalType": "address",
          "name": "tokenIn",
          "type": "address"
        },
        {
          "internalType": "uint256",
          "name": "amountIn",
          "type": "uint256"
        },
        {
          "internalType": "uint256",
          "name": "amountOutMin",
          "type": "uint256"
        },
        {
          "internalType": "address[]",
          "name": "path",
          "type": "address[]"
        },
        {
          "internalType": "address",
          "name": "to",
          "type": "address"
        },
        {
          "internalType": "uint256",
          "name": "deadline",
          "type": "uint256"
        }
      ],
      "name": "swapExactTokensForETHSupportingFeeOnTransferTokens",
      "outputs": [],
      "stateMutability": "nonpayable",
      "type": "function"
    },
    {
      "inputs": [
        {
          "internalType": "address",
          "name": "tokenIn",
          "type": "address"
        },
        {
          "internalType": "address",
          "name": "tokenOut",
          "type": "address"
        },
        {
          "internalType": "uint256",
          "name": "amountIn",
          "type": "uint256"
        },
        {
          "internalType": "uint256",
          "name": "amountOutMin",
          "type": "uint256"
        },
        {
          "internalType": "address[]",
          "name": "path",
          "type": "address[]"
        },
        {
          "internalType": "address",
          "name": "to",
          "type": "address"
        },
        {
          "internalType": "uint256",
          "name": "deadline",
          "type": "uint256"
        }
      ],
      "name": "swapExactTokensForTokens",
      "outputs": [
        {
          "internalType": "uint256[]",
          "name": "amounts",
          "type": "uint256[]"
        }
      ],
      "stateMutability": "nonpayable",
      "type": "function"
    },
    {
      "inputs": [
        {
          "internalType": "address",
          "name": "tokenIn",
          "type": "address"
        },
        {
          "internalType": "address",
          "name": "tokenOut",
          "type": "address"
        },
        {
          "internalType": "uint256",
          "name": "amountIn",
          "type": "uint256"
        },
        {
          "internalType": "uint256",
          "name": "amountOutMin",
          "type": "uint256"
        },
        {
          "internalType": "address[]",
          "name": "path",
          "type": "address[]"
        },
        {
          "internalType": "address",
          "name": "to",
          "type": "address"
        },
        {
          "internalType": "uint256",
          "name": "deadline",
          "type": "uint256"
        }
      ],
      "name": "swapExactTokensForTokensSupportingFeeOnTransferTokens",
      "outputs": [],
      "stateMutability": "nonpayable",
      "type": "function"
    },
    {
      "inputs": [
        {
          "internalType": "address",
          "name": "tokenIn",
          "type": "address"
        },
        {
          "internalType": "uint256",
          "name": "amountOut",
          "type": "uint256"
        },
        {
          "internalType": "uint256",
          "name": "amountInMax",
          "type": "uint256"
        },
        {
          "internalType": "address[]",
          "name": "path",
          "type": "address[]"
        },
        {
          "internalType": "address",
          "name": "to",
          "type": "address"
        },
        {
          "internalType": "uint256",
          "name": "deadline",
          "type": "uint256"
        }
      ],
      "name": "swapTokensForExactETH",
      "outputs": [
        {
          "internalType": "uint256[]",
          "name": "amounts",
          "type": "uint256[]"
        }
      ],
      "stateMutability": "nonpayable",
      "type": "function"
    },
    {
      "inputs": [
        {
          "internalType": "address",
          "name": "tokenIn",
          "type": "address"
        },
        {
          "internalType": "address",
          "name": "tokenOut",
          "type": "address"
        },
        {
          "internalType": "uint256",
          "name": "amountOut",
          "type": "uint256"
        },
        {
          "internalType": "uint256",
          "name": "amountInMax",
          "type": "uint256"
        },
        {
          "internalType": "address[]",
          "name": "path",
          "type": "address[]"
        },
        {
          "internalType": "address",
          "name": "to",
          "type": "address"
        },
        {
          "internalType": "uint256",
          "name": "deadline",
          "type": "uint256"
        }
      ],
      "name": "swapTokensForExactTokens",
      "outputs": [
        {
          "internalType": "uint256[]",
          "name": "amounts",
          "type": "uint256[]"
        }
      ],
      "stateMutability": "nonpayable",
      "type": "function"
    },
    {
      "stateMutability": "payable",
      "type": "receive"
    }
  ],
  "transactionHash": "0x0bbd5846da945e8fc80f51df173be5ff99e1e7b41bd51aa1edca86a40374efcc",
  "args": [
    "0x9fE46736679d2D9a65F0992F2272dE9f3c7fa6e0",
    "0x5FbDB2315678afecb367f032d93F642f64180aa3"
  ],
  "solcInputHash": "62f74687539bb3f02b7ab1e7daeb0f56",
  "bytecode": "0x60e06040523480156200001157600080fd5b5060405162004f8138038062004f818339810160408190526200003491620000db565b6001600160a01b038216608081905260408051634b75f54f60e01b81529051634b75f54f916004808201926020929091908290030181865afa1580156200007f573d6000803e3d6000fd5b505050506040513d601f19601f82011682018060405250810190620000a5919062000113565b6001600160a01b0390811660a0521660c0525062000138565b80516001600160a01b0381168114620000d657600080fd5b919050565b60008060408385031215620000ef57600080fd5b620000fa83620000be565b91506200010a60208401620000be565b90509250929050565b6000602082840312156200012657600080fd5b6200013182620000be565b9392505050565b60805160a05160c051614d556200022c600039600081816101730152818161031501528181610fe4015281816111c70152818161173001528181611e9c01528181611f2f015281816128ec0152818161299001528181612a0801528181612a6501528181612afa0152818161324a015281816132fc01526137290152600081816102030152818161149c01528181612e1501528181612fb8015281816133e90152818161380701528181613bb701528181613d470152613e8901526000818161039c015281816114cb01528181612e44015281816134160152818161383401528181613be40152613d020152614d556000f3fe6080604052600436106101635760003560e01c8063ad5c4648116100c0578063ce81963211610074578063f35aaf6311610059578063f35aaf63146103f1578063fa3219d514610411578063fde1adda1461043157600080fd5b8063ce819632146103be578063d59e44ee146103d157600080fd5b8063b4e819fd116100a5578063b4e819fd1461034a578063bff51d711461036a578063c45a01551461038a57600080fd5b8063ad5c464814610303578063b05f579e1461033757600080fd5b8063674ee80b116101175780639c91fcb5116100fc5780639c91fcb5146102a3578063a67d0e3c146102c3578063abbfddc5146102e357600080fd5b8063674ee80b1461027d578063840c34d01461029057600080fd5b80634b75f54f116101485780634b75f54f146101f157806351bf18301461023d5780635cae03101461025d57600080fd5b806308c820da146101a75780630d1424a3146101d057600080fd5b366101a257336001600160a01b037f000000000000000000000000000000000000000000000000000000000000000016146101a0576101a06142ca565b005b600080fd5b6101ba6101b53660046143f5565b610444565b6040516101c7919061447d565b60405180910390f35b6101e36101de3660046143f5565b6108c6565b6040519081526020016101c7565b3480156101fd57600080fd5b506102257f000000000000000000000000000000000000000000000000000000000000000081565b6040516001600160a01b0390911681526020016101c7565b34801561024957600080fd5b506101ba6102583660046144c1565b610ace565b34801561026957600080fd5b506101a06102783660046145a1565b610f17565b6101a061028b366004614628565b6110df565b6101e361029e3660046147df565b6112fd565b3480156102af57600080fd5b506101ba6102be3660046145a1565b6116e5565b3480156102cf57600080fd5b506101a06102de366004614853565b61185e565b3480156102ef57600080fd5b506101ba6102fe3660046144c1565b611a39565b34801561030f57600080fd5b506102257f000000000000000000000000000000000000000000000000000000000000000081565b6101ba610345366004614628565b611e52565b34801561035657600080fd5b506101e36103653660046144c1565b611fce565b34801561037657600080fd5b506101ba6103853660046148ec565b6121ff565b34801561039657600080fd5b506102257f000000000000000000000000000000000000000000000000000000000000000081565b6101e36103cc366004614980565b612283565b3480156103dd57600080fd5b506101ba6103ec366004614853565b61258f565b3480156103fd57600080fd5b506101e361040c3660046144c1565b61267b565b34801561041d57600080fd5b506101ba61042c3660046145a1565b6128a1565b6101ba61043f366004614628565b612946565b6060814281101561048e5760405162461bcd60e51b815260206004820152600f60248201526e149bdd5d195c8e8811561412549151608a1b60448201526064015b60405180910390fd5b855167ffffffffffffffff8111156104a8576104a86142e0565b6040519080825280602002602001820160405280156104d1578160200160208202803683370190505b50915084828851815181106104e8576104e86149fe565b6020026020010181815250506000600183516105049190614a2a565b90505b801561064b5787610519600183614a2a565b81518110610529576105296149fe565b60200260200101516001600160a01b031663cc56fd438860018461054d9190614a2a565b8151811061055d5761055d6149fe565b6020026020010151898481518110610577576105776149fe565b6020026020010151868581518110610591576105916149fe565b60209081029190910101516040516001600160e01b031960e086901b1681526001600160a01b0393841660048201529290911660248301526044820152606401602060405180830381865afa1580156105ee573d6000803e3d6000fd5b505050506040513d601f19601f820116820180604052508101906106129190614a41565b8361061e600184614a2a565b8151811061062e5761062e6149fe565b60209081029190910101528061064381614a5a565b915050610507565b503482600081518110610660576106606149fe565b602002602001015111156106a85760405162461bcd60e51b815260206004820152600f60248201526e115610d154d4d2559157d253941555608a1b6044820152606401610485565b6106e6826000815181106106be576106be6149fe565b6020026020010151886000815181106106d9576106d96149fe565b6020026020010151612a63565b60005b875181101561086a576000600189516107029190614a2a565b82146107315788610714836001614a71565b81518110610724576107246149fe565b6020026020010151610733565b855b9050888281518110610747576107476149fe565b60200260200101516001600160a01b03166332fd549389848151811061076f5761076f6149fe565b60200260200101518a8560016107859190614a71565b81518110610795576107956149fe565b60200260200101518786815181106107af576107af6149fe565b6020026020010151888760016107c59190614a71565b815181106107d5576107d56149fe565b60209081029190910101516040516001600160e01b031960e087901b1681526001600160a01b039485166004820152928416602484015260448301919091526064820152908416608482015260a401600060405180830381600087803b15801561083e57600080fd5b505af1158015610852573d6000803e3d6000fd5b5050505050808061086290614a89565b9150506106e9565b508160008151811061087e5761087e6149fe565b60200260200101513411156108bc576108bc33836000815181106108a4576108a46149fe565b6020026020010151346108b79190614a2a565b612b7b565b5095945050505050565b6000814281101561090b5760405162461bcd60e51b815260206004820152600f60248201526e149bdd5d195c8e8811561412549151608a1b6044820152606401610485565b34915061092534886000815181106106d9576106d96149fe565b60005b8751811015610a7d576000600189516109419190614a2a565b82146109705788610953836001614a71565b81518110610963576109636149fe565b6020026020010151610972565b855b9050888281518110610986576109866149fe565b60200260200101516001600160a01b0316634ac00e038984815181106109ae576109ae6149fe565b60200260200101518a8560016109c49190614a71565b815181106109d4576109d46149fe565b60209081029190910101516040516001600160e01b031960e085901b1681526001600160a01b03928316600482015290821660248201526044810188905260006064820152908416608482015260a4016020604051808303816000875af1158015610a43573d6000803e3d6000fd5b505050506040513d601f19601f82011682018060405250810190610a679190614a41565b9350508080610a7590614a89565b915050610928565b50818511156108bc5760405162461bcd60e51b815260206004820152601360248201527f494e53554646494349454e545f4f5554505554000000000000000000000000006044820152606401610485565b60608142811015610b135760405162461bcd60e51b815260206004820152600f60248201526e149bdd5d195c8e8811561412549151608a1b6044820152606401610485565b865167ffffffffffffffff811115610b2d57610b2d6142e0565b604051908082528060200260200182016040528015610b56578160200160208202803683370190505b5091508582895181518110610b6d57610b6d6149fe565b602002602001018181525050600060018351610b899190614a2a565b90505b8015610cd05788610b9e600183614a2a565b81518110610bae57610bae6149fe565b60200260200101516001600160a01b031663cc56fd4389600184610bd29190614a2a565b81518110610be257610be26149fe565b60200260200101518a8481518110610bfc57610bfc6149fe565b6020026020010151868581518110610c1657610c166149fe565b60209081029190910101516040516001600160e01b031960e086901b1681526001600160a01b0393841660048201529290911660248301526044820152606401602060405180830381865afa158015610c73573d6000803e3d6000fd5b505050506040513d601f19601f82011682018060405250810190610c979190614a41565b83610ca3600184614a2a565b81518110610cb357610cb36149fe565b602090810291909101015280610cc881614a5a565b915050610b8c565b508482600081518110610ce557610ce56149fe565b60200260200101511115610d2d5760405162461bcd60e51b815260206004820152600f60248201526e115610d154d4d2559157d253941555608a1b6044820152606401610485565b610d8787600081518110610d4357610d436149fe565b6020026020010151338a600081518110610d5f57610d5f6149fe565b602002602001015185600081518110610d7a57610d7a6149fe565b6020026020010151612c63565b60005b8851811015610f0b57600060018a51610da39190614a2a565b8214610dd25789610db5836001614a71565b81518110610dc557610dc56149fe565b6020026020010151610dd4565b855b9050898281518110610de857610de86149fe565b60200260200101516001600160a01b03166332fd54938a8481518110610e1057610e106149fe565b60200260200101518b856001610e269190614a71565b81518110610e3657610e366149fe565b6020026020010151878681518110610e5057610e506149fe565b602002602001015188876001610e669190614a71565b81518110610e7657610e766149fe565b60209081029190910101516040516001600160e01b031960e087901b1681526001600160a01b039485166004820152928416602484015260448301919091526064820152908416608482015260a401600060405180830381600087803b158015610edf57600080fd5b505af1158015610ef3573d6000803e3d6000fd5b50505050508080610f0390614a89565b915050610d8a565b50509695505050505050565b8042811015610f5a5760405162461bcd60e51b815260206004820152600f60248201526e149bdd5d195c8e8811561412549151608a1b6044820152606401610485565b610f8d883387876000818110610f7257610f726149fe565b9050602002016020810190610f879190614aa4565b8a612c63565b610fcc88868680806020026020016040519081016040528093929190818152602001838360200280828437600092019190915250309250612dda915050565b6040516370a0823160e01b81523060048201526000907f00000000000000000000000000000000000000000000000000000000000000006001600160a01b0316906370a0823190602401602060405180830381865afa158015611033573d6000803e3d6000fd5b505050506040513d601f19601f820116820180604052508101906110579190614a41565b9050868110156110b45760405162461bcd60e51b815260206004820152602260248201527f526f757465723a20494e53554646494349454e545f4f55545055545f414d4f55604482015261139560f21b6064820152608401610485565b6110d373eeeeeeeeeeeeeeeeeeeeeeeeeeeeeeeeeeeeeeee85836131e7565b50505050505050505050565b80428110156111225760405162461bcd60e51b815260206004820152600f60248201526e149bdd5d195c8e8811561412549151608a1b6044820152606401610485565b34611152818787600081611138576111386149fe565b905060200201602081019061114d9190614aa4565b612a63565b6040516370a0823160e01b81526001600160a01b038581166004830152600091908a16906370a0823190602401602060405180830381865afa15801561119c573d6000803e3d6000fd5b505050506040513d601f19601f820116820180604052508101906111c09190614a41565b90506112217f00000000000000000000000000000000000000000000000000000000000000008888808060200260200160405190810160405280939291908181526020018383602002808284376000920191909152508a9250612dda915050565b6040516370a0823160e01b81526001600160a01b038681166004830152899183918c16906370a0823190602401602060405180830381865afa15801561126b573d6000803e3d6000fd5b505050506040513d601f19601f8201168201806040525081019061128f9190614a41565b6112999190614a2a565b10156112f25760405162461bcd60e51b815260206004820152602260248201527f526f757465723a20494e53554646494349454e545f4f55545055545f414d4f55604482015261139560f21b6064820152608401610485565b505050505050505050565b600081428110156113425760405162461bcd60e51b815260206004820152600f60248201526e149bdd5d195c8e8811561412549151608a1b6044820152606401610485565b61134c86856132d3565b5060005b875181101561166757600088828151811061136d5761136d6149fe565b602002602001015151600114156113df576000898381518110611392576113926149fe565b60200260200101516000815181106113ac576113ac6149fe565b602002602001015190506113d781602001518260400151836000015184606001518560800151613388565b915050611647565b6000808a84815181106113f4576113f46149fe565b602002602001015160018151811061140e5761140e6149fe565b602002602001015190506000600167ffffffffffffffff811115611434576114346142e0565b60405190808252806020026020018201604052801561145d578160200160208202803683370190505b509050816000015181600081518110611478576114786149fe565b60200260200101906001600160a01b031690816001600160a01b03168152505060007f00000000000000000000000000000000000000000000000000000000000000006001600160a01b03166367f84adc7f0000000000000000000000000000000000000000000000000000000000000000856020015186604001518760600151876040518663ffffffff1660e01b815260040161151a959493929190614ac1565b600060405180830381865afa158015611537573d6000803e3d6000fd5b505050506040513d6000823e601f3d908101601f1916820160405261155f9190810190614b35565b905080600081518110611574576115746149fe565b6020026020010151935082608001518411156115d25760405162461bcd60e51b815260206004820152601e60248201527f526f757465723a204558434553534956455f494e5055545f414d4f554e5400006044820152606401610485565b505060008b85815181106115e8576115e86149fe565b6020026020010151600081518110611602576116026149fe565b60200260200101519050611629816020015182604001518360000151868560800151613388565b93506116438260200151836000015185856060015161351c565b5050505b6116518185614a71565b935050808061165f90614a89565b915050611350565b50838211156116b85760405162461bcd60e51b815260206004820152600c60248201527f4552525f4c494d49545f494e00000000000000000000000000000000000000006044820152606401610485565b6116cb85336116c6886136ed565b6131e7565b506116da86336116c6896136ed565b505095945050505050565b6060814281101561172a5760405162461bcd60e51b815260206004820152600f60248201526e149bdd5d195c8e8811561412549151608a1b6044820152606401610485565b61178a897f00000000000000000000000000000000000000000000000000000000000000008a8a8a8a808060200260200160405190810160405280939291908181526020018383602002808284376000920191909152506137d492505050565b91506117cc8933888860008181106117a4576117a46149fe565b90506020020160208101906117b99190614aa4565b85600081518110610d7a57610d7a6149fe565b61180c8983888880806020026020016040519081016040528093929190818152602001838360200280828437600092019190915250309250613935915050565b61185173eeeeeeeeeeeeeeeeeeeeeeeeeeeeeeeeeeeeeeee8584600186516118349190614a2a565b81518110611844576118446149fe565b60200260200101516131e7565b5050979650505050505050565b80428110156118a15760405162461bcd60e51b815260206004820152600f60248201526e149bdd5d195c8e8811561412549151608a1b6044820152606401610485565b6118b9893387876000818110610f7257610f726149fe565b6040516370a0823160e01b81526001600160a01b038481166004830152600091908a16906370a0823190602401602060405180830381865afa158015611903573d6000803e3d6000fd5b505050506040513d601f19601f820116820180604052508101906119279190614a41565b90506119688a878780806020026020016040519081016040528093929190818152602001838360200280828437600092019190915250899250612dda915050565b6040516370a0823160e01b81526001600160a01b038581166004830152889183918c16906370a0823190602401602060405180830381865afa1580156119b2573d6000803e3d6000fd5b505050506040513d601f19601f820116820180604052508101906119d69190614a41565b6119e09190614a2a565b10156110d35760405162461bcd60e51b815260206004820152602260248201527f526f757465723a20494e53554646494349454e545f4f55545055545f414d4f55604482015261139560f21b6064820152608401610485565b60608142811015611a7e5760405162461bcd60e51b815260206004820152600f60248201526e149bdd5d195c8e8811561412549151608a1b6044820152606401610485565b865167ffffffffffffffff811115611a9857611a986142e0565b604051908082528060200260200182016040528015611ac1578160200160208202803683370190505b5091508582895181518110611ad857611ad86149fe565b602002602001018181525050600060018351611af49190614a2a565b90505b8015611c3b5788611b09600183614a2a565b81518110611b1957611b196149fe565b60200260200101516001600160a01b031663cc56fd4389600184611b3d9190614a2a565b81518110611b4d57611b4d6149fe565b60200260200101518a8481518110611b6757611b676149fe565b6020026020010151868581518110611b8157611b816149fe565b60209081029190910101516040516001600160e01b031960e086901b1681526001600160a01b0393841660048201529290911660248301526044820152606401602060405180830381865afa158015611bde573d6000803e3d6000fd5b505050506040513d601f19601f82011682018060405250810190611c029190614a41565b83611c0e600184614a2a565b81518110611c1e57611c1e6149fe565b602090810291909101015280611c3381614a5a565b915050611af7565b508482600081518110611c5057611c506149fe565b60200260200101511115611c985760405162461bcd60e51b815260206004820152600f60248201526e115610d154d4d2559157d253941555608a1b6044820152606401610485565b611cae87600081518110610d4357610d436149fe565b60005b8851811015611e3257600060018a51611cca9190614a2a565b8214611cf95789611cdc836001614a71565b81518110611cec57611cec6149fe565b6020026020010151611cfb565b305b9050898281518110611d0f57611d0f6149fe565b60200260200101516001600160a01b03166332fd54938a8481518110611d3757611d376149fe565b60200260200101518b856001611d4d9190614a71565b81518110611d5d57611d5d6149fe565b6020026020010151878681518110611d7757611d776149fe565b602002602001015188876001611d8d9190614a71565b81518110611d9d57611d9d6149fe565b60209081029190910101516040516001600160e01b031960e087901b1681526001600160a01b039485166004820152928416602484015260448301919091526064820152908416608482015260a401600060405180830381600087803b158015611e0657600080fd5b505af1158015611e1a573d6000803e3d6000fd5b50505050508080611e2a90614a89565b915050611cb1565b50610f0b73eeeeeeeeeeeeeeeeeeeeeeeeeeeeeeeeeeeeeeee85886131e7565b60608142811015611e975760405162461bcd60e51b815260206004820152600f60248201526e149bdd5d195c8e8811561412549151608a1b6044820152606401610485565b611ef77f00000000000000000000000000000000000000000000000000000000000000008989348a8a80806020026020016040519081016040528093929190818152602001838360200280828437600092019190915250613b9d92505050565b9150611f2a82600081518110611f0f57611f0f6149fe565b602002602001015187876000818110611138576111386149fe565b611f8a7f0000000000000000000000000000000000000000000000000000000000000000838888808060200260200160405190810160405280939291908181526020018383602002808284376000920191909152508a9250613935915050565b81600081518110611f9d57611f9d6149fe565b6020026020010151341115611fc357611fc333836000815181106108a4576108a46149fe565b509695505050505050565b600081428110156120135760405162461bcd60e51b815260206004820152600f60248201526e149bdd5d195c8e8811561412549151608a1b6044820152606401610485565b8591506120568760008151811061202c5761202c6149fe565b6020026020010151338a600081518110612048576120486149fe565b602002602001015189612c63565b60005b88518110156121ae57600060018a516120729190614a2a565b82146120a15789612084836001614a71565b81518110612094576120946149fe565b60200260200101516120a3565b855b90508982815181106120b7576120b76149fe565b60200260200101516001600160a01b0316634ac00e038a84815181106120df576120df6149fe565b60200260200101518b8560016120f59190614a71565b81518110612105576121056149fe565b60209081029190910101516040516001600160e01b031960e085901b1681526001600160a01b03928316600482015290821660248201526044810188905260006064820152908416608482015260a4016020604051808303816000875af1158015612174573d6000803e3d6000fd5b505050506040513d601f19601f820116820180604052508101906121989190614a41565b93505080806121a690614a89565b915050612059565b5081851115611fc35760405162461bcd60e51b815260206004820152601360248201527f494e53554646494349454e545f4f5554505554000000000000000000000000006044820152606401610485565b606081428110156122445760405162461bcd60e51b815260206004820152600f60248201526e149bdd5d195c8e8811561412549151608a1b6044820152606401610485565b61225189898989896137d4565b915061226b893387600081518110610d5f57610d5f6149fe565b61227789838787613935565b50979650505050505050565b600081428110156122c85760405162461bcd60e51b815260206004820152600f60248201526e149bdd5d195c8e8811561412549151608a1b6044820152606401610485565b6122d287866132d3565b50600073eeeeeeeeeeeeeeeeeeeeeeeeeeeeeeeeeeeeeeee6001600160a01b03881614612364576040516370a0823160e01b81523360048201526001600160a01b038816906370a0823190602401602060405180830381865afa15801561233d573d6000803e3d6000fd5b505050506040513d601f19601f820116820180604052508101906123619190614a41565b90505b60005b8951811015612435576000805b8b8381518110612386576123866149fe565b6020026020010151518110156124155760008c84815181106123aa576123aa6149fe565b602002602001015182815181106123c3576123c36149fe565b6020026020010151905060008211156123de57606081018390525b6123ff81602001518260400151836000015184606001518560800151613cc5565b925050808061240d90614a89565b915050612374565b506124208582614a71565b5081905061242d81614a89565b915050612367565b506124418733856131e7565b5061245088336116c68b6136ed565b5073eeeeeeeeeeeeeeeeeeeeeeeeeeeeeeeeeeeeeeee6001600160a01b03881614156124cb57848310156124c65760405162461bcd60e51b815260206004820152600d60248201527f4552525f4c494d49545f4f5554000000000000000000000000000000000000006044820152606401610485565b610f0b565b6040516370a0823160e01b8152336004820152859082906001600160a01b038a16906370a0823190602401602060405180830381865afa158015612513573d6000803e3d6000fd5b505050506040513d601f19601f820116820180604052508101906125379190614a41565b6125419190614a2a565b1015610f0b5760405162461bcd60e51b815260206004820152601260248201527f3c6d696e546f74616c416d6f756e744f757400000000000000000000000000006044820152606401610485565b606081428110156125d45760405162461bcd60e51b815260206004820152600f60248201526e149bdd5d195c8e8811561412549151608a1b6044820152606401610485565b6126148a8a8a8a8a8a80806020026020016040519081016040528093929190818152602001838360200280828437600092019190915250613b9d92505050565b915061262e8a33888860008181106117a4576117a46149fe565b61266e8a838888808060200260200160405190810160405280939291908181526020018383602002808284376000920191909152508a9250613935915050565b5098975050505050505050565b600081428110156126c05760405162461bcd60e51b815260206004820152600f60248201526e149bdd5d195c8e8811561412549151608a1b6044820152606401610485565b8591506126d98760008151811061202c5761202c6149fe565b60005b885181101561283157600060018a516126f59190614a2a565b82146127245789612707836001614a71565b81518110612717576127176149fe565b6020026020010151612726565b305b905089828151811061273a5761273a6149fe565b60200260200101516001600160a01b0316634ac00e038a8481518110612762576127626149fe565b60200260200101518b8560016127789190614a71565b81518110612788576127886149fe565b60209081029190910101516040516001600160e01b031960e085901b1681526001600160a01b03928316600482015290821660248201526044810188905260006064820152908416608482015260a4016020604051808303816000875af11580156127f7573d6000803e3d6000fd5b505050506040513d601f19601f8201168201806040525081019061281b9190614a41565b935050808061282990614a89565b9150506126dc565b50818511156128825760405162461bcd60e51b815260206004820152601360248201527f494e53554646494349454e545f4f5554505554000000000000000000000000006044820152606401610485565b610f0b73eeeeeeeeeeeeeeeeeeeeeeeeeeeeeeeeeeeeeeee85846131e7565b606081428110156128e65760405162461bcd60e51b815260206004820152600f60248201526e149bdd5d195c8e8811561412549151608a1b6044820152606401610485565b61178a897f00000000000000000000000000000000000000000000000000000000000000008a8a8a8a80806020026020016040519081016040528093929190818152602001838360200280828437600092019190915250613b9d92505050565b6060814281101561298b5760405162461bcd60e51b815260206004820152600f60248201526e149bdd5d195c8e8811561412549151608a1b6044820152606401610485565b6129eb7f000000000000000000000000000000000000000000000000000000000000000089348a8a8a808060200260200160405190810160405280939291908181526020018383602002808284376000920191909152506137d492505050565b9150612a0382600081518110611f0f57611f0f6149fe565b611fc37f0000000000000000000000000000000000000000000000000000000000000000838888808060200260200160405190810160405280939291908181526020018383602002808284376000920191909152508a9250613935915050565b7f00000000000000000000000000000000000000000000000000000000000000006001600160a01b031663d0e30db0836040518263ffffffff1660e01b81526004016000604051808303818588803b158015612abe57600080fd5b505af1158015612ad2573d6000803e3d6000fd5b505060405163a9059cbb60e01b81526001600160a01b038581166004830152602482018790527f000000000000000000000000000000000000000000000000000000000000000016935063a9059cbb925060440190506020604051808303816000875af1158015612b47573d6000803e3d6000fd5b505050506040513d601f19601f82011682018060405250810190612b6b9190614bc6565b612b7757612b776142ca565b5050565b604080516000808252602082019092526001600160a01b038416908390604051612ba59190614c18565b60006040518083038185875af1925050503d8060008114612be2576040519150601f19603f3d011682016040523d82523d6000602084013e612be7565b606091505b5050905080612c5e5760405162461bcd60e51b815260206004820152602360248201527f5472616e7366657248656c7065723a204554485f5452414e534645525f46414960448201527f4c454400000000000000000000000000000000000000000000000000000000006064820152608401610485565b505050565b604080516001600160a01b0385811660248301528481166044830152606480830185905283518084039091018152608490920183526020820180517bffffffffffffffffffffffffffffffffffffffffffffffffffffffff167f23b872dd000000000000000000000000000000000000000000000000000000001790529151600092839290881691612cf59190614c18565b6000604051808303816000865af19150503d8060008114612d32576040519150601f19603f3d011682016040523d82523d6000602084013e612d37565b606091505b5091509150818015612d61575080511580612d61575080806020019051810190612d619190614bc6565b612dd25760405162461bcd60e51b8152602060048201526024808201527f5472616e7366657248656c7065723a205452414e534645525f46524f4d5f464160448201527f494c4544000000000000000000000000000000000000000000000000000000006064820152608401610485565b505050505050565b8260005b83518110156131e0576000848281518110612dfb57612dfb6149fe565b6020026020010151905060008060008060008060008060007f00000000000000000000000000000000000000000000000000000000000000006001600160a01b031663b33d96b07f00000000000000000000000000000000000000000000000000000000000000008c8f6040518463ffffffff1660e01b8152600401612ea1939291906001600160a01b0393841681529183166020830152909116604082015260600190565b60c060405180830381865afa158015612ebe573d6000803e3d6000fd5b505050506040513d601f19601f82011682018060405250810190612ee29190614c48565b955095509550955095509550848c6001600160a01b03166370a082318c6040518263ffffffff1660e01b8152600401612f2a91906001600160a01b0391909116815260200190565b602060405180830381865afa158015612f47573d6000803e3d6000fd5b505050506040513d601f19601f82011682018060405250810190612f6b9190614a41565b612f759190614a2a565b60405163671a11b560e01b815260048101829052602481018790526044810186905263ffffffff80861660648301528085166084830152831660a48201529099507f00000000000000000000000000000000000000000000000000000000000000006001600160a01b03169063671a11b59060c401602060405180830381865afa158015613007573d6000803e3d6000fd5b505050506040513d601f19601f8201168201806040525081019061302b9190614a41565b9750859650505050505050600080856001600160a01b0316630dfe16816040518163ffffffff1660e01b8152600401602060405180830381865afa158015613077573d6000803e3d6000fd5b505050506040513d601f19601f8201168201806040525081019061309b9190614cb1565b6001600160a01b0316886001600160a01b0316146130bb578360006130bf565b6000845b91509150600060018b516130d39190614a2a565b88106130df5789613104565b8a6130eb896001614a71565b815181106130fb576130fb6149fe565b60200260200101515b6040805160008152602081019182905263022c0d9f60e01b9091529091506001600160a01b0388169063022c0d9f906131469086908690869060248101614cce565b600060405180830381600087803b15801561316057600080fd5b505af1158015613174573d6000803e3d6000fd5b5050604080516001600160a01b038b81168252602082018a905288168183015290517fddac40937f35385a34f721af292e5a83fc5b840f722bff57c2fc71adba708c489350908190036060019150a18398505050505050505080806131d890614a89565b915050612dde565b5050505050565b6000816131f6575060016132cc565b73eeeeeeeeeeeeeeeeeeeeeeeeeeeeeeeeeeeeeeee6001600160a01b03851614156132bd576040517f2e1a7d4d000000000000000000000000000000000000000000000000000000008152600481018390527f00000000000000000000000000000000000000000000000000000000000000006001600160a01b031690632e1a7d4d90602401600060405180830381600087803b15801561329657600080fd5b505af11580156132aa573d6000803e3d6000fd5b505050506132b88383612b7b565b6132c8565b6132c88484846141a1565b5060015b9392505050565b600073eeeeeeeeeeeeeeeeeeeeeeeeeeeeeeeeeeeeeeee6001600160a01b0384161415613373577f00000000000000000000000000000000000000000000000000000000000000006001600160a01b031663d0e30db0346040518263ffffffff1660e01b81526004016000604051808303818588803b15801561335557600080fd5b505af1158015613369573d6000803e3d6000fd5b505050505061337f565b61337f83333085612c63565b50600192915050565b6040805160018082528183019092526000918291906020808301908036833701905050905084816000815181106133c1576133c16149fe565b6001600160a01b0392831660209182029290920101526040516319fe12b760e21b81526000917f000000000000000000000000000000000000000000000000000000000000000016906367f84adc90613446907f0000000000000000000000000000000000000000000000000000000000000000908c908c908b908990600401614ac1565b600060405180830381865afa158015613463573d6000803e3d6000fd5b505050506040513d6000823e601f3d908101601f1916820160405261348b9190810190614b35565b9050806000815181106134a0576134a06149fe565b60200260200101519250838311156134fa5760405162461bcd60e51b815260206004820152601e60248201527f526f757465723a204558434553534956455f494e5055545f414d4f554e5400006044820152606401610485565b6116da88878584600181518110613513576135136149fe565b60200260200101515b6135278484846141a1565b60008390506000816001600160a01b0316630dfe16816040518163ffffffff1660e01b8152600401602060405180830381865afa15801561356c573d6000803e3d6000fd5b505050506040513d601f19601f820116820180604052508101906135909190614cb1565b90506000806000836001600160a01b0316896001600160a01b0316146135b9578560008561361e565b600086866001600160a01b031663d21220a76040518163ffffffff1660e01b8152600401602060405180830381865afa1580156135fa573d6000803e3d6000fd5b505050506040513d601f19601f8201168201806040525081019061361e9190614cb1565b6040805160008152602081019182905263022c0d9f60e01b90915292955090935091506001600160a01b0386169063022c0d9f906136659086908690309060248101614cce565b600060405180830381600087803b15801561367f57600080fd5b505af1158015613693573d6000803e3d6000fd5b5050604080516001600160a01b038c81168252602082018b905285168183015290517fddac40937f35385a34f721af292e5a83fc5b840f722bff57c2fc71adba708c489350908190036060019150a1505050505050505050565b600073eeeeeeeeeeeeeeeeeeeeeeeeeeeeeeeeeeeeeeee6001600160a01b03831614156137a3576040516370a0823160e01b81523060048201527f00000000000000000000000000000000000000000000000000000000000000006001600160a01b0316906370a08231906024015b602060405180830381865afa158015613779573d6000803e3d6000fd5b505050506040513d601f19601f8201168201806040525081019061379d9190614a41565b92915050565b6040516370a0823160e01b81523060048201526001600160a01b038316906370a082319060240161375c565b919050565b6040517f119220a50000000000000000000000000000000000000000000000000000000081526060906001600160a01b037f0000000000000000000000000000000000000000000000000000000000000000169063119220a590613864907f0000000000000000000000000000000000000000000000000000000000000000908a908a908a908990600401614ac1565b600060405180830381865afa158015613881573d6000803e3d6000fd5b505050506040513d6000823e601f3d908101601f191682016040526138a99190810190614b35565b90508281600183516138bb9190614a2a565b815181106138cb576138cb6149fe565b6020026020010151101561392c5760405162461bcd60e51b815260206004820152602260248201527f526f757465723a20494e53554646494349454e545f4f55545055545f414d4f55604482015261139560f21b6064820152608401610485565b95945050505050565b8360005b8351811015612dd2576000848281518110613956576139566149fe565b602002602001015190506000816001600160a01b0316630dfe16816040518163ffffffff1660e01b8152600401602060405180830381865afa1580156139a0573d6000803e3d6000fd5b505050506040513d601f19601f820116820180604052508101906139c49190614cb1565b90506000876139d4856001614a71565b815181106139e4576139e46149fe565b602002602001015190506000806000846001600160a01b0316886001600160a01b031614613a155783600086613a7a565b600084876001600160a01b031663d21220a76040518163ffffffff1660e01b8152600401602060405180830381865afa158015613a56573d6000803e3d6000fd5b505050506040513d601f19601f82011682018060405250810190613a7a9190614cb1565b925092509250600060018b51613a909190614a2a565b8810613a9c5789613ac1565b8a613aa8896001614a71565b81518110613ab857613ab86149fe565b60200260200101515b6040805160008152602081019182905263022c0d9f60e01b9091529091506001600160a01b0388169063022c0d9f90613b039087908790869060248101614cce565b600060405180830381600087803b158015613b1d57600080fd5b505af1158015613b31573d6000803e3d6000fd5b5050604080516001600160a01b038b81168252602082018a905286168183015290517fddac40937f35385a34f721af292e5a83fc5b840f722bff57c2fc71adba708c489350908190036060019150a1819850505050505050508080613b9590614a89565b915050613939565b6040516319fe12b760e21b81526060906001600160a01b037f000000000000000000000000000000000000000000000000000000000000000016906367f84adc90613c14907f0000000000000000000000000000000000000000000000000000000000000000908a908a908a908990600401614ac1565b600060405180830381865afa158015613c31573d6000803e3d6000fd5b505050506040513d6000823e601f3d908101601f19168201604052613c599190810190614b35565b90508281600081518110613c6f57613c6f6149fe565b6020026020010151111561392c5760405162461bcd60e51b815260206004820152601e60248201527f526f757465723a204558434553534956455f494e5055545f414d4f554e5400006044820152606401610485565b6000613cd28685856141a1565b6040517fb33d96b00000000000000000000000000000000000000000000000000000000081526001600160a01b037f00000000000000000000000000000000000000000000000000000000000000008116600483015285811660248301528781166044830152600091829182918291829182917f0000000000000000000000000000000000000000000000000000000000000000169063b33d96b09060640160c060405180830381865afa158015613d8e573d6000803e3d6000fd5b505050506040513d601f19601f82011682018060405250810190613db29190614c48565b95509550955095509550506000858d6001600160a01b03166370a082318d6040518263ffffffff1660e01b8152600401613dfb91906001600160a01b0391909116815260200190565b602060405180830381865afa158015613e18573d6000803e3d6000fd5b505050506040513d601f19601f82011682018060405250810190613e3c9190614a41565b613e469190614a2a565b60405163671a11b560e01b815260048101829052602481018890526044810187905263ffffffff80871660648301528086166084830152841660a48201529091507f00000000000000000000000000000000000000000000000000000000000000006001600160a01b03169063671a11b59060c401602060405180830381865afa158015613ed8573d6000803e3d6000fd5b505050506040513d601f19601f82011682018060405250810190613efc9190614a41565b6040516370a0823160e01b8152306004820152909750600096506001600160a01b038d1695506370a0823194506024019250613f36915050565b602060405180830381865afa158015613f53573d6000803e3d6000fd5b505050506040513d601f19601f82011682018060405250810190613f779190614a41565b9050600080876001600160a01b0316630dfe16816040518163ffffffff1660e01b8152600401602060405180830381865afa158015613fba573d6000803e3d6000fd5b505050506040513d601f19601f82011682018060405250810190613fde9190614cb1565b6001600160a01b03168a6001600160a01b031614613ffe57836000614002565b6000845b6040805160008152602081019182905263022c0d9f60e01b90915291935091506001600160a01b0389169063022c0d9f906140469085908590309060248101614cce565b600060405180830381600087803b15801561406057600080fd5b505af1158015614074573d6000803e3d6000fd5b5050604080516001600160a01b038c81168252602082018990528d168183015290517fddac40937f35385a34f721af292e5a83fc5b840f722bff57c2fc71adba708c489350908190036060019150a16040516370a0823160e01b815230600482015283906001600160a01b038b16906370a0823190602401602060405180830381865afa158015614109573d6000803e3d6000fd5b505050506040513d601f19601f8201168201806040525081019061412d9190614a41565b6141379190614a2a565b9450858510156141945760405162461bcd60e51b815260206004820152602260248201527f526f757465723a20494e53554646494349454e545f4f55545055545f414d4f55604482015261139560f21b6064820152608401610485565b5050505095945050505050565b604080516001600160a01b038481166024830152604480830185905283518084039091018152606490920183526020820180517bffffffffffffffffffffffffffffffffffffffffffffffffffffffff1663a9059cbb60e01b17905291516000928392908716916142129190614c18565b6000604051808303816000865af19150503d806000811461424f576040519150601f19603f3d011682016040523d82523d6000602084013e614254565b606091505b509150915081801561427e57508051158061427e57508080602001905181019061427e9190614bc6565b6131e05760405162461bcd60e51b815260206004820152601f60248201527f5472616e7366657248656c7065723a205452414e534645525f4641494c4544006044820152606401610485565b634e487b7160e01b600052600160045260246000fd5b634e487b7160e01b600052604160045260246000fd5b60405160c0810167ffffffffffffffff81118282101715614319576143196142e0565b60405290565b604051601f8201601f1916810167ffffffffffffffff81118282101715614348576143486142e0565b604052919050565b600067ffffffffffffffff82111561436a5761436a6142e0565b5060051b60200190565b6001600160a01b038116811461438957600080fd5b50565b600082601f83011261439d57600080fd5b813560206143b26143ad83614350565b61431f565b82815260059290921b840181019181810190868411156143d157600080fd5b8286015b84811015611fc35780356143e881614374565b83529183019183016143d5565b600080600080600060a0868803121561440d57600080fd5b853567ffffffffffffffff8082111561442557600080fd5b61443189838a0161438c565b9650602088013591508082111561444757600080fd5b506144548882890161438c565b94505060408601359250606086013561446c81614374565b949793965091946080013592915050565b6020808252825182820181905260009190848201906040850190845b818110156144b557835183529284019291840191600101614499565b50909695505050505050565b60008060008060008060c087890312156144da57600080fd5b863567ffffffffffffffff808211156144f257600080fd5b6144fe8a838b0161438c565b9750602089013591508082111561451457600080fd5b5061452189828a0161438c565b9550506040870135935060608701359250608087013561454081614374565b8092505060a087013590509295509295509295565b60008083601f84011261456757600080fd5b50813567ffffffffffffffff81111561457f57600080fd5b6020830191508360208260051b850101111561459a57600080fd5b9250929050565b600080600080600080600060c0888a0312156145bc57600080fd5b87356145c781614374565b96506020880135955060408801359450606088013567ffffffffffffffff8111156145f157600080fd5b6145fd8a828b01614555565b909550935050608088013561461181614374565b8092505060a0880135905092959891949750929550565b60008060008060008060a0878903121561464157600080fd5b863561464c81614374565b955060208701359450604087013567ffffffffffffffff81111561466f57600080fd5b61467b89828a01614555565b909550935050606087013561468f81614374565b80925050608087013590509295509295509295565b600082601f8301126146b557600080fd5b813560206146c56143ad83614350565b82815260059290921b840181019181810190868411156146e457600080fd5b8286015b84811015611fc357803567ffffffffffffffff8111156147085760008081fd5b8701603f8101891361471a5760008081fd5b84810135604061472c6143ad83614350565b82815260c0928302840182019288820191908d85111561474c5760008081fd5b948301945b848610156147cd5780868f0312156147695760008081fd5b6147716142f6565b863561477c81614374565b8152868b013561478b81614374565b818c01528685013561479c81614374565b81860152606087810135908201526080808801359082015260a0808801359082015283529485019491890191614751565b508752505050928401925083016146e8565b600080600080600060a086880312156147f757600080fd5b853567ffffffffffffffff81111561480e57600080fd5b61481a888289016146a4565b955050602086013561482b81614374565b9350604086013561483b81614374565b94979396509394606081013594506080013592915050565b60008060008060008060008060e0898b03121561486f57600080fd5b883561487a81614374565b9750602089013561488a81614374565b96506040890135955060608901359450608089013567ffffffffffffffff8111156148b457600080fd5b6148c08b828c01614555565b90955093505060a08901356148d481614374565b8092505060c089013590509295985092959890939650565b600080600080600080600060e0888a03121561490757600080fd5b873561491281614374565b9650602088013561492281614374565b95506040880135945060608801359350608088013567ffffffffffffffff81111561494c57600080fd5b6149588a828b0161438c565b93505060a088013561496981614374565b8092505060c0880135905092959891949750929550565b60008060008060008060c0878903121561499957600080fd5b863567ffffffffffffffff8111156149b057600080fd5b6149bc89828a016146a4565b96505060208701356149cd81614374565b945060408701356149dd81614374565b959894975094956060810135955060808101359460a0909101359350915050565b634e487b7160e01b600052603260045260246000fd5b634e487b7160e01b600052601160045260246000fd5b600082821015614a3c57614a3c614a14565b500390565b600060208284031215614a5357600080fd5b5051919050565b600081614a6957614a69614a14565b506000190190565b60008219821115614a8457614a84614a14565b500190565b6000600019821415614a9d57614a9d614a14565b5060010190565b600060208284031215614ab657600080fd5b81356132cc81614374565b600060a082016001600160a01b038089168452602081891681860152818816604086015286606086015260a0608086015282865180855260c087019150828801945060005b81811015614b24578551851683529483019491830191600101614b06565b50909b9a5050505050505050505050565b60006020808385031215614b4857600080fd5b825167ffffffffffffffff811115614b5f57600080fd5b8301601f81018513614b7057600080fd5b8051614b7e6143ad82614350565b81815260059190911b82018301908381019087831115614b9d57600080fd5b928401925b82841015614bbb57835182529284019290840190614ba2565b979650505050505050565b600060208284031215614bd857600080fd5b815180151581146132cc57600080fd5b60005b83811015614c03578181015183820152602001614beb565b83811115614c12576000848401525b50505050565b60008251614c2a818460208701614be8565b9190910192915050565b805163ffffffff811681146137cf57600080fd5b60008060008060008060c08789031215614c6157600080fd5b8651614c6c81614374565b6020880151604089015191975095509350614c8960608801614c34565b9250614c9760808801614c34565b9150614ca560a08801614c34565b90509295509295509295565b600060208284031215614cc357600080fd5b81516132cc81614374565b8481528360208201526001600160a01b03831660408201526080606082015260008251806080840152614d088160a0850160208701614be8565b601f01601f19169190910160a0019594505050505056fea2646970667358221220bea15c20132dbc57f42e86356521e2df88b70a6cb00a26fc1bf2f5dbcd0a8caf64736f6c634300080b0033",
  "devdoc": {
    "kind": "dev",
    "methods": {},
    "version": 1
  },
  "userdoc": {
    "kind": "user",
    "methods": {},
    "version": 1
  },
  "storageLayout": {
    "storage": [],
    "types": null
  }
}