{
  "address": "0x3Aa5ebB10DC797CAC828524e59A333d0A371443c",
  "abi": [
    {
      "inputs": [
        {
          "internalType": "address",
          "name": "_REQT",
          "type": "address"
        }
      ],
      "stateMutability": "nonpayable",
      "type": "constructor"
    },
    {
      "inputs": [],
      "name": "REQT",
      "outputs": [
        {
          "internalType": "address",
          "name": "",
          "type": "address"
        }
      ],
      "stateMutability": "view",
      "type": "function"
    },
    {
      "inputs": [
        {
          "internalType": "address",
          "name": "_pair",
          "type": "address"
        }
      ],
      "name": "getTotalValue",
      "outputs": [
        {
          "internalType": "uint256",
          "name": "_value",
          "type": "uint256"
        }
      ],
      "stateMutability": "view",
      "type": "function"
    },
    {
      "inputs": [
        {
          "internalType": "address",
          "name": "_pair",
          "type": "address"
        }
      ],
      "name": "markdown",
      "outputs": [
        {
          "internalType": "uint256",
          "name": "",
          "type": "uint256"
        }
      ],
      "stateMutability": "view",
      "type": "function"
    },
    {
      "inputs": [
        {
          "internalType": "address",
          "name": "_pair",
          "type": "address"
        },
        {
          "internalType": "uint256",
          "name": "amount_",
          "type": "uint256"
        }
      ],
      "name": "valuation",
      "outputs": [
        {
          "internalType": "uint256",
          "name": "_value",
          "type": "uint256"
        }
      ],
      "stateMutability": "view",
      "type": "function"
    }
  ],
  "transactionHash": "0x82e8cf76dfbe496b82a25473ce356fa86aacdaeadbcf248b8201f5f871d61945",
  "args": [
    "0x610178dA211FEF7D417bC0e6FeD39F05609AD788"
  ],
  "solcInputHash": "33fb797877d98be958f4c888ad0e710c",
  "bytecode": "0x60a060405234801561001057600080fd5b50604051610e19380380610e1983398101604081905261002f91610053565b6001600160a01b03811661004257600080fd5b6001600160a01b0316608052610083565b60006020828403121561006557600080fd5b81516001600160a01b038116811461007c57600080fd5b9392505050565b608051610d606100b9600039600081816056015281816102420152818161028c0152818161055601526106c50152610d606000f3fe608060405234801561001057600080fd5b506004361061004c5760003560e01c806302bb41e51461005157806332da80a3146100955780634249719f146100b657806368637549146100c9575b600080fd5b6100787f000000000000000000000000000000000000000000000000000000000000000081565b6040516001600160a01b0390911681526020015b60405180910390f35b6100a86100a33660046109f7565b6100dc565b60405190815260200161008c565b6100a86100c4366004610a14565b610365565b6100a86100d73660046109f7565b6103ed565b6000806000836001600160a01b0316630902f1ac6040518163ffffffff1660e01b8152600401606060405180830381865afa15801561011f573d6000803e3d6000fd5b505050506040513d601f19601f820116820180604052508101906101439190610a72565b506dffffffffffffffffffffffffffff1691506dffffffffffffffffffffffffffff169150600080856001600160a01b03166332bfe4696040518163ffffffff1660e01b81526004016040805180830381865afa1580156101a8573d6000803e3d6000fd5b505050506040513d601f19601f820116820180604052508101906101cc9190610ab5565b915091506000806000886001600160a01b0316630dfe16816040518163ffffffff1660e01b8152600401602060405180830381865afa158015610213573d6000803e3d6000fd5b505050506040513d601f19601f820116820180604052508101906102379190610ae8565b6001600160a01b03167f00000000000000000000000000000000000000000000000000000000000000006001600160a01b0316146102775786858561027b565b8584865b92509250925061028a896103ed565b7f00000000000000000000000000000000000000000000000000000000000000006001600160a01b031663313ce5676040518163ffffffff1660e01b8152600401602060405180830381865afa1580156102e8573d6000803e3d6000fd5b505050506040513d601f19601f8201168201806040525081019061030c9190610b05565b61031790600a610c24565b8363ffffffff16858463ffffffff166103309190610c33565b61033a9190610c68565b6103449086610c8a565b61034e9190610c33565b6103589190610c68565b9998505050505050505050565b600080610371846103ed565b90506000846001600160a01b03166318160ddd6040518163ffffffff1660e01b8152600401602060405180830381865afa1580156103b3573d6000803e3d6000fd5b505050506040513d601f19601f820116820180604052508101906103d79190610ca2565b90506103e4828583610875565b95945050505050565b6000806000836001600160a01b0316630902f1ac6040518163ffffffff1660e01b8152600401606060405180830381865afa158015610430573d6000803e3d6000fd5b505050506040513d601f19601f820116820180604052508101906104549190610a72565b506dffffffffffffffffffffffffffff1691506dffffffffffffffffffffffffffff169150600080856001600160a01b03166332bfe4696040518163ffffffff1660e01b81526004016040805180830381865afa1580156104b9573d6000803e3d6000fd5b505050506040513d601f19601f820116820180604052508101906104dd9190610ab5565b9150915060008060008060008a6001600160a01b0316630dfe16816040518163ffffffff1660e01b8152600401602060405180830381865afa158015610527573d6000803e3d6000fd5b505050506040513d601f19601f8201168201806040525081019061054b9190610ae8565b6001600160a01b03167f00000000000000000000000000000000000000000000000000000000000000006001600160a01b0316146105ee578a6001600160a01b0316630dfe16816040518163ffffffff1660e01b8152600401602060405180830381865afa1580156105c1573d6000803e3d6000fd5b505050506040513d601f19601f820116820180604052508101906105e59190610ae8565b89898989610655565b8a6001600160a01b031663d21220a76040518163ffffffff1660e01b8152600401602060405180830381865afa15801561062c573d6000803e3d6000fd5b505050506040513d601f19601f820116820180604052508101906106509190610ae8565b888a888a5b9450945094509450945060008b6001600160a01b031663313ce5676040518163ffffffff1660e01b8152600401602060405180830381865afa15801561069f573d6000803e3d6000fd5b505050506040513d601f19601f820116820180604052508101906106c39190610b05565b7f00000000000000000000000000000000000000000000000000000000000000006001600160a01b031663313ce5676040518163ffffffff1660e01b8152600401602060405180830381865afa158015610721573d6000803e3d6000fd5b505050506040513d601f19601f820116820180604052508101906107459190610b05565b876001600160a01b031663313ce5676040518163ffffffff1660e01b8152600401602060405180830381865afa158015610783573d6000803e3d6000fd5b505050506040513d601f19601f820116820180604052508101906107a79190610b05565b6107b19190610cbb565b6107bb9190610ce0565b60ff1690508263ffffffff168263ffffffff16106108305761081e6107e182600a610d03565b8463ffffffff16868563ffffffff16896107fb9190610c33565b6108059190610c33565b61080f9190610c68565b6108199190610c68565b6108c0565b610829906002610c33565b9a50610866565b61085861083e82600a610d03565b8363ffffffff16868663ffffffff16896107fb9190610c33565b610863906002610c33565b9a505b50505050505050505050919050565b6000610882848484610930565b90506000828061089457610894610c52565b84860911156108b95760001981106108ab57600080fd5b806108b581610d0f565b9150505b9392505050565b6000600382111561092157508060006108da600283610c68565b6108e5906001610c8a565b90505b8181101561091b579050806002816109008186610c68565b61090a9190610c8a565b6109149190610c68565b90506108e8565b50919050565b811561092b575060015b919050565b60008080600019858709858702925082811083820303915050806000141561096a576000841161095f57600080fd5b5082900490506108b9565b80841161097657600080fd5b60008486880960026001871981018816978890046003810283188082028403028082028403028082028403028082028403028082028403029081029092039091026000889003889004909101858311909403939093029303949094049190911702949350505050565b6001600160a01b03811681146109f457600080fd5b50565b600060208284031215610a0957600080fd5b81356108b9816109df565b60008060408385031215610a2757600080fd5b8235610a32816109df565b946020939093013593505050565b80516dffffffffffffffffffffffffffff8116811461092b57600080fd5b805163ffffffff8116811461092b57600080fd5b600080600060608486031215610a8757600080fd5b610a9084610a40565b9250610a9e60208501610a40565b9150610aac60408501610a5e565b90509250925092565b60008060408385031215610ac857600080fd5b610ad183610a5e565b9150610adf60208401610a5e565b90509250929050565b600060208284031215610afa57600080fd5b81516108b9816109df565b600060208284031215610b1757600080fd5b815160ff811681146108b957600080fd5b634e487b7160e01b600052601160045260246000fd5b600181815b80851115610b79578160001904821115610b5f57610b5f610b28565b80851615610b6c57918102915b93841c9390800290610b43565b509250929050565b600082610b9057506001610c1e565b81610b9d57506000610c1e565b8160018114610bb35760028114610bbd57610bd9565b6001915050610c1e565b60ff841115610bce57610bce610b28565b50506001821b610c1e565b5060208310610133831016604e8410600b8410161715610bfc575081810a610c1e565b610c068383610b3e565b8060001904821115610c1a57610c1a610b28565b0290505b92915050565b60006108b960ff841683610b81565b6000816000190483118215151615610c4d57610c4d610b28565b500290565b634e487b7160e01b600052601260045260246000fd5b600082610c8557634e487b7160e01b600052601260045260246000fd5b500490565b60008219821115610c9d57610c9d610b28565b500190565b600060208284031215610cb457600080fd5b5051919050565b600060ff821660ff84168060ff03821115610cd857610cd8610b28565b019392505050565b600060ff821660ff841680821015610cfa57610cfa610b28565b90039392505050565b60006108b98383610b81565b6000600019821415610d2357610d23610b28565b506001019056fea264697066735822122000f712b20a1e8f06f81ec469a8d87125c1fd9a88ef08d51f0ee321f8b49ea31864736f6c634300080b0033",
  "devdoc": {
    "kind": "dev",
    "methods": {
      "getTotalValue(address)": {
        "params": {
          "_pair": "general pair that has the RequiemSwap interface implemented  - the value is calculated as the geometric average of input and output  - is consistent with the uniswapV2-type case"
        }
      },
      "valuation(address,uint256)": {
        "params": {
          "_pair": "general pair that has the RequiemSwap interface implemented",
          "amount_": "the amount of LP to price in REQT  - is consistent with the uniswapV2-type case"
        }
      }
    },
    "version": 1
  },
  "userdoc": {
    "kind": "user",
    "methods": {
      "getTotalValue(address)": {
        "notice": "note for general pairs the price does not necessarily satisfy the conditon that the lp value consists 50% of the one and the other token since the mid price is the quotient of the reserves. That is not necessarily the case for general pairs, therefore, we have to calculate the price separately and apply it to the reserve amount for conversion - calculates the total liquidity value denominated in the provided token - uses the 1bps ouytput reserves for that calculation to avoid slippage to   have a too large impact - the sencond token input argument is ignored when using pools with only 2 tokens"
      },
      "valuation(address,uint256)": {
        "notice": "- calculates the value in reqt of the input LP amount provided"
      }
    },
    "notice": "Bonding calculator for weighted pairs",
    "version": 1
  },
  "storageLayout": {
    "storage": [],
    "types": null
  }
}