{
  "address": "0x9fE46736679d2D9a65F0992F2272dE9f3c7fa6e0",
  "abi": [
    {
      "inputs": [
        {
          "internalType": "address",
          "name": "_feeToSetter",
          "type": "address"
        },
        {
          "internalType": "address",
          "name": "_formula",
          "type": "address"
        }
      ],
      "stateMutability": "nonpayable",
      "type": "constructor"
    },
    {
      "anonymous": false,
      "inputs": [
        {
          "indexed": true,
          "internalType": "address",
          "name": "token0",
          "type": "address"
        },
        {
          "indexed": true,
          "internalType": "address",
          "name": "token1",
          "type": "address"
        },
        {
          "indexed": false,
          "internalType": "address",
          "name": "pair",
          "type": "address"
        },
        {
          "indexed": false,
          "internalType": "uint32",
          "name": "tokenWeight0",
          "type": "uint32"
        },
        {
          "indexed": false,
          "internalType": "uint32",
          "name": "swapFee",
          "type": "uint32"
        },
        {
          "indexed": false,
          "internalType": "uint256",
          "name": "",
          "type": "uint256"
        }
      ],
      "name": "PairCreated",
      "type": "event"
    },
    {
      "inputs": [],
      "name": "INIT_CODE_HASH",
      "outputs": [
        {
          "internalType": "bytes32",
          "name": "",
          "type": "bytes32"
        }
      ],
      "stateMutability": "view",
      "type": "function"
    },
    {
      "inputs": [
        {
          "internalType": "uint256",
          "name": "",
          "type": "uint256"
        }
      ],
      "name": "allPairs",
      "outputs": [
        {
          "internalType": "address",
          "name": "",
          "type": "address"
        }
      ],
      "stateMutability": "view",
      "type": "function"
    },
    {
      "inputs": [],
      "name": "allPairsLength",
      "outputs": [
        {
          "internalType": "uint256",
          "name": "",
          "type": "uint256"
        }
      ],
      "stateMutability": "view",
      "type": "function"
    },
    {
      "inputs": [
        {
          "internalType": "address",
          "name": "tokenA",
          "type": "address"
        },
        {
          "internalType": "address",
          "name": "tokenB",
          "type": "address"
        },
        {
          "internalType": "uint32",
          "name": "tokenWeightA",
          "type": "uint32"
        },
        {
          "internalType": "uint32",
          "name": "swapFee",
          "type": "uint32"
        }
      ],
      "name": "createPair",
      "outputs": [
        {
          "internalType": "address",
          "name": "pair",
          "type": "address"
        }
      ],
      "stateMutability": "nonpayable",
      "type": "function"
    },
    {
      "inputs": [],
      "name": "feeTo",
      "outputs": [
        {
          "internalType": "address",
          "name": "",
          "type": "address"
        }
      ],
      "stateMutability": "view",
      "type": "function"
    },
    {
      "inputs": [],
      "name": "feeToSetter",
      "outputs": [
        {
          "internalType": "address",
          "name": "",
          "type": "address"
        }
      ],
      "stateMutability": "view",
      "type": "function"
    },
    {
      "inputs": [],
      "name": "formula",
      "outputs": [
        {
          "internalType": "address",
          "name": "",
          "type": "address"
        }
      ],
      "stateMutability": "view",
      "type": "function"
    },
    {
      "inputs": [
        {
          "internalType": "address",
          "name": "tokenA",
          "type": "address"
        },
        {
          "internalType": "address",
          "name": "tokenB",
          "type": "address"
        },
        {
          "internalType": "uint32",
          "name": "tokenWeightA",
          "type": "uint32"
        },
        {
          "internalType": "uint32",
          "name": "swapFee",
          "type": "uint32"
        }
      ],
      "name": "getPair",
      "outputs": [
        {
          "internalType": "address",
          "name": "pair",
          "type": "address"
        }
      ],
      "stateMutability": "view",
      "type": "function"
    },
    {
      "inputs": [
        {
          "internalType": "contract IERC20",
          "name": "token0",
          "type": "address"
        },
        {
          "internalType": "contract IERC20",
          "name": "token1",
          "type": "address"
        }
      ],
      "name": "getPairs",
      "outputs": [
        {
          "internalType": "address[]",
          "name": "_tokenPairs",
          "type": "address[]"
        }
      ],
      "stateMutability": "view",
      "type": "function"
    },
    {
      "inputs": [
        {
          "internalType": "address",
          "name": "pair",
          "type": "address"
        }
      ],
      "name": "getWeightsAndSwapFee",
      "outputs": [
        {
          "internalType": "uint32",
          "name": "tokenWeight0",
          "type": "uint32"
        },
        {
          "internalType": "uint32",
          "name": "tokenWeight1",
          "type": "uint32"
        },
        {
          "internalType": "uint32",
          "name": "swapFee",
          "type": "uint32"
        }
      ],
      "stateMutability": "view",
      "type": "function"
    },
    {
      "inputs": [
        {
          "internalType": "address",
          "name": "b",
          "type": "address"
        }
      ],
      "name": "isPair",
      "outputs": [
        {
          "internalType": "bool",
          "name": "",
          "type": "bool"
        }
      ],
      "stateMutability": "view",
      "type": "function"
    },
    {
      "inputs": [],
      "name": "protocolFee",
      "outputs": [
        {
          "internalType": "uint256",
          "name": "",
          "type": "uint256"
        }
      ],
      "stateMutability": "view",
      "type": "function"
    },
    {
      "inputs": [
        {
          "internalType": "address",
          "name": "_feeTo",
          "type": "address"
        }
      ],
      "name": "setFeeTo",
      "outputs": [],
      "stateMutability": "nonpayable",
      "type": "function"
    },
    {
      "inputs": [
        {
          "internalType": "address",
          "name": "_feeToSetter",
          "type": "address"
        }
      ],
      "name": "setFeeToSetter",
      "outputs": [],
      "stateMutability": "nonpayable",
      "type": "function"
    },
    {
      "inputs": [
        {
          "internalType": "uint256",
          "name": "_protocolFee",
          "type": "uint256"
        }
      ],
      "name": "setProtocolFee",
      "outputs": [],
      "stateMutability": "nonpayable",
      "type": "function"
    }
  ],
  "transactionHash": "0x39e9e6494cae2c7e9946cfa54b31197a206f2017c774de1d3556a426d55c4cb8",
  "args": [
    "0xf39Fd6e51aad88F6F4ce6aB8827279cffFb92266",
    "0xe7f1725E7734CE288F8367e1Bb143E90bb3F0512"
  ],
  "solcInputHash": "ce760b56614457a376a7b8e9b0597356",
  "bytecode": "0x608060405234801561001057600080fd5b506040516144fc3803806144fc83398101604081905261002f9161007c565b600380546001600160a01b039384166001600160a01b031991821617909155600180549290931691161790556100af565b80516001600160a01b038116811461007757600080fd5b919050565b6000806040838503121561008f57600080fd5b61009883610060565b91506100a660208401610060565b90509250929050565b61443e806100be6000396000f3fe608060405234801561001057600080fd5b50600436106100f55760003560e01c8063574f2ba311610097578063bfd63f4d11610066578063bfd63f4d146101e5578063ca222979146101f8578063e5e31b1314610232578063f46901ed1461027757600080fd5b8063574f2ba3146101ac578063787dce3d146101b4578063a2e74af6146101c9578063b0e21e8a146101dc57600080fd5b806316093fad116100d357806316093fad146101505780631e3dd18b14610170578063257671f5146101835780634b75f54f1461019957600080fd5b8063017e7e58146100fa578063094b74151461012a57806314572adb1461013d575b600080fd5b60005461010d906001600160a01b031681565b6040516001600160a01b0390911681526020015b60405180910390f35b60035461010d906001600160a01b031681565b61010d61014b366004610d31565b61028a565b61016361015e366004610d89565b61077f565b6040516101219190610dc2565b61010d61017e366004610e0f565b61086b565b61018b610895565b604051908152602001610121565b60015461010d906001600160a01b031681565b60055461018b565b6101c76101c2366004610e0f565b6108df565b005b6101c76101d7366004610e28565b610990565b61018b60025481565b61010d6101f3366004610d31565b610a02565b61020b610206366004610e28565b610adc565b6040805163ffffffff94851681529284166020840152921691810191909152606001610121565b610267610240366004610e28565b6001600160a01b031660009081526006602052604090205467ffffffffffffffff16151590565b6040519015158152602001610121565b6101c7610285366004610e28565b610b45565b6000836001600160a01b0316856001600160a01b031614156102f35760405162461bcd60e51b815260206004820152600760248201527f524c503a2049410000000000000000000000000000000000000000000000000060448201526064015b60405180910390fd5b60028363ffffffff1610158015610311575060628363ffffffff1611155b801561032b5750610323600284610e45565b63ffffffff16155b6103775760405162461bcd60e51b815260206004820152600760248201527f524c503a2049570000000000000000000000000000000000000000000000000060448201526064016102ea565b60018263ffffffff161015801561039657506107d08263ffffffff1611155b6103e25760405162461bcd60e51b815260206004820152600860248201527f524c503a2049534600000000000000000000000000000000000000000000000060448201526064016102ea565b6000806000866001600160a01b0316886001600160a01b03161061041257868861040d886064610e8c565b610416565b8787875b919450925090506001600160a01b0383166104735760405162461bcd60e51b815260206004820152600760248201527f524c503a205a410000000000000000000000000000000000000000000000000060448201526064016102ea565b60006040518060200161048590610cf3565b601f1982820381018352601f9091011660408190526bffffffffffffffffffffffff19606087811b8216602084015286901b1660348201527fffffffff0000000000000000000000000000000000000000000000000000000060e085811b8216604884015289901b16604c82015290915060009060500160408051601f198184030181529181528151602092830120600081815260049093529120549091506001600160a01b03161561057a5760405162461bcd60e51b815260206004820152600760248201527f524c503a2050450000000000000000000000000000000000000000000000000060448201526064016102ea565b808251602084016000f56040517fd0f695790000000000000000000000000000000000000000000000000000000081526001600160a01b038781166004830152868116602483015263ffffffff80871660448401528a1660648301529197509087169063d0f6957990608401600060405180830381600087803b15801561060057600080fd5b505af1158015610614573d6000803e3d6000fd5b5050506001600160a01b038087166000908152600760209081526040808320938916835292905220610647915087610bb7565b506001600160a01b0380851660009081526007602090815260408083209389168352929052206106779087610bb7565b506000818152600460209081526040808320805473ffffffffffffffffffffffffffffffffffffffff199081166001600160a01b038c8116918217909355600580546001810182557f036b6384b5eca791c62761152d0c79bb0604c104a5fb6f4eb0703f3154bb3db001805490931682179092558086526006855294839020805463ffffffff8e81168b881b67ffffffff0000000016811767ffffffffffffffff19909316831790935592548551978852928a16958701959095528584015260608501529051919287821692918916917f41f8736f924f57e464ededb08bf71f868f9d142885bbc73a1516db2be21fc4289181900360800190a3505050505050949350505050565b6001600160a01b038281166000908152600760209081526040808320938516835292905220546060908067ffffffffffffffff8111156107c1576107c1610eb1565b6040519080825280602002602001820160405280156107ea578160200160208202803683370190505b50915060005b81811015610863576001600160a01b0380861660009081526007602090815260408083209388168352929052206108279082610c38565b83828151811061083957610839610ec7565b6001600160a01b03909216602092830291909101909101528061085b81610edd565b9150506107f0565b505092915050565b6005818154811061087b57600080fd5b6000918252602090912001546001600160a01b0316905081565b6040516108a460208201610cf3565b601f1982820381018352601f9091011660408190526108c69190602001610ef8565b6040516020818303038152906040528051906020012081565b6003546001600160a01b031633146109225760405162461bcd60e51b81526020600482015260066024820152652926281d102360d11b60448201526064016102ea565b80158061093f5750612710811015801561093f5750620186a08111155b61098b5760405162461bcd60e51b815260206004820152600860248201527f524c503a2049504600000000000000000000000000000000000000000000000060448201526064016102ea565b600255565b6003546001600160a01b031633146109d35760405162461bcd60e51b81526020600482015260066024820152652926281d102360d11b60448201526064016102ea565b6003805473ffffffffffffffffffffffffffffffffffffffff19166001600160a01b0392909216919091179055565b600080600080866001600160a01b0316886001600160a01b031610610a33578688610a2e886064610e8c565b610a37565b8787875b6040516bffffffffffffffffffffffff19606085811b8216602084015284901b1660348201527fffffffff0000000000000000000000000000000000000000000000000000000060e083811b821660488401528a901b16604c820152929550909350915060009060500160408051601f198184030181529181528151602092830120600090815260049092529020546001600160a01b03169998505050505050505050565b6001600160a01b0381166000908152600660205260408120548190819067ffffffffffffffff168015610b2b5763ffffffff602082901c169350905080610b24846064610e8c565b9250610b3c565b603280601e93509350935050610b3e565b505b9193909250565b6003546001600160a01b03163314610b885760405162461bcd60e51b81526020600482015260066024820152652926281d102360d11b60448201526064016102ea565b6000805473ffffffffffffffffffffffffffffffffffffffff19166001600160a01b0392909216919091179055565b6001600160a01b0381166000908152600183016020526040812054610c2e575081546001808201845560008481526020808220909301805473ffffffffffffffffffffffffffffffffffffffff19166001600160a01b03861690811790915585549082528286019093526040902091909155610c32565b5060005b92915050565b8154600090610c4a9083106064610c5b565b610c548383610c6d565b9392505050565b81610c6957610c6981610ca0565b5050565b6000826000018281548110610c8457610c84610ec7565b6000918252602090912001546001600160a01b03169392505050565b62461bcd60e51b6000908152602060045260076024526652455123000030600a808404818106603090810160081b95839006959095019082900491820690940160101b939093010160c81b604452606490fd5b6134d580610f3483390190565b6001600160a01b0381168114610d1557600080fd5b50565b803563ffffffff81168114610d2c57600080fd5b919050565b60008060008060808587031215610d4757600080fd5b8435610d5281610d00565b93506020850135610d6281610d00565b9250610d7060408601610d18565b9150610d7e60608601610d18565b905092959194509250565b60008060408385031215610d9c57600080fd5b8235610da781610d00565b91506020830135610db781610d00565b809150509250929050565b6020808252825182820181905260009190848201906040850190845b81811015610e035783516001600160a01b031683529284019291840191600101610dde565b50909695505050505050565b600060208284031215610e2157600080fd5b5035919050565b600060208284031215610e3a57600080fd5b8135610c5481610d00565b600063ffffffff80841680610e6a57634e487b7160e01b600052601260045260246000fd5b92169190910692915050565b634e487b7160e01b600052601160045260246000fd5b600063ffffffff83811690831681811015610ea957610ea9610e76565b039392505050565b634e487b7160e01b600052604160045260246000fd5b634e487b7160e01b600052603260045260246000fd5b6000600019821415610ef157610ef1610e76565b5060010190565b6000825160005b81811015610f195760208186018101518583015201610eff565b81811115610f28576000828501525b50919091019291505056fe60806040526001600b5534801561001557600080fd5b50604080518082018252601f81527f5265717569656d2050616972204c69717569646974792050726f7669646572006020918201528151808301835260018152603160f81b9082015281517f8b73c3c69bb8fe3d512ecc4cf759cc79239f7b179b0ffacaa9a75d522b39400f818301527f4d949f5c4c4f80d7bdbde28a36135fecf440532cf0f2bb46c4801ec3299b1062818401527fc89efdaa54c0f20c7adf612882df0950f5a951637e0307cdcb4c672f298b8bc660608201524660808201523060a0808301919091528351808303909101815260c09091019092528151910120600355600580546001600160a01b031916331790556133ba8061011b6000396000f3fe608060405234801561001057600080fd5b50600436106102415760003560e01c80636a62784211610145578063cc56fd43116100bd578063d505accf1161008c578063dd62ed3e11610071578063dd62ed3e146105c7578063e9255bae146105f2578063fff6cae91461060557600080fd5b8063d505accf1461058a578063d54a8d181461059d57600080fd5b8063cc56fd431461052b578063d0f695791461053e578063d21220a714610551578063d4cadf681461056457600080fd5b806395d89b4111610114578063ba9a7a56116100f9578063ba9a7a56146104fc578063bc25cf7714610505578063c45a01551461051857600080fd5b806395d89b41146104ad578063a9059cbb146104e957600080fd5b80636a6278421461043257806370a08231146104455780637ecebe001461046557806389afcb441461048557600080fd5b806330adf81f116101d85780633644e515116101a75780634b75f54f1161018c5780634b75f54f1461040d5780635909c0d5146104205780635a3d54931461042957600080fd5b80633644e515146103f15780634ac00e03146103fa57600080fd5b806330adf81f14610373578063313ce5671461039a57806332bfe469146103b457806332fd5493146103de57600080fd5b80630dfe1681116102145780630dfe16811461030b5780630e6d8bce1461033657806318160ddd1461035757806323b872dd1461036057600080fd5b8063022c0d9f1461024657806306fdde031461025b5780630902f1ac146102ad578063095ea7b3146102e8575b600080fd5b610259610254366004612e9b565b61060d565b005b6102976040518060400160405280601f81526020017f5265717569656d2050616972204c69717569646974792050726f76696465720081525081565b6040516102a49190612f61565b60405180910390f35b600854604080516001600160701b038084168252600160701b8404166020820152600160e01b90920463ffffffff16908201526060016102a4565b6102fb6102f6366004612f94565b61066c565b60405190151581526020016102a4565b60065461031e906001600160a01b031681565b6040516001600160a01b0390911681526020016102a4565b610349610344366004612fc0565b610682565b6040519081526020016102a4565b61034960005481565b6102fb61036e36600461301f565b610857565b6103497f6e71edae12b1b97f4d1f60370fef10105fa2faae0126114a169c64845d6126c981565b6103a2601281565b60405160ff90911681526020016102a4565b600d54600e5460408051600160e01b90930463ffffffff90811684529091166020830152016102a4565b6102596103ec366004612fc0565b6108d1565b61034960035481565b610349610408366004612fc0565b610f1f565b600c5461031e906001600160a01b031681565b61034960095481565b610349600a5481565b610349610440366004613060565b611077565b610349610453366004613060565b60016020526000908152604090205481565b610349610473366004613060565b60046020526000908152604090205481565b610498610493366004613060565b61132a565b604080519283526020830191909152016102a4565b6102976040518060400160405280600481526020017f52504c500000000000000000000000000000000000000000000000000000000081525081565b6102fb6104f7366004612f94565b61167d565b6103496103e881565b610259610513366004613060565b61168a565b60055461031e906001600160a01b031681565b61034961053936600461301f565b6117b8565b61025961054c366004613091565b611904565b60075461031e906001600160a01b031681565b600e54640100000000900463ffffffff1660405163ffffffff90911681526020016102a4565b6102596105983660046130e9565b611ab4565b600d54604080516001600160701b038084168252600160701b9093049092166020830152016102a4565b6103496105d5366004613160565b600260209081526000928352604080842090915290825290205481565b61034961060036600461301f565b611cee565b610259611df1565b600b5460011461064f5760405162461bcd60e51b815260206004820152600860248201526714915453140e881360c21b60448201526064015b60405180910390fd5b6000600b5561065f858585611f30565b50506001600b5550505050565b600061067933848461251e565b50600192915050565b6000600b546001146106c15760405162461bcd60e51b815260206004820152600860248201526714915453140e881360c21b6044820152606401610646565b6000600b8190556006546001600160a01b03888116911614908080808461071557600854600e54600d546001600160701b03600160701b8404811693169163ffffffff90811691600160e01b900416610745565b600854600d54600e546001600160701b0380841693600160701b9004169163ffffffff600160e01b909104811691165b600c54600e54604051630b19210b60e41b81526001600160701b039687169a5094909516975091955093506000926001600160a01b039091169163b19210b0916107da918e918a918a918a918a9163ffffffff64010000000090910416906004019586526020860194909452604085019290925263ffffffff908116606085015290811660808401521660a082015260c00190565b602060405180830381865afa1580156107f7573d6000803e3d6000fd5b505050506040513d601f19601f8201168201806040525081019061081b9190613199565b90506000808761082d57826000610831565b6000835b9150915061084082828c611f30565b6001600b559e9d5050505050505050505050505050565b6001600160a01b0383166000908152600260209081526040808320338452909152812054600019146108bc576001600160a01b0384166000908152600260209081526040808320338452909152812080548492906108b69084906131c8565b90915550505b6108c7848484612580565b5060019392505050565b600b5460011461090e5760405162461bcd60e51b815260206004820152600860248201526714915453140e881360c21b6044820152606401610646565b6000600b81905560065481906001600160a01b0388811691161461093457836000610938565b6000845b91509150600082118061094b5750600081115b6109845760405162461bcd60e51b815260206004820152600a6024820152695245514c503a20494f4160b01b6044820152606401610646565b6008546001600160701b0380821691600160701b90041681841080156109b25750806001600160701b031683105b6109ea5760405162461bcd60e51b815260206004820152600960248201526814915453140e88125360ba1b6044820152606401610646565b60065460075460009182916001600160a01b03918216919081169089168214801590610a285750806001600160a01b0316896001600160a01b031614155b610a605760405162461bcd60e51b815260206004820152600960248201526814915453140e88125560ba1b6044820152606401610646565b8715610a7157610a71828a8a612621565b8615610a8257610a82818a89612621565b6040516370a0823160e01b81523060048201526001600160a01b038316906370a0823190602401602060405180830381865afa158015610ac6573d6000803e3d6000fd5b505050506040513d601f19601f82011682018060405250810190610aea9190613199565b6040516370a0823160e01b81523060048201529094506001600160a01b038216906370a0823190602401602060405180830381865afa158015610b31573d6000803e3d6000fd5b505050506040513d601f19601f82011682018060405250810190610b559190613199565b92505050600086856001600160701b0316610b7091906131c8565b8311610b7d576000610b9a565b610b90876001600160701b0387166131c8565b610b9a90846131c8565b90506000610bb1876001600160701b0387166131c8565b8311610bbe576000610bdb565b610bd1876001600160701b0387166131c8565b610bdb90846131c8565b90506000821180610bec5750600081115b610c255760405162461bcd60e51b815260206004820152600a6024820152695245514c503a2049494160b01b6044820152606401610646565b6000610c33856127106131df565b90506000610c43856127106131df565b90508315610cb857600e54600090610c6990640100000000900463ffffffff16866131df565b9050610c7581846131c8565b600d54909350610c8f9082906001600160701b03166131fe565b600d80546dffffffffffffffffffffffffffff19166001600160701b0392909216919091179055505b8215610d3157600e54600090610cdc90640100000000900463ffffffff16856131df565b9050610ce881836131c8565b600d54909250610d09908290600160701b90046001600160701b03166131fe565b600d600e6101000a8154816001600160701b0302191690836001600160701b03160217905550505b600d54600160e01b900463ffffffff166032811415610db657610d606001600160701b03808a16908b166131df565b610d6e906305f5e1006131df565b610d7883856131df565b1015610db15760405162461bcd60e51b81526020600482015260086024820152675245514c503a204b60c01b6044820152606401610646565b610ea7565b600c546001600160a01b03166379c91b37610ddc6001600160701b038c166127106131df565b610df16001600160701b038c166127106131df565b6040516001600160e01b031960e085901b16815260048101929092526024820152604481018690526064810185905263ffffffff8416608482015260a401602060405180830381865afa158015610e4c573d6000803e3d6000fd5b505050506040513d601f19601f82011682018060405250810190610e709190613216565b610ea75760405162461bcd60e51b81526020600482015260086024820152675245514c503a204b60c01b6044820152606401610646565b505050610eb684848888612785565b6040805183815260208101839052908101899052606081018890526001600160a01b038a169033907fd78ad95fa46c994b6551d0da85fc275fe613ce37657fb8d5e3d130840159d8229060800160405180910390a350506001600b555050505050505050505050565b6000600b54600114610f5e5760405162461bcd60e51b815260206004820152600860248201526714915453140e881360c21b6044820152606401610646565b6000600b8190556006546001600160a01b038881169116149080808084610fb257600854600e54600d546001600160701b03600160701b8404811693169163ffffffff90811691600160e01b900416610fe2565b600854600d54600e546001600160701b0380841693600160701b9004169163ffffffff600160e01b909104811691165b600c54600e5460405163671a11b560e01b81526001600160701b039687169a5094909516975091955093506000926001600160a01b039091169163671a11b5916107da918e918a918a918a918a9163ffffffff64010000000090910416906004019586526020860194909452604085019290925263ffffffff908116606085015290811660808401521660a082015260c00190565b6000600b546001146110b65760405162461bcd60e51b815260206004820152600860248201526714915453140e881360c21b6044820152606401610646565b6000600b819055600854600654604080516370a0823160e01b815230600482015290516001600160701b0380851695600160701b9095041693926001600160a01b0316916370a082319160248083019260209291908290030181865afa158015611124573d6000803e3d6000fd5b505050506040513d601f19601f820116820180604052508101906111489190613199565b6007546040516370a0823160e01b81523060048201529192506000916001600160a01b03909116906370a0823190602401602060405180830381865afa158015611196573d6000803e3d6000fd5b505050506040513d601f19601f820116820180604052508101906111ba9190613199565b905060006111d16001600160701b038616846131c8565b905060006111e86001600160701b038616846131c8565b90506111f486866129ea565b5060005480611230576103e861121261120d84866131df565b612cbb565b61121c91906131c8565b975061122b60006103e8612d2b565b611277565b6112746001600160701b03881661124783866131df565b611251919061324e565b6001600160701b03881661126584866131df565b61126f919061324e565b612db4565b97505b600088116112c75760405162461bcd60e51b815260206004820152600a60248201527f5245514c503a20494c4d000000000000000000000000000000000000000000006044820152606401610646565b6112d18989612d2b565b6112dd85858989612785565b604080518481526020810184905233917f4c209b5fc8ad50758f13e2e1088ba56a560dff690a1c6fef26394f4c03821c4f910160405180910390a250506001600b55509395945050505050565b600080600b5460011461136a5760405162461bcd60e51b815260206004820152600860248201526714915453140e881360c21b6044820152606401610646565b6000600b819055600854600654600754604080516370a0823160e01b815230600482015290516001600160701b0380861696600160701b90960416946001600160a01b0394851694909316929184916370a08231916024808201926020929091908290030181865afa1580156113e4573d6000803e3d6000fd5b505050506040513d601f19601f820116820180604052508101906114089190613199565b6040516370a0823160e01b81523060048201529091506000906001600160a01b038416906370a0823190602401602060405180830381865afa158015611452573d6000803e3d6000fd5b505050506040513d601f19601f820116820180604052508101906114769190613199565b3060009081526001602052604090205490915061149387876129ea565b50600054806114a285846131df565b6114ac919061324e565b9950806114b984846131df565b6114c3919061324e565b985060008a1180156114d55750600089115b6115215760405162461bcd60e51b815260206004820152600a60248201527f5245514c503a20494c42000000000000000000000000000000000000000000006044820152606401610646565b61152b3083612dcc565b611536868c8c612621565b611541858c8b612621565b6040516370a0823160e01b81523060048201526001600160a01b038716906370a0823190602401602060405180830381865afa158015611585573d6000803e3d6000fd5b505050506040513d601f19601f820116820180604052508101906115a99190613199565b6040516370a0823160e01b81523060048201529094506001600160a01b038616906370a0823190602401602060405180830381865afa1580156115f0573d6000803e3d6000fd5b505050506040513d601f19601f820116820180604052508101906116149190613199565b925061162284848a8a612785565b604080518b8152602081018b90526001600160a01b038d169133917fdccd412f0b1252819cb1fd330b93224ca42612892bb3f4f789976e6d81936496910160405180910390a350505050505050506001600b81905550915091565b6000610679338484612580565b600b546001146116c75760405162461bcd60e51b815260206004820152600860248201526714915453140e881360c21b6044820152606401610646565b6000600b556006546007546008546040516370a0823160e01b81523060048201526001600160a01b03938416939092169161176691849186916001600160701b03169083906370a08231906024015b602060405180830381865afa158015611733573d6000803e3d6000fd5b505050506040513d601f19601f820116820180604052508101906117579190613199565b61176191906131c8565b612621565b6008546040516370a0823160e01b81523060048201526117ae9183918691600160701b90046001600160701b0316906001600160a01b038416906370a0823190602401611716565b50506001600b5550565b60065460009081908190819081906001600160a01b0389811691161461180b57600854600e54600d546001600160701b03600160701b8404811693169163ffffffff90811691600160e01b90041661183b565b600854600d54600e546001600160701b0380841693600160701b9004169163ffffffff600160e01b909104811691165b600c54600e54604051630b19210b60e41b8152600481018d90526001600160701b0396871660248201819052959096166044870181905263ffffffff8086166064890152808516608489015264010000000090920490911660a487015293985092965090945092506001600160a01b03169063b19210b09060c4015b602060405180830381865afa1580156118d4573d6000803e3d6000fd5b505050506040513d601f19601f820116820180604052508101906118f89190613199565b98975050505050505050565b6005546001600160a01b0316331461195e5760405162461bcd60e51b815260206004820152600860248201527f5245514c503a20460000000000000000000000000000000000000000000000006044820152606401610646565b6006805473ffffffffffffffffffffffffffffffffffffffff199081166001600160a01b038781169190911790925560078054909116918516919091179055600d80546001600160e01b0316600160e01b63ffffffff858116820292909217928390556119ce9204166064613262565b600e805463ffffffff8481166401000000000267ffffffffffffffff19909216931692909217919091179055600554604080517f4b75f54f00000000000000000000000000000000000000000000000000000000815290516001600160a01b0390921691634b75f54f916004818101926020929091908290030181865afa158015611a5d573d6000803e3d6000fd5b505050506040513d601f19601f82011682018060405250810190611a819190613287565b600c805473ffffffffffffffffffffffffffffffffffffffff19166001600160a01b039290921691909117905550505050565b42841015611b045760405162461bcd60e51b815260206004820152600c60248201527f524c503a204558504952454400000000000000000000000000000000000000006044820152606401610646565b6003546001600160a01b038816600090815260046020526040812080549192917f6e71edae12b1b97f4d1f60370fef10105fa2faae0126114a169c64845d6126c9918b918b918b919087611b57836132a4565b909155506040805160208101969096526001600160a01b0394851690860152929091166060840152608083015260a082015260c0810187905260e00160405160208183030381529060405280519060200120604051602001611beb9291907f190100000000000000000000000000000000000000000000000000000000000081526002810192909252602282015260420190565b60408051601f198184030181528282528051602091820120600080855291840180845281905260ff88169284019290925260608301869052608083018590529092509060019060a0016020604051602081039080840390855afa158015611c56573d6000803e3d6000fd5b5050604051601f1901519150506001600160a01b03811615801590611c8c5750886001600160a01b0316816001600160a01b0316145b611cd85760405162461bcd60e51b815260206004820152600760248201527f524c503a204953000000000000000000000000000000000000000000000000006044820152606401610646565b611ce389898961251e565b505050505050505050565b60065460009081908190819081906001600160a01b03898116911614611d4157600854600e54600d546001600160701b03600160701b8404811693169163ffffffff90811691600160e01b900416611d71565b600854600d54600e546001600160701b0380841693600160701b9004169163ffffffff600160e01b909104811691165b600c54600e5460405163671a11b560e01b8152600481018d90526001600160701b0396871660248201819052959096166044870181905263ffffffff8086166064890152808516608489015264010000000090920490911660a487015293985092965090945092506001600160a01b03169063671a11b59060c4016118b7565b600b54600114611e2e5760405162461bcd60e51b815260206004820152600860248201526714915453140e881360c21b6044820152606401610646565b6000600b556006546040516370a0823160e01b8152306004820152611f29916001600160a01b0316906370a0823190602401602060405180830381865afa158015611e7d573d6000803e3d6000fd5b505050506040513d601f19601f82011682018060405250810190611ea19190613199565b6007546040516370a0823160e01b81523060048201526001600160a01b03909116906370a0823190602401602060405180830381865afa158015611ee9573d6000803e3d6000fd5b505050506040513d601f19601f82011682018060405250810190611f0d9190613199565b6008546001600160701b0380821691600160701b900416612785565b6001600b55565b600080841180611f405750600083115b611f795760405162461bcd60e51b815260206004820152600a6024820152695245514c503a20494f4160b01b6044820152606401610646565b6008546001600160701b0380821691600160701b9004168186108015611fa75750806001600160701b031685105b611fdf5760405162461bcd60e51b815260206004820152600960248201526814915453140e88125360ba1b6044820152606401610646565b60065460075460009182916001600160a01b0391821691908116908816821480159061201d5750806001600160a01b0316886001600160a01b031614155b6120555760405162461bcd60e51b815260206004820152600960248201526814915453140e88125560ba1b6044820152606401610646565b89156120665761206682898c612621565b88156120775761207781898b612621565b6040516370a0823160e01b81523060048201526001600160a01b038316906370a0823190602401602060405180830381865afa1580156120bb573d6000803e3d6000fd5b505050506040513d601f19601f820116820180604052508101906120df9190613199565b6040516370a0823160e01b81523060048201529094506001600160a01b038216906370a0823190602401602060405180830381865afa158015612126573d6000803e3d6000fd5b505050506040513d601f19601f8201168201806040525081019061214a9190613199565b92505050600088856001600160701b031661216591906131c8565b831161217257600061218f565b612185896001600160701b0387166131c8565b61218f90846131c8565b905060006121a6896001600160701b0387166131c8565b83116121b35760006121d0565b6121c6896001600160701b0387166131c8565b6121d090846131c8565b905060008211806121e15750600081115b61221a5760405162461bcd60e51b815260206004820152600a6024820152695245514c503a2049494160b01b6044820152606401610646565b6000612228856127106131df565b90506000612238856127106131df565b905083156122ad57600e5460009061225e90640100000000900463ffffffff16866131df565b905061226a81846131c8565b600d549093506122849082906001600160701b03166131fe565b600d80546dffffffffffffffffffffffffffff19166001600160701b0392909216919091179055505b821561232657600e546000906122d190640100000000900463ffffffff16856131df565b90506122dd81836131c8565b600d549092506122fe908290600160701b90046001600160701b03166131fe565b600d600e6101000a8154816001600160701b0302191690836001600160701b03160217905550505b600d54600160e01b900463ffffffff1660328114156123ab576123556001600160701b03808a16908b166131df565b612363906305f5e1006131df565b61236d83856131df565b10156123a65760405162461bcd60e51b81526020600482015260086024820152675245514c503a204b60c01b6044820152606401610646565b61249c565b600c546001600160a01b03166379c91b376123d16001600160701b038c166127106131df565b6123e66001600160701b038c166127106131df565b6040516001600160e01b031960e085901b16815260048101929092526024820152604481018690526064810185905263ffffffff8416608482015260a401602060405180830381865afa158015612441573d6000803e3d6000fd5b505050506040513d601f19601f820116820180604052508101906124659190613216565b61249c5760405162461bcd60e51b81526020600482015260086024820152675245514c503a204b60c01b6044820152606401610646565b5050506124ab84848888612785565b60408051838152602081018390529081018b9052606081018a90526001600160a01b0389169033907fd78ad95fa46c994b6551d0da85fc275fe613ce37657fb8d5e3d130840159d8229060800160405180910390a360008a1161250e5788612510565b895b9a9950505050505050505050565b6001600160a01b0383811660008181526002602090815260408083209487168084529482529182902085905590518481527f8c5be1e5ebec7d5bd14f71427d1e84f3dd0314c0f7b2291e5b200ac8c7c3b92591015b60405180910390a3505050565b6001600160a01b038316600090815260016020526040812080548392906125a89084906131c8565b90915550506001600160a01b038216600090815260016020526040812080548392906125d59084906131fe565b92505081905550816001600160a01b0316836001600160a01b03167fddf252ad1be2c89b69c2b068fc378daa952ba7f163c4a11628f55a4df523b3ef8360405161257391815260200190565b604080518082018252601981527f7472616e7366657228616464726573732c75696e74323536290000000000000060209182015281516001600160a01b0385811660248301526044808301869052845180840390910181526064909201845291810180516001600160e01b03167fa9059cbb00000000000000000000000000000000000000000000000000000000179052915160009283928716916126c691906132bf565b6000604051808303816000865af19150503d8060008114612703576040519150601f19603f3d011682016040523d82523d6000602084013e612708565b606091505b50915091508180156127325750805115806127325750808060200190518101906127329190613216565b61277e5760405162461bcd60e51b815260206004820152600960248201527f5245514c503a20544600000000000000000000000000000000000000000000006044820152606401610646565b5050505050565b600d54600160e01b900463ffffffff166001600160701b036127a8826064613262565b6127b89063ffffffff16876131df565b111580156127dc57506001600160701b036127d963ffffffff8316866131df565b11155b6128285760405162461bcd60e51b815260206004820152600860248201527f5245514c503a204f0000000000000000000000000000000000000000000000006044820152606401610646565b6000612839640100000000426132db565b60085490915060009061285990600160e01b900463ffffffff1683613262565b905060008163ffffffff1611801561287957506001600160701b03851615155b801561288d57506001600160701b03841615155b1561295157600061289f846064613262565b6128af9063ffffffff16876132ef565b905060006128c363ffffffff8616876132ef565b90508263ffffffff166128e8836128d984612e4f565b6001600160e01b031690612e6e565b6001600160e01b03166128fb91906131df565b6009600082825461290c91906131fe565b909155505063ffffffff8316612925826128d985612e4f565b6001600160e01b031661293891906131df565b600a600082825461294991906131fe565b909155505050505b6008805463ffffffff8416600160e01b026001600160e01b036001600160701b038a8116600160701b9081026001600160e01b03199095168d83161794909417918216831794859055604080519382169282169290921783529290930490911660208201527f1c411e9a96e071241c2f21f7726b17ae89e3cab4c78be50e062b03a9fffbbad1910160405180910390a150505050505050565b600080600560009054906101000a90046001600160a01b03166001600160a01b031663017e7e586040518163ffffffff1660e01b8152600401602060405180830381865afa158015612a40573d6000803e3d6000fd5b505050506040513d601f19601f82011682018060405250810190612a649190613287565b90506000600560009054906101000a90046001600160a01b03166001600160a01b031663b0e21e8a6040518163ffffffff1660e01b8152600401602060405180830381865afa158015612abb573d6000803e3d6000fd5b505050506040513d601f19601f82011682018060405250810190612adf9190613199565b6001600160a01b038316151593509050600080612b10600d546001600160701b0380821692600160701b9092041690565b915091506000836001600160701b0316118015612b2a5750845b8015612b5257506000826001600160701b03161180612b5257506000816001600160701b0316115b15612c5257600d54600c5460008054600160e01b90930463ffffffff169290916001600160a01b0316906392aec23c908b8b86612b90816064613262565b612b9a8c8c61331e565b612ba48d8c61331e565b6040516001600160e01b031960e08a901b16815260048101979097526001600160701b039586166024880152938516604487015263ffffffff928316606487015291166084850152821660a48401521660c482015260e401602060405180830381865afa158015612c19573d6000803e3d6000fd5b505050506040513d601f19601f82011682018060405250810190612c3d9190613199565b90508015612c4f57612c4f8682612d2b565b50505b6001600160701b03821615612c7957600d80546dffffffffffffffffffffffffffff191690555b6001600160701b03811615612cb157600d80547fffffffff0000000000000000000000000000ffffffffffffffffffffffffffff1690555b5050505092915050565b60006003821115612d1c5750806000612cd560028361324e565b612ce09060016131fe565b90505b81811015612d1657905080600281612cfb818661324e565b612d0591906131fe565b612d0f919061324e565b9050612ce3565b50919050565b8115612d26575060015b919050565b80600080828254612d3c91906131fe565b90915550506001600160a01b03821660009081526001602052604081208054839290612d699084906131fe565b90915550506040518181526001600160a01b038316906000907fddf252ad1be2c89b69c2b068fc378daa952ba7f163c4a11628f55a4df523b3ef906020015b60405180910390a35050565b6000818310612dc35781612dc5565b825b9392505050565b6001600160a01b03821660009081526001602052604081208054839290612df49084906131c8565b9250508190555080600080828254612e0c91906131c8565b90915550506040518181526000906001600160a01b038416907fddf252ad1be2c89b69c2b068fc378daa952ba7f163c4a11628f55a4df523b3ef90602001612da8565b6000612e68600160701b6001600160701b038416613344565b92915050565b6000612dc56001600160701b0383168461336a565b6001600160a01b0381168114612e9857600080fd5b50565b600080600080600060808688031215612eb357600080fd5b85359450602086013593506040860135612ecc81612e83565b9250606086013567ffffffffffffffff80821115612ee957600080fd5b818801915088601f830112612efd57600080fd5b813581811115612f0c57600080fd5b896020828501011115612f1e57600080fd5b9699959850939650602001949392505050565b60005b83811015612f4c578181015183820152602001612f34565b83811115612f5b576000848401525b50505050565b6020815260008251806020840152612f80816040850160208701612f31565b601f01601f19169190910160400192915050565b60008060408385031215612fa757600080fd5b8235612fb281612e83565b946020939093013593505050565b600080600080600060a08688031215612fd857600080fd5b8535612fe381612e83565b94506020860135612ff381612e83565b93506040860135925060608601359150608086013561301181612e83565b809150509295509295909350565b60008060006060848603121561303457600080fd5b833561303f81612e83565b9250602084013561304f81612e83565b929592945050506040919091013590565b60006020828403121561307257600080fd5b8135612dc581612e83565b803563ffffffff81168114612d2657600080fd5b600080600080608085870312156130a757600080fd5b84356130b281612e83565b935060208501356130c281612e83565b92506130d06040860161307d565b91506130de6060860161307d565b905092959194509250565b600080600080600080600060e0888a03121561310457600080fd5b873561310f81612e83565b9650602088013561311f81612e83565b95506040880135945060608801359350608088013560ff8116811461314357600080fd5b9699959850939692959460a0840135945060c09093013592915050565b6000806040838503121561317357600080fd5b823561317e81612e83565b9150602083013561318e81612e83565b809150509250929050565b6000602082840312156131ab57600080fd5b5051919050565b634e487b7160e01b600052601160045260246000fd5b6000828210156131da576131da6131b2565b500390565b60008160001904831182151516156131f9576131f96131b2565b500290565b60008219821115613211576132116131b2565b500190565b60006020828403121561322857600080fd5b81518015158114612dc557600080fd5b634e487b7160e01b600052601260045260246000fd5b60008261325d5761325d613238565b500490565b600063ffffffff8381169083168181101561327f5761327f6131b2565b039392505050565b60006020828403121561329957600080fd5b8151612dc581612e83565b60006000198214156132b8576132b86131b2565b5060010190565b600082516132d1818460208701612f31565b9190910192915050565b6000826132ea576132ea613238565b500690565b60006001600160701b0380831681851681830481118215151615613315576133156131b2565b02949350505050565b60006001600160701b038084168061333857613338613238565b92169190910492915050565b60006001600160e01b0380831681851681830481118215151615613315576133156131b2565b60006001600160e01b03808416806133385761333861323856fea264697066735822122030875f9f224017345d29c7fdc613d04443381e9e4a4c34bba8514e4c8c82d98364736f6c634300080b0033a264697066735822122029d5b848427068e6897266d2cb6bfc1b8d622914c215b3e1ccdb64a944ee6a8d64736f6c634300080b0033",
  "devdoc": {
    "kind": "dev",
    "methods": {},
    "version": 1
  },
  "userdoc": {
    "kind": "user",
    "methods": {},
    "version": 1
  },
  "storageLayout": {
    "storage": [
      {
        "astId": 4059,
        "contract": "contracts/test/RequiemWeightedPairFactory_flat.sol:RequiemWeightedPairFactory",
        "label": "feeTo",
        "offset": 0,
        "slot": "0",
        "type": "t_address"
      },
      {
        "astId": 4061,
        "contract": "contracts/test/RequiemWeightedPairFactory_flat.sol:RequiemWeightedPairFactory",
        "label": "formula",
        "offset": 0,
        "slot": "1",
        "type": "t_address"
      },
      {
        "astId": 4063,
        "contract": "contracts/test/RequiemWeightedPairFactory_flat.sol:RequiemWeightedPairFactory",
        "label": "protocolFee",
        "offset": 0,
        "slot": "2",
        "type": "t_uint256"
      },
      {
        "astId": 4065,
        "contract": "contracts/test/RequiemWeightedPairFactory_flat.sol:RequiemWeightedPairFactory",
        "label": "feeToSetter",
        "offset": 0,
        "slot": "3",
        "type": "t_address"
      },
      {
        "astId": 4080,
        "contract": "contracts/test/RequiemWeightedPairFactory_flat.sol:RequiemWeightedPairFactory",
        "label": "_pairSalts",
        "offset": 0,
        "slot": "4",
        "type": "t_mapping(t_bytes32,t_address)"
      },
      {
        "astId": 4083,
        "contract": "contracts/test/RequiemWeightedPairFactory_flat.sol:RequiemWeightedPairFactory",
        "label": "allPairs",
        "offset": 0,
        "slot": "5",
        "type": "t_array(t_address)dyn_storage"
      },
      {
        "astId": 4087,
        "contract": "contracts/test/RequiemWeightedPairFactory_flat.sol:RequiemWeightedPairFactory",
        "label": "_pairs",
        "offset": 0,
        "slot": "6",
        "type": "t_mapping(t_address,t_uint64)"
      },
      {
        "astId": 4096,
        "contract": "contracts/test/RequiemWeightedPairFactory_flat.sol:RequiemWeightedPairFactory",
        "label": "tokenPairs",
        "offset": 0,
        "slot": "7",
        "type": "t_mapping(t_contract(IERC20)90,t_mapping(t_contract(IERC20)90,t_struct(AddressSet)1719_storage))"
      }
    ],
    "types": {
      "t_address": {
        "encoding": "inplace",
        "label": "address",
        "numberOfBytes": "20"
      },
      "t_array(t_address)dyn_storage": {
        "base": "t_address",
        "encoding": "dynamic_array",
        "label": "address[]",
        "numberOfBytes": "32"
      },
      "t_bytes32": {
        "encoding": "inplace",
        "label": "bytes32",
        "numberOfBytes": "32"
      },
      "t_contract(IERC20)90": {
        "encoding": "inplace",
        "label": "contract IERC20",
        "numberOfBytes": "20"
      },
      "t_mapping(t_address,t_uint256)": {
        "encoding": "mapping",
        "key": "t_address",
        "label": "mapping(address => uint256)",
        "numberOfBytes": "32",
        "value": "t_uint256"
      },
      "t_mapping(t_address,t_uint64)": {
        "encoding": "mapping",
        "key": "t_address",
        "label": "mapping(address => uint64)",
        "numberOfBytes": "32",
        "value": "t_uint64"
      },
      "t_mapping(t_bytes32,t_address)": {
        "encoding": "mapping",
        "key": "t_bytes32",
        "label": "mapping(bytes32 => address)",
        "numberOfBytes": "32",
        "value": "t_address"
      },
      "t_mapping(t_contract(IERC20)90,t_mapping(t_contract(IERC20)90,t_struct(AddressSet)1719_storage))": {
        "encoding": "mapping",
        "key": "t_contract(IERC20)90",
        "label": "mapping(contract IERC20 => mapping(contract IERC20 => struct EnumerableSet.AddressSet))",
        "numberOfBytes": "32",
        "value": "t_mapping(t_contract(IERC20)90,t_struct(AddressSet)1719_storage)"
      },
      "t_mapping(t_contract(IERC20)90,t_struct(AddressSet)1719_storage)": {
        "encoding": "mapping",
        "key": "t_contract(IERC20)90",
        "label": "mapping(contract IERC20 => struct EnumerableSet.AddressSet)",
        "numberOfBytes": "32",
        "value": "t_struct(AddressSet)1719_storage"
      },
      "t_struct(AddressSet)1719_storage": {
        "encoding": "inplace",
        "label": "struct EnumerableSet.AddressSet",
        "members": [
          {
            "astId": 1714,
            "contract": "contracts/test/RequiemWeightedPairFactory_flat.sol:RequiemWeightedPairFactory",
            "label": "_values",
            "offset": 0,
            "slot": "0",
            "type": "t_array(t_address)dyn_storage"
          },
          {
            "astId": 1718,
            "contract": "contracts/test/RequiemWeightedPairFactory_flat.sol:RequiemWeightedPairFactory",
            "label": "_indexes",
            "offset": 0,
            "slot": "1",
            "type": "t_mapping(t_address,t_uint256)"
          }
        ],
        "numberOfBytes": "64"
      },
      "t_uint256": {
        "encoding": "inplace",
        "label": "uint256",
        "numberOfBytes": "32"
      },
      "t_uint64": {
        "encoding": "inplace",
        "label": "uint64",
        "numberOfBytes": "8"
      }
    }
  }
}