{
  "address": "0x4A679253410272dd5232B3Ff7cF5dbB88f295319",
  "abi": [
    {
      "inputs": [
        {
          "internalType": "address",
          "name": "_REQT",
          "type": "address"
        },
        {
          "internalType": "address",
          "name": "_principle",
          "type": "address"
        },
        {
          "internalType": "address",
          "name": "_treasury",
          "type": "address"
        },
        {
          "internalType": "address",
          "name": "_DAO",
          "type": "address"
        },
        {
          "internalType": "address",
          "name": "_bondCalculator",
          "type": "address"
        }
      ],
      "stateMutability": "nonpayable",
      "type": "constructor"
    },
    {
      "anonymous": false,
      "inputs": [
        {
          "indexed": false,
          "internalType": "uint256",
          "name": "deposit",
          "type": "uint256"
        },
        {
          "indexed": true,
          "internalType": "uint256",
          "name": "payout",
          "type": "uint256"
        },
        {
          "indexed": true,
          "internalType": "uint256",
          "name": "expires",
          "type": "uint256"
        },
        {
          "indexed": true,
          "internalType": "uint256",
          "name": "priceInUSD",
          "type": "uint256"
        }
      ],
      "name": "BondCreated",
      "type": "event"
    },
    {
      "anonymous": false,
      "inputs": [
        {
          "indexed": true,
          "internalType": "uint256",
          "name": "priceInUSD",
          "type": "uint256"
        },
        {
          "indexed": true,
          "internalType": "uint256",
          "name": "internalPrice",
          "type": "uint256"
        },
        {
          "indexed": true,
          "internalType": "uint256",
          "name": "debtRatio",
          "type": "uint256"
        }
      ],
      "name": "BondPriceChanged",
      "type": "event"
    },
    {
      "anonymous": false,
      "inputs": [
        {
          "indexed": true,
          "internalType": "address",
          "name": "recipient",
          "type": "address"
        },
        {
          "indexed": false,
          "internalType": "uint256",
          "name": "payout",
          "type": "uint256"
        },
        {
          "indexed": false,
          "internalType": "uint256",
          "name": "remaining",
          "type": "uint256"
        }
      ],
      "name": "BondRedeemed",
      "type": "event"
    },
    {
      "anonymous": false,
      "inputs": [
        {
          "indexed": false,
          "internalType": "uint256",
          "name": "initialBCV",
          "type": "uint256"
        },
        {
          "indexed": false,
          "internalType": "uint256",
          "name": "newBCV",
          "type": "uint256"
        },
        {
          "indexed": false,
          "internalType": "uint256",
          "name": "adjustment",
          "type": "uint256"
        },
        {
          "indexed": false,
          "internalType": "bool",
          "name": "addition",
          "type": "bool"
        }
      ],
      "name": "ControlVariableAdjustment",
      "type": "event"
    },
    {
      "anonymous": false,
      "inputs": [
        {
          "indexed": true,
          "internalType": "address",
          "name": "previousOwner",
          "type": "address"
        },
        {
          "indexed": true,
          "internalType": "address",
          "name": "newOwner",
          "type": "address"
        }
      ],
      "name": "OwnershipPulled",
      "type": "event"
    },
    {
      "anonymous": false,
      "inputs": [
        {
          "indexed": true,
          "internalType": "address",
          "name": "previousOwner",
          "type": "address"
        },
        {
          "indexed": true,
          "internalType": "address",
          "name": "newOwner",
          "type": "address"
        }
      ],
      "name": "OwnershipPushed",
      "type": "event"
    },
    {
      "inputs": [],
      "name": "DAO",
      "outputs": [
        {
          "internalType": "address",
          "name": "",
          "type": "address"
        }
      ],
      "stateMutability": "view",
      "type": "function"
    },
    {
      "inputs": [],
      "name": "REQT",
      "outputs": [
        {
          "internalType": "address",
          "name": "",
          "type": "address"
        }
      ],
      "stateMutability": "view",
      "type": "function"
    },
    {
      "inputs": [],
      "name": "adjustment",
      "outputs": [
        {
          "internalType": "bool",
          "name": "add",
          "type": "bool"
        },
        {
          "internalType": "uint256",
          "name": "rate",
          "type": "uint256"
        },
        {
          "internalType": "uint256",
          "name": "target",
          "type": "uint256"
        },
        {
          "internalType": "uint256",
          "name": "buffer",
          "type": "uint256"
        },
        {
          "internalType": "uint256",
          "name": "lastBlock",
          "type": "uint256"
        }
      ],
      "stateMutability": "view",
      "type": "function"
    },
    {
      "inputs": [],
      "name": "bondCalculator",
      "outputs": [
        {
          "internalType": "address",
          "name": "",
          "type": "address"
        }
      ],
      "stateMutability": "view",
      "type": "function"
    },
    {
      "inputs": [
        {
          "internalType": "address",
          "name": "",
          "type": "address"
        }
      ],
      "name": "bondInfo",
      "outputs": [
        {
          "internalType": "uint256",
          "name": "payout",
          "type": "uint256"
        },
        {
          "internalType": "uint256",
          "name": "vesting",
          "type": "uint256"
        },
        {
          "internalType": "uint256",
          "name": "lastBlock",
          "type": "uint256"
        },
        {
          "internalType": "uint256",
          "name": "pricePaid",
          "type": "uint256"
        }
      ],
      "stateMutability": "view",
      "type": "function"
    },
    {
      "inputs": [],
      "name": "bondPrice",
      "outputs": [
        {
          "internalType": "uint256",
          "name": "price_",
          "type": "uint256"
        }
      ],
      "stateMutability": "view",
      "type": "function"
    },
    {
      "inputs": [],
      "name": "bondPriceInUSD",
      "outputs": [
        {
          "internalType": "uint256",
          "name": "price_",
          "type": "uint256"
        }
      ],
      "stateMutability": "view",
      "type": "function"
    },
    {
      "inputs": [],
      "name": "currentDebt",
      "outputs": [
        {
          "internalType": "uint256",
          "name": "",
          "type": "uint256"
        }
      ],
      "stateMutability": "view",
      "type": "function"
    },
    {
      "inputs": [],
      "name": "debtDecay",
      "outputs": [
        {
          "internalType": "uint256",
          "name": "decay_",
          "type": "uint256"
        }
      ],
      "stateMutability": "view",
      "type": "function"
    },
    {
      "inputs": [],
      "name": "debtRatio",
      "outputs": [
        {
          "internalType": "uint256",
          "name": "debtRatio_",
          "type": "uint256"
        }
      ],
      "stateMutability": "view",
      "type": "function"
    },
    {
      "inputs": [
        {
          "internalType": "uint256",
          "name": "_amount",
          "type": "uint256"
        },
        {
          "internalType": "uint256",
          "name": "_maxPrice",
          "type": "uint256"
        },
        {
          "internalType": "address",
          "name": "_depositor",
          "type": "address"
        }
      ],
      "name": "deposit",
      "outputs": [
        {
          "internalType": "uint256",
          "name": "",
          "type": "uint256"
        }
      ],
      "stateMutability": "nonpayable",
      "type": "function"
    },
    {
      "inputs": [
        {
          "internalType": "uint256",
          "name": "_controlVariable",
          "type": "uint256"
        },
        {
          "internalType": "uint256",
          "name": "_vestingTerm",
          "type": "uint256"
        },
        {
          "internalType": "uint256",
          "name": "_minimumPrice",
          "type": "uint256"
        },
        {
          "internalType": "uint256",
          "name": "_maxPayout",
          "type": "uint256"
        },
        {
          "internalType": "uint256",
          "name": "_fee",
          "type": "uint256"
        },
        {
          "internalType": "uint256",
          "name": "_maxDebt",
          "type": "uint256"
        },
        {
          "internalType": "uint256",
          "name": "_initialDebt",
          "type": "uint256"
        }
      ],
      "name": "initializeBondTerms",
      "outputs": [],
      "stateMutability": "nonpayable",
      "type": "function"
    },
    {
      "inputs": [],
      "name": "isLiquidityBond",
      "outputs": [
        {
          "internalType": "bool",
          "name": "",
          "type": "bool"
        }
      ],
      "stateMutability": "view",
      "type": "function"
    },
    {
      "inputs": [],
      "name": "lastDecay",
      "outputs": [
        {
          "internalType": "uint256",
          "name": "",
          "type": "uint256"
        }
      ],
      "stateMutability": "view",
      "type": "function"
    },
    {
      "inputs": [],
      "name": "maxPayout",
      "outputs": [
        {
          "internalType": "uint256",
          "name": "",
          "type": "uint256"
        }
      ],
      "stateMutability": "view",
      "type": "function"
    },
    {
      "inputs": [
        {
          "internalType": "uint256",
          "name": "_value",
          "type": "uint256"
        }
      ],
      "name": "payoutFor",
      "outputs": [
        {
          "internalType": "uint256",
          "name": "",
          "type": "uint256"
        }
      ],
      "stateMutability": "view",
      "type": "function"
    },
    {
      "inputs": [
        {
          "internalType": "address",
          "name": "_depositor",
          "type": "address"
        }
      ],
      "name": "pendingPayoutFor",
      "outputs": [
        {
          "internalType": "uint256",
          "name": "pendingPayout_",
          "type": "uint256"
        }
      ],
      "stateMutability": "view",
      "type": "function"
    },
    {
      "inputs": [
        {
          "internalType": "address",
          "name": "_depositor",
          "type": "address"
        }
      ],
      "name": "percentVestedFor",
      "outputs": [
        {
          "internalType": "uint256",
          "name": "percentVested_",
          "type": "uint256"
        }
      ],
      "stateMutability": "view",
      "type": "function"
    },
    {
      "inputs": [],
      "name": "policy",
      "outputs": [
        {
          "internalType": "address",
          "name": "",
          "type": "address"
        }
      ],
      "stateMutability": "view",
      "type": "function"
    },
    {
      "inputs": [],
      "name": "principle",
      "outputs": [
        {
          "internalType": "address",
          "name": "",
          "type": "address"
        }
      ],
      "stateMutability": "view",
      "type": "function"
    },
    {
      "inputs": [],
      "name": "pullManagement",
      "outputs": [],
      "stateMutability": "nonpayable",
      "type": "function"
    },
    {
      "inputs": [
        {
          "internalType": "address",
          "name": "newOwner_",
          "type": "address"
        }
      ],
      "name": "pushManagement",
      "outputs": [],
      "stateMutability": "nonpayable",
      "type": "function"
    },
    {
      "inputs": [
        {
          "internalType": "address",
          "name": "_token",
          "type": "address"
        }
      ],
      "name": "recoverLostToken",
      "outputs": [
        {
          "internalType": "bool",
          "name": "",
          "type": "bool"
        }
      ],
      "stateMutability": "nonpayable",
      "type": "function"
    },
    {
      "inputs": [
        {
          "internalType": "address",
          "name": "_recipient",
          "type": "address"
        },
        {
          "internalType": "bool",
          "name": "_stake",
          "type": "bool"
        }
      ],
      "name": "redeem",
      "outputs": [
        {
          "internalType": "uint256",
          "name": "",
          "type": "uint256"
        }
      ],
      "stateMutability": "nonpayable",
      "type": "function"
    },
    {
      "inputs": [],
      "name": "renounceManagement",
      "outputs": [],
      "stateMutability": "nonpayable",
      "type": "function"
    },
    {
      "inputs": [
        {
          "internalType": "bool",
          "name": "_addition",
          "type": "bool"
        },
        {
          "internalType": "uint256",
          "name": "_increment",
          "type": "uint256"
        },
        {
          "internalType": "uint256",
          "name": "_target",
          "type": "uint256"
        },
        {
          "internalType": "uint256",
          "name": "_buffer",
          "type": "uint256"
        }
      ],
      "name": "setAdjustment",
      "outputs": [],
      "stateMutability": "nonpayable",
      "type": "function"
    },
    {
      "inputs": [
        {
          "internalType": "enum RequiemQBondDepository.PARAMETER",
          "name": "_parameter",
          "type": "uint8"
        },
        {
          "internalType": "uint256",
          "name": "_input",
          "type": "uint256"
        }
      ],
      "name": "setBondTerms",
      "outputs": [],
      "stateMutability": "nonpayable",
      "type": "function"
    },
    {
      "inputs": [
        {
          "internalType": "address",
          "name": "_staking",
          "type": "address"
        },
        {
          "internalType": "bool",
          "name": "_helper",
          "type": "bool"
        }
      ],
      "name": "setStaking",
      "outputs": [],
      "stateMutability": "nonpayable",
      "type": "function"
    },
    {
      "inputs": [],
      "name": "staking",
      "outputs": [
        {
          "internalType": "address",
          "name": "",
          "type": "address"
        }
      ],
      "stateMutability": "view",
      "type": "function"
    },
    {
      "inputs": [],
      "name": "stakingHelper",
      "outputs": [
        {
          "internalType": "address",
          "name": "",
          "type": "address"
        }
      ],
      "stateMutability": "view",
      "type": "function"
    },
    {
      "inputs": [],
      "name": "standardizedDebtRatio",
      "outputs": [
        {
          "internalType": "uint256",
          "name": "",
          "type": "uint256"
        }
      ],
      "stateMutability": "view",
      "type": "function"
    },
    {
      "inputs": [],
      "name": "terms",
      "outputs": [
        {
          "internalType": "uint256",
          "name": "controlVariable",
          "type": "uint256"
        },
        {
          "internalType": "uint256",
          "name": "vestingTerm",
          "type": "uint256"
        },
        {
          "internalType": "uint256",
          "name": "minimumPrice",
          "type": "uint256"
        },
        {
          "internalType": "uint256",
          "name": "maxPayout",
          "type": "uint256"
        },
        {
          "internalType": "uint256",
          "name": "fee",
          "type": "uint256"
        },
        {
          "internalType": "uint256",
          "name": "maxDebt",
          "type": "uint256"
        }
      ],
      "stateMutability": "view",
      "type": "function"
    },
    {
      "inputs": [],
      "name": "totalDebt",
      "outputs": [
        {
          "internalType": "uint256",
          "name": "",
          "type": "uint256"
        }
      ],
      "stateMutability": "view",
      "type": "function"
    },
    {
      "inputs": [],
      "name": "treasury",
      "outputs": [
        {
          "internalType": "address",
          "name": "",
          "type": "address"
        }
      ],
      "stateMutability": "view",
      "type": "function"
    },
    {
      "inputs": [],
      "name": "useHelper",
      "outputs": [
        {
          "internalType": "bool",
          "name": "",
          "type": "bool"
        }
      ],
      "stateMutability": "view",
      "type": "function"
    },
    {
      "inputs": [],
      "name": "viewBondData",
      "outputs": [
        {
          "internalType": "uint256",
          "name": "_bondPrice_",
          "type": "uint256"
        },
        {
          "internalType": "uint256",
          "name": "_bondPriceInUsd_",
          "type": "uint256"
        },
        {
          "internalType": "uint256",
          "name": "_currentDebt_",
          "type": "uint256"
        }
      ],
      "stateMutability": "view",
      "type": "function"
    }
  ],
  "transactionHash": "0xe0a50d38591848e331d0135cc1536e5813c499df051209ce4db20a85d45e61c0",
  "args": [
    "0x610178dA211FEF7D417bC0e6FeD39F05609AD788",
    "0x7A9d6D59A86dA96a912030bf3F0E373B3f71a50c",
    "0xa85233C63b9Ee964Add6F2cffe00Fd84eb32338f",
    "0xf39Fd6e51aad88F6F4ce6aB8827279cffFb92266",
    "0x3Aa5ebB10DC797CAC828524e59A333d0A371443c"
  ],
  "solcInputHash": "0f20472ed843c15e57cd0f08d39ae87b",
  "bytecode": "0x6101406040523480156200001257600080fd5b5060405162002f3b38038062002f3b833981016040819052620000359162000118565b600080546001600160a01b0319163390811782556040519091907fea8258f2d9ddb679928cf34b78cf645b7feda9acc828e4dd82d014eaae270eba908290a36001600160a01b0385166200008857600080fd5b6001600160a01b038086166080528416620000a257600080fd5b6001600160a01b0380851660a0528316620000bc57600080fd5b6001600160a01b0380841660c0528216620000d657600080fd5b6001600160a01b0391821660e052166101208190521515610100525062000188915050565b80516001600160a01b03811681146200011357600080fd5b919050565b600080600080600060a086880312156200013157600080fd5b6200013c86620000fb565b94506200014c60208701620000fb565b93506200015c60408701620000fb565b92506200016c60608701620000fb565b91506200017c60808701620000fb565b90509295509295909350565b60805160a05160c05160e0516101005161012051612c91620002aa600039600081816104da01528181610cce015281816112540152611b400152600081816105bc01528181610c68015281816111ee0152611a450152600081816104a0015281816118e20152611c6d015260008181610415015281816115130152818161173c015261183f01526000818161026601528181610ca301528181610d6201528181611229015281816112e1015281816114e1015281816116fd0152818161176b0152818161181001528181611b180152611bfe0152600081816102cb015281816118c001528181611a6b01528181611bbf01528181611d0001528181611d9301528181611fae015281816120a20152818161215001526122540152612c916000f3fe608060405234801561001057600080fd5b506004361061025c5760003560e01c806377b8189511610145578063cea55f57116100bd578063d7ccfb0b1161008c578063e392a26211610071578063e392a262146105ee578063f5c2ab5b146105f6578063fc7b9c18146105ff57600080fd5b8063d7ccfb0b146105de578063e0176de8146105e657600080fd5b8063cea55f5714610551578063d4d863ce14610559578063d50256251461056c578063d7969060146105b757600080fd5b8063904b3ece11610114578063b4abccba116100f9578063b4abccba146104c2578063c5332b7c146104d5578063cd1234b3146104fc57600080fd5b8063904b3ece1461049357806398fabd3a1461049b57600080fd5b806377b81895146104525780637927ebf814610465578063844b5c7c146104785780638dbdbe6d1461048057600080fd5b8063338e4d65116101d8578063507930ec116101a757806361d027b31161018c57806361d027b3146104105780637153500814610437578063759076e51461044a57600080fd5b8063507930ec146103f55780635a96ac0a1461040857600080fd5b8063338e4d6514610365578063451ee4a11461038857806346f68ee9146103cf5780634cf088d9146103e257600080fd5b8063089208d81161022f5780631e321a0f116102145780631e321a0f1461031b5780631feed31f1461032e5780632f3f470a1461034157600080fd5b8063089208d8146102fe5780631a3d00681461030857600080fd5b8063016a42841461026157806301b88ee8146102a557806302bb41e5146102c65780630505c8c9146102ed575b600080fd5b6102887f000000000000000000000000000000000000000000000000000000000000000081565b6040516001600160a01b0390911681526020015b60405180910390f35b6102b86102b33660046128b0565b610608565b60405190815260200161029c565b6102887f000000000000000000000000000000000000000000000000000000000000000081565b6000546001600160a01b0316610288565b610306610662565b005b6103066103163660046128d9565b610718565b610306610329366004612914565b610828565b6102b861033c366004612944565b610a21565b60035461035590600160a01b900460ff1681565b604051901515815260200161029c565b61036d610c06565b6040805193845260208401929092529082015260600161029c565b600a54600b54600c54600d54600e546103a59460ff169392919085565b6040805195151586526020860194909452928401919091526060830152608082015260a00161029c565b6103066103dd3660046128b0565b610ded565b600254610288906001600160a01b031681565b6102b86104033660046128b0565b610f2b565b610306610fb7565b6102887f000000000000000000000000000000000000000000000000000000000000000081565b61030661044536600461297b565b6110a5565b6102b86111a1565b600354610288906001600160a01b031681565b6102b86104733660046129c7565b6111bd565b6102b86111ea565b6102b861048e3660046129e0565b61136f565b6102b8611a41565b6102887f000000000000000000000000000000000000000000000000000000000000000081565b6103556104d03660046128b0565b611bbb565b6102887f000000000000000000000000000000000000000000000000000000000000000081565b61053161050a3660046128b0565b600f6020526000908152604090208054600182015460028301546003909301549192909184565b60408051948552602085019390935291830152606082015260800161029c565b6102b8611cfb565b610306610567366004612944565b611e51565b60045460055460065460075460085460095461058a95949392919086565b604080519687526020870195909552938501929092526060840152608083015260a082015260c00161029c565b6103557f000000000000000000000000000000000000000000000000000000000000000081565b6102b8611f59565b6102b8611fa0565b6102b861202e565b6102b860115481565b6102b860105481565b60008061061483610f2b565b6001600160a01b0384166000908152600f602052604090205490915061271082106106415780925061065b565b61271061064e8383612a2b565b6106589190612a4a565b92505b5050919050565b6000546001600160a01b031633146106c15760405162461bcd60e51b815260206004820181905260248201527f4f776e61626c653a2063616c6c6572206973206e6f7420746865206f776e657260448201526064015b60405180910390fd5b600080546040516001600160a01b03909116907fea8258f2d9ddb679928cf34b78cf645b7feda9acc828e4dd82d014eaae270eba908390a36000805473ffffffffffffffffffffffffffffffffffffffff19169055565b6000546001600160a01b031633146107725760405162461bcd60e51b815260206004820181905260248201527f4f776e61626c653a2063616c6c6572206973206e6f7420746865206f776e657260448201526064016106b8565b6004546103e890610784906019612a2b565b61078e9190612a4a565b8311156107dd5760405162461bcd60e51b815260206004820152601360248201527f496e6372656d656e7420746f6f206c617267650000000000000000000000000060448201526064016106b8565b6040805160a0810182529415158086526020860185905290850183905260608501829052436080909501859052600a805460ff19169091179055600b92909255600c55600d55600e55565b6000546001600160a01b031633146108825760405162461bcd60e51b815260206004820181905260248201527f4f776e61626c653a2063616c6c6572206973206e6f7420746865206f776e657260448201526064016106b8565b600082600381111561089657610896612a6c565b1415610919576127108110156109135760405162461bcd60e51b8152602060048201526024808201527f56657374696e67206d757374206265206c6f6e676572207468616e203336206860448201527f6f7572730000000000000000000000000000000000000000000000000000000060648201526084016106b8565b60055550565b600182600381111561092d5761092d612a6c565b141561098b576103e88111156109855760405162461bcd60e51b815260206004820181905260248201527f5061796f75742063616e6e6f742062652061626f766520312070657263656e7460448201526064016106b8565b60075550565b600282600381111561099f5761099f612a6c565b14156109fd576127108111156109f75760405162461bcd60e51b815260206004820152601c60248201527f44414f206665652063616e6e6f7420657863656564207061796f75740000000060448201526064016106b8565b60085550565b6003826003811115610a1157610a11612a6c565b1415610a1d5760098190555b5050565b6001600160a01b0382166000908152600f6020908152604080832081516080810183528154815260018201549381019390935260028101549183019190915260030154606082015281610a7385610f2b565b90506127108110610b05576001600160a01b0385166000818152600f60205260408082208281556001810183905560028101839055600301829055845190517f51c99f515c87b0d95ba97f616edd182e8f161c4932eac17c6fefe9dab58b77b192610ae5928252602082015260400190565b60405180910390a2610afc85858460000151612075565b92505050610c00565b6000612710828460000151610b1a9190612a2b565b610b249190612a4a565b90506040518060800160405280828560000151610b419190612a82565b8152602001846040015143610b569190612a82565b8560200151610b659190612a82565b8152436020808301919091526060868101516040938401526001600160a01b038a166000818152600f8452849020855180825586850151600183015586860151600283015595909201516003909201919091558251858152918201939093527f51c99f515c87b0d95ba97f616edd182e8f161c4932eac17c6fefe9dab58b77b1910160405180910390a2610bfa868683612075565b93505050505b92915050565b6000806000610c1361202e565b601054610c209190612a82565b905062989680610c2e611cfb565b600454610c3b9190612a2b565b610c4990633b9aca00612a99565b610c539190612a4a565b600654909350831015610c665760065492505b7f000000000000000000000000000000000000000000000000000000000000000015610d5e576040516332da80a360e01b81526001600160a01b037f0000000000000000000000000000000000000000000000000000000000000000811660048301526064917f0000000000000000000000000000000000000000000000000000000000000000909116906332da80a390602401602060405180830381865afa158015610d17573d6000803e3d6000fd5b505050506040513d601f19601f82011682018060405250810190610d3b9190612ab1565b610d43611f59565b610d4d9190612a2b565b610d579190612a4a565b9150909192565b60647f00000000000000000000000000000000000000000000000000000000000000006001600160a01b031663313ce5676040518163ffffffff1660e01b8152600401602060405180830381865afa158015610dbe573d6000803e3d6000fd5b505050506040513d601f19601f82011682018060405250810190610de29190612aca565b610d3b90600a612bd1565b6000546001600160a01b03163314610e475760405162461bcd60e51b815260206004820181905260248201527f4f776e61626c653a2063616c6c6572206973206e6f7420746865206f776e657260448201526064016106b8565b6001600160a01b038116610ec35760405162461bcd60e51b815260206004820152602660248201527f4f776e61626c653a206e6577206f776e657220697320746865207a65726f206160448201527f646472657373000000000000000000000000000000000000000000000000000060648201526084016106b8565b600080546040516001600160a01b03808516939216917fea8258f2d9ddb679928cf34b78cf645b7feda9acc828e4dd82d014eaae270eba91a36001805473ffffffffffffffffffffffffffffffffffffffff19166001600160a01b0392909216919091179055565b6001600160a01b0381166000908152600f6020908152604080832081516080810183528154815260018201549381019390935260028101549183018290526003015460608301528290610f7e9043612a82565b60208301519091508015610faa5780610f9983612710612a2b565b610fa39190612a4a565b9350610faf565b600093505b505050919050565b6001546001600160a01b031633146110375760405162461bcd60e51b815260206004820152602260248201527f4f776e61626c653a206d757374206265206e6577206f776e657220746f20707560448201527f6c6c00000000000000000000000000000000000000000000000000000000000060648201526084016106b8565b600154600080546040516001600160a01b0393841693909116917faa151555690c956fc3ea32f106bb9f119b5237a061eaa8557cff3e51e3792c8d91a36001546000805473ffffffffffffffffffffffffffffffffffffffff19166001600160a01b03909216919091179055565b6000546001600160a01b031633146110ff5760405162461bcd60e51b815260206004820181905260248201527f4f776e61626c653a2063616c6c6572206973206e6f7420746865206f776e657260448201526064016106b8565b6004541561114f5760405162461bcd60e51b815260206004820181905260248201527f426f6e6473206d75737420626520696e697469616c697a65642066726f6d203060448201526064016106b8565b6040805160c08101825288815260208101889052908101869052606081018590526080810184905260a00182905260049690965560059490945560069290925560075560085560095560105543601155565b60006111ab61202e565b6010546111b89190612a82565b905090565b6000662386f26fc100006111e06111db846111d6611f59565b612344565b6124a1565b610c009190612a4a565b60007f0000000000000000000000000000000000000000000000000000000000000000156112dd576040516332da80a360e01b81526001600160a01b037f0000000000000000000000000000000000000000000000000000000000000000811660048301526064917f0000000000000000000000000000000000000000000000000000000000000000909116906332da80a390602401602060405180830381865afa15801561129d573d6000803e3d6000fd5b505050506040513d601f19601f820116820180604052508101906112c19190612ab1565b6112c9611f59565b6112d39190612a2b565b6111b89190612a4a565b60647f00000000000000000000000000000000000000000000000000000000000000006001600160a01b031663313ce5676040518163ffffffff1660e01b8152600401602060405180830381865afa15801561133d573d6000803e3d6000fd5b505050506040513d601f19601f820116820180604052508101906113619190612aca565b6112c190600a612bd1565b90565b60006001600160a01b0382166113c75760405162461bcd60e51b815260206004820152600f60248201527f496e76616c69642061646472657373000000000000000000000000000000000060448201526064016106b8565b6113cf6124c1565b60095460105411156114235760405162461bcd60e51b815260206004820152601460248201527f4d6178206361706163697479207265616368656400000000000000000000000060448201526064016106b8565b600061142d6111ea565b905060006114396124e5565b9050808510156114b15760405162461bcd60e51b815260206004820152602360248201527f536c697070616765206c696d69743a206d6f7265207468616e206d617820707260448201527f696365000000000000000000000000000000000000000000000000000000000060648201526084016106b8565b6040517f1eec5a9a0000000000000000000000000000000000000000000000000000000081526001600160a01b037f000000000000000000000000000000000000000000000000000000000000000081166004830152602482018890526000917f000000000000000000000000000000000000000000000000000000000000000090911690631eec5a9a90604401602060405180830381865afa15801561155c573d6000803e3d6000fd5b505050506040513d601f19601f820116820180604052508101906115809190612ab1565b9050600061158d826111bd565b9050629896808110156115e25760405162461bcd60e51b815260206004820152600e60248201527f426f6e6420746f6f20736d616c6c00000000000000000000000000000000000060448201526064016106b8565b6115ea611fa0565b8111156116395760405162461bcd60e51b815260206004820152600e60248201527f426f6e6420746f6f206c6172676500000000000000000000000000000000000060448201526064016106b8565b6008546000906127109061164d9084612a2b565b6116579190612a4a565b90506116638183612a99565b83116116d75760405162461bcd60e51b815260206004820152602260248201527f56414c5545206973206c657373207468616e207061796f757420706c7573206660448201527f656500000000000000000000000000000000000000000000000000000000000060648201526084016106b8565b6000816116e48486612a82565b6116ee9190612a82565b90506117256001600160a01b037f00000000000000000000000000000000000000000000000000000000000000001633308d61253c565b60405163095ea7b360e01b81526001600160a01b037f000000000000000000000000000000000000000000000000000000000000000081166004830152602482018c90527f0000000000000000000000000000000000000000000000000000000000000000169063095ea7b3906044016020604051808303816000875af11580156117b4573d6000803e3d6000fd5b505050506040513d601f19601f820116820180604052508101906117d89190612be0565b506040517fbc157ac1000000000000000000000000000000000000000000000000000000008152600481018b90526001600160a01b037f000000000000000000000000000000000000000000000000000000000000000081166024830152604482018390527f0000000000000000000000000000000000000000000000000000000000000000169063bc157ac1906064016020604051808303816000875af1158015611888573d6000803e3d6000fd5b505050506040513d601f19601f820116820180604052508101906118ac9190612ab1565b508115611907576119076001600160a01b037f0000000000000000000000000000000000000000000000000000000000000000167f0000000000000000000000000000000000000000000000000000000000000000846125de565b836010546119159190612a99565b601055604080516080810182526001600160a01b038a166000908152600f60205291909120548190611948908690612a99565b81526005805460208084019190915243604080850182905260609485018c90526001600160a01b038e166000908152600f845281902086518155928601516001840155850151600283015593909201516003909201919091555487916119ae9190612a99565b847f1fec6dc81f140574bf43f6b1e420ae1dd47928b9d57db8cbd7b8611063b85ae58d6040516119e091815260200190565b60405180910390a46119f0611cfb565b6119f86124e5565b611a006111ea565b6040517f375b221f40939bfd8f49723a17cf7bc6d576ebf72efe2cc3e991826f5b3f390a90600090a4611a31612613565b50909450505050505b9392505050565b60007f000000000000000000000000000000000000000000000000000000000000000015611bb3577f00000000000000000000000000000000000000000000000000000000000000006001600160a01b031663313ce5676040518163ffffffff1660e01b8152600401602060405180830381865afa158015611ac7573d6000803e3d6000fd5b505050506040513d601f19601f82011682018060405250810190611aeb9190612aca565b611af6906012612bfd565b611b0190600a612bd1565b6040516332da80a360e01b81526001600160a01b037f0000000000000000000000000000000000000000000000000000000000000000811660048301527f000000000000000000000000000000000000000000000000000000000000000016906332da80a390602401602060405180830381865afa158015611b87573d6000803e3d6000fd5b505050506040513d601f19601f82011682018060405250810190611bab9190612ab1565b6112c9611cfb565b6111b8611cfb565b60007f00000000000000000000000000000000000000000000000000000000000000006001600160a01b0316826001600160a01b03161415611bfc57600080fd5b7f00000000000000000000000000000000000000000000000000000000000000006001600160a01b0316826001600160a01b03161415611c3b57600080fd5b6040517f70a08231000000000000000000000000000000000000000000000000000000008152306004820152611cf3907f0000000000000000000000000000000000000000000000000000000000000000906001600160a01b038516906370a0823190602401602060405180830381865afa158015611cbe573d6000803e3d6000fd5b505050506040513d601f19601f82011682018060405250810190611ce29190612ab1565b6001600160a01b03851691906125de565b506001919050565b6000807f00000000000000000000000000000000000000000000000000000000000000006001600160a01b03166318160ddd6040518163ffffffff1660e01b8152600401602060405180830381865afa158015611d5c573d6000803e3d6000fd5b505050506040513d601f19601f82011682018060405250810190611d809190612ab1565b9050670de0b6b3a7640000611e416111db7f00000000000000000000000000000000000000000000000000000000000000006001600160a01b031663313ce5676040518163ffffffff1660e01b8152600401602060405180830381865afa158015611def573d6000803e3d6000fd5b505050506040513d601f19601f82011682018060405250810190611e139190612aca565b611e1e906012612bfd565b611e2990600a612bd1565b611e316111a1565b611e3b9190612a2b565b84612344565b611e4b9190612a4a565b91505090565b6000546001600160a01b03163314611eab5760405162461bcd60e51b815260206004820181905260248201527f4f776e61626c653a2063616c6c6572206973206e6f7420746865206f776e657260448201526064016106b8565b6001600160a01b038216611ebe57600080fd5b8015611f0357600380546001600160a01b0384167fffffffffffffffffffffff00000000000000000000000000000000000000000090911617600160a01b1790555050565b600380547fffffffffffffffffffffff00ffffffffffffffffffffffffffffffffffffffff169055600280546001600160a01b03841673ffffffffffffffffffffffffffffffffffffffff199091161790555050565b600062989680611f67611cfb565b600454611f749190612a2b565b611f8290633b9aca00612a99565b611f8c9190612a4a565b60065490915081101561136c575060065490565b6000620186a06004600301547f00000000000000000000000000000000000000000000000000000000000000006001600160a01b03166318160ddd6040518163ffffffff1660e01b8152600401602060405180830381865afa15801561200a573d6000803e3d6000fd5b505050506040513d601f19601f820116820180604052508101906112c99190612ab1565b6000806011544361203f9190612a82565b9050600460010154816010546120559190612a2b565b61205f9190612a4a565b91506010548211156120715760105491505b5090565b6000826121155760405163a9059cbb60e01b81526001600160a01b038581166004830152602482018490527f0000000000000000000000000000000000000000000000000000000000000000169063a9059cbb906044016020604051808303816000875af11580156120eb573d6000803e3d6000fd5b505050506040513d601f19601f8201168201806040525081019061210f9190612be0565b5061233d565b600354600160a01b900460ff161561222b5760035460405163095ea7b360e01b81526001600160a01b039182166004820152602481018490527f00000000000000000000000000000000000000000000000000000000000000009091169063095ea7b3906044016020604051808303816000875af115801561219b573d6000803e3d6000fd5b505050506040513d601f19601f820116820180604052508101906121bf9190612be0565b50600354604051637acb775760e01b8152600481018490526001600160a01b03868116602483015290911690637acb775790604401600060405180830381600087803b15801561220e57600080fd5b505af1158015612222573d6000803e3d6000fd5b5050505061233d565b60025460405163095ea7b360e01b81526001600160a01b039182166004820152602481018490527f00000000000000000000000000000000000000000000000000000000000000009091169063095ea7b3906044016020604051808303816000875af115801561229f573d6000803e3d6000fd5b505050506040513d601f19601f820116820180604052508101906122c39190612be0565b50600254604051637acb775760e01b8152600481018490526001600160a01b03868116602483015290911690637acb7757906044016020604051808303816000875af1158015612317573d6000803e3d6000fd5b505050506040513d601f19601f8201168201806040525081019061233b9190612be0565b505b5092915050565b604080516020810190915260008152600082116123c95760405162461bcd60e51b815260206004820152602660248201527f4669786564506f696e743a3a6672616374696f6e3a206469766973696f6e206260448201527f79207a65726f000000000000000000000000000000000000000000000000000060648201526084016106b8565b826123e35750604080516020810190915260008152610c00565b71ffffffffffffffffffffffffffffffffffff831161248557600061240c83607086901b612a4a565b90506001600160e01b038111156124655760405162461bcd60e51b815260206004820152601e60248201527f4669786564506f696e743a3a6672616374696f6e3a206f766572666c6f77000060448201526064016106b8565b6040518060200160405280826001600160e01b0316815250915050610c00565b600061240c846e010000000000000000000000000000856126f5565b8051600090610c00906612725dd1d243ab906001600160e01b0316612a4a565b6124c961202e565b601060008282546124da9190612a82565b909155505043601155565b6000629896806124f3611cfb565b6004546125009190612a2b565b61250e90633b9aca00612a99565b6125189190612a4a565b60065490915081101561252c575060065490565b6006541561136c57600060065590565b6040516001600160a01b03808516602483015283166044820152606481018290526125d89085907f23b872dd00000000000000000000000000000000000000000000000000000000906084015b60408051601f198184030181529190526020810180516001600160e01b03167fffffffff00000000000000000000000000000000000000000000000000000000909316929092179091526127a4565b50505050565b6040516001600160a01b03831660248201526044810182905261260e90849063a9059cbb60e01b90606401612589565b505050565b600d54600e5460009161262591612a99565b600b54909150158015906126395750804310155b156126f257600454600a5460ff161561267457600b5460045461265c9190612a99565b6004819055600c541161266f576000600b555b612697565b600b546004546126849190612a82565b6004819055600c5410612697576000600b555b43600e55600454600b54600a5460408051858152602081019490945283019190915260ff16151560608201527fb923e581a0f83128e9e1d8297aa52b18d6744310476e0b54509c054cd7a93b2a9060800160405180910390a1505b50565b60008080600019858709858702925082811083820303915050806000141561272f576000841161272457600080fd5b508290049050611a3a565b80841161273b57600080fd5b60008486880960026001871981018816978890046003810283188082028403028082028403028082028403028082028403028082028403029081029092039091026000889003889004909101858311909403939093029303949094049190911702949350505050565b600080836001600160a01b0316836040516127bf9190612c20565b6000604051808303816000865af19150503d80600081146127fc576040519150601f19603f3d011682016040523d82523d6000602084013e612801565b606091505b50915091506000821415612819573d6000803e3d6000fd5b6125d881516000148061283b57508180602001905181019061283b9190612be0565b6101a281610a1d5762461bcd60e51b600090815260206004526007602452600a808304818104828106603090810160101b848706949093060160081b929092010166524551230000300160c81b604452610a1d91606490fd5b80356001600160a01b03811681146128ab57600080fd5b919050565b6000602082840312156128c257600080fd5b611a3a82612894565b80151581146126f257600080fd5b600080600080608085870312156128ef57600080fd5b84356128fa816128cb565b966020860135965060408601359560600135945092505050565b6000806040838503121561292757600080fd5b82356004811061293657600080fd5b946020939093013593505050565b6000806040838503121561295757600080fd5b61296083612894565b91506020830135612970816128cb565b809150509250929050565b600080600080600080600060e0888a03121561299657600080fd5b505085359760208701359750604087013596606081013596506080810135955060a0810135945060c0013592509050565b6000602082840312156129d957600080fd5b5035919050565b6000806000606084860312156129f557600080fd5b8335925060208401359150612a0c60408501612894565b90509250925092565b634e487b7160e01b600052601160045260246000fd5b6000816000190483118215151615612a4557612a45612a15565b500290565b600082612a6757634e487b7160e01b600052601260045260246000fd5b500490565b634e487b7160e01b600052602160045260246000fd5b600082821015612a9457612a94612a15565b500390565b60008219821115612aac57612aac612a15565b500190565b600060208284031215612ac357600080fd5b5051919050565b600060208284031215612adc57600080fd5b815160ff81168114611a3a57600080fd5b600181815b80851115612b28578160001904821115612b0e57612b0e612a15565b80851615612b1b57918102915b93841c9390800290612af2565b509250929050565b600082612b3f57506001610c00565b81612b4c57506000610c00565b8160018114612b625760028114612b6c57612b88565b6001915050610c00565b60ff841115612b7d57612b7d612a15565b50506001821b610c00565b5060208310610133831016604e8410600b8410161715612bab575081810a610c00565b612bb58383612aed565b8060001904821115612bc957612bc9612a15565b029392505050565b6000611a3a60ff841683612b30565b600060208284031215612bf257600080fd5b8151611a3a816128cb565b600060ff821660ff841680821015612c1757612c17612a15565b90039392505050565b6000825160005b81811015612c415760208186018101518583015201612c27565b81811115612c50576000828501525b50919091019291505056fea264697066735822122073c358e53de8a9fe0887fc914e470650b68956bf196d507400a218ce7f0a3d9364736f6c634300080b0033",
  "devdoc": {
    "kind": "dev",
    "methods": {
      "bondPrice()": {
        "returns": {
          "price_": "uint"
        }
      },
      "bondPriceInUSD()": {
        "returns": {
          "price_": "uint"
        }
      },
      "currentDebt()": {
        "returns": {
          "_0": "uint"
        }
      },
      "debtDecay()": {
        "returns": {
          "decay_": "uint"
        }
      },
      "debtRatio()": {
        "returns": {
          "debtRatio_": "uint"
        }
      },
      "deposit(uint256,uint256,address)": {
        "params": {
          "_amount": "uint",
          "_depositor": "address",
          "_maxPrice": "uint"
        },
        "returns": {
          "_0": "uint"
        }
      },
      "initializeBondTerms(uint256,uint256,uint256,uint256,uint256,uint256,uint256)": {
        "params": {
          "_controlVariable": "uint",
          "_fee": "uint",
          "_initialDebt": "uint",
          "_maxDebt": "uint",
          "_maxPayout": "uint",
          "_minimumPrice": "uint",
          "_vestingTerm": "uint"
        }
      },
      "maxPayout()": {
        "returns": {
          "_0": "uint"
        }
      },
      "payoutFor(uint256)": {
        "params": {
          "_value": "uint"
        },
        "returns": {
          "_0": "uint"
        }
      },
      "pendingPayoutFor(address)": {
        "params": {
          "_depositor": "address"
        },
        "returns": {
          "pendingPayout_": "uint"
        }
      },
      "percentVestedFor(address)": {
        "params": {
          "_depositor": "address"
        },
        "returns": {
          "percentVested_": "uint"
        }
      },
      "recoverLostToken(address)": {
        "returns": {
          "_0": "bool"
        }
      },
      "redeem(address,bool)": {
        "params": {
          "_recipient": "address",
          "_stake": "bool"
        },
        "returns": {
          "_0": "uint"
        }
      },
      "setAdjustment(bool,uint256,uint256,uint256)": {
        "params": {
          "_addition": "bool",
          "_buffer": "uint",
          "_increment": "uint",
          "_target": "uint"
        }
      },
      "setBondTerms(uint8,uint256)": {
        "params": {
          "_input": "uint",
          "_parameter": "PARAMETER"
        }
      },
      "setStaking(address,bool)": {
        "params": {
          "_helper": "bool",
          "_staking": "address"
        }
      },
      "standardizedDebtRatio()": {
        "returns": {
          "_0": "uint"
        }
      }
    },
    "version": 1
  },
  "userdoc": {
    "kind": "user",
    "methods": {
      "bondPrice()": {
        "notice": "calculate current bond premium"
      },
      "bondPriceInUSD()": {
        "notice": "converts bond price to DAI value"
      },
      "currentDebt()": {
        "notice": "calculate debt factoring in decay"
      },
      "debtDecay()": {
        "notice": "amount to decay total debt by"
      },
      "debtRatio()": {
        "notice": "calculate current ratio of debt to REQT supply"
      },
      "deposit(uint256,uint256,address)": {
        "notice": "deposit bond"
      },
      "initializeBondTerms(uint256,uint256,uint256,uint256,uint256,uint256,uint256)": {
        "notice": "initializes bond parameters"
      },
      "maxPayout()": {
        "notice": "determine maximum bond size"
      },
      "payoutFor(uint256)": {
        "notice": "calculate interest due for new bond"
      },
      "pendingPayoutFor(address)": {
        "notice": "calculate amount of REQT available for claim by depositor"
      },
      "percentVestedFor(address)": {
        "notice": "calculate how far into vesting a depositor is"
      },
      "recoverLostToken(address)": {
        "notice": "allow anyone to send lost tokens (excluding principle or REQT) to the DAO"
      },
      "redeem(address,bool)": {
        "notice": "redeem bond for user"
      },
      "setAdjustment(bool,uint256,uint256,uint256)": {
        "notice": "set control variable adjustment"
      },
      "setBondTerms(uint8,uint256)": {
        "notice": "set parameters for new bonds"
      },
      "setStaking(address,bool)": {
        "notice": "set contract for auto stake"
      },
      "standardizedDebtRatio()": {
        "notice": "debt ratio in same terms for reserve or liquidity bonds"
      }
    },
    "version": 1
  },
  "storageLayout": {
    "storage": [
      {
        "astId": 11721,
        "contract": "contracts/RequiemQBondDepository.sol:RequiemQBondDepository",
        "label": "_owner",
        "offset": 0,
        "slot": "0",
        "type": "t_address"
      },
      {
        "astId": 11723,
        "contract": "contracts/RequiemQBondDepository.sol:RequiemQBondDepository",
        "label": "_newOwner",
        "offset": 0,
        "slot": "1",
        "type": "t_address"
      },
      {
        "astId": 4900,
        "contract": "contracts/RequiemQBondDepository.sol:RequiemQBondDepository",
        "label": "staking",
        "offset": 0,
        "slot": "2",
        "type": "t_address"
      },
      {
        "astId": 4902,
        "contract": "contracts/RequiemQBondDepository.sol:RequiemQBondDepository",
        "label": "stakingHelper",
        "offset": 0,
        "slot": "3",
        "type": "t_address"
      },
      {
        "astId": 4904,
        "contract": "contracts/RequiemQBondDepository.sol:RequiemQBondDepository",
        "label": "useHelper",
        "offset": 20,
        "slot": "3",
        "type": "t_bool"
      },
      {
        "astId": 4907,
        "contract": "contracts/RequiemQBondDepository.sol:RequiemQBondDepository",
        "label": "terms",
        "offset": 0,
        "slot": "4",
        "type": "t_struct(Terms)4932_storage"
      },
      {
        "astId": 4910,
        "contract": "contracts/RequiemQBondDepository.sol:RequiemQBondDepository",
        "label": "adjustment",
        "offset": 0,
        "slot": "10",
        "type": "t_struct(Adjust)4952_storage"
      },
      {
        "astId": 4915,
        "contract": "contracts/RequiemQBondDepository.sol:RequiemQBondDepository",
        "label": "bondInfo",
        "offset": 0,
        "slot": "15",
        "type": "t_mapping(t_address,t_struct(Bond)4941_storage)"
      },
      {
        "astId": 4917,
        "contract": "contracts/RequiemQBondDepository.sol:RequiemQBondDepository",
        "label": "totalDebt",
        "offset": 0,
        "slot": "16",
        "type": "t_uint256"
      },
      {
        "astId": 4919,
        "contract": "contracts/RequiemQBondDepository.sol:RequiemQBondDepository",
        "label": "lastDecay",
        "offset": 0,
        "slot": "17",
        "type": "t_uint256"
      }
    ],
    "types": {
      "t_address": {
        "encoding": "inplace",
        "label": "address",
        "numberOfBytes": "20"
      },
      "t_bool": {
        "encoding": "inplace",
        "label": "bool",
        "numberOfBytes": "1"
      },
      "t_mapping(t_address,t_struct(Bond)4941_storage)": {
        "encoding": "mapping",
        "key": "t_address",
        "label": "mapping(address => struct RequiemQBondDepository.Bond)",
        "numberOfBytes": "32",
        "value": "t_struct(Bond)4941_storage"
      },
      "t_struct(Adjust)4952_storage": {
        "encoding": "inplace",
        "label": "struct RequiemQBondDepository.Adjust",
        "members": [
          {
            "astId": 4943,
            "contract": "contracts/RequiemQBondDepository.sol:RequiemQBondDepository",
            "label": "add",
            "offset": 0,
            "slot": "0",
            "type": "t_bool"
          },
          {
            "astId": 4945,
            "contract": "contracts/RequiemQBondDepository.sol:RequiemQBondDepository",
            "label": "rate",
            "offset": 0,
            "slot": "1",
            "type": "t_uint256"
          },
          {
            "astId": 4947,
            "contract": "contracts/RequiemQBondDepository.sol:RequiemQBondDepository",
            "label": "target",
            "offset": 0,
            "slot": "2",
            "type": "t_uint256"
          },
          {
            "astId": 4949,
            "contract": "contracts/RequiemQBondDepository.sol:RequiemQBondDepository",
            "label": "buffer",
            "offset": 0,
            "slot": "3",
            "type": "t_uint256"
          },
          {
            "astId": 4951,
            "contract": "contracts/RequiemQBondDepository.sol:RequiemQBondDepository",
            "label": "lastBlock",
            "offset": 0,
            "slot": "4",
            "type": "t_uint256"
          }
        ],
        "numberOfBytes": "160"
      },
      "t_struct(Bond)4941_storage": {
        "encoding": "inplace",
        "label": "struct RequiemQBondDepository.Bond",
        "members": [
          {
            "astId": 4934,
            "contract": "contracts/RequiemQBondDepository.sol:RequiemQBondDepository",
            "label": "payout",
            "offset": 0,
            "slot": "0",
            "type": "t_uint256"
          },
          {
            "astId": 4936,
            "contract": "contracts/RequiemQBondDepository.sol:RequiemQBondDepository",
            "label": "vesting",
            "offset": 0,
            "slot": "1",
            "type": "t_uint256"
          },
          {
            "astId": 4938,
            "contract": "contracts/RequiemQBondDepository.sol:RequiemQBondDepository",
            "label": "lastBlock",
            "offset": 0,
            "slot": "2",
            "type": "t_uint256"
          },
          {
            "astId": 4940,
            "contract": "contracts/RequiemQBondDepository.sol:RequiemQBondDepository",
            "label": "pricePaid",
            "offset": 0,
            "slot": "3",
            "type": "t_uint256"
          }
        ],
        "numberOfBytes": "128"
      },
      "t_struct(Terms)4932_storage": {
        "encoding": "inplace",
        "label": "struct RequiemQBondDepository.Terms",
        "members": [
          {
            "astId": 4921,
            "contract": "contracts/RequiemQBondDepository.sol:RequiemQBondDepository",
            "label": "controlVariable",
            "offset": 0,
            "slot": "0",
            "type": "t_uint256"
          },
          {
            "astId": 4923,
            "contract": "contracts/RequiemQBondDepository.sol:RequiemQBondDepository",
            "label": "vestingTerm",
            "offset": 0,
            "slot": "1",
            "type": "t_uint256"
          },
          {
            "astId": 4925,
            "contract": "contracts/RequiemQBondDepository.sol:RequiemQBondDepository",
            "label": "minimumPrice",
            "offset": 0,
            "slot": "2",
            "type": "t_uint256"
          },
          {
            "astId": 4927,
            "contract": "contracts/RequiemQBondDepository.sol:RequiemQBondDepository",
            "label": "maxPayout",
            "offset": 0,
            "slot": "3",
            "type": "t_uint256"
          },
          {
            "astId": 4929,
            "contract": "contracts/RequiemQBondDepository.sol:RequiemQBondDepository",
            "label": "fee",
            "offset": 0,
            "slot": "4",
            "type": "t_uint256"
          },
          {
            "astId": 4931,
            "contract": "contracts/RequiemQBondDepository.sol:RequiemQBondDepository",
            "label": "maxDebt",
            "offset": 0,
            "slot": "5",
            "type": "t_uint256"
          }
        ],
        "numberOfBytes": "192"
      },
      "t_uint256": {
        "encoding": "inplace",
        "label": "uint256",
        "numberOfBytes": "32"
      }
    }
  }
}