{
  "address": "0x36b58F5C1969B7b6591D752ea6F5486D069010AB",
  "abi": [
    {
      "inputs": [
        {
          "internalType": "address",
          "name": "_REQT",
          "type": "address"
        }
      ],
      "stateMutability": "nonpayable",
      "type": "constructor"
    },
    {
      "inputs": [],
      "name": "REQT",
      "outputs": [
        {
          "internalType": "address",
          "name": "",
          "type": "address"
        }
      ],
      "stateMutability": "view",
      "type": "function"
    },
    {
      "inputs": [
        {
          "internalType": "address",
          "name": "_pair",
          "type": "address"
        }
      ],
      "name": "getTotalValue",
      "outputs": [
        {
          "internalType": "uint256",
          "name": "_value",
          "type": "uint256"
        }
      ],
      "stateMutability": "view",
      "type": "function"
    },
    {
      "inputs": [
        {
          "internalType": "address",
          "name": "_pair",
          "type": "address"
        }
      ],
      "name": "markdown",
      "outputs": [
        {
          "internalType": "uint256",
          "name": "",
          "type": "uint256"
        }
      ],
      "stateMutability": "view",
      "type": "function"
    },
    {
      "inputs": [
        {
          "internalType": "address",
          "name": "_pair",
          "type": "address"
        },
        {
          "internalType": "uint256",
          "name": "amount_",
          "type": "uint256"
        }
      ],
      "name": "valuation",
      "outputs": [
        {
          "internalType": "uint256",
          "name": "_value",
          "type": "uint256"
        }
      ],
      "stateMutability": "view",
      "type": "function"
    }
  ],
  "transactionHash": "0x43441b07d765634f261eaa789f0d6b75ac879b39db25e91ccb5d48257f42a233",
  "args": [
    "0x5eb3Bc0a489C5A8288765d2336659EbCA68FCd00"
  ],
  "solcInputHash": "20b0c07380730d2b85de020056f5e9ea",
  "bytecode": "0x60a060405234801561001057600080fd5b50604051610cce380380610cce83398101604081905261002f91610053565b6001600160a01b03811661004257600080fd5b6001600160a01b0316608052610083565b60006020828403121561006557600080fd5b81516001600160a01b038116811461007c57600080fd5b9392505050565b608051610c156100b96000396000818160560152818161015e0152818161020c0152818161042c01526105910152610c156000f3fe608060405234801561001057600080fd5b506004361061004c5760003560e01c806302bb41e51461005157806332da80a3146100955780634249719f146100b657806368637549146100c9575b600080fd5b6100787f000000000000000000000000000000000000000000000000000000000000000081565b6040516001600160a01b0390911681526020015b60405180910390f35b6100a86100a33660046108ed565b6100dc565b60405190815260200161008c565b6100a86100c436600461090a565b6102bf565b6100a86100d73660046108ed565b61033e565b6000806000836001600160a01b0316630902f1ac6040518163ffffffff1660e01b8152600401606060405180830381865afa15801561011f573d6000803e3d6000fd5b505050506040513d601f19601f82011682018060405250810190610143919061094d565b506001600160701b031691506001600160701b0316915060007f00000000000000000000000000000000000000000000000000000000000000006001600160a01b0316856001600160a01b0316630dfe16816040518163ffffffff1660e01b8152600401602060405180830381865afa1580156101c4573d6000803e3d6000fd5b505050506040513d601f19601f820116820180604052508101906101e8919061099d565b6001600160a01b031614156101fe575080610201565b50815b61020a8561033e565b7f00000000000000000000000000000000000000000000000000000000000000006001600160a01b031663313ce5676040518163ffffffff1660e01b8152600401602060405180830381865afa158015610268573d6000803e3d6000fd5b505050506040513d601f19601f8201168201806040525081019061028c91906109ba565b61029790600a610ad9565b6102a2906002610ae8565b6102ac9083610ae8565b6102b69190610b1d565b95945050505050565b6000806102cb8461033e565b90506000846001600160a01b03166318160ddd6040518163ffffffff1660e01b8152600401602060405180830381865afa15801561030d573d6000803e3d6000fd5b505050506040513d601f19601f820116820180604052508101906103319190610b3f565b90506102b682858361076b565b6000806000836001600160a01b0316630902f1ac6040518163ffffffff1660e01b8152600401606060405180830381865afa158015610381573d6000803e3d6000fd5b505050506040513d601f19601f820116820180604052508101906103a5919061094d565b506001600160701b031691506001600160701b03169150600080856001600160a01b0316630dfe16816040518163ffffffff1660e01b8152600401602060405180830381865afa1580156103fd573d6000803e3d6000fd5b505050506040513d601f19601f82011682018060405250810190610421919061099d565b6001600160a01b03167f00000000000000000000000000000000000000000000000000000000000000006001600160a01b0316146104c157856001600160a01b0316630dfe16816040518163ffffffff1660e01b8152600401602060405180830381865afa158015610497573d6000803e3d6000fd5b505050506040513d601f19601f820116820180604052508101906104bb919061099d565b84610525565b856001600160a01b031663d21220a76040518163ffffffff1660e01b8152600401602060405180830381865afa1580156104ff573d6000803e3d6000fd5b505050506040513d601f19601f82011682018060405250810190610523919061099d565b835b9150915060006004876001600160a01b031663313ce5676040518163ffffffff1660e01b8152600401602060405180830381865afa15801561056b573d6000803e3d6000fd5b505050506040513d601f19601f8201168201806040525081019061058f91906109ba565b7f00000000000000000000000000000000000000000000000000000000000000006001600160a01b031663313ce5676040518163ffffffff1660e01b8152600401602060405180830381865afa1580156105ed573d6000803e3d6000fd5b505050506040513d601f19601f8201168201806040525081019061061191906109ba565b856001600160a01b031663313ce5676040518163ffffffff1660e01b8152600401602060405180830381865afa15801561064f573d6000803e3d6000fd5b505050506040513d601f19601f8201168201806040525081019061067391906109ba565b61067d9190610b58565b6106879190610b7d565b6106919190610b7d565b60ff16905060006001600160a01b03881663e9255bae85836106b561271088610b1d565b6040516001600160e01b031960e086901b1681526001600160a01b0393841660048201529290911660248301526044820152606401602060405180830381865afa158015610707573d6000803e3d6000fd5b505050506040513d601f19601f8201168201806040525081019061072b9190610b3f565b905061075461073b83600a610ba0565b6107458584610ae8565b61074f9190610b1d565b6107b6565b61075f906002610ae8565b98975050505050505050565b6000610778848484610826565b90506000828061078a5761078a610b07565b84860911156107af5760001981106107a157600080fd5b806107ab81610bac565b9150505b9392505050565b6000600382111561081757508060006107d0600283610b1d565b6107db906001610bc7565b90505b81811015610811579050806002816107f68186610b1d565b6108009190610bc7565b61080a9190610b1d565b90506107de565b50919050565b8115610821575060015b919050565b600080806000198587098587029250828110838203039150508060001415610860576000841161085557600080fd5b5082900490506107af565b80841161086c57600080fd5b60008486880960026001871981018816978890046003810283188082028403028082028403028082028403028082028403028082028403029081029092039091026000889003889004909101858311909403939093029303949094049190911702949350505050565b6001600160a01b03811681146108ea57600080fd5b50565b6000602082840312156108ff57600080fd5b81356107af816108d5565b6000806040838503121561091d57600080fd5b8235610928816108d5565b946020939093013593505050565b80516001600160701b038116811461082157600080fd5b60008060006060848603121561096257600080fd5b61096b84610936565b925061097960208501610936565b9150604084015163ffffffff8116811461099257600080fd5b809150509250925092565b6000602082840312156109af57600080fd5b81516107af816108d5565b6000602082840312156109cc57600080fd5b815160ff811681146107af57600080fd5b634e487b7160e01b600052601160045260246000fd5b600181815b80851115610a2e578160001904821115610a1457610a146109dd565b80851615610a2157918102915b93841c93908002906109f8565b509250929050565b600082610a4557506001610ad3565b81610a5257506000610ad3565b8160018114610a685760028114610a7257610a8e565b6001915050610ad3565b60ff841115610a8357610a836109dd565b50506001821b610ad3565b5060208310610133831016604e8410600b8410161715610ab1575081810a610ad3565b610abb83836109f3565b8060001904821115610acf57610acf6109dd565b0290505b92915050565b60006107af60ff841683610a36565b6000816000190483118215151615610b0257610b026109dd565b500290565b634e487b7160e01b600052601260045260246000fd5b600082610b3a57634e487b7160e01b600052601260045260246000fd5b500490565b600060208284031215610b5157600080fd5b5051919050565b600060ff821660ff84168060ff03821115610b7557610b756109dd565b019392505050565b600060ff821660ff841680821015610b9757610b976109dd565b90039392505050565b60006107af8383610a36565b6000600019821415610bc057610bc06109dd565b5060010190565b60008219821115610bda57610bda6109dd565b50019056fea2646970667358221220925bf54c0482d394679c6b7d5a474d8b181de5c0359e6ff75fa63cdd5ab2e05a64736f6c634300080a0033",
  "devdoc": {
    "kind": "dev",
    "methods": {
      "getTotalValue(address)": {
        "params": {
          "_pair": "general pair that has the RequiemSwap interface implemented  - the value is calculated as the geometric average of input and output  - is consistent with the uniswapV2-type case "
        }
      },
      "valuation(address,uint256)": {
        "params": {
          "_pair": "general pair that has the RequiemSwap interface implemented",
          "amount_": "the amount of LP to price in REQT  - is consistent with the uniswapV2-type case "
        }
      }
    },
    "version": 1
  },
  "userdoc": {
    "kind": "user",
    "methods": {
      "getTotalValue(address)": {
        "notice": "note for general pairs the price does not necessarily satisfy the conditon that the lp value consists 50% of the one and the other token since the mid price is the quotient of the reserves. That is not necessarily the case for general pairs, therefore, we have to calculate the price separately and apply it to the reserve amount for conversion - calculates the total liquidity value denominated in the provided token - uses the 1bps ouytput reserves for that calculation to avoid slippage to   have a too large impact - the sencond token input argument is ignored when using pools with only 2 tokens"
      },
      "valuation(address,uint256)": {
        "notice": "- calculates the value in reqt of the input LP amount provided"
      }
    },
    "notice": "Bonding calculator for weighted pairs",
    "version": 1
  },
  "storageLayout": {
    "storage": [],
    "types": null
  }
}