{
  "address": "0x9fE46736679d2D9a65F0992F2272dE9f3c7fa6e0",
  "abi": [
    {
      "inputs": [
        {
          "internalType": "address",
          "name": "_feeToSetter",
          "type": "address"
        },
        {
          "internalType": "address",
          "name": "_formula",
          "type": "address"
        }
      ],
      "stateMutability": "nonpayable",
      "type": "constructor"
    },
    {
      "anonymous": false,
      "inputs": [
        {
          "indexed": true,
          "internalType": "address",
          "name": "token0",
          "type": "address"
        },
        {
          "indexed": true,
          "internalType": "address",
          "name": "token1",
          "type": "address"
        },
        {
          "indexed": false,
          "internalType": "address",
          "name": "pair",
          "type": "address"
        },
        {
          "indexed": false,
          "internalType": "uint32",
          "name": "tokenWeight0",
          "type": "uint32"
        },
        {
          "indexed": false,
          "internalType": "uint32",
          "name": "swapFee",
          "type": "uint32"
        },
        {
          "indexed": false,
          "internalType": "uint256",
          "name": "",
          "type": "uint256"
        }
      ],
      "name": "PairCreated",
      "type": "event"
    },
    {
      "inputs": [],
      "name": "INIT_CODE_HASH",
      "outputs": [
        {
          "internalType": "bytes32",
          "name": "",
          "type": "bytes32"
        }
      ],
      "stateMutability": "view",
      "type": "function"
    },
    {
      "inputs": [
        {
          "internalType": "uint256",
          "name": "",
          "type": "uint256"
        }
      ],
      "name": "allPairs",
      "outputs": [
        {
          "internalType": "address",
          "name": "",
          "type": "address"
        }
      ],
      "stateMutability": "view",
      "type": "function"
    },
    {
      "inputs": [],
      "name": "allPairsLength",
      "outputs": [
        {
          "internalType": "uint256",
          "name": "",
          "type": "uint256"
        }
      ],
      "stateMutability": "view",
      "type": "function"
    },
    {
      "inputs": [
        {
          "internalType": "address",
          "name": "tokenA",
          "type": "address"
        },
        {
          "internalType": "address",
          "name": "tokenB",
          "type": "address"
        },
        {
          "internalType": "uint32",
          "name": "tokenWeightA",
          "type": "uint32"
        },
        {
          "internalType": "uint32",
          "name": "swapFee",
          "type": "uint32"
        }
      ],
      "name": "createPair",
      "outputs": [
        {
          "internalType": "address",
          "name": "pair",
          "type": "address"
        }
      ],
      "stateMutability": "nonpayable",
      "type": "function"
    },
    {
      "inputs": [],
      "name": "feeTo",
      "outputs": [
        {
          "internalType": "address",
          "name": "",
          "type": "address"
        }
      ],
      "stateMutability": "view",
      "type": "function"
    },
    {
      "inputs": [],
      "name": "feeToSetter",
      "outputs": [
        {
          "internalType": "address",
          "name": "",
          "type": "address"
        }
      ],
      "stateMutability": "view",
      "type": "function"
    },
    {
      "inputs": [],
      "name": "formula",
      "outputs": [
        {
          "internalType": "address",
          "name": "",
          "type": "address"
        }
      ],
      "stateMutability": "view",
      "type": "function"
    },
    {
      "inputs": [
        {
          "internalType": "address",
          "name": "tokenA",
          "type": "address"
        },
        {
          "internalType": "address",
          "name": "tokenB",
          "type": "address"
        },
        {
          "internalType": "uint32",
          "name": "tokenWeightA",
          "type": "uint32"
        },
        {
          "internalType": "uint32",
          "name": "swapFee",
          "type": "uint32"
        }
      ],
      "name": "getPair",
      "outputs": [
        {
          "internalType": "address",
          "name": "pair",
          "type": "address"
        }
      ],
      "stateMutability": "view",
      "type": "function"
    },
    {
      "inputs": [
        {
          "internalType": "contract IERC20",
          "name": "token0",
          "type": "address"
        },
        {
          "internalType": "contract IERC20",
          "name": "token1",
          "type": "address"
        }
      ],
      "name": "getPairs",
      "outputs": [
        {
          "internalType": "address[]",
          "name": "_tokenPairs",
          "type": "address[]"
        }
      ],
      "stateMutability": "view",
      "type": "function"
    },
    {
      "inputs": [
        {
          "internalType": "address",
          "name": "pair",
          "type": "address"
        }
      ],
      "name": "getWeightsAndSwapFee",
      "outputs": [
        {
          "internalType": "uint32",
          "name": "tokenWeight0",
          "type": "uint32"
        },
        {
          "internalType": "uint32",
          "name": "tokenWeight1",
          "type": "uint32"
        },
        {
          "internalType": "uint32",
          "name": "swapFee",
          "type": "uint32"
        }
      ],
      "stateMutability": "view",
      "type": "function"
    },
    {
      "inputs": [
        {
          "internalType": "address",
          "name": "b",
          "type": "address"
        }
      ],
      "name": "isPair",
      "outputs": [
        {
          "internalType": "bool",
          "name": "",
          "type": "bool"
        }
      ],
      "stateMutability": "view",
      "type": "function"
    },
    {
      "inputs": [],
      "name": "protocolFee",
      "outputs": [
        {
          "internalType": "uint256",
          "name": "",
          "type": "uint256"
        }
      ],
      "stateMutability": "view",
      "type": "function"
    },
    {
      "inputs": [
        {
          "internalType": "address",
          "name": "_feeTo",
          "type": "address"
        }
      ],
      "name": "setFeeTo",
      "outputs": [],
      "stateMutability": "nonpayable",
      "type": "function"
    },
    {
      "inputs": [
        {
          "internalType": "address",
          "name": "_feeToSetter",
          "type": "address"
        }
      ],
      "name": "setFeeToSetter",
      "outputs": [],
      "stateMutability": "nonpayable",
      "type": "function"
    },
    {
      "inputs": [
        {
          "internalType": "uint256",
          "name": "_protocolFee",
          "type": "uint256"
        }
      ],
      "name": "setProtocolFee",
      "outputs": [],
      "stateMutability": "nonpayable",
      "type": "function"
    }
  ],
  "transactionHash": "0x643a766fea02745f3c6ede6f756f7910a072b6095f615facf506441e32f9bcf9",
  "args": [
    "0xf39Fd6e51aad88F6F4ce6aB8827279cffFb92266",
    "0xe7f1725E7734CE288F8367e1Bb143E90bb3F0512"
  ],
  "solcInputHash": "4b56e89df0fe64311e5a552cc9546625",
  "bytecode": "0x608060405234801561001057600080fd5b506040516140f23803806140f283398101604081905261002f9161007c565b600380546001600160a01b039384166001600160a01b031991821617909155600180549290931691161790556100af565b80516001600160a01b038116811461007757600080fd5b919050565b6000806040838503121561008f57600080fd5b61009883610060565b91506100a660208401610060565b90509250929050565b614034806100be6000396000f3fe608060405234801561001057600080fd5b50600436106100f55760003560e01c8063574f2ba311610097578063bfd63f4d11610066578063bfd63f4d146101e5578063ca222979146101f8578063e5e31b1314610232578063f46901ed1461027757600080fd5b8063574f2ba3146101ac578063787dce3d146101b4578063a2e74af6146101c9578063b0e21e8a146101dc57600080fd5b806316093fad116100d357806316093fad146101505780631e3dd18b14610170578063257671f5146101835780634b75f54f1461019957600080fd5b8063017e7e58146100fa578063094b74151461012a57806314572adb1461013d575b600080fd5b60005461010d906001600160a01b031681565b6040516001600160a01b0390911681526020015b60405180910390f35b60035461010d906001600160a01b031681565b61010d61014b366004610b84565b61028a565b61016361015e366004610bdc565b6106a4565b6040516101219190610c15565b61010d61017e366004610c62565b610790565b61018b6107ba565b604051908152602001610121565b60015461010d906001600160a01b031681565b60055461018b565b6101c76101c2366004610c62565b610804565b005b6101c76101d7366004610c7b565b610887565b61018b60025481565b61010d6101f3366004610b84565b6108d3565b61020b610206366004610c7b565b610962565b6040805163ffffffff94851681529284166020840152921691810191909152606001610121565b610267610240366004610c7b565b6001600160a01b031660009081526006602052604090205467ffffffffffffffff16151590565b6040519015158152602001610121565b6101c7610285366004610c7b565b6109cb565b6000836001600160a01b0316856001600160a01b031614156102dd5760405162461bcd60e51b8152602060048201526007602482015266524c503a20494160c81b60448201526064015b60405180910390fd5b60028363ffffffff16101580156102fb575060628363ffffffff1611155b8015610315575061030d600284610c98565b63ffffffff16155b61034b5760405162461bcd60e51b8152602060048201526007602482015266524c503a20495760c81b60448201526064016102d4565b60018263ffffffff161015801561036a57506107d08263ffffffff1611155b6103a15760405162461bcd60e51b81526020600482015260086024820152672926281d1024a9a360c11b60448201526064016102d4565b6000806000866001600160a01b0316886001600160a01b0316106103d15786886103cc886064610cdf565b6103d5565b8787875b919450925090506001600160a01b03831661041c5760405162461bcd60e51b8152602060048201526007602482015266524c503a205a4160c81b60448201526064016102d4565b60006040518060200161042e90610b46565b6020820181038252601f19601f82011660405250905060008484848960405160200161045d9493929190610d04565b60408051601f198184030181529181528151602092830120600081815260049093529120549091506001600160a01b0316156104c55760405162461bcd60e51b8152602060048201526007602482015266524c503a20504560c81b60448201526064016102d4565b808251602084016000f560405163d0f6957960e01b81526001600160a01b038781166004830152868116602483015263ffffffff80871660448401528a1660648301529197509087169063d0f6957990608401600060405180830381600087803b15801561053257600080fd5b505af1158015610546573d6000803e3d6000fd5b5050506001600160a01b038087166000908152600760209081526040808320938916835292905220610579915087610a17565b506001600160a01b0380851660009081526007602090815260408083209389168352929052206105a99087610a17565b50600081815260046020908152604080832080546001600160a01b03199081166001600160a01b038c8116918217909355600580546001810182557f036b6384b5eca791c62761152d0c79bb0604c104a5fb6f4eb0703f3154bb3db001805490931682179092558086526006855294839020805463ffffffff8e81168b881b67ffffffff0000000016811767ffffffffffffffff19909316831790935592548551978852928a16958701959095528584015260608501529051919287821692918916917f41f8736f924f57e464ededb08bf71f868f9d142885bbc73a1516db2be21fc4289181900360800190a3505050505050949350505050565b6001600160a01b038281166000908152600760209081526040808320938516835292905220546060908067ffffffffffffffff8111156106e6576106e6610d4b565b60405190808252806020026020018201604052801561070f578160200160208202803683370190505b50915060005b81811015610788576001600160a01b03808616600090815260076020908152604080832093881683529290522061074c9082610a8b565b83828151811061075e5761075e610d61565b6001600160a01b03909216602092830291909101909101528061078081610d77565b915050610715565b505092915050565b600581815481106107a057600080fd5b6000918252602090912001546001600160a01b0316905081565b6040516107c960208201610b46565b601f1982820381018352601f9091011660408190526107eb9190602001610d92565b6040516020818303038152906040528051906020012081565b6003546001600160a01b0316331461082e5760405162461bcd60e51b81526004016102d490610dcd565b80158061084b5750612710811015801561084b5750620186a08111155b6108825760405162461bcd60e51b81526020600482015260086024820152672926281d1024a82360c11b60448201526064016102d4565b600255565b6003546001600160a01b031633146108b15760405162461bcd60e51b81526004016102d490610dcd565b600380546001600160a01b0319166001600160a01b0392909216919091179055565b600080600080866001600160a01b0316886001600160a01b0316106109045786886108ff886064610cdf565b610908565b8787875b9250925092506000838383886040516020016109279493929190610d04565b60408051601f198184030181529181528151602092830120600090815260049092529020546001600160a01b03169998505050505050505050565b6001600160a01b0381166000908152600660205260408120548190819067ffffffffffffffff1680156109b15763ffffffff602082901c1693509050806109aa846064610cdf565b92506109c2565b603280601e935093509350506109c4565b505b9193909250565b6003546001600160a01b031633146109f55760405162461bcd60e51b81526004016102d490610dcd565b600080546001600160a01b0319166001600160a01b0392909216919091179055565b6001600160a01b0381166000908152600183016020526040812054610a8157508154600180820184556000848152602080822090930180546001600160a01b0319166001600160a01b03861690811790915585549082528286019093526040902091909155610a85565b5060005b92915050565b8154600090610a9d9083106064610aae565b610aa78383610ac0565b9392505050565b81610abc57610abc81610af3565b5050565b6000826000018281548110610ad757610ad7610d61565b6000918252602090912001546001600160a01b03169392505050565b62461bcd60e51b6000908152602060045260076024526652455123000030600a808404818106603090810160081b95839006959095019082900491820690940160101b939093010160c81b604452606490fd5b61321180610dee83390190565b6001600160a01b0381168114610b6857600080fd5b50565b803563ffffffff81168114610b7f57600080fd5b919050565b60008060008060808587031215610b9a57600080fd5b8435610ba581610b53565b93506020850135610bb581610b53565b9250610bc360408601610b6b565b9150610bd160608601610b6b565b905092959194509250565b60008060408385031215610bef57600080fd5b8235610bfa81610b53565b91506020830135610c0a81610b53565b809150509250929050565b6020808252825182820181905260009190848201906040850190845b81811015610c565783516001600160a01b031683529284019291840191600101610c31565b50909695505050505050565b600060208284031215610c7457600080fd5b5035919050565b600060208284031215610c8d57600080fd5b8135610aa781610b53565b600063ffffffff80841680610cbd57634e487b7160e01b600052601260045260246000fd5b92169190910692915050565b634e487b7160e01b600052601160045260246000fd5b600063ffffffff83811690831681811015610cfc57610cfc610cc9565b039392505050565b6bffffffffffffffffffffffff19606095861b811682529390941b90921660148401526001600160e01b031960e091821b8116602885015291901b16602c82015260300190565b634e487b7160e01b600052604160045260246000fd5b634e487b7160e01b600052603260045260246000fd5b6000600019821415610d8b57610d8b610cc9565b5060010190565b6000825160005b81811015610db35760208186018101518583015201610d99565b81811115610dc2576000828501525b509190910192915050565b6020808252600690820152652926281d102360d11b60408201526060019056fe60806040526001600b5534801561001557600080fd5b50604080518082018252601f81527f5265717569656d2050616972204c69717569646974792050726f7669646572006020918201528151808301835260018152603160f81b9082015281517f8b73c3c69bb8fe3d512ecc4cf759cc79239f7b179b0ffacaa9a75d522b39400f818301527f4d949f5c4c4f80d7bdbde28a36135fecf440532cf0f2bb46c4801ec3299b1062818401527fc89efdaa54c0f20c7adf612882df0950f5a951637e0307cdcb4c672f298b8bc660608201524660808201523060a0808301919091528351808303909101815260c09091019092528151910120600355600580546001600160a01b031916331790556130f68061011b6000396000f3fe608060405234801561001057600080fd5b50600436106102115760003560e01c80636a62784211610125578063cc56fd43116100ad578063d505accf1161007c578063d505accf14610539578063d54a8d181461054c578063dd62ed3e14610576578063e9255bae146105a1578063fff6cae9146105b457600080fd5b8063cc56fd43146104db578063d0f69579146104ee578063d21220a714610501578063d4cadf681461051457600080fd5b806395d89b41116100f457806395d89b4114610476578063a9059cbb14610499578063ba9a7a56146104ac578063bc25cf77146104b5578063c45a0155146104c857600080fd5b80636a627842146103fb57806370a082311461040e5780637ecebe001461042e57806389afcb441461044e57600080fd5b806330adf81f116101a85780633644e515116101775780633644e515146103ba5780634ac00e03146103c35780634b75f54f146103d65780635909c0d5146103e95780635a3d5493146103f257600080fd5b806330adf81f1461033c578063313ce5671461036357806332bfe4691461037d57806332fd5493146103a757600080fd5b80630dfe1681116101e45780630dfe1681146102d45780630e6d8bce146102ff57806318160ddd1461032057806323b872dd1461032957600080fd5b8063022c0d9f1461021657806306fdde031461022b5780630902f1ac1461027d578063095ea7b3146102b1575b600080fd5b610229610224366004612b5f565b6105bc565b005b6102676040518060400160405280601f81526020017f5265717569656d2050616972204c69717569646974792050726f76696465720081525081565b6040516102749190612c25565b60405180910390f35b610285610604565b604080516001600160701b03948516815293909216602084015263ffffffff1690820152606001610274565b6102c46102bf366004612c58565b61062e565b6040519015158152602001610274565b6006546102e7906001600160a01b031681565b6040516001600160a01b039091168152602001610274565b61031261030d366004612c84565b610644565b604051908152602001610274565b61031260005481565b6102c4610337366004612ce3565b6107cd565b6103127f6e71edae12b1b97f4d1f60370fef10105fa2faae0126114a169c64845d6126c981565b61036b601281565b60405160ff9091168152602001610274565b600d54600e5460408051600160e01b90930463ffffffff9081168452909116602083015201610274565b6102296103b5366004612c84565b610847565b61031260035481565b6103126103d1366004612c84565b610e3b565b600c546102e7906001600160a01b031681565b61031260095481565b610312600a5481565b610312610409366004612d24565b610f47565b61031261041c366004612d24565b60016020526000908152604090205481565b61031261043c366004612d24565b60046020526000908152604090205481565b61046161045c366004612d24565b6111c0565b60408051928352602083019190915201610274565b61026760405180604001604052806004815260200163052504c560e41b81525081565b6102c46104a7366004612c58565b6114d5565b6103126103e881565b6102296104c3366004612d24565b6114e2565b6005546102e7906001600160a01b031681565b6103126104e9366004612ce3565b6115f5565b6102296104fc366004612d55565b611725565b6007546102e7906001600160a01b031681565b600e54600160201b900463ffffffff1660405163ffffffff9091168152602001610274565b610229610547366004612dad565b61188c565b600d54604080516001600160701b038084168252600160701b909304909216602083015201610274565b610312610584366004612e24565b600260209081526000928352604080842090915290825290205481565b6103126105af366004612ce3565b611a84565b610229611b67565b600b546001146105e75760405162461bcd60e51b81526004016105de90612e5d565b60405180910390fd5b6000600b556105f7858585611c8b565b50506001600b5550505050565b6008546001600160701b0380821692600160701b830490911691600160e01b900463ffffffff1690565b600061063b33848461223a565b50600192915050565b6000600b546001146106685760405162461bcd60e51b81526004016105de90612e5d565b6000600b8190556006546001600160a01b0388811691161490808080846106bc57600854600e54600d546001600160701b03600160701b8404811693169163ffffffff90811691600160e01b9004166106ec565b600854600d54600e546001600160701b0380841693600160701b9004169163ffffffff600160e01b909104811691165b600c54600e54604051630b19210b60e41b81526001600160701b039687169a5094909516975091955093506000926001600160a01b039091169163b19210b091610750918e918a918a918a918a91600160201b900463ffffffff1690600401612e7f565b602060405180830381865afa15801561076d573d6000803e3d6000fd5b505050506040513d601f19601f820116820180604052508101906107919190612eb3565b9050600080876107a3578260006107a7565b6000835b915091506107b682828c611c8b565b6001600b559e9d5050505050505050505050505050565b6001600160a01b038316600090815260026020908152604080832033845290915281205460001914610832576001600160a01b03841660009081526002602090815260408083203384529091528120805484929061082c908490612ee2565b90915550505b61083d84848461229c565b5060019392505050565b600b546001146108695760405162461bcd60e51b81526004016105de90612e5d565b6000600b81905560065481906001600160a01b0388811691161461088f57836000610893565b6000845b9150915060008211806108a65750600081115b6108df5760405162461bcd60e51b815260206004820152600a6024820152695245514c503a20494f4160b01b60448201526064016105de565b6008546001600160701b0380821691600160701b900416818410801561090d5750806001600160701b031683105b6109455760405162461bcd60e51b815260206004820152600960248201526814915453140e88125360ba1b60448201526064016105de565b60065460075460009182916001600160a01b039182169190811690891682148015906109835750806001600160a01b0316896001600160a01b031614155b6109bb5760405162461bcd60e51b815260206004820152600960248201526814915453140e88125560ba1b60448201526064016105de565b87156109cc576109cc828a8a61233d565b86156109dd576109dd818a8961233d565b6040516370a0823160e01b81523060048201526001600160a01b038316906370a0823190602401602060405180830381865afa158015610a21573d6000803e3d6000fd5b505050506040513d601f19601f82011682018060405250810190610a459190612eb3565b6040516370a0823160e01b81523060048201529094506001600160a01b038216906370a0823190602401602060405180830381865afa158015610a8c573d6000803e3d6000fd5b505050506040513d601f19601f82011682018060405250810190610ab09190612eb3565b92505050600086856001600160701b0316610acb9190612ee2565b8311610ad8576000610af5565b610aeb876001600160701b038716612ee2565b610af59084612ee2565b90506000610b0c876001600160701b038716612ee2565b8311610b19576000610b36565b610b2c876001600160701b038716612ee2565b610b369084612ee2565b90506000821180610b475750600081115b610b805760405162461bcd60e51b815260206004820152600a6024820152695245514c503a2049494160b01b60448201526064016105de565b6000610b8e85612710612ef9565b90506000610b9e85612710612ef9565b90508315610c0b57600e54600090610bc390600160201b900463ffffffff1686612ef9565b9050610bcf8184612ee2565b600d54909350610be99082906001600160701b0316612f18565b600d80546001600160701b0319166001600160701b0392909216919091179055505b8215610c8357600e54600090610c2e90600160201b900463ffffffff1685612ef9565b9050610c3a8183612ee2565b600d54909250610c5b908290600160701b90046001600160701b0316612f18565b600d600e6101000a8154816001600160701b0302191690836001600160701b03160217905550505b600d54600160e01b900463ffffffff166032811415610ced57610cb26001600160701b03808a16908b16612ef9565b610cc0906305f5e100612ef9565b610cca8385612ef9565b1015610ce85760405162461bcd60e51b81526004016105de90612f30565b610dc3565b600c546001600160a01b03166379c91b37610d136001600160701b038c16612710612ef9565b610d286001600160701b038c16612710612ef9565b6040516001600160e01b031960e085901b16815260048101929092526024820152604481018690526064810185905263ffffffff8416608482015260a401602060405180830381865afa158015610d83573d6000803e3d6000fd5b505050506040513d601f19601f82011682018060405250810190610da79190612f52565b610dc35760405162461bcd60e51b81526004016105de90612f30565b505050610dd284848888612474565b6040805183815260208101839052908101899052606081018890526001600160a01b038a169033907fd78ad95fa46c994b6551d0da85fc275fe613ce37657fb8d5e3d130840159d8229060800160405180910390a350506001600b555050505050505050505050565b6000600b54600114610e5f5760405162461bcd60e51b81526004016105de90612e5d565b6000600b8190556006546001600160a01b038881169116149080808084610eb357600854600e54600d546001600160701b03600160701b8404811693169163ffffffff90811691600160e01b900416610ee3565b600854600d54600e546001600160701b0380841693600160701b9004169163ffffffff600160e01b909104811691165b600c54600e5460405163671a11b560e01b81526001600160701b039687169a5094909516975091955093506000926001600160a01b039091169163671a11b591610750918e918a918a918a918a91600160201b900463ffffffff1690600401612e7f565b6000600b54600114610f6b5760405162461bcd60e51b81526004016105de90612e5d565b6000600b81905580610f7b610604565b506006546040516370a0823160e01b81523060048201529294509092506000916001600160a01b03909116906370a0823190602401602060405180830381865afa158015610fcd573d6000803e3d6000fd5b505050506040513d601f19601f82011682018060405250810190610ff19190612eb3565b6007546040516370a0823160e01b81523060048201529192506000916001600160a01b03909116906370a0823190602401602060405180830381865afa15801561103f573d6000803e3d6000fd5b505050506040513d601f19601f820116820180604052508101906110639190612eb3565b9050600061107a6001600160701b03861684612ee2565b905060006110916001600160701b03861684612ee2565b905061109d86866126c3565b50600054806110d9576103e86110bb6110b68486612ef9565b61297f565b6110c59190612ee2565b97506110d460006103e86129ef565b611120565b61111d6001600160701b0388166110f08386612ef9565b6110fa9190612f8a565b6001600160701b03881661110e8486612ef9565b6111189190612f8a565b612a78565b97505b6000881161115d5760405162461bcd60e51b815260206004820152600a6024820152695245514c503a20494c4d60b01b60448201526064016105de565b61116789896129ef565b61117385858989612474565b604080518481526020810184905233917f4c209b5fc8ad50758f13e2e1088ba56a560dff690a1c6fef26394f4c03821c4f910160405180910390a250506001600b55509395945050505050565b600080600b546001146111e55760405162461bcd60e51b81526004016105de90612e5d565b6000600b819055806111f5610604565b506006546007546040516370a0823160e01b81523060048201529395509193506001600160a01b039081169291169060009083906370a0823190602401602060405180830381865afa15801561124f573d6000803e3d6000fd5b505050506040513d601f19601f820116820180604052508101906112739190612eb3565b6040516370a0823160e01b81523060048201529091506000906001600160a01b038416906370a0823190602401602060405180830381865afa1580156112bd573d6000803e3d6000fd5b505050506040513d601f19601f820116820180604052508101906112e19190612eb3565b306000908152600160205260409020549091506112fe87876126c3565b506000548061130d8584612ef9565b6113179190612f8a565b9950806113248484612ef9565b61132e9190612f8a565b985060008a1180156113405750600089115b6113795760405162461bcd60e51b815260206004820152600a6024820152692922a8a6281d1024a62160b11b60448201526064016105de565b6113833083612a90565b61138e868c8c61233d565b611399858c8b61233d565b6040516370a0823160e01b81523060048201526001600160a01b038716906370a0823190602401602060405180830381865afa1580156113dd573d6000803e3d6000fd5b505050506040513d601f19601f820116820180604052508101906114019190612eb3565b6040516370a0823160e01b81523060048201529094506001600160a01b038616906370a0823190602401602060405180830381865afa158015611448573d6000803e3d6000fd5b505050506040513d601f19601f8201168201806040525081019061146c9190612eb3565b925061147a84848a8a612474565b604080518b8152602081018b90526001600160a01b038d169133917fdccd412f0b1252819cb1fd330b93224ca42612892bb3f4f789976e6d81936496910160405180910390a350505050505050506001600b81905550915091565b600061063b33848461229c565b600b546001146115045760405162461bcd60e51b81526004016105de90612e5d565b6000600b556006546007546008546040516370a0823160e01b81523060048201526001600160a01b0393841693909216916115a391849186916001600160701b03169083906370a08231906024015b602060405180830381865afa158015611570573d6000803e3d6000fd5b505050506040513d601f19601f820116820180604052508101906115949190612eb3565b61159e9190612ee2565b61233d565b6008546040516370a0823160e01b81523060048201526115eb9183918691600160701b90046001600160701b0316906001600160a01b038416906370a0823190602401611553565b50506001600b5550565b60065460009081908190819081906001600160a01b0389811691161461164857600854600e54600d546001600160701b03600160701b8404811693169163ffffffff90811691600160e01b900416611678565b600854600d54600e546001600160701b0380841693600160701b9004169163ffffffff600160e01b909104811691165b600c54600e54604051630b19210b60e41b81526001600160701b039687169a5094909516975091955093506001600160a01b03169163b19210b0916116d8918a918991899189918991600160201b90910463ffffffff1690600401612e7f565b602060405180830381865afa1580156116f5573d6000803e3d6000fd5b505050506040513d601f19601f820116820180604052508101906117199190612eb3565b98975050505050505050565b6005546001600160a01b0316331461176a5760405162461bcd60e51b81526020600482015260086024820152672922a8a6281d102360c11b60448201526064016105de565b600680546001600160a01b03199081166001600160a01b038781169190911790925560078054909116918516919091179055600d80546001600160e01b0316600160e01b63ffffffff858116820292909217928390556117cd9204166064612f9e565b600e805463ffffffff848116600160201b0267ffffffffffffffff1990921693169290921791909117905560055460408051634b75f54f60e01b815290516001600160a01b0390921691634b75f54f916004818101926020929091908290030181865afa158015611842573d6000803e3d6000fd5b505050506040513d601f19601f820116820180604052508101906118669190612fc3565b600c80546001600160a01b0319166001600160a01b039290921691909117905550505050565b428410156118cb5760405162461bcd60e51b815260206004820152600c60248201526b1493140e881156141254915160a21b60448201526064016105de565b6003546001600160a01b038816600090815260046020526040812080549192917f6e71edae12b1b97f4d1f60370fef10105fa2faae0126114a169c64845d6126c9918b918b918b91908761191e83612fe0565b909155506040805160208101969096526001600160a01b0394851690860152929091166060840152608083015260a082015260c0810187905260e0016040516020818303038152906040528051906020012060405160200161199792919061190160f01b81526002810192909252602282015260420190565b60408051601f198184030181528282528051602091820120600080855291840180845281905260ff88169284019290925260608301869052608083018590529092509060019060a0016020604051602081039080840390855afa158015611a02573d6000803e3d6000fd5b5050604051601f1901519150506001600160a01b03811615801590611a385750886001600160a01b0316816001600160a01b0316145b611a6e5760405162461bcd60e51b8152602060048201526007602482015266524c503a20495360c81b60448201526064016105de565b611a7989898961223a565b505050505050505050565b60065460009081908190819081906001600160a01b03898116911614611ad757600854600e54600d546001600160701b03600160701b8404811693169163ffffffff90811691600160e01b900416611b07565b600854600d54600e546001600160701b0380841693600160701b9004169163ffffffff600160e01b909104811691165b600c54600e5460405163671a11b560e01b81526001600160701b039687169a5094909516975091955093506001600160a01b03169163671a11b5916116d8918a918991899189918991600160201b90910463ffffffff1690600401612e7f565b600b54600114611b895760405162461bcd60e51b81526004016105de90612e5d565b6000600b556006546040516370a0823160e01b8152306004820152611c84916001600160a01b0316906370a0823190602401602060405180830381865afa158015611bd8573d6000803e3d6000fd5b505050506040513d601f19601f82011682018060405250810190611bfc9190612eb3565b6007546040516370a0823160e01b81523060048201526001600160a01b03909116906370a0823190602401602060405180830381865afa158015611c44573d6000803e3d6000fd5b505050506040513d601f19601f82011682018060405250810190611c689190612eb3565b6008546001600160701b0380821691600160701b900416612474565b6001600b55565b600080841180611c9b5750600083115b611cd45760405162461bcd60e51b815260206004820152600a6024820152695245514c503a20494f4160b01b60448201526064016105de565b6008546001600160701b0380821691600160701b9004168186108015611d025750806001600160701b031685105b611d3a5760405162461bcd60e51b815260206004820152600960248201526814915453140e88125360ba1b60448201526064016105de565b60065460075460009182916001600160a01b03918216919081169088168214801590611d785750806001600160a01b0316886001600160a01b031614155b611db05760405162461bcd60e51b815260206004820152600960248201526814915453140e88125560ba1b60448201526064016105de565b8915611dc157611dc182898c61233d565b8815611dd257611dd281898b61233d565b6040516370a0823160e01b81523060048201526001600160a01b038316906370a0823190602401602060405180830381865afa158015611e16573d6000803e3d6000fd5b505050506040513d601f19601f82011682018060405250810190611e3a9190612eb3565b6040516370a0823160e01b81523060048201529094506001600160a01b038216906370a0823190602401602060405180830381865afa158015611e81573d6000803e3d6000fd5b505050506040513d601f19601f82011682018060405250810190611ea59190612eb3565b92505050600088856001600160701b0316611ec09190612ee2565b8311611ecd576000611eea565b611ee0896001600160701b038716612ee2565b611eea9084612ee2565b90506000611f01896001600160701b038716612ee2565b8311611f0e576000611f2b565b611f21896001600160701b038716612ee2565b611f2b9084612ee2565b90506000821180611f3c5750600081115b611f755760405162461bcd60e51b815260206004820152600a6024820152695245514c503a2049494160b01b60448201526064016105de565b6000611f8385612710612ef9565b90506000611f9385612710612ef9565b9050831561200057600e54600090611fb890600160201b900463ffffffff1686612ef9565b9050611fc48184612ee2565b600d54909350611fde9082906001600160701b0316612f18565b600d80546001600160701b0319166001600160701b0392909216919091179055505b821561207857600e5460009061202390600160201b900463ffffffff1685612ef9565b905061202f8183612ee2565b600d54909250612050908290600160701b90046001600160701b0316612f18565b600d600e6101000a8154816001600160701b0302191690836001600160701b03160217905550505b600d54600160e01b900463ffffffff1660328114156120e2576120a76001600160701b03808a16908b16612ef9565b6120b5906305f5e100612ef9565b6120bf8385612ef9565b10156120dd5760405162461bcd60e51b81526004016105de90612f30565b6121b8565b600c546001600160a01b03166379c91b376121086001600160701b038c16612710612ef9565b61211d6001600160701b038c16612710612ef9565b6040516001600160e01b031960e085901b16815260048101929092526024820152604481018690526064810185905263ffffffff8416608482015260a401602060405180830381865afa158015612178573d6000803e3d6000fd5b505050506040513d601f19601f8201168201806040525081019061219c9190612f52565b6121b85760405162461bcd60e51b81526004016105de90612f30565b5050506121c784848888612474565b60408051838152602081018390529081018b9052606081018a90526001600160a01b0389169033907fd78ad95fa46c994b6551d0da85fc275fe613ce37657fb8d5e3d130840159d8229060800160405180910390a360008a1161222a578861222c565b895b9a9950505050505050505050565b6001600160a01b0383811660008181526002602090815260408083209487168084529482529182902085905590518481527f8c5be1e5ebec7d5bd14f71427d1e84f3dd0314c0f7b2291e5b200ac8c7c3b92591015b60405180910390a3505050565b6001600160a01b038316600090815260016020526040812080548392906122c4908490612ee2565b90915550506001600160a01b038216600090815260016020526040812080548392906122f1908490612f18565b92505081905550816001600160a01b0316836001600160a01b03167fddf252ad1be2c89b69c2b068fc378daa952ba7f163c4a11628f55a4df523b3ef8360405161228f91815260200190565b604080518082018252601981527f7472616e7366657228616464726573732c75696e74323536290000000000000060209182015281516001600160a01b0385811660248301526044808301869052845180840390910181526064909201845291810180516001600160e01b031663a9059cbb60e01b179052915160009283928716916123c99190612ffb565b6000604051808303816000865af19150503d8060008114612406576040519150601f19603f3d011682016040523d82523d6000602084013e61240b565b606091505b50915091508180156124355750805115806124355750808060200190518101906124359190612f52565b61246d5760405162461bcd60e51b81526020600482015260096024820152682922a8a6281d102a2360b91b60448201526064016105de565b5050505050565b600d54600160e01b900463ffffffff166001600160701b03612497826064612f9e565b6124a79063ffffffff1687612ef9565b111580156124cb57506001600160701b036124c863ffffffff831686612ef9565b11155b6125025760405162461bcd60e51b81526020600482015260086024820152675245514c503a204f60c01b60448201526064016105de565b6000612512600160201b42613017565b60085490915060009061253290600160e01b900463ffffffff1683612f9e565b905060008163ffffffff1611801561255257506001600160701b03851615155b801561256657506001600160701b03841615155b1561262a576000612578846064612f9e565b6125889063ffffffff168761302b565b9050600061259c63ffffffff86168761302b565b90508263ffffffff166125c1836125b284612b13565b6001600160e01b031690612b32565b6001600160e01b03166125d49190612ef9565b600960008282546125e59190612f18565b909155505063ffffffff83166125fe826125b285612b13565b6001600160e01b03166126119190612ef9565b600a60008282546126229190612f18565b909155505050505b6008805463ffffffff8416600160e01b026001600160e01b036001600160701b038a8116600160701b9081026001600160e01b03199095168d83161794909417918216831794859055604080519382169282169290921783529290930490911660208201527f1c411e9a96e071241c2f21f7726b17ae89e3cab4c78be50e062b03a9fffbbad1910160405180910390a150505050505050565b600080600560009054906101000a90046001600160a01b03166001600160a01b031663017e7e586040518163ffffffff1660e01b8152600401602060405180830381865afa158015612719573d6000803e3d6000fd5b505050506040513d601f19601f8201168201806040525081019061273d9190612fc3565b90506000600560009054906101000a90046001600160a01b03166001600160a01b031663b0e21e8a6040518163ffffffff1660e01b8152600401602060405180830381865afa158015612794573d6000803e3d6000fd5b505050506040513d601f19601f820116820180604052508101906127b89190612eb3565b6001600160a01b0383161515935090506000806127e9600d546001600160701b0380821692600160701b9092041690565b915091506000836001600160701b03161180156128035750845b801561282b57506000826001600160701b0316118061282b57506000816001600160701b0316115b1561292b57600d54600c5460008054600160e01b90930463ffffffff169290916001600160a01b0316906392aec23c908b8b86612869816064612f9e565b6128738c8c61305a565b61287d8d8c61305a565b6040516001600160e01b031960e08a901b16815260048101979097526001600160701b039586166024880152938516604487015263ffffffff928316606487015291166084850152821660a48401521660c482015260e401602060405180830381865afa1580156128f2573d6000803e3d6000fd5b505050506040513d601f19601f820116820180604052508101906129169190612eb3565b905080156129285761292886826129ef565b50505b6001600160701b0382161561294b57600d80546001600160701b03191690555b6001600160701b0381161561297557600d80546dffffffffffffffffffffffffffff60701b191690555b5050505092915050565b600060038211156129e05750806000612999600283612f8a565b6129a4906001612f18565b90505b818110156129da579050806002816129bf8186612f8a565b6129c99190612f18565b6129d39190612f8a565b90506129a7565b50919050565b81156129ea575060015b919050565b80600080828254612a009190612f18565b90915550506001600160a01b03821660009081526001602052604081208054839290612a2d908490612f18565b90915550506040518181526001600160a01b038316906000907fddf252ad1be2c89b69c2b068fc378daa952ba7f163c4a11628f55a4df523b3ef906020015b60405180910390a35050565b6000818310612a875781612a89565b825b9392505050565b6001600160a01b03821660009081526001602052604081208054839290612ab8908490612ee2565b9250508190555080600080828254612ad09190612ee2565b90915550506040518181526000906001600160a01b038416907fddf252ad1be2c89b69c2b068fc378daa952ba7f163c4a11628f55a4df523b3ef90602001612a6c565b6000612b2c600160701b6001600160701b038416613080565b92915050565b6000612a896001600160701b038316846130a6565b6001600160a01b0381168114612b5c57600080fd5b50565b600080600080600060808688031215612b7757600080fd5b85359450602086013593506040860135612b9081612b47565b9250606086013567ffffffffffffffff80821115612bad57600080fd5b818801915088601f830112612bc157600080fd5b813581811115612bd057600080fd5b896020828501011115612be257600080fd5b9699959850939650602001949392505050565b60005b83811015612c10578181015183820152602001612bf8565b83811115612c1f576000848401525b50505050565b6020815260008251806020840152612c44816040850160208701612bf5565b601f01601f19169190910160400192915050565b60008060408385031215612c6b57600080fd5b8235612c7681612b47565b946020939093013593505050565b600080600080600060a08688031215612c9c57600080fd5b8535612ca781612b47565b94506020860135612cb781612b47565b935060408601359250606086013591506080860135612cd581612b47565b809150509295509295909350565b600080600060608486031215612cf857600080fd5b8335612d0381612b47565b92506020840135612d1381612b47565b929592945050506040919091013590565b600060208284031215612d3657600080fd5b8135612a8981612b47565b803563ffffffff811681146129ea57600080fd5b60008060008060808587031215612d6b57600080fd5b8435612d7681612b47565b93506020850135612d8681612b47565b9250612d9460408601612d41565b9150612da260608601612d41565b905092959194509250565b600080600080600080600060e0888a031215612dc857600080fd5b8735612dd381612b47565b96506020880135612de381612b47565b95506040880135945060608801359350608088013560ff81168114612e0757600080fd5b9699959850939692959460a0840135945060c09093013592915050565b60008060408385031215612e3757600080fd5b8235612e4281612b47565b91506020830135612e5281612b47565b809150509250929050565b60208082526008908201526714915453140e881360c21b604082015260600190565b9586526020860194909452604085019290925263ffffffff908116606085015290811660808401521660a082015260c00190565b600060208284031215612ec557600080fd5b5051919050565b634e487b7160e01b600052601160045260246000fd5b600082821015612ef457612ef4612ecc565b500390565b6000816000190483118215151615612f1357612f13612ecc565b500290565b60008219821115612f2b57612f2b612ecc565b500190565b6020808252600890820152675245514c503a204b60c01b604082015260600190565b600060208284031215612f6457600080fd5b81518015158114612a8957600080fd5b634e487b7160e01b600052601260045260246000fd5b600082612f9957612f99612f74565b500490565b600063ffffffff83811690831681811015612fbb57612fbb612ecc565b039392505050565b600060208284031215612fd557600080fd5b8151612a8981612b47565b6000600019821415612ff457612ff4612ecc565b5060010190565b6000825161300d818460208701612bf5565b9190910192915050565b60008261302657613026612f74565b500690565b60006001600160701b038083168185168183048111821515161561305157613051612ecc565b02949350505050565b60006001600160701b038084168061307457613074612f74565b92169190910492915050565b60006001600160e01b038281168482168115158284048211161561305157613051612ecc565b60006001600160e01b038381168061307457613074612f7456fea26469706673582212203c55860800b721da9f9369b4bf224aeca83ba5663891d003c7c00ebeafbee57864736f6c634300080b0033a264697066735822122028aa537ab2b03a361de51b73d0ed63198f9d2766a9a9c73b5cb11f81e977f42c64736f6c634300080b0033",
  "devdoc": {
    "kind": "dev",
    "methods": {},
    "version": 1
  },
  "userdoc": {
    "kind": "user",
    "methods": {},
    "version": 1
  },
  "storageLayout": {
    "storage": [
      {
        "astId": 4059,
        "contract": "contracts/test/RequiemWeightedPairFactory_flat.sol:RequiemWeightedPairFactory",
        "label": "feeTo",
        "offset": 0,
        "slot": "0",
        "type": "t_address"
      },
      {
        "astId": 4061,
        "contract": "contracts/test/RequiemWeightedPairFactory_flat.sol:RequiemWeightedPairFactory",
        "label": "formula",
        "offset": 0,
        "slot": "1",
        "type": "t_address"
      },
      {
        "astId": 4063,
        "contract": "contracts/test/RequiemWeightedPairFactory_flat.sol:RequiemWeightedPairFactory",
        "label": "protocolFee",
        "offset": 0,
        "slot": "2",
        "type": "t_uint256"
      },
      {
        "astId": 4065,
        "contract": "contracts/test/RequiemWeightedPairFactory_flat.sol:RequiemWeightedPairFactory",
        "label": "feeToSetter",
        "offset": 0,
        "slot": "3",
        "type": "t_address"
      },
      {
        "astId": 4080,
        "contract": "contracts/test/RequiemWeightedPairFactory_flat.sol:RequiemWeightedPairFactory",
        "label": "_pairSalts",
        "offset": 0,
        "slot": "4",
        "type": "t_mapping(t_bytes32,t_address)"
      },
      {
        "astId": 4083,
        "contract": "contracts/test/RequiemWeightedPairFactory_flat.sol:RequiemWeightedPairFactory",
        "label": "allPairs",
        "offset": 0,
        "slot": "5",
        "type": "t_array(t_address)dyn_storage"
      },
      {
        "astId": 4087,
        "contract": "contracts/test/RequiemWeightedPairFactory_flat.sol:RequiemWeightedPairFactory",
        "label": "_pairs",
        "offset": 0,
        "slot": "6",
        "type": "t_mapping(t_address,t_uint64)"
      },
      {
        "astId": 4096,
        "contract": "contracts/test/RequiemWeightedPairFactory_flat.sol:RequiemWeightedPairFactory",
        "label": "tokenPairs",
        "offset": 0,
        "slot": "7",
        "type": "t_mapping(t_contract(IERC20)90,t_mapping(t_contract(IERC20)90,t_struct(AddressSet)1719_storage))"
      }
    ],
    "types": {
      "t_address": {
        "encoding": "inplace",
        "label": "address",
        "numberOfBytes": "20"
      },
      "t_array(t_address)dyn_storage": {
        "base": "t_address",
        "encoding": "dynamic_array",
        "label": "address[]",
        "numberOfBytes": "32"
      },
      "t_bytes32": {
        "encoding": "inplace",
        "label": "bytes32",
        "numberOfBytes": "32"
      },
      "t_contract(IERC20)90": {
        "encoding": "inplace",
        "label": "contract IERC20",
        "numberOfBytes": "20"
      },
      "t_mapping(t_address,t_uint256)": {
        "encoding": "mapping",
        "key": "t_address",
        "label": "mapping(address => uint256)",
        "numberOfBytes": "32",
        "value": "t_uint256"
      },
      "t_mapping(t_address,t_uint64)": {
        "encoding": "mapping",
        "key": "t_address",
        "label": "mapping(address => uint64)",
        "numberOfBytes": "32",
        "value": "t_uint64"
      },
      "t_mapping(t_bytes32,t_address)": {
        "encoding": "mapping",
        "key": "t_bytes32",
        "label": "mapping(bytes32 => address)",
        "numberOfBytes": "32",
        "value": "t_address"
      },
      "t_mapping(t_contract(IERC20)90,t_mapping(t_contract(IERC20)90,t_struct(AddressSet)1719_storage))": {
        "encoding": "mapping",
        "key": "t_contract(IERC20)90",
        "label": "mapping(contract IERC20 => mapping(contract IERC20 => struct EnumerableSet.AddressSet))",
        "numberOfBytes": "32",
        "value": "t_mapping(t_contract(IERC20)90,t_struct(AddressSet)1719_storage)"
      },
      "t_mapping(t_contract(IERC20)90,t_struct(AddressSet)1719_storage)": {
        "encoding": "mapping",
        "key": "t_contract(IERC20)90",
        "label": "mapping(contract IERC20 => struct EnumerableSet.AddressSet)",
        "numberOfBytes": "32",
        "value": "t_struct(AddressSet)1719_storage"
      },
      "t_struct(AddressSet)1719_storage": {
        "encoding": "inplace",
        "label": "struct EnumerableSet.AddressSet",
        "members": [
          {
            "astId": 1714,
            "contract": "contracts/test/RequiemWeightedPairFactory_flat.sol:RequiemWeightedPairFactory",
            "label": "_values",
            "offset": 0,
            "slot": "0",
            "type": "t_array(t_address)dyn_storage"
          },
          {
            "astId": 1718,
            "contract": "contracts/test/RequiemWeightedPairFactory_flat.sol:RequiemWeightedPairFactory",
            "label": "_indexes",
            "offset": 0,
            "slot": "1",
            "type": "t_mapping(t_address,t_uint256)"
          }
        ],
        "numberOfBytes": "64"
      },
      "t_uint256": {
        "encoding": "inplace",
        "label": "uint256",
        "numberOfBytes": "32"
      },
      "t_uint64": {
        "encoding": "inplace",
        "label": "uint64",
        "numberOfBytes": "8"
      }
    }
  }
}