{
  "address": "0xCf7Ed3AccA5a467e9e704C703E8D87F634fB0Fc9",
  "abi": [
    {
      "inputs": [
        {
          "internalType": "address",
          "name": "_factory",
          "type": "address"
        },
        {
          "internalType": "address",
          "name": "_WETH",
          "type": "address"
        }
      ],
      "stateMutability": "nonpayable",
      "type": "constructor"
    },
    {
      "inputs": [],
      "name": "WETH",
      "outputs": [
        {
          "internalType": "address",
          "name": "",
          "type": "address"
        }
      ],
      "stateMutability": "view",
      "type": "function"
    },
    {
      "inputs": [
        {
          "internalType": "address",
          "name": "pair",
          "type": "address"
        },
        {
          "internalType": "address",
          "name": "tokenA",
          "type": "address"
        },
        {
          "internalType": "address",
          "name": "tokenB",
          "type": "address"
        },
        {
          "internalType": "uint256",
          "name": "amountADesired",
          "type": "uint256"
        },
        {
          "internalType": "uint256",
          "name": "amountBDesired",
          "type": "uint256"
        },
        {
          "internalType": "uint256",
          "name": "amountAMin",
          "type": "uint256"
        },
        {
          "internalType": "uint256",
          "name": "amountBMin",
          "type": "uint256"
        },
        {
          "internalType": "address",
          "name": "to",
          "type": "address"
        },
        {
          "internalType": "uint256",
          "name": "deadline",
          "type": "uint256"
        }
      ],
      "name": "addLiquidity",
      "outputs": [
        {
          "internalType": "uint256",
          "name": "amountA",
          "type": "uint256"
        },
        {
          "internalType": "uint256",
          "name": "amountB",
          "type": "uint256"
        },
        {
          "internalType": "uint256",
          "name": "liquidity",
          "type": "uint256"
        }
      ],
      "stateMutability": "nonpayable",
      "type": "function"
    },
    {
      "inputs": [
        {
          "internalType": "address",
          "name": "pair",
          "type": "address"
        },
        {
          "internalType": "address",
          "name": "token",
          "type": "address"
        },
        {
          "internalType": "uint256",
          "name": "amountTokenDesired",
          "type": "uint256"
        },
        {
          "internalType": "uint256",
          "name": "amountTokenMin",
          "type": "uint256"
        },
        {
          "internalType": "uint256",
          "name": "amountETHMin",
          "type": "uint256"
        },
        {
          "internalType": "address",
          "name": "to",
          "type": "address"
        },
        {
          "internalType": "uint256",
          "name": "deadline",
          "type": "uint256"
        }
      ],
      "name": "addLiquidityETH",
      "outputs": [
        {
          "internalType": "uint256",
          "name": "amountToken",
          "type": "uint256"
        },
        {
          "internalType": "uint256",
          "name": "amountETH",
          "type": "uint256"
        },
        {
          "internalType": "uint256",
          "name": "liquidity",
          "type": "uint256"
        }
      ],
      "stateMutability": "payable",
      "type": "function"
    },
    {
      "inputs": [
        {
          "internalType": "address",
          "name": "tokenA",
          "type": "address"
        },
        {
          "internalType": "address",
          "name": "tokenB",
          "type": "address"
        },
        {
          "internalType": "uint256",
          "name": "amountA",
          "type": "uint256"
        },
        {
          "internalType": "uint256",
          "name": "amountB",
          "type": "uint256"
        },
        {
          "internalType": "uint32",
          "name": "tokenWeightA",
          "type": "uint32"
        },
        {
          "internalType": "uint32",
          "name": "swapFee",
          "type": "uint32"
        },
        {
          "internalType": "address",
          "name": "to",
          "type": "address"
        }
      ],
      "name": "createPair",
      "outputs": [
        {
          "internalType": "uint256",
          "name": "liquidity",
          "type": "uint256"
        }
      ],
      "stateMutability": "nonpayable",
      "type": "function"
    },
    {
      "inputs": [
        {
          "internalType": "address",
          "name": "token",
          "type": "address"
        },
        {
          "internalType": "uint256",
          "name": "amountToken",
          "type": "uint256"
        },
        {
          "internalType": "uint32",
          "name": "tokenWeight",
          "type": "uint32"
        },
        {
          "internalType": "uint32",
          "name": "swapFee",
          "type": "uint32"
        },
        {
          "internalType": "address",
          "name": "to",
          "type": "address"
        }
      ],
      "name": "createPairETH",
      "outputs": [
        {
          "internalType": "uint256",
          "name": "liquidity",
          "type": "uint256"
        }
      ],
      "stateMutability": "payable",
      "type": "function"
    },
    {
      "inputs": [],
      "name": "factory",
      "outputs": [
        {
          "internalType": "address",
          "name": "",
          "type": "address"
        }
      ],
      "stateMutability": "view",
      "type": "function"
    },
    {
      "inputs": [],
      "name": "formula",
      "outputs": [
        {
          "internalType": "address",
          "name": "",
          "type": "address"
        }
      ],
      "stateMutability": "view",
      "type": "function"
    },
    {
      "inputs": [
        {
          "internalType": "address",
          "name": "pair",
          "type": "address"
        },
        {
          "internalType": "address",
          "name": "tokenA",
          "type": "address"
        },
        {
          "internalType": "address",
          "name": "tokenB",
          "type": "address"
        },
        {
          "internalType": "uint256",
          "name": "liquidity",
          "type": "uint256"
        },
        {
          "internalType": "uint256",
          "name": "amountAMin",
          "type": "uint256"
        },
        {
          "internalType": "uint256",
          "name": "amountBMin",
          "type": "uint256"
        },
        {
          "internalType": "address",
          "name": "to",
          "type": "address"
        },
        {
          "internalType": "uint256",
          "name": "deadline",
          "type": "uint256"
        }
      ],
      "name": "removeLiquidity",
      "outputs": [
        {
          "internalType": "uint256",
          "name": "amountA",
          "type": "uint256"
        },
        {
          "internalType": "uint256",
          "name": "amountB",
          "type": "uint256"
        }
      ],
      "stateMutability": "nonpayable",
      "type": "function"
    },
    {
      "inputs": [
        {
          "internalType": "address",
          "name": "pair",
          "type": "address"
        },
        {
          "internalType": "address",
          "name": "token",
          "type": "address"
        },
        {
          "internalType": "uint256",
          "name": "liquidity",
          "type": "uint256"
        },
        {
          "internalType": "uint256",
          "name": "amountTokenMin",
          "type": "uint256"
        },
        {
          "internalType": "uint256",
          "name": "amountETHMin",
          "type": "uint256"
        },
        {
          "internalType": "address",
          "name": "to",
          "type": "address"
        },
        {
          "internalType": "uint256",
          "name": "deadline",
          "type": "uint256"
        }
      ],
      "name": "removeLiquidityETH",
      "outputs": [
        {
          "internalType": "uint256",
          "name": "amountToken",
          "type": "uint256"
        },
        {
          "internalType": "uint256",
          "name": "amountETH",
          "type": "uint256"
        }
      ],
      "stateMutability": "nonpayable",
      "type": "function"
    },
    {
      "inputs": [
        {
          "internalType": "address",
          "name": "pair",
          "type": "address"
        },
        {
          "internalType": "address",
          "name": "token",
          "type": "address"
        },
        {
          "internalType": "uint256",
          "name": "liquidity",
          "type": "uint256"
        },
        {
          "internalType": "uint256",
          "name": "amountTokenMin",
          "type": "uint256"
        },
        {
          "internalType": "uint256",
          "name": "amountETHMin",
          "type": "uint256"
        },
        {
          "internalType": "address",
          "name": "to",
          "type": "address"
        },
        {
          "internalType": "uint256",
          "name": "deadline",
          "type": "uint256"
        }
      ],
      "name": "removeLiquidityETHSupportingFeeOnTransferTokens",
      "outputs": [
        {
          "internalType": "uint256",
          "name": "amountETH",
          "type": "uint256"
        }
      ],
      "stateMutability": "nonpayable",
      "type": "function"
    },
    {
      "inputs": [
        {
          "internalType": "address",
          "name": "pair",
          "type": "address"
        },
        {
          "internalType": "address",
          "name": "token",
          "type": "address"
        },
        {
          "internalType": "uint256",
          "name": "liquidity",
          "type": "uint256"
        },
        {
          "internalType": "uint256",
          "name": "amountTokenMin",
          "type": "uint256"
        },
        {
          "internalType": "uint256",
          "name": "amountETHMin",
          "type": "uint256"
        },
        {
          "internalType": "address",
          "name": "to",
          "type": "address"
        },
        {
          "internalType": "uint256",
          "name": "deadline",
          "type": "uint256"
        },
        {
          "internalType": "bool",
          "name": "approveMax",
          "type": "bool"
        },
        {
          "internalType": "uint8",
          "name": "v",
          "type": "uint8"
        },
        {
          "internalType": "bytes32",
          "name": "r",
          "type": "bytes32"
        },
        {
          "internalType": "bytes32",
          "name": "s",
          "type": "bytes32"
        }
      ],
      "name": "removeLiquidityETHWithPermit",
      "outputs": [
        {
          "internalType": "uint256",
          "name": "amountToken",
          "type": "uint256"
        },
        {
          "internalType": "uint256",
          "name": "amountETH",
          "type": "uint256"
        }
      ],
      "stateMutability": "nonpayable",
      "type": "function"
    },
    {
      "inputs": [
        {
          "internalType": "address",
          "name": "pair",
          "type": "address"
        },
        {
          "internalType": "address",
          "name": "token",
          "type": "address"
        },
        {
          "internalType": "uint256",
          "name": "liquidity",
          "type": "uint256"
        },
        {
          "internalType": "uint256",
          "name": "amountTokenMin",
          "type": "uint256"
        },
        {
          "internalType": "uint256",
          "name": "amountETHMin",
          "type": "uint256"
        },
        {
          "internalType": "address",
          "name": "to",
          "type": "address"
        },
        {
          "internalType": "uint256",
          "name": "deadline",
          "type": "uint256"
        },
        {
          "internalType": "bool",
          "name": "approveMax",
          "type": "bool"
        },
        {
          "internalType": "uint8",
          "name": "v",
          "type": "uint8"
        },
        {
          "internalType": "bytes32",
          "name": "r",
          "type": "bytes32"
        },
        {
          "internalType": "bytes32",
          "name": "s",
          "type": "bytes32"
        }
      ],
      "name": "removeLiquidityETHWithPermitSupportingFeeOnTransferTokens",
      "outputs": [
        {
          "internalType": "uint256",
          "name": "amountETH",
          "type": "uint256"
        }
      ],
      "stateMutability": "nonpayable",
      "type": "function"
    },
    {
      "inputs": [
        {
          "internalType": "address",
          "name": "pair",
          "type": "address"
        },
        {
          "internalType": "address",
          "name": "tokenA",
          "type": "address"
        },
        {
          "internalType": "address",
          "name": "tokenB",
          "type": "address"
        },
        {
          "internalType": "uint256",
          "name": "liquidity",
          "type": "uint256"
        },
        {
          "internalType": "uint256",
          "name": "amountAMin",
          "type": "uint256"
        },
        {
          "internalType": "uint256",
          "name": "amountBMin",
          "type": "uint256"
        },
        {
          "internalType": "address",
          "name": "to",
          "type": "address"
        },
        {
          "internalType": "uint256",
          "name": "deadline",
          "type": "uint256"
        },
        {
          "internalType": "bool",
          "name": "approveMax",
          "type": "bool"
        },
        {
          "internalType": "uint8",
          "name": "v",
          "type": "uint8"
        },
        {
          "internalType": "bytes32",
          "name": "r",
          "type": "bytes32"
        },
        {
          "internalType": "bytes32",
          "name": "s",
          "type": "bytes32"
        }
      ],
      "name": "removeLiquidityWithPermit",
      "outputs": [
        {
          "internalType": "uint256",
          "name": "amountA",
          "type": "uint256"
        },
        {
          "internalType": "uint256",
          "name": "amountB",
          "type": "uint256"
        }
      ],
      "stateMutability": "nonpayable",
      "type": "function"
    },
    {
      "stateMutability": "payable",
      "type": "receive"
    }
  ],
  "transactionHash": "0xf15c6c0bbfcc28f6044032aa44fed23e59951331ec7fac7bf03803b77aa0faa3",
  "args": [
    "0x9fE46736679d2D9a65F0992F2272dE9f3c7fa6e0",
    "0x5FbDB2315678afecb367f032d93F642f64180aa3"
  ],
  "solcInputHash": "2d3ec924fc67f0620c5c1ce2c909632e",
  "bytecode": "0x60e06040523480156200001157600080fd5b5060405162001dff38038062001dff8339810160408190526200003491620000db565b6001600160a01b038216608081905260408051634b75f54f60e01b81529051634b75f54f916004808201926020929091908290030181865afa1580156200007f573d6000803e3d6000fd5b505050506040513d601f19601f82011682018060405250810190620000a5919062000113565b6001600160a01b0390811660a0521660c0525062000138565b80516001600160a01b0381168114620000d657600080fd5b919050565b60008060408385031215620000ef57600080fd5b620000fa83620000be565b91506200010a60208401620000be565b90509250929050565b6000602082840312156200012657600080fd5b6200013182620000be565b9392505050565b60805160a05160c051611c2f620001d06000396000818160d601528181610231015281816105010152818161069d0152818161089e01528181610a3201528181610f9e0152818161146401526114f901526000818161017d01528181610cf50152818161109a0152818161114d015261124b01526000818161028501528181610542015281816107420152610b2e0152611c2f6000f3fe6080604052600436106100c65760003560e01c8063ad5c46481161007f578063d0f2c82a11610059578063d0f2c82a146102a7578063e1f4a784146102c7578063ebb5d2e9146102e7578063fbf451351461030757600080fd5b8063ad5c46481461021f578063b56b681d14610253578063c45a01551461027357600080fd5b80630e2f024c1461010a5780633990ba541461013d5780634b75f54f1461016b5780634c17fd7c146101b75780636cb49428146101ec578063a4aabb08146101ff57600080fd5b3661010557336001600160a01b037f0000000000000000000000000000000000000000000000000000000000000000161461010357610103611648565b005b600080fd5b34801561011657600080fd5b5061012a61012536600461169a565b610327565b6040519081526020015b60405180910390f35b61015061014b366004611744565b6103c6565b60408051938452602084019290925290820152606001610134565b34801561017757600080fd5b5061019f7f000000000000000000000000000000000000000000000000000000000000000081565b6040516001600160a01b039091168152602001610134565b3480156101c357600080fd5b506101d76101d23660046117b6565b610417565b60408051928352602083019190915201610134565b61012a6101fa366004611886565b6104e2565b34801561020b57600080fd5b506101d761021a36600461169a565b6105cd565b34801561022b57600080fd5b5061019f7f000000000000000000000000000000000000000000000000000000000000000081565b34801561025f57600080fd5b506101d761026e366004611744565b610672565b34801561027f57600080fd5b5061019f7f000000000000000000000000000000000000000000000000000000000000000081565b3480156102b357600080fd5b5061012a6102c23660046118ea565b610702565b3480156102d357600080fd5b506101d76102e236600461196a565b61082f565b3480156102f357600080fd5b5061012a610302366004611744565b610874565b34801561031357600080fd5b506101506103223660046119ef565b61096c565b60008085610335578a610339565b6000195b60405163d505accf60e01b81529091506001600160a01b038e169063d505accf90610374903390309086908d908c908c908c90600401611a7e565b600060405180830381600087803b15801561038e57600080fd5b505af11580156103a2573d6000803e3d6000fd5b505050506103b58d8d8d8d8d8d8d610874565b9d9c50505050505050505050505050565b600080600083428110156103f55760405162461bcd60e51b81526004016103ec90611abf565b60405180910390fd5b6104038b8b8b8b8b8b610a26565b919d909c50909a5098505050505050505050565b600080864281101561043b5760405162461bcd60e51b81526004016103ec90611abf565b600087610448578c61044c565b6000195b90508f6001600160a01b031663d505accf3330848d8c8c8c6040518863ffffffff1660e01b81526004016104869796959493929190611a7e565b600060405180830381600087803b1580156104a057600080fd5b505af11580156104b4573d6000803e3d6000fd5b50505050506104c88f8f8f8f8f8f8f610b0a565b8093508194505050509c509c9a5050505050505050505050565b6040516314572adb60e01b81526001600160a01b0386811660048301527f00000000000000000000000000000000000000000000000000000000000000008116602483015263ffffffff80861660448401528416606483015260009182917f000000000000000000000000000000000000000000000000000000000000000016906314572adb906084016020604051808303816000875af115801561058b573d6000803e3d6000fd5b505050506040513d601f19601f820116820180604052508101906105af9190611ae8565b90506105c081888860008088610a26565b9998505050505050505050565b6000806000866105dd578b6105e1565b6000195b60405163d505accf60e01b81529091506001600160a01b038f169063d505accf9061061c903390309086908e908d908d908d90600401611a7e565b600060405180830381600087803b15801561063657600080fd5b505af115801561064a573d6000803e3d6000fd5b5050505061065d8e8e8e8e8e8e8e610672565b909f909e509c50505050505050505050505050565b60008082428110156106965760405162461bcd60e51b81526004016103ec90611abf565b6106c58a8a7f00000000000000000000000000000000000000000000000000000000000000008b8b8b30610b0a565b90935091506106d5898685610e39565b6106f473eeeeeeeeeeeeeeeeeeeeeeeeeeeeeeeeeeeeeeee8684610f54565b505097509795505050505050565b6040516314572adb60e01b81526001600160a01b038881166004830152878116602483015263ffffffff80861660448401528416606483015260009182917f000000000000000000000000000000000000000000000000000000000000000016906314572adb906084016020604051808303816000875af115801561078b573d6000803e3d6000fd5b505050506040513d601f19601f820116820180604052508101906107af9190611ae8565b90506107c1818a8a8a8a600080611027565b50506040516335313c2160e11b81526001600160a01b038481166004830152821690636a627842906024016020604051808303816000875af115801561080b573d6000803e3d6000fd5b505050506040513d601f19601f820116820180604052508101906105c09190611b05565b60008082428110156108535760405162461bcd60e51b81526004016103ec90611abf565b6108628b8b8b8b8b8b8b610b0a565b909c909b509950505050505050505050565b600081428110156108975760405162461bcd60e51b81526004016103ec90611abf565b6108c789897f00000000000000000000000000000000000000000000000000000000000000008a8a8a308a61082f565b6040516370a0823160e01b81523060048201529093506109409150899086906001600160a01b038316906370a0823190602401602060405180830381865afa158015610917573d6000803e3d6000fd5b505050506040513d601f19601f8201168201806040525081019061093b9190611b05565b610e39565b61095f73eeeeeeeeeeeeeeeeeeeeeeeeeeeeeeeeeeeeeeee8584610f54565b5050979650505050505050565b600080600083428110156109925760405162461bcd60e51b81526004016103ec90611abf565b6109a18d8d8d8d8d8d8d611027565b6040516335313c2160e11b81526001600160a01b038981166004830152929650909450908e1690636a627842906024016020604051808303816000875af11580156109f0573d6000803e3d6000fd5b505050506040513d601f19601f82011682018060405250810190610a149190611b05565b91505099509950999650505050505050565b6000806000610a5a89897f00000000000000000000000000000000000000000000000000000000000000008a348b8b611062565b9093509150610a6b88338b86611332565b610a75828a611462565b6040516335313c2160e11b81526001600160a01b0385811660048301528a1690636a627842906024016020604051808303816000875af1158015610abd573d6000803e3d6000fd5b505050506040513d601f19601f82011682018060405250810190610ae19190611b05565b905081341115610afe57610afe33610af98434611b1e565b61157a565b96509650969350505050565b60405163e5e31b1360e01b81526001600160a01b03888116600483015260009182917f0000000000000000000000000000000000000000000000000000000000000000169063e5e31b1390602401602060405180830381865afa158015610b75573d6000803e3d6000fd5b505050506040513d601f19601f82011682018060405250810190610b999190611b43565b610bdc5760405162461bcd60e51b81526020600482015260146024820152732937baba32b91d1024b73b30b634b2103830b4b960611b60448201526064016103ec565b6040516323b872dd60e01b81523360048201526001600160a01b038a166024820181905260448201889052906323b872dd906064016020604051808303816000875af1158015610c30573d6000803e3d6000fd5b505050506040513d601f19601f82011682018060405250810190610c549190611b43565b5060405163226bf2d160e21b81526001600160a01b03848116600483015260009182918c16906389afcb449060240160408051808303816000875af1158015610ca1573d6000803e3d6000fd5b505050506040513d601f19601f82011682018060405250810190610cc59190611b60565b604051632a26552b60e11b81526001600160a01b038d811660048301528c811660248301529294509092506000917f0000000000000000000000000000000000000000000000000000000000000000169063544caa56906044016040805180830381865afa158015610d3b573d6000803e3d6000fd5b505050506040513d601f19601f82011682018060405250810190610d5f9190611b84565b509050806001600160a01b03168b6001600160a01b031614610d82578183610d85565b82825b909550935087851015610dda5760405162461bcd60e51b815260206004820152601d60248201527f526f757465723a20494e53554646494349454e545f415f414d4f554e5400000060448201526064016103ec565b86841015610e2a5760405162461bcd60e51b815260206004820152601d60248201527f526f757465723a20494e53554646494349454e545f425f414d4f554e5400000060448201526064016103ec565b50505097509795505050505050565b604080516001600160a01b038481166024830152604480830185905283518084039091018152606490920183526020820180516001600160e01b031663a9059cbb60e01b1790529151600092839290871691610e959190611bbe565b6000604051808303816000865af19150503d8060008114610ed2576040519150601f19603f3d011682016040523d82523d6000602084013e610ed7565b606091505b5091509150818015610f01575080511580610f01575080806020019051810190610f019190611b43565b610f4d5760405162461bcd60e51b815260206004820152601f60248201527f5472616e7366657248656c7065723a205452414e534645525f4641494c45440060448201526064016103ec565b5050505050565b600081610f6357506001611020565b73eeeeeeeeeeeeeeeeeeeeeeeeeeeeeeeeeeeeeeee6001600160a01b038516141561101157604051632e1a7d4d60e01b8152600481018390527f00000000000000000000000000000000000000000000000000000000000000006001600160a01b031690632e1a7d4d90602401600060405180830381600087803b158015610fea57600080fd5b505af1158015610ffe573d6000803e3d6000fd5b5050505061100c838361157a565b61101c565b61101c848484610e39565b5060015b9392505050565b60008061103989898989898989611062565b909250905061104a88338b85611332565b61105687338b84611332565b97509795505050505050565b604051633274946160e01b81526001600160a01b038881166004830152878116602483015286811660448301526000918291829182917f000000000000000000000000000000000000000000000000000000000000000016906332749461906064016040805180830381865afa1580156110e0573d6000803e3d6000fd5b505050506040513d601f19601f820116820180604052508101906111049190611b60565b91509150816000148015611116575080155b15611126578793508692506106f4565b604051632b58577b60e21b81526004810189905260248101839052604481018290526000907f00000000000000000000000000000000000000000000000000000000000000006001600160a01b03169063ad615dec90606401602060405180830381865afa15801561119c573d6000803e3d6000fd5b505050506040513d601f19601f820116820180604052508101906111c09190611b05565b905087811161122457858110156112195760405162461bcd60e51b815260206004820152601d60248201527f526f757465723a20494e53554646494349454e545f425f414d4f554e5400000060448201526064016103ec565b889450925082610e2a565b604051632b58577b60e21b81526004810189905260248101839052604481018490526000907f00000000000000000000000000000000000000000000000000000000000000006001600160a01b03169063ad615dec90606401602060405180830381865afa15801561129a573d6000803e3d6000fd5b505050506040513d601f19601f820116820180604052508101906112be9190611b05565b9050898111156112d0576112d0611648565b878110156113205760405162461bcd60e51b815260206004820152601d60248201527f526f757465723a20494e53554646494349454e545f415f414d4f554e5400000060448201526064016103ec565b9c979b50969950505050505050505050565b604080516001600160a01b0385811660248301528481166044830152606480830185905283518084039091018152608490920183526020820180516001600160e01b03166323b872dd60e01b17905291516000928392908816916113969190611bbe565b6000604051808303816000865af19150503d80600081146113d3576040519150601f19603f3d011682016040523d82523d6000602084013e6113d8565b606091505b50915091508180156114025750805115806114025750808060200190518101906114029190611b43565b61145a5760405162461bcd60e51b8152602060048201526024808201527f5472616e7366657248656c7065723a205452414e534645525f46524f4d5f46416044820152631253115160e21b60648201526084016103ec565b505050505050565b7f00000000000000000000000000000000000000000000000000000000000000006001600160a01b031663d0e30db0836040518263ffffffff1660e01b81526004016000604051808303818588803b1580156114bd57600080fd5b505af11580156114d1573d6000803e3d6000fd5b505060405163a9059cbb60e01b81526001600160a01b038581166004830152602482018790527f000000000000000000000000000000000000000000000000000000000000000016935063a9059cbb925060440190506020604051808303816000875af1158015611546573d6000803e3d6000fd5b505050506040513d601f19601f8201168201806040525081019061156a9190611b43565b61157657611576611648565b5050565b604080516000808252602082019092526001600160a01b0384169083906040516115a49190611bbe565b60006040518083038185875af1925050503d80600081146115e1576040519150601f19603f3d011682016040523d82523d6000602084013e6115e6565b606091505b50509050806116435760405162461bcd60e51b815260206004820152602360248201527f5472616e7366657248656c7065723a204554485f5452414e534645525f46414960448201526213115160ea1b60648201526084016103ec565b505050565b634e487b7160e01b600052600160045260246000fd5b6001600160a01b038116811461167357600080fd5b50565b801515811461167357600080fd5b803560ff8116811461169557600080fd5b919050565b60008060008060008060008060008060006101608c8e0312156116bc57600080fd5b8b356116c78161165e565b9a5060208c01356116d78161165e565b995060408c0135985060608c0135975060808c0135965060a08c01356116fc8161165e565b955060c08c0135945060e08c013561171381611676565b93506117226101008d01611684565b92506101208c013591506101408c013590509295989b509295989b9093969950565b600080600080600080600060e0888a03121561175f57600080fd5b873561176a8161165e565b9650602088013561177a8161165e565b955060408801359450606088013593506080880135925060a088013561179f8161165e565b8092505060c0880135905092959891949750929550565b6000806000806000806000806000806000806101808d8f0312156117d957600080fd5b8c356117e48161165e565b9b5060208d01356117f48161165e565b9a5060408d01356118048161165e565b995060608d0135985060808d0135975060a08d0135965060c08d01356118298161165e565b955060e08d013594506101008d013561184181611676565b93506118506101208e01611684565b92506101408d013591506101608d013590509295989b509295989b509295989b565b803563ffffffff8116811461169557600080fd5b600080600080600060a0868803121561189e57600080fd5b85356118a98161165e565b9450602086013593506118be60408701611872565b92506118cc60608701611872565b915060808601356118dc8161165e565b809150509295509295909350565b600080600080600080600060e0888a03121561190557600080fd5b87356119108161165e565b965060208801356119208161165e565b9550604088013594506060880135935061193c60808901611872565b925061194a60a08901611872565b915060c088013561195a8161165e565b8091505092959891949750929550565b600080600080600080600080610100898b03121561198757600080fd5b88356119928161165e565b975060208901356119a28161165e565b965060408901356119b28161165e565b9550606089013594506080890135935060a0890135925060c08901356119d78161165e565b8092505060e089013590509295985092959890939650565b60008060008060008060008060006101208a8c031215611a0e57600080fd5b8935611a198161165e565b985060208a0135611a298161165e565b975060408a0135611a398161165e565b965060608a0135955060808a0135945060a08a0135935060c08a0135925060e08a0135611a658161165e565b809250506101008a013590509295985092959850929598565b6001600160a01b0397881681529590961660208601526040850193909352606084019190915260ff16608083015260a082015260c081019190915260e00190565b6020808252600f908201526e149bdd5d195c8e8811561412549151608a1b604082015260600190565b600060208284031215611afa57600080fd5b81516110208161165e565b600060208284031215611b1757600080fd5b5051919050565b600082821015611b3e57634e487b7160e01b600052601160045260246000fd5b500390565b600060208284031215611b5557600080fd5b815161102081611676565b60008060408385031215611b7357600080fd5b505080516020909101519092909150565b60008060408385031215611b9757600080fd5b8251611ba28161165e565b6020840151909250611bb38161165e565b809150509250929050565b6000825160005b81811015611bdf5760208186018101518583015201611bc5565b81811115611bee576000828501525b50919091019291505056fea26469706673582212202931193f2b648728d621b11bf3b86c03bd1fd7f3452c9489b003bdaaa7ed375b64736f6c634300080b0033",
  "devdoc": {
    "kind": "dev",
    "methods": {},
    "version": 1
  },
  "userdoc": {
    "kind": "user",
    "methods": {},
    "version": 1
  },
  "storageLayout": {
    "storage": [],
    "types": null
  }
}