{
  "address": "0x95401dc811bb5740090279Ba06cfA8fcF6113778",
  "abi": [
    {
      "inputs": [
        {
          "internalType": "address",
          "name": "_REQT",
          "type": "address"
        }
      ],
      "stateMutability": "nonpayable",
      "type": "constructor"
    },
    {
      "inputs": [],
      "name": "REQT",
      "outputs": [
        {
          "internalType": "address",
          "name": "",
          "type": "address"
        }
      ],
      "stateMutability": "view",
      "type": "function"
    },
    {
      "inputs": [
        {
          "internalType": "address",
          "name": "_pair",
          "type": "address"
        }
      ],
      "name": "getKValue",
      "outputs": [
        {
          "internalType": "uint256",
          "name": "k_",
          "type": "uint256"
        }
      ],
      "stateMutability": "view",
      "type": "function"
    },
    {
      "inputs": [
        {
          "internalType": "address",
          "name": "_pair",
          "type": "address"
        }
      ],
      "name": "getTotalValue",
      "outputs": [
        {
          "internalType": "uint256",
          "name": "_value",
          "type": "uint256"
        }
      ],
      "stateMutability": "view",
      "type": "function"
    },
    {
      "inputs": [
        {
          "internalType": "address",
          "name": "_pair",
          "type": "address"
        }
      ],
      "name": "markdown",
      "outputs": [
        {
          "internalType": "uint256",
          "name": "",
          "type": "uint256"
        }
      ],
      "stateMutability": "view",
      "type": "function"
    },
    {
      "inputs": [
        {
          "internalType": "address",
          "name": "_pair",
          "type": "address"
        },
        {
          "internalType": "uint256",
          "name": "amount_",
          "type": "uint256"
        }
      ],
      "name": "valuation",
      "outputs": [
        {
          "internalType": "uint256",
          "name": "_value",
          "type": "uint256"
        }
      ],
      "stateMutability": "view",
      "type": "function"
    }
  ],
  "transactionHash": "0x9793e632484b5d571455519121140e09262e812d1b2821a403a3a28c314d94e2",
  "args": [
    "0x610178dA211FEF7D417bC0e6FeD39F05609AD788"
  ],
  "solcInputHash": "bd6a513f9e3e575f476f3ca3926dc253",
  "bytecode": "0x60a060405234801561001057600080fd5b50604051610c58380380610c5883398101604081905261002f91610053565b6001600160a01b03811661004257600080fd5b6001600160a01b0316608052610083565b60006020828403121561006557600080fd5b81516001600160a01b038116811461007c57600080fd5b9392505050565b608051610bad6100ab6000396000818160610152818161017c015261022a0152610bad6000f3fe608060405234801561001057600080fd5b50600436106100575760003560e01c806302bb41e51461005c57806332da80a3146100a05780634249719f146100c1578063490084ef146100d457806368637549146100e7575b600080fd5b6100837f000000000000000000000000000000000000000000000000000000000000000081565b6040516001600160a01b0390911681526020015b60405180910390f35b6100b36100ae3660046108e9565b6100fa565b604051908152602001610097565b6100b36100cf366004610906565b6102dd565b6100b36100e23660046108e9565b610376565b6100b36100f53660046108e9565b610628565b6000806000836001600160a01b0316630902f1ac6040518163ffffffff1660e01b8152600401606060405180830381865afa15801561013d573d6000803e3d6000fd5b505050506040513d601f19601f820116820180604052508101906101619190610949565b506001600160701b031691506001600160701b0316915060007f00000000000000000000000000000000000000000000000000000000000000006001600160a01b0316856001600160a01b0316630dfe16816040518163ffffffff1660e01b8152600401602060405180830381865afa1580156101e2573d6000803e3d6000fd5b505050506040513d601f19601f820116820180604052508101906102069190610999565b6001600160a01b0316141561021c57508061021f565b50815b61022885610628565b7f00000000000000000000000000000000000000000000000000000000000000006001600160a01b031663313ce5676040518163ffffffff1660e01b8152600401602060405180830381865afa158015610286573d6000803e3d6000fd5b505050506040513d601f19601f820116820180604052508101906102aa91906109b6565b6102b590600a610ad3565b6102c0906002610ae2565b6102ca9083610ae2565b6102d49190610b01565b95945050505050565b6000806102e984610628565b90506000846001600160a01b03166318160ddd6040518163ffffffff1660e01b8152600401602060405180830381865afa15801561032b573d6000803e3d6000fd5b505050506040513d601f19601f8201168201806040525081019061034f9190610b23565b9050670de0b6b3a764000061036c610367868461064c565b61078c565b6102ca9084610ae2565b600080826001600160a01b0316630dfe16816040518163ffffffff1660e01b8152600401602060405180830381865afa1580156103b7573d6000803e3d6000fd5b505050506040513d601f19601f820116820180604052508101906103db9190610999565b6001600160a01b031663313ce5676040518163ffffffff1660e01b8152600401602060405180830381865afa158015610418573d6000803e3d6000fd5b505050506040513d601f19601f8201168201806040525081019061043c91906109b6565b60ff1690506000836001600160a01b031663d21220a76040518163ffffffff1660e01b8152600401602060405180830381865afa158015610481573d6000803e3d6000fd5b505050506040513d601f19601f820116820180604052508101906104a59190610999565b6001600160a01b031663313ce5676040518163ffffffff1660e01b8152600401602060405180830381865afa1580156104e2573d6000803e3d6000fd5b505050506040513d601f19601f8201168201806040525081019061050691906109b6565b60ff1690506000846001600160a01b031663313ce5676040518163ffffffff1660e01b8152600401602060405180830381865afa15801561054b573d6000803e3d6000fd5b505050506040513d601f19601f8201168201806040525081019061056f91906109b6565b60ff1661057c8385610b3c565b6105869190610b54565b9050600080866001600160a01b0316630902f1ac6040518163ffffffff1660e01b8152600401606060405180830381865afa1580156105c9573d6000803e3d6000fd5b505050506040513d601f19601f820116820180604052508101906105ed9190610949565b506001600160701b03918216935016905061060983600a610b6b565b6106138284610ae2565b61061d9190610b01565b979650505050505050565b600061063b61063683610376565b6107ac565b610646906002610ae2565b92915050565b604080516020810190915260008152600082116106bf5760405162461bcd60e51b815260206004820152602660248201527f4669786564506f696e743a3a6672616374696f6e3a206469766973696f6e206260448201526579207a65726f60d01b60648201526084015b60405180910390fd5b826106d95750604080516020810190915260008152610646565b71ffffffffffffffffffffffffffffffffffff831161077b57600061070283607086901b610b01565b90506001600160e01b0381111561075b5760405162461bcd60e51b815260206004820152601e60248201527f4669786564506f696e743a3a6672616374696f6e3a206f766572666c6f77000060448201526064016106b6565b6040518060200160405280826001600160e01b0316815250915050610646565b600061070284600160701b8561081c565b8051600090610646906612725dd1d243ab906001600160e01b0316610b01565b6000600382111561080d57508060006107c6600283610b01565b6107d1906001610b3c565b90505b81811015610807579050806002816107ec8186610b01565b6107f69190610b3c565b6108009190610b01565b90506107d4565b50919050565b8115610817575060015b919050565b600080806000198587098587029250828110838203039150508060001415610856576000841161084b57600080fd5b5082900490506108ca565b80841161086257600080fd5b600084868809851960019081018716968790049682860381900495909211909303600082900391909104909201919091029190911760038402600290811880860282030280860282030280860282030280860282030280860282030280860290910302029150505b9392505050565b6001600160a01b03811681146108e657600080fd5b50565b6000602082840312156108fb57600080fd5b81356108ca816108d1565b6000806040838503121561091957600080fd5b8235610924816108d1565b946020939093013593505050565b80516001600160701b038116811461081757600080fd5b60008060006060848603121561095e57600080fd5b61096784610932565b925061097560208501610932565b9150604084015163ffffffff8116811461098e57600080fd5b809150509250925092565b6000602082840312156109ab57600080fd5b81516108ca816108d1565b6000602082840312156109c857600080fd5b815160ff811681146108ca57600080fd5b634e487b7160e01b600052601160045260246000fd5b600181815b80851115610a2a578160001904821115610a1057610a106109d9565b80851615610a1d57918102915b93841c93908002906109f4565b509250929050565b600082610a4157506001610646565b81610a4e57506000610646565b8160018114610a645760028114610a6e57610a8a565b6001915050610646565b60ff841115610a7f57610a7f6109d9565b50506001821b610646565b5060208310610133831016604e8410600b8410161715610aad575081810a610646565b610ab783836109ef565b8060001904821115610acb57610acb6109d9565b029392505050565b60006108ca60ff841683610a32565b6000816000190483118215151615610afc57610afc6109d9565b500290565b600082610b1e57634e487b7160e01b600052601260045260246000fd5b500490565b600060208284031215610b3557600080fd5b5051919050565b60008219821115610b4f57610b4f6109d9565b500190565b600082821015610b6657610b666109d9565b500390565b60006108ca8383610a3256fea2646970667358221220b7b2b1c54b4bc1c84e9b365483e9fe5193829a8031737d58d6c2747fb1a9541c64736f6c634300080b0033",
  "devdoc": {
    "kind": "dev",
    "methods": {},
    "version": 1
  },
  "userdoc": {
    "kind": "user",
    "methods": {},
    "notice": "Bonding calculator for weighted pairs",
    "version": 1
  },
  "storageLayout": {
    "storage": [],
    "types": null
  }
}