{
  "address": "0x59b670e9fA9D0A427751Af201D676719a970857b",
  "abi": [
    {
      "inputs": [
        {
          "internalType": "address",
          "name": "_REQT",
          "type": "address"
        },
        {
          "internalType": "address",
          "name": "_sREQT",
          "type": "address"
        },
        {
          "internalType": "uint256",
          "name": "_epochLength",
          "type": "uint256"
        },
        {
          "internalType": "uint256",
          "name": "_firstEpochNumber",
          "type": "uint256"
        },
        {
          "internalType": "uint256",
          "name": "_firstEpochBlock",
          "type": "uint256"
        }
      ],
      "stateMutability": "nonpayable",
      "type": "constructor"
    },
    {
      "anonymous": false,
      "inputs": [
        {
          "indexed": true,
          "internalType": "address",
          "name": "previousOwner",
          "type": "address"
        },
        {
          "indexed": true,
          "internalType": "address",
          "name": "newOwner",
          "type": "address"
        }
      ],
      "name": "OwnershipPulled",
      "type": "event"
    },
    {
      "anonymous": false,
      "inputs": [
        {
          "indexed": true,
          "internalType": "address",
          "name": "previousOwner",
          "type": "address"
        },
        {
          "indexed": true,
          "internalType": "address",
          "name": "newOwner",
          "type": "address"
        }
      ],
      "name": "OwnershipPushed",
      "type": "event"
    },
    {
      "inputs": [],
      "name": "REQT",
      "outputs": [
        {
          "internalType": "address",
          "name": "",
          "type": "address"
        }
      ],
      "stateMutability": "view",
      "type": "function"
    },
    {
      "inputs": [
        {
          "internalType": "address",
          "name": "_recipient",
          "type": "address"
        }
      ],
      "name": "claim",
      "outputs": [],
      "stateMutability": "nonpayable",
      "type": "function"
    },
    {
      "inputs": [],
      "name": "contractBalance",
      "outputs": [
        {
          "internalType": "uint256",
          "name": "",
          "type": "uint256"
        }
      ],
      "stateMutability": "view",
      "type": "function"
    },
    {
      "inputs": [],
      "name": "distributor",
      "outputs": [
        {
          "internalType": "address",
          "name": "",
          "type": "address"
        }
      ],
      "stateMutability": "view",
      "type": "function"
    },
    {
      "inputs": [],
      "name": "epoch",
      "outputs": [
        {
          "internalType": "uint256",
          "name": "length",
          "type": "uint256"
        },
        {
          "internalType": "uint256",
          "name": "number",
          "type": "uint256"
        },
        {
          "internalType": "uint256",
          "name": "endBlock",
          "type": "uint256"
        },
        {
          "internalType": "uint256",
          "name": "distribute",
          "type": "uint256"
        }
      ],
      "stateMutability": "view",
      "type": "function"
    },
    {
      "inputs": [],
      "name": "forfeit",
      "outputs": [],
      "stateMutability": "nonpayable",
      "type": "function"
    },
    {
      "inputs": [
        {
          "internalType": "uint256",
          "name": "_amount",
          "type": "uint256"
        }
      ],
      "name": "giveLockBonus",
      "outputs": [],
      "stateMutability": "nonpayable",
      "type": "function"
    },
    {
      "inputs": [],
      "name": "index",
      "outputs": [
        {
          "internalType": "uint256",
          "name": "",
          "type": "uint256"
        }
      ],
      "stateMutability": "view",
      "type": "function"
    },
    {
      "inputs": [],
      "name": "locker",
      "outputs": [
        {
          "internalType": "address",
          "name": "",
          "type": "address"
        }
      ],
      "stateMutability": "view",
      "type": "function"
    },
    {
      "inputs": [],
      "name": "policy",
      "outputs": [
        {
          "internalType": "address",
          "name": "",
          "type": "address"
        }
      ],
      "stateMutability": "view",
      "type": "function"
    },
    {
      "inputs": [],
      "name": "pullManagement",
      "outputs": [],
      "stateMutability": "nonpayable",
      "type": "function"
    },
    {
      "inputs": [
        {
          "internalType": "address",
          "name": "newOwner_",
          "type": "address"
        }
      ],
      "name": "pushManagement",
      "outputs": [],
      "stateMutability": "nonpayable",
      "type": "function"
    },
    {
      "inputs": [],
      "name": "rebase",
      "outputs": [],
      "stateMutability": "nonpayable",
      "type": "function"
    },
    {
      "inputs": [],
      "name": "renounceManagement",
      "outputs": [],
      "stateMutability": "nonpayable",
      "type": "function"
    },
    {
      "inputs": [
        {
          "internalType": "uint256",
          "name": "_amount",
          "type": "uint256"
        }
      ],
      "name": "returnLockBonus",
      "outputs": [],
      "stateMutability": "nonpayable",
      "type": "function"
    },
    {
      "inputs": [],
      "name": "sREQT",
      "outputs": [
        {
          "internalType": "address",
          "name": "",
          "type": "address"
        }
      ],
      "stateMutability": "view",
      "type": "function"
    },
    {
      "inputs": [
        {
          "internalType": "enum RequiemStaking.CONTRACTS",
          "name": "_contract",
          "type": "uint8"
        },
        {
          "internalType": "address",
          "name": "_address",
          "type": "address"
        }
      ],
      "name": "setContract",
      "outputs": [],
      "stateMutability": "nonpayable",
      "type": "function"
    },
    {
      "inputs": [
        {
          "internalType": "uint256",
          "name": "_warmupPeriod",
          "type": "uint256"
        }
      ],
      "name": "setWarmup",
      "outputs": [],
      "stateMutability": "nonpayable",
      "type": "function"
    },
    {
      "inputs": [
        {
          "internalType": "uint256",
          "name": "_amount",
          "type": "uint256"
        },
        {
          "internalType": "address",
          "name": "_recipient",
          "type": "address"
        }
      ],
      "name": "stake",
      "outputs": [
        {
          "internalType": "bool",
          "name": "",
          "type": "bool"
        }
      ],
      "stateMutability": "nonpayable",
      "type": "function"
    },
    {
      "inputs": [],
      "name": "toggleDepositLock",
      "outputs": [],
      "stateMutability": "nonpayable",
      "type": "function"
    },
    {
      "inputs": [],
      "name": "totalBonus",
      "outputs": [
        {
          "internalType": "uint256",
          "name": "",
          "type": "uint256"
        }
      ],
      "stateMutability": "view",
      "type": "function"
    },
    {
      "inputs": [
        {
          "internalType": "uint256",
          "name": "_amount",
          "type": "uint256"
        },
        {
          "internalType": "bool",
          "name": "_trigger",
          "type": "bool"
        }
      ],
      "name": "unstake",
      "outputs": [],
      "stateMutability": "nonpayable",
      "type": "function"
    },
    {
      "inputs": [],
      "name": "warmupContract",
      "outputs": [
        {
          "internalType": "address",
          "name": "",
          "type": "address"
        }
      ],
      "stateMutability": "view",
      "type": "function"
    },
    {
      "inputs": [
        {
          "internalType": "address",
          "name": "",
          "type": "address"
        }
      ],
      "name": "warmupInfo",
      "outputs": [
        {
          "internalType": "uint256",
          "name": "deposit",
          "type": "uint256"
        },
        {
          "internalType": "uint256",
          "name": "gons",
          "type": "uint256"
        },
        {
          "internalType": "uint256",
          "name": "expiry",
          "type": "uint256"
        },
        {
          "internalType": "bool",
          "name": "lock",
          "type": "bool"
        }
      ],
      "stateMutability": "view",
      "type": "function"
    },
    {
      "inputs": [],
      "name": "warmupPeriod",
      "outputs": [
        {
          "internalType": "uint256",
          "name": "",
          "type": "uint256"
        }
      ],
      "stateMutability": "view",
      "type": "function"
    }
  ],
  "transactionHash": "0x8b1f4913f9300f5fdbf4f57bf7ca5964dd22983038ee97c5ef2a75b391d1e5bc",
  "args": [
    "0x610178dA211FEF7D417bC0e6FeD39F05609AD788",
    "0xc6e7DF5E7b4f2A278906862b61205850344D4e7d",
    10000,
    0,
    0
  ],
  "solcInputHash": "0f20472ed843c15e57cd0f08d39ae87b",
  "bytecode": "0x60c06040523480156200001157600080fd5b506040516200193438038062001934833981016040819052620000349162000109565b600080546001600160a01b0319163390811782556040519091907fea8258f2d9ddb679928cf34b78cf645b7feda9acc828e4dd82d014eaae270eba908290a36001600160a01b0385166200008757600080fd5b6001600160a01b038086166080528416620000a157600080fd5b6001600160a01b0390931660a052604080516080810182528381526020810183905290810184905260006060909101819052600292909255600355600491909155600555506200015c565b80516001600160a01b03811681146200010457600080fd5b919050565b600080600080600060a086880312156200012257600080fd5b6200012d86620000ec565b94506200013d60208701620000ec565b6040870151606088015160809098015196999198509695945092505050565b60805160a051611750620001e4600039600081816103ec0152818161044d015281816105ed015281816106d701528181610a6c01528181610b7c01528181610e5101528181610eec01528181611037015281816111cb01526113230152600081816101ad0152818161098501528181610dc101528181610e8601526112bb01526117506000f3fe608060405234801561001057600080fd5b50600436106101a35760003560e01c80638f077b83116100ee578063c9f464ff11610097578063ed4acaa811610071578063ed4acaa8146103b9578063f3d86e4a146103cc578063f62ae76a146103d4578063fafbbc67146103e757600080fd5b8063c9f464ff1461038a578063d7b96d4e1461039d578063deac361a146103b057600080fd5b8063a8dd07dc116100c8578063a8dd07dc14610366578063af14052c1461036f578063bfe109281461037757600080fd5b80638f077b83146102f6578063900cf0cf1461031d5780639ebea88c1461035357600080fd5b806346f68ee9116101505780637acb77571161012a5780637acb7757146102b8578063865e6fd3146102db5780638b7afe2e146102ee57600080fd5b806346f68ee9146102435780635a96ac0a146102565780636746f4c21461025e57600080fd5b8063089208d811610181578063089208d8146102125780631e83409a1461021a5780632986c0e51461022d57600080fd5b806302bb41e5146101a857806303c23670146101ec5780630505c8c914610201575b600080fd5b6101cf7f000000000000000000000000000000000000000000000000000000000000000081565b6040516001600160a01b0390911681526020015b60405180910390f35b6101ff6101fa366004611542565b61040e565b005b6000546001600160a01b03166101cf565b6101ff610479565b6101ff610228366004611577565b610522565b6102356106d3565b6040519081526020016101e3565b6101ff610251366004611577565b61075c565b6101ff61088d565b61029661026c366004611577565b600b6020526000908152604090208054600182015460028301546003909301549192909160ff1684565b60408051948552602085019390935291830152151560608201526080016101e3565b6102cb6102c6366004611599565b61096e565b60405190151581526020016101e3565b6101ff6102e93660046115c5565b610baf565b610235610d84565b6101ff336000908152600b60205260409020600301805460ff19811660ff90911615179055565b6002546003546004546005546103339392919084565b6040805194855260208501939093529183015260608201526080016101e3565b6101ff610361366004611603565b610e36565b61023560085481565b6101ff610ead565b6006546101cf906001600160a01b031681565b6101ff610398366004611542565b6110db565b6007546101cf906001600160a01b031681565b610235600a5481565b6009546101cf906001600160a01b031681565b6101ff61113a565b6101ff6103e2366004611542565b6112e4565b6101cf7f000000000000000000000000000000000000000000000000000000000000000081565b6007546001600160a01b0316331461042557600080fd5b80600860008282546104379190611649565b9091555050600754610476906001600160a01b037f0000000000000000000000000000000000000000000000000000000000000000811691168361134d565b50565b6000546001600160a01b031633146104d85760405162461bcd60e51b815260206004820181905260248201527f4f776e61626c653a2063616c6c6572206973206e6f7420746865206f776e657260448201526064015b60405180910390fd5b600080546040516001600160a01b03909116907fea8258f2d9ddb679928cf34b78cf645b7feda9acc828e4dd82d014eaae270eba908390a3600080546001600160a01b0319169055565b6001600160a01b0381166000908152600b6020908152604091829020825160808101845281548152600182015492810192909252600281015492820183905260039081015460ff1615156060830152549091118015906105855750604081015115155b156106cf576001600160a01b038281166000908152600b602090815260408083208381556001810184905560028101939093556003909201805460ff19169055600954908401519151637965d56d60e01b8152600481019290925282169163c3a2a6659185917f00000000000000000000000000000000000000000000000000000000000000001690637965d56d90602401602060405180830381865afa158015610634573d6000803e3d6000fd5b505050506040513d601f19601f820116820180604052508101906106589190611661565b6040517fffffffff0000000000000000000000000000000000000000000000000000000060e085901b1681526001600160a01b0390921660048301526024820152604401600060405180830381600087803b1580156106b657600080fd5b505af11580156106ca573d6000803e3d6000fd5b505050505b5050565b60007f00000000000000000000000000000000000000000000000000000000000000006001600160a01b0316632986c0e56040518163ffffffff1660e01b8152600401602060405180830381865afa158015610733573d6000803e3d6000fd5b505050506040513d601f19601f820116820180604052508101906107579190611661565b905090565b6000546001600160a01b031633146107b65760405162461bcd60e51b815260206004820181905260248201527f4f776e61626c653a2063616c6c6572206973206e6f7420746865206f776e657260448201526064016104cf565b6001600160a01b0381166108325760405162461bcd60e51b815260206004820152602660248201527f4f776e61626c653a206e6577206f776e657220697320746865207a65726f206160448201527f646472657373000000000000000000000000000000000000000000000000000060648201526084016104cf565b600080546040516001600160a01b03808516939216917fea8258f2d9ddb679928cf34b78cf645b7feda9acc828e4dd82d014eaae270eba91a3600180546001600160a01b0319166001600160a01b0392909216919091179055565b6001546001600160a01b0316331461090d5760405162461bcd60e51b815260206004820152602260248201527f4f776e61626c653a206d757374206265206e6577206f776e657220746f20707560448201527f6c6c00000000000000000000000000000000000000000000000000000000000060648201526084016104cf565b600154600080546040516001600160a01b0393841693909116917faa151555690c956fc3ea32f106bb9f119b5237a061eaa8557cff3e51e3792c8d91a3600154600080546001600160a01b0319166001600160a01b03909216919091179055565b6000610978610ead565b6109ad6001600160a01b037f0000000000000000000000000000000000000000000000000000000000000000163330866113fb565b6001600160a01b0382166000908152600b602090815260409182902082516080810184528154815260018201549281019290925260028101549282019290925260039091015460ff161580156060830152610a4a5760405162461bcd60e51b815260206004820152601f60248201527f4465706f7369747320666f72206163636f756e7420617265206c6f636b65640060448201526064016104cf565b6040518060800160405280858360000151610a659190611649565b81526020017f00000000000000000000000000000000000000000000000000000000000000006001600160a01b0316631bd39674876040518263ffffffff1660e01b8152600401610ab891815260200190565b602060405180830381865afa158015610ad5573d6000803e3d6000fd5b505050506040513d601f19601f82011682018060405250810190610af99190611661565b8360200151610b089190611649565b8152602001600a54600260010154610b209190611649565b8152600060209182018190526001600160a01b038681168252600b8352604091829020845181559284015160018401559083015160028301556060909201516003909101805460ff1916911515919091179055600954610ba5917f0000000000000000000000000000000000000000000000000000000000000000811691168661134d565b5060019392505050565b6000546001600160a01b03163314610c095760405162461bcd60e51b815260206004820181905260248201527f4f776e61626c653a2063616c6c6572206973206e6f7420746865206f776e657260448201526064016104cf565b6000826002811115610c1d57610c1d61167a565b1415610c4457600680546001600160a01b0383166001600160a01b03199091161790555050565b6001826002811115610c5857610c5861167a565b1415610ce4576009546001600160a01b031615610cc35760405162461bcd60e51b815260206004820152602360248201527f5761726d75702063616e6e6f7420626520736574206d6f7265207468616e206f6044820152626e636560e81b60648201526084016104cf565b600980546001600160a01b0383166001600160a01b03199091161790555050565b6002826002811115610cf857610cf861167a565b14156106cf576007546001600160a01b031615610d635760405162461bcd60e51b815260206004820152602360248201527f4c6f636b65722063616e6e6f7420626520736574206d6f7265207468616e206f6044820152626e636560e81b60648201526084016104cf565b600780546001600160a01b0383166001600160a01b03199091161790555050565b6008546040517f70a08231000000000000000000000000000000000000000000000000000000008152306004820152600091906001600160a01b037f000000000000000000000000000000000000000000000000000000000000000016906370a0823190602401602060405180830381865afa158015610e08573d6000803e3d6000fd5b505050506040513d601f19601f82011682018060405250810190610e2c9190611661565b6107579190611649565b8015610e4457610e44610ead565b610e796001600160a01b037f0000000000000000000000000000000000000000000000000000000000000000163330856113fb565b6106cf6001600160a01b037f000000000000000000000000000000000000000000000000000000000000000016338461134d565b60045443106110d9576005546003546040517f058ecdb40000000000000000000000000000000000000000000000000000000081526001600160a01b037f0000000000000000000000000000000000000000000000000000000000000000169263058ecdb492610f2892600401918252602082015260400190565b6020604051808303816000875af1158015610f47573d6000803e3d6000fd5b505050506040513d601f19601f82011682018060405250810190610f6b9190611661565b5060025460048054600090610f81908490611649565b909155505060038054906000610f9683611690565b90915550506006546001600160a01b03161561102757600660009054906101000a90046001600160a01b03166001600160a01b031663e4fc6b6d6040518163ffffffff1660e01b81526004016020604051808303816000875af1158015611001573d6000803e3d6000fd5b505050506040513d601f19601f8201168201806040525081019061102591906116ab565b505b6000611031610d84565b905060007f00000000000000000000000000000000000000000000000000000000000000006001600160a01b0316639358928b6040518163ffffffff1660e01b8152600401602060405180830381865afa158015611093573d6000803e3d6000fd5b505050506040513d601f19601f820116820180604052508101906110b79190611661565b90508082116110c95760006005555050565b6110d381836116c8565b60055550505b565b6000546001600160a01b031633146111355760405162461bcd60e51b815260206004820181905260248201527f4f776e61626c653a2063616c6c6572206973206e6f7420746865206f776e657260448201526064016104cf565b600a55565b336000818152600b602081815260408084208151608081018352815481526001820180548286019081526002840180548487015260038501805460ff8116151560608701529a8a5297909652928790558690559490925560ff1990941690915560095490519251637965d56d60e01b8152600481019390935290916001600160a01b039182169163c3a2a6659130917f00000000000000000000000000000000000000000000000000000000000000001690637965d56d90602401602060405180830381865afa158015611212573d6000803e3d6000fd5b505050506040513d601f19601f820116820180604052508101906112369190611661565b6040517fffffffff0000000000000000000000000000000000000000000000000000000060e085901b1681526001600160a01b0390921660048301526024820152604401600060405180830381600087803b15801561129457600080fd5b505af11580156112a8573d6000803e3d6000fd5b5050825161047692506001600160a01b037f0000000000000000000000000000000000000000000000000000000000000000169150339061134d565b6007546001600160a01b031633146112fb57600080fd5b806008600082825461130d91906116c8565b9091555050600754610476906001600160a01b037f00000000000000000000000000000000000000000000000000000000000000008116911630846113fb565b6040516001600160a01b0383166024820152604481018290526113f69084907fa9059cbb00000000000000000000000000000000000000000000000000000000906064015b60408051601f198184030181529190526020810180517bffffffffffffffffffffffffffffffffffffffffffffffffffffffff167fffffffff0000000000000000000000000000000000000000000000000000000090931692909217909152611452565b505050565b6040516001600160a01b038085166024830152831660448201526064810182905261144c9085907f23b872dd0000000000000000000000000000000000000000000000000000000090608401611392565b50505050565b600080836001600160a01b03168360405161146d91906116df565b6000604051808303816000865af19150503d80600081146114aa576040519150601f19603f3d011682016040523d82523d6000602084013e6114af565b606091505b509150915060008214156114c7573d6000803e3d6000fd5b61144c8151600014806114e95750818060200190518101906114e991906116ab565b6101a2816106cf5762461bcd60e51b600090815260206004526007602452600a808304818104828106603090810160101b848706949093060160081b929092010166524551230000300160c81b6044526106cf91606490fd5b60006020828403121561155457600080fd5b5035919050565b80356001600160a01b038116811461157257600080fd5b919050565b60006020828403121561158957600080fd5b6115928261155b565b9392505050565b600080604083850312156115ac57600080fd5b823591506115bc6020840161155b565b90509250929050565b600080604083850312156115d857600080fd5b8235600381106115e757600080fd5b91506115bc6020840161155b565b801515811461047657600080fd5b6000806040838503121561161657600080fd5b823591506020830135611628816115f5565b809150509250929050565b634e487b7160e01b600052601160045260246000fd5b6000821982111561165c5761165c611633565b500190565b60006020828403121561167357600080fd5b5051919050565b634e487b7160e01b600052602160045260246000fd5b60006000198214156116a4576116a4611633565b5060010190565b6000602082840312156116bd57600080fd5b8151611592816115f5565b6000828210156116da576116da611633565b500390565b6000825160005b8181101561170057602081860181015185830152016116e6565b8181111561170f576000828501525b50919091019291505056fea2646970667358221220341c9fde76c51f0ca2029bdc26bc3c9691fb73b21332a65a495127f150891aef64736f6c634300080b0033",
  "devdoc": {
    "kind": "dev",
    "methods": {
      "claim(address)": {
        "params": {
          "_recipient": "address"
        }
      },
      "contractBalance()": {
        "returns": {
          "_0": "uint"
        }
      },
      "giveLockBonus(uint256)": {
        "params": {
          "_amount": "uint"
        }
      },
      "index()": {
        "returns": {
          "_0": "uint"
        }
      },
      "returnLockBonus(uint256)": {
        "params": {
          "_amount": "uint"
        }
      },
      "setContract(uint8,address)": {
        "params": {
          "_contract": "address"
        }
      },
      "setWarmup(uint256)": {
        "params": {
          "_warmupPeriod": "uint"
        }
      },
      "stake(uint256,address)": {
        "params": {
          "_amount": "uint"
        },
        "returns": {
          "_0": "bool"
        }
      },
      "unstake(uint256,bool)": {
        "params": {
          "_amount": "uint",
          "_trigger": "bool"
        }
      }
    },
    "version": 1
  },
  "userdoc": {
    "kind": "user",
    "methods": {
      "claim(address)": {
        "notice": "retrieve sREQT from warmup"
      },
      "contractBalance()": {
        "notice": "returns contract REQT holdings, including bonuses provided"
      },
      "forfeit()": {
        "notice": "forfeit sREQT in warmup and retrieve REQT"
      },
      "giveLockBonus(uint256)": {
        "notice": "provide bonus to locked staking contract"
      },
      "index()": {
        "notice": "returns the sREQT index, which tracks rebase growth"
      },
      "rebase()": {
        "notice": "trigger rebase if epoch over"
      },
      "returnLockBonus(uint256)": {
        "notice": "reclaim bonus from locked staking contract"
      },
      "setContract(uint8,address)": {
        "notice": "sets the contract address for LP staking"
      },
      "setWarmup(uint256)": {
        "notice": "set warmup period for new stakers"
      },
      "stake(uint256,address)": {
        "notice": "stake REQT to enter warmup"
      },
      "toggleDepositLock()": {
        "notice": "prevent new deposits to address (protection from malicious activity)"
      },
      "unstake(uint256,bool)": {
        "notice": "redeem sREQT for REQT"
      }
    },
    "version": 1
  },
  "storageLayout": {
    "storage": [
      {
        "astId": 11721,
        "contract": "contracts/RequiemStaking.sol:RequiemStaking",
        "label": "_owner",
        "offset": 0,
        "slot": "0",
        "type": "t_address"
      },
      {
        "astId": 11723,
        "contract": "contracts/RequiemStaking.sol:RequiemStaking",
        "label": "_newOwner",
        "offset": 0,
        "slot": "1",
        "type": "t_address"
      },
      {
        "astId": 6690,
        "contract": "contracts/RequiemStaking.sol:RequiemStaking",
        "label": "epoch",
        "offset": 0,
        "slot": "2",
        "type": "t_struct(Epoch)6687_storage"
      },
      {
        "astId": 6692,
        "contract": "contracts/RequiemStaking.sol:RequiemStaking",
        "label": "distributor",
        "offset": 0,
        "slot": "6",
        "type": "t_address"
      },
      {
        "astId": 6694,
        "contract": "contracts/RequiemStaking.sol:RequiemStaking",
        "label": "locker",
        "offset": 0,
        "slot": "7",
        "type": "t_address"
      },
      {
        "astId": 6696,
        "contract": "contracts/RequiemStaking.sol:RequiemStaking",
        "label": "totalBonus",
        "offset": 0,
        "slot": "8",
        "type": "t_uint256"
      },
      {
        "astId": 6698,
        "contract": "contracts/RequiemStaking.sol:RequiemStaking",
        "label": "warmupContract",
        "offset": 0,
        "slot": "9",
        "type": "t_address"
      },
      {
        "astId": 6700,
        "contract": "contracts/RequiemStaking.sol:RequiemStaking",
        "label": "warmupPeriod",
        "offset": 0,
        "slot": "10",
        "type": "t_uint256"
      },
      {
        "astId": 6763,
        "contract": "contracts/RequiemStaking.sol:RequiemStaking",
        "label": "warmupInfo",
        "offset": 0,
        "slot": "11",
        "type": "t_mapping(t_address,t_struct(Claim)6758_storage)"
      }
    ],
    "types": {
      "t_address": {
        "encoding": "inplace",
        "label": "address",
        "numberOfBytes": "20"
      },
      "t_bool": {
        "encoding": "inplace",
        "label": "bool",
        "numberOfBytes": "1"
      },
      "t_mapping(t_address,t_struct(Claim)6758_storage)": {
        "encoding": "mapping",
        "key": "t_address",
        "label": "mapping(address => struct RequiemStaking.Claim)",
        "numberOfBytes": "32",
        "value": "t_struct(Claim)6758_storage"
      },
      "t_struct(Claim)6758_storage": {
        "encoding": "inplace",
        "label": "struct RequiemStaking.Claim",
        "members": [
          {
            "astId": 6751,
            "contract": "contracts/RequiemStaking.sol:RequiemStaking",
            "label": "deposit",
            "offset": 0,
            "slot": "0",
            "type": "t_uint256"
          },
          {
            "astId": 6753,
            "contract": "contracts/RequiemStaking.sol:RequiemStaking",
            "label": "gons",
            "offset": 0,
            "slot": "1",
            "type": "t_uint256"
          },
          {
            "astId": 6755,
            "contract": "contracts/RequiemStaking.sol:RequiemStaking",
            "label": "expiry",
            "offset": 0,
            "slot": "2",
            "type": "t_uint256"
          },
          {
            "astId": 6757,
            "contract": "contracts/RequiemStaking.sol:RequiemStaking",
            "label": "lock",
            "offset": 0,
            "slot": "3",
            "type": "t_bool"
          }
        ],
        "numberOfBytes": "128"
      },
      "t_struct(Epoch)6687_storage": {
        "encoding": "inplace",
        "label": "struct RequiemStaking.Epoch",
        "members": [
          {
            "astId": 6680,
            "contract": "contracts/RequiemStaking.sol:RequiemStaking",
            "label": "length",
            "offset": 0,
            "slot": "0",
            "type": "t_uint256"
          },
          {
            "astId": 6682,
            "contract": "contracts/RequiemStaking.sol:RequiemStaking",
            "label": "number",
            "offset": 0,
            "slot": "1",
            "type": "t_uint256"
          },
          {
            "astId": 6684,
            "contract": "contracts/RequiemStaking.sol:RequiemStaking",
            "label": "endBlock",
            "offset": 0,
            "slot": "2",
            "type": "t_uint256"
          },
          {
            "astId": 6686,
            "contract": "contracts/RequiemStaking.sol:RequiemStaking",
            "label": "distribute",
            "offset": 0,
            "slot": "3",
            "type": "t_uint256"
          }
        ],
        "numberOfBytes": "128"
      },
      "t_uint256": {
        "encoding": "inplace",
        "label": "uint256",
        "numberOfBytes": "32"
      }
    }
  }
}