{
  "address": "0x610178dA211FEF7D417bC0e6FeD39F05609AD788",
  "abi": [
    {
      "inputs": [
        {
          "internalType": "address",
          "name": "_feeToSetter",
          "type": "address"
        },
        {
          "internalType": "address",
          "name": "_formula",
          "type": "address"
        }
      ],
      "stateMutability": "nonpayable",
      "type": "constructor"
    },
    {
      "anonymous": false,
      "inputs": [
        {
          "indexed": true,
          "internalType": "address",
          "name": "token0",
          "type": "address"
        },
        {
          "indexed": true,
          "internalType": "address",
          "name": "token1",
          "type": "address"
        },
        {
          "indexed": false,
          "internalType": "address",
          "name": "pair",
          "type": "address"
        },
        {
          "indexed": false,
          "internalType": "uint32",
          "name": "tokenWeight0",
          "type": "uint32"
        },
        {
          "indexed": false,
          "internalType": "uint32",
          "name": "swapFee",
          "type": "uint32"
        },
        {
          "indexed": false,
          "internalType": "uint256",
          "name": "",
          "type": "uint256"
        }
      ],
      "name": "PairCreated",
      "type": "event"
    },
    {
      "inputs": [],
      "name": "INIT_CODE_HASH",
      "outputs": [
        {
          "internalType": "bytes32",
          "name": "",
          "type": "bytes32"
        }
      ],
      "stateMutability": "view",
      "type": "function"
    },
    {
      "inputs": [
        {
          "internalType": "uint256",
          "name": "",
          "type": "uint256"
        }
      ],
      "name": "allPairs",
      "outputs": [
        {
          "internalType": "address",
          "name": "",
          "type": "address"
        }
      ],
      "stateMutability": "view",
      "type": "function"
    },
    {
      "inputs": [],
      "name": "allPairsLength",
      "outputs": [
        {
          "internalType": "uint256",
          "name": "",
          "type": "uint256"
        }
      ],
      "stateMutability": "view",
      "type": "function"
    },
    {
      "inputs": [
        {
          "internalType": "address",
          "name": "tokenA",
          "type": "address"
        },
        {
          "internalType": "address",
          "name": "tokenB",
          "type": "address"
        },
        {
          "internalType": "uint32",
          "name": "tokenWeightA",
          "type": "uint32"
        },
        {
          "internalType": "uint32",
          "name": "swapFee",
          "type": "uint32"
        }
      ],
      "name": "createPair",
      "outputs": [
        {
          "internalType": "address",
          "name": "pair",
          "type": "address"
        }
      ],
      "stateMutability": "nonpayable",
      "type": "function"
    },
    {
      "inputs": [],
      "name": "feeTo",
      "outputs": [
        {
          "internalType": "address",
          "name": "",
          "type": "address"
        }
      ],
      "stateMutability": "view",
      "type": "function"
    },
    {
      "inputs": [],
      "name": "feeToSetter",
      "outputs": [
        {
          "internalType": "address",
          "name": "",
          "type": "address"
        }
      ],
      "stateMutability": "view",
      "type": "function"
    },
    {
      "inputs": [],
      "name": "formula",
      "outputs": [
        {
          "internalType": "address",
          "name": "",
          "type": "address"
        }
      ],
      "stateMutability": "view",
      "type": "function"
    },
    {
      "inputs": [
        {
          "internalType": "address",
          "name": "tokenA",
          "type": "address"
        },
        {
          "internalType": "address",
          "name": "tokenB",
          "type": "address"
        },
        {
          "internalType": "uint32",
          "name": "tokenWeightA",
          "type": "uint32"
        },
        {
          "internalType": "uint32",
          "name": "swapFee",
          "type": "uint32"
        }
      ],
      "name": "getPair",
      "outputs": [
        {
          "internalType": "address",
          "name": "pair",
          "type": "address"
        }
      ],
      "stateMutability": "view",
      "type": "function"
    },
    {
      "inputs": [
        {
          "internalType": "address",
          "name": "pair",
          "type": "address"
        }
      ],
      "name": "getWeightsAndSwapFee",
      "outputs": [
        {
          "internalType": "uint32",
          "name": "tokenWeight0",
          "type": "uint32"
        },
        {
          "internalType": "uint32",
          "name": "tokenWeight1",
          "type": "uint32"
        },
        {
          "internalType": "uint32",
          "name": "swapFee",
          "type": "uint32"
        }
      ],
      "stateMutability": "view",
      "type": "function"
    },
    {
      "inputs": [
        {
          "internalType": "address",
          "name": "b",
          "type": "address"
        }
      ],
      "name": "isPair",
      "outputs": [
        {
          "internalType": "bool",
          "name": "",
          "type": "bool"
        }
      ],
      "stateMutability": "view",
      "type": "function"
    },
    {
      "inputs": [],
      "name": "protocolFee",
      "outputs": [
        {
          "internalType": "uint256",
          "name": "",
          "type": "uint256"
        }
      ],
      "stateMutability": "view",
      "type": "function"
    },
    {
      "inputs": [
        {
          "internalType": "address",
          "name": "_feeTo",
          "type": "address"
        }
      ],
      "name": "setFeeTo",
      "outputs": [],
      "stateMutability": "nonpayable",
      "type": "function"
    },
    {
      "inputs": [
        {
          "internalType": "address",
          "name": "_feeToSetter",
          "type": "address"
        }
      ],
      "name": "setFeeToSetter",
      "outputs": [],
      "stateMutability": "nonpayable",
      "type": "function"
    },
    {
      "inputs": [
        {
          "internalType": "uint256",
          "name": "_protocolFee",
          "type": "uint256"
        }
      ],
      "name": "setProtocolFee",
      "outputs": [],
      "stateMutability": "nonpayable",
      "type": "function"
    }
  ],
  "transactionHash": "0x7f27756aaf10bc998d013490b356de0eab314b5d4174770a0600609ad3a378c7",
  "args": [
    "0xf39Fd6e51aad88F6F4ce6aB8827279cffFb92266",
    "0x8A791620dd6260079BF849Dc5567aDC3F2FdC318"
  ],
  "solcInputHash": "bb0d069aa8af33c025e0a50204d66749",
  "bytecode": "0x608060405234801561001057600080fd5b506040516200602d3803806200602d8339810160408190526100319161007e565b600380546001600160a01b039384166001600160a01b031991821617909155600180549290931691161790556100b1565b80516001600160a01b038116811461007957600080fd5b919050565b6000806040838503121561009157600080fd5b61009a83610062565b91506100a860208401610062565b90509250929050565b615f6c80620000c16000396000f3fe608060405234801561001057600080fd5b50600436106100ea5760003560e01c8063787dce3d1161008c578063bfd63f4d11610066578063bfd63f4d146101ee578063ca22297914610201578063e5e31b131461023b578063f46901ed1461028d57600080fd5b8063787dce3d146101bd578063a2e74af6146101d2578063b0e21e8a146101e557600080fd5b80631e3dd18b116100c85780631e3dd18b1461016c578063257671f51461017f5780634b75f54f14610195578063574f2ba3146101b557600080fd5b8063017e7e58146100ef578063094b74151461013957806314572adb14610159575b600080fd5b60005461010f9073ffffffffffffffffffffffffffffffffffffffff1681565b60405173ffffffffffffffffffffffffffffffffffffffff90911681526020015b60405180910390f35b60035461010f9073ffffffffffffffffffffffffffffffffffffffff1681565b61010f610167366004610dc1565b6102a0565b61010f61017a366004610e15565b610897565b6101876108ce565b604051908152602001610130565b60015461010f9073ffffffffffffffffffffffffffffffffffffffff1681565b600554610187565b6101d06101cb366004610e15565b610936565b005b6101d06101e0366004610e2e565b610a3f565b61018760025481565b61010f6101fc366004610dc1565b610b07565b61021461020f366004610e2e565b610c39565b6040805163ffffffff94851681529284166020840152921691810191909152606001610130565b61027d610249366004610e2e565b73ffffffffffffffffffffffffffffffffffffffff1660009081526006602052604090205467ffffffffffffffff16151590565b6040519015158152602001610130565b6101d061029b366004610e2e565b610caf565b60008373ffffffffffffffffffffffffffffffffffffffff168573ffffffffffffffffffffffffffffffffffffffff16141561033d576040517f08c379a000000000000000000000000000000000000000000000000000000000815260206004820152601860248201527f524c503a204944454e544943414c5f414444524553534553000000000000000060448201526064015b60405180910390fd5b60028363ffffffff161015801561035b575060628363ffffffff1611155b8015610375575061036d600284610e50565b63ffffffff16155b6103db576040517f08c379a000000000000000000000000000000000000000000000000000000000815260206004820152601960248201527f524c503a20494e56414c49445f544f4b454e5f574549474854000000000000006044820152606401610334565b60018263ffffffff16101580156103fa57506107d08263ffffffff1611155b610460576040517f08c379a000000000000000000000000000000000000000000000000000000000815260206004820152601560248201527f524c503a20494e56414c49445f535741505f46454500000000000000000000006044820152606401610334565b60008060008673ffffffffffffffffffffffffffffffffffffffff168873ffffffffffffffffffffffffffffffffffffffff16106104aa5786886104a5886064610e9a565b6104ae565b8787875b9194509250905073ffffffffffffffffffffffffffffffffffffffff8316610532576040517f08c379a000000000000000000000000000000000000000000000000000000000815260206004820152601160248201527f524c503a205a45524f5f414444524553530000000000000000000000000000006044820152606401610334565b60006040518060200161054490610d77565b7fffffffffffffffffffffffffffffffffffffffffffffffffffffffffffffffe082820381018352601f9091011660408190527fffffffffffffffffffffffffffffffffffffffff000000000000000000000000606087811b8216602084015286901b1660348201527fffffffff0000000000000000000000000000000000000000000000000000000060e085811b8216604884015289901b16604c820152909150600090605001604080517fffffffffffffffffffffffffffffffffffffffffffffffffffffffffffffffe081840301815291815281516020928301206000818152600490935291205490915073ffffffffffffffffffffffffffffffffffffffff16156106af576040517f08c379a000000000000000000000000000000000000000000000000000000000815260206004820152601060248201527f524c503a20504149525f455849535453000000000000000000000000000000006044820152606401610334565b808251602084016000f56040517fd0f6957900000000000000000000000000000000000000000000000000000000815273ffffffffffffffffffffffffffffffffffffffff8781166004830152868116602483015263ffffffff80871660448401528a1660648301529197509087169063d0f6957990608401600060405180830381600087803b15801561074257600080fd5b505af1158015610756573d6000803e3d6000fd5b505050600082815260046020908152604080832080547fffffffffffffffffffffffff000000000000000000000000000000000000000090811673ffffffffffffffffffffffffffffffffffffffff8d8116918217909355600580546001810182557f036b6384b5eca791c62761152d0c79bb0604c104a5fb6f4eb0703f3154bb3db001805490931682179092558086526006855294839020805463ffffffff8f81168c881b67ffffffff000000001681177fffffffffffffffffffffffffffffffffffffffffffffffff0000000000000000909316831790935592548551978852928b169587019590955292850192909252606084019190915290925086811691908816907f41f8736f924f57e464ededb08bf71f868f9d142885bbc73a1516db2be21fc4289060800160405180910390a3505050505050949350505050565b600581815481106108a757600080fd5b60009182526020909120015473ffffffffffffffffffffffffffffffffffffffff16905081565b6040516108dd60208201610d77565b7fffffffffffffffffffffffffffffffffffffffffffffffffffffffffffffffe082820381018352601f90910116604081905261091d9190602001610ee6565b6040516020818303038152906040528051906020012081565b60035473ffffffffffffffffffffffffffffffffffffffff1633146109b7576040517f08c379a000000000000000000000000000000000000000000000000000000000815260206004820152600e60248201527f524c503a20464f5242494444454e0000000000000000000000000000000000006044820152606401610334565b8015806109d4575061271081101580156109d45750620186a08111155b610a3a576040517f08c379a000000000000000000000000000000000000000000000000000000000815260206004820152601960248201527f524c503a20496e76616c69642050726f746f636f6c20666565000000000000006044820152606401610334565b600255565b60035473ffffffffffffffffffffffffffffffffffffffff163314610ac0576040517f08c379a000000000000000000000000000000000000000000000000000000000815260206004820152600e60248201527f524c503a20464f5242494444454e0000000000000000000000000000000000006044820152606401610334565b600380547fffffffffffffffffffffffff00000000000000000000000000000000000000001673ffffffffffffffffffffffffffffffffffffffff92909216919091179055565b6000806000808673ffffffffffffffffffffffffffffffffffffffff168873ffffffffffffffffffffffffffffffffffffffff1610610b52578688610b4d886064610e9a565b610b56565b8787875b6040517fffffffffffffffffffffffffffffffffffffffff000000000000000000000000606085811b8216602084015284901b1660348201527fffffffff0000000000000000000000000000000000000000000000000000000060e083811b821660488401528a901b16604c8201529295509093509150600090605001604080517fffffffffffffffffffffffffffffffffffffffffffffffffffffffffffffffe081840301815291815281516020928301206000908152600490925290205473ffffffffffffffffffffffffffffffffffffffff169998505050505050505050565b73ffffffffffffffffffffffffffffffffffffffff81166000908152600660205260408120548190819067ffffffffffffffff168015610c955763ffffffff602082901c169350905080610c8e846064610e9a565b9250610ca6565b603280601e93509350935050610ca8565b505b9193909250565b60035473ffffffffffffffffffffffffffffffffffffffff163314610d30576040517f08c379a000000000000000000000000000000000000000000000000000000000815260206004820152600e60248201527f524c503a20464f5242494444454e0000000000000000000000000000000000006044820152606401610334565b600080547fffffffffffffffffffffffff00000000000000000000000000000000000000001673ffffffffffffffffffffffffffffffffffffffff92909216919091179055565b61501580610f2283390190565b803573ffffffffffffffffffffffffffffffffffffffff81168114610da857600080fd5b919050565b803563ffffffff81168114610da857600080fd5b60008060008060808587031215610dd757600080fd5b610de085610d84565b9350610dee60208601610d84565b9250610dfc60408601610dad565b9150610e0a60608601610dad565b905092959194509250565b600060208284031215610e2757600080fd5b5035919050565b600060208284031215610e4057600080fd5b610e4982610d84565b9392505050565b600063ffffffff80841680610e8e577f4e487b7100000000000000000000000000000000000000000000000000000000600052601260045260246000fd5b92169190910692915050565b600063ffffffff83811690831681811015610ede577f4e487b7100000000000000000000000000000000000000000000000000000000600052601160045260246000fd5b039392505050565b6000825160005b81811015610f075760208186018101518583015201610eed565b81811115610f16576000828501525b50919091019291505056fe60806040526001600b5534801561001557600080fd5b50604080518082018252601a81527f5265717569656d204c69717569646974792050726f76696465720000000000006020918201528151808301835260018152603160f81b9082015281517f8b73c3c69bb8fe3d512ecc4cf759cc79239f7b179b0ffacaa9a75d522b39400f818301527f2e1adfbb118fada029d9623aa0ed8dd2318a25545f57095be55dcbd209508e12818401527fc89efdaa54c0f20c7adf612882df0950f5a951637e0307cdcb4c672f298b8bc660608201524660808201523060a0808301919091528351808303909101815260c09091019092528151910120600355600580546001600160a01b03191633179055614efa8061011b6000396000f3fe608060405234801561001057600080fd5b50600436106102415760003560e01c80636a62784211610145578063cc56fd43116100bd578063d505accf1161008c578063dd62ed3e11610071578063dd62ed3e1461065e578063e9255bae14610689578063fff6cae91461069c57600080fd5b8063d505accf1461060f578063d54a8d181461062257600080fd5b8063cc56fd43146105a3578063d0f69579146105b6578063d21220a7146105c9578063d4cadf68146105e957600080fd5b806395d89b4111610114578063ba9a7a56116100f9578063ba9a7a5614610567578063bc25cf7714610570578063c45a01551461058357600080fd5b806395d89b4114610518578063a9059cbb1461055457600080fd5b80636a6278421461049d57806370a08231146104b05780637ecebe00146104d057806389afcb44146104f057600080fd5b806330adf81f116101d85780633644e515116101a75780634b75f54f1161018c5780634b75f54f1461046b5780635909c0d51461048b5780635a3d54931461049457600080fd5b80633644e5151461044f5780634ac00e031461045857600080fd5b806330adf81f146103b8578063313ce567146103df57806332bfe469146103f957806332fd54931461043c57600080fd5b80630dfe1681116102145780630dfe1681146103365780630e6d8bce1461037b57806318160ddd1461039c57806323b872dd146103a557600080fd5b8063022c0d9f1461024657806306fdde031461025b5780630902f1ac146102ad578063095ea7b314610313575b600080fd5b61025961025436600461489f565b6106a4565b005b6102976040518060400160405280601a81526020017f5265717569656d204c69717569646974792050726f766964657200000000000081525081565b6040516102a49190614965565b60405180910390f35b600854604080516dffffffffffffffffffffffffffff80841682526e01000000000000000000000000000084041660208201527c010000000000000000000000000000000000000000000000000000000090920463ffffffff16908201526060016102a4565b6103266103213660046149b6565b611016565b60405190151581526020016102a4565b6006546103569073ffffffffffffffffffffffffffffffffffffffff1681565b60405173ffffffffffffffffffffffffffffffffffffffff90911681526020016102a4565b61038e6103893660046149e2565b61102c565b6040519081526020016102a4565b61038e60005481565b6103266103b3366004614a41565b6112c0565b61038e7f6e71edae12b1b97f4d1f60370fef10105fa2faae0126114a169c64845d6126c981565b6103e7601281565b60405160ff90911681526020016102a4565b600d54600e54604080517c010000000000000000000000000000000000000000000000000000000090930463ffffffff90811684529091166020830152016102a4565b61025961044a3660046149e2565b611399565b61038e60035481565b61038e6104663660046149e2565b611ca6565b600c546103569073ffffffffffffffffffffffffffffffffffffffff1681565b61038e60095481565b61038e600a5481565b61038e6104ab366004614a82565b611ebd565b61038e6104be366004614a82565b60016020526000908152604090205481565b61038e6104de366004614a82565b60046020526000908152604090205481565b6105036104fe366004614a82565b612257565b604080519283526020830191909152016102a4565b6102976040518060400160405280600381526020017f524c50000000000000000000000000000000000000000000000000000000000081525081565b6103266105623660046149b6565b6126cf565b61038e6103e881565b61025961057e366004614a82565b6126dc565b6005546103569073ffffffffffffffffffffffffffffffffffffffff1681565b61038e6105b1366004614a41565b61289f565b6102596105c4366004614ab3565b612a7b565b6007546103569073ffffffffffffffffffffffffffffffffffffffff1681565b600e54640100000000900463ffffffff1660405163ffffffff90911681526020016102a4565b61025961061d366004614b0b565b612cd4565b600d54604080516dffffffffffffffffffffffffffff80841682526e0100000000000000000000000000009093049092166020830152016102a4565b61038e61066c366004614b82565b600260209081526000928352604080842090915290825290205481565b61038e610697366004614a41565b612fbf565b610259613152565b600b54600114610715576040517f08c379a000000000000000000000000000000000000000000000000000000000815260206004820152600d60248201527f5245514c503a204c4f434b45440000000000000000000000000000000000000060448201526064015b60405180910390fd5b6000600b55841515806107285750600084115b6107b4576040517f08c379a000000000000000000000000000000000000000000000000000000000815260206004820152602160248201527f5245514c503a20494e53554646494349454e545f4f55545055545f414d4f554e60448201527f5400000000000000000000000000000000000000000000000000000000000000606482015260840161070c565b6008546dffffffffffffffffffffffffffff808216916e01000000000000000000000000000090041681871080156107fb5750806dffffffffffffffffffffffffffff1686105b610861576040517f08c379a000000000000000000000000000000000000000000000000000000000815260206004820152601d60248201527f5245514c503a20494e53554646494349454e545f4c4951554944495459000000604482015260640161070c565b600654600754600091829173ffffffffffffffffffffffffffffffffffffffff9182169190811690891682148015906108c657508073ffffffffffffffffffffffffffffffffffffffff168973ffffffffffffffffffffffffffffffffffffffff1614155b61092c576040517f08c379a000000000000000000000000000000000000000000000000000000000815260206004820152601160248201527f5245514c503a20494e56414c49445f544f000000000000000000000000000000604482015260640161070c565b8a1561093d5761093d828a8d61331e565b891561094e5761094e818a8c61331e565b86156109e1576040517f10d1e85c00000000000000000000000000000000000000000000000000000000815273ffffffffffffffffffffffffffffffffffffffff8a16906310d1e85c906109ae9033908f908f908e908e90600401614bbb565b600060405180830381600087803b1580156109c857600080fd5b505af11580156109dc573d6000803e3d6000fd5b505050505b6040517f70a0823100000000000000000000000000000000000000000000000000000000815230600482015273ffffffffffffffffffffffffffffffffffffffff8316906370a0823190602401602060405180830381865afa158015610a4b573d6000803e3d6000fd5b505050506040513d601f19601f82011682018060405250810190610a6f9190614c33565b6040517f70a0823100000000000000000000000000000000000000000000000000000000815230600482015290945073ffffffffffffffffffffffffffffffffffffffff8216906370a0823190602401602060405180830381865afa158015610adc573d6000803e3d6000fd5b505050506040513d601f19601f82011682018060405250810190610b009190614c33565b92505050600089856dffffffffffffffffffffffffffff16610b229190614c7b565b8311610b2f576000610b53565b610b498a6dffffffffffffffffffffffffffff8716614c7b565b610b539084614c7b565b90506000610b718a6dffffffffffffffffffffffffffff8716614c7b565b8311610b7e576000610ba2565b610b988a6dffffffffffffffffffffffffffff8716614c7b565b610ba29084614c7b565b90506000821180610bb35750600081115b610c19576040517f08c379a000000000000000000000000000000000000000000000000000000000815260206004820181905260248201527f5245514c503a20494e53554646494349454e545f494e5055545f414d4f554e54604482015260640161070c565b6000610c27856127106134be565b90506000610c37856127106134be565b90508315610ccf57600e54600090610c6290869063ffffffff6401000000009091048116906134be16565b9050610c6e83826134d1565b600d54909350610c8e906dffffffffffffffffffffffffffff16826134df565b600d80547fffffffffffffffffffffffffffffffffffff0000000000000000000000000000166dffffffffffffffffffffffffffff92909216919091179055505b8215610d6c57600e54600090610cf890859063ffffffff6401000000009091048116906134be16565b9050610d0482826134d1565b600d54909250610d36906e01000000000000000000000000000090046dffffffffffffffffffffffffffff16826134df565b600d600e6101000a8154816dffffffffffffffffffffffffffff02191690836dffffffffffffffffffffffffffff160217905550505b600d547c0100000000000000000000000000000000000000000000000000000000900463ffffffff166032811415610e4057610dc96305f5e100610dc36dffffffffffffffffffffffffffff8c8116908c166134be565b906134be565b610dd384846134be565b1015610e3b576040517f08c379a000000000000000000000000000000000000000000000000000000000815260206004820152600860248201527f5245514c503a204b000000000000000000000000000000000000000000000000604482015260640161070c565b610f93565b600c5473ffffffffffffffffffffffffffffffffffffffff166379c91b37610e7a6dffffffffffffffffffffffffffff8c166127106134be565b610e966dffffffffffffffffffffffffffff8c166127106134be565b6040517fffffffff0000000000000000000000000000000000000000000000000000000060e085901b16815260048101929092526024820152604481018690526064810185905263ffffffff8416608482015260a401602060405180830381865afa158015610f09573d6000803e3d6000fd5b505050506040513d601f19601f82011682018060405250810190610f2d9190614c92565b610f93576040517f08c379a000000000000000000000000000000000000000000000000000000000815260206004820152600860248201527f5245514c503a204b000000000000000000000000000000000000000000000000604482015260640161070c565b505050610fa2848488886134fc565b60408051838152602081018390529081018c9052606081018b905273ffffffffffffffffffffffffffffffffffffffff8a169033907fd78ad95fa46c994b6551d0da85fc275fe613ce37657fb8d5e3d130840159d8229060800160405180910390a350506001600b55505050505050505050565b6000611023338484613860565b50600192915050565b6000600b5460011461109a576040517f08c379a000000000000000000000000000000000000000000000000000000000815260206004820152600d60248201527f5245514c503a204c4f434b454400000000000000000000000000000000000000604482015260640161070c565b6000600b81905560065473ffffffffffffffffffffffffffffffffffffffff888116911614908080808461112657600854600e54600d546dffffffffffffffffffffffffffff6e0100000000000000000000000000008404811693169163ffffffff908116917c0100000000000000000000000000000000000000000000000000000000900416611181565b600854600d54600e546dffffffffffffffffffffffffffff808416936e0100000000000000000000000000009004169163ffffffff7c0100000000000000000000000000000000000000000000000000000000909104811691165b600c54600e546040517fb19210b00000000000000000000000000000000000000000000000000000000081526dffffffffffffffffffffffffffff9687169a50949095169750919550935060009273ffffffffffffffffffffffffffffffffffffffff9091169163b19210b091611243918e918a918a918a918a9163ffffffff64010000000090910416906004019586526020860194909452604085019290925263ffffffff908116606085015290811660808401521660a082015260c00190565b602060405180830381865afa158015611260573d6000803e3d6000fd5b505050506040513d601f19601f820116820180604052508101906112849190614c33565b9050600080876112965782600061129a565b6000835b915091506112a982828c6138cf565b6001600b559e9d5050505050505050505050505050565b73ffffffffffffffffffffffffffffffffffffffff831660009081526002602090815260408083203384529091528120547fffffffffffffffffffffffffffffffffffffffffffffffffffffffffffffffff146113845773ffffffffffffffffffffffffffffffffffffffff8416600090815260026020908152604080832033845290915290205461135290836134d1565b73ffffffffffffffffffffffffffffffffffffffff851660009081526002602090815260408083203384529091529020555b61138f848484614140565b5060019392505050565b600b54600114611405576040517f08c379a000000000000000000000000000000000000000000000000000000000815260206004820152600d60248201527f5245514c503a204c4f434b454400000000000000000000000000000000000000604482015260640161070c565b6000600b819055600654819073ffffffffffffffffffffffffffffffffffffffff8881169116146114385783600061143c565b6000845b91509150600082118061144f5750600081115b6114db576040517f08c379a000000000000000000000000000000000000000000000000000000000815260206004820152602160248201527f5245514c503a20494e53554646494349454e545f4f55545055545f414d4f554e60448201527f5400000000000000000000000000000000000000000000000000000000000000606482015260840161070c565b6008546dffffffffffffffffffffffffffff808216916e01000000000000000000000000000090041681841080156115225750806dffffffffffffffffffffffffffff1683105b611588576040517f08c379a000000000000000000000000000000000000000000000000000000000815260206004820152601d60248201527f5245514c503a20494e53554646494349454e545f4c4951554944495459000000604482015260640161070c565b600654600754600091829173ffffffffffffffffffffffffffffffffffffffff9182169190811690891682148015906115ed57508073ffffffffffffffffffffffffffffffffffffffff168973ffffffffffffffffffffffffffffffffffffffff1614155b611653576040517f08c379a000000000000000000000000000000000000000000000000000000000815260206004820152601160248201527f5245514c503a20494e56414c49445f544f000000000000000000000000000000604482015260640161070c565b871561166457611664828a8a61331e565b861561167557611675818a8961331e565b6040517f70a0823100000000000000000000000000000000000000000000000000000000815230600482015273ffffffffffffffffffffffffffffffffffffffff8316906370a0823190602401602060405180830381865afa1580156116df573d6000803e3d6000fd5b505050506040513d601f19601f820116820180604052508101906117039190614c33565b6040517f70a0823100000000000000000000000000000000000000000000000000000000815230600482015290945073ffffffffffffffffffffffffffffffffffffffff8216906370a0823190602401602060405180830381865afa158015611770573d6000803e3d6000fd5b505050506040513d601f19601f820116820180604052508101906117949190614c33565b92505050600086856dffffffffffffffffffffffffffff166117b69190614c7b565b83116117c35760006117e7565b6117dd876dffffffffffffffffffffffffffff8716614c7b565b6117e79084614c7b565b90506000611805876dffffffffffffffffffffffffffff8716614c7b565b8311611812576000611836565b61182c876dffffffffffffffffffffffffffff8716614c7b565b6118369084614c7b565b905060008211806118475750600081115b6118ad576040517f08c379a000000000000000000000000000000000000000000000000000000000815260206004820181905260248201527f5245514c503a20494e53554646494349454e545f494e5055545f414d4f554e54604482015260640161070c565b60006118bb856127106134be565b905060006118cb856127106134be565b9050831561196357600e546000906118f690869063ffffffff6401000000009091048116906134be16565b905061190283826134d1565b600d54909350611922906dffffffffffffffffffffffffffff16826134df565b600d80547fffffffffffffffffffffffffffffffffffff0000000000000000000000000000166dffffffffffffffffffffffffffff92909216919091179055505b8215611a0057600e5460009061198c90859063ffffffff6401000000009091048116906134be16565b905061199882826134d1565b600d549092506119ca906e01000000000000000000000000000090046dffffffffffffffffffffffffffff16826134df565b600d600e6101000a8154816dffffffffffffffffffffffffffff02191690836dffffffffffffffffffffffffffff160217905550505b600d547c0100000000000000000000000000000000000000000000000000000000900463ffffffff166032811415611ace57611a576305f5e100610dc36dffffffffffffffffffffffffffff8c8116908c166134be565b611a6184846134be565b1015611ac9576040517f08c379a000000000000000000000000000000000000000000000000000000000815260206004820152600860248201527f5245514c503a204b000000000000000000000000000000000000000000000000604482015260640161070c565b611c21565b600c5473ffffffffffffffffffffffffffffffffffffffff166379c91b37611b086dffffffffffffffffffffffffffff8c166127106134be565b611b246dffffffffffffffffffffffffffff8c166127106134be565b6040517fffffffff0000000000000000000000000000000000000000000000000000000060e085901b16815260048101929092526024820152604481018690526064810185905263ffffffff8416608482015260a401602060405180830381865afa158015611b97573d6000803e3d6000fd5b505050506040513d601f19601f82011682018060405250810190611bbb9190614c92565b611c21576040517f08c379a000000000000000000000000000000000000000000000000000000000815260206004820152600860248201527f5245514c503a204b000000000000000000000000000000000000000000000000604482015260640161070c565b505050611c30848488886134fc565b60408051838152602081018390529081018990526060810188905273ffffffffffffffffffffffffffffffffffffffff8a169033907fd78ad95fa46c994b6551d0da85fc275fe613ce37657fb8d5e3d130840159d8229060800160405180910390a350506001600b555050505050505050505050565b6000600b54600114611d14576040517f08c379a000000000000000000000000000000000000000000000000000000000815260206004820152600d60248201527f5245514c503a204c4f434b454400000000000000000000000000000000000000604482015260640161070c565b6000600b81905560065473ffffffffffffffffffffffffffffffffffffffff8881169116149080808084611da057600854600e54600d546dffffffffffffffffffffffffffff6e0100000000000000000000000000008404811693169163ffffffff908116917c0100000000000000000000000000000000000000000000000000000000900416611dfb565b600854600d54600e546dffffffffffffffffffffffffffff808416936e0100000000000000000000000000009004169163ffffffff7c0100000000000000000000000000000000000000000000000000000000909104811691165b600c54600e546040517f671a11b50000000000000000000000000000000000000000000000000000000081526dffffffffffffffffffffffffffff9687169a50949095169750919550935060009273ffffffffffffffffffffffffffffffffffffffff9091169163671a11b591611243918e918a918a918a918a9163ffffffff64010000000090910416906004019586526020860194909452604085019290925263ffffffff908116606085015290811660808401521660a082015260c00190565b6000600b54600114611f2b576040517f08c379a000000000000000000000000000000000000000000000000000000000815260206004820152600d60248201527f5245514c503a204c4f434b454400000000000000000000000000000000000000604482015260640161070c565b6000600b819055600854600654604080517f70a0823100000000000000000000000000000000000000000000000000000000815230600482015290516dffffffffffffffffffffffffffff808516956e01000000000000000000000000000090950416939273ffffffffffffffffffffffffffffffffffffffff16916370a082319160248083019260209291908290030181865afa158015611fd1573d6000803e3d6000fd5b505050506040513d601f19601f82011682018060405250810190611ff59190614c33565b6007546040517f70a0823100000000000000000000000000000000000000000000000000000000815230600482015291925060009173ffffffffffffffffffffffffffffffffffffffff909116906370a0823190602401602060405180830381865afa158015612069573d6000803e3d6000fd5b505050506040513d601f19601f8201168201806040525081019061208d9190614c33565b905060006120ab836dffffffffffffffffffffffffffff87166134d1565b905060006120c9836dffffffffffffffffffffffffffff87166134d1565b90506120d5868661420d565b5060005480612110576120fc6103e86120f66120f186866134be565b6145aa565b906134d1565b975061210b60006103e861461a565b612165565b6121626dffffffffffffffffffffffffffff881661212e85846134be565b6121389190614ce3565b6dffffffffffffffffffffffffffff881661215385856134be565b61215d9190614ce3565b6146c3565b97505b600088116121f4576040517f08c379a0000000000000000000000000000000000000000000000000000000008152602060048201526024808201527f5245514c503a20494e53554646494349454e545f4c49515549444954595f4d4960448201527f4e54454400000000000000000000000000000000000000000000000000000000606482015260840161070c565b6121fe898961461a565b61220a858589896134fc565b604080518481526020810184905233917f4c209b5fc8ad50758f13e2e1088ba56a560dff690a1c6fef26394f4c03821c4f910160405180910390a250506001600b55509395945050505050565b600080600b546001146122c6576040517f08c379a000000000000000000000000000000000000000000000000000000000815260206004820152600d60248201527f5245514c503a204c4f434b454400000000000000000000000000000000000000604482015260640161070c565b6000600b819055600854600654600754604080517f70a0823100000000000000000000000000000000000000000000000000000000815230600482015290516dffffffffffffffffffffffffffff808616966e010000000000000000000000000000909604169473ffffffffffffffffffffffffffffffffffffffff94851694909316929184916370a08231916024808201926020929091908290030181865afa158015612378573d6000803e3d6000fd5b505050506040513d601f19601f8201168201806040525081019061239c9190614c33565b6040517f70a0823100000000000000000000000000000000000000000000000000000000815230600482015290915060009073ffffffffffffffffffffffffffffffffffffffff8416906370a0823190602401602060405180830381865afa15801561240c573d6000803e3d6000fd5b505050506040513d601f19601f820116820180604052508101906124309190614c33565b3060009081526001602052604090205490915061244d878761420d565b506000548061245c83866134be565b6124669190614ce3565b99508061247383856134be565b61247d9190614ce3565b985060008a11801561248f5750600089115b61251a576040517f08c379a0000000000000000000000000000000000000000000000000000000008152602060048201526024808201527f5245514c503a20494e53554646494349454e545f4c49515549444954595f425560448201527f524e454400000000000000000000000000000000000000000000000000000000606482015260840161070c565b61252430836146d9565b61252f868c8c61331e565b61253a858c8b61331e565b6040517f70a0823100000000000000000000000000000000000000000000000000000000815230600482015273ffffffffffffffffffffffffffffffffffffffff8716906370a0823190602401602060405180830381865afa1580156125a4573d6000803e3d6000fd5b505050506040513d601f19601f820116820180604052508101906125c89190614c33565b6040517f70a0823100000000000000000000000000000000000000000000000000000000815230600482015290945073ffffffffffffffffffffffffffffffffffffffff8616906370a0823190602401602060405180830381865afa158015612635573d6000803e3d6000fd5b505050506040513d601f19601f820116820180604052508101906126599190614c33565b925061266784848a8a6134fc565b604080518b8152602081018b905273ffffffffffffffffffffffffffffffffffffffff8d169133917fdccd412f0b1252819cb1fd330b93224ca42612892bb3f4f789976e6d81936496910160405180910390a350505050505050506001600b81905550915091565b6000611023338484614140565b600b54600114612748576040517f08c379a000000000000000000000000000000000000000000000000000000000815260206004820152600d60248201527f5245514c503a204c4f434b454400000000000000000000000000000000000000604482015260640161070c565b6000600b556006546007546008546040517f70a0823100000000000000000000000000000000000000000000000000000000815230600482015273ffffffffffffffffffffffffffffffffffffffff9384169390921691612810918491869161280b916dffffffffffffffffffffffffffff9091169084906370a08231906024015b602060405180830381865afa1580156127e7573d6000803e3d6000fd5b505050506040513d601f19601f820116820180604052508101906120f69190614c33565b61331e565b6008546040517f70a08231000000000000000000000000000000000000000000000000000000008152306004820152612895918391869161280b916e0100000000000000000000000000009091046dffffffffffffffffffffffffffff169073ffffffffffffffffffffffffffffffffffffffff8516906370a08231906024016127ca565b50506001600b5550565b600654600090819081908190819073ffffffffffffffffffffffffffffffffffffffff89811691161461292a57600854600e54600d546dffffffffffffffffffffffffffff6e0100000000000000000000000000008404811693169163ffffffff908116917c0100000000000000000000000000000000000000000000000000000000900416612985565b600854600d54600e546dffffffffffffffffffffffffffff808416936e0100000000000000000000000000009004169163ffffffff7c0100000000000000000000000000000000000000000000000000000000909104811691165b600c54600e546040517fb19210b0000000000000000000000000000000000000000000000000000000008152600481018d90526dffffffffffffffffffffffffffff96871660248201819052959096166044870181905263ffffffff8086166064890152808516608489015264010000000090920490911660a4870152939850929650909450925073ffffffffffffffffffffffffffffffffffffffff169063b19210b09060c4015b602060405180830381865afa158015612a4b573d6000803e3d6000fd5b505050506040513d601f19601f82011682018060405250810190612a6f9190614c33565b98975050505050505050565b60055473ffffffffffffffffffffffffffffffffffffffff163314612afc576040517f08c379a000000000000000000000000000000000000000000000000000000000815260206004820152601060248201527f5245514c503a20464f5242494444454e00000000000000000000000000000000604482015260640161070c565b600680547fffffffffffffffffffffffff000000000000000000000000000000000000000090811673ffffffffffffffffffffffffffffffffffffffff8781169190911790925560078054909116918516919091179055600d80547bffffffffffffffffffffffffffffffffffffffffffffffffffffffff167c010000000000000000000000000000000000000000000000000000000063ffffffff85811682029290921792839055612bb29204166064614cf7565b600e805463ffffffff848116640100000000027fffffffffffffffffffffffffffffffffffffffffffffffff0000000000000000909216931692909217919091179055600554604080517f4b75f54f000000000000000000000000000000000000000000000000000000008152905173ffffffffffffffffffffffffffffffffffffffff90921691634b75f54f916004818101926020929091908290030181865afa158015612c65573d6000803e3d6000fd5b505050506040513d601f19601f82011682018060405250810190612c899190614d1c565b600c80547fffffffffffffffffffffffff00000000000000000000000000000000000000001673ffffffffffffffffffffffffffffffffffffffff9290921691909117905550505050565b42841015612d3e576040517f08c379a000000000000000000000000000000000000000000000000000000000815260206004820152600c60248201527f524c503a20455850495245440000000000000000000000000000000000000000604482015260640161070c565b60035473ffffffffffffffffffffffffffffffffffffffff8816600090815260046020526040812080549192917f6e71edae12b1b97f4d1f60370fef10105fa2faae0126114a169c64845d6126c9918b918b918b919087612d9e83614d39565b9091555060408051602081019690965273ffffffffffffffffffffffffffffffffffffffff94851690860152929091166060840152608083015260a082015260c0810187905260e00160405160208183030381529060405280519060200120604051602001612e3f9291907f190100000000000000000000000000000000000000000000000000000000000081526002810192909252602282015260420190565b604080517fffffffffffffffffffffffffffffffffffffffffffffffffffffffffffffffe08184030181528282528051602091820120600080855291840180845281905260ff88169284019290925260608301869052608083018590529092509060019060a0016020604051602081039080840390855afa158015612ec8573d6000803e3d6000fd5b50506040517fffffffffffffffffffffffffffffffffffffffffffffffffffffffffffffffe0015191505073ffffffffffffffffffffffffffffffffffffffff811615801590612f4357508873ffffffffffffffffffffffffffffffffffffffff168173ffffffffffffffffffffffffffffffffffffffff16145b612fa9576040517f08c379a000000000000000000000000000000000000000000000000000000000815260206004820152601660248201527f524c503a20494e56414c49445f5349474e415455524500000000000000000000604482015260640161070c565b612fb4898989613860565b505050505050505050565b600654600090819081908190819073ffffffffffffffffffffffffffffffffffffffff89811691161461304a57600854600e54600d546dffffffffffffffffffffffffffff6e0100000000000000000000000000008404811693169163ffffffff908116917c01000000000000000000000000000000000000000000000000000000009004166130a5565b600854600d54600e546dffffffffffffffffffffffffffff808416936e0100000000000000000000000000009004169163ffffffff7c0100000000000000000000000000000000000000000000000000000000909104811691165b600c54600e546040517f671a11b5000000000000000000000000000000000000000000000000000000008152600481018d90526dffffffffffffffffffffffffffff96871660248201819052959096166044870181905263ffffffff8086166064890152808516608489015264010000000090920490911660a4870152939850929650909450925073ffffffffffffffffffffffffffffffffffffffff169063671a11b59060c401612a2e565b600b546001146131be576040517f08c379a000000000000000000000000000000000000000000000000000000000815260206004820152600d60248201527f5245514c503a204c4f434b454400000000000000000000000000000000000000604482015260640161070c565b6000600b556006546040517f70a082310000000000000000000000000000000000000000000000000000000081523060048201526133179173ffffffffffffffffffffffffffffffffffffffff16906370a0823190602401602060405180830381865afa158015613233573d6000803e3d6000fd5b505050506040513d601f19601f820116820180604052508101906132579190614c33565b6007546040517f70a0823100000000000000000000000000000000000000000000000000000000815230600482015273ffffffffffffffffffffffffffffffffffffffff909116906370a0823190602401602060405180830381865afa1580156132c5573d6000803e3d6000fd5b505050506040513d601f19601f820116820180604052508101906132e99190614c33565b6008546dffffffffffffffffffffffffffff808216916e0100000000000000000000000000009004166134fc565b6001600b55565b604080518082018252601981527f7472616e7366657228616464726573732c75696e743235362900000000000000602091820152815173ffffffffffffffffffffffffffffffffffffffff85811660248301526044808301869052845180840390910181526064909201845291810180517bffffffffffffffffffffffffffffffffffffffffffffffffffffffff167fa9059cbb00000000000000000000000000000000000000000000000000000000179052915160009283928716916133e59190614d72565b6000604051808303816000865af19150503d8060008114613422576040519150601f19603f3d011682016040523d82523d6000602084013e613427565b606091505b50915091508180156134515750805115806134515750808060200190518101906134519190614c92565b6134b7576040517f08c379a000000000000000000000000000000000000000000000000000000000815260206004820152601660248201527f5245514c503a205452414e534645525f4641494c454400000000000000000000604482015260640161070c565b5050505050565b60006134ca8284614d8e565b9392505050565b60006134ca8383600161478a565b6000806134ec8385614dcb565b90506134ca8482101560006147ae565b600d547c0100000000000000000000000000000000000000000000000000000000900463ffffffff166dffffffffffffffffffffffffffff61353f826064614cf7565b61354f9063ffffffff1687614d8e565b1115801561357a57506dffffffffffffffffffffffffffff61357763ffffffff831686614d8e565b11155b6135e0576040517f08c379a000000000000000000000000000000000000000000000000000000000815260206004820152600f60248201527f5245514c503a204f564552464c4f570000000000000000000000000000000000604482015260640161070c565b60006135f164010000000042614de3565b60085490915060009061362a907c0100000000000000000000000000000000000000000000000000000000900463ffffffff1683614cf7565b905060008163ffffffff1611801561365157506dffffffffffffffffffffffffffff851615155b801561366c57506dffffffffffffffffffffffffffff841615155b1561376f57600061367e846064614cf7565b61368e9063ffffffff1687614df7565b905060006136a263ffffffff861687614df7565b90508263ffffffff166136dc836136b8846147c0565b7bffffffffffffffffffffffffffffffffffffffffffffffffffffffff16906147f1565b7bffffffffffffffffffffffffffffffffffffffffffffffffffffffff166137049190614d8e565b600960008282546137159190614dcb565b909155505063ffffffff831661372e826136b8856147c0565b7bffffffffffffffffffffffffffffffffffffffffffffffffffffffff166137569190614d8e565b600a60008282546137679190614dcb565b909155505050505b6008805463ffffffff84167c0100000000000000000000000000000000000000000000000000000000027bffffffffffffffffffffffffffffffffffffffffffffffffffffffff6dffffffffffffffffffffffffffff8a81166e0100000000000000000000000000009081027fffffffff000000000000000000000000000000000000000000000000000000009095168d83161794909417918216831794859055604080519382169282169290921783529290930490911660208201527f1c411e9a96e071241c2f21f7726b17ae89e3cab4c78be50e062b03a9fffbbad1910160405180910390a150505050505050565b73ffffffffffffffffffffffffffffffffffffffff83811660008181526002602090815260408083209487168084529482529182902085905590518481527f8c5be1e5ebec7d5bd14f71427d1e84f3dd0314c0f7b2291e5b200ac8c7c3b92591015b60405180910390a3505050565b6000808411806138df5750600083115b61396b576040517f08c379a000000000000000000000000000000000000000000000000000000000815260206004820152602160248201527f5245514c503a20494e53554646494349454e545f4f55545055545f414d4f554e60448201527f5400000000000000000000000000000000000000000000000000000000000000606482015260840161070c565b6008546dffffffffffffffffffffffffffff808216916e01000000000000000000000000000090041681861080156139b25750806dffffffffffffffffffffffffffff1685105b613a18576040517f08c379a000000000000000000000000000000000000000000000000000000000815260206004820152601d60248201527f5245514c503a20494e53554646494349454e545f4c4951554944495459000000604482015260640161070c565b600654600754600091829173ffffffffffffffffffffffffffffffffffffffff918216919081169088168214801590613a7d57508073ffffffffffffffffffffffffffffffffffffffff168873ffffffffffffffffffffffffffffffffffffffff1614155b613ae3576040517f08c379a000000000000000000000000000000000000000000000000000000000815260206004820152601160248201527f5245514c503a20494e56414c49445f544f000000000000000000000000000000604482015260640161070c565b8915613af457613af482898c61331e565b8815613b0557613b0581898b61331e565b6040517f70a0823100000000000000000000000000000000000000000000000000000000815230600482015273ffffffffffffffffffffffffffffffffffffffff8316906370a0823190602401602060405180830381865afa158015613b6f573d6000803e3d6000fd5b505050506040513d601f19601f82011682018060405250810190613b939190614c33565b6040517f70a0823100000000000000000000000000000000000000000000000000000000815230600482015290945073ffffffffffffffffffffffffffffffffffffffff8216906370a0823190602401602060405180830381865afa158015613c00573d6000803e3d6000fd5b505050506040513d601f19601f82011682018060405250810190613c249190614c33565b92505050600088856dffffffffffffffffffffffffffff16613c469190614c7b565b8311613c53576000613c77565b613c6d896dffffffffffffffffffffffffffff8716614c7b565b613c779084614c7b565b90506000613c95896dffffffffffffffffffffffffffff8716614c7b565b8311613ca2576000613cc6565b613cbc896dffffffffffffffffffffffffffff8716614c7b565b613cc69084614c7b565b90506000821180613cd75750600081115b613d3d576040517f08c379a000000000000000000000000000000000000000000000000000000000815260206004820181905260248201527f5245514c503a20494e53554646494349454e545f494e5055545f414d4f554e54604482015260640161070c565b6000613d4b856127106134be565b90506000613d5b856127106134be565b90508315613df357600e54600090613d8690869063ffffffff6401000000009091048116906134be16565b9050613d9283826134d1565b600d54909350613db2906dffffffffffffffffffffffffffff16826134df565b600d80547fffffffffffffffffffffffffffffffffffff0000000000000000000000000000166dffffffffffffffffffffffffffff92909216919091179055505b8215613e9057600e54600090613e1c90859063ffffffff6401000000009091048116906134be16565b9050613e2882826134d1565b600d54909250613e5a906e01000000000000000000000000000090046dffffffffffffffffffffffffffff16826134df565b600d600e6101000a8154816dffffffffffffffffffffffffffff02191690836dffffffffffffffffffffffffffff160217905550505b600d547c0100000000000000000000000000000000000000000000000000000000900463ffffffff166032811415613f5e57613ee76305f5e100610dc36dffffffffffffffffffffffffffff8c8116908c166134be565b613ef184846134be565b1015613f59576040517f08c379a000000000000000000000000000000000000000000000000000000000815260206004820152600860248201527f5245514c503a204b000000000000000000000000000000000000000000000000604482015260640161070c565b6140b1565b600c5473ffffffffffffffffffffffffffffffffffffffff166379c91b37613f986dffffffffffffffffffffffffffff8c166127106134be565b613fb46dffffffffffffffffffffffffffff8c166127106134be565b6040517fffffffff0000000000000000000000000000000000000000000000000000000060e085901b16815260048101929092526024820152604481018690526064810185905263ffffffff8416608482015260a401602060405180830381865afa158015614027573d6000803e3d6000fd5b505050506040513d601f19601f8201168201806040525081019061404b9190614c92565b6140b1576040517f08c379a000000000000000000000000000000000000000000000000000000000815260206004820152600860248201527f5245514c503a204b000000000000000000000000000000000000000000000000604482015260640161070c565b5050506140c0848488886134fc565b60408051838152602081018390529081018b9052606081018a905273ffffffffffffffffffffffffffffffffffffffff89169033907fd78ad95fa46c994b6551d0da85fc275fe613ce37657fb8d5e3d130840159d8229060800160405180910390a360008a116141305788614132565b895b9a9950505050505050505050565b73ffffffffffffffffffffffffffffffffffffffff831660009081526001602052604090205461417090826134d1565b73ffffffffffffffffffffffffffffffffffffffff80851660009081526001602052604080822093909355908416815220546141ac90826134df565b73ffffffffffffffffffffffffffffffffffffffff80841660008181526001602052604090819020939093559151908516907fddf252ad1be2c89b69c2b068fc378daa952ba7f163c4a11628f55a4df523b3ef906138c29085815260200190565b600080600560009054906101000a900473ffffffffffffffffffffffffffffffffffffffff1673ffffffffffffffffffffffffffffffffffffffff1663017e7e586040518163ffffffff1660e01b8152600401602060405180830381865afa15801561427d573d6000803e3d6000fd5b505050506040513d601f19601f820116820180604052508101906142a19190614d1c565b90506000600560009054906101000a900473ffffffffffffffffffffffffffffffffffffffff1673ffffffffffffffffffffffffffffffffffffffff1663b0e21e8a6040518163ffffffff1660e01b8152600401602060405180830381865afa158015614312573d6000803e3d6000fd5b505050506040513d601f19601f820116820180604052508101906143369190614c33565b73ffffffffffffffffffffffffffffffffffffffff8316151593509050600080614386600d546dffffffffffffffffffffffffffff808216926e0100000000000000000000000000009092041690565b915091506000836dffffffffffffffffffffffffffff161180156143a75750845b80156143dd57506000826dffffffffffffffffffffffffffff1611806143dd57506000816dffffffffffffffffffffffffffff16115b1561452257600d54600c54600080547c010000000000000000000000000000000000000000000000000000000090930463ffffffff1692909173ffffffffffffffffffffffffffffffffffffffff16906392aec23c908b8b86614441816064614cf7565b61444b8c8c614e2d565b6144558d8c614e2d565b6040517fffffffff0000000000000000000000000000000000000000000000000000000060e08a901b16815260048101979097526dffffffffffffffffffffffffffff9586166024880152938516604487015263ffffffff928316606487015291166084850152821660a48401521660c482015260e401602060405180830381865afa1580156144e9573d6000803e3d6000fd5b505050506040513d601f19601f8201168201806040525081019061450d9190614c33565b9050801561451f5761451f868261461a565b50505b6dffffffffffffffffffffffffffff82161561456157600d80547fffffffffffffffffffffffffffffffffffff00000000000000000000000000001690555b6dffffffffffffffffffffffffffff8116156145a057600d80547fffffffff0000000000000000000000000000ffffffffffffffffffffffffffff1690555b5050505092915050565b6000600382111561460b57508060006145c4600283614ce3565b6145cf906001614dcb565b90505b81811015614605579050806002816145ea8186614ce3565b6145f49190614dcb565b6145fe9190614ce3565b90506145d2565b50919050565b8115614615575060015b919050565b60005461462790826134df565b600090815573ffffffffffffffffffffffffffffffffffffffff831681526001602052604090205461465990826134df565b73ffffffffffffffffffffffffffffffffffffffff83166000818152600160205260408082209390935591519091907fddf252ad1be2c89b69c2b068fc378daa952ba7f163c4a11628f55a4df523b3ef906146b79085815260200190565b60405180910390a35050565b60008183106146d257816134ca565b5090919050565b73ffffffffffffffffffffffffffffffffffffffff821660009081526001602052604090205461470990826134d1565b73ffffffffffffffffffffffffffffffffffffffff83166000908152600160205260408120919091555461473d90826134d1565b600090815560405182815273ffffffffffffffffffffffffffffffffffffffff8416907fddf252ad1be2c89b69c2b068fc378daa952ba7f163c4a11628f55a4df523b3ef906020016146b7565b600061479984841115836147ae565b60006147a58486614c7b565b95945050505050565b816147bc576147bc8161480d565b5050565b60006147eb6e0100000000000000000000000000006dffffffffffffffffffffffffffff8416614e5a565b92915050565b60006134ca6dffffffffffffffffffffffffffff831684614e95565b7f08c379a0000000000000000000000000000000000000000000000000000000006000908152602060045260076024526652455123000030600a808404818106603090810160081b95839006959095019082900491820690940160101b939093010160c81b604452606490fd5b73ffffffffffffffffffffffffffffffffffffffff8116811461489c57600080fd5b50565b6000806000806000608086880312156148b757600080fd5b853594506020860135935060408601356148d08161487a565b9250606086013567ffffffffffffffff808211156148ed57600080fd5b818801915088601f83011261490157600080fd5b81358181111561491057600080fd5b89602082850101111561492257600080fd5b9699959850939650602001949392505050565b60005b83811015614950578181015183820152602001614938565b8381111561495f576000848401525b50505050565b6020815260008251806020840152614984816040850160208701614935565b601f017fffffffffffffffffffffffffffffffffffffffffffffffffffffffffffffffe0169190910160400192915050565b600080604083850312156149c957600080fd5b82356149d48161487a565b946020939093013593505050565b600080600080600060a086880312156149fa57600080fd5b8535614a058161487a565b94506020860135614a158161487a565b935060408601359250606086013591506080860135614a338161487a565b809150509295509295909350565b600080600060608486031215614a5657600080fd5b8335614a618161487a565b92506020840135614a718161487a565b929592945050506040919091013590565b600060208284031215614a9457600080fd5b81356134ca8161487a565b803563ffffffff8116811461461557600080fd5b60008060008060808587031215614ac957600080fd5b8435614ad48161487a565b93506020850135614ae48161487a565b9250614af260408601614a9f565b9150614b0060608601614a9f565b905092959194509250565b600080600080600080600060e0888a031215614b2657600080fd5b8735614b318161487a565b96506020880135614b418161487a565b95506040880135945060608801359350608088013560ff81168114614b6557600080fd5b9699959850939692959460a0840135945060c09093013592915050565b60008060408385031215614b9557600080fd5b8235614ba08161487a565b91506020830135614bb08161487a565b809150509250929050565b73ffffffffffffffffffffffffffffffffffffffff8616815284602082015283604082015260806060820152816080820152818360a0830137600081830160a090810191909152601f9092017fffffffffffffffffffffffffffffffffffffffffffffffffffffffffffffffe0160101949350505050565b600060208284031215614c4557600080fd5b5051919050565b7f4e487b7100000000000000000000000000000000000000000000000000000000600052601160045260246000fd5b600082821015614c8d57614c8d614c4c565b500390565b600060208284031215614ca457600080fd5b815180151581146134ca57600080fd5b7f4e487b7100000000000000000000000000000000000000000000000000000000600052601260045260246000fd5b600082614cf257614cf2614cb4565b500490565b600063ffffffff83811690831681811015614d1457614d14614c4c565b039392505050565b600060208284031215614d2e57600080fd5b81516134ca8161487a565b60007fffffffffffffffffffffffffffffffffffffffffffffffffffffffffffffffff821415614d6b57614d6b614c4c565b5060010190565b60008251614d84818460208701614935565b9190910192915050565b6000817fffffffffffffffffffffffffffffffffffffffffffffffffffffffffffffffff0483118215151615614dc657614dc6614c4c565b500290565b60008219821115614dde57614dde614c4c565b500190565b600082614df257614df2614cb4565b500690565b60006dffffffffffffffffffffffffffff80831681851681830481118215151615614e2457614e24614c4c565b02949350505050565b60006dffffffffffffffffffffffffffff80841680614e4e57614e4e614cb4565b92169190910492915050565b60007bffffffffffffffffffffffffffffffffffffffffffffffffffffffff80831681851681830481118215151615614e2457614e24614c4c565b60007bffffffffffffffffffffffffffffffffffffffffffffffffffffffff80841680614e4e57614e4e614cb456fea26469706673582212202572c3fe9eff9680abd9510ff3174ac72d3823a7962359dd0b80fbb9f7e7b58364736f6c634300080a0033a2646970667358221220c9adfb684f7df6f9d291c7d0dda7630f1f92c11cd99a329ae71ff223bcc1dd8d64736f6c634300080a0033",
  "devdoc": {
    "kind": "dev",
    "methods": {},
    "version": 1
  },
  "userdoc": {
    "kind": "user",
    "methods": {},
    "version": 1
  },
  "storageLayout": {
    "storage": [
      {
        "astId": 4304,
        "contract": "contracts/test/RequiemFactory_flat.sol:RequiemFactory",
        "label": "feeTo",
        "offset": 0,
        "slot": "0",
        "type": "t_address"
      },
      {
        "astId": 4306,
        "contract": "contracts/test/RequiemFactory_flat.sol:RequiemFactory",
        "label": "formula",
        "offset": 0,
        "slot": "1",
        "type": "t_address"
      },
      {
        "astId": 4308,
        "contract": "contracts/test/RequiemFactory_flat.sol:RequiemFactory",
        "label": "protocolFee",
        "offset": 0,
        "slot": "2",
        "type": "t_uint256"
      },
      {
        "astId": 4310,
        "contract": "contracts/test/RequiemFactory_flat.sol:RequiemFactory",
        "label": "feeToSetter",
        "offset": 0,
        "slot": "3",
        "type": "t_address"
      },
      {
        "astId": 4325,
        "contract": "contracts/test/RequiemFactory_flat.sol:RequiemFactory",
        "label": "_pairSalts",
        "offset": 0,
        "slot": "4",
        "type": "t_mapping(t_bytes32,t_address)"
      },
      {
        "astId": 4328,
        "contract": "contracts/test/RequiemFactory_flat.sol:RequiemFactory",
        "label": "allPairs",
        "offset": 0,
        "slot": "5",
        "type": "t_array(t_address)dyn_storage"
      },
      {
        "astId": 4332,
        "contract": "contracts/test/RequiemFactory_flat.sol:RequiemFactory",
        "label": "_pairs",
        "offset": 0,
        "slot": "6",
        "type": "t_mapping(t_address,t_uint64)"
      }
    ],
    "types": {
      "t_address": {
        "encoding": "inplace",
        "label": "address",
        "numberOfBytes": "20"
      },
      "t_array(t_address)dyn_storage": {
        "base": "t_address",
        "encoding": "dynamic_array",
        "label": "address[]",
        "numberOfBytes": "32"
      },
      "t_bytes32": {
        "encoding": "inplace",
        "label": "bytes32",
        "numberOfBytes": "32"
      },
      "t_mapping(t_address,t_uint64)": {
        "encoding": "mapping",
        "key": "t_address",
        "label": "mapping(address => uint64)",
        "numberOfBytes": "32",
        "value": "t_uint64"
      },
      "t_mapping(t_bytes32,t_address)": {
        "encoding": "mapping",
        "key": "t_bytes32",
        "label": "mapping(bytes32 => address)",
        "numberOfBytes": "32",
        "value": "t_address"
      },
      "t_uint256": {
        "encoding": "inplace",
        "label": "uint256",
        "numberOfBytes": "32"
      },
      "t_uint64": {
        "encoding": "inplace",
        "label": "uint64",
        "numberOfBytes": "8"
      }
    }
  }
}