{
  "address": "0x610178dA211FEF7D417bC0e6FeD39F05609AD788",
  "abi": [
    {
      "inputs": [
        {
          "internalType": "address",
          "name": "_feeToSetter",
          "type": "address"
        },
        {
          "internalType": "address",
          "name": "_formula",
          "type": "address"
        }
      ],
      "stateMutability": "nonpayable",
      "type": "constructor"
    },
    {
      "anonymous": false,
      "inputs": [
        {
          "indexed": true,
          "internalType": "address",
          "name": "token0",
          "type": "address"
        },
        {
          "indexed": true,
          "internalType": "address",
          "name": "token1",
          "type": "address"
        },
        {
          "indexed": false,
          "internalType": "address",
          "name": "pair",
          "type": "address"
        },
        {
          "indexed": false,
          "internalType": "uint32",
          "name": "tokenWeight0",
          "type": "uint32"
        },
        {
          "indexed": false,
          "internalType": "uint32",
          "name": "swapFee",
          "type": "uint32"
        },
        {
          "indexed": false,
          "internalType": "uint256",
          "name": "",
          "type": "uint256"
        }
      ],
      "name": "PairCreated",
      "type": "event"
    },
    {
      "inputs": [],
      "name": "INIT_CODE_HASH",
      "outputs": [
        {
          "internalType": "bytes32",
          "name": "",
          "type": "bytes32"
        }
      ],
      "stateMutability": "view",
      "type": "function"
    },
    {
      "inputs": [
        {
          "internalType": "uint256",
          "name": "",
          "type": "uint256"
        }
      ],
      "name": "allPairs",
      "outputs": [
        {
          "internalType": "address",
          "name": "",
          "type": "address"
        }
      ],
      "stateMutability": "view",
      "type": "function"
    },
    {
      "inputs": [],
      "name": "allPairsLength",
      "outputs": [
        {
          "internalType": "uint256",
          "name": "",
          "type": "uint256"
        }
      ],
      "stateMutability": "view",
      "type": "function"
    },
    {
      "inputs": [
        {
          "internalType": "address",
          "name": "tokenA",
          "type": "address"
        },
        {
          "internalType": "address",
          "name": "tokenB",
          "type": "address"
        },
        {
          "internalType": "uint32",
          "name": "tokenWeightA",
          "type": "uint32"
        },
        {
          "internalType": "uint32",
          "name": "swapFee",
          "type": "uint32"
        }
      ],
      "name": "createPair",
      "outputs": [
        {
          "internalType": "address",
          "name": "pair",
          "type": "address"
        }
      ],
      "stateMutability": "nonpayable",
      "type": "function"
    },
    {
      "inputs": [],
      "name": "feeTo",
      "outputs": [
        {
          "internalType": "address",
          "name": "",
          "type": "address"
        }
      ],
      "stateMutability": "view",
      "type": "function"
    },
    {
      "inputs": [],
      "name": "feeToSetter",
      "outputs": [
        {
          "internalType": "address",
          "name": "",
          "type": "address"
        }
      ],
      "stateMutability": "view",
      "type": "function"
    },
    {
      "inputs": [],
      "name": "formula",
      "outputs": [
        {
          "internalType": "address",
          "name": "",
          "type": "address"
        }
      ],
      "stateMutability": "view",
      "type": "function"
    },
    {
      "inputs": [
        {
          "internalType": "address",
          "name": "tokenA",
          "type": "address"
        },
        {
          "internalType": "address",
          "name": "tokenB",
          "type": "address"
        },
        {
          "internalType": "uint32",
          "name": "tokenWeightA",
          "type": "uint32"
        },
        {
          "internalType": "uint32",
          "name": "swapFee",
          "type": "uint32"
        }
      ],
      "name": "getPair",
      "outputs": [
        {
          "internalType": "address",
          "name": "pair",
          "type": "address"
        }
      ],
      "stateMutability": "view",
      "type": "function"
    },
    {
      "inputs": [
        {
          "internalType": "address",
          "name": "pair",
          "type": "address"
        }
      ],
      "name": "getWeightsAndSwapFee",
      "outputs": [
        {
          "internalType": "uint32",
          "name": "tokenWeight0",
          "type": "uint32"
        },
        {
          "internalType": "uint32",
          "name": "tokenWeight1",
          "type": "uint32"
        },
        {
          "internalType": "uint32",
          "name": "swapFee",
          "type": "uint32"
        }
      ],
      "stateMutability": "view",
      "type": "function"
    },
    {
      "inputs": [
        {
          "internalType": "address",
          "name": "b",
          "type": "address"
        }
      ],
      "name": "isPair",
      "outputs": [
        {
          "internalType": "bool",
          "name": "",
          "type": "bool"
        }
      ],
      "stateMutability": "view",
      "type": "function"
    },
    {
      "inputs": [],
      "name": "protocolFee",
      "outputs": [
        {
          "internalType": "uint256",
          "name": "",
          "type": "uint256"
        }
      ],
      "stateMutability": "view",
      "type": "function"
    },
    {
      "inputs": [
        {
          "internalType": "address",
          "name": "_feeTo",
          "type": "address"
        }
      ],
      "name": "setFeeTo",
      "outputs": [],
      "stateMutability": "nonpayable",
      "type": "function"
    },
    {
      "inputs": [
        {
          "internalType": "address",
          "name": "_feeToSetter",
          "type": "address"
        }
      ],
      "name": "setFeeToSetter",
      "outputs": [],
      "stateMutability": "nonpayable",
      "type": "function"
    },
    {
      "inputs": [
        {
          "internalType": "uint256",
          "name": "_protocolFee",
          "type": "uint256"
        }
      ],
      "name": "setProtocolFee",
      "outputs": [],
      "stateMutability": "nonpayable",
      "type": "function"
    }
  ],
  "transactionHash": "0x9cb63f3ef3571c8ddf771c104bb67ffc495f01af8ee8e9d5ef49bf00c650d25c",
  "args": [
    "0xf39Fd6e51aad88F6F4ce6aB8827279cffFb92266",
    "0x8A791620dd6260079BF849Dc5567aDC3F2FdC318"
  ],
  "solcInputHash": "34d450937495f9b3b87a9e7fa96ab1c6",
  "bytecode": "0x608060405234801561001057600080fd5b5060405161451538038061451583398101604081905261002f9161007c565b600380546001600160a01b039384166001600160a01b031991821617909155600180549290931691161790556100af565b80516001600160a01b038116811461007757600080fd5b919050565b6000806040838503121561008f57600080fd5b61009883610060565b91506100a660208401610060565b90509250929050565b614457806100be6000396000f3fe608060405234801561001057600080fd5b50600436106100ea5760003560e01c8063787dce3d1161008c578063bfd63f4d11610066578063bfd63f4d146101ba578063ca222979146101cd578063e5e31b1314610207578063f46901ed1461024c57600080fd5b8063787dce3d14610189578063a2e74af61461019e578063b0e21e8a146101b157600080fd5b80631e3dd18b116100c85780631e3dd18b14610145578063257671f5146101585780634b75f54f1461016e578063574f2ba31461018157600080fd5b8063017e7e58146100ef578063094b74151461011f57806314572adb14610132575b600080fd5b600054610102906001600160a01b031681565b6040516001600160a01b0390911681526020015b60405180910390f35b600354610102906001600160a01b031681565b610102610140366004610945565b61025f565b610102610153366004610999565b61066c565b610160610696565b604051908152602001610116565b600154610102906001600160a01b031681565b600554610160565b61019c610197366004610999565b6106e0565b005b61019c6101ac3660046109b2565b610778565b61016060025481565b6101026101c8366004610945565b6107c4565b6101e06101db3660046109b2565b610853565b6040805163ffffffff94851681529284166020840152921691810191909152606001610116565b61023c6102153660046109b2565b6001600160a01b031660009081526006602052604090205467ffffffffffffffff16151590565b6040519015158152602001610116565b61019c61025a3660046109b2565b6108bc565b6000836001600160a01b0316856001600160a01b031614156102c85760405162461bcd60e51b815260206004820152601860248201527f524c503a204944454e544943414c5f414444524553534553000000000000000060448201526064015b60405180910390fd5b60028363ffffffff16101580156102e6575060628363ffffffff1611155b801561030057506102f86002846109d4565b63ffffffff16155b61034c5760405162461bcd60e51b815260206004820152601960248201527f524c503a20494e56414c49445f544f4b454e5f5745494748540000000000000060448201526064016102bf565b60018263ffffffff161015801561036b57506107d08263ffffffff1611155b6103af5760405162461bcd60e51b8152602060048201526015602482015274524c503a20494e56414c49445f535741505f46454560581b60448201526064016102bf565b6000806000866001600160a01b0316886001600160a01b0316106103df5786886103da886064610a05565b6103e3565b8787875b919450925090506001600160a01b0383166104345760405162461bcd60e51b8152602060048201526011602482015270524c503a205a45524f5f4144445245535360781b60448201526064016102bf565b60006040518060200161044690610908565b6020820181038252601f19601f8201166040525090506000848484896040516020016104759493929190610a38565b60408051601f198184030181529181528151602092830120600081815260049093529120549091506001600160a01b0316156104e65760405162461bcd60e51b815260206004820152601060248201526f524c503a20504149525f45584953545360801b60448201526064016102bf565b808251602084016000f560405163d0f6957960e01b81526001600160a01b038781166004830152868116602483015263ffffffff80871660448401528a1660648301529197509087169063d0f6957990608401600060405180830381600087803b15801561055357600080fd5b505af1158015610567573d6000803e3d6000fd5b505050600082815260046020908152604080832080546001600160a01b03199081166001600160a01b038d8116918217909355600580546001810182557f036b6384b5eca791c62761152d0c79bb0604c104a5fb6f4eb0703f3154bb3db001805490931682179092558086526006855294839020805463ffffffff8f81168c881b67ffffffff0000000016811767ffffffffffffffff19909316831790935592548551978852928b169587019590955292850192909252606084019190915290925086811691908816907f41f8736f924f57e464ededb08bf71f868f9d142885bbc73a1516db2be21fc4289060800160405180910390a3505050505050949350505050565b6005818154811061067c57600080fd5b6000918252602090912001546001600160a01b0316905081565b6040516106a560208201610908565b601f1982820381018352601f9091011660408190526106c79190602001610a7f565b6040516020818303038152906040528051906020012081565b6003546001600160a01b0316331461070a5760405162461bcd60e51b81526004016102bf90610aba565b801580610727575061271081101580156107275750620186a08111155b6107735760405162461bcd60e51b815260206004820152601960248201527f524c503a20496e76616c69642050726f746f636f6c206665650000000000000060448201526064016102bf565b600255565b6003546001600160a01b031633146107a25760405162461bcd60e51b81526004016102bf90610aba565b600380546001600160a01b0319166001600160a01b0392909216919091179055565b600080600080866001600160a01b0316886001600160a01b0316106107f55786886107f0886064610a05565b6107f9565b8787875b9250925092506000838383886040516020016108189493929190610a38565b60408051601f198184030181529181528151602092830120600090815260049092529020546001600160a01b03169998505050505050505050565b6001600160a01b0381166000908152600660205260408120548190819067ffffffffffffffff1680156108a25763ffffffff602082901c16935090508061089b846064610a05565b92506108b3565b603280601e935093509350506108b5565b505b9193909250565b6003546001600160a01b031633146108e65760405162461bcd60e51b81526004016102bf90610aba565b600080546001600160a01b0319166001600160a01b0392909216919091179055565b61393f80610ae383390190565b80356001600160a01b038116811461092c57600080fd5b919050565b803563ffffffff8116811461092c57600080fd5b6000806000806080858703121561095b57600080fd5b61096485610915565b935061097260208601610915565b925061098060408601610931565b915061098e60608601610931565b905092959194509250565b6000602082840312156109ab57600080fd5b5035919050565b6000602082840312156109c457600080fd5b6109cd82610915565b9392505050565b600063ffffffff808416806109f957634e487b7160e01b600052601260045260246000fd5b92169190910692915050565b600063ffffffff83811690831681811015610a3057634e487b7160e01b600052601160045260246000fd5b039392505050565b6bffffffffffffffffffffffff19606095861b811682529390941b90921660148401526001600160e01b031960e091821b8116602885015291901b16602c82015260300190565b6000825160005b81811015610aa05760208186018101518583015201610a86565b81811115610aaf576000828501525b509190910192915050565b6020808252600e908201526d2926281d102327a92124a22222a760911b60408201526060019056fe60806040526001600b5534801561001557600080fd5b50604080518082018252601a81527f5265717569656d204c69717569646974792050726f76696465720000000000006020918201528151808301835260018152603160f81b9082015281517f8b73c3c69bb8fe3d512ecc4cf759cc79239f7b179b0ffacaa9a75d522b39400f818301527f2e1adfbb118fada029d9623aa0ed8dd2318a25545f57095be55dcbd209508e12818401527fc89efdaa54c0f20c7adf612882df0950f5a951637e0307cdcb4c672f298b8bc660608201524660808201523060a0808301919091528351808303909101815260c09091019092528151910120600355600580546001600160a01b031916331790556138248061011b6000396000f3fe608060405234801561001057600080fd5b50600436106102115760003560e01c80636a62784211610125578063cc56fd43116100ad578063d505accf1161007c578063d505accf14610538578063d54a8d181461054b578063dd62ed3e14610575578063e9255bae146105a0578063fff6cae9146105b357600080fd5b8063cc56fd43146104da578063d0f69579146104ed578063d21220a714610500578063d4cadf681461051357600080fd5b806395d89b41116100f457806395d89b4114610476578063a9059cbb14610498578063ba9a7a56146104ab578063bc25cf77146104b4578063c45a0155146104c757600080fd5b80636a627842146103fb57806370a082311461040e5780637ecebe001461042e57806389afcb441461044e57600080fd5b806330adf81f116101a85780633644e515116101775780633644e515146103ba5780634ac00e03146103c35780634b75f54f146103d65780635909c0d5146103e95780635a3d5493146103f257600080fd5b806330adf81f1461033c578063313ce5671461036357806332bfe4691461037d57806332fd5493146103a757600080fd5b80630dfe1681116101e45780630dfe1681146102d45780630e6d8bce146102ff57806318160ddd1461032057806323b872dd1461032957600080fd5b8063022c0d9f1461021657806306fdde031461022b5780630902f1ac1461027d578063095ea7b3146102b1575b600080fd5b610229610224366004613164565b6105bb565b005b6102676040518060400160405280601a81526020017f5265717569656d204c69717569646974792050726f766964657200000000000081525081565b604051610274919061322a565b60405180910390f35b610285610b8f565b604080516001600160701b03948516815293909216602084015263ffffffff1690820152606001610274565b6102c46102bf36600461325d565b610bb9565b6040519015158152602001610274565b6006546102e7906001600160a01b031681565b6040516001600160a01b039091168152602001610274565b61031261030d366004613289565b610bcf565b604051908152602001610274565b61031260005481565b6102c46103373660046132e8565b610d58565b6103127f6e71edae12b1b97f4d1f60370fef10105fa2faae0126114a169c64845d6126c981565b61036b601281565b60405160ff9091168152602001610274565b600d54600e5460408051600160e01b90930463ffffffff9081168452909116602083015201610274565b6102296103b5366004613289565b610dec565b61031260035481565b6103126103d1366004613289565b611370565b600c546102e7906001600160a01b031681565b61031260095481565b610312600a5481565b610312610409366004613329565b61147c565b61031261041c366004613329565b60016020526000908152604090205481565b61031261043c366004613329565b60046020526000908152604090205481565b61046161045c366004613329565b611713565b60408051928352602083019190915201610274565b610267604051806040016040528060038152602001620524c560ec1b81525081565b6102c46104a636600461325d565b611a47565b6103126103e881565b6102296104c2366004613329565b611a54565b6005546102e7906001600160a01b031681565b6103126104e83660046132e8565b611b68565b6102296104fb36600461335a565b611c98565b6007546102e7906001600160a01b031681565b600e54600160201b900463ffffffff1660405163ffffffff9091168152602001610274565b6102296105463660046133b2565b611e07565b600d54604080516001600160701b038084168252600160701b909304909216602083015201610274565b610312610583366004613429565b600260209081526000928352604080842090915290825290205481565b6103126105ae3660046132e8565b61200e565b6102296120f1565b600b546001146105e65760405162461bcd60e51b81526004016105dd90613462565b60405180910390fd5b6000600b55841515806105f95750600084115b6106155760405162461bcd60e51b81526004016105dd90613489565b6008546001600160701b0380821691600160701b90041681871080156106435750806001600160701b031686105b61065f5760405162461bcd60e51b81526004016105dd906134ca565b60065460075460009182916001600160a01b0391821691908116908916821480159061069d5750806001600160a01b0316896001600160a01b031614155b6106b95760405162461bcd60e51b81526004016105dd90613501565b8a156106ca576106ca828a8d612215565b89156106db576106db818a8c612215565b8615610748576040516304347a1760e21b81526001600160a01b038a16906310d1e85c906107159033908f908f908e908e9060040161352c565b600060405180830381600087803b15801561072f57600080fd5b505af1158015610743573d6000803e3d6000fd5b505050505b6040516370a0823160e01b81523060048201526001600160a01b038316906370a0823190602401602060405180830381865afa15801561078c573d6000803e3d6000fd5b505050506040513d601f19601f820116820180604052508101906107b09190613578565b6040516370a0823160e01b81523060048201529094506001600160a01b038216906370a0823190602401602060405180830381865afa1580156107f7573d6000803e3d6000fd5b505050506040513d601f19601f8201168201806040525081019061081b9190613578565b92505050600089856001600160701b031661083691906135a7565b8311610843576000610860565b6108568a6001600160701b0387166135a7565b61086090846135a7565b905060006108778a6001600160701b0387166135a7565b83116108845760006108a1565b6108978a6001600160701b0387166135a7565b6108a190846135a7565b905060008211806108b25750600081115b6108ce5760405162461bcd60e51b81526004016105dd906135be565b60006108dc85612710612359565b905060006108ec85612710612359565b9050831561095d57600e5460009061091690869063ffffffff600160201b90910481169061235916565b9050610922838261236c565b600d5490935061093b906001600160701b03168261237a565b600d80546001600160701b0319166001600160701b0392909216919091179055505b82156109d957600e5460009061098590859063ffffffff600160201b90910481169061235916565b9050610991828261236c565b600d549092506109b190600160701b90046001600160701b03168261237a565b600d600e6101000a8154816001600160701b0302191690836001600160701b03160217905550505b600d54600160e01b900463ffffffff166032811415610a4357610a166305f5e100610a106001600160701b038c8116908c16612359565b90612359565b610a208484612359565b1015610a3e5760405162461bcd60e51b81526004016105dd906135f3565b610b19565b600c546001600160a01b03166379c91b37610a696001600160701b038c16612710612359565b610a7e6001600160701b038c16612710612359565b6040516001600160e01b031960e085901b16815260048101929092526024820152604481018690526064810185905263ffffffff8416608482015260a401602060405180830381865afa158015610ad9573d6000803e3d6000fd5b505050506040513d601f19601f82011682018060405250810190610afd9190613615565b610b195760405162461bcd60e51b81526004016105dd906135f3565b505050610b2884848888612397565b60408051838152602081018390529081018c9052606081018b90526001600160a01b038a169033907fd78ad95fa46c994b6551d0da85fc275fe613ce37657fb8d5e3d130840159d8229060800160405180910390a350506001600b55505050505050505050565b6008546001600160701b0380821692600160701b830490911691600160e01b900463ffffffff1690565b6000610bc63384846125ed565b50600192915050565b6000600b54600114610bf35760405162461bcd60e51b81526004016105dd90613462565b6000600b8190556006546001600160a01b038881169116149080808084610c4757600854600e54600d546001600160701b03600160701b8404811693169163ffffffff90811691600160e01b900416610c77565b600854600d54600e546001600160701b0380841693600160701b9004169163ffffffff600160e01b909104811691165b600c54600e54604051630b19210b60e41b81526001600160701b039687169a5094909516975091955093506000926001600160a01b039091169163b19210b091610cdb918e918a918a918a918a91600160201b900463ffffffff1690600401613637565b602060405180830381865afa158015610cf8573d6000803e3d6000fd5b505050506040513d601f19601f82011682018060405250810190610d1c9190613578565b905060008087610d2e57826000610d32565b6000835b91509150610d4182828c61264f565b6001600b559e9d5050505050505050505050505050565b6001600160a01b038316600090815260026020908152604080832033845290915281205460001914610dd7576001600160a01b0384166000908152600260209081526040808320338452909152902054610db2908361236c565b6001600160a01b03851660009081526002602090815260408083203384529091529020555b610de2848484612b8e565b5060019392505050565b600b54600114610e0e5760405162461bcd60e51b81526004016105dd90613462565b6000600b81905560065481906001600160a01b03888116911614610e3457836000610e38565b6000845b915091506000821180610e4b5750600081115b610e675760405162461bcd60e51b81526004016105dd90613489565b6008546001600160701b0380821691600160701b9004168184108015610e955750806001600160701b031683105b610eb15760405162461bcd60e51b81526004016105dd906134ca565b60065460075460009182916001600160a01b03918216919081169089168214801590610eef5750806001600160a01b0316896001600160a01b031614155b610f0b5760405162461bcd60e51b81526004016105dd90613501565b8715610f1c57610f1c828a8a612215565b8615610f2d57610f2d818a89612215565b6040516370a0823160e01b81523060048201526001600160a01b038316906370a0823190602401602060405180830381865afa158015610f71573d6000803e3d6000fd5b505050506040513d601f19601f82011682018060405250810190610f959190613578565b6040516370a0823160e01b81523060048201529094506001600160a01b038216906370a0823190602401602060405180830381865afa158015610fdc573d6000803e3d6000fd5b505050506040513d601f19601f820116820180604052508101906110009190613578565b92505050600086856001600160701b031661101b91906135a7565b8311611028576000611045565b61103b876001600160701b0387166135a7565b61104590846135a7565b9050600061105c876001600160701b0387166135a7565b8311611069576000611086565b61107c876001600160701b0387166135a7565b61108690846135a7565b905060008211806110975750600081115b6110b35760405162461bcd60e51b81526004016105dd906135be565b60006110c185612710612359565b905060006110d185612710612359565b9050831561114257600e546000906110fb90869063ffffffff600160201b90910481169061235916565b9050611107838261236c565b600d54909350611120906001600160701b03168261237a565b600d80546001600160701b0319166001600160701b0392909216919091179055505b82156111be57600e5460009061116a90859063ffffffff600160201b90910481169061235916565b9050611176828261236c565b600d5490925061119690600160701b90046001600160701b03168261237a565b600d600e6101000a8154816001600160701b0302191690836001600160701b03160217905550505b600d54600160e01b900463ffffffff166032811415611222576111f56305f5e100610a106001600160701b038c8116908c16612359565b6111ff8484612359565b101561121d5760405162461bcd60e51b81526004016105dd906135f3565b6112f8565b600c546001600160a01b03166379c91b376112486001600160701b038c16612710612359565b61125d6001600160701b038c16612710612359565b6040516001600160e01b031960e085901b16815260048101929092526024820152604481018690526064810185905263ffffffff8416608482015260a401602060405180830381865afa1580156112b8573d6000803e3d6000fd5b505050506040513d601f19601f820116820180604052508101906112dc9190613615565b6112f85760405162461bcd60e51b81526004016105dd906135f3565b50505061130784848888612397565b6040805183815260208101839052908101899052606081018890526001600160a01b038a169033907fd78ad95fa46c994b6551d0da85fc275fe613ce37657fb8d5e3d130840159d8229060800160405180910390a350506001600b555050505050505050505050565b6000600b546001146113945760405162461bcd60e51b81526004016105dd90613462565b6000600b8190556006546001600160a01b0388811691161490808080846113e857600854600e54600d546001600160701b03600160701b8404811693169163ffffffff90811691600160e01b900416611418565b600854600d54600e546001600160701b0380841693600160701b9004169163ffffffff600160e01b909104811691165b600c54600e5460405163671a11b560e01b81526001600160701b039687169a5094909516975091955093506000926001600160a01b039091169163671a11b591610cdb918e918a918a918a918a91600160201b900463ffffffff1690600401613637565b6000600b546001146114a05760405162461bcd60e51b81526004016105dd90613462565b6000600b819055806114b0610b8f565b506006546040516370a0823160e01b81523060048201529294509092506000916001600160a01b03909116906370a0823190602401602060405180830381865afa158015611502573d6000803e3d6000fd5b505050506040513d601f19601f820116820180604052508101906115269190613578565b6007546040516370a0823160e01b81523060048201529192506000916001600160a01b03909116906370a0823190602401602060405180830381865afa158015611574573d6000803e3d6000fd5b505050506040513d601f19601f820116820180604052508101906115989190613578565b905060006115af836001600160701b03871661236c565b905060006115c6836001600160701b03871661236c565b90506115d28686612c34565b506000548061160d576115f96103e86115f36115ee8686612359565b612ef0565b9061236c565b975061160860006103e8612f60565b611654565b6116516001600160701b0388166116248584612359565b61162e9190613681565b6001600160701b0388166116428585612359565b61164c9190613681565b612fef565b97505b600088116116b05760405162461bcd60e51b8152602060048201526024808201527f5245514c503a20494e53554646494349454e545f4c49515549444954595f4d496044820152631395115160e21b60648201526084016105dd565b6116ba8989612f60565b6116c685858989612397565b604080518481526020810184905233917f4c209b5fc8ad50758f13e2e1088ba56a560dff690a1c6fef26394f4c03821c4f910160405180910390a250506001600b55509395945050505050565b600080600b546001146117385760405162461bcd60e51b81526004016105dd90613462565b6000600b81905580611748610b8f565b506006546007546040516370a0823160e01b81523060048201529395509193506001600160a01b039081169291169060009083906370a0823190602401602060405180830381865afa1580156117a2573d6000803e3d6000fd5b505050506040513d601f19601f820116820180604052508101906117c69190613578565b6040516370a0823160e01b81523060048201529091506000906001600160a01b038416906370a0823190602401602060405180830381865afa158015611810573d6000803e3d6000fd5b505050506040513d601f19601f820116820180604052508101906118349190613578565b306000908152600160205260409020549091506118518787612c34565b50600054806118608386612359565b61186a9190613681565b9950806118778385612359565b6118819190613681565b985060008a1180156118935750600089115b6118eb5760405162461bcd60e51b8152602060048201526024808201527f5245514c503a20494e53554646494349454e545f4c49515549444954595f42556044820152631493915160e21b60648201526084016105dd565b6118f53083613005565b611900868c8c612215565b61190b858c8b612215565b6040516370a0823160e01b81523060048201526001600160a01b038716906370a0823190602401602060405180830381865afa15801561194f573d6000803e3d6000fd5b505050506040513d601f19601f820116820180604052508101906119739190613578565b6040516370a0823160e01b81523060048201529094506001600160a01b038616906370a0823190602401602060405180830381865afa1580156119ba573d6000803e3d6000fd5b505050506040513d601f19601f820116820180604052508101906119de9190613578565b92506119ec84848a8a612397565b604080518b8152602081018b90526001600160a01b038d169133917fdccd412f0b1252819cb1fd330b93224ca42612892bb3f4f789976e6d81936496910160405180910390a350505050505050506001600b81905550915091565b6000610bc6338484612b8e565b600b54600114611a765760405162461bcd60e51b81526004016105dd90613462565b6000600b556006546007546008546040516370a0823160e01b81523060048201526001600160a01b039384169390921691611b119184918691611b0c916001600160701b039091169084906370a08231906024015b602060405180830381865afa158015611ae8573d6000803e3d6000fd5b505050506040513d601f19601f820116820180604052508101906115f39190613578565b612215565b6008546040516370a0823160e01b8152306004820152611b5e9183918691611b0c91600160701b9091046001600160701b0316906001600160a01b038516906370a0823190602401611acb565b50506001600b5550565b60065460009081908190819081906001600160a01b03898116911614611bbb57600854600e54600d546001600160701b03600160701b8404811693169163ffffffff90811691600160e01b900416611beb565b600854600d54600e546001600160701b0380841693600160701b9004169163ffffffff600160e01b909104811691165b600c54600e54604051630b19210b60e41b81526001600160701b039687169a5094909516975091955093506001600160a01b03169163b19210b091611c4b918a918991899189918991600160201b90910463ffffffff1690600401613637565b602060405180830381865afa158015611c68573d6000803e3d6000fd5b505050506040513d601f19601f82011682018060405250810190611c8c9190613578565b98975050505050505050565b6005546001600160a01b03163314611ce55760405162461bcd60e51b815260206004820152601060248201526f2922a8a6281d102327a92124a22222a760811b60448201526064016105dd565b600680546001600160a01b03199081166001600160a01b038781169190911790925560078054909116918516919091179055600d80546001600160e01b0316600160e01b63ffffffff85811682029290921792839055611d489204166064613695565b600e805463ffffffff848116600160201b0267ffffffffffffffff1990921693169290921791909117905560055460408051634b75f54f60e01b815290516001600160a01b0390921691634b75f54f916004818101926020929091908290030181865afa158015611dbd573d6000803e3d6000fd5b505050506040513d601f19601f82011682018060405250810190611de191906136ba565b600c80546001600160a01b0319166001600160a01b039290921691909117905550505050565b42841015611e465760405162461bcd60e51b815260206004820152600c60248201526b1493140e881156141254915160a21b60448201526064016105dd565b6003546001600160a01b038816600090815260046020526040812080549192917f6e71edae12b1b97f4d1f60370fef10105fa2faae0126114a169c64845d6126c9918b918b918b919087611e99836136d7565b909155506040805160208101969096526001600160a01b0394851690860152929091166060840152608083015260a082015260c0810187905260e00160405160208183030381529060405280519060200120604051602001611f1292919061190160f01b81526002810192909252602282015260420190565b60408051601f198184030181528282528051602091820120600080855291840180845281905260ff88169284019290925260608301869052608083018590529092509060019060a0016020604051602081039080840390855afa158015611f7d573d6000803e3d6000fd5b5050604051601f1901519150506001600160a01b03811615801590611fb35750886001600160a01b0316816001600160a01b0316145b611ff85760405162461bcd60e51b8152602060048201526016602482015275524c503a20494e56414c49445f5349474e415455524560501b60448201526064016105dd565b6120038989896125ed565b505050505050505050565b60065460009081908190819081906001600160a01b0389811691161461206157600854600e54600d546001600160701b03600160701b8404811693169163ffffffff90811691600160e01b900416612091565b600854600d54600e546001600160701b0380841693600160701b9004169163ffffffff600160e01b909104811691165b600c54600e5460405163671a11b560e01b81526001600160701b039687169a5094909516975091955093506001600160a01b03169163671a11b591611c4b918a918991899189918991600160201b90910463ffffffff1690600401613637565b600b546001146121135760405162461bcd60e51b81526004016105dd90613462565b6000600b556006546040516370a0823160e01b815230600482015261220e916001600160a01b0316906370a0823190602401602060405180830381865afa158015612162573d6000803e3d6000fd5b505050506040513d601f19601f820116820180604052508101906121869190613578565b6007546040516370a0823160e01b81523060048201526001600160a01b03909116906370a0823190602401602060405180830381865afa1580156121ce573d6000803e3d6000fd5b505050506040513d601f19601f820116820180604052508101906121f29190613578565b6008546001600160701b0380821691600160701b900416612397565b6001600b55565b604080518082018252601981527f7472616e7366657228616464726573732c75696e74323536290000000000000060209182015281516001600160a01b0385811660248301526044808301869052845180840390910181526064909201845291810180516001600160e01b031663a9059cbb60e01b179052915160009283928716916122a191906136f2565b6000604051808303816000865af19150503d80600081146122de576040519150601f19603f3d011682016040523d82523d6000602084013e6122e3565b606091505b509150915081801561230d57508051158061230d57508080602001905181019061230d9190613615565b6123525760405162461bcd60e51b815260206004820152601660248201527514915453140e881514905394d1915497d1905253115160521b60448201526064016105dd565b5050505050565b6000612365828461370e565b9392505050565b60006123658383600161308f565b600080612387838561372d565b90506123658482101560006130b3565b600d54600160e01b900463ffffffff166001600160701b036123ba826064613695565b6123ca9063ffffffff168761370e565b111580156123ee57506001600160701b036123eb63ffffffff83168661370e565b11155b61242c5760405162461bcd60e51b815260206004820152600f60248201526e5245514c503a204f564552464c4f5760881b60448201526064016105dd565b600061243c600160201b42613745565b60085490915060009061245c90600160e01b900463ffffffff1683613695565b905060008163ffffffff1611801561247c57506001600160701b03851615155b801561249057506001600160701b03841615155b156125545760006124a2846064613695565b6124b29063ffffffff1687613759565b905060006124c663ffffffff861687613759565b90508263ffffffff166124eb836124dc846130c5565b6001600160e01b0316906130e4565b6001600160e01b03166124fe919061370e565b6009600082825461250f919061372d565b909155505063ffffffff8316612528826124dc856130c5565b6001600160e01b031661253b919061370e565b600a600082825461254c919061372d565b909155505050505b6008805463ffffffff8416600160e01b026001600160e01b036001600160701b038a8116600160701b9081026001600160e01b03199095168d83161794909417918216831794859055604080519382169282169290921783529290930490911660208201527f1c411e9a96e071241c2f21f7726b17ae89e3cab4c78be50e062b03a9fffbbad1910160405180910390a150505050505050565b6001600160a01b0383811660008181526002602090815260408083209487168084529482529182902085905590518481527f8c5be1e5ebec7d5bd14f71427d1e84f3dd0314c0f7b2291e5b200ac8c7c3b92591015b60405180910390a3505050565b60008084118061265f5750600083115b61267b5760405162461bcd60e51b81526004016105dd90613489565b6008546001600160701b0380821691600160701b90041681861080156126a95750806001600160701b031685105b6126c55760405162461bcd60e51b81526004016105dd906134ca565b60065460075460009182916001600160a01b039182169190811690881682148015906127035750806001600160a01b0316886001600160a01b031614155b61271f5760405162461bcd60e51b81526004016105dd90613501565b89156127305761273082898c612215565b88156127415761274181898b612215565b6040516370a0823160e01b81523060048201526001600160a01b038316906370a0823190602401602060405180830381865afa158015612785573d6000803e3d6000fd5b505050506040513d601f19601f820116820180604052508101906127a99190613578565b6040516370a0823160e01b81523060048201529094506001600160a01b038216906370a0823190602401602060405180830381865afa1580156127f0573d6000803e3d6000fd5b505050506040513d601f19601f820116820180604052508101906128149190613578565b92505050600088856001600160701b031661282f91906135a7565b831161283c576000612859565b61284f896001600160701b0387166135a7565b61285990846135a7565b90506000612870896001600160701b0387166135a7565b831161287d57600061289a565b612890896001600160701b0387166135a7565b61289a90846135a7565b905060008211806128ab5750600081115b6128c75760405162461bcd60e51b81526004016105dd906135be565b60006128d585612710612359565b905060006128e585612710612359565b9050831561295657600e5460009061290f90869063ffffffff600160201b90910481169061235916565b905061291b838261236c565b600d54909350612934906001600160701b03168261237a565b600d80546001600160701b0319166001600160701b0392909216919091179055505b82156129d257600e5460009061297e90859063ffffffff600160201b90910481169061235916565b905061298a828261236c565b600d549092506129aa90600160701b90046001600160701b03168261237a565b600d600e6101000a8154816001600160701b0302191690836001600160701b03160217905550505b600d54600160e01b900463ffffffff166032811415612a3657612a096305f5e100610a106001600160701b038c8116908c16612359565b612a138484612359565b1015612a315760405162461bcd60e51b81526004016105dd906135f3565b612b0c565b600c546001600160a01b03166379c91b37612a5c6001600160701b038c16612710612359565b612a716001600160701b038c16612710612359565b6040516001600160e01b031960e085901b16815260048101929092526024820152604481018690526064810185905263ffffffff8416608482015260a401602060405180830381865afa158015612acc573d6000803e3d6000fd5b505050506040513d601f19601f82011682018060405250810190612af09190613615565b612b0c5760405162461bcd60e51b81526004016105dd906135f3565b505050612b1b84848888612397565b60408051838152602081018390529081018b9052606081018a90526001600160a01b0389169033907fd78ad95fa46c994b6551d0da85fc275fe613ce37657fb8d5e3d130840159d8229060800160405180910390a360008a11612b7e5788612b80565b895b9a9950505050505050505050565b6001600160a01b038316600090815260016020526040902054612bb1908261236c565b6001600160a01b038085166000908152600160205260408082209390935590841681522054612be0908261237a565b6001600160a01b0380841660008181526001602052604090819020939093559151908516907fddf252ad1be2c89b69c2b068fc378daa952ba7f163c4a11628f55a4df523b3ef906126429085815260200190565b600080600560009054906101000a90046001600160a01b03166001600160a01b031663017e7e586040518163ffffffff1660e01b8152600401602060405180830381865afa158015612c8a573d6000803e3d6000fd5b505050506040513d601f19601f82011682018060405250810190612cae91906136ba565b90506000600560009054906101000a90046001600160a01b03166001600160a01b031663b0e21e8a6040518163ffffffff1660e01b8152600401602060405180830381865afa158015612d05573d6000803e3d6000fd5b505050506040513d601f19601f82011682018060405250810190612d299190613578565b6001600160a01b038316151593509050600080612d5a600d546001600160701b0380821692600160701b9092041690565b915091506000836001600160701b0316118015612d745750845b8015612d9c57506000826001600160701b03161180612d9c57506000816001600160701b0316115b15612e9c57600d54600c5460008054600160e01b90930463ffffffff169290916001600160a01b0316906392aec23c908b8b86612dda816064613695565b612de48c8c613788565b612dee8d8c613788565b6040516001600160e01b031960e08a901b16815260048101979097526001600160701b039586166024880152938516604487015263ffffffff928316606487015291166084850152821660a48401521660c482015260e401602060405180830381865afa158015612e63573d6000803e3d6000fd5b505050506040513d601f19601f82011682018060405250810190612e879190613578565b90508015612e9957612e998682612f60565b50505b6001600160701b03821615612ebc57600d80546001600160701b03191690555b6001600160701b03811615612ee657600d80546dffffffffffffffffffffffffffff60701b191690555b5050505092915050565b60006003821115612f515750806000612f0a600283613681565b612f1590600161372d565b90505b81811015612f4b57905080600281612f308186613681565b612f3a919061372d565b612f449190613681565b9050612f18565b50919050565b8115612f5b575060015b919050565b600054612f6d908261237a565b60009081556001600160a01b038316815260016020526040902054612f92908261237a565b6001600160a01b0383166000818152600160205260408082209390935591519091907fddf252ad1be2c89b69c2b068fc378daa952ba7f163c4a11628f55a4df523b3ef90612fe39085815260200190565b60405180910390a35050565b6000818310612ffe5781612365565b5090919050565b6001600160a01b038216600090815260016020526040902054613028908261236c565b6001600160a01b0383166000908152600160205260408120919091555461304f908261236c565b60009081556040518281526001600160a01b038416907fddf252ad1be2c89b69c2b068fc378daa952ba7f163c4a11628f55a4df523b3ef90602001612fe3565b600061309e84841115836130b3565b60006130aa84866135a7565b95945050505050565b816130c1576130c1816130f9565b5050565b60006130de600160701b6001600160701b0384166137ae565b92915050565b60006123656001600160701b038316846137d4565b62461bcd60e51b6000908152602060045260076024526652455123000030600a808404818106603090810160081b95839006959095019082900491820690940160101b939093010160c81b604452606490fd5b6001600160a01b038116811461316157600080fd5b50565b60008060008060006080868803121561317c57600080fd5b853594506020860135935060408601356131958161314c565b9250606086013567ffffffffffffffff808211156131b257600080fd5b818801915088601f8301126131c657600080fd5b8135818111156131d557600080fd5b8960208285010111156131e757600080fd5b9699959850939650602001949392505050565b60005b838110156132155781810151838201526020016131fd565b83811115613224576000848401525b50505050565b60208152600082518060208401526132498160408501602087016131fa565b601f01601f19169190910160400192915050565b6000806040838503121561327057600080fd5b823561327b8161314c565b946020939093013593505050565b600080600080600060a086880312156132a157600080fd5b85356132ac8161314c565b945060208601356132bc8161314c565b9350604086013592506060860135915060808601356132da8161314c565b809150509295509295909350565b6000806000606084860312156132fd57600080fd5b83356133088161314c565b925060208401356133188161314c565b929592945050506040919091013590565b60006020828403121561333b57600080fd5b81356123658161314c565b803563ffffffff81168114612f5b57600080fd5b6000806000806080858703121561337057600080fd5b843561337b8161314c565b9350602085013561338b8161314c565b925061339960408601613346565b91506133a760608601613346565b905092959194509250565b600080600080600080600060e0888a0312156133cd57600080fd5b87356133d88161314c565b965060208801356133e88161314c565b95506040880135945060608801359350608088013560ff8116811461340c57600080fd5b9699959850939692959460a0840135945060c09093013592915050565b6000806040838503121561343c57600080fd5b82356134478161314c565b915060208301356134578161314c565b809150509250929050565b6020808252600d908201526c14915453140e881313d0d2d151609a1b604082015260600190565b60208082526021908201527f5245514c503a20494e53554646494349454e545f4f55545055545f414d4f554e6040820152601560fa1b606082015260800190565b6020808252601d908201527f5245514c503a20494e53554646494349454e545f4c4951554944495459000000604082015260600190565b6020808252601190820152705245514c503a20494e56414c49445f544f60781b604082015260600190565b60018060a01b038616815284602082015283604082015260806060820152816080820152818360a0830137600081830160a090810191909152601f909201601f19160101949350505050565b60006020828403121561358a57600080fd5b5051919050565b634e487b7160e01b600052601160045260246000fd5b6000828210156135b9576135b9613591565b500390565b6020808252818101527f5245514c503a20494e53554646494349454e545f494e5055545f414d4f554e54604082015260600190565b6020808252600890820152675245514c503a204b60c01b604082015260600190565b60006020828403121561362757600080fd5b8151801515811461236557600080fd5b9586526020860194909452604085019290925263ffffffff908116606085015290811660808401521660a082015260c00190565b634e487b7160e01b600052601260045260246000fd5b6000826136905761369061366b565b500490565b600063ffffffff838116908316818110156136b2576136b2613591565b039392505050565b6000602082840312156136cc57600080fd5b81516123658161314c565b60006000198214156136eb576136eb613591565b5060010190565b600082516137048184602087016131fa565b9190910192915050565b600081600019048311821515161561372857613728613591565b500290565b6000821982111561374057613740613591565b500190565b6000826137545761375461366b565b500690565b60006001600160701b038083168185168183048111821515161561377f5761377f613591565b02949350505050565b60006001600160701b03808416806137a2576137a261366b565b92169190910492915050565b60006001600160e01b038281168482168115158284048211161561377f5761377f613591565b60006001600160e01b03838116806137a2576137a261366b56fea2646970667358221220e613fdd3871f4bab64904fad36a818149c01df48a2ff8d3b92b5e4b11d55e2c464736f6c634300080a0033a2646970667358221220f9ab6335fea81ae0d371083112d9a8100a62ddbe97a51d0c61a44a41f4f1431b64736f6c634300080a0033",
  "devdoc": {
    "kind": "dev",
    "methods": {},
    "version": 1
  },
  "userdoc": {
    "kind": "user",
    "methods": {},
    "version": 1
  },
  "storageLayout": {
    "storage": [
      {
        "astId": 4304,
        "contract": "contracts/test/RequiemFactory_flat.sol:RequiemFactory",
        "label": "feeTo",
        "offset": 0,
        "slot": "0",
        "type": "t_address"
      },
      {
        "astId": 4306,
        "contract": "contracts/test/RequiemFactory_flat.sol:RequiemFactory",
        "label": "formula",
        "offset": 0,
        "slot": "1",
        "type": "t_address"
      },
      {
        "astId": 4308,
        "contract": "contracts/test/RequiemFactory_flat.sol:RequiemFactory",
        "label": "protocolFee",
        "offset": 0,
        "slot": "2",
        "type": "t_uint256"
      },
      {
        "astId": 4310,
        "contract": "contracts/test/RequiemFactory_flat.sol:RequiemFactory",
        "label": "feeToSetter",
        "offset": 0,
        "slot": "3",
        "type": "t_address"
      },
      {
        "astId": 4325,
        "contract": "contracts/test/RequiemFactory_flat.sol:RequiemFactory",
        "label": "_pairSalts",
        "offset": 0,
        "slot": "4",
        "type": "t_mapping(t_bytes32,t_address)"
      },
      {
        "astId": 4328,
        "contract": "contracts/test/RequiemFactory_flat.sol:RequiemFactory",
        "label": "allPairs",
        "offset": 0,
        "slot": "5",
        "type": "t_array(t_address)dyn_storage"
      },
      {
        "astId": 4332,
        "contract": "contracts/test/RequiemFactory_flat.sol:RequiemFactory",
        "label": "_pairs",
        "offset": 0,
        "slot": "6",
        "type": "t_mapping(t_address,t_uint64)"
      }
    ],
    "types": {
      "t_address": {
        "encoding": "inplace",
        "label": "address",
        "numberOfBytes": "20"
      },
      "t_array(t_address)dyn_storage": {
        "base": "t_address",
        "encoding": "dynamic_array",
        "label": "address[]",
        "numberOfBytes": "32"
      },
      "t_bytes32": {
        "encoding": "inplace",
        "label": "bytes32",
        "numberOfBytes": "32"
      },
      "t_mapping(t_address,t_uint64)": {
        "encoding": "mapping",
        "key": "t_address",
        "label": "mapping(address => uint64)",
        "numberOfBytes": "32",
        "value": "t_uint64"
      },
      "t_mapping(t_bytes32,t_address)": {
        "encoding": "mapping",
        "key": "t_bytes32",
        "label": "mapping(bytes32 => address)",
        "numberOfBytes": "32",
        "value": "t_address"
      },
      "t_uint256": {
        "encoding": "inplace",
        "label": "uint256",
        "numberOfBytes": "32"
      },
      "t_uint64": {
        "encoding": "inplace",
        "label": "uint64",
        "numberOfBytes": "8"
      }
    }
  }
}