{
  "address": "0xc6e7DF5E7b4f2A278906862b61205850344D4e7d",
  "abi": [
    {
      "inputs": [],
      "stateMutability": "nonpayable",
      "type": "constructor"
    },
    {
      "anonymous": false,
      "inputs": [
        {
          "indexed": true,
          "internalType": "address",
          "name": "owner",
          "type": "address"
        },
        {
          "indexed": true,
          "internalType": "address",
          "name": "spender",
          "type": "address"
        },
        {
          "indexed": false,
          "internalType": "uint256",
          "name": "value",
          "type": "uint256"
        }
      ],
      "name": "Approval",
      "type": "event"
    },
    {
      "anonymous": false,
      "inputs": [
        {
          "indexed": true,
          "internalType": "uint256",
          "name": "epoch",
          "type": "uint256"
        },
        {
          "indexed": false,
          "internalType": "uint256",
          "name": "rebase",
          "type": "uint256"
        },
        {
          "indexed": false,
          "internalType": "uint256",
          "name": "index",
          "type": "uint256"
        }
      ],
      "name": "LogRebase",
      "type": "event"
    },
    {
      "anonymous": false,
      "inputs": [
        {
          "indexed": false,
          "internalType": "address",
          "name": "stakingContract",
          "type": "address"
        }
      ],
      "name": "LogStakingContractUpdated",
      "type": "event"
    },
    {
      "anonymous": false,
      "inputs": [
        {
          "indexed": true,
          "internalType": "uint256",
          "name": "epoch",
          "type": "uint256"
        },
        {
          "indexed": false,
          "internalType": "uint256",
          "name": "timestamp",
          "type": "uint256"
        },
        {
          "indexed": false,
          "internalType": "uint256",
          "name": "_totalSupply",
          "type": "uint256"
        }
      ],
      "name": "LogSupply",
      "type": "event"
    },
    {
      "anonymous": false,
      "inputs": [
        {
          "indexed": true,
          "internalType": "address",
          "name": "previousOwner",
          "type": "address"
        },
        {
          "indexed": true,
          "internalType": "address",
          "name": "newOwner",
          "type": "address"
        }
      ],
      "name": "OwnershipPulled",
      "type": "event"
    },
    {
      "anonymous": false,
      "inputs": [
        {
          "indexed": true,
          "internalType": "address",
          "name": "previousOwner",
          "type": "address"
        },
        {
          "indexed": true,
          "internalType": "address",
          "name": "newOwner",
          "type": "address"
        }
      ],
      "name": "OwnershipPushed",
      "type": "event"
    },
    {
      "anonymous": false,
      "inputs": [
        {
          "indexed": true,
          "internalType": "address",
          "name": "from",
          "type": "address"
        },
        {
          "indexed": true,
          "internalType": "address",
          "name": "to",
          "type": "address"
        },
        {
          "indexed": false,
          "internalType": "uint256",
          "name": "value",
          "type": "uint256"
        }
      ],
      "name": "Transfer",
      "type": "event"
    },
    {
      "inputs": [],
      "name": "DOMAIN_SEPARATOR",
      "outputs": [
        {
          "internalType": "bytes32",
          "name": "",
          "type": "bytes32"
        }
      ],
      "stateMutability": "view",
      "type": "function"
    },
    {
      "inputs": [],
      "name": "INDEX",
      "outputs": [
        {
          "internalType": "uint256",
          "name": "",
          "type": "uint256"
        }
      ],
      "stateMutability": "view",
      "type": "function"
    },
    {
      "inputs": [
        {
          "internalType": "address",
          "name": "owner_",
          "type": "address"
        },
        {
          "internalType": "address",
          "name": "spender",
          "type": "address"
        }
      ],
      "name": "allowance",
      "outputs": [
        {
          "internalType": "uint256",
          "name": "",
          "type": "uint256"
        }
      ],
      "stateMutability": "view",
      "type": "function"
    },
    {
      "inputs": [
        {
          "internalType": "address",
          "name": "spender",
          "type": "address"
        },
        {
          "internalType": "uint256",
          "name": "value",
          "type": "uint256"
        }
      ],
      "name": "approve",
      "outputs": [
        {
          "internalType": "bool",
          "name": "",
          "type": "bool"
        }
      ],
      "stateMutability": "nonpayable",
      "type": "function"
    },
    {
      "inputs": [
        {
          "internalType": "uint256",
          "name": "gons",
          "type": "uint256"
        }
      ],
      "name": "balanceForGons",
      "outputs": [
        {
          "internalType": "uint256",
          "name": "",
          "type": "uint256"
        }
      ],
      "stateMutability": "view",
      "type": "function"
    },
    {
      "inputs": [
        {
          "internalType": "address",
          "name": "who",
          "type": "address"
        }
      ],
      "name": "balanceOf",
      "outputs": [
        {
          "internalType": "uint256",
          "name": "",
          "type": "uint256"
        }
      ],
      "stateMutability": "view",
      "type": "function"
    },
    {
      "inputs": [],
      "name": "circulatingSupply",
      "outputs": [
        {
          "internalType": "uint256",
          "name": "",
          "type": "uint256"
        }
      ],
      "stateMutability": "view",
      "type": "function"
    },
    {
      "inputs": [],
      "name": "decimals",
      "outputs": [
        {
          "internalType": "uint8",
          "name": "",
          "type": "uint8"
        }
      ],
      "stateMutability": "view",
      "type": "function"
    },
    {
      "inputs": [
        {
          "internalType": "address",
          "name": "spender",
          "type": "address"
        },
        {
          "internalType": "uint256",
          "name": "subtractedValue",
          "type": "uint256"
        }
      ],
      "name": "decreaseAllowance",
      "outputs": [
        {
          "internalType": "bool",
          "name": "",
          "type": "bool"
        }
      ],
      "stateMutability": "nonpayable",
      "type": "function"
    },
    {
      "inputs": [
        {
          "internalType": "uint256",
          "name": "amount",
          "type": "uint256"
        }
      ],
      "name": "gonsForBalance",
      "outputs": [
        {
          "internalType": "uint256",
          "name": "",
          "type": "uint256"
        }
      ],
      "stateMutability": "view",
      "type": "function"
    },
    {
      "inputs": [
        {
          "internalType": "address",
          "name": "spender",
          "type": "address"
        },
        {
          "internalType": "uint256",
          "name": "addedValue",
          "type": "uint256"
        }
      ],
      "name": "increaseAllowance",
      "outputs": [
        {
          "internalType": "bool",
          "name": "",
          "type": "bool"
        }
      ],
      "stateMutability": "nonpayable",
      "type": "function"
    },
    {
      "inputs": [],
      "name": "index",
      "outputs": [
        {
          "internalType": "uint256",
          "name": "",
          "type": "uint256"
        }
      ],
      "stateMutability": "view",
      "type": "function"
    },
    {
      "inputs": [
        {
          "internalType": "address",
          "name": "stakingContract_",
          "type": "address"
        }
      ],
      "name": "initialize",
      "outputs": [
        {
          "internalType": "bool",
          "name": "",
          "type": "bool"
        }
      ],
      "stateMutability": "nonpayable",
      "type": "function"
    },
    {
      "inputs": [],
      "name": "initializer",
      "outputs": [
        {
          "internalType": "address",
          "name": "",
          "type": "address"
        }
      ],
      "stateMutability": "view",
      "type": "function"
    },
    {
      "inputs": [],
      "name": "name",
      "outputs": [
        {
          "internalType": "string",
          "name": "",
          "type": "string"
        }
      ],
      "stateMutability": "view",
      "type": "function"
    },
    {
      "inputs": [
        {
          "internalType": "address",
          "name": "owner",
          "type": "address"
        }
      ],
      "name": "nonces",
      "outputs": [
        {
          "internalType": "uint256",
          "name": "",
          "type": "uint256"
        }
      ],
      "stateMutability": "view",
      "type": "function"
    },
    {
      "inputs": [
        {
          "internalType": "address",
          "name": "owner",
          "type": "address"
        },
        {
          "internalType": "address",
          "name": "spender",
          "type": "address"
        },
        {
          "internalType": "uint256",
          "name": "value",
          "type": "uint256"
        },
        {
          "internalType": "uint256",
          "name": "deadline",
          "type": "uint256"
        },
        {
          "internalType": "uint8",
          "name": "v",
          "type": "uint8"
        },
        {
          "internalType": "bytes32",
          "name": "r",
          "type": "bytes32"
        },
        {
          "internalType": "bytes32",
          "name": "s",
          "type": "bytes32"
        }
      ],
      "name": "permit",
      "outputs": [],
      "stateMutability": "nonpayable",
      "type": "function"
    },
    {
      "inputs": [],
      "name": "policy",
      "outputs": [
        {
          "internalType": "address",
          "name": "",
          "type": "address"
        }
      ],
      "stateMutability": "view",
      "type": "function"
    },
    {
      "inputs": [],
      "name": "pullManagement",
      "outputs": [],
      "stateMutability": "nonpayable",
      "type": "function"
    },
    {
      "inputs": [
        {
          "internalType": "address",
          "name": "newOwner_",
          "type": "address"
        }
      ],
      "name": "pushManagement",
      "outputs": [],
      "stateMutability": "nonpayable",
      "type": "function"
    },
    {
      "inputs": [
        {
          "internalType": "uint256",
          "name": "profit_",
          "type": "uint256"
        },
        {
          "internalType": "uint256",
          "name": "epoch_",
          "type": "uint256"
        }
      ],
      "name": "rebase",
      "outputs": [
        {
          "internalType": "uint256",
          "name": "",
          "type": "uint256"
        }
      ],
      "stateMutability": "nonpayable",
      "type": "function"
    },
    {
      "inputs": [
        {
          "internalType": "uint256",
          "name": "",
          "type": "uint256"
        }
      ],
      "name": "rebases",
      "outputs": [
        {
          "internalType": "uint256",
          "name": "epoch",
          "type": "uint256"
        },
        {
          "internalType": "uint256",
          "name": "rebase",
          "type": "uint256"
        },
        {
          "internalType": "uint256",
          "name": "totalStakedBefore",
          "type": "uint256"
        },
        {
          "internalType": "uint256",
          "name": "totalStakedAfter",
          "type": "uint256"
        },
        {
          "internalType": "uint256",
          "name": "amountRebased",
          "type": "uint256"
        },
        {
          "internalType": "uint256",
          "name": "index",
          "type": "uint256"
        },
        {
          "internalType": "uint256",
          "name": "blockNumberOccured",
          "type": "uint256"
        }
      ],
      "stateMutability": "view",
      "type": "function"
    },
    {
      "inputs": [],
      "name": "renounceManagement",
      "outputs": [],
      "stateMutability": "nonpayable",
      "type": "function"
    },
    {
      "inputs": [
        {
          "internalType": "uint256",
          "name": "_INDEX",
          "type": "uint256"
        }
      ],
      "name": "setIndex",
      "outputs": [
        {
          "internalType": "bool",
          "name": "",
          "type": "bool"
        }
      ],
      "stateMutability": "nonpayable",
      "type": "function"
    },
    {
      "inputs": [],
      "name": "stakingContract",
      "outputs": [
        {
          "internalType": "address",
          "name": "",
          "type": "address"
        }
      ],
      "stateMutability": "view",
      "type": "function"
    },
    {
      "inputs": [],
      "name": "symbol",
      "outputs": [
        {
          "internalType": "string",
          "name": "",
          "type": "string"
        }
      ],
      "stateMutability": "view",
      "type": "function"
    },
    {
      "inputs": [],
      "name": "totalSupply",
      "outputs": [
        {
          "internalType": "uint256",
          "name": "",
          "type": "uint256"
        }
      ],
      "stateMutability": "view",
      "type": "function"
    },
    {
      "inputs": [
        {
          "internalType": "address",
          "name": "to",
          "type": "address"
        },
        {
          "internalType": "uint256",
          "name": "value",
          "type": "uint256"
        }
      ],
      "name": "transfer",
      "outputs": [
        {
          "internalType": "bool",
          "name": "",
          "type": "bool"
        }
      ],
      "stateMutability": "nonpayable",
      "type": "function"
    },
    {
      "inputs": [
        {
          "internalType": "address",
          "name": "from",
          "type": "address"
        },
        {
          "internalType": "address",
          "name": "to",
          "type": "address"
        },
        {
          "internalType": "uint256",
          "name": "value",
          "type": "uint256"
        }
      ],
      "name": "transferFrom",
      "outputs": [
        {
          "internalType": "bool",
          "name": "",
          "type": "bool"
        }
      ],
      "stateMutability": "nonpayable",
      "type": "function"
    }
  ],
  "transactionHash": "0x0ead0bfd7a44be7d6b668a05342b65dec6bc4f7fc66cb610fc82642d892300d0",
  "args": [],
  "solcInputHash": "bd6a513f9e3e575f476f3ca3926dc253",
  "bytecode": "0x6101006040527f6e71edae12b1b97f4d1f60370fef10105fa2faae0126114a169c64845d6126c960e0523480156200003657600080fd5b50604051806040016040528060058152602001641cd491545560da1b81525080604051806040016040528060018152602001603160f81b8152506040518060400160405280600e81526020016d5374616b6564205265717569656d60901b815250604051806040016040528060058152602001641cd491545560da1b81525060098260039080519060200190620000cf929190620001c5565b508151620000e5906004906020850190620001c5565b506005805460ff90921660ff1990921691909117905550508151602092830120608052805191012060a052507f8b73c3c69bb8fe3d512ecc4cf759cc79239f7b179b0ffacaa9a75d522b39400f60c052600780546001600160a01b031916339081179091556040516000907fea8258f2d9ddb679928cf34b78cf645b7feda9acc828e4dd82d014eaae270eba908290a3600a80546001600160a01b031916331790556611c37937e080006002819055620001a28160001962000281565b620001b09060001962000298565b620001bc9190620002be565b600d5562000312565b828054620001d390620002d5565b90600052602060002090601f016020900481019282620001f7576000855562000242565b82601f106200021257805160ff191683800117855562000242565b8280016001018555821562000242579182015b828111156200024257825182559160200191906001019062000225565b506200025092915062000254565b5090565b5b8082111562000250576000815560010162000255565b634e487b7160e01b600052601260045260246000fd5b6000826200029357620002936200026b565b500690565b600082821015620002b957634e487b7160e01b600052601160045260246000fd5b500390565b600082620002d057620002d06200026b565b500490565b600181811c90821680620002ea57607f821691505b602082108114156200030c57634e487b7160e01b600052602260045260246000fd5b50919050565b60805160a05160c05160e0516116046200034c6000396000610ec70152600061118f015260006111d1015260006111b001526116046000f3fe608060405234801561001057600080fd5b50600436106101cf5760003560e01c806346f68ee91161010457806395d89b41116100a2578063c4d66de811610071578063c4d66de8146103de578063d505accf146103f1578063dd62ed3e14610404578063ee99205c1461043d57600080fd5b806395d89b411461039d5780639ce110d7146103a5578063a457c2d7146103b8578063a9059cbb146103cb57600080fd5b806373c69eb7116100de57806373c69eb7146103115780637965d56d146103595780637ecebe001461036c5780639358928b1461039557600080fd5b806346f68ee9146102e35780635a96ac0a146102f657806370a08231146102fe57600080fd5b806323b872dd11610171578063313ce5671161014b578063313ce567146102a05780633644e515146102b557806339509351146102bd57806340a5737f146102d057600080fd5b806323b872dd1461027c5780632986c0e51461028f5780632df75cb11461029757600080fd5b8063089208d8116101ad578063089208d814610234578063095ea7b31461023e57806318160ddd146102615780631bd396741461026957600080fd5b80630505c8c9146101d4578063058ecdb4146101fe57806306fdde031461021f575b600080fd5b6007546001600160a01b03165b6040516001600160a01b0390911681526020015b60405180910390f35b61021161020c3660046112c7565b610450565b6040519081526020016101f5565b6102276105b1565b6040516101f591906112e9565b61023c610643565b005b61025161024c366004611355565b6106c0565b60405190151581526020016101f5565b600254610211565b61021161027736600461137f565b61071a565b61025161028a366004611398565b61072a565b610211610875565b610211600c5481565b60055460405160ff90911681526020016101f5565b610211610887565b6102516102cb366004611355565b610891565b6102516102de36600461137f565b610910565b61023c6102f13660046113d4565b61095f565b61023c610a4a565b61021161030c3660046113d4565b610b12565b61032461031f36600461137f565b610b39565b604080519788526020880196909652948601939093526060850191909152608084015260a083015260c082015260e0016101f5565b61021161036736600461137f565b610b8b565b61021161037a3660046113d4565b6001600160a01b031660009081526006602052604090205490565b610211610b9b565b610227610bc0565b600a546101e1906001600160a01b031681565b6102516103c6366004611355565b610bcf565b6102516103d9366004611355565b610ca5565b6102516103ec3660046113d4565b610d49565b61023c6103ff3660046113f6565b610e65565b610211610412366004611469565b6001600160a01b039182166000908152600f6020908152604080832093909416825291909152205490565b6009546101e1906001600160a01b031681565b6009546000906001600160a01b0316331461046a57600080fd5b600080610475610b9b565b90508461051157837f917acfbe39be6509ccf7fecb66a7e42ce2be1083c2d7dd3b9b7491dabddb8da4426002546040516104b9929190918252602082015260400190565b60405180910390a2837f6012dbce857565c4a40974aa5de8373a761fc429077ef0c8c8611d1e20d63fb260006104ed610875565b6040805192835260208301919091520160405180910390a2600254925050506105ab565b801561053757806002548661052691906114b2565b61053091906114e7565b915061053b565b8491505b8160025461054991906114fb565b60028190556001600160801b031015610568576001600160801b036002555b60025461057e6611c37937e08000600019611513565b61058a90600019611527565b61059491906114e7565b600d556105a281868661103c565b50600254925050505b92915050565b6060600380546105c09061153e565b80601f01602080910402602001604051908101604052809291908181526020018280546105ec9061153e565b80156106395780601f1061060e57610100808354040283529160200191610639565b820191906000526020600020905b81548152906001019060200180831161061c57829003601f168201915b5050505050905090565b6007546001600160a01b031633146106765760405162461bcd60e51b815260040161066d90611579565b60405180910390fd5b6007546040516000916001600160a01b0316907fea8258f2d9ddb679928cf34b78cf645b7feda9acc828e4dd82d014eaae270eba908390a3600780546001600160a01b0319169055565b336000818152600f602090815260408083206001600160a01b038716808552925280832085905551919290916000805160206115af833981519152906107099086815260200190565b60405180910390a350600192915050565b6000600d54826105ab91906114b2565b6001600160a01b0383166000908152600f6020908152604080832033845290915281208054839190839061075f908490611527565b90915550506001600160a01b0384166000818152600f6020908152604080832033808552908352928190205490519081529192916000805160206115af833981519152910160405180910390a360006107b78361071a565b6001600160a01b0386166000908152600e60205260409020549091506107de908290611527565b6001600160a01b038087166000908152600e6020526040808220939093559086168152205461080e9082906114fb565b6001600160a01b038086166000818152600e602052604090819020939093559151908716907fddf252ad1be2c89b69c2b068fc378daa952ba7f163c4a11628f55a4df523b3ef906108629087815260200190565b60405180910390a3506001949350505050565b6000610882600c54610b8b565b905090565b600061088261118b565b336000908152600f602090815260408083206001600160a01b03861684529091528120805483919083906108c69084906114fb565b9091555050336000818152600f602090815260408083206001600160a01b038816808552908352928190205490519081529192916000805160206115af8339815191529101610709565b6007546000906001600160a01b0316331461093d5760405162461bcd60e51b815260040161066d90611579565b600c541561094a57600080fd5b6109538261071a565b600c555060015b919050565b6007546001600160a01b031633146109895760405162461bcd60e51b815260040161066d90611579565b6001600160a01b0381166109ee5760405162461bcd60e51b815260206004820152602660248201527f4f776e61626c653a206e6577206f776e657220697320746865207a65726f206160448201526564647265737360d01b606482015260840161066d565b6007546040516001600160a01b038084169216907fea8258f2d9ddb679928cf34b78cf645b7feda9acc828e4dd82d014eaae270eba90600090a3600880546001600160a01b0319166001600160a01b0392909216919091179055565b6008546001600160a01b03163314610aaf5760405162461bcd60e51b815260206004820152602260248201527f4f776e61626c653a206d757374206265206e6577206f776e657220746f2070756044820152611b1b60f21b606482015260840161066d565b6008546007546040516001600160a01b0392831692909116907faa151555690c956fc3ea32f106bb9f119b5237a061eaa8557cff3e51e3792c8d90600090a3600854600780546001600160a01b0319166001600160a01b03909216919091179055565b600d546001600160a01b0382166000908152600e602052604081205490916105ab916114e7565b600b8181548110610b4957600080fd5b90600052602060002090600702016000915090508060000154908060010154908060020154908060030154908060040154908060050154908060060154905087565b6000600d54826105ab91906114e7565b600954600090610bb3906001600160a01b0316610b12565b6002546108829190611527565b6060600480546105c09061153e565b336000908152600f602090815260408083206001600160a01b0386168452909152812054808310610c2357336000908152600f602090815260408083206001600160a01b0388168452909152812055610c52565b610c2d8382611527565b336000908152600f602090815260408083206001600160a01b03891684529091529020555b336000818152600f602090815260408083206001600160a01b038916808552908352928190205490519081529192916000805160206115af83398151915291015b60405180910390a35060019392505050565b600080600d5483610cb691906114b2565b336000908152600e6020526040812080549293508392909190610cda908490611527565b90915550506001600160a01b0384166000908152600e602052604081208054839290610d079084906114fb565b90915550506040518381526001600160a01b0385169033907fddf252ad1be2c89b69c2b068fc378daa952ba7f163c4a11628f55a4df523b3ef90602001610c93565b600a546000906001600160a01b03163314610d6357600080fd5b6001600160a01b038216610d7657600080fd5b600980546001600160a01b0319166001600160a01b038416179055610da46611c37937e08000600019611513565b610db090600019611527565b600980546001600160a01b039081166000908152600e602052604080822094909455915460025493519116927fddf252ad1be2c89b69c2b068fc378daa952ba7f163c4a11628f55a4df523b3ef91610e0a91815260200190565b60405180910390a36040516001600160a01b03831681527f817c653428858ed536dc085c5d8273734c517b55de44b55f5c5877a75e3373a19060200160405180910390a15050600a80546001600160a01b0319169055600190565b83421115610ea65760405162461bcd60e51b815260206004820152600e60248201526d1156141254915117d4115493525560921b604482015260640161066d565b6001600160a01b0387811660008181526006602090815260408083205481517f00000000000000000000000000000000000000000000000000000000000000008185015280830195909552948b166060850152608084018a905260a0840185905260c08085018a90528151808603909101815260e09094019052825192019190912090610f3282611231565b6040805160008082526020820180845284905260ff8a169282019290925260608101889052608081018790529192509060019060a0016020604051602081039080840390855afa158015610f8a573d6000803e3d6000fd5b5050604051601f1901519150506001600160a01b03811615801590610fc057508a6001600160a01b0316816001600160a01b0316145b6110005760405162461bcd60e51b8152602060048201526011602482015270494e56414c49445f5349474e415455524560781b604482015260640161066d565b61100b8460016114fb565b6001600160a01b038c1660009081526006602052604090205561102f8b8b8b611278565b5050505050505050505050565b6000808461105285670de0b6b3a76400006114b2565b61105c91906114e7565b9050600b6040518060e00160405280858152602001838152602001878152602001611085610b9b565b8152602001868152602001611098610875565b81524360209182015282546001808201855560009485529382902083516007909202019081558282015193810193909355604080830151600280860191909155606084015160038601556080840151600486015560a0840151600586015560c090930151600690940193909355905482514281529182015284917f917acfbe39be6509ccf7fecb66a7e42ce2be1083c2d7dd3b9b7491dabddb8da4910160405180910390a2827f6012dbce857565c4a40974aa5de8373a761fc429077ef0c8c8611d1e20d63fb282611168610875565b6040805192835260208301919091520160405180910390a2506001949350505050565b60007f00000000000000000000000000000000000000000000000000000000000000007f00000000000000000000000000000000000000000000000000000000000000007f000000000000000000000000000000000000000000000000000000000000000046604080516020810195909552840192909252606083015260808201523060a082015260c00160405160208183030381529060405280519060200120905090565b600061123b61118b565b60405161190160f01b6020820152602281019190915260428101839052606201604051602081830303815290604052805190602001209050919050565b6001600160a01b038381166000818152600f602090815260408083209487168084529482529182902085905590518481526000805160206115af833981519152910160405180910390a3505050565b600080604083850312156112da57600080fd5b50508035926020909101359150565b600060208083528351808285015260005b81811015611316578581018301518582016040015282016112fa565b81811115611328576000604083870101525b50601f01601f1916929092016040019392505050565b80356001600160a01b038116811461095a57600080fd5b6000806040838503121561136857600080fd5b6113718361133e565b946020939093013593505050565b60006020828403121561139157600080fd5b5035919050565b6000806000606084860312156113ad57600080fd5b6113b68461133e565b92506113c46020850161133e565b9150604084013590509250925092565b6000602082840312156113e657600080fd5b6113ef8261133e565b9392505050565b600080600080600080600060e0888a03121561141157600080fd5b61141a8861133e565b96506114286020890161133e565b95506040880135945060608801359350608088013560ff8116811461144c57600080fd5b9699959850939692959460a0840135945060c09093013592915050565b6000806040838503121561147c57600080fd5b6114858361133e565b91506114936020840161133e565b90509250929050565b634e487b7160e01b600052601160045260246000fd5b60008160001904831182151516156114cc576114cc61149c565b500290565b634e487b7160e01b600052601260045260246000fd5b6000826114f6576114f66114d1565b500490565b6000821982111561150e5761150e61149c565b500190565b600082611522576115226114d1565b500690565b6000828210156115395761153961149c565b500390565b600181811c9082168061155257607f821691505b6020821081141561157357634e487b7160e01b600052602260045260246000fd5b50919050565b6020808252818101527f4f776e61626c653a2063616c6c6572206973206e6f7420746865206f776e657260408201526060019056fe8c5be1e5ebec7d5bd14f71427d1e84f3dd0314c0f7b2291e5b200ac8c7c3b925a264697066735822122070128da2df99a9c7afca064efeaab8c8e86c587ed8c7dbf591c4315ec74dd1da64736f6c634300080b0033",
  "devdoc": {
    "kind": "dev",
    "methods": {
      "DOMAIN_SEPARATOR()": {
        "details": "See {IERC20Permit-DOMAIN_SEPARATOR}."
      },
      "decimals()": {
        "details": "Returns the number of decimals used to get its user representation. For example, if `decimals` equals `2`, a balance of `505` tokens should be displayed to a user as `5.05` (`505 / 10 ** 2`). Tokens usually opt for a value of 18, imitating the relationship between Ether and Wei. This is the value {ERC20} uses, unless this function is overridden; NOTE: This information is only used for _display_ purposes: it in no way affects any of the arithmetic of the contract, including {IERC20-balanceOf} and {IERC20-transfer}."
      },
      "decreaseAllowance(address,uint256)": {
        "details": "Atomically decreases the allowance granted to `spender` by the caller. This is an alternative to {approve} that can be used as a mitigation for problems described in {IERC20-approve}. Emits an {Approval} event indicating the updated allowance. Requirements: - `spender` cannot be the zero address. - `spender` must have allowance for the caller of at least `subtractedValue`."
      },
      "increaseAllowance(address,uint256)": {
        "details": "Atomically increases the allowance granted to `spender` by the caller. This is an alternative to {approve} that can be used as a mitigation for problems described in {IERC20-approve}. Emits an {Approval} event indicating the updated allowance. Requirements: - `spender` cannot be the zero address."
      },
      "name()": {
        "details": "Returns the name of the token."
      },
      "nonces(address)": {
        "details": "See {IERC20Permit-nonces}."
      },
      "permit(address,address,uint256,uint256,uint8,bytes32,bytes32)": {
        "details": "See {IERC20Permit-permit}."
      },
      "rebase(uint256,uint256)": {
        "params": {
          "profit_": "uint256"
        },
        "returns": {
          "_0": "uint256"
        }
      },
      "symbol()": {
        "details": "Returns the symbol of the token, usually a shorter version of the name."
      },
      "totalSupply()": {
        "details": "See {IERC20-totalSupply}."
      }
    },
    "version": 1
  },
  "userdoc": {
    "kind": "user",
    "methods": {
      "rebase(uint256,uint256)": {
        "notice": "increases sREQT supply to increase staking balances relative to profit_"
      }
    },
    "version": 1
  },
  "storageLayout": {
    "storage": [
      {
        "astId": 10999,
        "contract": "contracts/sRequiemERC20.sol:sRequiem",
        "label": "_balances",
        "offset": 0,
        "slot": "0",
        "type": "t_mapping(t_address,t_uint256)"
      },
      {
        "astId": 11005,
        "contract": "contracts/sRequiemERC20.sol:sRequiem",
        "label": "_allowances",
        "offset": 0,
        "slot": "1",
        "type": "t_mapping(t_address,t_mapping(t_address,t_uint256))"
      },
      {
        "astId": 11007,
        "contract": "contracts/sRequiemERC20.sol:sRequiem",
        "label": "_totalSupply",
        "offset": 0,
        "slot": "2",
        "type": "t_uint256"
      },
      {
        "astId": 11009,
        "contract": "contracts/sRequiemERC20.sol:sRequiem",
        "label": "_name",
        "offset": 0,
        "slot": "3",
        "type": "t_string_storage"
      },
      {
        "astId": 11011,
        "contract": "contracts/sRequiemERC20.sol:sRequiem",
        "label": "_symbol",
        "offset": 0,
        "slot": "4",
        "type": "t_string_storage"
      },
      {
        "astId": 11013,
        "contract": "contracts/sRequiemERC20.sol:sRequiem",
        "label": "_decimals",
        "offset": 0,
        "slot": "5",
        "type": "t_uint8"
      },
      {
        "astId": 11617,
        "contract": "contracts/sRequiemERC20.sol:sRequiem",
        "label": "_nonces",
        "offset": 0,
        "slot": "6",
        "type": "t_mapping(t_address,t_uint256)"
      },
      {
        "astId": 11805,
        "contract": "contracts/sRequiemERC20.sol:sRequiem",
        "label": "_owner",
        "offset": 0,
        "slot": "7",
        "type": "t_address"
      },
      {
        "astId": 11807,
        "contract": "contracts/sRequiemERC20.sol:sRequiem",
        "label": "_newOwner",
        "offset": 0,
        "slot": "8",
        "type": "t_address"
      },
      {
        "astId": 17351,
        "contract": "contracts/sRequiemERC20.sol:sRequiem",
        "label": "stakingContract",
        "offset": 0,
        "slot": "9",
        "type": "t_address"
      },
      {
        "astId": 17353,
        "contract": "contracts/sRequiemERC20.sol:sRequiem",
        "label": "initializer",
        "offset": 0,
        "slot": "10",
        "type": "t_address"
      },
      {
        "astId": 17392,
        "contract": "contracts/sRequiemERC20.sol:sRequiem",
        "label": "rebases",
        "offset": 0,
        "slot": "11",
        "type": "t_array(t_struct(Rebase)17388_storage)dyn_storage"
      },
      {
        "astId": 17394,
        "contract": "contracts/sRequiemERC20.sol:sRequiem",
        "label": "INDEX",
        "offset": 0,
        "slot": "12",
        "type": "t_uint256"
      },
      {
        "astId": 17425,
        "contract": "contracts/sRequiemERC20.sol:sRequiem",
        "label": "_gonsPerFragment",
        "offset": 0,
        "slot": "13",
        "type": "t_uint256"
      },
      {
        "astId": 17429,
        "contract": "contracts/sRequiemERC20.sol:sRequiem",
        "label": "_gonBalances",
        "offset": 0,
        "slot": "14",
        "type": "t_mapping(t_address,t_uint256)"
      },
      {
        "astId": 17435,
        "contract": "contracts/sRequiemERC20.sol:sRequiem",
        "label": "_allowedValue",
        "offset": 0,
        "slot": "15",
        "type": "t_mapping(t_address,t_mapping(t_address,t_uint256))"
      }
    ],
    "types": {
      "t_address": {
        "encoding": "inplace",
        "label": "address",
        "numberOfBytes": "20"
      },
      "t_array(t_struct(Rebase)17388_storage)dyn_storage": {
        "base": "t_struct(Rebase)17388_storage",
        "encoding": "dynamic_array",
        "label": "struct sRequiem.Rebase[]",
        "numberOfBytes": "32"
      },
      "t_mapping(t_address,t_mapping(t_address,t_uint256))": {
        "encoding": "mapping",
        "key": "t_address",
        "label": "mapping(address => mapping(address => uint256))",
        "numberOfBytes": "32",
        "value": "t_mapping(t_address,t_uint256)"
      },
      "t_mapping(t_address,t_uint256)": {
        "encoding": "mapping",
        "key": "t_address",
        "label": "mapping(address => uint256)",
        "numberOfBytes": "32",
        "value": "t_uint256"
      },
      "t_string_storage": {
        "encoding": "bytes",
        "label": "string",
        "numberOfBytes": "32"
      },
      "t_struct(Rebase)17388_storage": {
        "encoding": "inplace",
        "label": "struct sRequiem.Rebase",
        "members": [
          {
            "astId": 17375,
            "contract": "contracts/sRequiemERC20.sol:sRequiem",
            "label": "epoch",
            "offset": 0,
            "slot": "0",
            "type": "t_uint256"
          },
          {
            "astId": 17377,
            "contract": "contracts/sRequiemERC20.sol:sRequiem",
            "label": "rebase",
            "offset": 0,
            "slot": "1",
            "type": "t_uint256"
          },
          {
            "astId": 17379,
            "contract": "contracts/sRequiemERC20.sol:sRequiem",
            "label": "totalStakedBefore",
            "offset": 0,
            "slot": "2",
            "type": "t_uint256"
          },
          {
            "astId": 17381,
            "contract": "contracts/sRequiemERC20.sol:sRequiem",
            "label": "totalStakedAfter",
            "offset": 0,
            "slot": "3",
            "type": "t_uint256"
          },
          {
            "astId": 17383,
            "contract": "contracts/sRequiemERC20.sol:sRequiem",
            "label": "amountRebased",
            "offset": 0,
            "slot": "4",
            "type": "t_uint256"
          },
          {
            "astId": 17385,
            "contract": "contracts/sRequiemERC20.sol:sRequiem",
            "label": "index",
            "offset": 0,
            "slot": "5",
            "type": "t_uint256"
          },
          {
            "astId": 17387,
            "contract": "contracts/sRequiemERC20.sol:sRequiem",
            "label": "blockNumberOccured",
            "offset": 0,
            "slot": "6",
            "type": "t_uint256"
          }
        ],
        "numberOfBytes": "224"
      },
      "t_uint256": {
        "encoding": "inplace",
        "label": "uint256",
        "numberOfBytes": "32"
      },
      "t_uint8": {
        "encoding": "inplace",
        "label": "uint8",
        "numberOfBytes": "1"
      }
    }
  }
}