{
  "address": "0xFD471836031dc5108809D173A067e8486B9047A3",
  "abi": [
    {
      "inputs": [],
      "stateMutability": "nonpayable",
      "type": "constructor"
    },
    {
      "anonymous": false,
      "inputs": [
        {
          "indexed": true,
          "internalType": "address",
          "name": "owner",
          "type": "address"
        },
        {
          "indexed": true,
          "internalType": "address",
          "name": "spender",
          "type": "address"
        },
        {
          "indexed": false,
          "internalType": "uint256",
          "name": "value",
          "type": "uint256"
        }
      ],
      "name": "Approval",
      "type": "event"
    },
    {
      "anonymous": false,
      "inputs": [
        {
          "indexed": true,
          "internalType": "uint256",
          "name": "epoch",
          "type": "uint256"
        },
        {
          "indexed": false,
          "internalType": "uint256",
          "name": "rebase",
          "type": "uint256"
        },
        {
          "indexed": false,
          "internalType": "uint256",
          "name": "index",
          "type": "uint256"
        }
      ],
      "name": "LogRebase",
      "type": "event"
    },
    {
      "anonymous": false,
      "inputs": [
        {
          "indexed": false,
          "internalType": "address",
          "name": "stakingContract",
          "type": "address"
        }
      ],
      "name": "LogStakingContractUpdated",
      "type": "event"
    },
    {
      "anonymous": false,
      "inputs": [
        {
          "indexed": true,
          "internalType": "uint256",
          "name": "epoch",
          "type": "uint256"
        },
        {
          "indexed": false,
          "internalType": "uint256",
          "name": "timestamp",
          "type": "uint256"
        },
        {
          "indexed": false,
          "internalType": "uint256",
          "name": "_totalSupply",
          "type": "uint256"
        }
      ],
      "name": "LogSupply",
      "type": "event"
    },
    {
      "anonymous": false,
      "inputs": [
        {
          "indexed": true,
          "internalType": "address",
          "name": "previousOwner",
          "type": "address"
        },
        {
          "indexed": true,
          "internalType": "address",
          "name": "newOwner",
          "type": "address"
        }
      ],
      "name": "OwnershipPulled",
      "type": "event"
    },
    {
      "anonymous": false,
      "inputs": [
        {
          "indexed": true,
          "internalType": "address",
          "name": "previousOwner",
          "type": "address"
        },
        {
          "indexed": true,
          "internalType": "address",
          "name": "newOwner",
          "type": "address"
        }
      ],
      "name": "OwnershipPushed",
      "type": "event"
    },
    {
      "anonymous": false,
      "inputs": [
        {
          "indexed": true,
          "internalType": "address",
          "name": "from",
          "type": "address"
        },
        {
          "indexed": true,
          "internalType": "address",
          "name": "to",
          "type": "address"
        },
        {
          "indexed": false,
          "internalType": "uint256",
          "name": "value",
          "type": "uint256"
        }
      ],
      "name": "Transfer",
      "type": "event"
    },
    {
      "inputs": [],
      "name": "DOMAIN_SEPARATOR",
      "outputs": [
        {
          "internalType": "bytes32",
          "name": "",
          "type": "bytes32"
        }
      ],
      "stateMutability": "view",
      "type": "function"
    },
    {
      "inputs": [],
      "name": "INDEX",
      "outputs": [
        {
          "internalType": "uint256",
          "name": "",
          "type": "uint256"
        }
      ],
      "stateMutability": "view",
      "type": "function"
    },
    {
      "inputs": [
        {
          "internalType": "address",
          "name": "owner_",
          "type": "address"
        },
        {
          "internalType": "address",
          "name": "spender",
          "type": "address"
        }
      ],
      "name": "allowance",
      "outputs": [
        {
          "internalType": "uint256",
          "name": "",
          "type": "uint256"
        }
      ],
      "stateMutability": "view",
      "type": "function"
    },
    {
      "inputs": [
        {
          "internalType": "address",
          "name": "spender",
          "type": "address"
        },
        {
          "internalType": "uint256",
          "name": "value",
          "type": "uint256"
        }
      ],
      "name": "approve",
      "outputs": [
        {
          "internalType": "bool",
          "name": "",
          "type": "bool"
        }
      ],
      "stateMutability": "nonpayable",
      "type": "function"
    },
    {
      "inputs": [
        {
          "internalType": "uint256",
          "name": "gons",
          "type": "uint256"
        }
      ],
      "name": "balanceForGons",
      "outputs": [
        {
          "internalType": "uint256",
          "name": "",
          "type": "uint256"
        }
      ],
      "stateMutability": "view",
      "type": "function"
    },
    {
      "inputs": [
        {
          "internalType": "address",
          "name": "who",
          "type": "address"
        }
      ],
      "name": "balanceOf",
      "outputs": [
        {
          "internalType": "uint256",
          "name": "",
          "type": "uint256"
        }
      ],
      "stateMutability": "view",
      "type": "function"
    },
    {
      "inputs": [],
      "name": "circulatingSupply",
      "outputs": [
        {
          "internalType": "uint256",
          "name": "",
          "type": "uint256"
        }
      ],
      "stateMutability": "view",
      "type": "function"
    },
    {
      "inputs": [],
      "name": "decimals",
      "outputs": [
        {
          "internalType": "uint8",
          "name": "",
          "type": "uint8"
        }
      ],
      "stateMutability": "view",
      "type": "function"
    },
    {
      "inputs": [
        {
          "internalType": "address",
          "name": "spender",
          "type": "address"
        },
        {
          "internalType": "uint256",
          "name": "subtractedValue",
          "type": "uint256"
        }
      ],
      "name": "decreaseAllowance",
      "outputs": [
        {
          "internalType": "bool",
          "name": "",
          "type": "bool"
        }
      ],
      "stateMutability": "nonpayable",
      "type": "function"
    },
    {
      "inputs": [
        {
          "internalType": "uint256",
          "name": "amount",
          "type": "uint256"
        }
      ],
      "name": "gonsForBalance",
      "outputs": [
        {
          "internalType": "uint256",
          "name": "",
          "type": "uint256"
        }
      ],
      "stateMutability": "view",
      "type": "function"
    },
    {
      "inputs": [
        {
          "internalType": "address",
          "name": "spender",
          "type": "address"
        },
        {
          "internalType": "uint256",
          "name": "addedValue",
          "type": "uint256"
        }
      ],
      "name": "increaseAllowance",
      "outputs": [
        {
          "internalType": "bool",
          "name": "",
          "type": "bool"
        }
      ],
      "stateMutability": "nonpayable",
      "type": "function"
    },
    {
      "inputs": [],
      "name": "index",
      "outputs": [
        {
          "internalType": "uint256",
          "name": "",
          "type": "uint256"
        }
      ],
      "stateMutability": "view",
      "type": "function"
    },
    {
      "inputs": [
        {
          "internalType": "address",
          "name": "stakingContract_",
          "type": "address"
        }
      ],
      "name": "initialize",
      "outputs": [
        {
          "internalType": "bool",
          "name": "",
          "type": "bool"
        }
      ],
      "stateMutability": "nonpayable",
      "type": "function"
    },
    {
      "inputs": [],
      "name": "initializer",
      "outputs": [
        {
          "internalType": "address",
          "name": "",
          "type": "address"
        }
      ],
      "stateMutability": "view",
      "type": "function"
    },
    {
      "inputs": [],
      "name": "name",
      "outputs": [
        {
          "internalType": "string",
          "name": "",
          "type": "string"
        }
      ],
      "stateMutability": "view",
      "type": "function"
    },
    {
      "inputs": [
        {
          "internalType": "address",
          "name": "owner",
          "type": "address"
        }
      ],
      "name": "nonces",
      "outputs": [
        {
          "internalType": "uint256",
          "name": "",
          "type": "uint256"
        }
      ],
      "stateMutability": "view",
      "type": "function"
    },
    {
      "inputs": [
        {
          "internalType": "address",
          "name": "owner",
          "type": "address"
        },
        {
          "internalType": "address",
          "name": "spender",
          "type": "address"
        },
        {
          "internalType": "uint256",
          "name": "value",
          "type": "uint256"
        },
        {
          "internalType": "uint256",
          "name": "deadline",
          "type": "uint256"
        },
        {
          "internalType": "uint8",
          "name": "v",
          "type": "uint8"
        },
        {
          "internalType": "bytes32",
          "name": "r",
          "type": "bytes32"
        },
        {
          "internalType": "bytes32",
          "name": "s",
          "type": "bytes32"
        }
      ],
      "name": "permit",
      "outputs": [],
      "stateMutability": "nonpayable",
      "type": "function"
    },
    {
      "inputs": [],
      "name": "policy",
      "outputs": [
        {
          "internalType": "address",
          "name": "",
          "type": "address"
        }
      ],
      "stateMutability": "view",
      "type": "function"
    },
    {
      "inputs": [],
      "name": "pullManagement",
      "outputs": [],
      "stateMutability": "nonpayable",
      "type": "function"
    },
    {
      "inputs": [
        {
          "internalType": "address",
          "name": "newOwner_",
          "type": "address"
        }
      ],
      "name": "pushManagement",
      "outputs": [],
      "stateMutability": "nonpayable",
      "type": "function"
    },
    {
      "inputs": [
        {
          "internalType": "uint256",
          "name": "profit_",
          "type": "uint256"
        },
        {
          "internalType": "uint256",
          "name": "epoch_",
          "type": "uint256"
        }
      ],
      "name": "rebase",
      "outputs": [
        {
          "internalType": "uint256",
          "name": "",
          "type": "uint256"
        }
      ],
      "stateMutability": "nonpayable",
      "type": "function"
    },
    {
      "inputs": [
        {
          "internalType": "uint256",
          "name": "",
          "type": "uint256"
        }
      ],
      "name": "rebases",
      "outputs": [
        {
          "internalType": "uint256",
          "name": "epoch",
          "type": "uint256"
        },
        {
          "internalType": "uint256",
          "name": "rebase",
          "type": "uint256"
        },
        {
          "internalType": "uint256",
          "name": "totalStakedBefore",
          "type": "uint256"
        },
        {
          "internalType": "uint256",
          "name": "totalStakedAfter",
          "type": "uint256"
        },
        {
          "internalType": "uint256",
          "name": "amountRebased",
          "type": "uint256"
        },
        {
          "internalType": "uint256",
          "name": "index",
          "type": "uint256"
        },
        {
          "internalType": "uint256",
          "name": "blockNumberOccured",
          "type": "uint256"
        }
      ],
      "stateMutability": "view",
      "type": "function"
    },
    {
      "inputs": [],
      "name": "renounceManagement",
      "outputs": [],
      "stateMutability": "nonpayable",
      "type": "function"
    },
    {
      "inputs": [
        {
          "internalType": "uint256",
          "name": "_INDEX",
          "type": "uint256"
        }
      ],
      "name": "setIndex",
      "outputs": [
        {
          "internalType": "bool",
          "name": "",
          "type": "bool"
        }
      ],
      "stateMutability": "nonpayable",
      "type": "function"
    },
    {
      "inputs": [],
      "name": "stakingContract",
      "outputs": [
        {
          "internalType": "address",
          "name": "",
          "type": "address"
        }
      ],
      "stateMutability": "view",
      "type": "function"
    },
    {
      "inputs": [],
      "name": "symbol",
      "outputs": [
        {
          "internalType": "string",
          "name": "",
          "type": "string"
        }
      ],
      "stateMutability": "view",
      "type": "function"
    },
    {
      "inputs": [],
      "name": "totalSupply",
      "outputs": [
        {
          "internalType": "uint256",
          "name": "",
          "type": "uint256"
        }
      ],
      "stateMutability": "view",
      "type": "function"
    },
    {
      "inputs": [
        {
          "internalType": "address",
          "name": "to",
          "type": "address"
        },
        {
          "internalType": "uint256",
          "name": "value",
          "type": "uint256"
        }
      ],
      "name": "transfer",
      "outputs": [
        {
          "internalType": "bool",
          "name": "",
          "type": "bool"
        }
      ],
      "stateMutability": "nonpayable",
      "type": "function"
    },
    {
      "inputs": [
        {
          "internalType": "address",
          "name": "from",
          "type": "address"
        },
        {
          "internalType": "address",
          "name": "to",
          "type": "address"
        },
        {
          "internalType": "uint256",
          "name": "value",
          "type": "uint256"
        }
      ],
      "name": "transferFrom",
      "outputs": [
        {
          "internalType": "bool",
          "name": "",
          "type": "bool"
        }
      ],
      "stateMutability": "nonpayable",
      "type": "function"
    }
  ],
  "transactionHash": "0x7fdb4fb8ec8b413cecfb8fd697c0ef43cbb97ea133a4c57c5bb31beb9ce4febb",
  "args": [],
  "solcInputHash": "8e8c51f4a39062dc152d08c29090b263",
  "bytecode": "0x6101006040527f6e71edae12b1b97f4d1f60370fef10105fa2faae0126114a169c64845d6126c960e0523480156200003657600080fd5b50604051806040016040528060058152602001641cd491545560da1b81525080604051806040016040528060018152602001603160f81b8152506040518060400160405280600e81526020016d5374616b6564205265717569656d60901b815250604051806040016040528060058152602001641cd491545560da1b81525060098260039080519060200190620000cf929190620001c5565b508151620000e5906004906020850190620001c5565b506005805460ff90921660ff1990921691909117905550508151602092830120608052805191012060a052507f8b73c3c69bb8fe3d512ecc4cf759cc79239f7b179b0ffacaa9a75d522b39400f60c052600780546001600160a01b031916339081179091556040516000907fea8258f2d9ddb679928cf34b78cf645b7feda9acc828e4dd82d014eaae270eba908290a3600a80546001600160a01b031916331790556611c37937e080006002819055620001a28160001962000281565b620001b09060001962000298565b620001bc9190620002be565b600d5562000312565b828054620001d390620002d5565b90600052602060002090601f016020900481019282620001f7576000855562000242565b82601f106200021257805160ff191683800117855562000242565b8280016001018555821562000242579182015b828111156200024257825182559160200191906001019062000225565b506200025092915062000254565b5090565b5b8082111562000250576000815560010162000255565b634e487b7160e01b600052601260045260246000fd5b6000826200029357620002936200026b565b500690565b600082821015620002b957634e487b7160e01b600052601160045260246000fd5b500390565b600082620002d057620002d06200026b565b500490565b600181811c90821680620002ea57607f821691505b602082108114156200030c57634e487b7160e01b600052602260045260246000fd5b50919050565b60805160a05160c05160e051611c39620003616000396000611410015260008181610a1d0152611755015260008181610a5f0152611797015260008181610a3e01526117760152611c396000f3fe608060405234801561001057600080fd5b50600436106101cf5760003560e01c806346f68ee91161010457806395d89b41116100a2578063c4d66de811610071578063c4d66de81461040c578063d505accf1461041f578063dd62ed3e14610432578063ee99205c1461047857600080fd5b806395d89b41146103be5780639ce110d7146103c6578063a457c2d7146103e6578063a9059cbb146103f957600080fd5b806373c69eb7116100de57806373c69eb7146103255780637965d56d1461036d5780637ecebe00146103805780639358928b146103b657600080fd5b806346f68ee9146102f75780635a96ac0a1461030a57806370a082311461031257600080fd5b806323b872dd11610171578063313ce5671161014b578063313ce567146102ba5780633644e515146102c957806339509351146102d157806340a5737f146102e457600080fd5b806323b872dd146102965780632986c0e5146102a95780632df75cb1146102b157600080fd5b8063089208d8116101ad578063089208d81461024e578063095ea7b31461025857806318160ddd1461027b5780631bd396741461028357600080fd5b80630505c8c9146101d4578063058ecdb41461021857806306fdde0314610239575b600080fd5b60075473ffffffffffffffffffffffffffffffffffffffff165b60405173ffffffffffffffffffffffffffffffffffffffff90911681526020015b60405180910390f35b61022b6102263660046118bd565b610498565b60405190815260200161020f565b610241610654565b60405161020f91906118df565b6102566106e6565b005b61026b610266366004611976565b6107db565b604051901515815260200161020f565b60025461022b565b61022b6102913660046119a0565b610854565b61026b6102a43660046119b9565b610864565b61022b610a02565b61022b600c5481565b6040516012815260200161020f565b61022b610a14565b61026b6102df366004611976565b610abf565b61026b6102f23660046119a0565b610b6a565b6102566103053660046119f5565b610c10565b610256610dc2565b61022b6103203660046119f5565b610efe565b6103386103333660046119a0565b610f32565b604080519788526020880196909652948601939093526060850191909152608084015260a083015260c082015260e00161020f565b61022b61037b3660046119a0565b610f84565b61022b61038e3660046119f5565b73ffffffffffffffffffffffffffffffffffffffff1660009081526006602052604090205490565b61022b610f94565b610241610fc6565b600a546101ee9073ffffffffffffffffffffffffffffffffffffffff1681565b61026b6103f4366004611976565b610fd5565b61026b610407366004611976565b6110f1565b61026b61041a3660046119f5565b6111af565b61025661042d366004611a17565b611378565b61022b610440366004611a8a565b73ffffffffffffffffffffffffffffffffffffffff9182166000908152600f6020908152604080832093909416825291909152205490565b6009546101ee9073ffffffffffffffffffffffffffffffffffffffff1681565b60095460009073ffffffffffffffffffffffffffffffffffffffff1633146104bf57600080fd5b6000806104ca610f94565b90508461056657837f917acfbe39be6509ccf7fecb66a7e42ce2be1083c2d7dd3b9b7491dabddb8da44260025460405161050e929190918252602082015260400190565b60405180910390a2837f6012dbce857565c4a40974aa5de8373a761fc429077ef0c8c8611d1e20d63fb26000610542610a02565b6040805192835260208301919091520160405180910390a26002549250505061064e565b801561058c57806002548661057b9190611aec565b6105859190611b58565b9150610590565b8491505b8160025461059e9190611b6c565b60028190556fffffffffffffffffffffffffffffffff10156105cf576fffffffffffffffffffffffffffffffff6002555b6002546106036611c37937e080007fffffffffffffffffffffffffffffffffffffffffffffffffffffffffffffffff611b84565b61062d907fffffffffffffffffffffffffffffffffffffffffffffffffffffffffffffffff611b98565b6106379190611b58565b600d556106458186866115fd565b50600254925050505b92915050565b60606003805461066390611baf565b80601f016020809104026020016040519081016040528092919081815260200182805461068f90611baf565b80156106dc5780601f106106b1576101008083540402835291602001916106dc565b820191906000526020600020905b8154815290600101906020018083116106bf57829003601f168201915b5050505050905090565b60075473ffffffffffffffffffffffffffffffffffffffff16331461076c576040517f08c379a000000000000000000000000000000000000000000000000000000000815260206004820181905260248201527f4f776e61626c653a2063616c6c6572206973206e6f7420746865206f776e657260448201526064015b60405180910390fd5b60075460405160009173ffffffffffffffffffffffffffffffffffffffff16907fea8258f2d9ddb679928cf34b78cf645b7feda9acc828e4dd82d014eaae270eba908390a3600780547fffffffffffffffffffffffff0000000000000000000000000000000000000000169055565b336000818152600f6020908152604080832073ffffffffffffffffffffffffffffffffffffffff8716808552925280832085905551919290917f8c5be1e5ebec7d5bd14f71427d1e84f3dd0314c0f7b2291e5b200ac8c7c3b925906108439086815260200190565b60405180910390a350600192915050565b6000600d548261064e9190611aec565b73ffffffffffffffffffffffffffffffffffffffff83166000908152600f602090815260408083203384529091528120805483919083906108a6908490611b98565b909155505073ffffffffffffffffffffffffffffffffffffffff84166000818152600f6020908152604080832033808552908352928190205490519081529192917f8c5be1e5ebec7d5bd14f71427d1e84f3dd0314c0f7b2291e5b200ac8c7c3b925910160405180910390a3600061091d83610854565b73ffffffffffffffffffffffffffffffffffffffff86166000908152600e6020526040902054909150610951908290611b98565b73ffffffffffffffffffffffffffffffffffffffff8087166000908152600e6020526040808220939093559086168152205461098e908290611b6c565b73ffffffffffffffffffffffffffffffffffffffff8086166000818152600e602052604090819020939093559151908716907fddf252ad1be2c89b69c2b068fc378daa952ba7f163c4a11628f55a4df523b3ef906109ef9087815260200190565b60405180910390a3506001949350505050565b6000610a0f600c54610f84565b905090565b6000610a0f60007f00000000000000000000000000000000000000000000000000000000000000007f00000000000000000000000000000000000000000000000000000000000000007f000000000000000000000000000000000000000000000000000000000000000046604080516020810195909552840192909252606083015260808201523060a082015260c00160405160208183030381529060405280519060200120905090565b336000908152600f6020908152604080832073ffffffffffffffffffffffffffffffffffffffff86168452909152812080548391908390610b01908490611b6c565b9091555050336000818152600f6020908152604080832073ffffffffffffffffffffffffffffffffffffffff8816808552908352928190205490519081529192917f8c5be1e5ebec7d5bd14f71427d1e84f3dd0314c0f7b2291e5b200ac8c7c3b9259101610843565b60075460009073ffffffffffffffffffffffffffffffffffffffff163314610bee576040517f08c379a000000000000000000000000000000000000000000000000000000000815260206004820181905260248201527f4f776e61626c653a2063616c6c6572206973206e6f7420746865206f776e65726044820152606401610763565b600c5415610bfb57600080fd5b610c0482610854565b600c555060015b919050565b60075473ffffffffffffffffffffffffffffffffffffffff163314610c91576040517f08c379a000000000000000000000000000000000000000000000000000000000815260206004820181905260248201527f4f776e61626c653a2063616c6c6572206973206e6f7420746865206f776e65726044820152606401610763565b73ffffffffffffffffffffffffffffffffffffffff8116610d34576040517f08c379a000000000000000000000000000000000000000000000000000000000815260206004820152602660248201527f4f776e61626c653a206e6577206f776e657220697320746865207a65726f206160448201527f64647265737300000000000000000000000000000000000000000000000000006064820152608401610763565b60075460405173ffffffffffffffffffffffffffffffffffffffff8084169216907fea8258f2d9ddb679928cf34b78cf645b7feda9acc828e4dd82d014eaae270eba90600090a3600880547fffffffffffffffffffffffff00000000000000000000000000000000000000001673ffffffffffffffffffffffffffffffffffffffff92909216919091179055565b60085473ffffffffffffffffffffffffffffffffffffffff163314610e69576040517f08c379a000000000000000000000000000000000000000000000000000000000815260206004820152602260248201527f4f776e61626c653a206d757374206265206e6577206f776e657220746f20707560448201527f6c6c0000000000000000000000000000000000000000000000000000000000006064820152608401610763565b60085460075460405173ffffffffffffffffffffffffffffffffffffffff92831692909116907faa151555690c956fc3ea32f106bb9f119b5237a061eaa8557cff3e51e3792c8d90600090a3600854600780547fffffffffffffffffffffffff00000000000000000000000000000000000000001673ffffffffffffffffffffffffffffffffffffffff909216919091179055565b600d5473ffffffffffffffffffffffffffffffffffffffff82166000908152600e6020526040812054909161064e91611b58565b600b8181548110610f4257600080fd5b90600052602060002090600702016000915090508060000154908060010154908060020154908060030154908060040154908060050154908060060154905087565b6000600d548261064e9190611b58565b600954600090610fb99073ffffffffffffffffffffffffffffffffffffffff16610efe565b600254610a0f9190611b98565b60606004805461066390611baf565b336000908152600f6020908152604080832073ffffffffffffffffffffffffffffffffffffffff8616845290915281205480831061104357336000908152600f6020908152604080832073ffffffffffffffffffffffffffffffffffffffff8816845290915281205561107f565b61104d8382611b98565b336000908152600f6020908152604080832073ffffffffffffffffffffffffffffffffffffffff891684529091529020555b336000818152600f6020908152604080832073ffffffffffffffffffffffffffffffffffffffff8916808552908352928190205490519081529192917f8c5be1e5ebec7d5bd14f71427d1e84f3dd0314c0f7b2291e5b200ac8c7c3b92591015b60405180910390a35060019392505050565b600080600d54836111029190611aec565b336000908152600e6020526040812080549293508392909190611126908490611b98565b909155505073ffffffffffffffffffffffffffffffffffffffff84166000908152600e602052604081208054839290611160908490611b6c565b909155505060405183815273ffffffffffffffffffffffffffffffffffffffff85169033907fddf252ad1be2c89b69c2b068fc378daa952ba7f163c4a11628f55a4df523b3ef906020016110df565b600a5460009073ffffffffffffffffffffffffffffffffffffffff1633146111d657600080fd5b73ffffffffffffffffffffffffffffffffffffffff82166111f657600080fd5b600980547fffffffffffffffffffffffff00000000000000000000000000000000000000001673ffffffffffffffffffffffffffffffffffffffff84161790556112676611c37937e080007fffffffffffffffffffffffffffffffffffffffffffffffffffffffffffffffff611b84565b611291907fffffffffffffffffffffffffffffffffffffffffffffffffffffffffffffffff611b98565b6009805473ffffffffffffffffffffffffffffffffffffffff9081166000908152600e602052604080822094909455915460025493519116927fddf252ad1be2c89b69c2b068fc378daa952ba7f163c4a11628f55a4df523b3ef916112f891815260200190565b60405180910390a360405173ffffffffffffffffffffffffffffffffffffffff831681527f817c653428858ed536dc085c5d8273734c517b55de44b55f5c5877a75e3373a19060200160405180910390a15050600a80547fffffffffffffffffffffffff0000000000000000000000000000000000000000169055600190565b834211156113e2576040517f08c379a000000000000000000000000000000000000000000000000000000000815260206004820152600e60248201527f455850495245445f5045524d49540000000000000000000000000000000000006044820152606401610763565b73ffffffffffffffffffffffffffffffffffffffff87811660008181526006602090815260408083205481517f00000000000000000000000000000000000000000000000000000000000000008185015280830195909552948b166060850152608084018a905260a0840185905260c08085018a90528151808603909101815260e0909401905282519201919091209061147b8261174c565b6040805160008082526020820180845284905260ff8a169282019290925260608101889052608081018790529192509060019060a0016020604051602081039080840390855afa1580156114d3573d6000803e3d6000fd5b50506040517fffffffffffffffffffffffffffffffffffffffffffffffffffffffffffffffe0015191505073ffffffffffffffffffffffffffffffffffffffff81161580159061154e57508a73ffffffffffffffffffffffffffffffffffffffff168173ffffffffffffffffffffffffffffffffffffffff16145b6115b4576040517f08c379a000000000000000000000000000000000000000000000000000000000815260206004820152601160248201527f494e56414c49445f5349474e41545552450000000000000000000000000000006044820152606401610763565b6115bf846001611b6c565b73ffffffffffffffffffffffffffffffffffffffff8c166000908152600660205260409020556115f08b8b8b61184f565b5050505050505050505050565b6000808461161385670de0b6b3a7640000611aec565b61161d9190611b58565b9050600b6040518060e00160405280858152602001838152602001878152602001611646610f94565b8152602001868152602001611659610a02565b81524360209182015282546001808201855560009485529382902083516007909202019081558282015193810193909355604080830151600280860191909155606084015160038601556080840151600486015560a0840151600586015560c090930151600690940193909355905482514281529182015284917f917acfbe39be6509ccf7fecb66a7e42ce2be1083c2d7dd3b9b7491dabddb8da4910160405180910390a2827f6012dbce857565c4a40974aa5de8373a761fc429077ef0c8c8611d1e20d63fb282611729610a02565b6040805192835260208301919091520160405180910390a2506001949350505050565b60006117f760007f00000000000000000000000000000000000000000000000000000000000000007f00000000000000000000000000000000000000000000000000000000000000007f000000000000000000000000000000000000000000000000000000000000000046604080516020810195909552840192909252606083015260808201523060a082015260c00160405160208183030381529060405280519060200120905090565b6040517f19010000000000000000000000000000000000000000000000000000000000006020820152602281019190915260428101839052606201604051602081830303815290604052805190602001209050919050565b73ffffffffffffffffffffffffffffffffffffffff8381166000818152600f602090815260408083209487168084529482529182902085905590518481527f8c5be1e5ebec7d5bd14f71427d1e84f3dd0314c0f7b2291e5b200ac8c7c3b925910160405180910390a3505050565b600080604083850312156118d057600080fd5b50508035926020909101359150565b600060208083528351808285015260005b8181101561190c578581018301518582016040015282016118f0565b8181111561191e576000604083870101525b50601f017fffffffffffffffffffffffffffffffffffffffffffffffffffffffffffffffe016929092016040019392505050565b803573ffffffffffffffffffffffffffffffffffffffff81168114610c0b57600080fd5b6000806040838503121561198957600080fd5b61199283611952565b946020939093013593505050565b6000602082840312156119b257600080fd5b5035919050565b6000806000606084860312156119ce57600080fd5b6119d784611952565b92506119e560208501611952565b9150604084013590509250925092565b600060208284031215611a0757600080fd5b611a1082611952565b9392505050565b600080600080600080600060e0888a031215611a3257600080fd5b611a3b88611952565b9650611a4960208901611952565b95506040880135945060608801359350608088013560ff81168114611a6d57600080fd5b9699959850939692959460a0840135945060c09093013592915050565b60008060408385031215611a9d57600080fd5b611aa683611952565b9150611ab460208401611952565b90509250929050565b7f4e487b7100000000000000000000000000000000000000000000000000000000600052601160045260246000fd5b6000817fffffffffffffffffffffffffffffffffffffffffffffffffffffffffffffffff0483118215151615611b2457611b24611abd565b500290565b7f4e487b7100000000000000000000000000000000000000000000000000000000600052601260045260246000fd5b600082611b6757611b67611b29565b500490565b60008219821115611b7f57611b7f611abd565b500190565b600082611b9357611b93611b29565b500690565b600082821015611baa57611baa611abd565b500390565b600181811c90821680611bc357607f821691505b60208210811415611bfd577f4e487b7100000000000000000000000000000000000000000000000000000000600052602260045260246000fd5b5091905056fea264697066735822122056fbb6e692a323b116bfb1d4258d45dd5b360b9c16be90b673f716048fa8a9ef64736f6c634300080a0033",
  "devdoc": {
    "kind": "dev",
    "methods": {
      "DOMAIN_SEPARATOR()": {
        "details": "See {IERC20Permit-DOMAIN_SEPARATOR}."
      },
      "decimals()": {
        "details": "Returns the number of decimals used to get its user representation. For example, if `decimals` equals `2`, a balance of `505` tokens should be displayed to a user as `5.05` (`505 / 10 ** 2`). Tokens usually opt for a value of 18, imitating the relationship between Ether and Wei. This is the value {ERC20} uses, unless this function is overridden; NOTE: This information is only used for _display_ purposes: it in no way affects any of the arithmetic of the contract, including {IERC20-balanceOf} and {IERC20-transfer}."
      },
      "decreaseAllowance(address,uint256)": {
        "details": "Atomically decreases the allowance granted to `spender` by the caller. This is an alternative to {approve} that can be used as a mitigation for problems described in {IERC20-approve}. Emits an {Approval} event indicating the updated allowance. Requirements: - `spender` cannot be the zero address. - `spender` must have allowance for the caller of at least `subtractedValue`."
      },
      "increaseAllowance(address,uint256)": {
        "details": "Atomically increases the allowance granted to `spender` by the caller. This is an alternative to {approve} that can be used as a mitigation for problems described in {IERC20-approve}. Emits an {Approval} event indicating the updated allowance. Requirements: - `spender` cannot be the zero address."
      },
      "name()": {
        "details": "Returns the name of the token."
      },
      "nonces(address)": {
        "details": "See {IERC20Permit-nonces}."
      },
      "permit(address,address,uint256,uint256,uint8,bytes32,bytes32)": {
        "details": "See {IERC20Permit-permit}."
      },
      "rebase(uint256,uint256)": {
        "params": {
          "profit_": "uint256"
        },
        "returns": {
          "_0": "uint256"
        }
      },
      "symbol()": {
        "details": "Returns the symbol of the token, usually a shorter version of the name."
      },
      "totalSupply()": {
        "details": "See {IERC20-totalSupply}."
      }
    },
    "version": 1
  },
  "userdoc": {
    "kind": "user",
    "methods": {
      "rebase(uint256,uint256)": {
        "notice": "increases sREQT supply to increase staking balances relative to profit_"
      }
    },
    "version": 1
  },
  "storageLayout": {
    "storage": [
      {
        "astId": 8324,
        "contract": "contracts/sRequiemERC20.sol:sRequiem",
        "label": "_balances",
        "offset": 0,
        "slot": "0",
        "type": "t_mapping(t_address,t_uint256)"
      },
      {
        "astId": 8330,
        "contract": "contracts/sRequiemERC20.sol:sRequiem",
        "label": "_allowances",
        "offset": 0,
        "slot": "1",
        "type": "t_mapping(t_address,t_mapping(t_address,t_uint256))"
      },
      {
        "astId": 8332,
        "contract": "contracts/sRequiemERC20.sol:sRequiem",
        "label": "_totalSupply",
        "offset": 0,
        "slot": "2",
        "type": "t_uint256"
      },
      {
        "astId": 8334,
        "contract": "contracts/sRequiemERC20.sol:sRequiem",
        "label": "_name",
        "offset": 0,
        "slot": "3",
        "type": "t_string_storage"
      },
      {
        "astId": 8336,
        "contract": "contracts/sRequiemERC20.sol:sRequiem",
        "label": "_symbol",
        "offset": 0,
        "slot": "4",
        "type": "t_string_storage"
      },
      {
        "astId": 8338,
        "contract": "contracts/sRequiemERC20.sol:sRequiem",
        "label": "_decimals",
        "offset": 0,
        "slot": "5",
        "type": "t_uint8"
      },
      {
        "astId": 8880,
        "contract": "contracts/sRequiemERC20.sol:sRequiem",
        "label": "_nonces",
        "offset": 0,
        "slot": "6",
        "type": "t_mapping(t_address,t_uint256)"
      },
      {
        "astId": 9022,
        "contract": "contracts/sRequiemERC20.sol:sRequiem",
        "label": "_owner",
        "offset": 0,
        "slot": "7",
        "type": "t_address"
      },
      {
        "astId": 9024,
        "contract": "contracts/sRequiemERC20.sol:sRequiem",
        "label": "_newOwner",
        "offset": 0,
        "slot": "8",
        "type": "t_address"
      },
      {
        "astId": 13893,
        "contract": "contracts/sRequiemERC20.sol:sRequiem",
        "label": "stakingContract",
        "offset": 0,
        "slot": "9",
        "type": "t_address"
      },
      {
        "astId": 13895,
        "contract": "contracts/sRequiemERC20.sol:sRequiem",
        "label": "initializer",
        "offset": 0,
        "slot": "10",
        "type": "t_address"
      },
      {
        "astId": 13934,
        "contract": "contracts/sRequiemERC20.sol:sRequiem",
        "label": "rebases",
        "offset": 0,
        "slot": "11",
        "type": "t_array(t_struct(Rebase)13930_storage)dyn_storage"
      },
      {
        "astId": 13936,
        "contract": "contracts/sRequiemERC20.sol:sRequiem",
        "label": "INDEX",
        "offset": 0,
        "slot": "12",
        "type": "t_uint256"
      },
      {
        "astId": 13967,
        "contract": "contracts/sRequiemERC20.sol:sRequiem",
        "label": "_gonsPerFragment",
        "offset": 0,
        "slot": "13",
        "type": "t_uint256"
      },
      {
        "astId": 13971,
        "contract": "contracts/sRequiemERC20.sol:sRequiem",
        "label": "_gonBalances",
        "offset": 0,
        "slot": "14",
        "type": "t_mapping(t_address,t_uint256)"
      },
      {
        "astId": 13977,
        "contract": "contracts/sRequiemERC20.sol:sRequiem",
        "label": "_allowedValue",
        "offset": 0,
        "slot": "15",
        "type": "t_mapping(t_address,t_mapping(t_address,t_uint256))"
      }
    ],
    "types": {
      "t_address": {
        "encoding": "inplace",
        "label": "address",
        "numberOfBytes": "20"
      },
      "t_array(t_struct(Rebase)13930_storage)dyn_storage": {
        "base": "t_struct(Rebase)13930_storage",
        "encoding": "dynamic_array",
        "label": "struct sRequiem.Rebase[]",
        "numberOfBytes": "32"
      },
      "t_mapping(t_address,t_mapping(t_address,t_uint256))": {
        "encoding": "mapping",
        "key": "t_address",
        "label": "mapping(address => mapping(address => uint256))",
        "numberOfBytes": "32",
        "value": "t_mapping(t_address,t_uint256)"
      },
      "t_mapping(t_address,t_uint256)": {
        "encoding": "mapping",
        "key": "t_address",
        "label": "mapping(address => uint256)",
        "numberOfBytes": "32",
        "value": "t_uint256"
      },
      "t_string_storage": {
        "encoding": "bytes",
        "label": "string",
        "numberOfBytes": "32"
      },
      "t_struct(Rebase)13930_storage": {
        "encoding": "inplace",
        "label": "struct sRequiem.Rebase",
        "members": [
          {
            "astId": 13917,
            "contract": "contracts/sRequiemERC20.sol:sRequiem",
            "label": "epoch",
            "offset": 0,
            "slot": "0",
            "type": "t_uint256"
          },
          {
            "astId": 13919,
            "contract": "contracts/sRequiemERC20.sol:sRequiem",
            "label": "rebase",
            "offset": 0,
            "slot": "1",
            "type": "t_uint256"
          },
          {
            "astId": 13921,
            "contract": "contracts/sRequiemERC20.sol:sRequiem",
            "label": "totalStakedBefore",
            "offset": 0,
            "slot": "2",
            "type": "t_uint256"
          },
          {
            "astId": 13923,
            "contract": "contracts/sRequiemERC20.sol:sRequiem",
            "label": "totalStakedAfter",
            "offset": 0,
            "slot": "3",
            "type": "t_uint256"
          },
          {
            "astId": 13925,
            "contract": "contracts/sRequiemERC20.sol:sRequiem",
            "label": "amountRebased",
            "offset": 0,
            "slot": "4",
            "type": "t_uint256"
          },
          {
            "astId": 13927,
            "contract": "contracts/sRequiemERC20.sol:sRequiem",
            "label": "index",
            "offset": 0,
            "slot": "5",
            "type": "t_uint256"
          },
          {
            "astId": 13929,
            "contract": "contracts/sRequiemERC20.sol:sRequiem",
            "label": "blockNumberOccured",
            "offset": 0,
            "slot": "6",
            "type": "t_uint256"
          }
        ],
        "numberOfBytes": "224"
      },
      "t_uint256": {
        "encoding": "inplace",
        "label": "uint256",
        "numberOfBytes": "32"
      },
      "t_uint8": {
        "encoding": "inplace",
        "label": "uint8",
        "numberOfBytes": "1"
      }
    }
  }
}