{
  "_format": "hh-sol-artifact-1",
  "contractName": "MockOlympusTreasury",
  "sourceName": "contracts/mocks/MockTreasury.sol",
  "abi": [
    {
      "inputs": [
        {
          "internalType": "address",
          "name": "_OHM",
          "type": "address"
        },
        {
          "internalType": "address",
          "name": "_DAI",
          "type": "address"
        },
        {
          "internalType": "address",
          "name": "_Frax",
          "type": "address"
        },
        {
          "internalType": "uint256",
          "name": "_blocksNeededForQueue",
          "type": "uint256"
        }
      ],
      "stateMutability": "nonpayable",
      "type": "constructor"
    },
    {
      "anonymous": false,
      "inputs": [
        {
          "indexed": true,
          "internalType": "enum MockOlympusTreasury.MANAGING",
          "name": "managing",
          "type": "uint8"
        },
        {
          "indexed": false,
          "internalType": "address",
          "name": "activated",
          "type": "address"
        },
        {
          "indexed": false,
          "internalType": "bool",
          "name": "result",
          "type": "bool"
        }
      ],
      "name": "ChangeActivated",
      "type": "event"
    },
    {
      "anonymous": false,
      "inputs": [
        {
          "indexed": true,
          "internalType": "enum MockOlympusTreasury.MANAGING",
          "name": "managing",
          "type": "uint8"
        },
        {
          "indexed": false,
          "internalType": "address",
          "name": "queued",
          "type": "address"
        }
      ],
      "name": "ChangeQueued",
      "type": "event"
    },
    {
      "anonymous": false,
      "inputs": [
        {
          "indexed": true,
          "internalType": "address",
          "name": "debtor",
          "type": "address"
        },
        {
          "indexed": true,
          "internalType": "address",
          "name": "token",
          "type": "address"
        },
        {
          "indexed": false,
          "internalType": "uint256",
          "name": "amount",
          "type": "uint256"
        },
        {
          "indexed": false,
          "internalType": "uint256",
          "name": "value",
          "type": "uint256"
        }
      ],
      "name": "CreateDebt",
      "type": "event"
    },
    {
      "anonymous": false,
      "inputs": [
        {
          "indexed": true,
          "internalType": "address",
          "name": "token",
          "type": "address"
        },
        {
          "indexed": false,
          "internalType": "uint256",
          "name": "amount",
          "type": "uint256"
        },
        {
          "indexed": false,
          "internalType": "uint256",
          "name": "value",
          "type": "uint256"
        }
      ],
      "name": "Deposit",
      "type": "event"
    },
    {
      "anonymous": false,
      "inputs": [
        {
          "indexed": true,
          "internalType": "address",
          "name": "previousOwner",
          "type": "address"
        },
        {
          "indexed": true,
          "internalType": "address",
          "name": "newOwner",
          "type": "address"
        }
      ],
      "name": "OwnershipPulled",
      "type": "event"
    },
    {
      "anonymous": false,
      "inputs": [
        {
          "indexed": true,
          "internalType": "address",
          "name": "previousOwner",
          "type": "address"
        },
        {
          "indexed": true,
          "internalType": "address",
          "name": "newOwner",
          "type": "address"
        }
      ],
      "name": "OwnershipPushed",
      "type": "event"
    },
    {
      "anonymous": false,
      "inputs": [
        {
          "indexed": true,
          "internalType": "address",
          "name": "debtor",
          "type": "address"
        },
        {
          "indexed": true,
          "internalType": "address",
          "name": "token",
          "type": "address"
        },
        {
          "indexed": false,
          "internalType": "uint256",
          "name": "amount",
          "type": "uint256"
        },
        {
          "indexed": false,
          "internalType": "uint256",
          "name": "value",
          "type": "uint256"
        }
      ],
      "name": "RepayDebt",
      "type": "event"
    },
    {
      "anonymous": false,
      "inputs": [
        {
          "indexed": true,
          "internalType": "uint256",
          "name": "totalReserves",
          "type": "uint256"
        }
      ],
      "name": "ReservesAudited",
      "type": "event"
    },
    {
      "anonymous": false,
      "inputs": [
        {
          "indexed": true,
          "internalType": "address",
          "name": "token",
          "type": "address"
        },
        {
          "indexed": false,
          "internalType": "uint256",
          "name": "amount",
          "type": "uint256"
        }
      ],
      "name": "ReservesManaged",
      "type": "event"
    },
    {
      "anonymous": false,
      "inputs": [
        {
          "indexed": true,
          "internalType": "uint256",
          "name": "totalReserves",
          "type": "uint256"
        }
      ],
      "name": "ReservesUpdated",
      "type": "event"
    },
    {
      "anonymous": false,
      "inputs": [
        {
          "indexed": true,
          "internalType": "address",
          "name": "caller",
          "type": "address"
        },
        {
          "indexed": true,
          "internalType": "address",
          "name": "recipient",
          "type": "address"
        },
        {
          "indexed": false,
          "internalType": "uint256",
          "name": "amount",
          "type": "uint256"
        }
      ],
      "name": "RewardsMinted",
      "type": "event"
    },
    {
      "anonymous": false,
      "inputs": [
        {
          "indexed": true,
          "internalType": "address",
          "name": "token",
          "type": "address"
        },
        {
          "indexed": false,
          "internalType": "uint256",
          "name": "amount",
          "type": "uint256"
        },
        {
          "indexed": false,
          "internalType": "uint256",
          "name": "value",
          "type": "uint256"
        }
      ],
      "name": "Withdrawal",
      "type": "event"
    },
    {
      "inputs": [
        {
          "internalType": "address",
          "name": "",
          "type": "address"
        }
      ],
      "name": "LiquidityDepositorQueue",
      "outputs": [
        {
          "internalType": "uint256",
          "name": "",
          "type": "uint256"
        }
      ],
      "stateMutability": "view",
      "type": "function"
    },
    {
      "inputs": [
        {
          "internalType": "address",
          "name": "",
          "type": "address"
        }
      ],
      "name": "LiquidityManagerQueue",
      "outputs": [
        {
          "internalType": "uint256",
          "name": "",
          "type": "uint256"
        }
      ],
      "stateMutability": "view",
      "type": "function"
    },
    {
      "inputs": [
        {
          "internalType": "address",
          "name": "",
          "type": "address"
        }
      ],
      "name": "LiquidityTokenQueue",
      "outputs": [
        {
          "internalType": "uint256",
          "name": "",
          "type": "uint256"
        }
      ],
      "stateMutability": "view",
      "type": "function"
    },
    {
      "inputs": [],
      "name": "OHM",
      "outputs": [
        {
          "internalType": "address",
          "name": "",
          "type": "address"
        }
      ],
      "stateMutability": "view",
      "type": "function"
    },
    {
      "inputs": [
        {
          "internalType": "address",
          "name": "",
          "type": "address"
        }
      ],
      "name": "ReserveManagerQueue",
      "outputs": [
        {
          "internalType": "uint256",
          "name": "",
          "type": "uint256"
        }
      ],
      "stateMutability": "view",
      "type": "function"
    },
    {
      "inputs": [],
      "name": "auditReserves",
      "outputs": [],
      "stateMutability": "nonpayable",
      "type": "function"
    },
    {
      "inputs": [],
      "name": "blocksNeededForQueue",
      "outputs": [
        {
          "internalType": "uint256",
          "name": "",
          "type": "uint256"
        }
      ],
      "stateMutability": "view",
      "type": "function"
    },
    {
      "inputs": [
        {
          "internalType": "address",
          "name": "",
          "type": "address"
        }
      ],
      "name": "bondCalculator",
      "outputs": [
        {
          "internalType": "address",
          "name": "",
          "type": "address"
        }
      ],
      "stateMutability": "view",
      "type": "function"
    },
    {
      "inputs": [
        {
          "internalType": "address",
          "name": "",
          "type": "address"
        }
      ],
      "name": "debtorBalance",
      "outputs": [
        {
          "internalType": "uint256",
          "name": "",
          "type": "uint256"
        }
      ],
      "stateMutability": "view",
      "type": "function"
    },
    {
      "inputs": [
        {
          "internalType": "address",
          "name": "",
          "type": "address"
        }
      ],
      "name": "debtorQueue",
      "outputs": [
        {
          "internalType": "uint256",
          "name": "",
          "type": "uint256"
        }
      ],
      "stateMutability": "view",
      "type": "function"
    },
    {
      "inputs": [
        {
          "internalType": "uint256",
          "name": "",
          "type": "uint256"
        }
      ],
      "name": "debtors",
      "outputs": [
        {
          "internalType": "address",
          "name": "",
          "type": "address"
        }
      ],
      "stateMutability": "view",
      "type": "function"
    },
    {
      "inputs": [
        {
          "internalType": "uint256",
          "name": "_amount",
          "type": "uint256"
        },
        {
          "internalType": "address",
          "name": "_token",
          "type": "address"
        },
        {
          "internalType": "uint256",
          "name": "_profit",
          "type": "uint256"
        }
      ],
      "name": "deposit",
      "outputs": [
        {
          "internalType": "uint256",
          "name": "send_",
          "type": "uint256"
        }
      ],
      "stateMutability": "nonpayable",
      "type": "function"
    },
    {
      "inputs": [],
      "name": "excessReserves",
      "outputs": [
        {
          "internalType": "uint256",
          "name": "",
          "type": "uint256"
        }
      ],
      "stateMutability": "view",
      "type": "function"
    },
    {
      "inputs": [
        {
          "internalType": "uint256",
          "name": "_amount",
          "type": "uint256"
        },
        {
          "internalType": "address",
          "name": "_token",
          "type": "address"
        }
      ],
      "name": "incurDebt",
      "outputs": [],
      "stateMutability": "nonpayable",
      "type": "function"
    },
    {
      "inputs": [
        {
          "internalType": "address",
          "name": "",
          "type": "address"
        }
      ],
      "name": "isDebtor",
      "outputs": [
        {
          "internalType": "bool",
          "name": "",
          "type": "bool"
        }
      ],
      "stateMutability": "view",
      "type": "function"
    },
    {
      "inputs": [
        {
          "internalType": "address",
          "name": "",
          "type": "address"
        }
      ],
      "name": "isLiquidityDepositor",
      "outputs": [
        {
          "internalType": "bool",
          "name": "",
          "type": "bool"
        }
      ],
      "stateMutability": "view",
      "type": "function"
    },
    {
      "inputs": [
        {
          "internalType": "address",
          "name": "",
          "type": "address"
        }
      ],
      "name": "isLiquidityManager",
      "outputs": [
        {
          "internalType": "bool",
          "name": "",
          "type": "bool"
        }
      ],
      "stateMutability": "view",
      "type": "function"
    },
    {
      "inputs": [
        {
          "internalType": "address",
          "name": "",
          "type": "address"
        }
      ],
      "name": "isLiquidityToken",
      "outputs": [
        {
          "internalType": "bool",
          "name": "",
          "type": "bool"
        }
      ],
      "stateMutability": "view",
      "type": "function"
    },
    {
      "inputs": [
        {
          "internalType": "address",
          "name": "",
          "type": "address"
        }
      ],
      "name": "isReserveDepositor",
      "outputs": [
        {
          "internalType": "bool",
          "name": "",
          "type": "bool"
        }
      ],
      "stateMutability": "view",
      "type": "function"
    },
    {
      "inputs": [
        {
          "internalType": "address",
          "name": "",
          "type": "address"
        }
      ],
      "name": "isReserveManager",
      "outputs": [
        {
          "internalType": "bool",
          "name": "",
          "type": "bool"
        }
      ],
      "stateMutability": "view",
      "type": "function"
    },
    {
      "inputs": [
        {
          "internalType": "address",
          "name": "",
          "type": "address"
        }
      ],
      "name": "isReserveSpender",
      "outputs": [
        {
          "internalType": "bool",
          "name": "",
          "type": "bool"
        }
      ],
      "stateMutability": "view",
      "type": "function"
    },
    {
      "inputs": [
        {
          "internalType": "address",
          "name": "",
          "type": "address"
        }
      ],
      "name": "isReserveToken",
      "outputs": [
        {
          "internalType": "bool",
          "name": "",
          "type": "bool"
        }
      ],
      "stateMutability": "view",
      "type": "function"
    },
    {
      "inputs": [
        {
          "internalType": "address",
          "name": "",
          "type": "address"
        }
      ],
      "name": "isRewardManager",
      "outputs": [
        {
          "internalType": "bool",
          "name": "",
          "type": "bool"
        }
      ],
      "stateMutability": "view",
      "type": "function"
    },
    {
      "inputs": [
        {
          "internalType": "uint256",
          "name": "",
          "type": "uint256"
        }
      ],
      "name": "liquidityDepositors",
      "outputs": [
        {
          "internalType": "address",
          "name": "",
          "type": "address"
        }
      ],
      "stateMutability": "view",
      "type": "function"
    },
    {
      "inputs": [
        {
          "internalType": "uint256",
          "name": "",
          "type": "uint256"
        }
      ],
      "name": "liquidityManagers",
      "outputs": [
        {
          "internalType": "address",
          "name": "",
          "type": "address"
        }
      ],
      "stateMutability": "view",
      "type": "function"
    },
    {
      "inputs": [
        {
          "internalType": "uint256",
          "name": "",
          "type": "uint256"
        }
      ],
      "name": "liquidityTokens",
      "outputs": [
        {
          "internalType": "address",
          "name": "",
          "type": "address"
        }
      ],
      "stateMutability": "view",
      "type": "function"
    },
    {
      "inputs": [
        {
          "internalType": "address",
          "name": "_token",
          "type": "address"
        },
        {
          "internalType": "uint256",
          "name": "_amount",
          "type": "uint256"
        }
      ],
      "name": "manage",
      "outputs": [],
      "stateMutability": "nonpayable",
      "type": "function"
    },
    {
      "inputs": [],
      "name": "manager",
      "outputs": [
        {
          "internalType": "address",
          "name": "",
          "type": "address"
        }
      ],
      "stateMutability": "view",
      "type": "function"
    },
    {
      "inputs": [
        {
          "internalType": "address",
          "name": "_recipient",
          "type": "address"
        },
        {
          "internalType": "uint256",
          "name": "_amount",
          "type": "uint256"
        }
      ],
      "name": "mintRewards",
      "outputs": [],
      "stateMutability": "nonpayable",
      "type": "function"
    },
    {
      "inputs": [],
      "name": "pullManagement",
      "outputs": [],
      "stateMutability": "nonpayable",
      "type": "function"
    },
    {
      "inputs": [
        {
          "internalType": "address",
          "name": "newOwner_",
          "type": "address"
        }
      ],
      "name": "pushManagement",
      "outputs": [],
      "stateMutability": "nonpayable",
      "type": "function"
    },
    {
      "inputs": [
        {
          "internalType": "enum MockOlympusTreasury.MANAGING",
          "name": "_managing",
          "type": "uint8"
        },
        {
          "internalType": "address",
          "name": "_address",
          "type": "address"
        }
      ],
      "name": "queue",
      "outputs": [
        {
          "internalType": "bool",
          "name": "",
          "type": "bool"
        }
      ],
      "stateMutability": "nonpayable",
      "type": "function"
    },
    {
      "inputs": [],
      "name": "renounceManagement",
      "outputs": [],
      "stateMutability": "nonpayable",
      "type": "function"
    },
    {
      "inputs": [
        {
          "internalType": "uint256",
          "name": "_amount",
          "type": "uint256"
        }
      ],
      "name": "repayDebtWithOHM",
      "outputs": [],
      "stateMutability": "nonpayable",
      "type": "function"
    },
    {
      "inputs": [
        {
          "internalType": "uint256",
          "name": "_amount",
          "type": "uint256"
        },
        {
          "internalType": "address",
          "name": "_token",
          "type": "address"
        }
      ],
      "name": "repayDebtWithReserve",
      "outputs": [],
      "stateMutability": "nonpayable",
      "type": "function"
    },
    {
      "inputs": [
        {
          "internalType": "address",
          "name": "",
          "type": "address"
        }
      ],
      "name": "reserveDepositorQueue",
      "outputs": [
        {
          "internalType": "uint256",
          "name": "",
          "type": "uint256"
        }
      ],
      "stateMutability": "view",
      "type": "function"
    },
    {
      "inputs": [
        {
          "internalType": "uint256",
          "name": "",
          "type": "uint256"
        }
      ],
      "name": "reserveDepositors",
      "outputs": [
        {
          "internalType": "address",
          "name": "",
          "type": "address"
        }
      ],
      "stateMutability": "view",
      "type": "function"
    },
    {
      "inputs": [
        {
          "internalType": "uint256",
          "name": "",
          "type": "uint256"
        }
      ],
      "name": "reserveManagers",
      "outputs": [
        {
          "internalType": "address",
          "name": "",
          "type": "address"
        }
      ],
      "stateMutability": "view",
      "type": "function"
    },
    {
      "inputs": [
        {
          "internalType": "address",
          "name": "",
          "type": "address"
        }
      ],
      "name": "reserveSpenderQueue",
      "outputs": [
        {
          "internalType": "uint256",
          "name": "",
          "type": "uint256"
        }
      ],
      "stateMutability": "view",
      "type": "function"
    },
    {
      "inputs": [
        {
          "internalType": "uint256",
          "name": "",
          "type": "uint256"
        }
      ],
      "name": "reserveSpenders",
      "outputs": [
        {
          "internalType": "address",
          "name": "",
          "type": "address"
        }
      ],
      "stateMutability": "view",
      "type": "function"
    },
    {
      "inputs": [
        {
          "internalType": "address",
          "name": "",
          "type": "address"
        }
      ],
      "name": "reserveTokenQueue",
      "outputs": [
        {
          "internalType": "uint256",
          "name": "",
          "type": "uint256"
        }
      ],
      "stateMutability": "view",
      "type": "function"
    },
    {
      "inputs": [
        {
          "internalType": "uint256",
          "name": "",
          "type": "uint256"
        }
      ],
      "name": "reserveTokens",
      "outputs": [
        {
          "internalType": "address",
          "name": "",
          "type": "address"
        }
      ],
      "stateMutability": "view",
      "type": "function"
    },
    {
      "inputs": [
        {
          "internalType": "address",
          "name": "",
          "type": "address"
        }
      ],
      "name": "rewardManagerQueue",
      "outputs": [
        {
          "internalType": "uint256",
          "name": "",
          "type": "uint256"
        }
      ],
      "stateMutability": "view",
      "type": "function"
    },
    {
      "inputs": [
        {
          "internalType": "uint256",
          "name": "",
          "type": "uint256"
        }
      ],
      "name": "rewardManagers",
      "outputs": [
        {
          "internalType": "address",
          "name": "",
          "type": "address"
        }
      ],
      "stateMutability": "view",
      "type": "function"
    },
    {
      "inputs": [],
      "name": "sOHM",
      "outputs": [
        {
          "internalType": "address",
          "name": "",
          "type": "address"
        }
      ],
      "stateMutability": "view",
      "type": "function"
    },
    {
      "inputs": [],
      "name": "sOHMQueue",
      "outputs": [
        {
          "internalType": "uint256",
          "name": "",
          "type": "uint256"
        }
      ],
      "stateMutability": "view",
      "type": "function"
    },
    {
      "inputs": [
        {
          "internalType": "enum MockOlympusTreasury.MANAGING",
          "name": "_managing",
          "type": "uint8"
        },
        {
          "internalType": "address",
          "name": "_address",
          "type": "address"
        },
        {
          "internalType": "address",
          "name": "_calculator",
          "type": "address"
        }
      ],
      "name": "toggle",
      "outputs": [
        {
          "internalType": "bool",
          "name": "",
          "type": "bool"
        }
      ],
      "stateMutability": "nonpayable",
      "type": "function"
    },
    {
      "inputs": [],
      "name": "totalDebt",
      "outputs": [
        {
          "internalType": "uint256",
          "name": "",
          "type": "uint256"
        }
      ],
      "stateMutability": "view",
      "type": "function"
    },
    {
      "inputs": [],
      "name": "totalReserves",
      "outputs": [
        {
          "internalType": "uint256",
          "name": "",
          "type": "uint256"
        }
      ],
      "stateMutability": "view",
      "type": "function"
    },
    {
      "inputs": [
        {
          "internalType": "address",
          "name": "_token",
          "type": "address"
        },
        {
          "internalType": "uint256",
          "name": "_amount",
          "type": "uint256"
        }
      ],
      "name": "valueOfToken",
      "outputs": [
        {
          "internalType": "uint256",
          "name": "value_",
          "type": "uint256"
        }
      ],
      "stateMutability": "view",
      "type": "function"
    },
    {
      "inputs": [
        {
          "internalType": "uint256",
          "name": "_amount",
          "type": "uint256"
        },
        {
          "internalType": "address",
          "name": "_token",
          "type": "address"
        }
      ],
      "name": "withdraw",
      "outputs": [],
      "stateMutability": "nonpayable",
      "type": "function"
    }
  ],
  "bytecode": "0x60c06040523480156200001157600080fd5b506040516200340138038062003401833981016040819052620000349162000149565b600080546001600160a01b0319163390811782556040519091907fea8258f2d9ddb679928cf34b78cf645b7feda9acc828e4dd82d014eaae270eba908290a36001600160a01b0384166200008757600080fd5b6001600160a01b039384166080529183166000818152600360205260408082208054600160ff1991821681179092556002805480840182557f405787fa12a823e0f2b7631cc41b3ba8828b3321ca811111fa75cd3aa3bb5ace90810180546001600160a01b0319908116909817905596909816808552928420805490911682179055865490810187559590915293909101805490911690921790915560a0526200019b565b80516001600160a01b03811681146200014457600080fd5b919050565b600080600080608085870312156200016057600080fd5b6200016b856200012c565b93506200017b602086016200012c565b92506200018b604086016200012c565b6060959095015193969295505050565b60805160a0516131c962000238600039600081816106cc01528181611a8801528181611aea01528181611b4c01528181611bb001528181611c1b01528181611c7d01528181611ce101528181611d4501528181611da70152611e090152600081816105ec0152818161089f01528181610b8f01528181610c6e01528181610d1d015281816114080152818161162301526117a301526131c96000f3fe608060405234801561001057600080fd5b50600436106102f05760003560e01c80638f59c7271161019d578063d031370b116100e9578063ebd83cd8116100a2578063fbfd393b1161007c578063fbfd393b146107b0578063fc7b9c18146107c3578063fd1ec010146107cc578063fff9ee87146107df57600080fd5b8063ebd83cd81461074a578063ee4e19a11461076d578063fb9395881461079057600080fd5b8063d031370b146106b4578063d07f390f146106c7578063d1b317e5146106ee578063d796ffb814610701578063df89b34414610714578063e83afee31461073757600080fd5b8063a6c41fec11610156578063b5b1d56011610130578063b5b1d5601461064e578063bc157ac114610661578063c24ad43e14610674578063cd85641a1461069457600080fd5b8063a6c41fec146105e7578063ab319c9a1461060e578063b1bd38b01461062e57600080fd5b80638f59c727146105455780638f6a7b57146105655780638f840ddd14610578578063932cc8c314610581578063a1210a2d146105a1578063a569e571146105c457600080fd5b80632b7ce5001161025c57806368c31dd51161021557806370a0502a116101ef57806370a0502a146104dc578063788c6c01146104ef578063869871bf1461050f57806387d67dff1461052257600080fd5b806368c31dd5146104935780636a20de92146104b65780636b5e40a7146104c957600080fd5b80632b7ce50014610429578063437f79121461043157806346f68ee914610444578063481c6a75146104575780634e83423c146104685780635a96ac0a1461048b57600080fd5b80630f70431f116102ae5780630f70431f1461038b578063124154ca1461039e57806312422d23146103d157806315079925146103e45780631af4da70146103f75780632789de371461042057600080fd5b8062f714ce146102f55780630619aff11461030a578063089208d81461033a578063094a8651146103425780630b0eee30146103705780630c3513a814610383575b600080fd5b610308610303366004612d1e565b6107ff565b005b61031d610318366004612d4a565b61098b565b6040516001600160a01b0390911681526020015b60405180910390f35b6103086109b5565b610362610350366004612d63565b601b6020526000908152604090205481565b604051908152602001610331565b61030861037e366004612d7e565b610a29565b610362610b82565b610308610399366004612d4a565b610c23565b6103c16103ac366004612d63565b60066020526000908152604090205460ff1681565b6040519015158152602001610331565b6103086103df366004612d1e565b610d76565b601f5461031d906001600160a01b031681565b61031d610405366004612d63565b6011602052600090815260409020546001600160a01b031681565b61036260205481565b610308610fe3565b61031d61043f366004612d4a565b6111a4565b610308610452366004612d63565b6111b4565b6000546001600160a01b031661031d565b6103c1610476366004612d63565b601d6020526000908152604090205460ff1681565b61030861129e565b6103c16104a1366004612d63565b60036020526000908152604090205460ff1681565b6103086104c4366004612d7e565b611364565b61031d6104d7366004612d4a565b6114a8565b61031d6104ea366004612d4a565b6114b8565b6103626104fd366004612d63565b60046020526000908152604090205481565b61031d61051d366004612d4a565b6114c8565b6103c1610530366004612d63565b60096020526000908152604090205460ff1681565b610362610553366004612d63565b600d6020526000908152604090205481565b61031d610573366004612d4a565b6114d8565b61036260215481565b61036261058f366004612d63565b60076020526000908152604090205481565b6103c16105af366004612d63565b600f6020526000908152604090205460ff1681565b6103c16105d2366004612d63565b600c6020526000908152604090205460ff1681565b61031d7f000000000000000000000000000000000000000000000000000000000000000081565b61036261061c366004612d63565b60176020526000908152604090205481565b61036261063c366004612d63565b60146020526000908152604090205481565b61031d61065c366004612d4a565b6114e8565b61036261066f366004612da8565b6114f8565b610362610682366004612d63565b600a6020526000908152604090205481565b6103626106a2366004612d63565b601a6020526000908152604090205481565b61031d6106c2366004612d4a565b6116fd565b6103627f000000000000000000000000000000000000000000000000000000000000000081565b6103626106fc366004612d7e565b61170d565b61030861070f366004612d1e565b6118f1565b6103c1610722366004612d63565b60166020526000908152604090205460ff1681565b6103c1610745366004612dec565b611a2a565b6103c1610758366004612d63565b60136020526000908152604090205460ff1681565b6103c161077b366004612d63565b60196020526000908152604090205460ff1681565b61036261079e366004612d63565b601e6020526000908152604090205481565b6103c16107be366004612e16565b611e94565b61036260225481565b61031d6107da366004612d4a565b61276d565b6103626107ed366004612d63565b60106020526000908152604090205481565b6001600160a01b03811660009081526003602052604090205460ff166108405760405162461bcd60e51b815260040161083790612e59565b60405180910390fd5b3360009081526009602052604090205460ff1615156001146108745760405162461bcd60e51b815260040161083790612e7f565b6000610880828461170d565b60405163079cc67960e41b8152336004820152602481018290529091507f00000000000000000000000000000000000000000000000000000000000000006001600160a01b0316906379cc679090604401600060405180830381600087803b1580156108eb57600080fd5b505af11580156108ff573d6000803e3d6000fd5b5050602154610911925090508261277d565b602181905560405160008051602061317483398151915290600090a26109416001600160a01b03831633856127bf565b60408051848152602081018390526001600160a01b038416917fdf273cb619d95419a9cd0ec88123a0538c85064229baa6363788f743fff90deb91015b60405180910390a2505050565b6012818154811061099b57600080fd5b6000918252602090912001546001600160a01b0316905081565b6000546001600160a01b031633146109df5760405162461bcd60e51b815260040161083790612ea5565b600080546040516001600160a01b03909116907fea8258f2d9ddb679928cf34b78cf645b7feda9acc828e4dd82d014eaae270eba908390a3600080546001600160a01b0319169055565b6001600160a01b0382166000908152600c602052604090205460ff1615610a7e573360009081526016602052604090205460ff16610a795760405162461bcd60e51b815260040161083790612e7f565b610aad565b3360009081526013602052604090205460ff16610aad5760405162461bcd60e51b815260040161083790612e7f565b6000610ab9838361170d565b9050610ac3610b82565b811115610b0a5760405162461bcd60e51b8152602060048201526015602482015274496e73756666696369656e7420726573657276657360581b6044820152606401610837565b602154610b17908261277d565b602181905560405160008051602061317483398151915290600090a2610b476001600160a01b03841633846127bf565b826001600160a01b03167f2bb2640731848fe9820ba48dbc978c1fc9bbd5f11b948bfab05b7dee3378fd808360405161097e91815260200190565b6000610c1e610c156022547f00000000000000000000000000000000000000000000000000000000000000006001600160a01b03166318160ddd6040518163ffffffff1660e01b8152600401602060405180830381865afa158015610beb573d6000803e3d6000fd5b505050506040513d601f19601f82011682018060405250810190610c0f9190612eda565b9061277d565b6021549061277d565b905090565b3360009081526019602052604090205460ff16610c525760405162461bcd60e51b815260040161083790612e7f565b60405163079cc67960e41b8152336004820152602481018290527f00000000000000000000000000000000000000000000000000000000000000006001600160a01b0316906379cc679090604401600060405180830381600087803b158015610cba57600080fd5b505af1158015610cce573d6000803e3d6000fd5b5050336000908152601b6020526040902054610ced925090508261277d565b336000908152601b6020526040902055602254610d0a908261277d565b60225560408051828152602081018390527f00000000000000000000000000000000000000000000000000000000000000006001600160a01b03169133917fc6d98eecfc9c78ab62c89a82950079b54874749f1f6f24090f7acc758bc2f309910160405180910390a350565b3360009081526019602052604090205460ff16610da55760405162461bcd60e51b815260040161083790612e7f565b6001600160a01b03811660009081526003602052604090205460ff16610ddd5760405162461bcd60e51b815260040161083790612e59565b6000610de9828461170d565b601f546040516370a0823160e01b81523360048201529192506000916001600160a01b03909116906370a0823190602401602060405180830381865afa158015610e37573d6000803e3d6000fd5b505050506040513d601f19601f82011682018060405250810190610e5b9190612eda565b336000908152601b602052604081205491925090610e7a90839061277d565b905080831115610ec15760405162461bcd60e51b8152602060048201526012602482015271115e18d959591cc81919589d081b1a5b5a5d60721b6044820152606401610837565b336000908152601b6020526040902054610edb9084612827565b336000908152601b6020526040902055602254610ef89084612827565b602255602154610f08908461277d565b602181905560405160008051602061317483398151915290600090a260405163a9059cbb60e01b8152336004820152602481018690526001600160a01b0385169063a9059cbb906044016020604051808303816000875af1158015610f71573d6000803e3d6000fd5b505050506040513d601f19601f82011682018060405250810190610f959190612ef3565b5060408051868152602081018590526001600160a01b0386169133917f7e1a939bed137a819b5d2979822c67f877689f7a863d5e4cb57cdca97b2977d6910160405180910390a35050505050565b6000546001600160a01b0316331461100d5760405162461bcd60e51b815260040161083790612ea5565b6000805b6002548110156110f0576110dc6110d56002838154811061103457611034612f15565b600091825260209091200154600280546001600160a01b03909216918590811061106057611060612f15565b6000918252602090912001546040516370a0823160e01b81523060048201526001600160a01b03909116906370a0823190602401602060405180830381865afa1580156110b1573d6000803e3d6000fd5b505050506040513d601f19601f820116820180604052508101906106fc9190612eda565b8390612827565b9150806110e881612f41565b915050611011565b5060005b600b54811015611157576111436110d5600b838154811061111757611117612f15565b600091825260209091200154600b80546001600160a01b03909216918590811061106057611060612f15565b91508061114f81612f41565b9150506110f4565b506021819055604051819060008051602061317483398151915290600090a260405181907fec691f09f6924b27932253f85caf99bacc30360cc0e50a1cc4d2acc24601446690600090a250565b6008818154811061099b57600080fd5b6000546001600160a01b031633146111de5760405162461bcd60e51b815260040161083790612ea5565b6001600160a01b0381166112435760405162461bcd60e51b815260206004820152602660248201527f4f776e61626c653a206e6577206f776e657220697320746865207a65726f206160448201526564647265737360d01b6064820152608401610837565b600080546040516001600160a01b03808516939216917fea8258f2d9ddb679928cf34b78cf645b7feda9acc828e4dd82d014eaae270eba91a3600180546001600160a01b0319166001600160a01b0392909216919091179055565b6001546001600160a01b031633146113035760405162461bcd60e51b815260206004820152602260248201527f4f776e61626c653a206d757374206265206e6577206f776e657220746f2070756044820152611b1b60f21b6064820152608401610837565b600154600080546040516001600160a01b0393841693909116917faa151555690c956fc3ea32f106bb9f119b5237a061eaa8557cff3e51e3792c8d91a3600154600080546001600160a01b0319166001600160a01b03909216919091179055565b336000908152601d602052604090205460ff166113935760405162461bcd60e51b815260040161083790612e7f565b61139b610b82565b8111156113e25760405162461bcd60e51b8152602060048201526015602482015274496e73756666696369656e7420726573657276657360581b6044820152606401610837565b6040516340c10f1960e01b81526001600160a01b038381166004830152602482018390527f000000000000000000000000000000000000000000000000000000000000000016906340c10f1990604401600060405180830381600087803b15801561144c57600080fd5b505af1158015611460573d6000803e3d6000fd5b50506040518381526001600160a01b03851692503391507ffa8ccab40e7da8146c2304cd0950334fd30a6ba093abe86261aa13911fed849c9060200160405180910390a35050565b6005818154811061099b57600080fd5b6015818154811061099b57600080fd5b6018818154811061099b57600080fd5b600e818154811061099b57600080fd5b601c818154811061099b57600080fd5b6001600160a01b03821660009081526003602052604081205460ff168061153757506001600160a01b0383166000908152600c602052604090205460ff165b6115535760405162461bcd60e51b815260040161083790612e59565b6115686001600160a01b038416333087612886565b6001600160a01b03831660009081526003602052604090205460ff16156115bd573360009081526006602052604090205460ff166115b85760405162461bcd60e51b815260040161083790612e7f565b6115ec565b336000908152600f602052604090205460ff166115ec5760405162461bcd60e51b815260040161083790612e7f565b60006115f8848661170d565b9050611604818461277d565b6040516340c10f1960e01b8152336004820152602481018290529092507f00000000000000000000000000000000000000000000000000000000000000006001600160a01b0316906340c10f1990604401600060405180830381600087803b15801561166f57600080fd5b505af1158015611683573d6000803e3d6000fd5b50506021546116959250905082612827565b602181905560405160008051602061317483398151915290600090a260408051868152602081018390526001600160a01b038616917f90890809c654f11d6e72a28fa60149770a0d11ec6c92319d6ceb2bb0a4ea1a15910160405180910390a2509392505050565b6002818154811061099b57600080fd5b6001600160a01b03821660009081526003602052604081205460ff16156118425761183b836001600160a01b031663313ce5676040518163ffffffff1660e01b8152600401602060405180830381865afa15801561176f573d6000803e3d6000fd5b505050506040513d601f19601f820116820180604052508101906117939190612f5c565b61179e90600a613063565b6118357f00000000000000000000000000000000000000000000000000000000000000006001600160a01b031663313ce5676040518163ffffffff1660e01b8152600401602060405180830381865afa1580156117ff573d6000803e3d6000fd5b505050506040513d601f19601f820116820180604052508101906118239190612f5c565b61182e90600a613063565b85906128c4565b90612943565b90506118eb565b6001600160a01b0383166000908152600c602052604090205460ff16156118eb576001600160a01b0383811660008181526011602052604090819020549051634249719f60e01b815260048101929092526024820185905290911690634249719f90604401602060405180830381865afa1580156118c4573d6000803e3d6000fd5b505050506040513d601f19601f820116820180604052508101906118e89190612eda565b90505b92915050565b3360009081526019602052604090205460ff166119205760405162461bcd60e51b815260040161083790612e7f565b6001600160a01b03811660009081526003602052604090205460ff166119585760405162461bcd60e51b815260040161083790612e59565b61196d6001600160a01b038216333085612886565b6000611979828461170d565b336000908152601b6020526040902054909150611996908261277d565b336000908152601b60205260409020556022546119b3908261277d565b6022556021546119c39082612827565b602181905560405160008051602061317483398151915290600090a260408051848152602081018390526001600160a01b0384169133917fc6d98eecfc9c78ab62c89a82950079b54874749f1f6f24090f7acc758bc2f309910160405180910390a3505050565b600080546001600160a01b03163314611a555760405162461bcd60e51b815260040161083790612ea5565b6001600160a01b038216611a6857600080fd5b6000836009811115611a7c57611a7c613072565b1415611aca57611aac437f0000000000000000000000000000000000000000000000000000000000000000612827565b6001600160a01b038316600090815260076020526040902055611e3d565b6001836009811115611ade57611ade613072565b1415611b2c57611b0e437f0000000000000000000000000000000000000000000000000000000000000000612827565b6001600160a01b0383166000908152600a6020526040902055611e3d565b6002836009811115611b4057611b40613072565b1415611b8e57611b70437f0000000000000000000000000000000000000000000000000000000000000000612827565b6001600160a01b038316600090815260046020526040902055611e3d565b6003836009811115611ba257611ba2613072565b1415611bfb57611bdd611bd67f000000000000000000000000000000000000000000000000000000000000000060026128c4565b4390612827565b6001600160a01b038316600090815260146020526040902055611e3d565b6004836009811115611c0f57611c0f613072565b1415611c5d57611c3f437f0000000000000000000000000000000000000000000000000000000000000000612827565b6001600160a01b038316600090815260106020526040902055611e3d565b6005836009811115611c7157611c71613072565b1415611cbf57611ca1437f0000000000000000000000000000000000000000000000000000000000000000612827565b6001600160a01b0383166000908152600d6020526040902055611e3d565b6006836009811115611cd357611cd3613072565b1415611d2557611d07611bd67f000000000000000000000000000000000000000000000000000000000000000060026128c4565b6001600160a01b038316600090815260176020526040902055611e3d565b6007836009811115611d3957611d39613072565b1415611d8757611d69437f0000000000000000000000000000000000000000000000000000000000000000612827565b6001600160a01b0383166000908152601a6020526040902055611e3d565b6008836009811115611d9b57611d9b613072565b1415611de957611dcb437f0000000000000000000000000000000000000000000000000000000000000000612827565b6001600160a01b0383166000908152601e6020526040902055611e3d565b6009836009811115611dfd57611dfd613072565b1415611e3557611e2d437f0000000000000000000000000000000000000000000000000000000000000000612827565b602055611e3d565b5060006118eb565b826009811115611e4f57611e4f613072565b6040516001600160a01b03841681527f0e4f2c4b5bc209d509bc3d49348c787fefadc66a79351b470599ac0f5be52eaf9060200160405180910390a250600192915050565b600080546001600160a01b03163314611ebf5760405162461bcd60e51b815260040161083790612ea5565b6001600160a01b038316611ed257600080fd5b600080856009811115611ee757611ee7613072565b1415611fa357611efa6007600686612985565b15611f73576001600160a01b038416600090815260076020526040812055611f23600585612a65565b611f7357600580546001810182556000919091527f036b6384b5eca791c62761152d0c79bb0604c104a5fb6f4eb0703f3154bb3db00180546001600160a01b0319166001600160a01b0386161790555b506001600160a01b0383166000908152600660205260409020805460ff81161560ff19909116811790915561270b565b6001856009811115611fb757611fb7613072565b141561207357611fca600a600986612985565b15612043576001600160a01b0384166000908152600a6020526040812055611ff3600885612a65565b61204357600880546001810182556000919091527ff3f7a9fe364faab93b216da50a3214154f22a0a2b415b23a84c8169e8b636ee30180546001600160a01b0319166001600160a01b0386161790555b506001600160a01b0383166000908152600960205260409020805460ff81161560ff19909116811790915561270b565b600285600981111561208757612087613072565b14156121435761209a6004600386612985565b15612113576001600160a01b0384166000908152600460205260408120556120c3600285612a65565b61211357600280546001810182556000919091527f405787fa12a823e0f2b7631cc41b3ba8828b3321ca811111fa75cd3aa3bb5ace0180546001600160a01b0319166001600160a01b0386161790555b506001600160a01b0383166000908152600360205260409020805460ff81161560ff19909116811790915561270b565b600385600981111561215757612157613072565b14156122505761216a6014601386612985565b1561222057601280546001810182557fbb8a6a4669ba250d26cd7a459eca9d215f8307e33aebe50379bc5a3617ec34440180546001600160a01b0319166001600160a01b0387169081179091556000908152601460205260408120556121d09085612a65565b61222057601280546001810182556000919091527fbb8a6a4669ba250d26cd7a459eca9d215f8307e33aebe50379bc5a3617ec34440180546001600160a01b0319166001600160a01b0386161790555b506001600160a01b0383166000908152601360205260409020805460ff81161560ff19909116811790915561270b565b600485600981111561226457612264613072565b141561235d576122776010600f86612985565b1561232d57600e80546001810182557fbb7b4a454dc3493923482f07822329ed19e8244eff582cc204f8554c3620c3fd0180546001600160a01b0319166001600160a01b0387169081179091556000908152601060205260408120556122dd9085612a65565b61232d57600e80546001810182556000919091527fbb7b4a454dc3493923482f07822329ed19e8244eff582cc204f8554c3620c3fd0180546001600160a01b0319166001600160a01b0386161790555b506001600160a01b0383166000908152600f60205260409020805460ff81161560ff19909116811790915561270b565b600585600981111561237157612371613072565b141561244f57612384600d600c86612985565b156123fd576001600160a01b0384166000908152600d60205260408120556123ad600b85612a65565b6123fd57600b80546001810182556000919091527f0175b7a638427703f0dbe7bb9bbf987a2551717b34e79f33b5b1008d1fa01db90180546001600160a01b0319166001600160a01b0386161790555b506001600160a01b038381166000908152600c60209081526040808320805460ff81161560ff199091168117909155601190925290912080546001600160a01b0319169285169290921790915561270b565b600685600981111561246357612463613072565b141561251f576124766017601686612985565b156124ef576001600160a01b03841660009081526017602052604081205561249f601585612a65565b6124ef57601580546001810182556000919091527f55f448fdea98c4d29eb340757ef0a66cd03dbb9538908a6a81d96026b71ec4750180546001600160a01b0319166001600160a01b0386161790555b506001600160a01b0383166000908152601660205260409020805460ff81161560ff19909116811790915561270b565b600785600981111561253357612533613072565b14156125ef57612546601a601986612985565b156125bf576001600160a01b0384166000908152601a602052604081205561256f601885612a65565b6125bf57601880546001810182556000919091527fb13d2d76d1f4b7be834882e410b3e3a8afaf69f83600ae24db354391d2378d2e0180546001600160a01b0319166001600160a01b0386161790555b506001600160a01b0383166000908152601960205260409020805460ff81161560ff19909116811790915561270b565b600885600981111561260357612603613072565b14156126bf57612616601e601d86612985565b1561268f576001600160a01b0384166000908152601e602052604081205561263f601c85612a65565b61268f57601c80546001810182556000919091527f0e4562a10381dec21b205ed72637e6b1b523bdd0e4d4d50af5cd23dd4500a2110180546001600160a01b0319166001600160a01b0386161790555b506001600160a01b0383166000908152601d60205260409020805460ff81161560ff19909116811790915561270b565b60098560098111156126d3576126d3613072565b141561270157506000602055601f80546001600160a01b0319166001600160a01b038516179055600161270b565b6000915050612766565b84600981111561271d5761271d613072565b604080516001600160a01b038716815283151560208201527f0dcacb7e392f3d6a216ed2660e3dcfd40b7793d33591db2ba185a6b8e44fc477910160405180910390a260019150505b9392505050565b600b818154811061099b57600080fd5b60006118e883836040518060400160405280601e81526020017f536166654d6174683a207375627472616374696f6e206f766572666c6f770000815250612ac5565b6040516001600160a01b03831660248201526044810182905261282290849063a9059cbb60e01b906064015b60408051601f198184030181529190526020810180516001600160e01b03166001600160e01b031990931692909217909152612aff565b505050565b6000806128348385613088565b9050838110156118e85760405162461bcd60e51b815260206004820152601b60248201527f536166654d6174683a206164646974696f6e206f766572666c6f7700000000006044820152606401610837565b6040516001600160a01b03808516602483015283166044820152606481018290526128be9085906323b872dd60e01b906084016127eb565b50505050565b6000826128d3575060006118eb565b60006128df83856130a0565b9050826128ec85836130bf565b146118e85760405162461bcd60e51b815260206004820152602160248201527f536166654d6174683a206d756c7469706c69636174696f6e206f766572666c6f6044820152607760f81b6064820152608401610837565b60006118e883836040518060400160405280601a81526020017f536166654d6174683a206469766973696f6e206279207a65726f000000000000815250612bd1565b6001600160a01b03811660009081526020839052604081205460ff16612a5b576001600160a01b0382166000908152602085905260409020546129f75760405162461bcd60e51b815260206004820152600a6024820152694d75737420717565756560b01b6044820152606401610837565b6001600160a01b038216600090815260208590526040902054431015612a535760405162461bcd60e51b8152602060048201526011602482015270145d595d59481b9bdd08195e1c1a5c9959607a1b6044820152606401610837565b506001612766565b5060009392505050565b6000805b8354811015612a5b57826001600160a01b0316848281548110612a8e57612a8e612f15565b6000918252602090912001546001600160a01b03161415612ab35760019150506118eb565b80612abd81612f41565b915050612a69565b60008184841115612ae95760405162461bcd60e51b8152600401610837919061310d565b506000612af68486613140565b95945050505050565b6000612b54826040518060400160405280602081526020017f5361666545524332303a206c6f772d6c6576656c2063616c6c206661696c6564815250856001600160a01b0316612bff9092919063ffffffff16565b8051909150156128225780806020019051810190612b729190612ef3565b6128225760405162461bcd60e51b815260206004820152602a60248201527f5361666545524332303a204552433230206f7065726174696f6e20646964206e6044820152691bdd081cdd58d8d9595960b21b6064820152608401610837565b60008183612bf25760405162461bcd60e51b8152600401610837919061310d565b506000612af684866130bf565b6060612c0e8484600085612c16565b949350505050565b6060843b612c665760405162461bcd60e51b815260206004820152601d60248201527f416464726573733a2063616c6c20746f206e6f6e2d636f6e74726163740000006044820152606401610837565b600080866001600160a01b03168587604051612c829190613157565b60006040518083038185875af1925050503d8060008114612cbf576040519150601f19603f3d011682016040523d82523d6000602084013e612cc4565b606091505b50915091508115612cd8579150612c0e9050565b805115612ce85780518082602001fd5b8360405162461bcd60e51b8152600401610837919061310d565b80356001600160a01b0381168114612d1957600080fd5b919050565b60008060408385031215612d3157600080fd5b82359150612d4160208401612d02565b90509250929050565b600060208284031215612d5c57600080fd5b5035919050565b600060208284031215612d7557600080fd5b6118e882612d02565b60008060408385031215612d9157600080fd5b612d9a83612d02565b946020939093013593505050565b600080600060608486031215612dbd57600080fd5b83359250612dcd60208501612d02565b9150604084013590509250925092565b8035600a8110612d1957600080fd5b60008060408385031215612dff57600080fd5b612e0883612ddd565b9150612d4160208401612d02565b600080600060608486031215612e2b57600080fd5b612e3484612ddd565b9250612e4260208501612d02565b9150612e5060408501612d02565b90509250925092565b6020808252600c908201526b139bdd081858d8d95c1d195960a21b604082015260600190565b6020808252600c908201526b139bdd08185c1c1c9bdd995960a21b604082015260600190565b6020808252818101527f4f776e61626c653a2063616c6c6572206973206e6f7420746865206f776e6572604082015260600190565b600060208284031215612eec57600080fd5b5051919050565b600060208284031215612f0557600080fd5b815180151581146118e857600080fd5b634e487b7160e01b600052603260045260246000fd5b634e487b7160e01b600052601160045260246000fd5b6000600019821415612f5557612f55612f2b565b5060010190565b600060208284031215612f6e57600080fd5b815160ff811681146118e857600080fd5b600181815b80851115612fba578160001904821115612fa057612fa0612f2b565b80851615612fad57918102915b93841c9390800290612f84565b509250929050565b600082612fd1575060016118eb565b81612fde575060006118eb565b8160018114612ff45760028114612ffe5761301a565b60019150506118eb565b60ff84111561300f5761300f612f2b565b50506001821b6118eb565b5060208310610133831016604e8410600b841016171561303d575081810a6118eb565b6130478383612f7f565b806000190482111561305b5761305b612f2b565b029392505050565b60006118e860ff841683612fc2565b634e487b7160e01b600052602160045260246000fd5b6000821982111561309b5761309b612f2b565b500190565b60008160001904831182151516156130ba576130ba612f2b565b500290565b6000826130dc57634e487b7160e01b600052601260045260246000fd5b500490565b60005b838110156130fc5781810151838201526020016130e4565b838111156128be5750506000910152565b602081526000825180602084015261312c8160408501602087016130e1565b601f01601f19169190910160400192915050565b60008282101561315257613152612f2b565b500390565b600082516131698184602087016130e1565b919091019291505056fe93bb8edd35984706eee1b92541281f7f62d33c01c5b2ec0929a113603bd21d66a2646970667358221220573b48eac61884a9f04927fe7c713ad6ac7427ee097f20fe3395b65c2570c2b264736f6c634300080a0033",
  "linkReferences": {},
  "deployedLinkReferences": {}
}