{
  "_format": "hh-sol-artifact-1",
  "contractName": "sRequiem",
  "sourceName": "contracts/sRequiemERC20.sol",
  "abi": [
    {
      "inputs": [],
      "stateMutability": "nonpayable",
      "type": "constructor"
    },
    {
      "anonymous": false,
      "inputs": [
        {
          "indexed": true,
          "internalType": "address",
          "name": "owner",
          "type": "address"
        },
        {
          "indexed": true,
          "internalType": "address",
          "name": "spender",
          "type": "address"
        },
        {
          "indexed": false,
          "internalType": "uint256",
          "name": "value",
          "type": "uint256"
        }
      ],
      "name": "Approval",
      "type": "event"
    },
    {
      "anonymous": false,
      "inputs": [
        {
          "indexed": true,
          "internalType": "uint256",
          "name": "epoch",
          "type": "uint256"
        },
        {
          "indexed": false,
          "internalType": "uint256",
          "name": "rebase",
          "type": "uint256"
        },
        {
          "indexed": false,
          "internalType": "uint256",
          "name": "index",
          "type": "uint256"
        }
      ],
      "name": "LogRebase",
      "type": "event"
    },
    {
      "anonymous": false,
      "inputs": [
        {
          "indexed": false,
          "internalType": "address",
          "name": "stakingContract",
          "type": "address"
        }
      ],
      "name": "LogStakingContractUpdated",
      "type": "event"
    },
    {
      "anonymous": false,
      "inputs": [
        {
          "indexed": true,
          "internalType": "uint256",
          "name": "epoch",
          "type": "uint256"
        },
        {
          "indexed": false,
          "internalType": "uint256",
          "name": "timestamp",
          "type": "uint256"
        },
        {
          "indexed": false,
          "internalType": "uint256",
          "name": "totalSupply",
          "type": "uint256"
        }
      ],
      "name": "LogSupply",
      "type": "event"
    },
    {
      "anonymous": false,
      "inputs": [
        {
          "indexed": true,
          "internalType": "address",
          "name": "previousOwner",
          "type": "address"
        },
        {
          "indexed": true,
          "internalType": "address",
          "name": "newOwner",
          "type": "address"
        }
      ],
      "name": "OwnershipPulled",
      "type": "event"
    },
    {
      "anonymous": false,
      "inputs": [
        {
          "indexed": true,
          "internalType": "address",
          "name": "previousOwner",
          "type": "address"
        },
        {
          "indexed": true,
          "internalType": "address",
          "name": "newOwner",
          "type": "address"
        }
      ],
      "name": "OwnershipPushed",
      "type": "event"
    },
    {
      "anonymous": false,
      "inputs": [
        {
          "indexed": true,
          "internalType": "address",
          "name": "from",
          "type": "address"
        },
        {
          "indexed": true,
          "internalType": "address",
          "name": "to",
          "type": "address"
        },
        {
          "indexed": false,
          "internalType": "uint256",
          "name": "value",
          "type": "uint256"
        }
      ],
      "name": "Transfer",
      "type": "event"
    },
    {
      "inputs": [],
      "name": "DOMAIN_SEPARATOR",
      "outputs": [
        {
          "internalType": "bytes32",
          "name": "",
          "type": "bytes32"
        }
      ],
      "stateMutability": "view",
      "type": "function"
    },
    {
      "inputs": [],
      "name": "INDEX",
      "outputs": [
        {
          "internalType": "uint256",
          "name": "",
          "type": "uint256"
        }
      ],
      "stateMutability": "view",
      "type": "function"
    },
    {
      "inputs": [],
      "name": "PERMIT_TYPEHASH",
      "outputs": [
        {
          "internalType": "bytes32",
          "name": "",
          "type": "bytes32"
        }
      ],
      "stateMutability": "view",
      "type": "function"
    },
    {
      "inputs": [
        {
          "internalType": "address",
          "name": "owner_",
          "type": "address"
        },
        {
          "internalType": "address",
          "name": "spender",
          "type": "address"
        }
      ],
      "name": "allowance",
      "outputs": [
        {
          "internalType": "uint256",
          "name": "",
          "type": "uint256"
        }
      ],
      "stateMutability": "view",
      "type": "function"
    },
    {
      "inputs": [
        {
          "internalType": "address",
          "name": "spender",
          "type": "address"
        },
        {
          "internalType": "uint256",
          "name": "value",
          "type": "uint256"
        }
      ],
      "name": "approve",
      "outputs": [
        {
          "internalType": "bool",
          "name": "",
          "type": "bool"
        }
      ],
      "stateMutability": "nonpayable",
      "type": "function"
    },
    {
      "inputs": [
        {
          "internalType": "uint256",
          "name": "gons",
          "type": "uint256"
        }
      ],
      "name": "balanceForGons",
      "outputs": [
        {
          "internalType": "uint256",
          "name": "",
          "type": "uint256"
        }
      ],
      "stateMutability": "view",
      "type": "function"
    },
    {
      "inputs": [
        {
          "internalType": "address",
          "name": "who",
          "type": "address"
        }
      ],
      "name": "balanceOf",
      "outputs": [
        {
          "internalType": "uint256",
          "name": "",
          "type": "uint256"
        }
      ],
      "stateMutability": "view",
      "type": "function"
    },
    {
      "inputs": [],
      "name": "circulatingSupply",
      "outputs": [
        {
          "internalType": "uint256",
          "name": "",
          "type": "uint256"
        }
      ],
      "stateMutability": "view",
      "type": "function"
    },
    {
      "inputs": [],
      "name": "decimals",
      "outputs": [
        {
          "internalType": "uint8",
          "name": "",
          "type": "uint8"
        }
      ],
      "stateMutability": "view",
      "type": "function"
    },
    {
      "inputs": [
        {
          "internalType": "address",
          "name": "spender",
          "type": "address"
        },
        {
          "internalType": "uint256",
          "name": "subtractedValue",
          "type": "uint256"
        }
      ],
      "name": "decreaseAllowance",
      "outputs": [
        {
          "internalType": "bool",
          "name": "",
          "type": "bool"
        }
      ],
      "stateMutability": "nonpayable",
      "type": "function"
    },
    {
      "inputs": [
        {
          "internalType": "uint256",
          "name": "amount",
          "type": "uint256"
        }
      ],
      "name": "gonsForBalance",
      "outputs": [
        {
          "internalType": "uint256",
          "name": "",
          "type": "uint256"
        }
      ],
      "stateMutability": "view",
      "type": "function"
    },
    {
      "inputs": [
        {
          "internalType": "address",
          "name": "spender",
          "type": "address"
        },
        {
          "internalType": "uint256",
          "name": "addedValue",
          "type": "uint256"
        }
      ],
      "name": "increaseAllowance",
      "outputs": [
        {
          "internalType": "bool",
          "name": "",
          "type": "bool"
        }
      ],
      "stateMutability": "nonpayable",
      "type": "function"
    },
    {
      "inputs": [],
      "name": "index",
      "outputs": [
        {
          "internalType": "uint256",
          "name": "",
          "type": "uint256"
        }
      ],
      "stateMutability": "view",
      "type": "function"
    },
    {
      "inputs": [
        {
          "internalType": "address",
          "name": "stakingContract_",
          "type": "address"
        }
      ],
      "name": "initialize",
      "outputs": [
        {
          "internalType": "bool",
          "name": "",
          "type": "bool"
        }
      ],
      "stateMutability": "nonpayable",
      "type": "function"
    },
    {
      "inputs": [],
      "name": "initializer",
      "outputs": [
        {
          "internalType": "address",
          "name": "",
          "type": "address"
        }
      ],
      "stateMutability": "view",
      "type": "function"
    },
    {
      "inputs": [],
      "name": "name",
      "outputs": [
        {
          "internalType": "string",
          "name": "",
          "type": "string"
        }
      ],
      "stateMutability": "view",
      "type": "function"
    },
    {
      "inputs": [
        {
          "internalType": "address",
          "name": "owner",
          "type": "address"
        }
      ],
      "name": "nonces",
      "outputs": [
        {
          "internalType": "uint256",
          "name": "",
          "type": "uint256"
        }
      ],
      "stateMutability": "view",
      "type": "function"
    },
    {
      "inputs": [
        {
          "internalType": "address",
          "name": "owner",
          "type": "address"
        },
        {
          "internalType": "address",
          "name": "spender",
          "type": "address"
        },
        {
          "internalType": "uint256",
          "name": "amount",
          "type": "uint256"
        },
        {
          "internalType": "uint256",
          "name": "deadline",
          "type": "uint256"
        },
        {
          "internalType": "uint8",
          "name": "v",
          "type": "uint8"
        },
        {
          "internalType": "bytes32",
          "name": "r",
          "type": "bytes32"
        },
        {
          "internalType": "bytes32",
          "name": "s",
          "type": "bytes32"
        }
      ],
      "name": "permit",
      "outputs": [],
      "stateMutability": "nonpayable",
      "type": "function"
    },
    {
      "inputs": [],
      "name": "policy",
      "outputs": [
        {
          "internalType": "address",
          "name": "",
          "type": "address"
        }
      ],
      "stateMutability": "view",
      "type": "function"
    },
    {
      "inputs": [],
      "name": "pullManagement",
      "outputs": [],
      "stateMutability": "nonpayable",
      "type": "function"
    },
    {
      "inputs": [
        {
          "internalType": "address",
          "name": "newOwner_",
          "type": "address"
        }
      ],
      "name": "pushManagement",
      "outputs": [],
      "stateMutability": "nonpayable",
      "type": "function"
    },
    {
      "inputs": [
        {
          "internalType": "uint256",
          "name": "profit_",
          "type": "uint256"
        },
        {
          "internalType": "uint256",
          "name": "epoch_",
          "type": "uint256"
        }
      ],
      "name": "rebase",
      "outputs": [
        {
          "internalType": "uint256",
          "name": "",
          "type": "uint256"
        }
      ],
      "stateMutability": "nonpayable",
      "type": "function"
    },
    {
      "inputs": [
        {
          "internalType": "uint256",
          "name": "",
          "type": "uint256"
        }
      ],
      "name": "rebases",
      "outputs": [
        {
          "internalType": "uint256",
          "name": "epoch",
          "type": "uint256"
        },
        {
          "internalType": "uint256",
          "name": "rebase",
          "type": "uint256"
        },
        {
          "internalType": "uint256",
          "name": "totalStakedBefore",
          "type": "uint256"
        },
        {
          "internalType": "uint256",
          "name": "totalStakedAfter",
          "type": "uint256"
        },
        {
          "internalType": "uint256",
          "name": "amountRebased",
          "type": "uint256"
        },
        {
          "internalType": "uint256",
          "name": "index",
          "type": "uint256"
        },
        {
          "internalType": "uint256",
          "name": "blockNumberOccured",
          "type": "uint256"
        }
      ],
      "stateMutability": "view",
      "type": "function"
    },
    {
      "inputs": [],
      "name": "renounceManagement",
      "outputs": [],
      "stateMutability": "nonpayable",
      "type": "function"
    },
    {
      "inputs": [
        {
          "internalType": "uint256",
          "name": "_INDEX",
          "type": "uint256"
        }
      ],
      "name": "setIndex",
      "outputs": [
        {
          "internalType": "bool",
          "name": "",
          "type": "bool"
        }
      ],
      "stateMutability": "nonpayable",
      "type": "function"
    },
    {
      "inputs": [],
      "name": "stakingContract",
      "outputs": [
        {
          "internalType": "address",
          "name": "",
          "type": "address"
        }
      ],
      "stateMutability": "view",
      "type": "function"
    },
    {
      "inputs": [],
      "name": "symbol",
      "outputs": [
        {
          "internalType": "string",
          "name": "",
          "type": "string"
        }
      ],
      "stateMutability": "view",
      "type": "function"
    },
    {
      "inputs": [],
      "name": "totalSupply",
      "outputs": [
        {
          "internalType": "uint256",
          "name": "",
          "type": "uint256"
        }
      ],
      "stateMutability": "view",
      "type": "function"
    },
    {
      "inputs": [
        {
          "internalType": "address",
          "name": "to",
          "type": "address"
        },
        {
          "internalType": "uint256",
          "name": "value",
          "type": "uint256"
        }
      ],
      "name": "transfer",
      "outputs": [
        {
          "internalType": "bool",
          "name": "",
          "type": "bool"
        }
      ],
      "stateMutability": "nonpayable",
      "type": "function"
    },
    {
      "inputs": [
        {
          "internalType": "address",
          "name": "from",
          "type": "address"
        },
        {
          "internalType": "address",
          "name": "to",
          "type": "address"
        },
        {
          "internalType": "uint256",
          "name": "value",
          "type": "uint256"
        }
      ],
      "name": "transferFrom",
      "outputs": [
        {
          "internalType": "bool",
          "name": "",
          "type": "bool"
        }
      ],
      "stateMutability": "nonpayable",
      "type": "function"
    }
  ],
  "bytecode": "0x60806040523480156200001157600080fd5b50604080518082018252600e81526d5374616b6564204f6c796d70757360901b602080830191825283518085019094526004845263734f484d60e01b9084015281519192916009916200006891600391906200030e565b5081516200007e9060049060208501906200030e565b506005805460ff191660ff92909216919091179055504690507f8b73c3c69bb8fe3d512ecc4cf759cc79239f7b179b0ffacaa9a75d522b39400f620000c2620001de565b805160209182012060408051808201825260018152603160f81b90840152805192830193909352918101919091527fc89efdaa54c0f20c7adf612882df0950f5a951637e0307cdcb4c672f298b8bc66060820152608081018290523060a082015260c00160408051601f19818403018152908290528051602090910120600755600880546001600160a01b0319163390811790915591506000907fea8258f2d9ddb679928cf34b78cf645b7feda9acc828e4dd82d014eaae270eba908290a3600b80546001600160a01b031916331790556611c37937e080006002819055620001d590620001b381600019620003ca565b620001c190600019620003e1565b6200027860201b620010c11790919060201c565b600e55620004b3565b606060038054620001ef9062000407565b80601f01602080910402602001604051908101604052809291908181526020018280546200021d9062000407565b80156200026e5780601f1062000242576101008083540402835291602001916200026e565b820191906000526020600020905b8154815290600101906020018083116200025057829003601f168201915b5050505050905090565b6000620002c283836040518060400160405280601a81526020017f536166654d6174683a206469766973696f6e206279207a65726f000000000000815250620002c960201b60201c565b9392505050565b60008183620002f65760405162461bcd60e51b8152600401620002ed919062000444565b60405180910390fd5b5060006200030584866200049c565b95945050505050565b8280546200031c9062000407565b90600052602060002090601f0160209004810192826200034057600085556200038b565b82601f106200035b57805160ff19168380011785556200038b565b828001600101855582156200038b579182015b828111156200038b5782518255916020019190600101906200036e565b50620003999291506200039d565b5090565b5b808211156200039957600081556001016200039e565b634e487b7160e01b600052601260045260246000fd5b600082620003dc57620003dc620003b4565b500690565b6000828210156200040257634e487b7160e01b600052601160045260246000fd5b500390565b600181811c908216806200041c57607f821691505b602082108114156200043e57634e487b7160e01b600052602260045260246000fd5b50919050565b600060208083528351808285015260005b81811015620004735785810183015185820160400152820162000455565b8181111562000486576000604083870101525b50601f01601f1916929092016040019392505050565b600082620004ae57620004ae620003b4565b500490565b61177c80620004c36000396000f3fe608060405234801561001057600080fd5b50600436106101da5760003560e01c806346f68ee91161010457806395d89b41116100a2578063c4d66de811610071578063c4d66de8146103fb578063d505accf1461040e578063dd62ed3e14610421578063ee99205c1461045a57600080fd5b806395d89b41146103ba5780639ce110d7146103c2578063a457c2d7146103d5578063a9059cbb146103e857600080fd5b806373c69eb7116100de57806373c69eb7146103445780637965d56d1461038c5780637ecebe001461039f5780639358928b146103b257600080fd5b806346f68ee9146103165780635a96ac0a1461032957806370a082311461033157600080fd5b806323b872dd1161017c578063313ce5671161014b578063313ce567146102d25780633644e515146102e757806339509351146102f057806340a5737f1461030357600080fd5b806323b872dd146102875780632986c0e51461029a5780632df75cb1146102a257806330adf81f146102ab57600080fd5b8063089208d8116101b8578063089208d81461023f578063095ea7b31461024957806318160ddd1461026c5780631bd396741461027457600080fd5b80630505c8c9146101df578063058ecdb41461020957806306fdde031461022a575b600080fd5b6008546001600160a01b03165b6040516001600160a01b0390911681526020015b60405180910390f35b61021c610217366004611446565b61046d565b604051908152602001610200565b6102326105cd565b6040516102009190611468565b61024761065f565b005b61025c6102573660046114d4565b6106dc565b6040519015158152602001610200565b60025461021c565b61021c6102823660046114fe565b610736565b61025c610295366004611517565b61074d565b61021c61088a565b61021c600d5481565b61021c7f6e71edae12b1b97f4d1f60370fef10105fa2faae0126114a169c64845d6126c981565b60055460405160ff9091168152602001610200565b61021c60075481565b61025c6102fe3660046114d4565b61089c565b61025c6103113660046114fe565b61090f565b610247610324366004611553565b61095e565b610247610a49565b61021c61033f366004611553565b610b11565b6103576103523660046114fe565b610b39565b604080519788526020880196909652948601939093526060850191909152608084015260a083015260c082015260e001610200565b61021c61039a3660046114fe565b610b8b565b61021c6103ad366004611553565b610ba2565b61021c610bc0565b610232610be5565b600b546101ec906001600160a01b031681565b61025c6103e33660046114d4565b610bf4565b61025c6103f63660046114d4565b610cca565b61025c610409366004611553565b610d7c565b61024761041c36600461156e565b610e98565b61021c61042f3660046115e1565b6001600160a01b03918216600090815260106020908152604080832093909416825291909152205490565b600a546101ec906001600160a01b031681565b600a546000906001600160a01b0316331461048757600080fd5b600080610492610bc0565b90508461052e57837f917acfbe39be6509ccf7fecb66a7e42ce2be1083c2d7dd3b9b7491dabddb8da4426002546040516104d6929190918252602082015260400190565b60405180910390a2837f6012dbce857565c4a40974aa5de8373a761fc429077ef0c8c8611d1e20d63fb2600061050a61088a565b6040805192835260208301919091520160405180910390a2600254925050506105c7565b801561055a576105538161054d6002548861110a90919063ffffffff16565b906110c1565b915061055e565b8491505b60025461056b9083611189565b60028190556001600160801b03101561058a576001600160801b036002555b6002546105b0906105a46611c37937e0800060001961162a565b61054d90600019611654565b600e556105be8186866111e8565b50600254925050505b92915050565b6060600380546105dc9061166b565b80601f01602080910402602001604051908101604052809291908181526020018280546106089061166b565b80156106555780601f1061062a57610100808354040283529160200191610655565b820191906000526020600020905b81548152906001019060200180831161063857829003601f168201915b5050505050905090565b6008546001600160a01b031633146106925760405162461bcd60e51b8152600401610689906116a6565b60405180910390fd5b6008546040516000916001600160a01b0316907fea8258f2d9ddb679928cf34b78cf645b7feda9acc828e4dd82d014eaae270eba908390a3600880546001600160a01b0319169055565b3360008181526010602090815260408083206001600160a01b03871680855292528083208590555191929091600080516020611727833981519152906107259086815260200190565b60405180910390a350600192915050565b60006105c7600e548361110a90919063ffffffff16565b6001600160a01b038316600090815260106020908152604080832033845290915281205461077b9083611330565b6001600160a01b03851660008181526010602090815260408083203380855290835292819020859055519384529092600080516020611727833981519152910160405180910390a360006107ce83610736565b6001600160a01b0386166000908152600f60205260409020549091506107f49082611330565b6001600160a01b038087166000908152600f602052604080822093909355908616815220546108239082611189565b6001600160a01b038086166000818152600f602052604090819020939093559151908716907fddf252ad1be2c89b69c2b068fc378daa952ba7f163c4a11628f55a4df523b3ef906108779087815260200190565b60405180910390a3506001949350505050565b6000610897600d54610b8b565b905090565b3360009081526010602090815260408083206001600160a01b03861684529091528120546108ca9083611189565b3360008181526010602090815260408083206001600160a01b038916808552908352928190208590555193845290926000805160206117278339815191529101610725565b6008546000906001600160a01b0316331461093c5760405162461bcd60e51b8152600401610689906116a6565b600d541561094957600080fd5b61095282610736565b600d555060015b919050565b6008546001600160a01b031633146109885760405162461bcd60e51b8152600401610689906116a6565b6001600160a01b0381166109ed5760405162461bcd60e51b815260206004820152602660248201527f4f776e61626c653a206e6577206f776e657220697320746865207a65726f206160448201526564647265737360d01b6064820152608401610689565b6008546040516001600160a01b038084169216907fea8258f2d9ddb679928cf34b78cf645b7feda9acc828e4dd82d014eaae270eba90600090a3600980546001600160a01b0319166001600160a01b0392909216919091179055565b6009546001600160a01b03163314610aae5760405162461bcd60e51b815260206004820152602260248201527f4f776e61626c653a206d757374206265206e6577206f776e657220746f2070756044820152611b1b60f21b6064820152608401610689565b6009546008546040516001600160a01b0392831692909116907faa151555690c956fc3ea32f106bb9f119b5237a061eaa8557cff3e51e3792c8d90600090a3600954600880546001600160a01b0319166001600160a01b03909216919091179055565b600e546001600160a01b0382166000908152600f602052604081205490916105c791906110c1565b600c8181548110610b4957600080fd5b90600052602060002090600702016000915090508060000154908060010154908060020154908060030154908060040154908060050154908060060154905087565b60006105c7600e54836110c190919063ffffffff16565b6001600160a01b0381166000908152600660205260408120546105c7565b600a5460009061089790610bdc906001600160a01b0316610b11565b60025490611330565b6060600480546105dc9061166b565b3360009081526010602090815260408083206001600160a01b0386168452909152812054808310610c48573360009081526010602090815260408083206001600160a01b0388168452909152812055610c77565b610c528184611330565b3360009081526010602090815260408083206001600160a01b03891684529091529020555b3360008181526010602090815260408083206001600160a01b0389168085529083529281902054905190815291929160008051602061172783398151915291015b60405180910390a35060019392505050565b600080610ce2600e548461110a90919063ffffffff16565b336000908152600f6020526040902054909150610cff9082611330565b336000908152600f6020526040808220929092556001600160a01b03861681522054610d2b9082611189565b6001600160a01b0385166000818152600f60205260409081902092909255905133907fddf252ad1be2c89b69c2b068fc378daa952ba7f163c4a11628f55a4df523b3ef90610cb89087815260200190565b600b546000906001600160a01b03163314610d9657600080fd5b6001600160a01b038216610da957600080fd5b600a80546001600160a01b0319166001600160a01b038416179055610dd76611c37937e0800060001961162a565b610de390600019611654565b600a80546001600160a01b039081166000908152600f602052604080822094909455915460025493519116927fddf252ad1be2c89b69c2b068fc378daa952ba7f163c4a11628f55a4df523b3ef91610e3d91815260200190565b60405180910390a36040516001600160a01b03831681527f817c653428858ed536dc085c5d8273734c517b55de44b55f5c5877a75e3373a19060200160405180910390a15050600b80546001600160a01b0319169055600190565b83421115610ee85760405162461bcd60e51b815260206004820152601860248201527f5065726d69743a206578706972656420646561646c696e6500000000000000006044820152606401610689565b6001600160a01b0387811660008181526006602090815260408083205481517f6e71edae12b1b97f4d1f60370fef10105fa2faae0126114a169c64845d6126c98185015280830195909552948b166060850152608084018a905260a084019490945260c08084018990528451808503909101815260e08401855280519082012060075461190160f01b61010086015261010285015261012280850182905285518086039091018152610142850180875281519184019190912090849052610162850180875281905260ff89166101828601526101a285018890526101c2850187905294519094936001926101e2808301939192601f198301929081900390910190855afa158015610ffd573d6000803e3d6000fd5b5050604051601f1901519150506001600160a01b038116158015906110335750896001600160a01b0316816001600160a01b0316145b6110895760405162461bcd60e51b815260206004820152602160248201527f5a65726f537761705065726d69743a20496e76616c6964207369676e617475726044820152606560f81b6064820152608401610689565b6001600160a01b038a1660009081526006602052604090206110aa90611372565b6110b58a8a8a61138f565b50505050505050505050565b600061110383836040518060400160405280601a81526020017f536166654d6174683a206469766973696f6e206279207a65726f0000000000008152506113de565b9392505050565b600082611119575060006105c7565b600061112583856116db565b90508261113285836116fa565b146111035760405162461bcd60e51b815260206004820152602160248201527f536166654d6174683a206d756c7469706c69636174696f6e206f766572666c6f6044820152607760f81b6064820152608401610689565b600080611196838561170e565b9050838110156111035760405162461bcd60e51b815260206004820152601b60248201527f536166654d6174683a206164646974696f6e206f766572666c6f7700000000006044820152606401610689565b6000806112018561054d86670de0b6b3a764000061110a565b9050600c6040518060e0016040528085815260200183815260200187815260200161122a610bc0565b815260200186815260200161123d61088a565b81524360209182015282546001808201855560009485529382902083516007909202019081558282015193810193909355604080830151600280860191909155606084015160038601556080840151600486015560a0840151600586015560c090930151600690940193909355905482514281529182015284917f917acfbe39be6509ccf7fecb66a7e42ce2be1083c2d7dd3b9b7491dabddb8da4910160405180910390a2827f6012dbce857565c4a40974aa5de8373a761fc429077ef0c8c8611d1e20d63fb28261130d61088a565b6040805192835260208301919091520160405180910390a2506001949350505050565b600061110383836040518060400160405280601e81526020017f536166654d6174683a207375627472616374696f6e206f766572666c6f770000815250611415565b6001816000016000828254611387919061170e565b909155505050565b6001600160a01b038381166000818152601060209081526040808320948716808452948252918290208590559051848152600080516020611727833981519152910160405180910390a3505050565b600081836113ff5760405162461bcd60e51b81526004016106899190611468565b50600061140c84866116fa565b95945050505050565b600081848411156114395760405162461bcd60e51b81526004016106899190611468565b50600061140c8486611654565b6000806040838503121561145957600080fd5b50508035926020909101359150565b600060208083528351808285015260005b8181101561149557858101830151858201604001528201611479565b818111156114a7576000604083870101525b50601f01601f1916929092016040019392505050565b80356001600160a01b038116811461095957600080fd5b600080604083850312156114e757600080fd5b6114f0836114bd565b946020939093013593505050565b60006020828403121561151057600080fd5b5035919050565b60008060006060848603121561152c57600080fd5b611535846114bd565b9250611543602085016114bd565b9150604084013590509250925092565b60006020828403121561156557600080fd5b611103826114bd565b600080600080600080600060e0888a03121561158957600080fd5b611592886114bd565b96506115a0602089016114bd565b95506040880135945060608801359350608088013560ff811681146115c457600080fd5b9699959850939692959460a0840135945060c09093013592915050565b600080604083850312156115f457600080fd5b6115fd836114bd565b915061160b602084016114bd565b90509250929050565b634e487b7160e01b600052601260045260246000fd5b60008261163957611639611614565b500690565b634e487b7160e01b600052601160045260246000fd5b6000828210156116665761166661163e565b500390565b600181811c9082168061167f57607f821691505b602082108114156116a057634e487b7160e01b600052602260045260246000fd5b50919050565b6020808252818101527f4f776e61626c653a2063616c6c6572206973206e6f7420746865206f776e6572604082015260600190565b60008160001904831182151516156116f5576116f561163e565b500290565b60008261170957611709611614565b500490565b600082198211156117215761172161163e565b50019056fe8c5be1e5ebec7d5bd14f71427d1e84f3dd0314c0f7b2291e5b200ac8c7c3b925a26469706673582212205e4a73be3defad736af4f71a1dce65472bc364f71aef80e4f56e35c1cabf5d3464736f6c634300080a0033",
  "linkReferences": {},
  "deployedLinkReferences": {}
}