{
  "_format": "hh-sol-artifact-1",
  "contractName": "RequiemTreasury",
  "sourceName": "contracts/Treasury.sol",
  "abi": [
    {
      "inputs": [
        {
          "internalType": "address",
          "name": "_OHM",
          "type": "address"
        },
        {
          "internalType": "address",
          "name": "_DAI",
          "type": "address"
        },
        {
          "internalType": "address",
          "name": "_Frax",
          "type": "address"
        },
        {
          "internalType": "address",
          "name": "_OHMDAI",
          "type": "address"
        },
        {
          "internalType": "uint256",
          "name": "_blocksNeededForQueue",
          "type": "uint256"
        }
      ],
      "stateMutability": "nonpayable",
      "type": "constructor"
    },
    {
      "anonymous": false,
      "inputs": [
        {
          "indexed": true,
          "internalType": "enum RequiemTreasury.MANAGING",
          "name": "managing",
          "type": "uint8"
        },
        {
          "indexed": false,
          "internalType": "address",
          "name": "activated",
          "type": "address"
        },
        {
          "indexed": false,
          "internalType": "bool",
          "name": "result",
          "type": "bool"
        }
      ],
      "name": "ChangeActivated",
      "type": "event"
    },
    {
      "anonymous": false,
      "inputs": [
        {
          "indexed": true,
          "internalType": "enum RequiemTreasury.MANAGING",
          "name": "managing",
          "type": "uint8"
        },
        {
          "indexed": false,
          "internalType": "address",
          "name": "queued",
          "type": "address"
        }
      ],
      "name": "ChangeQueued",
      "type": "event"
    },
    {
      "anonymous": false,
      "inputs": [
        {
          "indexed": true,
          "internalType": "address",
          "name": "debtor",
          "type": "address"
        },
        {
          "indexed": true,
          "internalType": "address",
          "name": "token",
          "type": "address"
        },
        {
          "indexed": false,
          "internalType": "uint256",
          "name": "amount",
          "type": "uint256"
        },
        {
          "indexed": false,
          "internalType": "uint256",
          "name": "value",
          "type": "uint256"
        }
      ],
      "name": "CreateDebt",
      "type": "event"
    },
    {
      "anonymous": false,
      "inputs": [
        {
          "indexed": true,
          "internalType": "address",
          "name": "token",
          "type": "address"
        },
        {
          "indexed": false,
          "internalType": "uint256",
          "name": "amount",
          "type": "uint256"
        },
        {
          "indexed": false,
          "internalType": "uint256",
          "name": "value",
          "type": "uint256"
        }
      ],
      "name": "Deposit",
      "type": "event"
    },
    {
      "anonymous": false,
      "inputs": [
        {
          "indexed": true,
          "internalType": "address",
          "name": "previousOwner",
          "type": "address"
        },
        {
          "indexed": true,
          "internalType": "address",
          "name": "newOwner",
          "type": "address"
        }
      ],
      "name": "OwnershipPulled",
      "type": "event"
    },
    {
      "anonymous": false,
      "inputs": [
        {
          "indexed": true,
          "internalType": "address",
          "name": "previousOwner",
          "type": "address"
        },
        {
          "indexed": true,
          "internalType": "address",
          "name": "newOwner",
          "type": "address"
        }
      ],
      "name": "OwnershipPushed",
      "type": "event"
    },
    {
      "anonymous": false,
      "inputs": [
        {
          "indexed": true,
          "internalType": "address",
          "name": "debtor",
          "type": "address"
        },
        {
          "indexed": true,
          "internalType": "address",
          "name": "token",
          "type": "address"
        },
        {
          "indexed": false,
          "internalType": "uint256",
          "name": "amount",
          "type": "uint256"
        },
        {
          "indexed": false,
          "internalType": "uint256",
          "name": "value",
          "type": "uint256"
        }
      ],
      "name": "RepayDebt",
      "type": "event"
    },
    {
      "anonymous": false,
      "inputs": [
        {
          "indexed": true,
          "internalType": "uint256",
          "name": "totalReserves",
          "type": "uint256"
        }
      ],
      "name": "ReservesAudited",
      "type": "event"
    },
    {
      "anonymous": false,
      "inputs": [
        {
          "indexed": true,
          "internalType": "address",
          "name": "token",
          "type": "address"
        },
        {
          "indexed": false,
          "internalType": "uint256",
          "name": "amount",
          "type": "uint256"
        }
      ],
      "name": "ReservesManaged",
      "type": "event"
    },
    {
      "anonymous": false,
      "inputs": [
        {
          "indexed": true,
          "internalType": "uint256",
          "name": "totalReserves",
          "type": "uint256"
        }
      ],
      "name": "ReservesUpdated",
      "type": "event"
    },
    {
      "anonymous": false,
      "inputs": [
        {
          "indexed": true,
          "internalType": "address",
          "name": "caller",
          "type": "address"
        },
        {
          "indexed": true,
          "internalType": "address",
          "name": "recipient",
          "type": "address"
        },
        {
          "indexed": false,
          "internalType": "uint256",
          "name": "amount",
          "type": "uint256"
        }
      ],
      "name": "RewardsMinted",
      "type": "event"
    },
    {
      "anonymous": false,
      "inputs": [
        {
          "indexed": true,
          "internalType": "address",
          "name": "token",
          "type": "address"
        },
        {
          "indexed": false,
          "internalType": "uint256",
          "name": "amount",
          "type": "uint256"
        },
        {
          "indexed": false,
          "internalType": "uint256",
          "name": "value",
          "type": "uint256"
        }
      ],
      "name": "Withdrawal",
      "type": "event"
    },
    {
      "inputs": [
        {
          "internalType": "address",
          "name": "",
          "type": "address"
        }
      ],
      "name": "LiquidityDepositorQueue",
      "outputs": [
        {
          "internalType": "uint256",
          "name": "",
          "type": "uint256"
        }
      ],
      "stateMutability": "view",
      "type": "function"
    },
    {
      "inputs": [
        {
          "internalType": "address",
          "name": "",
          "type": "address"
        }
      ],
      "name": "LiquidityManagerQueue",
      "outputs": [
        {
          "internalType": "uint256",
          "name": "",
          "type": "uint256"
        }
      ],
      "stateMutability": "view",
      "type": "function"
    },
    {
      "inputs": [
        {
          "internalType": "address",
          "name": "",
          "type": "address"
        }
      ],
      "name": "LiquidityTokenQueue",
      "outputs": [
        {
          "internalType": "uint256",
          "name": "",
          "type": "uint256"
        }
      ],
      "stateMutability": "view",
      "type": "function"
    },
    {
      "inputs": [],
      "name": "OHM",
      "outputs": [
        {
          "internalType": "address",
          "name": "",
          "type": "address"
        }
      ],
      "stateMutability": "view",
      "type": "function"
    },
    {
      "inputs": [
        {
          "internalType": "address",
          "name": "",
          "type": "address"
        }
      ],
      "name": "ReserveManagerQueue",
      "outputs": [
        {
          "internalType": "uint256",
          "name": "",
          "type": "uint256"
        }
      ],
      "stateMutability": "view",
      "type": "function"
    },
    {
      "inputs": [],
      "name": "auditReserves",
      "outputs": [],
      "stateMutability": "nonpayable",
      "type": "function"
    },
    {
      "inputs": [],
      "name": "blocksNeededForQueue",
      "outputs": [
        {
          "internalType": "uint256",
          "name": "",
          "type": "uint256"
        }
      ],
      "stateMutability": "view",
      "type": "function"
    },
    {
      "inputs": [
        {
          "internalType": "address",
          "name": "",
          "type": "address"
        }
      ],
      "name": "bondCalculator",
      "outputs": [
        {
          "internalType": "address",
          "name": "",
          "type": "address"
        }
      ],
      "stateMutability": "view",
      "type": "function"
    },
    {
      "inputs": [
        {
          "internalType": "address",
          "name": "",
          "type": "address"
        }
      ],
      "name": "debtorBalance",
      "outputs": [
        {
          "internalType": "uint256",
          "name": "",
          "type": "uint256"
        }
      ],
      "stateMutability": "view",
      "type": "function"
    },
    {
      "inputs": [
        {
          "internalType": "address",
          "name": "",
          "type": "address"
        }
      ],
      "name": "debtorQueue",
      "outputs": [
        {
          "internalType": "uint256",
          "name": "",
          "type": "uint256"
        }
      ],
      "stateMutability": "view",
      "type": "function"
    },
    {
      "inputs": [
        {
          "internalType": "uint256",
          "name": "",
          "type": "uint256"
        }
      ],
      "name": "debtors",
      "outputs": [
        {
          "internalType": "address",
          "name": "",
          "type": "address"
        }
      ],
      "stateMutability": "view",
      "type": "function"
    },
    {
      "inputs": [
        {
          "internalType": "uint256",
          "name": "_amount",
          "type": "uint256"
        },
        {
          "internalType": "address",
          "name": "_token",
          "type": "address"
        },
        {
          "internalType": "uint256",
          "name": "_profit",
          "type": "uint256"
        }
      ],
      "name": "deposit",
      "outputs": [
        {
          "internalType": "uint256",
          "name": "send_",
          "type": "uint256"
        }
      ],
      "stateMutability": "nonpayable",
      "type": "function"
    },
    {
      "inputs": [],
      "name": "excessReserves",
      "outputs": [
        {
          "internalType": "uint256",
          "name": "",
          "type": "uint256"
        }
      ],
      "stateMutability": "view",
      "type": "function"
    },
    {
      "inputs": [
        {
          "internalType": "uint256",
          "name": "_amount",
          "type": "uint256"
        },
        {
          "internalType": "address",
          "name": "_token",
          "type": "address"
        }
      ],
      "name": "incurDebt",
      "outputs": [],
      "stateMutability": "nonpayable",
      "type": "function"
    },
    {
      "inputs": [
        {
          "internalType": "address",
          "name": "",
          "type": "address"
        }
      ],
      "name": "isDebtor",
      "outputs": [
        {
          "internalType": "bool",
          "name": "",
          "type": "bool"
        }
      ],
      "stateMutability": "view",
      "type": "function"
    },
    {
      "inputs": [
        {
          "internalType": "address",
          "name": "",
          "type": "address"
        }
      ],
      "name": "isLiquidityDepositor",
      "outputs": [
        {
          "internalType": "bool",
          "name": "",
          "type": "bool"
        }
      ],
      "stateMutability": "view",
      "type": "function"
    },
    {
      "inputs": [
        {
          "internalType": "address",
          "name": "",
          "type": "address"
        }
      ],
      "name": "isLiquidityManager",
      "outputs": [
        {
          "internalType": "bool",
          "name": "",
          "type": "bool"
        }
      ],
      "stateMutability": "view",
      "type": "function"
    },
    {
      "inputs": [
        {
          "internalType": "address",
          "name": "",
          "type": "address"
        }
      ],
      "name": "isLiquidityToken",
      "outputs": [
        {
          "internalType": "bool",
          "name": "",
          "type": "bool"
        }
      ],
      "stateMutability": "view",
      "type": "function"
    },
    {
      "inputs": [
        {
          "internalType": "address",
          "name": "",
          "type": "address"
        }
      ],
      "name": "isReserveDepositor",
      "outputs": [
        {
          "internalType": "bool",
          "name": "",
          "type": "bool"
        }
      ],
      "stateMutability": "view",
      "type": "function"
    },
    {
      "inputs": [
        {
          "internalType": "address",
          "name": "",
          "type": "address"
        }
      ],
      "name": "isReserveManager",
      "outputs": [
        {
          "internalType": "bool",
          "name": "",
          "type": "bool"
        }
      ],
      "stateMutability": "view",
      "type": "function"
    },
    {
      "inputs": [
        {
          "internalType": "address",
          "name": "",
          "type": "address"
        }
      ],
      "name": "isReserveSpender",
      "outputs": [
        {
          "internalType": "bool",
          "name": "",
          "type": "bool"
        }
      ],
      "stateMutability": "view",
      "type": "function"
    },
    {
      "inputs": [
        {
          "internalType": "address",
          "name": "",
          "type": "address"
        }
      ],
      "name": "isReserveToken",
      "outputs": [
        {
          "internalType": "bool",
          "name": "",
          "type": "bool"
        }
      ],
      "stateMutability": "view",
      "type": "function"
    },
    {
      "inputs": [
        {
          "internalType": "address",
          "name": "",
          "type": "address"
        }
      ],
      "name": "isRewardManager",
      "outputs": [
        {
          "internalType": "bool",
          "name": "",
          "type": "bool"
        }
      ],
      "stateMutability": "view",
      "type": "function"
    },
    {
      "inputs": [
        {
          "internalType": "uint256",
          "name": "",
          "type": "uint256"
        }
      ],
      "name": "liquidityDepositors",
      "outputs": [
        {
          "internalType": "address",
          "name": "",
          "type": "address"
        }
      ],
      "stateMutability": "view",
      "type": "function"
    },
    {
      "inputs": [
        {
          "internalType": "uint256",
          "name": "",
          "type": "uint256"
        }
      ],
      "name": "liquidityManagers",
      "outputs": [
        {
          "internalType": "address",
          "name": "",
          "type": "address"
        }
      ],
      "stateMutability": "view",
      "type": "function"
    },
    {
      "inputs": [
        {
          "internalType": "uint256",
          "name": "",
          "type": "uint256"
        }
      ],
      "name": "liquidityTokens",
      "outputs": [
        {
          "internalType": "address",
          "name": "",
          "type": "address"
        }
      ],
      "stateMutability": "view",
      "type": "function"
    },
    {
      "inputs": [
        {
          "internalType": "address",
          "name": "_token",
          "type": "address"
        },
        {
          "internalType": "uint256",
          "name": "_amount",
          "type": "uint256"
        }
      ],
      "name": "manage",
      "outputs": [],
      "stateMutability": "nonpayable",
      "type": "function"
    },
    {
      "inputs": [
        {
          "internalType": "address",
          "name": "_recipient",
          "type": "address"
        },
        {
          "internalType": "uint256",
          "name": "_amount",
          "type": "uint256"
        }
      ],
      "name": "mintRewards",
      "outputs": [],
      "stateMutability": "nonpayable",
      "type": "function"
    },
    {
      "inputs": [],
      "name": "policy",
      "outputs": [
        {
          "internalType": "address",
          "name": "",
          "type": "address"
        }
      ],
      "stateMutability": "view",
      "type": "function"
    },
    {
      "inputs": [],
      "name": "pullManagement",
      "outputs": [],
      "stateMutability": "nonpayable",
      "type": "function"
    },
    {
      "inputs": [
        {
          "internalType": "address",
          "name": "newOwner_",
          "type": "address"
        }
      ],
      "name": "pushManagement",
      "outputs": [],
      "stateMutability": "nonpayable",
      "type": "function"
    },
    {
      "inputs": [
        {
          "internalType": "enum RequiemTreasury.MANAGING",
          "name": "_managing",
          "type": "uint8"
        },
        {
          "internalType": "address",
          "name": "_address",
          "type": "address"
        }
      ],
      "name": "queue",
      "outputs": [
        {
          "internalType": "bool",
          "name": "",
          "type": "bool"
        }
      ],
      "stateMutability": "nonpayable",
      "type": "function"
    },
    {
      "inputs": [],
      "name": "renounceManagement",
      "outputs": [],
      "stateMutability": "nonpayable",
      "type": "function"
    },
    {
      "inputs": [
        {
          "internalType": "uint256",
          "name": "_amount",
          "type": "uint256"
        }
      ],
      "name": "repayDebtWithOHM",
      "outputs": [],
      "stateMutability": "nonpayable",
      "type": "function"
    },
    {
      "inputs": [
        {
          "internalType": "uint256",
          "name": "_amount",
          "type": "uint256"
        },
        {
          "internalType": "address",
          "name": "_token",
          "type": "address"
        }
      ],
      "name": "repayDebtWithReserve",
      "outputs": [],
      "stateMutability": "nonpayable",
      "type": "function"
    },
    {
      "inputs": [
        {
          "internalType": "address",
          "name": "",
          "type": "address"
        }
      ],
      "name": "reserveDepositorQueue",
      "outputs": [
        {
          "internalType": "uint256",
          "name": "",
          "type": "uint256"
        }
      ],
      "stateMutability": "view",
      "type": "function"
    },
    {
      "inputs": [
        {
          "internalType": "uint256",
          "name": "",
          "type": "uint256"
        }
      ],
      "name": "reserveDepositors",
      "outputs": [
        {
          "internalType": "address",
          "name": "",
          "type": "address"
        }
      ],
      "stateMutability": "view",
      "type": "function"
    },
    {
      "inputs": [
        {
          "internalType": "uint256",
          "name": "",
          "type": "uint256"
        }
      ],
      "name": "reserveManagers",
      "outputs": [
        {
          "internalType": "address",
          "name": "",
          "type": "address"
        }
      ],
      "stateMutability": "view",
      "type": "function"
    },
    {
      "inputs": [
        {
          "internalType": "address",
          "name": "",
          "type": "address"
        }
      ],
      "name": "reserveSpenderQueue",
      "outputs": [
        {
          "internalType": "uint256",
          "name": "",
          "type": "uint256"
        }
      ],
      "stateMutability": "view",
      "type": "function"
    },
    {
      "inputs": [
        {
          "internalType": "uint256",
          "name": "",
          "type": "uint256"
        }
      ],
      "name": "reserveSpenders",
      "outputs": [
        {
          "internalType": "address",
          "name": "",
          "type": "address"
        }
      ],
      "stateMutability": "view",
      "type": "function"
    },
    {
      "inputs": [
        {
          "internalType": "address",
          "name": "",
          "type": "address"
        }
      ],
      "name": "reserveTokenQueue",
      "outputs": [
        {
          "internalType": "uint256",
          "name": "",
          "type": "uint256"
        }
      ],
      "stateMutability": "view",
      "type": "function"
    },
    {
      "inputs": [
        {
          "internalType": "uint256",
          "name": "",
          "type": "uint256"
        }
      ],
      "name": "reserveTokens",
      "outputs": [
        {
          "internalType": "address",
          "name": "",
          "type": "address"
        }
      ],
      "stateMutability": "view",
      "type": "function"
    },
    {
      "inputs": [
        {
          "internalType": "address",
          "name": "",
          "type": "address"
        }
      ],
      "name": "rewardManagerQueue",
      "outputs": [
        {
          "internalType": "uint256",
          "name": "",
          "type": "uint256"
        }
      ],
      "stateMutability": "view",
      "type": "function"
    },
    {
      "inputs": [
        {
          "internalType": "uint256",
          "name": "",
          "type": "uint256"
        }
      ],
      "name": "rewardManagers",
      "outputs": [
        {
          "internalType": "address",
          "name": "",
          "type": "address"
        }
      ],
      "stateMutability": "view",
      "type": "function"
    },
    {
      "inputs": [],
      "name": "sOHM",
      "outputs": [
        {
          "internalType": "address",
          "name": "",
          "type": "address"
        }
      ],
      "stateMutability": "view",
      "type": "function"
    },
    {
      "inputs": [],
      "name": "sOHMQueue",
      "outputs": [
        {
          "internalType": "uint256",
          "name": "",
          "type": "uint256"
        }
      ],
      "stateMutability": "view",
      "type": "function"
    },
    {
      "inputs": [
        {
          "internalType": "enum RequiemTreasury.MANAGING",
          "name": "_managing",
          "type": "uint8"
        },
        {
          "internalType": "address",
          "name": "_address",
          "type": "address"
        },
        {
          "internalType": "address",
          "name": "_calculator",
          "type": "address"
        }
      ],
      "name": "toggle",
      "outputs": [
        {
          "internalType": "bool",
          "name": "",
          "type": "bool"
        }
      ],
      "stateMutability": "nonpayable",
      "type": "function"
    },
    {
      "inputs": [],
      "name": "totalDebt",
      "outputs": [
        {
          "internalType": "uint256",
          "name": "",
          "type": "uint256"
        }
      ],
      "stateMutability": "view",
      "type": "function"
    },
    {
      "inputs": [],
      "name": "totalReserves",
      "outputs": [
        {
          "internalType": "uint256",
          "name": "",
          "type": "uint256"
        }
      ],
      "stateMutability": "view",
      "type": "function"
    },
    {
      "inputs": [
        {
          "internalType": "address",
          "name": "_token",
          "type": "address"
        },
        {
          "internalType": "uint256",
          "name": "_amount",
          "type": "uint256"
        }
      ],
      "name": "valueOf",
      "outputs": [
        {
          "internalType": "uint256",
          "name": "value_",
          "type": "uint256"
        }
      ],
      "stateMutability": "view",
      "type": "function"
    },
    {
      "inputs": [
        {
          "internalType": "uint256",
          "name": "_amount",
          "type": "uint256"
        },
        {
          "internalType": "address",
          "name": "_token",
          "type": "address"
        }
      ],
      "name": "withdraw",
      "outputs": [],
      "stateMutability": "nonpayable",
      "type": "function"
    }
  ],
  "bytecode": "0x60c06040523480156200001157600080fd5b506040516200345e3803806200345e833981016040819052620000349162000195565b600080546001600160a01b0319163390811782556040519091907fea8258f2d9ddb679928cf34b78cf645b7feda9acc828e4dd82d014eaae270eba908290a36001600160a01b0385166200008757600080fd5b6001600160a01b0394851660805292841660008181526003602090815260408083208054600160ff1991821681179092556002805480840182557f405787fa12a823e0f2b7631cc41b3ba8828b3321ca811111fa75cd3aa3bb5ace90810180546001600160a01b03199081169099179055988b168087528487208054841685179055815480850190925598018054871690981790975594909716808352600c90915295812080549094168317909355600b805492830181559092527f0175b7a638427703f0dbe7bb9bbf987a2551717b34e79f33b5b1008d1fa01db901805490911690921790915560a052620001fc565b80516001600160a01b03811681146200019057600080fd5b919050565b600080600080600060a08688031215620001ae57600080fd5b620001b98662000178565b9450620001c96020870162000178565b9350620001d96040870162000178565b9250620001e96060870162000178565b9150608086015190509295509295909350565b60805160a0516131c562000299600039600081816106db01528181611a8401528181611ae601528181611b4801528181611bac01528181611c1701528181611c7901528181611cdd01528181611d4101528181611da30152611e050152600081816105fb0152818161089b01528181610b8b01528181610c6a01528181610d1901528181611075015281816115e8015261180301526131c56000f3fe608060405234801561001057600080fd5b50600436106102f05760003560e01c806387d67dff1161019d578063cd85641a116100e9578063ebd83cd8116100a2578063fbfd393b1161007c578063fbfd393b146107ac578063fc7b9c18146107bf578063fd1ec010146107c8578063fff9ee87146107db57600080fd5b8063ebd83cd814610746578063ee4e19a114610769578063fb9395881461078c57600080fd5b8063cd85641a146106a3578063d031370b146106c3578063d07f390f146106d6578063d796ffb8146106fd578063df89b34414610710578063e83afee31461073357600080fd5b8063a569e57111610156578063b1bd38b011610130578063b1bd38b01461063d578063b5b1d5601461065d578063bc157ac114610670578063c24ad43e1461068357600080fd5b8063a569e571146105d3578063a6c41fec146105f6578063ab319c9a1461061d57600080fd5b806387d67dff146105315780638f59c727146105545780638f6a7b57146105745780638f840ddd14610587578063932cc8c314610590578063a1210a2d146105b057600080fd5b80631eec5a9a1161025c5780635a96ac0a116102155780636b5e40a7116101ef5780636b5e40a7146104d857806370a0502a146104eb578063788c6c01146104fe578063869871bf1461051e57600080fd5b80635a96ac0a1461049a57806368c31dd5146104a25780636a20de92146104c557600080fd5b80631eec5a9a1461042d5780632789de37146104405780632b7ce50014610449578063437f79121461045157806346f68ee9146104645780634e83423c1461047757600080fd5b80630c3513a8116102ae5780630c3513a8146103905780630f70431f14610398578063124154ca146103ab57806312422d23146103de57806315079925146103f15780631af4da701461040457600080fd5b8062f714ce146102f55780630505c8c91461030a5780630619aff114610334578063089208d814610347578063094a86511461034f5780630b0eee301461037d575b600080fd5b610308610303366004612d1a565b6107fb565b005b6000546001600160a01b03165b6040516001600160a01b0390911681526020015b60405180910390f35b610317610342366004612d46565b610987565b6103086109b1565b61036f61035d366004612d5f565b601b6020526000908152604090205481565b60405190815260200161032b565b61030861038b366004612d7a565b610a25565b61036f610b7e565b6103086103a6366004612d46565b610c1f565b6103ce6103b9366004612d5f565b60066020526000908152604090205460ff1681565b604051901515815260200161032b565b6103086103ec366004612d1a565b610d72565b601f54610317906001600160a01b031681565b610317610412366004612d5f565b6011602052600090815260409020546001600160a01b031681565b61036f61043b366004612d7a565b610fdf565b61036f60205481565b6103086111c3565b61031761045f366004612d46565b611384565b610308610472366004612d5f565b611394565b6103ce610485366004612d5f565b601d6020526000908152604090205460ff1681565b61030861147e565b6103ce6104b0366004612d5f565b60036020526000908152604090205460ff1681565b6103086104d3366004612d7a565b611544565b6103176104e6366004612d46565b611688565b6103176104f9366004612d46565b611698565b61036f61050c366004612d5f565b60046020526000908152604090205481565b61031761052c366004612d46565b6116a8565b6103ce61053f366004612d5f565b60096020526000908152604090205460ff1681565b61036f610562366004612d5f565b600d6020526000908152604090205481565b610317610582366004612d46565b6116b8565b61036f60215481565b61036f61059e366004612d5f565b60076020526000908152604090205481565b6103ce6105be366004612d5f565b600f6020526000908152604090205460ff1681565b6103ce6105e1366004612d5f565b600c6020526000908152604090205460ff1681565b6103177f000000000000000000000000000000000000000000000000000000000000000081565b61036f61062b366004612d5f565b60176020526000908152604090205481565b61036f61064b366004612d5f565b60146020526000908152604090205481565b61031761066b366004612d46565b6116c8565b61036f61067e366004612da4565b6116d8565b61036f610691366004612d5f565b600a6020526000908152604090205481565b61036f6106b1366004612d5f565b601a6020526000908152604090205481565b6103176106d1366004612d46565b6118dd565b61036f7f000000000000000000000000000000000000000000000000000000000000000081565b61030861070b366004612d1a565b6118ed565b6103ce61071e366004612d5f565b60166020526000908152604090205460ff1681565b6103ce610741366004612de8565b611a26565b6103ce610754366004612d5f565b60136020526000908152604090205460ff1681565b6103ce610777366004612d5f565b60196020526000908152604090205460ff1681565b61036f61079a366004612d5f565b601e6020526000908152604090205481565b6103ce6107ba366004612e12565b611e90565b61036f60225481565b6103176107d6366004612d46565b612769565b61036f6107e9366004612d5f565b60106020526000908152604090205481565b6001600160a01b03811660009081526003602052604090205460ff1661083c5760405162461bcd60e51b815260040161083390612e55565b60405180910390fd5b3360009081526009602052604090205460ff1615156001146108705760405162461bcd60e51b815260040161083390612e7b565b600061087c8284610fdf565b60405163079cc67960e41b8152336004820152602481018290529091507f00000000000000000000000000000000000000000000000000000000000000006001600160a01b0316906379cc679090604401600060405180830381600087803b1580156108e757600080fd5b505af11580156108fb573d6000803e3d6000fd5b505060215461090d9250905082612779565b602181905560405160008051602061317083398151915290600090a261093d6001600160a01b03831633856127bb565b60408051848152602081018390526001600160a01b038416917fdf273cb619d95419a9cd0ec88123a0538c85064229baa6363788f743fff90deb91015b60405180910390a2505050565b6012818154811061099757600080fd5b6000918252602090912001546001600160a01b0316905081565b6000546001600160a01b031633146109db5760405162461bcd60e51b815260040161083390612ea1565b600080546040516001600160a01b03909116907fea8258f2d9ddb679928cf34b78cf645b7feda9acc828e4dd82d014eaae270eba908390a3600080546001600160a01b0319169055565b6001600160a01b0382166000908152600c602052604090205460ff1615610a7a573360009081526016602052604090205460ff16610a755760405162461bcd60e51b815260040161083390612e7b565b610aa9565b3360009081526013602052604090205460ff16610aa95760405162461bcd60e51b815260040161083390612e7b565b6000610ab58383610fdf565b9050610abf610b7e565b811115610b065760405162461bcd60e51b8152602060048201526015602482015274496e73756666696369656e7420726573657276657360581b6044820152606401610833565b602154610b139082612779565b602181905560405160008051602061317083398151915290600090a2610b436001600160a01b03841633846127bb565b826001600160a01b03167f2bb2640731848fe9820ba48dbc978c1fc9bbd5f11b948bfab05b7dee3378fd808360405161097a91815260200190565b6000610c1a610c116022547f00000000000000000000000000000000000000000000000000000000000000006001600160a01b03166318160ddd6040518163ffffffff1660e01b8152600401602060405180830381865afa158015610be7573d6000803e3d6000fd5b505050506040513d601f19601f82011682018060405250810190610c0b9190612ed6565b90612779565b60215490612779565b905090565b3360009081526019602052604090205460ff16610c4e5760405162461bcd60e51b815260040161083390612e7b565b60405163079cc67960e41b8152336004820152602481018290527f00000000000000000000000000000000000000000000000000000000000000006001600160a01b0316906379cc679090604401600060405180830381600087803b158015610cb657600080fd5b505af1158015610cca573d6000803e3d6000fd5b5050336000908152601b6020526040902054610ce99250905082612779565b336000908152601b6020526040902055602254610d069082612779565b60225560408051828152602081018390527f00000000000000000000000000000000000000000000000000000000000000006001600160a01b03169133917fc6d98eecfc9c78ab62c89a82950079b54874749f1f6f24090f7acc758bc2f309910160405180910390a350565b3360009081526019602052604090205460ff16610da15760405162461bcd60e51b815260040161083390612e7b565b6001600160a01b03811660009081526003602052604090205460ff16610dd95760405162461bcd60e51b815260040161083390612e55565b6000610de58284610fdf565b601f546040516370a0823160e01b81523360048201529192506000916001600160a01b03909116906370a0823190602401602060405180830381865afa158015610e33573d6000803e3d6000fd5b505050506040513d601f19601f82011682018060405250810190610e579190612ed6565b336000908152601b602052604081205491925090610e76908390612779565b905080831115610ebd5760405162461bcd60e51b8152602060048201526012602482015271115e18d959591cc81919589d081b1a5b5a5d60721b6044820152606401610833565b336000908152601b6020526040902054610ed79084612823565b336000908152601b6020526040902055602254610ef49084612823565b602255602154610f049084612779565b602181905560405160008051602061317083398151915290600090a260405163a9059cbb60e01b8152336004820152602481018690526001600160a01b0385169063a9059cbb906044016020604051808303816000875af1158015610f6d573d6000803e3d6000fd5b505050506040513d601f19601f82011682018060405250810190610f919190612eef565b5060408051868152602081018590526001600160a01b0386169133917f7e1a939bed137a819b5d2979822c67f877689f7a863d5e4cb57cdca97b2977d6910160405180910390a35050505050565b6001600160a01b03821660009081526003602052604081205460ff16156111145761110d836001600160a01b031663313ce5676040518163ffffffff1660e01b8152600401602060405180830381865afa158015611041573d6000803e3d6000fd5b505050506040513d601f19601f820116820180604052508101906110659190612f11565b61107090600a61302e565b6111077f00000000000000000000000000000000000000000000000000000000000000006001600160a01b031663313ce5676040518163ffffffff1660e01b8152600401602060405180830381865afa1580156110d1573d6000803e3d6000fd5b505050506040513d601f19601f820116820180604052508101906110f59190612f11565b61110090600a61302e565b8590612882565b90612901565b90506111bd565b6001600160a01b0383166000908152600c602052604090205460ff16156111bd576001600160a01b0383811660008181526011602052604090819020549051634249719f60e01b815260048101929092526024820185905290911690634249719f90604401602060405180830381865afa158015611196573d6000803e3d6000fd5b505050506040513d601f19601f820116820180604052508101906111ba9190612ed6565b90505b92915050565b6000546001600160a01b031633146111ed5760405162461bcd60e51b815260040161083390612ea1565b6000805b6002548110156112d0576112bc6112b5600283815481106112145761121461303d565b600091825260209091200154600280546001600160a01b0390921691859081106112405761124061303d565b6000918252602090912001546040516370a0823160e01b81523060048201526001600160a01b03909116906370a0823190602401602060405180830381865afa158015611291573d6000803e3d6000fd5b505050506040513d601f19601f8201168201806040525081019061043b9190612ed6565b8390612823565b9150806112c881613053565b9150506111f1565b5060005b600b54811015611337576113236112b5600b83815481106112f7576112f761303d565b600091825260209091200154600b80546001600160a01b0390921691859081106112405761124061303d565b91508061132f81613053565b9150506112d4565b506021819055604051819060008051602061317083398151915290600090a260405181907fec691f09f6924b27932253f85caf99bacc30360cc0e50a1cc4d2acc24601446690600090a250565b6008818154811061099757600080fd5b6000546001600160a01b031633146113be5760405162461bcd60e51b815260040161083390612ea1565b6001600160a01b0381166114235760405162461bcd60e51b815260206004820152602660248201527f4f776e61626c653a206e6577206f776e657220697320746865207a65726f206160448201526564647265737360d01b6064820152608401610833565b600080546040516001600160a01b03808516939216917fea8258f2d9ddb679928cf34b78cf645b7feda9acc828e4dd82d014eaae270eba91a3600180546001600160a01b0319166001600160a01b0392909216919091179055565b6001546001600160a01b031633146114e35760405162461bcd60e51b815260206004820152602260248201527f4f776e61626c653a206d757374206265206e6577206f776e657220746f2070756044820152611b1b60f21b6064820152608401610833565b600154600080546040516001600160a01b0393841693909116917faa151555690c956fc3ea32f106bb9f119b5237a061eaa8557cff3e51e3792c8d91a3600154600080546001600160a01b0319166001600160a01b03909216919091179055565b336000908152601d602052604090205460ff166115735760405162461bcd60e51b815260040161083390612e7b565b61157b610b7e565b8111156115c25760405162461bcd60e51b8152602060048201526015602482015274496e73756666696369656e7420726573657276657360581b6044820152606401610833565b6040516340c10f1960e01b81526001600160a01b038381166004830152602482018390527f000000000000000000000000000000000000000000000000000000000000000016906340c10f1990604401600060405180830381600087803b15801561162c57600080fd5b505af1158015611640573d6000803e3d6000fd5b50506040518381526001600160a01b03851692503391507ffa8ccab40e7da8146c2304cd0950334fd30a6ba093abe86261aa13911fed849c9060200160405180910390a35050565b6005818154811061099757600080fd5b6015818154811061099757600080fd5b6018818154811061099757600080fd5b600e818154811061099757600080fd5b601c818154811061099757600080fd5b6001600160a01b03821660009081526003602052604081205460ff168061171757506001600160a01b0383166000908152600c602052604090205460ff165b6117335760405162461bcd60e51b815260040161083390612e55565b6117486001600160a01b038416333087612943565b6001600160a01b03831660009081526003602052604090205460ff161561179d573360009081526006602052604090205460ff166117985760405162461bcd60e51b815260040161083390612e7b565b6117cc565b336000908152600f602052604090205460ff166117cc5760405162461bcd60e51b815260040161083390612e7b565b60006117d88486610fdf565b90506117e48184612779565b6040516340c10f1960e01b8152336004820152602481018290529092507f00000000000000000000000000000000000000000000000000000000000000006001600160a01b0316906340c10f1990604401600060405180830381600087803b15801561184f57600080fd5b505af1158015611863573d6000803e3d6000fd5b50506021546118759250905082612823565b602181905560405160008051602061317083398151915290600090a260408051868152602081018390526001600160a01b038616917f90890809c654f11d6e72a28fa60149770a0d11ec6c92319d6ceb2bb0a4ea1a15910160405180910390a2509392505050565b6002818154811061099757600080fd5b3360009081526019602052604090205460ff1661191c5760405162461bcd60e51b815260040161083390612e7b565b6001600160a01b03811660009081526003602052604090205460ff166119545760405162461bcd60e51b815260040161083390612e55565b6119696001600160a01b038216333085612943565b60006119758284610fdf565b336000908152601b60205260409020549091506119929082612779565b336000908152601b60205260409020556022546119af9082612779565b6022556021546119bf9082612823565b602181905560405160008051602061317083398151915290600090a260408051848152602081018390526001600160a01b0384169133917fc6d98eecfc9c78ab62c89a82950079b54874749f1f6f24090f7acc758bc2f309910160405180910390a3505050565b600080546001600160a01b03163314611a515760405162461bcd60e51b815260040161083390612ea1565b6001600160a01b038216611a6457600080fd5b6000836009811115611a7857611a7861306e565b1415611ac657611aa8437f0000000000000000000000000000000000000000000000000000000000000000612823565b6001600160a01b038316600090815260076020526040902055611e39565b6001836009811115611ada57611ada61306e565b1415611b2857611b0a437f0000000000000000000000000000000000000000000000000000000000000000612823565b6001600160a01b0383166000908152600a6020526040902055611e39565b6002836009811115611b3c57611b3c61306e565b1415611b8a57611b6c437f0000000000000000000000000000000000000000000000000000000000000000612823565b6001600160a01b038316600090815260046020526040902055611e39565b6003836009811115611b9e57611b9e61306e565b1415611bf757611bd9611bd27f00000000000000000000000000000000000000000000000000000000000000006002612882565b4390612823565b6001600160a01b038316600090815260146020526040902055611e39565b6004836009811115611c0b57611c0b61306e565b1415611c5957611c3b437f0000000000000000000000000000000000000000000000000000000000000000612823565b6001600160a01b038316600090815260106020526040902055611e39565b6005836009811115611c6d57611c6d61306e565b1415611cbb57611c9d437f0000000000000000000000000000000000000000000000000000000000000000612823565b6001600160a01b0383166000908152600d6020526040902055611e39565b6006836009811115611ccf57611ccf61306e565b1415611d2157611d03611bd27f00000000000000000000000000000000000000000000000000000000000000006002612882565b6001600160a01b038316600090815260176020526040902055611e39565b6007836009811115611d3557611d3561306e565b1415611d8357611d65437f0000000000000000000000000000000000000000000000000000000000000000612823565b6001600160a01b0383166000908152601a6020526040902055611e39565b6008836009811115611d9757611d9761306e565b1415611de557611dc7437f0000000000000000000000000000000000000000000000000000000000000000612823565b6001600160a01b0383166000908152601e6020526040902055611e39565b6009836009811115611df957611df961306e565b1415611e3157611e29437f0000000000000000000000000000000000000000000000000000000000000000612823565b602055611e39565b5060006111bd565b826009811115611e4b57611e4b61306e565b6040516001600160a01b03841681527f0e4f2c4b5bc209d509bc3d49348c787fefadc66a79351b470599ac0f5be52eaf9060200160405180910390a250600192915050565b600080546001600160a01b03163314611ebb5760405162461bcd60e51b815260040161083390612ea1565b6001600160a01b038316611ece57600080fd5b600080856009811115611ee357611ee361306e565b1415611f9f57611ef66007600686612981565b15611f6f576001600160a01b038416600090815260076020526040812055611f1f600585612a61565b611f6f57600580546001810182556000919091527f036b6384b5eca791c62761152d0c79bb0604c104a5fb6f4eb0703f3154bb3db00180546001600160a01b0319166001600160a01b0386161790555b506001600160a01b0383166000908152600660205260409020805460ff81161560ff199091168117909155612707565b6001856009811115611fb357611fb361306e565b141561206f57611fc6600a600986612981565b1561203f576001600160a01b0384166000908152600a6020526040812055611fef600885612a61565b61203f57600880546001810182556000919091527ff3f7a9fe364faab93b216da50a3214154f22a0a2b415b23a84c8169e8b636ee30180546001600160a01b0319166001600160a01b0386161790555b506001600160a01b0383166000908152600960205260409020805460ff81161560ff199091168117909155612707565b60028560098111156120835761208361306e565b141561213f576120966004600386612981565b1561210f576001600160a01b0384166000908152600460205260408120556120bf600285612a61565b61210f57600280546001810182556000919091527f405787fa12a823e0f2b7631cc41b3ba8828b3321ca811111fa75cd3aa3bb5ace0180546001600160a01b0319166001600160a01b0386161790555b506001600160a01b0383166000908152600360205260409020805460ff81161560ff199091168117909155612707565b60038560098111156121535761215361306e565b141561224c576121666014601386612981565b1561221c57601280546001810182557fbb8a6a4669ba250d26cd7a459eca9d215f8307e33aebe50379bc5a3617ec34440180546001600160a01b0319166001600160a01b0387169081179091556000908152601460205260408120556121cc9085612a61565b61221c57601280546001810182556000919091527fbb8a6a4669ba250d26cd7a459eca9d215f8307e33aebe50379bc5a3617ec34440180546001600160a01b0319166001600160a01b0386161790555b506001600160a01b0383166000908152601360205260409020805460ff81161560ff199091168117909155612707565b60048560098111156122605761226061306e565b1415612359576122736010600f86612981565b1561232957600e80546001810182557fbb7b4a454dc3493923482f07822329ed19e8244eff582cc204f8554c3620c3fd0180546001600160a01b0319166001600160a01b0387169081179091556000908152601060205260408120556122d99085612a61565b61232957600e80546001810182556000919091527fbb7b4a454dc3493923482f07822329ed19e8244eff582cc204f8554c3620c3fd0180546001600160a01b0319166001600160a01b0386161790555b506001600160a01b0383166000908152600f60205260409020805460ff81161560ff199091168117909155612707565b600585600981111561236d5761236d61306e565b141561244b57612380600d600c86612981565b156123f9576001600160a01b0384166000908152600d60205260408120556123a9600b85612a61565b6123f957600b80546001810182556000919091527f0175b7a638427703f0dbe7bb9bbf987a2551717b34e79f33b5b1008d1fa01db90180546001600160a01b0319166001600160a01b0386161790555b506001600160a01b038381166000908152600c60209081526040808320805460ff81161560ff199091168117909155601190925290912080546001600160a01b03191692851692909217909155612707565b600685600981111561245f5761245f61306e565b141561251b576124726017601686612981565b156124eb576001600160a01b03841660009081526017602052604081205561249b601585612a61565b6124eb57601580546001810182556000919091527f55f448fdea98c4d29eb340757ef0a66cd03dbb9538908a6a81d96026b71ec4750180546001600160a01b0319166001600160a01b0386161790555b506001600160a01b0383166000908152601660205260409020805460ff81161560ff199091168117909155612707565b600785600981111561252f5761252f61306e565b14156125eb57612542601a601986612981565b156125bb576001600160a01b0384166000908152601a602052604081205561256b601885612a61565b6125bb57601880546001810182556000919091527fb13d2d76d1f4b7be834882e410b3e3a8afaf69f83600ae24db354391d2378d2e0180546001600160a01b0319166001600160a01b0386161790555b506001600160a01b0383166000908152601960205260409020805460ff81161560ff199091168117909155612707565b60088560098111156125ff576125ff61306e565b14156126bb57612612601e601d86612981565b1561268b576001600160a01b0384166000908152601e602052604081205561263b601c85612a61565b61268b57601c80546001810182556000919091527f0e4562a10381dec21b205ed72637e6b1b523bdd0e4d4d50af5cd23dd4500a2110180546001600160a01b0319166001600160a01b0386161790555b506001600160a01b0383166000908152601d60205260409020805460ff81161560ff199091168117909155612707565b60098560098111156126cf576126cf61306e565b14156126fd57506000602055601f80546001600160a01b0319166001600160a01b0385161790556001612707565b6000915050612762565b8460098111156127195761271961306e565b604080516001600160a01b038716815283151560208201527f0dcacb7e392f3d6a216ed2660e3dcfd40b7793d33591db2ba185a6b8e44fc477910160405180910390a260019150505b9392505050565b600b818154811061099757600080fd5b60006111ba83836040518060400160405280601e81526020017f536166654d6174683a207375627472616374696f6e206f766572666c6f770000815250612ac1565b6040516001600160a01b03831660248201526044810182905261281e90849063a9059cbb60e01b906064015b60408051601f198184030181529190526020810180516001600160e01b03166001600160e01b031990931692909217909152612afb565b505050565b6000806128308385613084565b9050838110156111ba5760405162461bcd60e51b815260206004820152601b60248201527f536166654d6174683a206164646974696f6e206f766572666c6f7700000000006044820152606401610833565b600082612891575060006111bd565b600061289d838561309c565b9050826128aa85836130bb565b146111ba5760405162461bcd60e51b815260206004820152602160248201527f536166654d6174683a206d756c7469706c69636174696f6e206f766572666c6f6044820152607760f81b6064820152608401610833565b60006111ba83836040518060400160405280601a81526020017f536166654d6174683a206469766973696f6e206279207a65726f000000000000815250612bcd565b6040516001600160a01b038085166024830152831660448201526064810182905261297b9085906323b872dd60e01b906084016127e7565b50505050565b6001600160a01b03811660009081526020839052604081205460ff16612a57576001600160a01b0382166000908152602085905260409020546129f35760405162461bcd60e51b815260206004820152600a6024820152694d75737420717565756560b01b6044820152606401610833565b6001600160a01b038216600090815260208590526040902054431015612a4f5760405162461bcd60e51b8152602060048201526011602482015270145d595d59481b9bdd08195e1c1a5c9959607a1b6044820152606401610833565b506001612762565b5060009392505050565b6000805b8354811015612a5757826001600160a01b0316848281548110612a8a57612a8a61303d565b6000918252602090912001546001600160a01b03161415612aaf5760019150506111bd565b80612ab981613053565b915050612a65565b60008184841115612ae55760405162461bcd60e51b81526004016108339190613109565b506000612af2848661313c565b95945050505050565b6000612b50826040518060400160405280602081526020017f5361666545524332303a206c6f772d6c6576656c2063616c6c206661696c6564815250856001600160a01b0316612bfb9092919063ffffffff16565b80519091501561281e5780806020019051810190612b6e9190612eef565b61281e5760405162461bcd60e51b815260206004820152602a60248201527f5361666545524332303a204552433230206f7065726174696f6e20646964206e6044820152691bdd081cdd58d8d9595960b21b6064820152608401610833565b60008183612bee5760405162461bcd60e51b81526004016108339190613109565b506000612af284866130bb565b6060612c0a8484600085612c12565b949350505050565b6060843b612c625760405162461bcd60e51b815260206004820152601d60248201527f416464726573733a2063616c6c20746f206e6f6e2d636f6e74726163740000006044820152606401610833565b600080866001600160a01b03168587604051612c7e9190613153565b60006040518083038185875af1925050503d8060008114612cbb576040519150601f19603f3d011682016040523d82523d6000602084013e612cc0565b606091505b50915091508115612cd4579150612c0a9050565b805115612ce45780518082602001fd5b8360405162461bcd60e51b81526004016108339190613109565b80356001600160a01b0381168114612d1557600080fd5b919050565b60008060408385031215612d2d57600080fd5b82359150612d3d60208401612cfe565b90509250929050565b600060208284031215612d5857600080fd5b5035919050565b600060208284031215612d7157600080fd5b6111ba82612cfe565b60008060408385031215612d8d57600080fd5b612d9683612cfe565b946020939093013593505050565b600080600060608486031215612db957600080fd5b83359250612dc960208501612cfe565b9150604084013590509250925092565b8035600a8110612d1557600080fd5b60008060408385031215612dfb57600080fd5b612e0483612dd9565b9150612d3d60208401612cfe565b600080600060608486031215612e2757600080fd5b612e3084612dd9565b9250612e3e60208501612cfe565b9150612e4c60408501612cfe565b90509250925092565b6020808252600c908201526b139bdd081858d8d95c1d195960a21b604082015260600190565b6020808252600c908201526b139bdd08185c1c1c9bdd995960a21b604082015260600190565b6020808252818101527f4f776e61626c653a2063616c6c6572206973206e6f7420746865206f776e6572604082015260600190565b600060208284031215612ee857600080fd5b5051919050565b600060208284031215612f0157600080fd5b815180151581146111ba57600080fd5b600060208284031215612f2357600080fd5b815160ff811681146111ba57600080fd5b634e487b7160e01b600052601160045260246000fd5b600181815b80851115612f85578160001904821115612f6b57612f6b612f34565b80851615612f7857918102915b93841c9390800290612f4f565b509250929050565b600082612f9c575060016111bd565b81612fa9575060006111bd565b8160018114612fbf5760028114612fc957612fe5565b60019150506111bd565b60ff841115612fda57612fda612f34565b50506001821b6111bd565b5060208310610133831016604e8410600b8410161715613008575081810a6111bd565b6130128383612f4a565b806000190482111561302657613026612f34565b029392505050565b60006111ba60ff841683612f8d565b634e487b7160e01b600052603260045260246000fd5b600060001982141561306757613067612f34565b5060010190565b634e487b7160e01b600052602160045260246000fd5b6000821982111561309757613097612f34565b500190565b60008160001904831182151516156130b6576130b6612f34565b500290565b6000826130d857634e487b7160e01b600052601260045260246000fd5b500490565b60005b838110156130f85781810151838201526020016130e0565b8381111561297b5750506000910152565b60208152600082518060208401526131288160408501602087016130dd565b601f01601f19169190910160400192915050565b60008282101561314e5761314e612f34565b500390565b600082516131658184602087016130dd565b919091019291505056fe93bb8edd35984706eee1b92541281f7f62d33c01c5b2ec0929a113603bd21d66a26469706673582212202de7bdbd4de3dca3cb1d9fd01ada09eed23c6806596f9414325f4423b71bad7264736f6c634300080a0033",
  "linkReferences": {},
  "deployedLinkReferences": {}
}