{
  "address": "0xEE771F8bda7958064F83d5b75A42D432B55155b4",
  "abi": [
    {
      "anonymous": false,
      "inputs": [
        {
          "indexed": true,
          "internalType": "uint256",
          "name": "amount",
          "type": "uint256"
        }
      ],
      "name": "FundRequested",
      "type": "event"
    },
    {
      "anonymous": false,
      "inputs": [
        {
          "indexed": true,
          "internalType": "address",
          "name": "previousOwner",
          "type": "address"
        },
        {
          "indexed": true,
          "internalType": "address",
          "name": "newOwner",
          "type": "address"
        }
      ],
      "name": "OwnershipTransferred",
      "type": "event"
    },
    {
      "anonymous": false,
      "inputs": [
        {
          "indexed": true,
          "internalType": "address",
          "name": "requester",
          "type": "address"
        }
      ],
      "name": "RequesterAdded",
      "type": "event"
    },
    {
      "anonymous": false,
      "inputs": [
        {
          "indexed": true,
          "internalType": "address",
          "name": "requester",
          "type": "address"
        }
      ],
      "name": "RequesterRemoved",
      "type": "event"
    },
    {
      "inputs": [
        {
          "internalType": "address",
          "name": "_requester",
          "type": "address"
        }
      ],
      "name": "addRequester",
      "outputs": [],
      "stateMutability": "nonpayable",
      "type": "function"
    },
    {
      "inputs": [
        {
          "internalType": "address",
          "name": "_receiver",
          "type": "address"
        },
        {
          "internalType": "uint256",
          "name": "_amount",
          "type": "uint256"
        }
      ],
      "name": "distributeTo",
      "outputs": [],
      "stateMutability": "nonpayable",
      "type": "function"
    },
    {
      "inputs": [
        {
          "internalType": "address",
          "name": "_reward",
          "type": "address"
        }
      ],
      "name": "initialize",
      "outputs": [],
      "stateMutability": "nonpayable",
      "type": "function"
    },
    {
      "inputs": [],
      "name": "missingDecimals",
      "outputs": [
        {
          "internalType": "uint256",
          "name": "",
          "type": "uint256"
        }
      ],
      "stateMutability": "view",
      "type": "function"
    },
    {
      "inputs": [],
      "name": "owner",
      "outputs": [
        {
          "internalType": "address",
          "name": "",
          "type": "address"
        }
      ],
      "stateMutability": "view",
      "type": "function"
    },
    {
      "inputs": [
        {
          "internalType": "address",
          "name": "_requester",
          "type": "address"
        }
      ],
      "name": "removeRequester",
      "outputs": [],
      "stateMutability": "nonpayable",
      "type": "function"
    },
    {
      "inputs": [],
      "name": "renounceOwnership",
      "outputs": [],
      "stateMutability": "nonpayable",
      "type": "function"
    },
    {
      "inputs": [
        {
          "internalType": "address",
          "name": "",
          "type": "address"
        }
      ],
      "name": "requesters",
      "outputs": [
        {
          "internalType": "bool",
          "name": "",
          "type": "bool"
        }
      ],
      "stateMutability": "view",
      "type": "function"
    },
    {
      "inputs": [],
      "name": "reward",
      "outputs": [
        {
          "internalType": "contract IRewardToken",
          "name": "",
          "type": "address"
        }
      ],
      "stateMutability": "view",
      "type": "function"
    },
    {
      "inputs": [
        {
          "internalType": "address",
          "name": "newOwner_",
          "type": "address"
        }
      ],
      "name": "transferOwnership",
      "outputs": [],
      "stateMutability": "nonpayable",
      "type": "function"
    }
  ],
  "transactionHash": "0x5e73f95c37d191c6bae3dbd89df59574cb74cc1686321ab151f32ad86e22204b",
  "args": [],
  "solcInputHash": "643d8d4b32e974e077b9271b9fa171b4",
  "bytecode": "0x608060405234801561001057600080fd5b50600080546001600160a01b0319163390811782556040519091907f8be0079c531659141344cd1fd0a4f28419497f9722a3daafe3b4186f6b6457e0908290a3610b188061005f6000396000f3fe608060405234801561001057600080fd5b50600436106100be5760003560e01c8063c4d66de811610076578063d6f8307f1161005b578063d6f8307f1461015e578063e4d609cc14610191578063f2fde38b146101a457600080fd5b8063c4d66de814610138578063d66e57cd1461014b57600080fd5b8063412831c4116100a7578063412831c414610108578063715018a61461011f5780638da5cb5b1461012757600080fd5b80631107e77c146100c3578063228cb733146100d8575b600080fd5b6100d66100d1366004610926565b6101b7565b005b6001546100eb906001600160a01b031681565b6040516001600160a01b0390911681526020015b60405180910390f35b61011160025481565b6040519081526020016100ff565b6100d66102c7565b6000546001600160a01b03166100eb565b6100d6610146366004610926565b610378565b6100d6610159366004610948565b610559565b61018161016c366004610926565b60036020526000908152604090205460ff1681565b60405190151581526020016100ff565b6100d661019f366004610926565b6106bd565b6100d66101b2366004610926565b6107cc565b6000546001600160a01b031633146102165760405162461bcd60e51b815260206004820181905260248201527f4f776e61626c653a2063616c6c6572206973206e6f7420746865206f776e657260448201526064015b60405180910390fd5b6001600160a01b03811660009081526003602052604090205460ff1661027e5760405162461bcd60e51b815260206004820152601360248201527f726571756573746572206e6f7420666f756e6400000000000000000000000000604482015260640161020d565b6001600160a01b038116600081815260036020526040808220805460ff19169055517ffac6f04e18535b820487cce1312e5a45366b7326f7e956a9c48d70fecdde87619190a250565b6000546001600160a01b031633146103215760405162461bcd60e51b815260206004820181905260248201527f4f776e61626c653a2063616c6c6572206973206e6f7420746865206f776e6572604482015260640161020d565b600080546040516001600160a01b03909116907f8be0079c531659141344cd1fd0a4f28419497f9722a3daafe3b4186f6b6457e0908390a36000805473ffffffffffffffffffffffffffffffffffffffff19169055565b600054600160a81b900460ff16806103ab575060005474010000000000000000000000000000000000000000900460ff16155b61041d5760405162461bcd60e51b815260206004820152602e60248201527f496e697469616c697a61626c653a20636f6e747261637420697320616c72656160448201527f647920696e697469616c697a6564000000000000000000000000000000000000606482015260840161020d565b600054600160a81b900460ff1615801561047257600080547fffffffffffffffffffff0000ffffffffffffffffffffffffffffffffffffffff1675010100000000000000000000000000000000000000001790555b6001805473ffffffffffffffffffffffffffffffffffffffff19166001600160a01b038416908117909155604080517f313ce567000000000000000000000000000000000000000000000000000000008152905163313ce567916004808201926020929091908290030181865afa1580156104f1573d6000803e3d6000fd5b505050506040513d601f19601f820116820180604052508101906105159190610972565b6105209060126109ab565b60ff16600255801561055557600080547fffffffffffffffffffff00ffffffffffffffffffffffffffffffffffffffffff1690555b5050565b3360009081526003602052604090205460ff166105b85760405162461bcd60e51b815260206004820152601e60248201527f4f6e6c7920706f6f6c2063616e2072657175657374207472616e736665720000604482015260640161020d565b6001600160a01b03821661060e5760405162461bcd60e51b815260206004820152600f60248201527f496e76616c696420616464726573730000000000000000000000000000000000604482015260640161020d565b8015610555576001546002546001600160a01b03909116906340c10f1990849061063990600a610ab4565b6106439085610ac0565b6040517fffffffff0000000000000000000000000000000000000000000000000000000060e085901b1681526001600160a01b0390921660048301526024820152604401600060405180830381600087803b1580156106a157600080fd5b505af11580156106b5573d6000803e3d6000fd5b505050505050565b6000546001600160a01b031633146107175760405162461bcd60e51b815260206004820181905260248201527f4f776e61626c653a2063616c6c6572206973206e6f7420746865206f776e6572604482015260640161020d565b6001600160a01b03811660009081526003602052604090205460ff16156107805760405162461bcd60e51b815260206004820152601160248201527f7265717565737465722065786973746564000000000000000000000000000000604482015260640161020d565b6001600160a01b038116600081815260036020526040808220805460ff19166001179055517f1616bf4c0898e95cbe6407827ef9ba6f5887a571df69e07eeda76b2b2a4f7daf9190a250565b6000546001600160a01b031633146108265760405162461bcd60e51b815260206004820181905260248201527f4f776e61626c653a2063616c6c6572206973206e6f7420746865206f776e6572604482015260640161020d565b6001600160a01b0381166108a25760405162461bcd60e51b815260206004820152602660248201527f4f776e61626c653a206e6577206f776e657220697320746865207a65726f206160448201527f6464726573730000000000000000000000000000000000000000000000000000606482015260840161020d565b600080546040516001600160a01b03808516939216917f8be0079c531659141344cd1fd0a4f28419497f9722a3daafe3b4186f6b6457e091a36000805473ffffffffffffffffffffffffffffffffffffffff19166001600160a01b0392909216919091179055565b80356001600160a01b038116811461092157600080fd5b919050565b60006020828403121561093857600080fd5b6109418261090a565b9392505050565b6000806040838503121561095b57600080fd5b6109648361090a565b946020939093013593505050565b60006020828403121561098457600080fd5b815160ff8116811461094157600080fd5b634e487b7160e01b600052601160045260246000fd5b600060ff821660ff8416808210156109c5576109c5610995565b90039392505050565b600181815b80851115610a095781600019048211156109ef576109ef610995565b808516156109fc57918102915b93841c93908002906109d3565b509250929050565b600082610a2057506001610aae565b81610a2d57506000610aae565b8160018114610a435760028114610a4d57610a69565b6001915050610aae565b60ff841115610a5e57610a5e610995565b50506001821b610aae565b5060208310610133831016604e8410600b8410161715610a8c575081810a610aae565b610a9683836109ce565b8060001904821115610aaa57610aaa610995565b0290505b92915050565b60006109418383610a11565b600082610add57634e487b7160e01b600052601260045260246000fd5b50049056fea2646970667358221220b3823ee16aa84de2378af33968f31172bb9b306002e008ee95991b6db30cc9e564736f6c634300080b0033",
  "devdoc": {
    "kind": "dev",
    "methods": {},
    "version": 1
  },
  "userdoc": {
    "kind": "user",
    "methods": {},
    "version": 1
  },
  "storageLayout": {
    "storage": [
      {
        "astId": 11789,
        "contract": "contracts/FundDistributor.sol:FundDistributor",
        "label": "_owner",
        "offset": 0,
        "slot": "0",
        "type": "t_address"
      },
      {
        "astId": 11598,
        "contract": "contracts/FundDistributor.sol:FundDistributor",
        "label": "_initialized",
        "offset": 20,
        "slot": "0",
        "type": "t_bool"
      },
      {
        "astId": 11601,
        "contract": "contracts/FundDistributor.sol:FundDistributor",
        "label": "_initializing",
        "offset": 21,
        "slot": "0",
        "type": "t_bool"
      },
      {
        "astId": 18,
        "contract": "contracts/FundDistributor.sol:FundDistributor",
        "label": "reward",
        "offset": 0,
        "slot": "1",
        "type": "t_contract(IRewardToken)9755"
      },
      {
        "astId": 20,
        "contract": "contracts/FundDistributor.sol:FundDistributor",
        "label": "missingDecimals",
        "offset": 0,
        "slot": "2",
        "type": "t_uint256"
      },
      {
        "astId": 24,
        "contract": "contracts/FundDistributor.sol:FundDistributor",
        "label": "requesters",
        "offset": 0,
        "slot": "3",
        "type": "t_mapping(t_address,t_bool)"
      }
    ],
    "types": {
      "t_address": {
        "encoding": "inplace",
        "label": "address",
        "numberOfBytes": "20"
      },
      "t_bool": {
        "encoding": "inplace",
        "label": "bool",
        "numberOfBytes": "1"
      },
      "t_contract(IRewardToken)9755": {
        "encoding": "inplace",
        "label": "contract IRewardToken",
        "numberOfBytes": "20"
      },
      "t_mapping(t_address,t_bool)": {
        "encoding": "mapping",
        "key": "t_address",
        "label": "mapping(address => bool)",
        "numberOfBytes": "32",
        "value": "t_bool"
      },
      "t_uint256": {
        "encoding": "inplace",
        "label": "uint256",
        "numberOfBytes": "32"
      }
    }
  }
}