{
  "address": "0x7b4E3397CCcc97Bbd93dAF582575858f7Db092e6",
  "abi": [
    {
      "inputs": [
        {
          "internalType": "address",
          "name": "_QUOTE",
          "type": "address"
        }
      ],
      "stateMutability": "nonpayable",
      "type": "constructor"
    },
    {
      "inputs": [],
      "name": "QUOTE",
      "outputs": [
        {
          "internalType": "address",
          "name": "",
          "type": "address"
        }
      ],
      "stateMutability": "view",
      "type": "function"
    },
    {
      "inputs": [
        {
          "internalType": "address",
          "name": "_pair",
          "type": "address"
        }
      ],
      "name": "getTotalValue",
      "outputs": [
        {
          "internalType": "uint256",
          "name": "_value",
          "type": "uint256"
        }
      ],
      "stateMutability": "view",
      "type": "function"
    },
    {
      "inputs": [
        {
          "internalType": "address",
          "name": "_pair",
          "type": "address"
        }
      ],
      "name": "markdown",
      "outputs": [
        {
          "internalType": "uint256",
          "name": "",
          "type": "uint256"
        }
      ],
      "stateMutability": "view",
      "type": "function"
    },
    {
      "inputs": [
        {
          "internalType": "address",
          "name": "_pair",
          "type": "address"
        },
        {
          "internalType": "uint256",
          "name": "amount_",
          "type": "uint256"
        }
      ],
      "name": "valuation",
      "outputs": [
        {
          "internalType": "uint256",
          "name": "_value",
          "type": "uint256"
        }
      ],
      "stateMutability": "view",
      "type": "function"
    }
  ],
  "transactionHash": "0xb93382cb3a09062a69c3296fa681de3fa38a78d06daa58fe4ad4104bdc4fa8e7",
  "args": [
    "0xCa9eC7085Ed564154a9233e1e7D8fEF460438EEA"
  ],
  "solcInputHash": "731f1d7318f60180ef379d992f066ce4",
  "bytecode": "0x60a060405234801561001057600080fd5b506040516108b03803806108b083398101604081905261002f91610053565b6001600160a01b03811661004257600080fd5b6001600160a01b0316608052610083565b60006020828403121561006557600080fd5b81516001600160a01b038116811461007c57600080fd5b9392505050565b6080516108056100ab6000396000818160a2015281816102cd015261033401526108056000f3fe608060405234801561001057600080fd5b506004361061004c5760003560e01c806332da80a3146100515780634249719f14610077578063686375491461008a5780639c5798391461009d575b600080fd5b61006461005f3660046104f3565b6100dc565b6040519081526020015b60405180910390f35b610064610085366004610510565b6100ed565b6100646100983660046104f3565b610175565b6100c47f000000000000000000000000000000000000000000000000000000000000000081565b6040516001600160a01b03909116815260200161006e565b60006100e782610175565b92915050565b6000806100f984610175565b90506000846001600160a01b03166318160ddd6040518163ffffffff1660e01b8152600401602060405180830381865afa15801561013b573d6000803e3d6000fd5b505050506040513d601f19601f8201168201806040525081019061015f919061053c565b905061016c8285836103e1565b95945050505050565b6000806000836001600160a01b0316630902f1ac6040518163ffffffff1660e01b8152600401606060405180830381865afa1580156101b8573d6000803e3d6000fd5b505050506040513d601f19601f820116820180604052508101906101dc9190610585565b506001600160701b031691506001600160701b03169150600080856001600160a01b03166332bfe4696040518163ffffffff1660e01b81526004016040805180830381865afa158015610233573d6000803e3d6000fd5b505050506040513d601f19601f8201168201806040525081019061025791906105c8565b915091506000806000886001600160a01b0316630dfe16816040518163ffffffff1660e01b8152600401602060405180830381865afa15801561029e573d6000803e3d6000fd5b505050506040513d601f19601f820116820180604052508101906102c291906105fb565b6001600160a01b03167f00000000000000000000000000000000000000000000000000000000000000006001600160a01b0316146103035786868686610308565b858785875b93509350935050610326838363ffffffff168363ffffffff166103e1565b610330908461062e565b97507f00000000000000000000000000000000000000000000000000000000000000006001600160a01b031663313ce5676040518163ffffffff1660e01b8152600401602060405180830381865afa158015610390573d6000803e3d6000fd5b505050506040513d601f19601f820116820180604052508101906103b49190610646565b6103bf906012610669565b6103ca90600a610770565b6103d4908961077f565b9998505050505050505050565b60006103ee84848461042c565b9050600082806104005761040061079e565b848609111561042557600019811061041757600080fd5b80610421816107b4565b9150505b9392505050565b600080806000198587098587029250828110838203039150508060001415610466576000841161045b57600080fd5b508290049050610425565b80841161047257600080fd5b60008486880960026001871981018816978890046003810283188082028403028082028403028082028403028082028403028082028403029081029092039091026000889003889004909101858311909403939093029303949094049190911702949350505050565b6001600160a01b03811681146104f057600080fd5b50565b60006020828403121561050557600080fd5b8135610425816104db565b6000806040838503121561052357600080fd5b823561052e816104db565b946020939093013593505050565b60006020828403121561054e57600080fd5b5051919050565b80516001600160701b038116811461056c57600080fd5b919050565b805163ffffffff8116811461056c57600080fd5b60008060006060848603121561059a57600080fd5b6105a384610555565b92506105b160208501610555565b91506105bf60408501610571565b90509250925092565b600080604083850312156105db57600080fd5b6105e483610571565b91506105f260208401610571565b90509250929050565b60006020828403121561060d57600080fd5b8151610425816104db565b634e487b7160e01b600052601160045260246000fd5b6000821982111561064157610641610618565b500190565b60006020828403121561065857600080fd5b815160ff8116811461042557600080fd5b600060ff821660ff84168082101561068357610683610618565b90039392505050565b600181815b808511156106c75781600019048211156106ad576106ad610618565b808516156106ba57918102915b93841c9390800290610691565b509250929050565b6000826106de575060016100e7565b816106eb575060006100e7565b8160018114610701576002811461070b57610727565b60019150506100e7565b60ff84111561071c5761071c610618565b50506001821b6100e7565b5060208310610133831016604e8410600b841016171561074a575081810a6100e7565b610754838361068c565b806000190482111561076857610768610618565b029392505050565b600061042560ff8416836106cf565b600081600019048311821515161561079957610799610618565b500290565b634e487b7160e01b600052601260045260246000fd5b60006000198214156107c8576107c8610618565b506001019056fea264697066735822122092a53a74fe9e2a90f70d659779c0380878b76e4f17f542a07807105672d83c5864736f6c634300080b0033",
  "devdoc": {
    "kind": "dev",
    "methods": {
      "getTotalValue(address)": {
        "params": {
          "_pair": "general pair that has the RequiemSwap interface implemented  - the value is calculated as the geometric average of input and output  - is consistent with the uniswapV2-type case"
        }
      },
      "valuation(address,uint256)": {
        "params": {
          "_pair": "general pair that has the RequiemSwap interface implemented",
          "amount_": "the amount of LP to price for the backing  - is consistent with the uniswapV2-type case"
        }
      }
    },
    "version": 1
  },
  "userdoc": {
    "kind": "user",
    "methods": {
      "getTotalValue(address)": {
        "notice": "note for general pairs the price does not necessarily satisfy the conditon that the lp value consists 50% of the one and the other token since the mid price is the quotient of the reserves. That is not necessarily the case for general pairs, therefore, we have to calculate the price separately and apply it to the reserve amount for conversion - calculates the total liquidity value denominated in the provided token - uses the 1bps ouytput reserves for that calculation to avoid slippage to   have a too large impact - the sencond token input argument is ignored when using pools with only 2 tokens"
      },
      "valuation(address,uint256)": {
        "notice": "- calculates the value in QUOTE  that backs reqt 1:1 of the input LP amount provided"
      }
    },
    "notice": "Bonding calculator for weighted pairs",
    "version": 1
  },
  "storageLayout": {
    "storage": [],
    "types": null
  }
}