{
  "address": "0x8f22De93BdfD96e7ab7816FadaB26F8BB08A11c3",
  "abi": [
    {
      "inputs": [
        {
          "internalType": "address",
          "name": "_REQT",
          "type": "address"
        },
        {
          "internalType": "address",
          "name": "_principal",
          "type": "address"
        },
        {
          "internalType": "address",
          "name": "_treasury",
          "type": "address"
        },
        {
          "internalType": "address",
          "name": "_DAO",
          "type": "address"
        },
        {
          "internalType": "address",
          "name": "_bondCalculator",
          "type": "address"
        }
      ],
      "stateMutability": "nonpayable",
      "type": "constructor"
    },
    {
      "anonymous": false,
      "inputs": [
        {
          "indexed": false,
          "internalType": "uint256",
          "name": "deposit",
          "type": "uint256"
        },
        {
          "indexed": true,
          "internalType": "uint256",
          "name": "payout",
          "type": "uint256"
        },
        {
          "indexed": true,
          "internalType": "uint256",
          "name": "expires",
          "type": "uint256"
        },
        {
          "indexed": true,
          "internalType": "uint256",
          "name": "priceInUSD",
          "type": "uint256"
        }
      ],
      "name": "BondCreated",
      "type": "event"
    },
    {
      "anonymous": false,
      "inputs": [
        {
          "indexed": true,
          "internalType": "uint256",
          "name": "priceInUSD",
          "type": "uint256"
        },
        {
          "indexed": true,
          "internalType": "uint256",
          "name": "internalPrice",
          "type": "uint256"
        },
        {
          "indexed": true,
          "internalType": "uint256",
          "name": "debtRatio",
          "type": "uint256"
        }
      ],
      "name": "BondPriceChanged",
      "type": "event"
    },
    {
      "anonymous": false,
      "inputs": [
        {
          "indexed": true,
          "internalType": "address",
          "name": "recipient",
          "type": "address"
        },
        {
          "indexed": false,
          "internalType": "uint256",
          "name": "payout",
          "type": "uint256"
        },
        {
          "indexed": false,
          "internalType": "uint256",
          "name": "remaining",
          "type": "uint256"
        }
      ],
      "name": "BondRedeemed",
      "type": "event"
    },
    {
      "anonymous": false,
      "inputs": [
        {
          "indexed": false,
          "internalType": "uint256",
          "name": "initialBCV",
          "type": "uint256"
        },
        {
          "indexed": false,
          "internalType": "uint256",
          "name": "newBCV",
          "type": "uint256"
        },
        {
          "indexed": false,
          "internalType": "uint256",
          "name": "adjustment",
          "type": "uint256"
        },
        {
          "indexed": false,
          "internalType": "bool",
          "name": "addition",
          "type": "bool"
        }
      ],
      "name": "ControlVariableAdjustment",
      "type": "event"
    },
    {
      "anonymous": false,
      "inputs": [
        {
          "indexed": true,
          "internalType": "address",
          "name": "previousOwner",
          "type": "address"
        },
        {
          "indexed": true,
          "internalType": "address",
          "name": "newOwner",
          "type": "address"
        }
      ],
      "name": "OwnershipPulled",
      "type": "event"
    },
    {
      "anonymous": false,
      "inputs": [
        {
          "indexed": true,
          "internalType": "address",
          "name": "previousOwner",
          "type": "address"
        },
        {
          "indexed": true,
          "internalType": "address",
          "name": "newOwner",
          "type": "address"
        }
      ],
      "name": "OwnershipPushed",
      "type": "event"
    },
    {
      "inputs": [],
      "name": "DAO",
      "outputs": [
        {
          "internalType": "address",
          "name": "",
          "type": "address"
        }
      ],
      "stateMutability": "view",
      "type": "function"
    },
    {
      "inputs": [],
      "name": "REQT",
      "outputs": [
        {
          "internalType": "address",
          "name": "",
          "type": "address"
        }
      ],
      "stateMutability": "view",
      "type": "function"
    },
    {
      "inputs": [],
      "name": "adjustment",
      "outputs": [
        {
          "internalType": "bool",
          "name": "add",
          "type": "bool"
        },
        {
          "internalType": "uint256",
          "name": "rate",
          "type": "uint256"
        },
        {
          "internalType": "uint256",
          "name": "target",
          "type": "uint256"
        },
        {
          "internalType": "uint256",
          "name": "buffer",
          "type": "uint256"
        },
        {
          "internalType": "uint256",
          "name": "lastBlock",
          "type": "uint256"
        }
      ],
      "stateMutability": "view",
      "type": "function"
    },
    {
      "inputs": [],
      "name": "bondCalculator",
      "outputs": [
        {
          "internalType": "address",
          "name": "",
          "type": "address"
        }
      ],
      "stateMutability": "view",
      "type": "function"
    },
    {
      "inputs": [
        {
          "internalType": "address",
          "name": "",
          "type": "address"
        }
      ],
      "name": "bondInfo",
      "outputs": [
        {
          "internalType": "uint256",
          "name": "payout",
          "type": "uint256"
        },
        {
          "internalType": "uint256",
          "name": "vesting",
          "type": "uint256"
        },
        {
          "internalType": "uint256",
          "name": "lastBlock",
          "type": "uint256"
        },
        {
          "internalType": "uint256",
          "name": "pricePaid",
          "type": "uint256"
        }
      ],
      "stateMutability": "view",
      "type": "function"
    },
    {
      "inputs": [],
      "name": "bondPrice",
      "outputs": [
        {
          "internalType": "uint256",
          "name": "price_",
          "type": "uint256"
        }
      ],
      "stateMutability": "view",
      "type": "function"
    },
    {
      "inputs": [],
      "name": "bondPriceInUSD",
      "outputs": [
        {
          "internalType": "uint256",
          "name": "price_",
          "type": "uint256"
        }
      ],
      "stateMutability": "view",
      "type": "function"
    },
    {
      "inputs": [],
      "name": "currentDebt",
      "outputs": [
        {
          "internalType": "uint256",
          "name": "",
          "type": "uint256"
        }
      ],
      "stateMutability": "view",
      "type": "function"
    },
    {
      "inputs": [],
      "name": "debtDecay",
      "outputs": [
        {
          "internalType": "uint256",
          "name": "decay_",
          "type": "uint256"
        }
      ],
      "stateMutability": "view",
      "type": "function"
    },
    {
      "inputs": [],
      "name": "debtRatio",
      "outputs": [
        {
          "internalType": "uint256",
          "name": "debtRatio_",
          "type": "uint256"
        }
      ],
      "stateMutability": "view",
      "type": "function"
    },
    {
      "inputs": [
        {
          "internalType": "uint256",
          "name": "_amount",
          "type": "uint256"
        },
        {
          "internalType": "uint256",
          "name": "_maxPrice",
          "type": "uint256"
        },
        {
          "internalType": "address",
          "name": "_depositor",
          "type": "address"
        }
      ],
      "name": "deposit",
      "outputs": [
        {
          "internalType": "uint256",
          "name": "",
          "type": "uint256"
        }
      ],
      "stateMutability": "nonpayable",
      "type": "function"
    },
    {
      "inputs": [
        {
          "internalType": "uint256",
          "name": "_controlVariable",
          "type": "uint256"
        },
        {
          "internalType": "uint256",
          "name": "_vestingTerm",
          "type": "uint256"
        },
        {
          "internalType": "uint256",
          "name": "_minimumPrice",
          "type": "uint256"
        },
        {
          "internalType": "uint256",
          "name": "_maxPayout",
          "type": "uint256"
        },
        {
          "internalType": "uint256",
          "name": "_fee",
          "type": "uint256"
        },
        {
          "internalType": "uint256",
          "name": "_maxDebt",
          "type": "uint256"
        },
        {
          "internalType": "uint256",
          "name": "_initialDebt",
          "type": "uint256"
        }
      ],
      "name": "initializeBondTerms",
      "outputs": [],
      "stateMutability": "nonpayable",
      "type": "function"
    },
    {
      "inputs": [],
      "name": "isLiquidityBond",
      "outputs": [
        {
          "internalType": "bool",
          "name": "",
          "type": "bool"
        }
      ],
      "stateMutability": "view",
      "type": "function"
    },
    {
      "inputs": [],
      "name": "lastDecay",
      "outputs": [
        {
          "internalType": "uint256",
          "name": "",
          "type": "uint256"
        }
      ],
      "stateMutability": "view",
      "type": "function"
    },
    {
      "inputs": [],
      "name": "maxPayout",
      "outputs": [
        {
          "internalType": "uint256",
          "name": "",
          "type": "uint256"
        }
      ],
      "stateMutability": "view",
      "type": "function"
    },
    {
      "inputs": [
        {
          "internalType": "uint256",
          "name": "_value",
          "type": "uint256"
        }
      ],
      "name": "payoutFor",
      "outputs": [
        {
          "internalType": "uint256",
          "name": "",
          "type": "uint256"
        }
      ],
      "stateMutability": "view",
      "type": "function"
    },
    {
      "inputs": [
        {
          "internalType": "address",
          "name": "_depositor",
          "type": "address"
        }
      ],
      "name": "pendingPayoutFor",
      "outputs": [
        {
          "internalType": "uint256",
          "name": "pendingPayout_",
          "type": "uint256"
        }
      ],
      "stateMutability": "view",
      "type": "function"
    },
    {
      "inputs": [
        {
          "internalType": "address",
          "name": "_depositor",
          "type": "address"
        }
      ],
      "name": "percentVestedFor",
      "outputs": [
        {
          "internalType": "uint256",
          "name": "percentVested_",
          "type": "uint256"
        }
      ],
      "stateMutability": "view",
      "type": "function"
    },
    {
      "inputs": [],
      "name": "policy",
      "outputs": [
        {
          "internalType": "address",
          "name": "",
          "type": "address"
        }
      ],
      "stateMutability": "view",
      "type": "function"
    },
    {
      "inputs": [],
      "name": "principal",
      "outputs": [
        {
          "internalType": "address",
          "name": "",
          "type": "address"
        }
      ],
      "stateMutability": "view",
      "type": "function"
    },
    {
      "inputs": [],
      "name": "pullManagement",
      "outputs": [],
      "stateMutability": "nonpayable",
      "type": "function"
    },
    {
      "inputs": [
        {
          "internalType": "address",
          "name": "newOwner_",
          "type": "address"
        }
      ],
      "name": "pushManagement",
      "outputs": [],
      "stateMutability": "nonpayable",
      "type": "function"
    },
    {
      "inputs": [
        {
          "internalType": "address",
          "name": "_token",
          "type": "address"
        }
      ],
      "name": "recoverLostToken",
      "outputs": [
        {
          "internalType": "bool",
          "name": "",
          "type": "bool"
        }
      ],
      "stateMutability": "nonpayable",
      "type": "function"
    },
    {
      "inputs": [
        {
          "internalType": "address",
          "name": "_recipient",
          "type": "address"
        },
        {
          "internalType": "bool",
          "name": "_stake",
          "type": "bool"
        }
      ],
      "name": "redeem",
      "outputs": [
        {
          "internalType": "uint256",
          "name": "",
          "type": "uint256"
        }
      ],
      "stateMutability": "nonpayable",
      "type": "function"
    },
    {
      "inputs": [],
      "name": "renounceManagement",
      "outputs": [],
      "stateMutability": "nonpayable",
      "type": "function"
    },
    {
      "inputs": [
        {
          "internalType": "bool",
          "name": "_addition",
          "type": "bool"
        },
        {
          "internalType": "uint256",
          "name": "_increment",
          "type": "uint256"
        },
        {
          "internalType": "uint256",
          "name": "_target",
          "type": "uint256"
        },
        {
          "internalType": "uint256",
          "name": "_buffer",
          "type": "uint256"
        }
      ],
      "name": "setAdjustment",
      "outputs": [],
      "stateMutability": "nonpayable",
      "type": "function"
    },
    {
      "inputs": [
        {
          "internalType": "enum RequiemQBondDepository.PARAMETER",
          "name": "_parameter",
          "type": "uint8"
        },
        {
          "internalType": "uint256",
          "name": "_input",
          "type": "uint256"
        }
      ],
      "name": "setBondTerms",
      "outputs": [],
      "stateMutability": "nonpayable",
      "type": "function"
    },
    {
      "inputs": [
        {
          "internalType": "address",
          "name": "_staking",
          "type": "address"
        },
        {
          "internalType": "bool",
          "name": "_helper",
          "type": "bool"
        }
      ],
      "name": "setStaking",
      "outputs": [],
      "stateMutability": "nonpayable",
      "type": "function"
    },
    {
      "inputs": [],
      "name": "staking",
      "outputs": [
        {
          "internalType": "address",
          "name": "",
          "type": "address"
        }
      ],
      "stateMutability": "view",
      "type": "function"
    },
    {
      "inputs": [],
      "name": "stakingHelper",
      "outputs": [
        {
          "internalType": "address",
          "name": "",
          "type": "address"
        }
      ],
      "stateMutability": "view",
      "type": "function"
    },
    {
      "inputs": [],
      "name": "standardizedDebtRatio",
      "outputs": [
        {
          "internalType": "uint256",
          "name": "",
          "type": "uint256"
        }
      ],
      "stateMutability": "view",
      "type": "function"
    },
    {
      "inputs": [],
      "name": "terms",
      "outputs": [
        {
          "internalType": "uint256",
          "name": "controlVariable",
          "type": "uint256"
        },
        {
          "internalType": "uint256",
          "name": "vestingTerm",
          "type": "uint256"
        },
        {
          "internalType": "uint256",
          "name": "minimumPrice",
          "type": "uint256"
        },
        {
          "internalType": "uint256",
          "name": "maxPayout",
          "type": "uint256"
        },
        {
          "internalType": "uint256",
          "name": "fee",
          "type": "uint256"
        },
        {
          "internalType": "uint256",
          "name": "maxDebt",
          "type": "uint256"
        }
      ],
      "stateMutability": "view",
      "type": "function"
    },
    {
      "inputs": [],
      "name": "totalDebt",
      "outputs": [
        {
          "internalType": "uint256",
          "name": "",
          "type": "uint256"
        }
      ],
      "stateMutability": "view",
      "type": "function"
    },
    {
      "inputs": [],
      "name": "treasury",
      "outputs": [
        {
          "internalType": "address",
          "name": "",
          "type": "address"
        }
      ],
      "stateMutability": "view",
      "type": "function"
    },
    {
      "inputs": [],
      "name": "useHelper",
      "outputs": [
        {
          "internalType": "bool",
          "name": "",
          "type": "bool"
        }
      ],
      "stateMutability": "view",
      "type": "function"
    },
    {
      "inputs": [],
      "name": "viewBondData",
      "outputs": [
        {
          "internalType": "uint256",
          "name": "_bondPrice_",
          "type": "uint256"
        },
        {
          "internalType": "uint256",
          "name": "_bondPriceInUsd_",
          "type": "uint256"
        },
        {
          "internalType": "uint256",
          "name": "_currentDebt_",
          "type": "uint256"
        }
      ],
      "stateMutability": "view",
      "type": "function"
    }
  ],
  "transactionHash": "0xf66517a4315b5f50a72ceab0f6be36369f99b1ca7fc75798c7e2221276daf46b",
  "args": [
    "0x2d90e6d9368b2838a9558B0a609750243C5C4679",
    "0x1152803C660f86D262f9A235612ddc82f705c0bD",
    "0x30E4242b17Cda7e6C5F05B7b2cE35A38e06BD7Ee",
    "0x10E38dFfFCfdBaaf590D5A9958B01C9cfcF6A63B",
    "0x7b4E3397CCcc97Bbd93dAF582575858f7Db092e6"
  ],
  "solcInputHash": "731f1d7318f60180ef379d992f066ce4",
  "bytecode": "0x6101406040523480156200001257600080fd5b5060405162002b7a38038062002b7a833981016040819052620000359162000118565b600080546001600160a01b0319163390811782556040519091907fea8258f2d9ddb679928cf34b78cf645b7feda9acc828e4dd82d014eaae270eba908290a36001600160a01b0385166200008857600080fd5b6001600160a01b038086166080528416620000a257600080fd5b6001600160a01b0380851660a0528316620000bc57600080fd5b6001600160a01b0380841660c0528216620000d657600080fd5b6001600160a01b0391821660e052166101208190521515610100525062000188915050565b80516001600160a01b03811681146200011357600080fd5b919050565b600080600080600060a086880312156200013157600080fd5b6200013c86620000fb565b94506200014c60208701620000fb565b93506200015c60408701620000fb565b92506200016c60608701620000fb565b91506200017c60808701620000fb565b90509295509295909350565b60805160a05160c05160e05161010051610120516128d7620002a36000396000818161049a01528181610bd2015281816110ac01526118d401526000818161057c01528181610b6c0152818161104601526117e40152600081816104390152818161168101526119e80152600081816103ae01528181611321015281816114f401526115de01526000818161047301528181610ba701528181610c660152818161108101528181611139015281816112ef015281816114b501528181611523015281816115af0152818161180a015281816118ac015261199201526000818161024c0152818161165f0152818161195301528181611a7b01528181611c2d01528181611d2101528181611dcf0152611ed301526128d76000f3fe608060405234801561001057600080fd5b506004361061021c5760003560e01c80637927ebf811610125578063cea55f57116100ad578063d7ccfb0b1161007c578063d7ccfb0b1461059e578063e0176de8146105a6578063e392a262146105ae578063f5c2ab5b146105b6578063fc7b9c18146105bf57600080fd5b8063cea55f5714610511578063d4d863ce14610519578063d50256251461052c578063d79690601461057757600080fd5b806398fabd3a116100f457806398fabd3a14610434578063b4abccba1461045b578063ba5d30781461046e578063c5332b7c14610495578063cd1234b3146104bc57600080fd5b80637927ebf8146103fe578063844b5c7c146104115780638dbdbe6d14610419578063904b3ece1461042c57600080fd5b8063451ee4a1116101a85780635a96ac0a116101775780635a96ac0a146103a157806361d027b3146103a957806371535008146103d0578063759076e5146103e357806377b81895146103eb57600080fd5b8063451ee4a11461032157806346f68ee9146103685780634cf088d91461037b578063507930ec1461038e57600080fd5b80631a3d0068116101ef5780631a3d0068146102a15780631e321a0f146102b45780631feed31f146102c75780632f3f470a146102da578063338e4d65146102fe57600080fd5b806301b88ee81461022157806302bb41e5146102475780630505c8c914610286578063089208d814610297575b600080fd5b61023461022f3660046124e4565b6105c8565b6040519081526020015b60405180910390f35b61026e7f000000000000000000000000000000000000000000000000000000000000000081565b6040516001600160a01b03909116815260200161023e565b6000546001600160a01b031661026e565b61029f610622565b005b61029f6102af36600461250d565b61069f565b61029f6102c2366004612548565b610775565b6102346102d5366004612578565b610925565b6003546102ee90600160a01b900460ff1681565b604051901515815260200161023e565b610306610b0a565b6040805193845260208401929092529082015260600161023e565b600a54600b54600c54600d54600e5461033e9460ff169392919085565b6040805195151586526020860194909452928401919091526060830152608082015260a00161023e565b61029f6103763660046124e4565b610cf1565b60025461026e906001600160a01b031681565b61023461039c3660046124e4565b610ddb565b61029f610e67565b61026e7f000000000000000000000000000000000000000000000000000000000000000081565b61029f6103de3660046125af565b610f2d565b610234610ff9565b60035461026e906001600160a01b031681565b61023461040c3660046125fb565b611015565b610234611042565b610234610427366004612614565b6111c7565b6102346117e0565b61026e7f000000000000000000000000000000000000000000000000000000000000000081565b6102ee6104693660046124e4565b61194f565b61026e7f000000000000000000000000000000000000000000000000000000000000000081565b61026e7f000000000000000000000000000000000000000000000000000000000000000081565b6104f16104ca3660046124e4565b600f6020526000908152604090208054600182015460028301546003909301549192909184565b60408051948552602085019390935291830152606082015260800161023e565b610234611a76565b61029f610527366004612578565b611b38565b60045460055460065460075460085460095461054a95949392919086565b604080519687526020870195909552938501929092526060840152608083015260a082015260c00161023e565b6102ee7f000000000000000000000000000000000000000000000000000000000000000081565b610234611bd0565b610234611c1f565b610234611cad565b61023460115481565b61023460105481565b6000806105d483610ddb565b6001600160a01b0384166000908152600f602052604090205490915061271082106106015780925061061b565b61271061060e838361265f565b610618919061267e565b92505b5050919050565b6000546001600160a01b031633146106555760405162461bcd60e51b815260040161064c906126a0565b60405180910390fd5b600080546040516001600160a01b03909116907fea8258f2d9ddb679928cf34b78cf645b7feda9acc828e4dd82d014eaae270eba908390a3600080546001600160a01b0319169055565b6000546001600160a01b031633146106c95760405162461bcd60e51b815260040161064c906126a0565b6004546103e8906106db90601961265f565b6106e5919061267e565b83111561072a5760405162461bcd60e51b8152602060048201526013602482015272496e6372656d656e7420746f6f206c6172676560681b604482015260640161064c565b6040805160a0810182529415158086526020860185905290850183905260608501829052436080909501859052600a805460ff19169091179055600b92909255600c55600d55600e55565b6000546001600160a01b0316331461079f5760405162461bcd60e51b815260040161064c906126a0565b60008260038111156107b3576107b36126d5565b141561081d576127108110156108175760405162461bcd60e51b8152602060048201526024808201527f56657374696e67206d757374206265206c6f6e676572207468616e20333620686044820152636f75727360e01b606482015260840161064c565b60055550565b6001826003811115610831576108316126d5565b141561088f576103e88111156108895760405162461bcd60e51b815260206004820181905260248201527f5061796f75742063616e6e6f742062652061626f766520312070657263656e74604482015260640161064c565b60075550565b60028260038111156108a3576108a36126d5565b1415610901576127108111156108fb5760405162461bcd60e51b815260206004820152601c60248201527f44414f206665652063616e6e6f7420657863656564207061796f757400000000604482015260640161064c565b60085550565b6003826003811115610915576109156126d5565b14156109215760098190555b5050565b6001600160a01b0382166000908152600f602090815260408083208151608081018352815481526001820154938101939093526002810154918301919091526003015460608201528161097785610ddb565b90506127108110610a09576001600160a01b0385166000818152600f60205260408082208281556001810183905560028101839055600301829055845190517f51c99f515c87b0d95ba97f616edd182e8f161c4932eac17c6fefe9dab58b77b1926109e9928252602082015260400190565b60405180910390a2610a0085858460000151611cf4565b92505050610b04565b6000612710828460000151610a1e919061265f565b610a28919061267e565b90506040518060800160405280828560000151610a4591906126eb565b8152602001846040015143610a5a91906126eb565b8560200151610a6991906126eb565b8152436020808301919091526060868101516040938401526001600160a01b038a166000818152600f8452849020855180825586850151600183015586860151600283015595909201516003909201919091558251858152918201939093527f51c99f515c87b0d95ba97f616edd182e8f161c4932eac17c6fefe9dab58b77b1910160405180910390a2610afe868683611cf4565b93505050505b92915050565b6000806000610b17611cad565b601054610b2491906126eb565b905062989680610b32611a76565b600454610b3f919061265f565b610b4d90633b9aca00612702565b610b57919061267e565b600654909350831015610b6a5760065492505b7f000000000000000000000000000000000000000000000000000000000000000015610c62576040516332da80a360e01b81526001600160a01b037f0000000000000000000000000000000000000000000000000000000000000000811660048301526064917f0000000000000000000000000000000000000000000000000000000000000000909116906332da80a390602401602060405180830381865afa158015610c1b573d6000803e3d6000fd5b505050506040513d601f19601f82011682018060405250810190610c3f919061271a565b610c47611bd0565b610c51919061265f565b610c5b919061267e565b9150909192565b60647f00000000000000000000000000000000000000000000000000000000000000006001600160a01b031663313ce5676040518163ffffffff1660e01b8152600401602060405180830381865afa158015610cc2573d6000803e3d6000fd5b505050506040513d601f19601f82011682018060405250810190610ce69190612733565b610c3f90600a61283a565b6000546001600160a01b03163314610d1b5760405162461bcd60e51b815260040161064c906126a0565b6001600160a01b038116610d805760405162461bcd60e51b815260206004820152602660248201527f4f776e61626c653a206e6577206f776e657220697320746865207a65726f206160448201526564647265737360d01b606482015260840161064c565b600080546040516001600160a01b03808516939216917fea8258f2d9ddb679928cf34b78cf645b7feda9acc828e4dd82d014eaae270eba91a3600180546001600160a01b0319166001600160a01b0392909216919091179055565b6001600160a01b0381166000908152600f6020908152604080832081516080810183528154815260018201549381019390935260028101549183018290526003015460608301528290610e2e90436126eb565b60208301519091508015610e5a5780610e498361271061265f565b610e53919061267e565b9350610e5f565b600093505b505050919050565b6001546001600160a01b03163314610ecc5760405162461bcd60e51b815260206004820152602260248201527f4f776e61626c653a206d757374206265206e6577206f776e657220746f2070756044820152611b1b60f21b606482015260840161064c565b600154600080546040516001600160a01b0393841693909116917faa151555690c956fc3ea32f106bb9f119b5237a061eaa8557cff3e51e3792c8d91a3600154600080546001600160a01b0319166001600160a01b03909216919091179055565b6000546001600160a01b03163314610f575760405162461bcd60e51b815260040161064c906126a0565b60045415610fa75760405162461bcd60e51b815260206004820181905260248201527f426f6e6473206d75737420626520696e697469616c697a65642066726f6d2030604482015260640161064c565b6040805160c08101825288815260208101889052908101869052606081018590526080810184905260a00182905260049690965560059490945560069290925560075560085560095560105543601155565b6000611003611cad565b60105461101091906126eb565b905090565b6000662386f26fc100006110386110338461102e611bd0565b611fc3565b6120fe565b610b04919061267e565b60007f000000000000000000000000000000000000000000000000000000000000000015611135576040516332da80a360e01b81526001600160a01b037f0000000000000000000000000000000000000000000000000000000000000000811660048301526064917f0000000000000000000000000000000000000000000000000000000000000000909116906332da80a390602401602060405180830381865afa1580156110f5573d6000803e3d6000fd5b505050506040513d601f19601f82011682018060405250810190611119919061271a565b611121611bd0565b61112b919061265f565b611010919061267e565b60647f00000000000000000000000000000000000000000000000000000000000000006001600160a01b031663313ce5676040518163ffffffff1660e01b8152600401602060405180830381865afa158015611195573d6000803e3d6000fd5b505050506040513d601f19601f820116820180604052508101906111b99190612733565b61111990600a61283a565b90565b60006001600160a01b0382166112115760405162461bcd60e51b815260206004820152600f60248201526e496e76616c6964206164647265737360881b604482015260640161064c565b61121961211e565b60095460105411156112645760405162461bcd60e51b815260206004820152601460248201527313585e0818d85c1858da5d1e481c995858da195960621b604482015260640161064c565b600061126e611042565b9050600061127a612142565b9050808510156112d85760405162461bcd60e51b815260206004820152602360248201527f536c697070616765206c696d69743a206d6f7265207468616e206d617820707260448201526269636560e81b606482015260840161064c565b604051630f762d4d60e11b81526001600160a01b037f000000000000000000000000000000000000000000000000000000000000000081166004830152602482018890526000917f000000000000000000000000000000000000000000000000000000000000000090911690631eec5a9a90604401602060405180830381865afa15801561136a573d6000803e3d6000fd5b505050506040513d601f19601f8201168201806040525081019061138e919061271a565b9050600061139b82611015565b9050662386f26fc100008110156113e55760405162461bcd60e51b815260206004820152600e60248201526d109bdb99081d1bdbc81cdb585b1b60921b604482015260640161064c565b6113ed611c1f565b81111561142d5760405162461bcd60e51b815260206004820152600e60248201526d426f6e6420746f6f206c6172676560901b604482015260640161064c565b60085460009061271090611441908461265f565b61144b919061267e565b90508183101561148f5760405162461bcd60e51b815260206004820152600f60248201526e7061796f757420746f206c6172676560881b604482015260640161064c565b60008161149c84866126eb565b6114a691906126eb565b90506114dd6001600160a01b037f00000000000000000000000000000000000000000000000000000000000000001633308d6121a1565b60405163095ea7b360e01b81526001600160a01b037f000000000000000000000000000000000000000000000000000000000000000081166004830152602482018c90527f0000000000000000000000000000000000000000000000000000000000000000169063095ea7b3906044016020604051808303816000875af115801561156c573d6000803e3d6000fd5b505050506040513d601f19601f820116820180604052508101906115909190612849565b5060405163bc157ac160e01b8152600481018b90526001600160a01b037f000000000000000000000000000000000000000000000000000000000000000081166024830152604482018390527f0000000000000000000000000000000000000000000000000000000000000000169063bc157ac1906064016020604051808303816000875af1158015611627573d6000803e3d6000fd5b505050506040513d601f19601f8201168201806040525081019061164b919061271a565b5081156116a6576116a66001600160a01b037f0000000000000000000000000000000000000000000000000000000000000000167f000000000000000000000000000000000000000000000000000000000000000084612212565b836010546116b49190612702565b601055604080516080810182526001600160a01b038a166000908152600f602052919091205481906116e7908690612702565b81526005805460208084019190915243604080850182905260609485018c90526001600160a01b038e166000908152600f8452819020865181559286015160018401558501516002830155939092015160039092019190915554879161174d9190612702565b847f1fec6dc81f140574bf43f6b1e420ae1dd47928b9d57db8cbd7b8611063b85ae58d60405161177f91815260200190565b60405180910390a461178f611a76565b611797612142565b61179f611042565b6040517f375b221f40939bfd8f49723a17cf7bc6d576ebf72efe2cc3e991826f5b3f390a90600090a46117d0612247565b50909450505050505b9392505050565b60007f000000000000000000000000000000000000000000000000000000000000000015611947577f00000000000000000000000000000000000000000000000000000000000000006001600160a01b031663313ce5676040518163ffffffff1660e01b8152600401602060405180830381865afa158015611866573d6000803e3d6000fd5b505050506040513d601f19601f8201168201806040525081019061188a9190612733565b61189590600a61283a565b6040516332da80a360e01b81526001600160a01b037f0000000000000000000000000000000000000000000000000000000000000000811660048301527f000000000000000000000000000000000000000000000000000000000000000016906332da80a390602401602060405180830381865afa15801561191b573d6000803e3d6000fd5b505050506040513d601f19601f8201168201806040525081019061193f919061271a565b611121611a76565b611010611a76565b60007f00000000000000000000000000000000000000000000000000000000000000006001600160a01b0316826001600160a01b0316141561199057600080fd5b7f00000000000000000000000000000000000000000000000000000000000000006001600160a01b0316826001600160a01b031614156119cf57600080fd5b6040516370a0823160e01b8152306004820152611a6e907f0000000000000000000000000000000000000000000000000000000000000000906001600160a01b038516906370a0823190602401602060405180830381865afa158015611a39573d6000803e3d6000fd5b505050506040513d601f19601f82011682018060405250810190611a5d919061271a565b6001600160a01b0385169190612212565b506001919050565b6000807f00000000000000000000000000000000000000000000000000000000000000006001600160a01b03166318160ddd6040518163ffffffff1660e01b8152600401602060405180830381865afa158015611ad7573d6000803e3d6000fd5b505050506040513d601f19601f82011682018060405250810190611afb919061271a565b9050670de0b6b3a7640000611b28611033611b14610ff9565b611b2290633b9aca0061265f565b84611fc3565b611b32919061267e565b91505090565b6000546001600160a01b03163314611b625760405162461bcd60e51b815260040161064c906126a0565b6001600160a01b038216611b7557600080fd5b8015611ba257600380546001600160a01b0384166001600160a81b031990911617600160a01b1790555050565b6003805460ff60a01b19169055600280546001600160a01b0384166001600160a01b03199091161790555050565b6000662386f26fc10000611be2611a76565b600454611bef919061265f565b611c0190670de0b6b3a7640000612702565b611c0b919061267e565b6006549091508110156111c4575060065490565b6000620186a06004600301547f00000000000000000000000000000000000000000000000000000000000000006001600160a01b03166318160ddd6040518163ffffffff1660e01b8152600401602060405180830381865afa158015611c89573d6000803e3d6000fd5b505050506040513d601f19601f82011682018060405250810190611121919061271a565b60008060115443611cbe91906126eb565b905060046001015481601054611cd4919061265f565b611cde919061267e565b9150601054821115611cf05760105491505b5090565b600082611d945760405163a9059cbb60e01b81526001600160a01b038581166004830152602482018490527f0000000000000000000000000000000000000000000000000000000000000000169063a9059cbb906044016020604051808303816000875af1158015611d6a573d6000803e3d6000fd5b505050506040513d601f19601f82011682018060405250810190611d8e9190612849565b50611fbc565b600354600160a01b900460ff1615611eaa5760035460405163095ea7b360e01b81526001600160a01b039182166004820152602481018490527f00000000000000000000000000000000000000000000000000000000000000009091169063095ea7b3906044016020604051808303816000875af1158015611e1a573d6000803e3d6000fd5b505050506040513d601f19601f82011682018060405250810190611e3e9190612849565b50600354604051637acb775760e01b8152600481018490526001600160a01b03868116602483015290911690637acb775790604401600060405180830381600087803b158015611e8d57600080fd5b505af1158015611ea1573d6000803e3d6000fd5b50505050611fbc565b60025460405163095ea7b360e01b81526001600160a01b039182166004820152602481018490527f00000000000000000000000000000000000000000000000000000000000000009091169063095ea7b3906044016020604051808303816000875af1158015611f1e573d6000803e3d6000fd5b505050506040513d601f19601f82011682018060405250810190611f429190612849565b50600254604051637acb775760e01b8152600481018490526001600160a01b03868116602483015290911690637acb7757906044016020604051808303816000875af1158015611f96573d6000803e3d6000fd5b505050506040513d601f19601f82011682018060405250810190611fba9190612849565b505b5092915050565b604080516020810190915260008152600082116120315760405162461bcd60e51b815260206004820152602660248201527f4669786564506f696e743a3a6672616374696f6e3a206469766973696f6e206260448201526579207a65726f60d01b606482015260840161064c565b8261204b5750604080516020810190915260008152610b04565b71ffffffffffffffffffffffffffffffffffff83116120ed57600061207483607086901b61267e565b90506001600160e01b038111156120cd5760405162461bcd60e51b815260206004820152601e60248201527f4669786564506f696e743a3a6672616374696f6e3a206f766572666c6f770000604482015260640161064c565b6040518060200160405280826001600160e01b0316815250915050610b04565b600061207484600160701b85612329565b8051600090610b04906612725dd1d243ab906001600160e01b031661267e565b612126611cad565b6010600082825461213791906126eb565b909155505043601155565b6000662386f26fc10000612154611a76565b600454612161919061265f565b61217390670de0b6b3a7640000612702565b61217d919061267e565b600654909150811015612191575060065490565b600654156111c457600060065590565b6040516001600160a01b038085166024830152831660448201526064810182905261220c9085906323b872dd60e01b906084015b60408051601f198184030181529190526020810180516001600160e01b03166001600160e01b0319909316929092179091526123d8565b50505050565b6040516001600160a01b03831660248201526044810182905261224290849063a9059cbb60e01b906064016121d5565b505050565b600d54600e5460009161225991612702565b600b549091501580159061226d5750804310155b1561232657600454600a5460ff16156122a857600b546004546122909190612702565b6004819055600c54116122a3576000600b555b6122cb565b600b546004546122b891906126eb565b6004819055600c54106122cb576000600b555b43600e55600454600b54600a5460408051858152602081019490945283019190915260ff16151560608201527fb923e581a0f83128e9e1d8297aa52b18d6744310476e0b54509c054cd7a93b2a9060800160405180910390a1505b50565b600080806000198587098587029250828110838203039150508060001415612363576000841161235857600080fd5b5082900490506117d9565b80841161236f57600080fd5b60008486880960026001871981018816978890046003810283188082028403028082028403028082028403028082028403028082028403029081029092039091026000889003889004909101858311909403939093029303949094049190911702949350505050565b600080836001600160a01b0316836040516123f39190612866565b6000604051808303816000865af19150503d8060008114612430576040519150601f19603f3d011682016040523d82523d6000602084013e612435565b606091505b5091509150600082141561244d573d6000803e3d6000fd5b61220c81516000148061246f57508180602001905181019061246f9190612849565b6101a2816109215762461bcd60e51b600090815260206004526007602452600a808304818104828106603090810160101b848706949093060160081b929092010166524551230000300160c81b60445261092191606490fd5b80356001600160a01b03811681146124df57600080fd5b919050565b6000602082840312156124f657600080fd5b6117d9826124c8565b801515811461232657600080fd5b6000806000806080858703121561252357600080fd5b843561252e816124ff565b966020860135965060408601359560600135945092505050565b6000806040838503121561255b57600080fd5b82356004811061256a57600080fd5b946020939093013593505050565b6000806040838503121561258b57600080fd5b612594836124c8565b915060208301356125a4816124ff565b809150509250929050565b600080600080600080600060e0888a0312156125ca57600080fd5b505085359760208701359750604087013596606081013596506080810135955060a0810135945060c0013592509050565b60006020828403121561260d57600080fd5b5035919050565b60008060006060848603121561262957600080fd5b8335925060208401359150612640604085016124c8565b90509250925092565b634e487b7160e01b600052601160045260246000fd5b600081600019048311821515161561267957612679612649565b500290565b60008261269b57634e487b7160e01b600052601260045260246000fd5b500490565b6020808252818101527f4f776e61626c653a2063616c6c6572206973206e6f7420746865206f776e6572604082015260600190565b634e487b7160e01b600052602160045260246000fd5b6000828210156126fd576126fd612649565b500390565b6000821982111561271557612715612649565b500190565b60006020828403121561272c57600080fd5b5051919050565b60006020828403121561274557600080fd5b815160ff811681146117d957600080fd5b600181815b8085111561279157816000190482111561277757612777612649565b8085161561278457918102915b93841c939080029061275b565b509250929050565b6000826127a857506001610b04565b816127b557506000610b04565b81600181146127cb57600281146127d5576127f1565b6001915050610b04565b60ff8411156127e6576127e6612649565b50506001821b610b04565b5060208310610133831016604e8410600b8410161715612814575081810a610b04565b61281e8383612756565b806000190482111561283257612832612649565b029392505050565b60006117d960ff841683612799565b60006020828403121561285b57600080fd5b81516117d9816124ff565b6000825160005b81811015612887576020818601810151858301520161286d565b81811115612896576000828501525b50919091019291505056fea2646970667358221220fa1cc34f1d707c3052d0e72661566992a94b342e29afb60fc26457b1b92c64fd64736f6c634300080b0033",
  "devdoc": {
    "kind": "dev",
    "methods": {
      "bondPrice()": {
        "returns": {
          "price_": "uint"
        }
      },
      "bondPriceInUSD()": {
        "returns": {
          "price_": "uint"
        }
      },
      "currentDebt()": {
        "returns": {
          "_0": "uint"
        }
      },
      "debtDecay()": {
        "returns": {
          "decay_": "uint"
        }
      },
      "debtRatio()": {
        "returns": {
          "debtRatio_": "uint"
        }
      },
      "deposit(uint256,uint256,address)": {
        "params": {
          "_amount": "uint",
          "_depositor": "address",
          "_maxPrice": "uint"
        },
        "returns": {
          "_0": "uint"
        }
      },
      "initializeBondTerms(uint256,uint256,uint256,uint256,uint256,uint256,uint256)": {
        "params": {
          "_controlVariable": "uint",
          "_fee": "uint",
          "_initialDebt": "uint",
          "_maxDebt": "uint",
          "_maxPayout": "uint",
          "_minimumPrice": "uint",
          "_vestingTerm": "uint"
        }
      },
      "maxPayout()": {
        "returns": {
          "_0": "uint"
        }
      },
      "payoutFor(uint256)": {
        "params": {
          "_value": "uint"
        },
        "returns": {
          "_0": "uint"
        }
      },
      "pendingPayoutFor(address)": {
        "params": {
          "_depositor": "address"
        },
        "returns": {
          "pendingPayout_": "uint"
        }
      },
      "percentVestedFor(address)": {
        "params": {
          "_depositor": "address"
        },
        "returns": {
          "percentVested_": "uint"
        }
      },
      "recoverLostToken(address)": {
        "returns": {
          "_0": "bool"
        }
      },
      "redeem(address,bool)": {
        "params": {
          "_recipient": "address",
          "_stake": "bool"
        },
        "returns": {
          "_0": "uint"
        }
      },
      "setAdjustment(bool,uint256,uint256,uint256)": {
        "params": {
          "_addition": "bool",
          "_buffer": "uint",
          "_increment": "uint",
          "_target": "uint"
        }
      },
      "setBondTerms(uint8,uint256)": {
        "params": {
          "_input": "uint",
          "_parameter": "PARAMETER"
        }
      },
      "setStaking(address,bool)": {
        "params": {
          "_helper": "bool",
          "_staking": "address"
        }
      },
      "standardizedDebtRatio()": {
        "returns": {
          "_0": "uint"
        }
      }
    },
    "version": 1
  },
  "userdoc": {
    "kind": "user",
    "methods": {
      "bondPrice()": {
        "notice": "calculate current bond premium"
      },
      "bondPriceInUSD()": {
        "notice": "converts bond price to DAI value"
      },
      "currentDebt()": {
        "notice": "calculate debt factoring in decay"
      },
      "debtDecay()": {
        "notice": "amount to decay total debt by"
      },
      "debtRatio()": {
        "notice": "calculate current ratio of debt to REQT supply"
      },
      "deposit(uint256,uint256,address)": {
        "notice": "deposit bond"
      },
      "initializeBondTerms(uint256,uint256,uint256,uint256,uint256,uint256,uint256)": {
        "notice": "initializes bond parameters"
      },
      "maxPayout()": {
        "notice": "determine maximum bond size"
      },
      "payoutFor(uint256)": {
        "notice": "calculate interest due for new bond"
      },
      "pendingPayoutFor(address)": {
        "notice": "calculate amount of REQT available for claim by depositor"
      },
      "percentVestedFor(address)": {
        "notice": "calculate how far into vesting a depositor is"
      },
      "recoverLostToken(address)": {
        "notice": "allow anyone to send lost tokens (excluding principal or REQT) to the DAO"
      },
      "redeem(address,bool)": {
        "notice": "redeem bond for user"
      },
      "setAdjustment(bool,uint256,uint256,uint256)": {
        "notice": "set control variable adjustment"
      },
      "setBondTerms(uint8,uint256)": {
        "notice": "set parameters for new bonds"
      },
      "setStaking(address,bool)": {
        "notice": "set contract for auto stake"
      },
      "standardizedDebtRatio()": {
        "notice": "debt ratio in same terms for reserve or liquidity bonds"
      }
    },
    "version": 1
  },
  "storageLayout": {
    "storage": [
      {
        "astId": 13329,
        "contract": "contracts/RequiemQBondDepository.sol:RequiemQBondDepository",
        "label": "_owner",
        "offset": 0,
        "slot": "0",
        "type": "t_address"
      },
      {
        "astId": 13331,
        "contract": "contracts/RequiemQBondDepository.sol:RequiemQBondDepository",
        "label": "_newOwner",
        "offset": 0,
        "slot": "1",
        "type": "t_address"
      },
      {
        "astId": 5061,
        "contract": "contracts/RequiemQBondDepository.sol:RequiemQBondDepository",
        "label": "staking",
        "offset": 0,
        "slot": "2",
        "type": "t_address"
      },
      {
        "astId": 5063,
        "contract": "contracts/RequiemQBondDepository.sol:RequiemQBondDepository",
        "label": "stakingHelper",
        "offset": 0,
        "slot": "3",
        "type": "t_address"
      },
      {
        "astId": 5065,
        "contract": "contracts/RequiemQBondDepository.sol:RequiemQBondDepository",
        "label": "useHelper",
        "offset": 20,
        "slot": "3",
        "type": "t_bool"
      },
      {
        "astId": 5068,
        "contract": "contracts/RequiemQBondDepository.sol:RequiemQBondDepository",
        "label": "terms",
        "offset": 0,
        "slot": "4",
        "type": "t_struct(Terms)5093_storage"
      },
      {
        "astId": 5071,
        "contract": "contracts/RequiemQBondDepository.sol:RequiemQBondDepository",
        "label": "adjustment",
        "offset": 0,
        "slot": "10",
        "type": "t_struct(Adjust)5113_storage"
      },
      {
        "astId": 5076,
        "contract": "contracts/RequiemQBondDepository.sol:RequiemQBondDepository",
        "label": "bondInfo",
        "offset": 0,
        "slot": "15",
        "type": "t_mapping(t_address,t_struct(Bond)5102_storage)"
      },
      {
        "astId": 5078,
        "contract": "contracts/RequiemQBondDepository.sol:RequiemQBondDepository",
        "label": "totalDebt",
        "offset": 0,
        "slot": "16",
        "type": "t_uint256"
      },
      {
        "astId": 5080,
        "contract": "contracts/RequiemQBondDepository.sol:RequiemQBondDepository",
        "label": "lastDecay",
        "offset": 0,
        "slot": "17",
        "type": "t_uint256"
      }
    ],
    "types": {
      "t_address": {
        "encoding": "inplace",
        "label": "address",
        "numberOfBytes": "20"
      },
      "t_bool": {
        "encoding": "inplace",
        "label": "bool",
        "numberOfBytes": "1"
      },
      "t_mapping(t_address,t_struct(Bond)5102_storage)": {
        "encoding": "mapping",
        "key": "t_address",
        "label": "mapping(address => struct RequiemQBondDepository.Bond)",
        "numberOfBytes": "32",
        "value": "t_struct(Bond)5102_storage"
      },
      "t_struct(Adjust)5113_storage": {
        "encoding": "inplace",
        "label": "struct RequiemQBondDepository.Adjust",
        "members": [
          {
            "astId": 5104,
            "contract": "contracts/RequiemQBondDepository.sol:RequiemQBondDepository",
            "label": "add",
            "offset": 0,
            "slot": "0",
            "type": "t_bool"
          },
          {
            "astId": 5106,
            "contract": "contracts/RequiemQBondDepository.sol:RequiemQBondDepository",
            "label": "rate",
            "offset": 0,
            "slot": "1",
            "type": "t_uint256"
          },
          {
            "astId": 5108,
            "contract": "contracts/RequiemQBondDepository.sol:RequiemQBondDepository",
            "label": "target",
            "offset": 0,
            "slot": "2",
            "type": "t_uint256"
          },
          {
            "astId": 5110,
            "contract": "contracts/RequiemQBondDepository.sol:RequiemQBondDepository",
            "label": "buffer",
            "offset": 0,
            "slot": "3",
            "type": "t_uint256"
          },
          {
            "astId": 5112,
            "contract": "contracts/RequiemQBondDepository.sol:RequiemQBondDepository",
            "label": "lastBlock",
            "offset": 0,
            "slot": "4",
            "type": "t_uint256"
          }
        ],
        "numberOfBytes": "160"
      },
      "t_struct(Bond)5102_storage": {
        "encoding": "inplace",
        "label": "struct RequiemQBondDepository.Bond",
        "members": [
          {
            "astId": 5095,
            "contract": "contracts/RequiemQBondDepository.sol:RequiemQBondDepository",
            "label": "payout",
            "offset": 0,
            "slot": "0",
            "type": "t_uint256"
          },
          {
            "astId": 5097,
            "contract": "contracts/RequiemQBondDepository.sol:RequiemQBondDepository",
            "label": "vesting",
            "offset": 0,
            "slot": "1",
            "type": "t_uint256"
          },
          {
            "astId": 5099,
            "contract": "contracts/RequiemQBondDepository.sol:RequiemQBondDepository",
            "label": "lastBlock",
            "offset": 0,
            "slot": "2",
            "type": "t_uint256"
          },
          {
            "astId": 5101,
            "contract": "contracts/RequiemQBondDepository.sol:RequiemQBondDepository",
            "label": "pricePaid",
            "offset": 0,
            "slot": "3",
            "type": "t_uint256"
          }
        ],
        "numberOfBytes": "128"
      },
      "t_struct(Terms)5093_storage": {
        "encoding": "inplace",
        "label": "struct RequiemQBondDepository.Terms",
        "members": [
          {
            "astId": 5082,
            "contract": "contracts/RequiemQBondDepository.sol:RequiemQBondDepository",
            "label": "controlVariable",
            "offset": 0,
            "slot": "0",
            "type": "t_uint256"
          },
          {
            "astId": 5084,
            "contract": "contracts/RequiemQBondDepository.sol:RequiemQBondDepository",
            "label": "vestingTerm",
            "offset": 0,
            "slot": "1",
            "type": "t_uint256"
          },
          {
            "astId": 5086,
            "contract": "contracts/RequiemQBondDepository.sol:RequiemQBondDepository",
            "label": "minimumPrice",
            "offset": 0,
            "slot": "2",
            "type": "t_uint256"
          },
          {
            "astId": 5088,
            "contract": "contracts/RequiemQBondDepository.sol:RequiemQBondDepository",
            "label": "maxPayout",
            "offset": 0,
            "slot": "3",
            "type": "t_uint256"
          },
          {
            "astId": 5090,
            "contract": "contracts/RequiemQBondDepository.sol:RequiemQBondDepository",
            "label": "fee",
            "offset": 0,
            "slot": "4",
            "type": "t_uint256"
          },
          {
            "astId": 5092,
            "contract": "contracts/RequiemQBondDepository.sol:RequiemQBondDepository",
            "label": "maxDebt",
            "offset": 0,
            "slot": "5",
            "type": "t_uint256"
          }
        ],
        "numberOfBytes": "192"
      },
      "t_uint256": {
        "encoding": "inplace",
        "label": "uint256",
        "numberOfBytes": "32"
      }
    }
  }
}