{
  "address": "0xD4864BA8C00Eda17eFcbd0163c3202b36E355007",
  "abi": [
    {
      "inputs": [
        {
          "internalType": "contract IERC20",
          "name": "_reward",
          "type": "address"
        },
        {
          "internalType": "contract IFundDistributor",
          "name": "_fund",
          "type": "address"
        }
      ],
      "stateMutability": "nonpayable",
      "type": "constructor"
    },
    {
      "anonymous": false,
      "inputs": [
        {
          "indexed": true,
          "internalType": "address",
          "name": "user",
          "type": "address"
        },
        {
          "indexed": true,
          "internalType": "uint256",
          "name": "pid",
          "type": "uint256"
        },
        {
          "indexed": false,
          "internalType": "uint256",
          "name": "amount",
          "type": "uint256"
        },
        {
          "indexed": true,
          "internalType": "address",
          "name": "to",
          "type": "address"
        }
      ],
      "name": "Deposit",
      "type": "event"
    },
    {
      "anonymous": false,
      "inputs": [
        {
          "indexed": true,
          "internalType": "address",
          "name": "user",
          "type": "address"
        },
        {
          "indexed": true,
          "internalType": "uint256",
          "name": "pid",
          "type": "uint256"
        },
        {
          "indexed": false,
          "internalType": "uint256",
          "name": "amount",
          "type": "uint256"
        },
        {
          "indexed": true,
          "internalType": "address",
          "name": "to",
          "type": "address"
        }
      ],
      "name": "EmergencyWithdraw",
      "type": "event"
    },
    {
      "anonymous": false,
      "inputs": [
        {
          "indexed": true,
          "internalType": "address",
          "name": "user",
          "type": "address"
        },
        {
          "indexed": true,
          "internalType": "uint256",
          "name": "pid",
          "type": "uint256"
        },
        {
          "indexed": false,
          "internalType": "uint256",
          "name": "amount",
          "type": "uint256"
        }
      ],
      "name": "Harvest",
      "type": "event"
    },
    {
      "anonymous": false,
      "inputs": [
        {
          "indexed": true,
          "internalType": "uint256",
          "name": "pid",
          "type": "uint256"
        },
        {
          "indexed": false,
          "internalType": "uint256",
          "name": "allocPoint",
          "type": "uint256"
        },
        {
          "indexed": true,
          "internalType": "contract IERC20",
          "name": "lpToken",
          "type": "address"
        },
        {
          "indexed": true,
          "internalType": "contract IRewarder",
          "name": "rewarder",
          "type": "address"
        }
      ],
      "name": "LogPoolAddition",
      "type": "event"
    },
    {
      "anonymous": false,
      "inputs": [
        {
          "indexed": false,
          "internalType": "uint256",
          "name": "rewardPerSecond",
          "type": "uint256"
        }
      ],
      "name": "LogRewardPerSecond",
      "type": "event"
    },
    {
      "anonymous": false,
      "inputs": [
        {
          "indexed": true,
          "internalType": "uint256",
          "name": "pid",
          "type": "uint256"
        },
        {
          "indexed": false,
          "internalType": "uint256",
          "name": "allocPoint",
          "type": "uint256"
        },
        {
          "indexed": true,
          "internalType": "contract IRewarder",
          "name": "rewarder",
          "type": "address"
        },
        {
          "indexed": false,
          "internalType": "bool",
          "name": "overwrite",
          "type": "bool"
        }
      ],
      "name": "LogSetPool",
      "type": "event"
    },
    {
      "anonymous": false,
      "inputs": [
        {
          "indexed": true,
          "internalType": "uint256",
          "name": "pid",
          "type": "uint256"
        },
        {
          "indexed": false,
          "internalType": "uint256",
          "name": "lastRewardTime",
          "type": "uint256"
        },
        {
          "indexed": false,
          "internalType": "uint256",
          "name": "lpSupply",
          "type": "uint256"
        },
        {
          "indexed": false,
          "internalType": "uint256",
          "name": "accRewardPerShare",
          "type": "uint256"
        }
      ],
      "name": "LogUpdatePool",
      "type": "event"
    },
    {
      "anonymous": false,
      "inputs": [
        {
          "indexed": true,
          "internalType": "address",
          "name": "previousOwner",
          "type": "address"
        },
        {
          "indexed": true,
          "internalType": "address",
          "name": "newOwner",
          "type": "address"
        }
      ],
      "name": "OwnershipTransferred",
      "type": "event"
    },
    {
      "anonymous": false,
      "inputs": [
        {
          "indexed": true,
          "internalType": "address",
          "name": "fund",
          "type": "address"
        }
      ],
      "name": "PoolFundChanged",
      "type": "event"
    },
    {
      "anonymous": false,
      "inputs": [
        {
          "indexed": true,
          "internalType": "address",
          "name": "user",
          "type": "address"
        },
        {
          "indexed": true,
          "internalType": "uint256",
          "name": "pid",
          "type": "uint256"
        },
        {
          "indexed": false,
          "internalType": "uint256",
          "name": "amount",
          "type": "uint256"
        },
        {
          "indexed": true,
          "internalType": "address",
          "name": "to",
          "type": "address"
        }
      ],
      "name": "Withdraw",
      "type": "event"
    },
    {
      "inputs": [
        {
          "internalType": "uint256",
          "name": "allocPoint",
          "type": "uint256"
        },
        {
          "internalType": "contract IERC20",
          "name": "_lpToken",
          "type": "address"
        },
        {
          "internalType": "contract IRewarder",
          "name": "_rewarder",
          "type": "address"
        }
      ],
      "name": "add",
      "outputs": [],
      "stateMutability": "nonpayable",
      "type": "function"
    },
    {
      "inputs": [
        {
          "internalType": "uint256",
          "name": "pid",
          "type": "uint256"
        },
        {
          "internalType": "uint256",
          "name": "amount",
          "type": "uint256"
        },
        {
          "internalType": "address",
          "name": "to",
          "type": "address"
        }
      ],
      "name": "deposit",
      "outputs": [],
      "stateMutability": "nonpayable",
      "type": "function"
    },
    {
      "inputs": [
        {
          "internalType": "uint256",
          "name": "pid",
          "type": "uint256"
        },
        {
          "internalType": "address",
          "name": "to",
          "type": "address"
        }
      ],
      "name": "emergencyWithdraw",
      "outputs": [],
      "stateMutability": "nonpayable",
      "type": "function"
    },
    {
      "inputs": [],
      "name": "fund",
      "outputs": [
        {
          "internalType": "contract IFundDistributor",
          "name": "",
          "type": "address"
        }
      ],
      "stateMutability": "view",
      "type": "function"
    },
    {
      "inputs": [
        {
          "internalType": "uint256",
          "name": "pid",
          "type": "uint256"
        },
        {
          "internalType": "address",
          "name": "to",
          "type": "address"
        }
      ],
      "name": "harvest",
      "outputs": [],
      "stateMutability": "nonpayable",
      "type": "function"
    },
    {
      "inputs": [
        {
          "internalType": "address",
          "name": "to",
          "type": "address"
        }
      ],
      "name": "harvestAllRewards",
      "outputs": [],
      "stateMutability": "nonpayable",
      "type": "function"
    },
    {
      "inputs": [
        {
          "internalType": "uint256",
          "name": "",
          "type": "uint256"
        }
      ],
      "name": "lpToken",
      "outputs": [
        {
          "internalType": "contract IERC20",
          "name": "",
          "type": "address"
        }
      ],
      "stateMutability": "view",
      "type": "function"
    },
    {
      "inputs": [
        {
          "internalType": "uint256[]",
          "name": "pids",
          "type": "uint256[]"
        }
      ],
      "name": "massUpdatePools",
      "outputs": [],
      "stateMutability": "nonpayable",
      "type": "function"
    },
    {
      "inputs": [],
      "name": "owner",
      "outputs": [
        {
          "internalType": "address",
          "name": "",
          "type": "address"
        }
      ],
      "stateMutability": "view",
      "type": "function"
    },
    {
      "inputs": [
        {
          "internalType": "uint256",
          "name": "_pid",
          "type": "uint256"
        },
        {
          "internalType": "address",
          "name": "_user",
          "type": "address"
        }
      ],
      "name": "pendingReward",
      "outputs": [
        {
          "internalType": "uint256",
          "name": "pending",
          "type": "uint256"
        }
      ],
      "stateMutability": "view",
      "type": "function"
    },
    {
      "inputs": [
        {
          "internalType": "uint256",
          "name": "",
          "type": "uint256"
        }
      ],
      "name": "poolInfo",
      "outputs": [
        {
          "internalType": "uint256",
          "name": "accRewardPerShare",
          "type": "uint256"
        },
        {
          "internalType": "uint256",
          "name": "lastRewardTime",
          "type": "uint256"
        },
        {
          "internalType": "uint256",
          "name": "allocPoint",
          "type": "uint256"
        }
      ],
      "stateMutability": "view",
      "type": "function"
    },
    {
      "inputs": [],
      "name": "poolLength",
      "outputs": [
        {
          "internalType": "uint256",
          "name": "pools",
          "type": "uint256"
        }
      ],
      "stateMutability": "view",
      "type": "function"
    },
    {
      "inputs": [],
      "name": "renounceOwnership",
      "outputs": [],
      "stateMutability": "nonpayable",
      "type": "function"
    },
    {
      "inputs": [],
      "name": "reward",
      "outputs": [
        {
          "internalType": "contract IERC20",
          "name": "",
          "type": "address"
        }
      ],
      "stateMutability": "view",
      "type": "function"
    },
    {
      "inputs": [],
      "name": "rewardPerSecond",
      "outputs": [
        {
          "internalType": "uint256",
          "name": "",
          "type": "uint256"
        }
      ],
      "stateMutability": "view",
      "type": "function"
    },
    {
      "inputs": [
        {
          "internalType": "uint256",
          "name": "",
          "type": "uint256"
        }
      ],
      "name": "rewarder",
      "outputs": [
        {
          "internalType": "contract IRewarder",
          "name": "",
          "type": "address"
        }
      ],
      "stateMutability": "view",
      "type": "function"
    },
    {
      "inputs": [
        {
          "internalType": "uint256",
          "name": "_pid",
          "type": "uint256"
        },
        {
          "internalType": "uint256",
          "name": "_allocPoint",
          "type": "uint256"
        },
        {
          "internalType": "contract IRewarder",
          "name": "_rewarder",
          "type": "address"
        },
        {
          "internalType": "bool",
          "name": "overwrite",
          "type": "bool"
        }
      ],
      "name": "set",
      "outputs": [],
      "stateMutability": "nonpayable",
      "type": "function"
    },
    {
      "inputs": [
        {
          "internalType": "contract IFundDistributor",
          "name": "_fund",
          "type": "address"
        }
      ],
      "name": "setFund",
      "outputs": [],
      "stateMutability": "nonpayable",
      "type": "function"
    },
    {
      "inputs": [
        {
          "internalType": "uint256",
          "name": "_rewardPerSecond",
          "type": "uint256"
        }
      ],
      "name": "setRewardPerSecond",
      "outputs": [],
      "stateMutability": "nonpayable",
      "type": "function"
    },
    {
      "inputs": [],
      "name": "totalAllocPoint",
      "outputs": [
        {
          "internalType": "uint256",
          "name": "",
          "type": "uint256"
        }
      ],
      "stateMutability": "view",
      "type": "function"
    },
    {
      "inputs": [
        {
          "internalType": "address",
          "name": "newOwner_",
          "type": "address"
        }
      ],
      "name": "transferOwnership",
      "outputs": [],
      "stateMutability": "nonpayable",
      "type": "function"
    },
    {
      "inputs": [
        {
          "internalType": "uint256",
          "name": "pid",
          "type": "uint256"
        }
      ],
      "name": "updatePool",
      "outputs": [
        {
          "components": [
            {
              "internalType": "uint256",
              "name": "accRewardPerShare",
              "type": "uint256"
            },
            {
              "internalType": "uint256",
              "name": "lastRewardTime",
              "type": "uint256"
            },
            {
              "internalType": "uint256",
              "name": "allocPoint",
              "type": "uint256"
            }
          ],
          "internalType": "struct RequiemChef.PoolInfo",
          "name": "pool",
          "type": "tuple"
        }
      ],
      "stateMutability": "nonpayable",
      "type": "function"
    },
    {
      "inputs": [
        {
          "internalType": "uint256",
          "name": "",
          "type": "uint256"
        },
        {
          "internalType": "address",
          "name": "",
          "type": "address"
        }
      ],
      "name": "userInfo",
      "outputs": [
        {
          "internalType": "uint256",
          "name": "amount",
          "type": "uint256"
        },
        {
          "internalType": "int256",
          "name": "rewardDebt",
          "type": "int256"
        }
      ],
      "stateMutability": "view",
      "type": "function"
    },
    {
      "inputs": [
        {
          "internalType": "uint256",
          "name": "pid",
          "type": "uint256"
        },
        {
          "internalType": "uint256",
          "name": "amount",
          "type": "uint256"
        },
        {
          "internalType": "address",
          "name": "to",
          "type": "address"
        }
      ],
      "name": "withdraw",
      "outputs": [],
      "stateMutability": "nonpayable",
      "type": "function"
    },
    {
      "inputs": [
        {
          "internalType": "uint256",
          "name": "pid",
          "type": "uint256"
        },
        {
          "internalType": "uint256",
          "name": "amount",
          "type": "uint256"
        },
        {
          "internalType": "address",
          "name": "to",
          "type": "address"
        }
      ],
      "name": "withdrawAndHarvest",
      "outputs": [],
      "stateMutability": "nonpayable",
      "type": "function"
    }
  ],
  "transactionHash": "0xd3b6e80d88000794e1d86a0832fe2539ed0705be6d3a001da436f58b7bdcb7fe",
  "args": [
    "0x2d90e6d9368b2838a9558B0a609750243C5C4679",
    "0xEE771F8bda7958064F83d5b75A42D432B55155b4"
  ],
  "solcInputHash": "643d8d4b32e974e077b9271b9fa171b4",
  "bytecode": "0x608060405260006007553480156200001657600080fd5b5060405162001f9538038062001f958339810160408190526200003991620000c3565b600080546001600160a01b0319163390811782556040519091907f8be0079c531659141344cd1fd0a4f28419497f9722a3daafe3b4186f6b6457e0908290a3600180546001600160a01b039384166001600160a01b0319918216179091556002805492909316911617905562000102565b6001600160a01b0381168114620000c057600080fd5b50565b60008060408385031215620000d757600080fd5b8251620000e481620000aa565b6020840151909250620000f781620000aa565b809150509250929050565b611e8380620001126000396000f3fe608060405234801561001057600080fd5b50600436106101a35760003560e01c806378ed5d1f116100ee57806398969e8211610097578063c346253d11610071578063c346253d146103a5578063d1abb907146103b8578063f2fde38b146103cb578063fbe6cf6a146103de57600080fd5b806398969e821461036c578063ab7de0981461037f578063b60d42881461039257600080fd5b80638dbdbe6d116100c85780638dbdbe6d146103095780638f10369a1461031c57806393f1a40b1461032557600080fd5b806378ed5d1f146102d257806388bba42f146102e55780638da5cb5b146102f857600080fd5b8063228cb7331161015057806357a5b58c1161012a57806357a5b58c146102a457806366da5815146102b7578063715018a6146102ca57600080fd5b8063228cb733146102315780632f940c701461025c57806351eb05a61461026f57600080fd5b80631526fe27116101815780631526fe27146101e757806317caf6f11461021557806318fccc761461021e57600080fd5b8063081e3eda146101a85780630ad58d2f146101bf5780630e21750f146101d4575b600080fd5b6003545b6040519081526020015b60405180910390f35b6101d26101cd366004611acb565b6103f1565b005b6101d26101e2366004611b04565b6105a0565b6101fa6101f5366004611b28565b610656565b604080519384526020840192909252908201526060016101b6565b6101ac60075481565b6101d261022c366004611b41565b610689565b600154610244906001600160a01b031681565b6040516001600160a01b0390911681526020016101b6565b6101d261026a366004611b41565b610840565b61028261027d366004611b28565b61097e565b60408051825181526020808401519082015291810151908201526060016101b6565b6101d26102b2366004611b71565b610b89565b6101d26102c5366004611b28565b610bcd565b6101d2610c62565b6102446102e0366004611b28565b610d13565b6101d26102f3366004611bf4565b610d3d565b6000546001600160a01b0316610244565b6101d2610317366004611acb565b610ed4565b6101ac60085481565b610357610333366004611b41565b60066020908152600092835260408084209091529082529020805460019091015482565b604080519283526020830191909152016101b6565b6101ac61037a366004611b41565b61107c565b6101d261038d366004611c3e565b61122f565b600254610244906001600160a01b031681565b6102446103b3366004611b28565b611425565b6101d26103c6366004611acb565b611435565b6101d26103d9366004611b04565b611692565b6101d26103ec366004611b04565b6117d0565b60006103fc8461097e565b6000858152600660209081526040808320338452909152902081519192509064e8d4a510009061042c9086611c8b565b6104369190611caa565b8160010160008282546104499190611ccc565b9091555050805484908290600090610462908490611d24565b9250508190555060006005868154811061047e5761047e611d3b565b6000918252602090912001546001600160a01b0316905080156105165781546040516344af0fa760e01b8152600481018890523360248201526001600160a01b038681166044830152600060648301526084820192909252908216906344af0fa79060a401600060405180830381600087803b1580156104fd57600080fd5b505af1158015610511573d6000803e3d6000fd5b505050505b61054a84866004898154811061052e5761052e611d3b565b6000918252602090912001546001600160a01b0316919061181c565b836001600160a01b031686336001600160a01b03167f8166bf25f8a2b7ed3c85049207da4358d16edbed977d23fa2ee6f0dde3ec21328860405161059091815260200190565b60405180910390a4505050505050565b6000546001600160a01b031633146105ff5760405162461bcd60e51b815260206004820181905260248201527f4f776e61626c653a2063616c6c6572206973206e6f7420746865206f776e657260448201526064015b60405180910390fd5b6002805473ffffffffffffffffffffffffffffffffffffffff19166001600160a01b0383169081179091556040517f1bbced6cc5125dba763681b1a276a950f551621431f63fdb5b2b180da1aa2ae390600090a250565b6003818154811061066657600080fd5b600091825260209091206003909102018054600182015460029092015490925083565b60006106948361097e565b6000848152600660209081526040808320338452909152812082518154939450909264e8d4a51000916106c691611c8b565b6106d09190611caa565b905060008260010154826106e49190611ccc565b6001840183905560025460405163d66e57cd60e01b81526001600160a01b0388811660048301526024820184905292935091169063d66e57cd90604401600060405180830381600087803b15801561073b57600080fd5b505af115801561074f573d6000803e3d6000fd5b5050505060006005878154811061076857610768611d3b565b6000918252602090912001546001600160a01b0316905080156108005783546040516344af0fa760e01b8152600481018990523360248201526001600160a01b038881166044830152606482018590526084820192909252908216906344af0fa79060a401600060405180830381600087803b1580156107e757600080fd5b505af11580156107fb573d6000803e3d6000fd5b505050505b604051828152879033907f71bab65ced2e5750775a0613be067df48ef06cf92a496ebf7663ae06609249549060200160405180910390a350505050505050565b6000828152600660209081526040808320338452909152812080548282556001820183905560058054929391928690811061087d5761087d611d3b565b6000918252602090912001546001600160a01b031690508015610911576040516344af0fa760e01b8152600481018690523360248201526001600160a01b03858116604483015260006064830181905260848301528216906344af0fa79060a401600060405180830381600087803b1580156108f857600080fd5b505af115801561090c573d6000803e3d6000fd5b505050505b61092984836004888154811061052e5761052e611d3b565b836001600160a01b031685336001600160a01b03167f2cac5e20e1541d836381527a43f651851e302817b71dc8e810284e69210c1c6b8560405161096f91815260200190565b60405180910390a45050505050565b6109a260405180606001604052806000815260200160008152602001600081525090565b600382815481106109b5576109b5611d3b565b600091825260209182902060408051606081018252600390930290910180548352600181015493830184905260020154908201529150421115610b8457600060048381548110610a0757610a07611d3b565b6000918252602090912001546040516370a0823160e01b81523060048201526001600160a01b03909116906370a0823190602401602060405180830381865afa158015610a58573d6000803e3d6000fd5b505050506040513d601f19601f82011682018060405250810190610a7c9190611d51565b90508015610af5576000826020015142610a969190611d24565b90506000600754846040015160085484610ab09190611c8b565b610aba9190611c8b565b610ac49190611caa565b905082610ad664e8d4a5100083611c8b565b610ae09190611caa565b84518590610aef908390611d6a565b90525050505b4260208301526003805483919085908110610b1257610b12611d3b565b600091825260209182902083516003929092020190815582820151600182015560409283015160029091015583810151845183519182529181018490529182015283907fcb7325664a4a3b7c7223eefc492a97ca4fdf94d46884621e5a8fae5a04b2b9d29060600160405180910390a2505b919050565b8060005b81811015610bc757610bb6848483818110610baa57610baa611d3b565b9050602002013561097e565b50610bc081611d82565b9050610b8d565b50505050565b6000546001600160a01b03163314610c275760405162461bcd60e51b815260206004820181905260248201527f4f776e61626c653a2063616c6c6572206973206e6f7420746865206f776e657260448201526064016105f6565b60088190556040518181527fde89cb17ac7f58f94792b3e91e086ed85403819c24ceea882491f960ccb1a2789060200160405180910390a150565b6000546001600160a01b03163314610cbc5760405162461bcd60e51b815260206004820181905260248201527f4f776e61626c653a2063616c6c6572206973206e6f7420746865206f776e657260448201526064016105f6565b600080546040516001600160a01b03909116907f8be0079c531659141344cd1fd0a4f28419497f9722a3daafe3b4186f6b6457e0908390a36000805473ffffffffffffffffffffffffffffffffffffffff19169055565b60048181548110610d2357600080fd5b6000918252602090912001546001600160a01b0316905081565b6000546001600160a01b03163314610d975760405162461bcd60e51b815260206004820181905260248201527f4f776e61626c653a2063616c6c6572206973206e6f7420746865206f776e657260448201526064016105f6565b8260038581548110610dab57610dab611d3b565b906000526020600020906003020160020154600754610dca9190611d24565b610dd49190611d6a565b6007819055508260038581548110610dee57610dee611d3b565b9060005260206000209060030201600201819055508015610e4c578160058581548110610e1d57610e1d611d3b565b9060005260206000200160006101000a8154816001600160a01b0302191690836001600160a01b031602179055505b80610e7e5760058481548110610e6457610e64611d3b565b6000918252602090912001546001600160a01b0316610e80565b815b6001600160a01b0316847f95895a6ab1df54420d241b55243258a33e61b2194db66c1179ec521aae8e18658584604051610ec69291909182521515602082015260400190565b60405180910390a350505050565b6000610edf8461097e565b60008581526006602090815260408083206001600160a01b0387168452909152812080549293509185918391610f16908490611d6a565b9091555050815164e8d4a5100090610f2e9086611c8b565b610f389190611caa565b816001016000828254610f4b9190611d9d565b92505081905550600060058681548110610f6757610f67611d3b565b6000918252602090912001546001600160a01b0316905080156110005781546040516344af0fa760e01b8152600481018890526001600160a01b03868116602483018190526044830152600060648301526084820192909252908216906344af0fa79060a401600060405180830381600087803b158015610fe757600080fd5b505af1158015610ffb573d6000803e3d6000fd5b505050505b61103633308760048a8154811061101957611019611d3b565b6000918252602090912001546001600160a01b03169291906118c5565b836001600160a01b031686336001600160a01b03167f02d7e648dd130fc184d383e55bb126ac4c9c60e8f94bf05acdf557ba2d540b478860405161059091815260200190565b6000806003848154811061109257611092611d3b565b60009182526020808320604080516060810182526003909402909101805484526001810154848401526002015483820152878452600682528084206001600160a01b0388168552909152822081516004805493955091939092909190889081106110fe576110fe611d3b565b6000918252602090912001546040516370a0823160e01b81523060048201526001600160a01b03909116906370a0823190602401602060405180830381865afa15801561114f573d6000803e3d6000fd5b505050506040513d601f19601f820116820180604052508101906111739190611d51565b905083602001514211801561118757508015155b156111f757600084602001514261119e9190611d24565b905060006007548660400151600854846111b89190611c8b565b6111c29190611c8b565b6111cc9190611caa565b9050826111de64e8d4a5100083611c8b565b6111e89190611caa565b6111f29085611d6a565b935050505b6001830154835464e8d4a5100090611210908590611c8b565b61121a9190611caa565b6112249190611ccc565b979650505050505050565b6000546001600160a01b031633146112895760405162461bcd60e51b815260206004820181905260248201527f4f776e61626c653a2063616c6c6572206973206e6f7420746865206f776e657260448201526064016105f6565b61129282611916565b82600760008282546112a49190611d6a565b909155505060048054600181810183557f8a35acfbc15ff81a39ae7d344fd709f28e8600b4aa8c65c6b64bfe7fe36bd19b90910180546001600160a01b0380871673ffffffffffffffffffffffffffffffffffffffff199283168117909355600580548086019091557f036b6384b5eca791c62761152d0c79bb0604c104a5fb6f4eb0703f3154bb3db001805491871691909216811790915560408051606081018252600080825242602083019081529282018a8152600380548089018255928190529251919092027fc2575a0e9e593c00f959f8c92f12db2869c3395a3b0502d05e2516446f71f85b81019190915591517fc2575a0e9e593c00f959f8c92f12db2869c3395a3b0502d05e2516446f71f85c830155517fc2575a0e9e593c00f959f8c92f12db2869c3395a3b0502d05e2516446f71f85d90910155925490916113ed91611d24565b6040518681527f81ee0f8c5c46e2cb41984886f77a84181724abb86c32a5f6de539b07509d45e59060200160405180910390a4505050565b60058181548110610d2357600080fd5b60006114408461097e565b6000858152600660209081526040808320338452909152812082518154939450909264e8d4a510009161147291611c8b565b61147c9190611caa565b905060008260010154826114909190611ccc565b845190915064e8d4a51000906114a69088611c8b565b6114b09190611caa565b6114ba9083611ccc565b60018401558254869084906000906114d3908490611d24565b909155505060025460405163d66e57cd60e01b81526001600160a01b038781166004830152602482018490529091169063d66e57cd90604401600060405180830381600087803b15801561152657600080fd5b505af115801561153a573d6000803e3d6000fd5b5050505060006005888154811061155357611553611d3b565b6000918252602090912001546001600160a01b0316905080156115eb5783546040516344af0fa760e01b8152600481018a90523360248201526001600160a01b038881166044830152606482018590526084820192909252908216906344af0fa79060a401600060405180830381600087803b1580156115d257600080fd5b505af11580156115e6573d6000803e3d6000fd5b505050505b611603868860048b8154811061052e5761052e611d3b565b856001600160a01b031688336001600160a01b03167f8166bf25f8a2b7ed3c85049207da4358d16edbed977d23fa2ee6f0dde3ec21328a60405161164991815260200190565b60405180910390a4604051828152889033907f71bab65ced2e5750775a0613be067df48ef06cf92a496ebf7663ae06609249549060200160405180910390a35050505050505050565b6000546001600160a01b031633146116ec5760405162461bcd60e51b815260206004820181905260248201527f4f776e61626c653a2063616c6c6572206973206e6f7420746865206f776e657260448201526064016105f6565b6001600160a01b0381166117685760405162461bcd60e51b815260206004820152602660248201527f4f776e61626c653a206e6577206f776e657220697320746865207a65726f206160448201527f646472657373000000000000000000000000000000000000000000000000000060648201526084016105f6565b600080546040516001600160a01b03808516939216917f8be0079c531659141344cd1fd0a4f28419497f9722a3daafe3b4186f6b6457e091a36000805473ffffffffffffffffffffffffffffffffffffffff19166001600160a01b0392909216919091179055565b60035460005b8181101561181757600081815260066020908152604080832033845290915290205415611807576118078184610689565b61181081611d82565b90506117d6565b505050565b6040516001600160a01b0383166024820152604481018290526118179084907fa9059cbb00000000000000000000000000000000000000000000000000000000906064015b60408051601f198184030181529190526020810180517bffffffffffffffffffffffffffffffffffffffffffffffffffffffff167fffffffff00000000000000000000000000000000000000000000000000000000909316929092179091526119b4565b6040516001600160a01b0380851660248301528316604482015260648101829052610bc79085907f23b872dd0000000000000000000000000000000000000000000000000000000090608401611861565b60035460005b8181101561181757826001600160a01b03166004828154811061194157611941611d3b565b6000918252602090912001546001600160a01b031614156119a45760405162461bcd60e51b815260206004820152601360248201527f6164643a206578697374696e6720706f6f6c3f0000000000000000000000000060448201526064016105f6565b6119ad81611d82565b905061191c565b600080836001600160a01b0316836040516119cf9190611df5565b6000604051808303816000865af19150503d8060008114611a0c576040519150601f19603f3d011682016040523d82523d6000602084013e611a11565b606091505b50915091506000821415611a29573d6000803e3d6000fd5b610bc7815160001480611a4b575081806020019051810190611a4b9190611e30565b6101a281611a5c57611a5c81611a60565b5050565b62461bcd60e51b6000908152602060045260076024526652455123000030600a808404818106603090810160081b95839006959095019082900491820690940160101b939093010160c81b604452606490fd5b6001600160a01b0381168114611ac857600080fd5b50565b600080600060608486031215611ae057600080fd5b83359250602084013591506040840135611af981611ab3565b809150509250925092565b600060208284031215611b1657600080fd5b8135611b2181611ab3565b9392505050565b600060208284031215611b3a57600080fd5b5035919050565b60008060408385031215611b5457600080fd5b823591506020830135611b6681611ab3565b809150509250929050565b60008060208385031215611b8457600080fd5b823567ffffffffffffffff80821115611b9c57600080fd5b818501915085601f830112611bb057600080fd5b813581811115611bbf57600080fd5b8660208260051b8501011115611bd457600080fd5b60209290920196919550909350505050565b8015158114611ac857600080fd5b60008060008060808587031215611c0a57600080fd5b84359350602085013592506040850135611c2381611ab3565b91506060850135611c3381611be6565b939692955090935050565b600080600060608486031215611c5357600080fd5b833592506020840135611c6581611ab3565b91506040840135611af981611ab3565b634e487b7160e01b600052601160045260246000fd5b6000816000190483118215151615611ca557611ca5611c75565b500290565b600082611cc757634e487b7160e01b600052601260045260246000fd5b500490565b600080831283600160ff1b01831281151615611cea57611cea611c75565b837f7fffffffffffffffffffffffffffffffffffffffffffffffffffffffffffffff018313811615611d1e57611d1e611c75565b50500390565b600082821015611d3657611d36611c75565b500390565b634e487b7160e01b600052603260045260246000fd5b600060208284031215611d6357600080fd5b5051919050565b60008219821115611d7d57611d7d611c75565b500190565b6000600019821415611d9657611d96611c75565b5060010190565b6000808212827f7fffffffffffffffffffffffffffffffffffffffffffffffffffffffffffffff03841381151615611dd757611dd7611c75565b82600160ff1b038412811615611def57611def611c75565b50500190565b6000825160005b81811015611e165760208186018101518583015201611dfc565b81811115611e25576000828501525b509190910192915050565b600060208284031215611e4257600080fd5b8151611b2181611be656fea2646970667358221220b67ce7ecd2267bb219d8fc1fc39c705078ee09b9bcee952db3958f3e209a6e8d64736f6c634300080b0033",
  "devdoc": {
    "kind": "dev",
    "methods": {
      "add(uint256,address,address)": {
        "params": {
          "_lpToken": "Address of the LP ERC-20 token.",
          "_rewarder": "Address of the rewarder delegate.",
          "allocPoint": "AP of the new pool."
        }
      },
      "deposit(uint256,uint256,address)": {
        "params": {
          "amount": "LP token amount to deposit.",
          "pid": "The index of the pool. See `poolInfo`.",
          "to": "The receiver of `amount` deposit benefit."
        }
      },
      "emergencyWithdraw(uint256,address)": {
        "params": {
          "pid": "The index of the pool. See `poolInfo`.",
          "to": "Receiver of the LP tokens."
        }
      },
      "harvest(uint256,address)": {
        "params": {
          "pid": "The index of the pool. See `poolInfo`.",
          "to": "Receiver of rewards."
        }
      },
      "massUpdatePools(uint256[])": {
        "params": {
          "pids": "Pool IDs of all to be updated. Make sure to update all active pools."
        }
      },
      "pendingReward(uint256,address)": {
        "params": {
          "_pid": "The index of the pool. See `poolInfo`.",
          "_user": "Address of user."
        },
        "returns": {
          "pending": "reward for a given user."
        }
      },
      "set(uint256,uint256,address,bool)": {
        "params": {
          "_allocPoint": "New AP of the pool.",
          "_pid": "The index of the pool. See `poolInfo`.",
          "_rewarder": "Address of the rewarder delegate.",
          "overwrite": "True if _rewarder should be `set`. Otherwise `_rewarder` is ignored."
        }
      },
      "setFund(address)": {
        "params": {
          "_fund": "The address of new fund contract."
        }
      },
      "setRewardPerSecond(uint256)": {
        "params": {
          "_rewardPerSecond": "The amount of reward to be distributed per second."
        }
      },
      "updatePool(uint256)": {
        "params": {
          "pid": "The index of the pool. See `poolInfo`."
        },
        "returns": {
          "pool": "Returns the pool that was updated."
        }
      },
      "withdraw(uint256,uint256,address)": {
        "params": {
          "amount": "LP token amount to withdraw.",
          "pid": "The index of the pool. See `poolInfo`.",
          "to": "Receiver of the LP tokens."
        }
      },
      "withdrawAndHarvest(uint256,uint256,address)": {
        "params": {
          "amount": "LP token amount to withdraw.",
          "pid": "The index of the pool. See `poolInfo`.",
          "to": "Receiver of the LP tokens and rewards."
        }
      }
    },
    "stateVariables": {
      "totalAllocPoint": {
        "details": "Total allocation points. Must be the sum of all allocation points in all pools."
      }
    },
    "version": 1
  },
  "userdoc": {
    "kind": "user",
    "methods": {
      "add(uint256,address,address)": {
        "notice": "Add a new LP to the pool. Can only be called by the owner. DO NOT add the same LP token more than once. Rewards will be messed up if you do."
      },
      "deposit(uint256,uint256,address)": {
        "notice": "Deposit LP tokens to MCV2 for reward allocation."
      },
      "emergencyWithdraw(uint256,address)": {
        "notice": "Withdraw without caring about rewards. EMERGENCY ONLY."
      },
      "harvest(uint256,address)": {
        "notice": "Harvest proceeds for transaction sender to `to`."
      },
      "lpToken(uint256)": {
        "notice": "Address of the LP token for each MCV2 pool."
      },
      "massUpdatePools(uint256[])": {
        "notice": "Update reward variables for all pools. Be careful of gas spending!"
      },
      "pendingReward(uint256,address)": {
        "notice": "View function to see pending reward on frontend."
      },
      "poolInfo(uint256)": {
        "notice": "Info of each MCV2 pool."
      },
      "poolLength()": {
        "notice": "Returns the number of MCV2 pools."
      },
      "rewarder(uint256)": {
        "notice": "Address of each `IRewarder` contract in MCV2."
      },
      "set(uint256,uint256,address,bool)": {
        "notice": "Update the given pool's reward allocation point and `IRewarder` contract. Can only be called by the owner."
      },
      "setFund(address)": {
        "notice": "Set the new fund contract."
      },
      "setRewardPerSecond(uint256)": {
        "notice": "Sets the reward per second to be distributed. Can only be called by the owner."
      },
      "updatePool(uint256)": {
        "notice": "Update reward variables of the given pool."
      },
      "userInfo(uint256,address)": {
        "notice": "Info of each user that stakes LP tokens."
      },
      "withdraw(uint256,uint256,address)": {
        "notice": "Withdraw LP tokens from MCV2."
      },
      "withdrawAndHarvest(uint256,uint256,address)": {
        "notice": "Withdraw LP tokens from MCV2 and harvest proceeds for transaction sender to `to`."
      }
    },
    "version": 1
  },
  "storageLayout": {
    "storage": [
      {
        "astId": 11789,
        "contract": "contracts/RequiemChef.sol:RequiemChef",
        "label": "_owner",
        "offset": 0,
        "slot": "0",
        "type": "t_address"
      },
      {
        "astId": 3512,
        "contract": "contracts/RequiemChef.sol:RequiemChef",
        "label": "reward",
        "offset": 0,
        "slot": "1",
        "type": "t_contract(IERC20)9666"
      },
      {
        "astId": 3515,
        "contract": "contracts/RequiemChef.sol:RequiemChef",
        "label": "fund",
        "offset": 0,
        "slot": "2",
        "type": "t_contract(IFundDistributor)9869"
      },
      {
        "astId": 3520,
        "contract": "contracts/RequiemChef.sol:RequiemChef",
        "label": "poolInfo",
        "offset": 0,
        "slot": "3",
        "type": "t_array(t_struct(PoolInfo)3509_storage)dyn_storage"
      },
      {
        "astId": 3525,
        "contract": "contracts/RequiemChef.sol:RequiemChef",
        "label": "lpToken",
        "offset": 0,
        "slot": "4",
        "type": "t_array(t_contract(IERC20)9666)dyn_storage"
      },
      {
        "astId": 3530,
        "contract": "contracts/RequiemChef.sol:RequiemChef",
        "label": "rewarder",
        "offset": 0,
        "slot": "5",
        "type": "t_array(t_contract(IRewarder)10557)dyn_storage"
      },
      {
        "astId": 3538,
        "contract": "contracts/RequiemChef.sol:RequiemChef",
        "label": "userInfo",
        "offset": 0,
        "slot": "6",
        "type": "t_mapping(t_uint256,t_mapping(t_address,t_struct(UserInfo)3502_storage))"
      },
      {
        "astId": 3542,
        "contract": "contracts/RequiemChef.sol:RequiemChef",
        "label": "totalAllocPoint",
        "offset": 0,
        "slot": "7",
        "type": "t_uint256"
      },
      {
        "astId": 3544,
        "contract": "contracts/RequiemChef.sol:RequiemChef",
        "label": "rewardPerSecond",
        "offset": 0,
        "slot": "8",
        "type": "t_uint256"
      }
    ],
    "types": {
      "t_address": {
        "encoding": "inplace",
        "label": "address",
        "numberOfBytes": "20"
      },
      "t_array(t_contract(IERC20)9666)dyn_storage": {
        "base": "t_contract(IERC20)9666",
        "encoding": "dynamic_array",
        "label": "contract IERC20[]",
        "numberOfBytes": "32"
      },
      "t_array(t_contract(IRewarder)10557)dyn_storage": {
        "base": "t_contract(IRewarder)10557",
        "encoding": "dynamic_array",
        "label": "contract IRewarder[]",
        "numberOfBytes": "32"
      },
      "t_array(t_struct(PoolInfo)3509_storage)dyn_storage": {
        "base": "t_struct(PoolInfo)3509_storage",
        "encoding": "dynamic_array",
        "label": "struct RequiemChef.PoolInfo[]",
        "numberOfBytes": "32"
      },
      "t_contract(IERC20)9666": {
        "encoding": "inplace",
        "label": "contract IERC20",
        "numberOfBytes": "20"
      },
      "t_contract(IFundDistributor)9869": {
        "encoding": "inplace",
        "label": "contract IFundDistributor",
        "numberOfBytes": "20"
      },
      "t_contract(IRewarder)10557": {
        "encoding": "inplace",
        "label": "contract IRewarder",
        "numberOfBytes": "20"
      },
      "t_int256": {
        "encoding": "inplace",
        "label": "int256",
        "numberOfBytes": "32"
      },
      "t_mapping(t_address,t_struct(UserInfo)3502_storage)": {
        "encoding": "mapping",
        "key": "t_address",
        "label": "mapping(address => struct RequiemChef.UserInfo)",
        "numberOfBytes": "32",
        "value": "t_struct(UserInfo)3502_storage"
      },
      "t_mapping(t_uint256,t_mapping(t_address,t_struct(UserInfo)3502_storage))": {
        "encoding": "mapping",
        "key": "t_uint256",
        "label": "mapping(uint256 => mapping(address => struct RequiemChef.UserInfo))",
        "numberOfBytes": "32",
        "value": "t_mapping(t_address,t_struct(UserInfo)3502_storage)"
      },
      "t_struct(PoolInfo)3509_storage": {
        "encoding": "inplace",
        "label": "struct RequiemChef.PoolInfo",
        "members": [
          {
            "astId": 3504,
            "contract": "contracts/RequiemChef.sol:RequiemChef",
            "label": "accRewardPerShare",
            "offset": 0,
            "slot": "0",
            "type": "t_uint256"
          },
          {
            "astId": 3506,
            "contract": "contracts/RequiemChef.sol:RequiemChef",
            "label": "lastRewardTime",
            "offset": 0,
            "slot": "1",
            "type": "t_uint256"
          },
          {
            "astId": 3508,
            "contract": "contracts/RequiemChef.sol:RequiemChef",
            "label": "allocPoint",
            "offset": 0,
            "slot": "2",
            "type": "t_uint256"
          }
        ],
        "numberOfBytes": "96"
      },
      "t_struct(UserInfo)3502_storage": {
        "encoding": "inplace",
        "label": "struct RequiemChef.UserInfo",
        "members": [
          {
            "astId": 3499,
            "contract": "contracts/RequiemChef.sol:RequiemChef",
            "label": "amount",
            "offset": 0,
            "slot": "0",
            "type": "t_uint256"
          },
          {
            "astId": 3501,
            "contract": "contracts/RequiemChef.sol:RequiemChef",
            "label": "rewardDebt",
            "offset": 0,
            "slot": "1",
            "type": "t_int256"
          }
        ],
        "numberOfBytes": "64"
      },
      "t_uint256": {
        "encoding": "inplace",
        "label": "uint256",
        "numberOfBytes": "32"
      }
    }
  }
}